{
  "_format": "hh-sol-artifact-1",
  "contractName": "Zkp",
  "sourceName": "contracts/Zkp.sol",
  "abi": [
    {
      "inputs": [],
      "name": "A",
      "outputs": [
        {
          "internalType": "uint256",
          "name": "",
          "type": "uint256"
        }
      ],
      "stateMutability": "view",
      "type": "function"
    },
    {
      "inputs": [],
      "name": "B",
      "outputs": [
        {
          "internalType": "uint256",
          "name": "",
          "type": "uint256"
        }
      ],
      "stateMutability": "view",
      "type": "function"
    },
    {
      "inputs": [],
      "name": "GX",
      "outputs": [
        {
          "internalType": "uint256",
          "name": "",
          "type": "uint256"
        }
      ],
      "stateMutability": "view",
      "type": "function"
    },
    {
      "inputs": [],
      "name": "GY",
      "outputs": [
        {
          "internalType": "uint256",
          "name": "",
          "type": "uint256"
        }
      ],
      "stateMutability": "view",
      "type": "function"
    },
    {
      "inputs": [],
      "name": "N",
      "outputs": [
        {
          "internalType": "uint256",
          "name": "",
          "type": "uint256"
        }
      ],
      "stateMutability": "view",
      "type": "function"
    },
    {
      "inputs": [],
      "name": "P",
      "outputs": [
        {
          "internalType": "uint256",
          "name": "",
          "type": "uint256"
        }
      ],
      "stateMutability": "view",
      "type": "function"
    },
    {
      "inputs": [],
      "name": "getECCParams",
      "outputs": [
        {
          "components": [
            {
              "internalType": "uint256",
              "name": "gx",
              "type": "uint256"
            },
            {
              "internalType": "uint256",
              "name": "gy",
              "type": "uint256"
            },
            {
              "internalType": "uint256",
              "name": "a",
              "type": "uint256"
            },
            {
              "internalType": "uint256",
              "name": "b",
              "type": "uint256"
            },
            {
              "internalType": "uint256",
              "name": "p",
              "type": "uint256"
            },
            {
              "internalType": "uint256",
              "name": "n",
              "type": "uint256"
            }
          ],
          "internalType": "struct Ecc.EccParams",
          "name": "",
          "type": "tuple"
        }
      ],
      "stateMutability": "pure",
      "type": "function"
    },
    {
      "inputs": [
        {
          "components": [
            {
              "internalType": "uint256",
              "name": "x",
              "type": "uint256"
            },
            {
              "internalType": "uint256",
              "name": "y",
              "type": "uint256"
            }
          ],
          "internalType": "struct Ecc.EcPoint[]",
          "name": "points",
          "type": "tuple[]"
        }
      ],
      "name": "hashMultiplePointsToScalar",
      "outputs": [
        {
          "internalType": "uint256",
          "name": "",
          "type": "uint256"
        }
      ],
      "stateMutability": "pure",
      "type": "function"
    },
    {
      "inputs": [
        {
          "internalType": "uint256",
          "name": "x",
          "type": "uint256"
        },
        {
          "internalType": "uint256",
          "name": "y",
          "type": "uint256"
        }
      ],
      "name": "newEcPoint",
      "outputs": [
        {
          "components": [
            {
              "internalType": "uint256",
              "name": "x",
              "type": "uint256"
            },
            {
              "internalType": "uint256",
              "name": "y",
              "type": "uint256"
            }
          ],
          "internalType": "struct Ecc.EcPoint",
          "name": "",
          "type": "tuple"
        }
      ],
      "stateMutability": "pure",
      "type": "function"
    }
  ],
  "bytecode": "0x6080604052348015600f57600080fd5b506121728061001f6000396000f3fe608060405234801561001057600080fd5b50600436106100935760003560e01c80637a308a4c116100665780637a308a4c146101225780638b8fbd9214610140578063b3bf54951461015e578063c9e525df1461018e578063f446c1d0146101ac57610093565b806303a507be1461009857806332e7c5bf146100b6578063477decc0146100d45780636b7a524f14610104575b600080fd5b6100a06101ca565b6040516100ad9190611985565b60405180910390f35b6100be6101ee565b6040516100cb9190611985565b60405180910390f35b6100ee60048036038101906100e99190611b8e565b6101f3565b6040516100fb9190611985565b60405180910390f35b61010c610330565b6040516101199190611c61565b60405180910390f35b61012a6103ec565b6040516101379190611985565b60405180910390f35b610148610410565b6040516101559190611985565b60405180910390f35b61017860048036038101906101739190611c7c565b610434565b6040516101859190611ceb565b60405180910390f35b610196610459565b6040516101a39190611985565b60405180910390f35b6101b461047d565b6040516101c19190611985565b60405180910390f35b7f79be667ef9dcbbac55a06295ce870b07029bfcdb2dce28d959f2815b16f8179881565b600781565b600080825111610238576040517f08c379a000000000000000000000000000000000000000000000000000000000815260040161022f90611d63565b60405180910390fd5b60008260008151811061024e5761024d611d83565b5b602002602001015190506000600190505b835181101561029b5761028c8285838151811061027f5761027e611d83565b5b6020026020010151610482565b9150808060010191505061025f565b5060026102ab8260000151610569565b6102b88360200151610569565b6040516020016102c9929190611e6f565b6040516020818303038152906040526040516102e59190611ee5565b602060405180830381855afa158015610302573d6000803e3d6000fd5b5050506040513d601f19601f820116820180604052508101906103259190611f32565b60001c915050919050565b6103386118fa565b6040518060c001604052807f79be667ef9dcbbac55a06295ce870b07029bfcdb2dce28d959f2815b16f8179881526020017f483ada7726a3c4655da4fbfc0e1108a8fd17b448a68554199c47d08ffb10d4b8815260200160008152602001600781526020017ffffffffffffffffffffffffffffffffffffffffffffffffffffffffefffffc2f81526020017ffffffffffffffffffffffffffffffffebaaedce6af48a03bbfd25e8cd0364141815250905090565b7f483ada7726a3c4655da4fbfc0e1108a8fd17b448a68554199c47d08ffb10d4b881565b7ffffffffffffffffffffffffffffffffffffffffffffffffffffffffefffffc2f81565b61043c611930565b604051806040016040528084815260200183815250905092915050565b7ffffffffffffffffffffffffffffffffebaaedce6af48a03bbfd25e8cd036414181565b600081565b61048a611930565b600080600084600001518660000151036105255760007ffffffffffffffffffffffffffffffffffffffffffffffffffffffffefffffc2f806104cf576104ce611f5f565b5b8660200151886020015108036105005760405180604001604052806000815260200160008152509350505050610563565b610514866000015187602001516001610637565b809350819450829550505050610552565b610545866000015187602001516001886000015189602001516001610ab4565b8093508194508295505050505b61055d8383836114f2565b93505050505b92915050565b606060006001610578846115fc565b01905060008167ffffffffffffffff811115610597576105966119ca565b5b6040519080825280601f01601f1916602001820160405280156105c95781602001600182028036833780820191505090505b509050600082602001820190505b60011561062c578080600190039150507f3031323334353637383961626364656600000000000000000000000000000000600a86061a8153600a85816106205761061f611f5f565b5b049450600085036105d7575b819350505050919050565b600080600080840361065157858585925092509250610aab565b60007ffffffffffffffffffffffffffffffffffffffffffffffffffffffffefffffc2f8061068257610681611f5f565b5b878809905060007ffffffffffffffffffffffffffffffffffffffffffffffffffffffffefffffc2f806106b8576106b7611f5f565b5b878809905060007ffffffffffffffffffffffffffffffffffffffffffffffffffffffffefffffc2f806106ee576106ed611f5f565b5b878809905060007ffffffffffffffffffffffffffffffffffffffffffffffffffffffffefffffc2f8061072457610723611f5f565b5b7ffffffffffffffffffffffffffffffffffffffffffffffffffffffffefffffc2f8061075357610752611f5f565b5b848c09600409905060007ffffffffffffffffffffffffffffffffffffffffffffffffffffffffefffffc2f8061078c5761078b611f5f565b5b7ffffffffffffffffffffffffffffffffffffffffffffffffffffffffefffffc2f806107bb576107ba611f5f565b5b7ffffffffffffffffffffffffffffffffffffffffffffffffffffffffefffffc2f806107ea576107e9611f5f565b5b8586096000097ffffffffffffffffffffffffffffffffffffffffffffffffffffffffefffffc2f8061081f5761081e611f5f565b5b876003090890507ffffffffffffffffffffffffffffffffffffffffffffffffffffffffefffffc2f8061085557610854611f5f565b5b7ffffffffffffffffffffffffffffffffffffffffffffffffffffffffefffffc2f8061088457610883611f5f565b5b8384087ffffffffffffffffffffffffffffffffffffffffffffffffffffffffefffffc2f6108b29190611fbd565b7ffffffffffffffffffffffffffffffffffffffffffffffffffffffffefffffc2f806108e1576108e0611f5f565b5b8384090894507ffffffffffffffffffffffffffffffffffffffffffffffffffffffffefffffc2f8061091657610915611f5f565b5b7ffffffffffffffffffffffffffffffffffffffffffffffffffffffffefffffc2f8061094557610944611f5f565b5b7ffffffffffffffffffffffffffffffffffffffffffffffffffffffffefffffc2f8061097457610973611f5f565b5b8687096008097ffffffffffffffffffffffffffffffffffffffffffffffffffffffffefffffc2f6109a59190611fbd565b7ffffffffffffffffffffffffffffffffffffffffffffffffffffffffefffffc2f806109d4576109d3611f5f565b5b7ffffffffffffffffffffffffffffffffffffffffffffffffffffffffefffffc2f80610a0357610a02611f5f565b5b887ffffffffffffffffffffffffffffffffffffffffffffffffffffffffefffffc2f610a2f9190611fbd565b860884090893507ffffffffffffffffffffffffffffffffffffffffffffffffffffffffefffffc2f80610a6557610a64611f5f565b5b7ffffffffffffffffffffffffffffffffffffffffffffffffffffffffefffffc2f80610a9457610a93611f5f565b5b8a8c09600209925084848497509750975050505050505b93509350939050565b60008060008089148015610ac85750600088145b15610adb578585859250925092506114e6565b600086148015610aeb5750600085145b15610afe578888889250925092506114e6565b610b0661194a565b7ffffffffffffffffffffffffffffffffffffffffffffffffffffffffefffffc2f80610b3557610b34611f5f565b5b88890981600060048110610b4c57610b4b611d83565b5b6020020181815250507ffffffffffffffffffffffffffffffffffffffffffffffffffffffffefffffc2f80610b8457610b83611f5f565b5b81600060048110610b9857610b97611d83565b5b6020020151890981600160048110610bb357610bb2611d83565b5b6020020181815250507ffffffffffffffffffffffffffffffffffffffffffffffffffffffffefffffc2f80610beb57610bea611f5f565b5b85860981600260048110610c0257610c01611d83565b5b6020020181815250507ffffffffffffffffffffffffffffffffffffffffffffffffffffffffefffffc2f80610c3a57610c39611f5f565b5b81600260048110610c4e57610c4d611d83565b5b6020020151860981600360048110610c6957610c68611d83565b5b60200201818152505060405180608001604052807ffffffffffffffffffffffffffffffffffffffffffffffffffffffffefffffc2f80610cac57610cab611f5f565b5b83600260048110610cc057610cbf611d83565b5b60200201518d0981526020017ffffffffffffffffffffffffffffffffffffffffffffffffffffffffefffffc2f80610cfb57610cfa611f5f565b5b83600360048110610d0f57610d0e611d83565b5b60200201518c0981526020017ffffffffffffffffffffffffffffffffffffffffffffffffffffffffefffffc2f80610d4a57610d49611f5f565b5b83600060048110610d5e57610d5d611d83565b5b60200201518a0981526020017ffffffffffffffffffffffffffffffffffffffffffffffffffffffffefffffc2f80610d9957610d98611f5f565b5b83600160048110610dad57610dac611d83565b5b60200201518909815250905080600260048110610dcd57610dcc611d83565b5b602002015181600060048110610de657610de5611d83565b5b6020020151141580610e28575080600360048110610e0757610e06611d83565b5b602002015181600160048110610e2057610e1f611d83565b5b602002015114155b610e67576040517f08c379a0000000000000000000000000000000000000000000000000000000008152600401610e5e9061203d565b60405180910390fd5b610e6f61194a565b7ffffffffffffffffffffffffffffffffffffffffffffffffffffffffefffffc2f80610e9e57610e9d611f5f565b5b82600060048110610eb257610eb1611d83565b5b60200201517ffffffffffffffffffffffffffffffffffffffffffffffffffffffffefffffc2f610ee29190611fbd565b83600260048110610ef657610ef5611d83565b5b60200201510881600060048110610f1057610f0f611d83565b5b6020020181815250507ffffffffffffffffffffffffffffffffffffffffffffffffffffffffefffffc2f80610f4857610f47611f5f565b5b82600160048110610f5c57610f5b611d83565b5b60200201517ffffffffffffffffffffffffffffffffffffffffffffffffffffffffefffffc2f610f8c9190611fbd565b83600360048110610fa057610f9f611d83565b5b60200201510881600160048110610fba57610fb9611d83565b5b6020020181815250507ffffffffffffffffffffffffffffffffffffffffffffffffffffffffefffffc2f80610ff257610ff1611f5f565b5b8160006004811061100657611005611d83565b5b60200201518260006004811061101f5761101e611d83565b5b6020020151098160026004811061103957611038611d83565b5b6020020181815250507ffffffffffffffffffffffffffffffffffffffffffffffffffffffffefffffc2f8061107157611070611f5f565b5b8160006004811061108557611084611d83565b5b60200201518260026004811061109e5761109d611d83565b5b602002015109816003600481106110b8576110b7611d83565b5b60200201818152505060007ffffffffffffffffffffffffffffffffffffffffffffffffffffffffefffffc2f806110f2576110f1611f5f565b5b8260036004811061110657611105611d83565b5b60200201517ffffffffffffffffffffffffffffffffffffffffffffffffffffffffefffffc2f6111369190611fbd565b7ffffffffffffffffffffffffffffffffffffffffffffffffffffffffefffffc2f8061116557611164611f5f565b5b8460016004811061117957611178611d83565b5b60200201518560016004811061119257611191611d83565b5b6020020151090890507ffffffffffffffffffffffffffffffffffffffffffffffffffffffffefffffc2f806111ca576111c9611f5f565b5b7ffffffffffffffffffffffffffffffffffffffffffffffffffffffffefffffc2f806111f9576111f8611f5f565b5b7ffffffffffffffffffffffffffffffffffffffffffffffffffffffffefffffc2f8061122857611227611f5f565b5b8460026004811061123c5761123b611d83565b5b60200201518660006004811061125557611254611d83565b5b6020020151096002097ffffffffffffffffffffffffffffffffffffffffffffffffffffffffefffffc2f6112899190611fbd565b8208905060007ffffffffffffffffffffffffffffffffffffffffffffffffffffffffefffffc2f806112be576112bd611f5f565b5b7ffffffffffffffffffffffffffffffffffffffffffffffffffffffffefffffc2f806112ed576112ec611f5f565b5b837ffffffffffffffffffffffffffffffffffffffffffffffffffffffffefffffc2f6113199190611fbd565b7ffffffffffffffffffffffffffffffffffffffffffffffffffffffffefffffc2f8061134857611347611f5f565b5b8660026004811061135c5761135b611d83565b5b60200201518860006004811061137557611374611d83565b5b60200201510908846001600481106113905761138f611d83565b5b60200201510990507ffffffffffffffffffffffffffffffffffffffffffffffffffffffffefffffc2f806113c7576113c6611f5f565b5b7ffffffffffffffffffffffffffffffffffffffffffffffffffffffffefffffc2f806113f6576113f5611f5f565b5b8460036004811061140a57611409611d83565b5b60200201518660016004811061142357611422611d83565b5b6020020151097ffffffffffffffffffffffffffffffffffffffffffffffffffffffffefffffc2f6114549190611fbd565b8208905060007ffffffffffffffffffffffffffffffffffffffffffffffffffffffffefffffc2f8061148957611488611f5f565b5b7ffffffffffffffffffffffffffffffffffffffffffffffffffffffffefffffc2f806114b8576114b7611f5f565b5b8a8e09856000600481106114cf576114ce611d83565b5b602002015109905082828297509750975050505050505b96509650969350505050565b6114fa611930565b60006115058361174f565b905060007ffffffffffffffffffffffffffffffffffffffffffffffffffffffffefffffc2f8061153857611537611f5f565b5b828309905060007ffffffffffffffffffffffffffffffffffffffffffffffffffffffffefffffc2f8061156e5761156d611f5f565b5b828809905060007ffffffffffffffffffffffffffffffffffffffffffffffffffffffffefffffc2f806115a4576115a3611f5f565b5b7ffffffffffffffffffffffffffffffffffffffffffffffffffffffffefffffc2f806115d3576115d2611f5f565b5b848609880990506040518060400160405280838152602001828152509450505050509392505050565b600080600090507a184f03e93ff9f4daa797ed6e38ed64bf6a1f010000000000000000831061165a577a184f03e93ff9f4daa797ed6e38ed64bf6a1f01000000000000000083816116505761164f611f5f565b5b0492506040810190505b6d04ee2d6d415b85acef81000000008310611697576d04ee2d6d415b85acef8100000000838161168d5761168c611f5f565b5b0492506020810190505b662386f26fc1000083106116c657662386f26fc1000083816116bc576116bb611f5f565b5b0492506010810190505b6305f5e10083106116ef576305f5e10083816116e5576116e4611f5f565b5b0492506008810190505b612710831061171457612710838161170a57611709611f5f565b5b0492506004810190505b60648310611737576064838161172d5761172c611f5f565b5b0492506002810190505b600a8310611746576001810190505b80915050919050565b600080821415801561178157507ffffffffffffffffffffffffffffffffffffffffffffffffffffffffefffffc2f8214155b80156117ae575060007ffffffffffffffffffffffffffffffffffffffffffffffffffffffffefffffc2f14155b6117ed576040517f08c379a00000000000000000000000000000000000000000000000000000000081526004016117e4906120a9565b60405180910390fd5b6000806001905060007ffffffffffffffffffffffffffffffffffffffffffffffffffffffffefffffc2f905060005b600086146118ee57858261183091906120c9565b9050827ffffffffffffffffffffffffffffffffffffffffffffffffffffffffefffffc2f8061186257611861611f5f565b5b7ffffffffffffffffffffffffffffffffffffffffffffffffffffffffefffffc2f8061189157611890611f5f565b5b8584097ffffffffffffffffffffffffffffffffffffffffffffffffffffffffefffffc2f6118bf9190611fbd565b860880945081955050508586826118d691906120fa565b836118e19190611fbd565b809750819350505061181c565b83945050505050919050565b6040518060c001604052806000815260200160008152602001600081526020016000815260200160008152602001600081525090565b604051806040016040528060008152602001600081525090565b6040518060800160405280600490602082028036833780820191505090505090565b6000819050919050565b61197f8161196c565b82525050565b600060208201905061199a6000830184611976565b92915050565b6000604051905090565b600080fd5b600080fd5b600080fd5b6000601f19601f8301169050919050565b7f4e487b7100000000000000000000000000000000000000000000000000000000600052604160045260246000fd5b611a02826119b9565b810181811067ffffffffffffffff82111715611a2157611a206119ca565b5b80604052505050565b6000611a346119a0565b9050611a4082826119f9565b919050565b600067ffffffffffffffff821115611a6057611a5f6119ca565b5b602082029050602081019050919050565b600080fd5b600080fd5b611a848161196c565b8114611a8f57600080fd5b50565b600081359050611aa181611a7b565b92915050565b600060408284031215611abd57611abc611a76565b5b611ac76040611a2a565b90506000611ad784828501611a92565b6000830152506020611aeb84828501611a92565b60208301525092915050565b6000611b0a611b0584611a45565b611a2a565b90508083825260208201905060408402830185811115611b2d57611b2c611a71565b5b835b81811015611b565780611b428882611aa7565b845260208401935050604081019050611b2f565b5050509392505050565b600082601f830112611b7557611b746119b4565b5b8135611b85848260208601611af7565b91505092915050565b600060208284031215611ba457611ba36119aa565b5b600082013567ffffffffffffffff811115611bc257611bc16119af565b5b611bce84828501611b60565b91505092915050565b611be08161196c565b82525050565b60c082016000820151611bfc6000850182611bd7565b506020820151611c0f6020850182611bd7565b506040820151611c226040850182611bd7565b506060820151611c356060850182611bd7565b506080820151611c486080850182611bd7565b5060a0820151611c5b60a0850182611bd7565b50505050565b600060c082019050611c766000830184611be6565b92915050565b60008060408385031215611c9357611c926119aa565b5b6000611ca185828601611a92565b9250506020611cb285828601611a92565b9150509250929050565b604082016000820151611cd26000850182611bd7565b506020820151611ce56020850182611bd7565b50505050565b6000604082019050611d006000830184611cbc565b92915050565b600082825260208201905092915050565b7f4e6f20706f696e74732070726f76696465640000000000000000000000000000600082015250565b6000611d4d601283611d06565b9150611d5882611d17565b602082019050919050565b60006020820190508181036000830152611d7c81611d40565b9050919050565b7f4e487b7100000000000000000000000000000000000000000000000000000000600052603260045260246000fd5b600081519050919050565b600081905092915050565b60005b83811015611de6578082015181840152602081019050611dcb565b60008484015250505050565b6000611dfd82611db2565b611e078185611dbd565b9350611e17818560208601611dc8565b80840191505092915050565b7f2c00000000000000000000000000000000000000000000000000000000000000600082015250565b6000611e59600183611dbd565b9150611e6482611e23565b600182019050919050565b6000611e7b8285611df2565b9150611e8682611e4c565b9150611e928284611df2565b91508190509392505050565b600081519050919050565b600081905092915050565b6000611ebf82611e9e565b611ec98185611ea9565b9350611ed9818560208601611dc8565b80840191505092915050565b6000611ef18284611eb4565b915081905092915050565b6000819050919050565b611f0f81611efc565b8114611f1a57600080fd5b50565b600081519050611f2c81611f06565b92915050565b600060208284031215611f4857611f476119aa565b5b6000611f5684828501611f1d565b91505092915050565b7f4e487b7100000000000000000000000000000000000000000000000000000000600052601260045260246000fd5b7f4e487b7100000000000000000000000000000000000000000000000000000000600052601160045260246000fd5b6000611fc88261196c565b9150611fd38361196c565b9250828203905081811115611feb57611fea611f8e565b5b92915050565b7f557365206a6163446f75626c652066756e6374696f6e20696e73746561640000600082015250565b6000612027601e83611d06565b915061203282611ff1565b602082019050919050565b600060208201905081810360008301526120568161201a565b9050919050565b7f496e76616c6964206e756d626572000000000000000000000000000000000000600082015250565b6000612093600e83611d06565b915061209e8261205d565b602082019050919050565b600060208201905081810360008301526120c281612086565b9050919050565b60006120d48261196c565b91506120df8361196c565b9250826120ef576120ee611f5f565b5b828204905092915050565b60006121058261196c565b91506121108361196c565b925082820261211e8161196c565b9150828204841483151761213557612134611f8e565b5b509291505056fea26469706673582212203df20ac602699862bb3c8831c21d8cb30b0ffe57843a106516fc2afcb5d458ec64736f6c634300081c0033",
  "linkReferences": {},
  "deployedLinkReferences": {}
}