{
  "_format": "hh-sol-artifact-1",
  "contractName": "Zkp",
  "sourceName": "contracts/Zkp.sol",
  "abi": [
    {
      "inputs": [],
      "name": "A",
      "outputs": [
        {
          "internalType": "uint256",
          "name": "",
          "type": "uint256"
        }
      ],
      "stateMutability": "view",
      "type": "function"
    },
    {
      "inputs": [],
      "name": "B",
      "outputs": [
        {
          "internalType": "uint256",
          "name": "",
          "type": "uint256"
        }
      ],
      "stateMutability": "view",
      "type": "function"
    },
    {
      "inputs": [],
      "name": "G",
      "outputs": [
        {
          "internalType": "uint256",
          "name": "x",
          "type": "uint256"
        },
        {
          "internalType": "uint256",
          "name": "y",
          "type": "uint256"
        }
      ],
      "stateMutability": "view",
      "type": "function"
    },
    {
      "inputs": [],
      "name": "GX",
      "outputs": [
        {
          "internalType": "uint256",
          "name": "",
          "type": "uint256"
        }
      ],
      "stateMutability": "view",
      "type": "function"
    },
    {
      "inputs": [],
      "name": "GY",
      "outputs": [
        {
          "internalType": "uint256",
          "name": "",
          "type": "uint256"
        }
      ],
      "stateMutability": "view",
      "type": "function"
    },
    {
      "inputs": [],
      "name": "N",
      "outputs": [
        {
          "internalType": "uint256",
          "name": "",
          "type": "uint256"
        }
      ],
      "stateMutability": "view",
      "type": "function"
    },
    {
      "inputs": [],
      "name": "P",
      "outputs": [
        {
          "internalType": "uint256",
          "name": "",
          "type": "uint256"
        }
      ],
      "stateMutability": "view",
      "type": "function"
    },
    {
      "inputs": [
        {
          "internalType": "uint256",
          "name": "v",
          "type": "uint256"
        }
      ],
      "name": "encodeVote",
      "outputs": [
        {
          "components": [
            {
              "internalType": "uint256",
              "name": "x",
              "type": "uint256"
            },
            {
              "internalType": "uint256",
              "name": "y",
              "type": "uint256"
            }
          ],
          "internalType": "struct Ecc.EcPoint",
          "name": "",
          "type": "tuple"
        }
      ],
      "stateMutability": "view",
      "type": "function"
    },
    {
      "inputs": [],
      "name": "getECCParams",
      "outputs": [
        {
          "components": [
            {
              "internalType": "uint256",
              "name": "gx",
              "type": "uint256"
            },
            {
              "internalType": "uint256",
              "name": "gy",
              "type": "uint256"
            },
            {
              "internalType": "uint256",
              "name": "a",
              "type": "uint256"
            },
            {
              "internalType": "uint256",
              "name": "b",
              "type": "uint256"
            },
            {
              "internalType": "uint256",
              "name": "p",
              "type": "uint256"
            },
            {
              "internalType": "uint256",
              "name": "n",
              "type": "uint256"
            }
          ],
          "internalType": "struct Ecc.EccParams",
          "name": "",
          "type": "tuple"
        }
      ],
      "stateMutability": "pure",
      "type": "function"
    },
    {
      "inputs": [
        {
          "components": [
            {
              "internalType": "uint256",
              "name": "x",
              "type": "uint256"
            },
            {
              "internalType": "uint256",
              "name": "y",
              "type": "uint256"
            }
          ],
          "internalType": "struct Ecc.EcPoint[]",
          "name": "points",
          "type": "tuple[]"
        }
      ],
      "name": "hashMultiplePointsToScalar",
      "outputs": [
        {
          "internalType": "uint256",
          "name": "",
          "type": "uint256"
        }
      ],
      "stateMutability": "pure",
      "type": "function"
    },
    {
      "inputs": [
        {
          "internalType": "uint256",
          "name": "x",
          "type": "uint256"
        },
        {
          "internalType": "uint256",
          "name": "y",
          "type": "uint256"
        }
      ],
      "name": "newEcPoint",
      "outputs": [
        {
          "components": [
            {
              "internalType": "uint256",
              "name": "x",
              "type": "uint256"
            },
            {
              "internalType": "uint256",
              "name": "y",
              "type": "uint256"
            }
          ],
          "internalType": "struct Ecc.EcPoint",
          "name": "",
          "type": "tuple"
        }
      ],
      "stateMutability": "pure",
      "type": "function"
    }
  ],
  "bytecode": "0x60806040523461002757610011610037565b61001961002c565b61261c61023c823961261c90f35b610032565b60405190565b600080fd5b61003f6101fe565b565b90565b90565b90565b61005e61005961006392610041565b610047565b610044565b90565b61008f7f79be667ef9dcbbac55a06295ce870b07029bfcdb2dce28d959f2815b16f8179861004a565b90565b90565b6100a96100a46100ae92610092565b610047565b610044565b90565b6100da7f483ada7726a3c4655da4fbfc0e1108a8fd17b448a68554199c47d08ffb10d4b8610095565b90565b601f801991011690565b634e487b7160e01b600052604160045260246000fd5b90610107906100dd565b810190811060018060401b0382111761011f57604052565b6100e7565b9061013761013061002c565b92836100fd565b565b6101436040610124565b90565b9061015090610044565b9052565b61015e9051610044565b90565b60001b90565b9061017460001991610161565b9181191691161790565b61019261018d61019792610044565b610047565b610044565b90565b90565b906101b26101ad6101b99261017e565b61019a565b8254610167565b9055565b906101ea602060016101f0946101e2600082016101dc60008801610154565b9061019d565b019201610154565b9061019d565b565b906101fc916101bd565b565b610239610209610066565b6102326102146100b1565b61022961021f610139565b9360008501610146565b60208301610146565b60006101f2565b56fe60806040526004361015610013575b61082f565b61001e6000356100cd565b806303a507be146100c857806332e7c5bf146100c3578063477decc0146100be5780636b7a524f146100b95780636fecb623146100b45780637a308a4c146100af5780638b8fbd92146100aa578063b3bf5495146100a5578063c3926505146100a0578063c9e525df1461009b5763f446c1d00361000e576107fa565b61078e565b610711565b6106bc565b61061d565b6105ac565b610520565b61047f565b6103b9565b6101de565b610172565b60e01c90565b60405190565b600080fd5b600080fd5b60009103126100ee57565b6100de565b90565b90565b90565b61011061010b610115926100f3565b6100f9565b6100f6565b90565b6101417f79be667ef9dcbbac55a06295ce870b07029bfcdb2dce28d959f2815b16f817986100fc565b90565b61014c610118565b90565b610158906100f6565b9052565b91906101709060006020850194019061014f565b565b346101a2576101823660046100e3565b61019e61018d610144565b6101956100d3565b9182918261015c565b0390f35b6100d9565b90565b6101be6101b96101c3926101a7565b6100f9565b6100f6565b90565b6101d060076101aa565b90565b6101db6101c6565b90565b3461020e576101ee3660046100e3565b61020a6101f96101d3565b6102016100d3565b9182918261015c565b0390f35b6100d9565b600080fd5b600080fd5b601f801991011690565b634e487b7160e01b600052604160045260246000fd5b906102479061021d565b810190811067ffffffffffffffff82111761026157604052565b610227565b906102796102726100d3565b928361023d565b565b67ffffffffffffffff81116102935760208091020190565b610227565b600080fd5b600080fd5b6102ab816100f6565b036102b257565b600080fd5b905035906102c4826102a2565b565b9190604083820312610302576102fb906102e06040610266565b936102ee82600083016102b7565b60008601526020016102b7565b6020830152565b61029d565b9092919261031c6103178261027b565b610266565b93818552604060208601920283019281841161035b57915b8383106103415750505050565b602060409161035084866102c6565b815201920191610334565b610298565b9080601f8301121561037e5781602061037b93359101610307565b90565b610218565b906020828203126103b457600082013567ffffffffffffffff81116103af576103ac9201610360565b90565b610213565b6100de565b346103e9576103e56103d46103cf366004610383565b610a73565b6103dc6100d3565b9182918261015c565b0390f35b6100d9565b6103f7906100f6565b9052565b9060a08061046793610415600082015160008601906103ee565b610427602082015160208601906103ee565b610439604082015160408601906103ee565b61044b606082015160608601906103ee565b61045d608082015160808601906103ee565b01519101906103ee565b565b919061047d90600060c085019401906103fb565b565b346104af5761048f3660046100e3565b6104ab61049a610c3b565b6104a26100d3565b91829182610469565b0390f35b6100d9565b60001c90565b90565b6104c96104ce916104b4565b6104ba565b90565b6104db90546104bd565b90565b6000906104f960016104f2600085016104d1565b93016104d1565b90565b91602061051e9294936105176040820196600083019061014f565b019061014f565b565b34610551576105303660046100e3565b6105386104de565b9061054d6105446100d3565b928392836104fc565b0390f35b6100d9565b90565b61056d61056861057292610556565b6100f9565b6100f6565b90565b61059e7f483ada7726a3c4655da4fbfc0e1108a8fd17b448a68554199c47d08ffb10d4b8610559565b90565b6105a9610575565b90565b346105dc576105bc3660046100e3565b6105d86105c76105a1565b6105cf6100d3565b9182918261015c565b0390f35b6100d9565b90565b6105f86105f36105fd926105e1565b6100f9565b6100f6565b90565b61060f6401000003d0196105e4565b90565b61061a610600565b90565b3461064d5761062d3660046100e3565b610649610638610612565b6106406100d3565b9182918261015c565b0390f35b6100d9565b919060408382031261067b578061066f61067892600086016102b7565b936020016102b7565b90565b6100de565b906020806106a49361069a600082015160008601906103ee565b01519101906103ee565b565b91906106ba90600060408501940190610680565b565b346106ed576106e96106d86106d2366004610652565b90610d08565b6106e06100d3565b918291826106a6565b0390f35b6100d9565b9060208282031261070c57610709916000016102b7565b90565b6100de565b346107415761073d61072c6107273660046106f2565b610ec1565b6107346100d3565b918291826106a6565b0390f35b6100d9565b90565b61075d61075861076292610746565b6100f9565b6100f6565b90565b61078070014551231950b75fc4402da1732fc9bebe19610749565b90565b61078b610765565b90565b346107be5761079e3660046100e3565b6107ba6107a9610783565b6107b16100d3565b9182918261015c565b0390f35b6100d9565b90565b6107da6107d56107df926107c3565b6100f9565b6100f6565b90565b6107ec60006107c6565b90565b6107f76107e2565b90565b3461082a5761080a3660046100e3565b6108266108156107ef565b61081d6100d3565b9182918261015c565b0390f35b6100d9565b600080fd5b600090565b5190565b60209181520190565b60007f4e6f20706f696e74732070726f76696465640000000000000000000000000000910152565b61087b601260209261083d565b61088481610846565b0190565b61089e906020810190600081830391015261086e565b90565b156108a857565b6108b06100d3565b62461bcd60e51b8152806108c660048201610888565b0390fd5b6108d46040610266565b90565b906108e1906100f6565b9052565b60016108f191016100f6565b90565b634e487b7160e01b600052603260045260246000fd5b9061091482610839565b811015610925576020809102010190565b6108f4565b61093490516100f6565b90565b5190565b905090565b60005b838110610954575050906000910152565b806020918301518185015201610943565b61098a6109819260209261097881610937565b9485809361093b565b93849101610940565b0190565b60007f2c00000000000000000000000000000000000000000000000000000000000000910152565b6109c26001809261093b565b6109cb8161098e565b0190565b6109e06109e5916109eb9493610965565b6109b6565b90610965565b90565b60001b90565b5190565b905090565b610a22610a1992602092610a10816109f4565b948580936109f8565b93849101610940565b0190565b610a2f916109fd565b90565b610a3a6100d3565b3d6000823e3d90fd5b610a57610a52610a5c926100f6565b6100f9565b6100f6565b90565b610a6b610a70916104b4565b610a43565b90565b90610a7c610834565b50610aa2610a8983610839565b610a9c610a9660006107c6565b916100f6565b116108a1565b6000610ad7610ace6000610ac9610ac0610aba6108ca565b956107c6565b600086016108d7565b6107c6565b602083016108d7565b610ae160006107c6565b905b81610afe610af8610af387610839565b6100f6565b916100f6565b1015610b2957610b1d610b2391610b1686859061090a565b5190610fae565b916108e5565b90610ae3565b602092935060009150610b9590610b84610b5f610b5a86610b53610b4e88870161092a565b6111ed565b940161092a565b6111ed565b91610b76610b6b6100d3565b9384928884016109cf565b86820181038252038261023d565b610b8c6100d3565b91829182610a26565b039060025afa15610bb657610bb3610bae6000516109ee565b610a5f565b90565b610a32565b610bc560c0610266565b90565b600090565b610bd5610bbb565b906020808080808087610be6610bc8565b815201610bf1610bc8565b815201610bfc610bc8565b815201610c07610bc8565b815201610c12610bc8565b815201610c1d610bc8565b81525050565b610c2b610bcd565b90565b610c3860c0610266565b90565b610c43610c23565b50610c4c610118565b610cc7610c57610575565b610cbe610c626107e2565b610cb5610c6d6101c6565b610cac610c78610600565b93610ca3610c84610765565b97610c9a610c90610c2e565b9b60008d016108d7565b60208b016108d7565b604089016108d7565b606087016108d7565b608085016108d7565b60a083016108d7565b90565b610cd46040610266565b90565b610cdf610cca565b9060208083610cec610bc8565b815201610cf7610bc8565b81525050565b610d05610cd7565b90565b610d3490610d14610cfd565b5091610d2b610d216108ca565b93600085016108d7565b602083016108d7565b90565b90565b610d4e610d49610d5392610d37565b6100f9565b6100f6565b90565b60207f2031000000000000000000000000000000000000000000000000000000000000917f496e76616c696420766f74652c2063616e206f6e6c7920636173742030206f7260008201520152565b610db1602260409261083d565b610dba81610d56565b0190565b610dd49060208101906000818303910152610da4565b90565b15610dde57565b610de66100d3565b62461bcd60e51b815280610dfc60048201610dbe565b0390fd5b60007f496e76616c696420766f74650000000000000000000000000000000000000000910152565b610e35600c60209261083d565b610e3e81610e00565b0190565b610e589060208101906000818303910152610e28565b90565b90565b610e72610e6d610e7792610e5b565b6100f9565b6100f6565b90565b90610eb3610eaa6001610e8b610cca565b94610ea4610e9b600083016104d1565b600088016108d7565b016104d1565b602084016108d7565b565b610ebe90610e7a565b90565b610ec9610cfd565b5080610ede610ed860006107c6565b916100f6565b148015610f78575b610eef90610dd7565b80610f03610efd60006107c6565b916100f6565b14600014610f195750610f166000610eb5565b90565b610f2c610f266001610d3a565b916100f6565b14600014610f5657610f536002610f4d610f47600092610e5e565b91610eb5565b90611297565b90565b610f5e6100d3565b62461bcd60e51b815280610f7460048201610e42565b0390fd5b50610eef81610f90610f8a6001610d3a565b916100f6565b149050610ee6565b634e487b7160e01b600052601260045260246000fd5b90610fb7610cfd565b50610fc260006107c6565b50610fcd60006107c6565b50610fd860006107c6565b50610fe56000830161092a565b611002610ffc610ff76000850161092a565b6100f6565b916100f6565b146000146110c757611021602061101a81850161092a565b920161092a565b611029610600565b9182156110c2570861104461103e60006107c6565b916100f6565b1460001461108557506000611082611079600061107461106b6110656108ca565b956107c6565b600086016108d7565b6107c6565b602083016108d7565b90565b6110b4816110a4602061109d60006110bf960161092a565b920161092a565b6110ae6001610d3a565b91611c5c565b90915b919091611ebb565b90565b610f98565b8161111d916110e760206110e060006110bf970161092a565b930161092a565b90600161110260206110fb6000850161092a565b930161092a565b92611117611111600193610d3a565b92610d3a565b94611442565b90916110b7565b606090565b9061113491016100f6565b90565b67ffffffffffffffff81116111555761115160209161021d565b0190565b610227565b9061116c61116783611137565b610266565b918252565b369037565b9061119b6111838361115a565b926020806111918693611137565b9201910390611171565b565b60016111a991036100f6565b90565b90565b6111c36111be6111c8926111ac565b6100f9565b6100f6565b90565b6111d76111dd916100f6565b916100f6565b9081156111e8570490565b610f98565b6111f5611124565b5061121261120282612067565b61120c6001610d3a565b90611129565b9061121c82611176565b91611225610834565b5060200182015b6001156112905761123f61126b9161119d565b916f181899199a1a9b1b9c1cb0b131b232b360811b600a82061a8353611265600a6111af565b906111cb565b8061127f61127960006107c6565b916100f6565b1461128a579061122c565b50505b90565b505061128d565b6112de916112d2916112a7610cfd565b50906112c160206112ba6000840161092a565b920161092a565b906112cc6001610d3a565b926122eb565b91909190919091611ebb565b90565b67ffffffffffffffff81116112f65760200290565b610227565b61130761130c916112e1565b610266565b90565b369037565b90611332611321836112fb565b9261132c84916112e1565b9061130f565b565b61133e6004611314565b90565b50600490565b9061135182611341565b81101561135f576020020190565b6108f4565b90565b61137b61137661138092611364565b6100f9565b6100f6565b90565b60007f557365206a6163446f75626c652066756e6374696f6e20696e73746561640000910152565b6113b8601e60209261083d565b6113c181611383565b0190565b6113db90602081019060008183039101526113ab565b90565b156113e557565b6113ed6100d3565b62461bcd60e51b815280611403600482016113c5565b0390fd5b634e487b7160e01b600052601160045260246000fd5b61142c611432919392936100f6565b926100f6565b820391821161143d57565b611407565b929593909195611450610834565b50611459610834565b50611462610834565b508361147761147160006107c6565b916100f6565b1480611c03575b611bf5578061149661149060006107c6565b916100f6565b1480611bda575b611bce576114a9611334565b9287886114b4610600565b908115611bc9576114d992096114d4866114ce60006107c6565b90611347565b6108d7565b876114f66114f1866114eb60006107c6565b90611347565b61092a565b6114fe610600565b908115611bc457611523920961151e866115186001610d3a565b90611347565b6108d7565b868761152d610600565b908115611bbf57611552920961154d866115476002610e5e565b90611347565b6108d7565b8661156f61156a866115646002610e5e565b90611347565b61092a565b611577610600565b908115611bba5761159c9209611597866115916003611367565b90611347565b6108d7565b6115a660046112fb565b946115c36115be866115b86002610e5e565b90611347565b61092a565b6115cb610600565b908115611bb5576115e09209600087016108d7565b6115fc6115f7856115f16003611367565b90611347565b61092a565b611604610600565b908115611bb0576116199209602086016108d7565b906116366116318461162b60006107c6565b90611347565b61092a565b9061163f610600565b928315611bab576116729361166d9361165c9209604087016108d7565b926116676001610d3a565b90611347565b61092a565b61167a610600565b908115611ba65761168f9209606083016108d7565b926116ac6116a7856116a160006107c6565b90611347565b61092a565b6116d96116d36116ce6116c9886116c36002610e5e565b90611347565b61092a565b6100f6565b916100f6565b14158015611b50575b6116eb906113de565b6116f3611334565b9261171061170b866117056002610e5e565b90611347565b61092a565b61173d61171b610600565b6117376117328961172c60006107c6565b90611347565b61092a565b9061141d565b611745610600565b908115611b4b5761176a92086117658661175f60006107c6565b90611347565b6108d7565b6117866117818661177b6003611367565b90611347565b61092a565b6117b3611791610600565b6117ad6117a8896117a26001610d3a565b90611347565b61092a565b9061141d565b6117bb610600565b908115611b46576117e092086117db866117d56001610d3a565b90611347565b6108d7565b6117fc6117f7856117f160006107c6565b90611347565b61092a565b6118186118138661180d60006107c6565b90611347565b61092a565b611820610600565b908115611b415761184592096118408661183a6002610e5e565b90611347565b6108d7565b61186161185c856118566002610e5e565b90611347565b61092a565b61187d6118788661187260006107c6565b90611347565b61092a565b611885610600565b908115611b3c576118aa92096118a58661189f6003611367565b90611347565b6108d7565b6118c66118c1856118bb6001610d3a565b90611347565b61092a565b6118e26118dd866118d76001610d3a565b90611347565b61092a565b6118ea610600565b918215611b37570961191f6118fd610600565b6119196119148861190e6003611367565b90611347565b61092a565b9061141d565b611927610600565b918215611b325708611937610600565b6002906119566119518961194b60006107c6565b90611347565b61092a565b61197261196d896119676002610e5e565b90611347565b61092a565b61197a610600565b918215611b2d570961198a610600565b908115611b285761199d6119a494610e5e565b099061141d565b6119ac610600565b918215611b235708946119d16119cc866119c66001610d3a565b90611347565b61092a565b6119ed6119e8836119e260006107c6565b90611347565b61092a565b611a09611a04886119fe6002610e5e565b90611347565b61092a565b611a11610600565b918215611b1e5709611a2b611a24610600565b899061141d565b611a33610600565b918215611b195708611a43610600565b918215611b14570990611a70611a6b611a5a610600565b92611a656001610d3a565b90611347565b61092a565b90611a8d611a8888611a826003611367565b90611347565b61092a565b611a95610600565b908115611b0f57611aa793099061141d565b90611ab0610600565b8015611b0a57611ad592611ad0920895611aca60006107c6565b90611347565b61092a565b9190611adf610600565b918215611b055709611aef610600565b918215611b00570992919291929190565b610f98565b610f98565b610f98565b610f98565b610f98565b610f98565b610f98565b610f98565b610f98565b610f98565b610f98565b610f98565b610f98565b610f98565b610f98565b610f98565b506116eb611b70611b6b86611b656001610d3a565b90611347565b61092a565b611b9d611b97611b92611b8d89611b876003611367565b90611347565b61092a565b6100f6565b916100f6565b141590506116e2565b610f98565b610f98565b610f98565b610f98565b610f98565b610f98565b610f98565b610f98565b50509250919291929190565b5081611bef611be960006107c6565b916100f6565b1461149d565b925093945050919291929190565b5082611c18611c1260006107c6565b916100f6565b1461147e565b90565b611c35611c30611c3a92611c1e565b6100f9565b6100f6565b90565b90565b611c54611c4f611c5992611c3d565b6100f9565b6100f6565b90565b9290611c66610834565b50611c6f610834565b50611c78610834565b5082611c8d611c8760006107c6565b916100f6565b14611eb1578384611c9c610600565b918215611eac5709938182611caf610600565b918215611ea75709908485611cc2610600565b918215611ea257099060049083611cd7610600565b918215611e9d5709611ce7610600565b918215611e9857611cf790611c21565b0995600390611d04610600565b918215611e9357611d1490611367565b0990611d1e6107e2565b9080611d28610600565b918215611e8e5709611d38610600565b918215611e895709611d48610600565b918215611e845708948586611d5b610600565b918215611e7f5709611d6b610600565b829083611d76610600565b908115611e7a57611d8893089061141d565b611d90610600565b918215611e7557089590611dac611da5610600565b889061141d565b611db4610600565b918215611e705708611dc4610600565b918215611e6b570990611dd5610600565b60089180611de1610600565b918215611e665709611df1610600565b908115611e6157611e04611e0b94611c40565b099061141d565b611e13610600565b918215611e5c57089260029190611e28610600565b918215611e575709611e38610600565b918215611e5257611e4890610e5e565b0992919291929190565b610f98565b610f98565b610f98565b610f98565b610f98565b610f98565b610f98565b610f98565b610f98565b610f98565b610f98565b610f98565b610f98565b610f98565b610f98565b610f98565b610f98565b610f98565b610f98565b9192919291929190565b9091611ecf90611ec9610cfd565b506124b5565b908182611eda610600565b918215611f4b57099081611eec610600565b918215611f465709929190611eff610600565b918215611f415709611f0f610600565b908115611f3c57611f399209611f30611f266108ca565b93600085016108d7565b602083016108d7565b90565b610f98565b610f98565b610f98565b610f98565b90565b611f67611f62611f6c92611f50565b6100f9565b6100f6565b90565b90565b611f86611f81611f8b92611f6f565b6100f9565b6100f6565b90565b90565b611fa5611fa0611faa92611f8e565b6100f9565b6100f6565b90565b90565b611fc4611fbf611fc992611fad565b6100f9565b6100f6565b90565b90565b611fe3611fde611fe892611fcc565b6100f9565b6100f6565b90565b90565b612002611ffd61200792611feb565b6100f9565b6100f6565b90565b90565b61202161201c6120269261200a565b6100f9565b6100f6565b90565b90565b61204061203b61204592612029565b6100f9565b6100f6565b90565b90565b61205f61205a61206492612048565b6100f9565b6100f6565b90565b61206f610834565b5061207a60006107c6565b90806120a96120a37a184f03e93ff9f4daa797ed6e38ed64bf6a1f010000000000000000611f53565b916100f6565b1015612281575b806120d16120cb6d04ee2d6d415b85acef8100000000611f91565b916100f6565b1015612246575b806120f26120ec662386f26fc10000611fcf565b916100f6565b1015612212575b8061211061210a6305f5e10061200d565b916100f6565b10156121e1575b8061212c61212661271061202c565b916100f6565b10156121b2575b80612147612141606461204b565b916100f6565b1015612184575b61216161215b600a6111af565b916100f6565b101561216b575b90565b61217f906121796001610d3a565b90611129565b612168565b61219b6121ac91612195606461204b565b906111cb565b916121a66002610e5e565b90611129565b9061214e565b6121ca6121db916121c461271061202c565b906111cb565b916121d56004611c21565b90611129565b90612133565b6121fb61220c916121f56305f5e10061200d565b906111cb565b916122066008611c40565b90611129565b90612117565b61222f61224091612229662386f26fc10000611fcf565b906111cb565b9161223a6010611fee565b90611129565b906120f9565b61226a61227b916122646d04ee2d6d415b85acef8100000000611f91565b906111cb565b916122756020611fb0565b90611129565b906120d8565b6122b26122c3916122ac7a184f03e93ff9f4daa797ed6e38ed64bf6a1f010000000000000000611f53565b906111cb565b916122bd6040611f72565b90611129565b906120b0565b6122d56122db916100f6565b916100f6565b9081156122e6570490565b610f98565b9291926122f6610834565b506122ff610834565b50612308610834565b508061231d61231760006107c6565b916100f6565b146123f057939061232e60006107c6565b9361233960006107c6565b936123446001610d3a565b965b8061235a61235460006107c6565b916100f6565b146123e4578061236a6001610d3a565b1661237e61237860006107c6565b916100f6565b036123b8575b9061239d6123a693926123976002610e5e565b906122c9565b93919091611c5c565b95919594909592959195949094612346565b9561239d956123a69392986123d4929190869085928c94611442565b9891969096979192935050612384565b50505050909291929190565b50929092919291929190565b60007f496e76616c6964206e756d626572000000000000000000000000000000000000910152565b612431600e60209261083d565b61243a816123fc565b0190565b6124549060208101906000818303910152612424565b90565b1561245e57565b6124666100d3565b62461bcd60e51b81528061247c6004820161243e565b0390fd5b61248f612495919392936100f6565b926100f6565b916124a18382026100f6565b9281840414901517156124b057565b611407565b6124bd610834565b50806124d26124cc60006107c6565b916100f6565b1415806125c4575b8061259c575b6124e990612457565b6124f360006107c6565b6124fd6001610d3a565b90612506610600565b9161250f610834565b505b8361252561251f60006107c6565b916100f6565b14612595576125358385906122c9565b819291612540610600565b829161254a610600565b9081156125905761255c93099061141d565b91612565610600565b801561258b576125849361257e92089395809592612480565b9061141d565b9290612511565b610f98565b610f98565b5091505090565b506124e96125a8610600565b6125bb6125b560006107c6565b916100f6565b141590506124e0565b50806125df6125d96125d4610600565b6100f6565b916100f6565b14156124da56fea264697066735822122047f0f10e22421f320e81fd9356dadfab43059e97db0823dbb93c5ab2d98e71e364736f6c634300081c0033",
  "linkReferences": {},
  "deployedLinkReferences": {}
}