{
  "_format": "hh-sol-artifact-1",
  "contractName": "Election",
  "sourceName": "contracts/Election.sol",
  "abi": [
    {
      "inputs": [
        {
          "components": [
            {
              "internalType": "address",
              "name": "owner",
              "type": "address"
            },
            {
              "components": [
                {
                  "internalType": "uint256",
                  "name": "x",
                  "type": "uint256"
                },
                {
                  "internalType": "uint256",
                  "name": "y",
                  "type": "uint256"
                }
              ],
              "internalType": "struct Ecc.EcPoint",
              "name": "publicKey",
              "type": "tuple"
            },
            {
              "components": [
                {
                  "internalType": "uint256",
                  "name": "c",
                  "type": "uint256"
                },
                {
                  "internalType": "uint256",
                  "name": "d",
                  "type": "uint256"
                }
              ],
              "internalType": "struct Zkp.KeyOwnershipProof",
              "name": "proof",
              "type": "tuple"
            }
          ],
          "internalType": "struct Election.Key[]",
          "name": "_authorityKeys",
          "type": "tuple[]"
        },
        {
          "internalType": "string[]",
          "name": "_candidates",
          "type": "string[]"
        },
        {
          "internalType": "address[]",
          "name": "_whitelistedAddresses",
          "type": "address[]"
        },
        {
          "internalType": "uint64",
          "name": "_endTime",
          "type": "uint64"
        }
      ],
      "stateMutability": "nonpayable",
      "type": "constructor"
    },
    {
      "anonymous": false,
      "inputs": [
        {
          "components": [
            {
              "internalType": "uint64",
              "name": "id",
              "type": "uint64"
            },
            {
              "internalType": "address",
              "name": "from",
              "type": "address"
            },
            {
              "components": [
                {
                  "components": [
                    {
                      "components": [
                        {
                          "internalType": "uint256",
                          "name": "x",
                          "type": "uint256"
                        },
                        {
                          "internalType": "uint256",
                          "name": "y",
                          "type": "uint256"
                        }
                      ],
                      "internalType": "struct Ecc.EcPoint",
                      "name": "a",
                      "type": "tuple"
                    },
                    {
                      "components": [
                        {
                          "internalType": "uint256",
                          "name": "x",
                          "type": "uint256"
                        },
                        {
                          "internalType": "uint256",
                          "name": "y",
                          "type": "uint256"
                        }
                      ],
                      "internalType": "struct Ecc.EcPoint",
                      "name": "b",
                      "type": "tuple"
                    }
                  ],
                  "internalType": "struct Ecc.ECElGamalCiphertext",
                  "name": "ciphertext",
                  "type": "tuple"
                },
                {
                  "components": [
                    {
                      "components": [
                        {
                          "internalType": "uint256",
                          "name": "x",
                          "type": "uint256"
                        },
                        {
                          "internalType": "uint256",
                          "name": "y",
                          "type": "uint256"
                        }
                      ],
                      "internalType": "struct Ecc.EcPoint",
                      "name": "a0_",
                      "type": "tuple"
                    },
                    {
                      "components": [
                        {
                          "internalType": "uint256",
                          "name": "x",
                          "type": "uint256"
                        },
                        {
                          "internalType": "uint256",
                          "name": "y",
                          "type": "uint256"
                        }
                      ],
                      "internalType": "struct Ecc.EcPoint",
                      "name": "a1_",
                      "type": "tuple"
                    },
                    {
                      "components": [
                        {
                          "internalType": "uint256",
                          "name": "x",
                          "type": "uint256"
                        },
                        {
                          "internalType": "uint256",
                          "name": "y",
                          "type": "uint256"
                        }
                      ],
                      "internalType": "struct Ecc.EcPoint",
                      "name": "b0_",
                      "type": "tuple"
                    },
                    {
                      "components": [
                        {
                          "internalType": "uint256",
                          "name": "x",
                          "type": "uint256"
                        },
                        {
                          "internalType": "uint256",
                          "name": "y",
                          "type": "uint256"
                        }
                      ],
                      "internalType": "struct Ecc.EcPoint",
                      "name": "b1_",
                      "type": "tuple"
                    },
                    {
                      "internalType": "uint256",
                      "name": "c0",
                      "type": "uint256"
                    },
                    {
                      "internalType": "uint256",
                      "name": "c1",
                      "type": "uint256"
                    },
                    {
                      "internalType": "uint256",
                      "name": "r0__",
                      "type": "uint256"
                    },
                    {
                      "internalType": "uint256",
                      "name": "r1__",
                      "type": "uint256"
                    }
                  ],
                  "internalType": "struct Zkp.WellFormedVoteProof",
                  "name": "wellFormedVoteProof",
                  "type": "tuple"
                }
              ],
              "internalType": "struct Election.Vote[]",
              "name": "votes",
              "type": "tuple[]"
            },
            {
              "components": [
                {
                  "components": [
                    {
                      "internalType": "uint256",
                      "name": "x",
                      "type": "uint256"
                    },
                    {
                      "internalType": "uint256",
                      "name": "y",
                      "type": "uint256"
                    }
                  ],
                  "internalType": "struct Ecc.EcPoint",
                  "name": "A_",
                  "type": "tuple"
                },
                {
                  "components": [
                    {
                      "internalType": "uint256",
                      "name": "x",
                      "type": "uint256"
                    },
                    {
                      "internalType": "uint256",
                      "name": "y",
                      "type": "uint256"
                    }
                  ],
                  "internalType": "struct Ecc.EcPoint",
                  "name": "B_",
                  "type": "tuple"
                },
                {
                  "internalType": "uint256",
                  "name": "c",
                  "type": "uint256"
                },
                {
                  "internalType": "uint256",
                  "name": "R__",
                  "type": "uint256"
                }
              ],
              "internalType": "struct Zkp.SingleVoteSumProof",
              "name": "singleVoteSumProof",
              "type": "tuple"
            }
          ],
          "indexed": false,
          "internalType": "struct Election.Ballot",
          "name": "_ballot",
          "type": "tuple"
        }
      ],
      "name": "BallotCast",
      "type": "event"
    },
    {
      "inputs": [],
      "name": "A",
      "outputs": [
        {
          "internalType": "uint256",
          "name": "",
          "type": "uint256"
        }
      ],
      "stateMutability": "view",
      "type": "function"
    },
    {
      "inputs": [],
      "name": "B",
      "outputs": [
        {
          "internalType": "uint256",
          "name": "",
          "type": "uint256"
        }
      ],
      "stateMutability": "view",
      "type": "function"
    },
    {
      "inputs": [],
      "name": "G",
      "outputs": [
        {
          "internalType": "uint256",
          "name": "x",
          "type": "uint256"
        },
        {
          "internalType": "uint256",
          "name": "y",
          "type": "uint256"
        }
      ],
      "stateMutability": "view",
      "type": "function"
    },
    {
      "inputs": [],
      "name": "GX",
      "outputs": [
        {
          "internalType": "uint256",
          "name": "",
          "type": "uint256"
        }
      ],
      "stateMutability": "view",
      "type": "function"
    },
    {
      "inputs": [],
      "name": "GY",
      "outputs": [
        {
          "internalType": "uint256",
          "name": "",
          "type": "uint256"
        }
      ],
      "stateMutability": "view",
      "type": "function"
    },
    {
      "inputs": [],
      "name": "N",
      "outputs": [
        {
          "internalType": "uint256",
          "name": "",
          "type": "uint256"
        }
      ],
      "stateMutability": "view",
      "type": "function"
    },
    {
      "inputs": [],
      "name": "P",
      "outputs": [
        {
          "internalType": "uint256",
          "name": "",
          "type": "uint256"
        }
      ],
      "stateMutability": "view",
      "type": "function"
    },
    {
      "inputs": [
        {
          "internalType": "uint256",
          "name": "",
          "type": "uint256"
        }
      ],
      "name": "authorities",
      "outputs": [
        {
          "internalType": "address",
          "name": "owner",
          "type": "address"
        },
        {
          "components": [
            {
              "internalType": "uint256",
              "name": "x",
              "type": "uint256"
            },
            {
              "internalType": "uint256",
              "name": "y",
              "type": "uint256"
            }
          ],
          "internalType": "struct Ecc.EcPoint",
          "name": "publicKey",
          "type": "tuple"
        },
        {
          "components": [
            {
              "internalType": "uint256",
              "name": "c",
              "type": "uint256"
            },
            {
              "internalType": "uint256",
              "name": "d",
              "type": "uint256"
            }
          ],
          "internalType": "struct Zkp.KeyOwnershipProof",
          "name": "proof",
          "type": "tuple"
        }
      ],
      "stateMutability": "view",
      "type": "function"
    },
    {
      "inputs": [
        {
          "internalType": "uint256",
          "name": "",
          "type": "uint256"
        }
      ],
      "name": "ballots",
      "outputs": [
        {
          "internalType": "uint64",
          "name": "id",
          "type": "uint64"
        },
        {
          "internalType": "address",
          "name": "from",
          "type": "address"
        },
        {
          "components": [
            {
              "components": [
                {
                  "internalType": "uint256",
                  "name": "x",
                  "type": "uint256"
                },
                {
                  "internalType": "uint256",
                  "name": "y",
                  "type": "uint256"
                }
              ],
              "internalType": "struct Ecc.EcPoint",
              "name": "A_",
              "type": "tuple"
            },
            {
              "components": [
                {
                  "internalType": "uint256",
                  "name": "x",
                  "type": "uint256"
                },
                {
                  "internalType": "uint256",
                  "name": "y",
                  "type": "uint256"
                }
              ],
              "internalType": "struct Ecc.EcPoint",
              "name": "B_",
              "type": "tuple"
            },
            {
              "internalType": "uint256",
              "name": "c",
              "type": "uint256"
            },
            {
              "internalType": "uint256",
              "name": "R__",
              "type": "uint256"
            }
          ],
          "internalType": "struct Zkp.SingleVoteSumProof",
          "name": "singleVoteSumProof",
          "type": "tuple"
        }
      ],
      "stateMutability": "view",
      "type": "function"
    },
    {
      "inputs": [
        {
          "internalType": "uint256",
          "name": "",
          "type": "uint256"
        }
      ],
      "name": "candidates",
      "outputs": [
        {
          "internalType": "string",
          "name": "",
          "type": "string"
        }
      ],
      "stateMutability": "view",
      "type": "function"
    },
    {
      "inputs": [
        {
          "internalType": "uint256",
          "name": "",
          "type": "uint256"
        }
      ],
      "name": "ciphertextTallies",
      "outputs": [
        {
          "components": [
            {
              "internalType": "uint256",
              "name": "x",
              "type": "uint256"
            },
            {
              "internalType": "uint256",
              "name": "y",
              "type": "uint256"
            }
          ],
          "internalType": "struct Ecc.EcPoint",
          "name": "a",
          "type": "tuple"
        },
        {
          "components": [
            {
              "internalType": "uint256",
              "name": "x",
              "type": "uint256"
            },
            {
              "internalType": "uint256",
              "name": "y",
              "type": "uint256"
            }
          ],
          "internalType": "struct Ecc.EcPoint",
          "name": "b",
          "type": "tuple"
        }
      ],
      "stateMutability": "view",
      "type": "function"
    },
    {
      "inputs": [
        {
          "internalType": "uint256",
          "name": "",
          "type": "uint256"
        },
        {
          "internalType": "uint256",
          "name": "",
          "type": "uint256"
        }
      ],
      "name": "decryptionSharesForCandidate",
      "outputs": [
        {
          "internalType": "address",
          "name": "decryptedBy",
          "type": "address"
        },
        {
          "components": [
            {
              "internalType": "uint256",
              "name": "x",
              "type": "uint256"
            },
            {
              "internalType": "uint256",
              "name": "y",
              "type": "uint256"
            }
          ],
          "internalType": "struct Ecc.EcPoint",
          "name": "d",
          "type": "tuple"
        },
        {
          "components": [
            {
              "components": [
                {
                  "internalType": "uint256",
                  "name": "x",
                  "type": "uint256"
                },
                {
                  "internalType": "uint256",
                  "name": "y",
                  "type": "uint256"
                }
              ],
              "internalType": "struct Ecc.EcPoint",
              "name": "u",
              "type": "tuple"
            },
            {
              "components": [
                {
                  "internalType": "uint256",
                  "name": "x",
                  "type": "uint256"
                },
                {
                  "internalType": "uint256",
                  "name": "y",
                  "type": "uint256"
                }
              ],
              "internalType": "struct Ecc.EcPoint",
              "name": "v",
              "type": "tuple"
            },
            {
              "internalType": "uint256",
              "name": "s",
              "type": "uint256"
            }
          ],
          "internalType": "struct Zkp.ValidDecryptionShareProof",
          "name": "validDecryptionShareProof",
          "type": "tuple"
        }
      ],
      "stateMutability": "view",
      "type": "function"
    },
    {
      "inputs": [],
      "name": "electionPublicKey",
      "outputs": [
        {
          "internalType": "uint256",
          "name": "x",
          "type": "uint256"
        },
        {
          "internalType": "uint256",
          "name": "y",
          "type": "uint256"
        }
      ],
      "stateMutability": "view",
      "type": "function"
    },
    {
      "inputs": [
        {
          "internalType": "uint256",
          "name": "v",
          "type": "uint256"
        }
      ],
      "name": "encodeVote",
      "outputs": [
        {
          "components": [
            {
              "internalType": "uint256",
              "name": "x",
              "type": "uint256"
            },
            {
              "internalType": "uint256",
              "name": "y",
              "type": "uint256"
            }
          ],
          "internalType": "struct Ecc.EcPoint",
          "name": "",
          "type": "tuple"
        }
      ],
      "stateMutability": "view",
      "type": "function"
    },
    {
      "inputs": [
        {
          "internalType": "uint256",
          "name": "",
          "type": "uint256"
        }
      ],
      "name": "encodedVotes",
      "outputs": [
        {
          "internalType": "uint256",
          "name": "x",
          "type": "uint256"
        },
        {
          "internalType": "uint256",
          "name": "y",
          "type": "uint256"
        }
      ],
      "stateMutability": "view",
      "type": "function"
    },
    {
      "inputs": [],
      "name": "endTime",
      "outputs": [
        {
          "internalType": "uint64",
          "name": "",
          "type": "uint64"
        }
      ],
      "stateMutability": "view",
      "type": "function"
    },
    {
      "inputs": [],
      "name": "getAmountOfBallots",
      "outputs": [
        {
          "internalType": "uint256",
          "name": "",
          "type": "uint256"
        }
      ],
      "stateMutability": "view",
      "type": "function"
    },
    {
      "inputs": [],
      "name": "getAuthorities",
      "outputs": [
        {
          "components": [
            {
              "internalType": "address",
              "name": "owner",
              "type": "address"
            },
            {
              "components": [
                {
                  "internalType": "uint256",
                  "name": "x",
                  "type": "uint256"
                },
                {
                  "internalType": "uint256",
                  "name": "y",
                  "type": "uint256"
                }
              ],
              "internalType": "struct Ecc.EcPoint",
              "name": "publicKey",
              "type": "tuple"
            },
            {
              "components": [
                {
                  "internalType": "uint256",
                  "name": "c",
                  "type": "uint256"
                },
                {
                  "internalType": "uint256",
                  "name": "d",
                  "type": "uint256"
                }
              ],
              "internalType": "struct Zkp.KeyOwnershipProof",
              "name": "proof",
              "type": "tuple"
            }
          ],
          "internalType": "struct Election.Key[]",
          "name": "",
          "type": "tuple[]"
        }
      ],
      "stateMutability": "view",
      "type": "function"
    },
    {
      "inputs": [
        {
          "internalType": "uint256",
          "name": "page",
          "type": "uint256"
        }
      ],
      "name": "getBallots",
      "outputs": [
        {
          "components": [
            {
              "components": [
                {
                  "internalType": "uint64",
                  "name": "id",
                  "type": "uint64"
                },
                {
                  "internalType": "address",
                  "name": "from",
                  "type": "address"
                },
                {
                  "components": [
                    {
                      "components": [
                        {
                          "components": [
                            {
                              "internalType": "uint256",
                              "name": "x",
                              "type": "uint256"
                            },
                            {
                              "internalType": "uint256",
                              "name": "y",
                              "type": "uint256"
                            }
                          ],
                          "internalType": "struct Ecc.EcPoint",
                          "name": "a",
                          "type": "tuple"
                        },
                        {
                          "components": [
                            {
                              "internalType": "uint256",
                              "name": "x",
                              "type": "uint256"
                            },
                            {
                              "internalType": "uint256",
                              "name": "y",
                              "type": "uint256"
                            }
                          ],
                          "internalType": "struct Ecc.EcPoint",
                          "name": "b",
                          "type": "tuple"
                        }
                      ],
                      "internalType": "struct Ecc.ECElGamalCiphertext",
                      "name": "ciphertext",
                      "type": "tuple"
                    },
                    {
                      "components": [
                        {
                          "components": [
                            {
                              "internalType": "uint256",
                              "name": "x",
                              "type": "uint256"
                            },
                            {
                              "internalType": "uint256",
                              "name": "y",
                              "type": "uint256"
                            }
                          ],
                          "internalType": "struct Ecc.EcPoint",
                          "name": "a0_",
                          "type": "tuple"
                        },
                        {
                          "components": [
                            {
                              "internalType": "uint256",
                              "name": "x",
                              "type": "uint256"
                            },
                            {
                              "internalType": "uint256",
                              "name": "y",
                              "type": "uint256"
                            }
                          ],
                          "internalType": "struct Ecc.EcPoint",
                          "name": "a1_",
                          "type": "tuple"
                        },
                        {
                          "components": [
                            {
                              "internalType": "uint256",
                              "name": "x",
                              "type": "uint256"
                            },
                            {
                              "internalType": "uint256",
                              "name": "y",
                              "type": "uint256"
                            }
                          ],
                          "internalType": "struct Ecc.EcPoint",
                          "name": "b0_",
                          "type": "tuple"
                        },
                        {
                          "components": [
                            {
                              "internalType": "uint256",
                              "name": "x",
                              "type": "uint256"
                            },
                            {
                              "internalType": "uint256",
                              "name": "y",
                              "type": "uint256"
                            }
                          ],
                          "internalType": "struct Ecc.EcPoint",
                          "name": "b1_",
                          "type": "tuple"
                        },
                        {
                          "internalType": "uint256",
                          "name": "c0",
                          "type": "uint256"
                        },
                        {
                          "internalType": "uint256",
                          "name": "c1",
                          "type": "uint256"
                        },
                        {
                          "internalType": "uint256",
                          "name": "r0__",
                          "type": "uint256"
                        },
                        {
                          "internalType": "uint256",
                          "name": "r1__",
                          "type": "uint256"
                        }
                      ],
                      "internalType": "struct Zkp.WellFormedVoteProof",
                      "name": "wellFormedVoteProof",
                      "type": "tuple"
                    }
                  ],
                  "internalType": "struct Election.Vote[]",
                  "name": "votes",
                  "type": "tuple[]"
                },
                {
                  "components": [
                    {
                      "components": [
                        {
                          "internalType": "uint256",
                          "name": "x",
                          "type": "uint256"
                        },
                        {
                          "internalType": "uint256",
                          "name": "y",
                          "type": "uint256"
                        }
                      ],
                      "internalType": "struct Ecc.EcPoint",
                      "name": "A_",
                      "type": "tuple"
                    },
                    {
                      "components": [
                        {
                          "internalType": "uint256",
                          "name": "x",
                          "type": "uint256"
                        },
                        {
                          "internalType": "uint256",
                          "name": "y",
                          "type": "uint256"
                        }
                      ],
                      "internalType": "struct Ecc.EcPoint",
                      "name": "B_",
                      "type": "tuple"
                    },
                    {
                      "internalType": "uint256",
                      "name": "c",
                      "type": "uint256"
                    },
                    {
                      "internalType": "uint256",
                      "name": "R__",
                      "type": "uint256"
                    }
                  ],
                  "internalType": "struct Zkp.SingleVoteSumProof",
                  "name": "singleVoteSumProof",
                  "type": "tuple"
                }
              ],
              "internalType": "struct Election.Ballot[]",
              "name": "ballots",
              "type": "tuple[]"
            },
            {
              "internalType": "uint256",
              "name": "totalPage",
              "type": "uint256"
            }
          ],
          "internalType": "struct Election.PaginatedBallot",
          "name": "",
          "type": "tuple"
        }
      ],
      "stateMutability": "view",
      "type": "function"
    },
    {
      "inputs": [],
      "name": "getCandidateDecryptionShares",
      "outputs": [
        {
          "components": [
            {
              "internalType": "address",
              "name": "decryptedBy",
              "type": "address"
            },
            {
              "components": [
                {
                  "internalType": "uint256",
                  "name": "x",
                  "type": "uint256"
                },
                {
                  "internalType": "uint256",
                  "name": "y",
                  "type": "uint256"
                }
              ],
              "internalType": "struct Ecc.EcPoint",
              "name": "d",
              "type": "tuple"
            },
            {
              "components": [
                {
                  "components": [
                    {
                      "internalType": "uint256",
                      "name": "x",
                      "type": "uint256"
                    },
                    {
                      "internalType": "uint256",
                      "name": "y",
                      "type": "uint256"
                    }
                  ],
                  "internalType": "struct Ecc.EcPoint",
                  "name": "u",
                  "type": "tuple"
                },
                {
                  "components": [
                    {
                      "internalType": "uint256",
                      "name": "x",
                      "type": "uint256"
                    },
                    {
                      "internalType": "uint256",
                      "name": "y",
                      "type": "uint256"
                    }
                  ],
                  "internalType": "struct Ecc.EcPoint",
                  "name": "v",
                  "type": "tuple"
                },
                {
                  "internalType": "uint256",
                  "name": "s",
                  "type": "uint256"
                }
              ],
              "internalType": "struct Zkp.ValidDecryptionShareProof",
              "name": "validDecryptionShareProof",
              "type": "tuple"
            }
          ],
          "internalType": "struct Election.DecryptionShare[][]",
          "name": "",
          "type": "tuple[][]"
        }
      ],
      "stateMutability": "view",
      "type": "function"
    },
    {
      "inputs": [],
      "name": "getCandidates",
      "outputs": [
        {
          "internalType": "string[]",
          "name": "",
          "type": "string[]"
        }
      ],
      "stateMutability": "view",
      "type": "function"
    },
    {
      "inputs": [],
      "name": "getCiphertextTallies",
      "outputs": [
        {
          "components": [
            {
              "components": [
                {
                  "internalType": "uint256",
                  "name": "x",
                  "type": "uint256"
                },
                {
                  "internalType": "uint256",
                  "name": "y",
                  "type": "uint256"
                }
              ],
              "internalType": "struct Ecc.EcPoint",
              "name": "a",
              "type": "tuple"
            },
            {
              "components": [
                {
                  "internalType": "uint256",
                  "name": "x",
                  "type": "uint256"
                },
                {
                  "internalType": "uint256",
                  "name": "y",
                  "type": "uint256"
                }
              ],
              "internalType": "struct Ecc.EcPoint",
              "name": "b",
              "type": "tuple"
            }
          ],
          "internalType": "struct Ecc.ECElGamalCiphertext[]",
          "name": "",
          "type": "tuple[]"
        }
      ],
      "stateMutability": "view",
      "type": "function"
    },
    {
      "inputs": [],
      "name": "getDecryptedVotes",
      "outputs": [
        {
          "internalType": "int64[]",
          "name": "",
          "type": "int64[]"
        }
      ],
      "stateMutability": "view",
      "type": "function"
    },
    {
      "inputs": [],
      "name": "getECCParams",
      "outputs": [
        {
          "components": [
            {
              "internalType": "uint256",
              "name": "gx",
              "type": "uint256"
            },
            {
              "internalType": "uint256",
              "name": "gy",
              "type": "uint256"
            },
            {
              "internalType": "uint256",
              "name": "a",
              "type": "uint256"
            },
            {
              "internalType": "uint256",
              "name": "b",
              "type": "uint256"
            },
            {
              "internalType": "uint256",
              "name": "p",
              "type": "uint256"
            },
            {
              "internalType": "uint256",
              "name": "n",
              "type": "uint256"
            }
          ],
          "internalType": "struct Ecc.EccParams",
          "name": "",
          "type": "tuple"
        }
      ],
      "stateMutability": "pure",
      "type": "function"
    },
    {
      "inputs": [
        {
          "components": [
            {
              "internalType": "uint256",
              "name": "x",
              "type": "uint256"
            },
            {
              "internalType": "uint256",
              "name": "y",
              "type": "uint256"
            }
          ],
          "internalType": "struct Ecc.EcPoint[]",
          "name": "points",
          "type": "tuple[]"
        }
      ],
      "name": "hashMultiplePointsToScalar",
      "outputs": [
        {
          "internalType": "uint256",
          "name": "",
          "type": "uint256"
        }
      ],
      "stateMutability": "pure",
      "type": "function"
    },
    {
      "inputs": [
        {
          "internalType": "uint256",
          "name": "x",
          "type": "uint256"
        },
        {
          "internalType": "uint256",
          "name": "y",
          "type": "uint256"
        }
      ],
      "name": "newEcPoint",
      "outputs": [
        {
          "components": [
            {
              "internalType": "uint256",
              "name": "x",
              "type": "uint256"
            },
            {
              "internalType": "uint256",
              "name": "y",
              "type": "uint256"
            }
          ],
          "internalType": "struct Ecc.EcPoint",
          "name": "",
          "type": "tuple"
        }
      ],
      "stateMutability": "pure",
      "type": "function"
    },
    {
      "inputs": [
        {
          "components": [
            {
              "components": [
                {
                  "components": [
                    {
                      "components": [
                        {
                          "internalType": "uint256",
                          "name": "x",
                          "type": "uint256"
                        },
                        {
                          "internalType": "uint256",
                          "name": "y",
                          "type": "uint256"
                        }
                      ],
                      "internalType": "struct Ecc.EcPoint",
                      "name": "a",
                      "type": "tuple"
                    },
                    {
                      "components": [
                        {
                          "internalType": "uint256",
                          "name": "x",
                          "type": "uint256"
                        },
                        {
                          "internalType": "uint256",
                          "name": "y",
                          "type": "uint256"
                        }
                      ],
                      "internalType": "struct Ecc.EcPoint",
                      "name": "b",
                      "type": "tuple"
                    }
                  ],
                  "internalType": "struct Ecc.ECElGamalCiphertext",
                  "name": "ciphertext",
                  "type": "tuple"
                },
                {
                  "components": [
                    {
                      "components": [
                        {
                          "internalType": "uint256",
                          "name": "x",
                          "type": "uint256"
                        },
                        {
                          "internalType": "uint256",
                          "name": "y",
                          "type": "uint256"
                        }
                      ],
                      "internalType": "struct Ecc.EcPoint",
                      "name": "a0_",
                      "type": "tuple"
                    },
                    {
                      "components": [
                        {
                          "internalType": "uint256",
                          "name": "x",
                          "type": "uint256"
                        },
                        {
                          "internalType": "uint256",
                          "name": "y",
                          "type": "uint256"
                        }
                      ],
                      "internalType": "struct Ecc.EcPoint",
                      "name": "a1_",
                      "type": "tuple"
                    },
                    {
                      "components": [
                        {
                          "internalType": "uint256",
                          "name": "x",
                          "type": "uint256"
                        },
                        {
                          "internalType": "uint256",
                          "name": "y",
                          "type": "uint256"
                        }
                      ],
                      "internalType": "struct Ecc.EcPoint",
                      "name": "b0_",
                      "type": "tuple"
                    },
                    {
                      "components": [
                        {
                          "internalType": "uint256",
                          "name": "x",
                          "type": "uint256"
                        },
                        {
                          "internalType": "uint256",
                          "name": "y",
                          "type": "uint256"
                        }
                      ],
                      "internalType": "struct Ecc.EcPoint",
                      "name": "b1_",
                      "type": "tuple"
                    },
                    {
                      "internalType": "uint256",
                      "name": "c0",
                      "type": "uint256"
                    },
                    {
                      "internalType": "uint256",
                      "name": "c1",
                      "type": "uint256"
                    },
                    {
                      "internalType": "uint256",
                      "name": "r0__",
                      "type": "uint256"
                    },
                    {
                      "internalType": "uint256",
                      "name": "r1__",
                      "type": "uint256"
                    }
                  ],
                  "internalType": "struct Zkp.WellFormedVoteProof",
                  "name": "wellFormedVoteProof",
                  "type": "tuple"
                }
              ],
              "internalType": "struct Election.Vote[]",
              "name": "votes",
              "type": "tuple[]"
            },
            {
              "components": [
                {
                  "components": [
                    {
                      "internalType": "uint256",
                      "name": "x",
                      "type": "uint256"
                    },
                    {
                      "internalType": "uint256",
                      "name": "y",
                      "type": "uint256"
                    }
                  ],
                  "internalType": "struct Ecc.EcPoint",
                  "name": "A_",
                  "type": "tuple"
                },
                {
                  "components": [
                    {
                      "internalType": "uint256",
                      "name": "x",
                      "type": "uint256"
                    },
                    {
                      "internalType": "uint256",
                      "name": "y",
                      "type": "uint256"
                    }
                  ],
                  "internalType": "struct Ecc.EcPoint",
                  "name": "B_",
                  "type": "tuple"
                },
                {
                  "internalType": "uint256",
                  "name": "c",
                  "type": "uint256"
                },
                {
                  "internalType": "uint256",
                  "name": "R__",
                  "type": "uint256"
                }
              ],
              "internalType": "struct Zkp.SingleVoteSumProof",
              "name": "singleVoteSumProof",
              "type": "tuple"
            }
          ],
          "internalType": "struct Election.BallotInput",
          "name": "_ballot",
          "type": "tuple"
        }
      ],
      "name": "submitBallot",
      "outputs": [],
      "stateMutability": "payable",
      "type": "function"
    },
    {
      "inputs": [
        {
          "internalType": "int64[]",
          "name": "votes",
          "type": "int64[]"
        }
      ],
      "name": "submitDecodedVoteSuggestion",
      "outputs": [],
      "stateMutability": "nonpayable",
      "type": "function"
    },
    {
      "inputs": [
        {
          "components": [
            {
              "components": [
                {
                  "internalType": "uint256",
                  "name": "x",
                  "type": "uint256"
                },
                {
                  "internalType": "uint256",
                  "name": "y",
                  "type": "uint256"
                }
              ],
              "internalType": "struct Ecc.EcPoint",
              "name": "d",
              "type": "tuple"
            },
            {
              "components": [
                {
                  "components": [
                    {
                      "internalType": "uint256",
                      "name": "x",
                      "type": "uint256"
                    },
                    {
                      "internalType": "uint256",
                      "name": "y",
                      "type": "uint256"
                    }
                  ],
                  "internalType": "struct Ecc.EcPoint",
                  "name": "u",
                  "type": "tuple"
                },
                {
                  "components": [
                    {
                      "internalType": "uint256",
                      "name": "x",
                      "type": "uint256"
                    },
                    {
                      "internalType": "uint256",
                      "name": "y",
                      "type": "uint256"
                    }
                  ],
                  "internalType": "struct Ecc.EcPoint",
                  "name": "v",
                  "type": "tuple"
                },
                {
                  "internalType": "uint256",
                  "name": "s",
                  "type": "uint256"
                }
              ],
              "internalType": "struct Zkp.ValidDecryptionShareProof",
              "name": "validDecryptionShareProof",
              "type": "tuple"
            }
          ],
          "internalType": "struct Election.DecryptionShareInput[]",
          "name": "_decryptionShares",
          "type": "tuple[]"
        }
      ],
      "name": "submitDecryptionShares",
      "outputs": [],
      "stateMutability": "nonpayable",
      "type": "function"
    },
    {
      "inputs": [
        {
          "internalType": "uint256",
          "name": "",
          "type": "uint256"
        }
      ],
      "name": "voteCountForCandidate",
      "outputs": [
        {
          "internalType": "int64",
          "name": "",
          "type": "int64"
        }
      ],
      "stateMutability": "view",
      "type": "function"
    }
  ],
  "bytecode": "0x6080604052346100335761001d610014610524565b92919091611e8f565b610025610038565b617cad61403a8239617cad90f35b61003e565b60405190565b600080fd5b601f801991011690565b634e487b7160e01b600052604160045260246000fd5b9061006d90610043565b810190811060018060401b0382111761008557604052565b61004d565b9061009d610096610038565b9283610063565b565b600080fd5b600080fd5b600080fd5b60018060401b0381116100c45760208091020190565b61004d565b600080fd5b600080fd5b60018060a01b031690565b6100e7906100d3565b90565b6100f3816100de565b036100fa57565b600080fd5b9050519061010c826100ea565b565b90565b61011a8161010e565b0361012157565b600080fd5b9050519061013382610111565b565b91906040838203126101715761016a9061014f604061008a565b9361015d8260008301610126565b6000860152602001610126565b6020830152565b6100ce565b91906040838203126101b2576101ab90610190604061008a565b9361019e8260008301610126565b6000860152602001610126565b6020830152565b6100ce565b919060a083820312610205576101fe906101d1606061008a565b936101df82600083016100ff565b60008601526101f18260208301610135565b6020860152606001610176565b6040830152565b6100ce565b9092919261021f61021a826100ae565b61008a565b9381855260a060208601920283019281841161025e57915b8383106102445750505050565b602060a09161025384866101b7565b815201920191610237565b6100c9565b9080601f830112156102815781602061027e9351910161020a565b90565b6100a9565b60018060401b03811161029c5760208091020190565b61004d565b600080fd5b60018060401b0381116102c2576102be602091610043565b0190565b61004d565b60005b8381106102db575050906000910152565b8060209183015181850152016102ca565b909291926103016102fc826102a6565b61008a565b9381855260208501908284011161031d5761031b926102c7565b565b6102a1565b9080601f830112156103405781602061033d935191016102ec565b90565b6100a9565b92919061035961035482610286565b61008a565b93818552602080860192028101918383116103ae5781905b83821061037f575050505050565b815160018060401b0381116103a95760209161039e8784938701610322565b815201910190610371565b6100a9565b6100c9565b9080601f830112156103d1578160206103ce93519101610345565b90565b6100a9565b60018060401b0381116103ec5760208091020190565b61004d565b90929192610406610401826103d6565b61008a565b938185526020808601920283019281841161044357915b83831061042a5750505050565b6020809161043884866100ff565b81520192019161041d565b6100c9565b9080601f8301121561046657816020610463935191016103f1565b90565b6100a9565b60018060401b031690565b61047f8161046b565b0361048657565b600080fd5b9050519061049882610476565b565b60808183031261051f57600081015160018060401b03811161051a57826104c2918301610263565b92602082015160018060401b03811161051557836104e19184016103b3565b9260408301519060018060401b038211610510576105048161050d938601610448565b9360600161048b565b90565b6100a4565b6100a4565b6100a4565b61009f565b61054261bce7803803806105378161008a565b92833981019061049a565b90919293565b5190565b90565b90565b61056661056161056b9261054c565b61054f565b61010e565b90565b60209181520190565b60207f6972656400000000000000000000000000000000000000000000000000000000917f4174206c656173742074776f2063616e6469646174657320617265207265717560008201520152565b6105d2602460409261056e565b6105db81610577565b0190565b6105f590602081019060008183039101526105c5565b90565b156105ff57565b610607610038565b62461bcd60e51b81528061061d600482016105df565b0390fd5b5190565b90565b61063c61063761064192610625565b61054f565b61010e565b90565b60207f6564000000000000000000000000000000000000000000000000000000000000917f4174206c65617374206f6e6520617574686f726974792069732072657175697260008201520152565b61069f602260409261056e565b6106a881610644565b0190565b6106c29060208101906000818303910152610692565b90565b156106cc57565b6106d4610038565b62461bcd60e51b8152806106ea600482016106ac565b0390fd5b60016106fa910161010e565b90565b634e487b7160e01b600052601160045260246000fd5b6107226107289193929361010e565b9261010e565b820180921161073357565b6106fd565b634e487b7160e01b600052603260045260246000fd5b9061075882610621565b811015610769576020809102010190565b610738565b610778905161010e565b90565b60007f4475706c696361746520617574686f72697479207075626c6963206b65790000910152565b6107b0601e60209261056e565b6107b98161077b565b0190565b6107d390602081019060008183039101526107a3565b90565b156107dd57565b6107e5610038565b62461bcd60e51b8152806107fb600482016107bd565b0390fd5b60007f4475706c696361746520617574686f726974792070726f6f6600000000000000910152565b610834601960209261056e565b61083d816107ff565b0190565b6108579060208101906000818303910152610827565b90565b1561086157565b610869610038565b62461bcd60e51b81528061087f60048201610841565b0390fd5b5190565b9061089182610883565b8110156108a2576020809102010190565b610738565b6108b190516100de565b90565b6108c86108c36108cd926100d3565b61054f565b6100d3565b90565b6108d9906108b4565b90565b6108e5906108d0565b90565b906108f2906108dc565b600052602052604060002090565b60001b90565b9061091260ff91610900565b9181191691161790565b151590565b61092a9061091c565b90565b90565b9061094561094061094c92610921565b61092d565b8254610906565b9055565b60007f496e76616c6964207075626c6963206b65790000000000000000000000000000910152565b610985601260209261056e565b61098e81610950565b0190565b6109a89060208101906000818303910152610978565b90565b156109b257565b6109ba610038565b62461bcd60e51b8152806109d060048201610992565b0390fd5b60007f496e76616c6964206b65792070726f6f66000000000000000000000000000000910152565b610a09601160209261056e565b610a12816109d4565b0190565b610a2c90602081019060008183039101526109fc565b90565b15610a3657565b610a3e610038565b62461bcd60e51b815280610a5460048201610a16565b0390fd5b90565b600052602060002090565b5490565b610a7381610a66565b821015610a8e57610a85600591610a5b565b91020190600090565b610738565b634e487b7160e01b600052600060045260246000fd5b90610aba60018060a01b0391610900565b9181191691161790565b90565b90610adc610ad7610ae3926108dc565b610ac4565b8254610aa9565b9055565b5190565b90610af860001991610900565b9181191691161790565b610b16610b11610b1b9261010e565b61054f565b61010e565b90565b90565b90610b36610b31610b3d92610b02565b610b1e565b8254610aeb565b9055565b90610b6e60206001610b7494610b6660008201610b606000880161076e565b90610b21565b01920161076e565b90610b21565b565b90610b8091610b41565b565b5190565b90610bb360206001610bb994610bab60008201610ba56000880161076e565b90610b21565b01920161076e565b90610b21565b565b90610bc591610b86565b565b90610c0d60406003610c1394610bec60008201610be6600088016108a7565b90610ac7565b610c0560018201610bff60208801610ae7565b90610b76565b019201610b82565b90610bbb565b565b9190610c2657610c2491610bc7565b565b610a93565b1b90565b9081549168010000000000000000831015610c5f5782610c57916001610c5d95018155610a6a565b90610c15565b565b61004d565b610c6e604061008a565b90565b90610c7b9061010e565b9052565b60001c90565b90565b610c94610c9991610c7f565b610c85565b90565b610ca69054610c88565b90565b610cb3604061008a565b90565b90610cef610ce66001610cc7610ca9565b94610ce0610cd760008301610c9c565b60008801610c71565b01610c9c565b60208401610c71565b565b610cfa90610cb6565b90565b60200190565b5490565b610d16610d1c9193929361010e565b9261010e565b91610d2883820261010e565b928184041490151715610d3757565b6106fd565b600190818003010490565b600052602060002090565b634e487b7160e01b600052602260045260246000fd5b9060016002830492168015610d88575b6020831014610d8357565b610d52565b91607f1691610d78565b600052602060002090565b1c90565b90610db59060001990602003600802610d9d565b8154169055565b91906008610dd8910291610dd260001984610c2b565b92610c2b565b9181191691161790565b9190610df8610df3610e0093610b02565b610b1e565b908354610dbc565b9055565b600090565b610e1b91610e15610e04565b91610de2565b565b5b818110610e29575050565b80610e376000600193610e09565b01610e1e565b90610e4e9060001990600802610d9d565b191690565b81610e5d91610e3d565b906002021790565b90600091610e7d610e7582610d92565b928354610e53565b905555565b601f602091010490565b91929060208210600014610ee657601f8411600114610eb657610eb0929350610e53565b90555b5b565b5090610edc610ee1936001610ed3610ecd85610d92565b92610e82565b82019101610e1d565b610e65565b610eb3565b50610f1d8293610ef7600194610d92565b610f16610f0385610e82565b820192601f861680610f28575b50610e82565b0190610e1d565b600202179055610eb4565b610f3490888603610da1565b38610f10565b929091680100000000000000008211610f9c57602011600014610f8d5760208110600014610f7157610f6b91610e53565b90555b5b565b60019160ff1916610f8184610d92565b55600202019055610f6e565b60019150600202019055610f6f565b61004d565b908154610fad81610d68565b90818311610fd6575b818310610fc4575b50505050565b610fcd93610e8c565b38808080610fbe565b610fe283838387610f3a565b610fb6565b6000610ff291610fa1565b565b906000036110075761100590610fe7565b565b610a93565b5b818110611018575050565b806110266000600193610ff4565b0161100d565b909182811061103b575b505050565b61105961105361104d61106495610d3c565b92610d3c565b92610d47565b91820191019061100c565b388080611036565b90680100000000000000008111611095578161108a61109393610d03565b9082815561102c565b565b61004d565b5190565b5190565b9190601f81116110b2575b505050565b6110be6110e393610d92565b9060206110ca84610e82565b830193106110eb575b6110dc90610e82565b0190610e1d565b3880806110ad565b91506110dc819290506110d3565b906111038161109e565b9060018060401b0382116111c3576111258261111f8554610d68565b856110a2565b602090601f831160011461115a579180916111499360009261114e575b5050610e53565b90555b565b90915001513880611142565b601f1983169161116985610d92565b9260005b8181106111ab57509160029391856001969410611191575b5050500201905561114c565b6111a1910151601f841690610e3d565b9055388080611185565b9193602060018192878701518155019501920161116d565b61004d565b906111d2916110f9565b565b6111f96111f36111e384610548565b936111ee858561106c565b610cfd565b91610d47565b6000915b83831061120a5750505050565b600160208261122261121c849561109a565b866111c8565b019201920191906111fd565b90611238916111d4565b565b9061124b60018060401b0391610900565b9181191691161790565b61126961126461126e9261046b565b61054f565b61046b565b90565b90565b9061128961128461129092611255565b611271565b825461123a565b9055565b60018060401b0381116112aa5760208091020190565b61004d565b906112c16112bc83611294565b61008a565b918252565b606090565b60005b8281106112da57505050565b6020906112e56112c6565b81840152016112ce565b906113146112fc836112af565b9260208061130a8693611294565b92019103906112cb565b565b60200190565b5490565b600190818003010490565b600052602060002090565b5490565b611345906008610d07565b90565b600052602060002090565b6000600161136d9261136783808301610e09565b01610e09565b565b906000036113825761138090611353565b565b610a93565b600060046113ae9261139b8380830161136f565b6113a8836002830161136f565b01610e09565b565b906000036113c3576113c190611387565b565b610a93565b600060036113e89282808201556113e2836001830161136f565b016113b0565b565b906000036113fd576113fb906113c8565b565b610a93565b5b81811061140e575050565b8061141c60006008936113ea565b01611403565b9091828110611431575b505050565b61144f61144961144361145a9561133a565b9261133a565b92611348565b918201910190611402565b38808061142c565b9068010000000000000000811161148b578161148061148993611336565b90828155611422565b565b61004d565b600061149b91611462565b565b906000036114b0576114ae90611490565b565b610a93565b5b8181106114c1575050565b806114cf600060019361149d565b016114b6565b90918281106114e4575b505050565b6115026114fc6114f661150d95611320565b92611320565b9261132b565b9182019101906114b5565b3880806114df565b9068010000000000000000811161153e578161153361153c9361131c565b908281556114d5565b565b61004d565b5190565b5190565b60200190565b5190565b5190565b5190565b906115a3604060046115a9946115826000820161157c60008801610ae7565b90610b76565b61159b6002820161159560208801610ae7565b90610b76565b01920161076e565b90610b21565b565b906115b59161155d565b565b906115fd60406003611603946115dc600082016115d6600088016108a7565b90610ac7565b6115f5600182016115ef60208801610ae7565b90610b76565b019201611559565b906115ab565b565b9061160f916115b7565b565b61163661163061162084611551565b9361162b8585611462565b61154b565b91611348565b6000915b8383106116475750505050565b600860208261166061165a600195611555565b86611605565b0192019201919061163a565b9061167691611611565b565b61169d61169761168784611543565b936116928585611515565b611316565b9161132b565b6000915b8383106116ae5750505050565b60016020826116c66116c08495611547565b8661166c565b019201920191906116a1565b906116dc91611678565b565b60018060401b0381116116f45760208091020190565b61004d565b9061170b611706836116de565b61008a565b918252565b61171a604061008a565b90565b600090565b61172a610ca9565b906020808361173761171d565b81520161174261171d565b81525050565b611750611722565b90565b61175b611710565b9060208083611768611748565b815201611773611748565b81525050565b611781611753565b90565b60005b82811061179357505050565b60209061179e611779565b8184015201611787565b906117cd6117b5836116f9565b926020806117c386936116de565b9201910390611784565b565b60200190565b5490565b6117e4906004610d07565b90565b600052602060002090565b6000600261180c926118068380830161136f565b0161136f565b565b906000036118215761181f906117f2565b565b610a93565b5b818110611832575050565b80611840600060049361180e565b01611827565b9091828110611855575b505050565b61187361186d61186761187e956117d9565b926117d9565b926117e7565b918201910190611826565b388080611850565b906801000000000000000081116118af57816118a46118ad936117d5565b90828155611846565b565b61004d565b5190565b5190565b906118e9602060026118ef946118e1600082016118db60008801610ae7565b90610b76565b019201610ae7565b90610b76565b565b906118fb916118bc565b565b61192261191c61190c846118b4565b936119178585611886565b6117cf565b916117e7565b6000915b8383106119335750505050565b600460208261194c6119466001956118b8565b866118f1565b01920192019190611926565b90611962916118fd565b565b60018060401b03811161197a5760208091020190565b61004d565b9061199161198c83611964565b61008a565b918252565b369037565b906119c06119a88361197f565b926020806119b68693611964565b9201910390611996565b565b5490565b60049060018203010490565b600052602060002090565b5b8181106119e9575050565b806119f76000600193610e09565b016119de565b919091828210611a0d575b505050565b60086004611a1d611a46956119c6565b611a2f611a29866119c6565b946119d2565b938401930193060260008111611a4e575b506119dd565b388080611a08565b611a5b9060018303610da1565b38611a40565b90680100000000000000008111611a8a5781611a7f611a88936119c2565b908281556119fd565b565b61004d565b5190565b60070b90565b611aa39051611a93565b90565b60200190565b91906008611acc910291611ac660018060401b0384610c2b565b92610c2b565b9181191691161790565b611aea611ae5611aef92611a93565b61054f565b611a93565b90565b90565b90611aff81611a8f565b9060018060401b038211611be757611b23611b2991611b1e8486611a61565b611aa6565b926119d2565b600482049160005b838110611b9d575060048302900360008111611b4e575b50505050565b9260009360005b818110611b6a57505050015538808080611b48565b9091946020611b91600192611b86611b818a611a99565b611af2565b908560080290611aac565b96019101919091611b55565b6000805b60048110611bb85750906001918185015501611b31565b95906020611bde600192611bd3611bce86611a99565b611af2565b908a60080290611aac565b92019601611ba1565b61004d565b90611bf691611af5565b565b60018060401b038111611c0e5760208091020190565b61004d565b90611c25611c2083611bf8565b61008a565b918252565b60005b828110611c3957505050565b602090611c44611748565b8184015201611c2d565b90611c73611c5b83611c13565b92602080611c698693611bf8565b9201910390611c2a565b565b60200190565b5490565b611c8a906002610d07565b90565b600052602060002090565b5b818110611ca4575050565b80611cb2600060029361136f565b01611c99565b9091828110611cc7575b505050565b611ce5611cdf611cd9611cf095611c7f565b92611c7f565b92611c8d565b918201910190611c98565b388080611cc2565b90680100000000000000008111611d215781611d16611d1f93611c7b565b90828155611cb8565b565b61004d565b5190565b611d4f611d49611d3984611d26565b93611d448585611cf8565b611c75565b91611c8d565b6000915b838310611d605750505050565b6002602082611d79611d73600195610ae7565b86610b76565b01920192019190611d53565b90611d8f91611d2a565b565b611d9b604061008a565b90565b52565b611daa816117d5565b821015611dc557611dbc6004916117e7565b91020190600090565b610738565b9190611ddb57611dd9916118bc565b565b610a93565b90565b611df7611df2611dfc92611de0565b61054f565b611a93565b90565b919091611e0b816119c2565b831015611e29576004611e1f6008926119d2565b8185040193060290565b610738565b9190611e44611e3f611e4c93611ad6565b611af2565b908354611aac565b9055565b611e5981611c7b565b821015611e7457611e6b600291611c8d565b91020190600090565b610738565b9190611e8a57611e8891610b41565b565b610a93565b929091611e9a6124aa565b611ebf611ea684610548565b611eb9611eb36001610552565b9161010e565b116105f8565b611ee4611ecb85610621565b611ede611ed86000610628565b9161010e565b116106c5565b611eee6000610628565b945b85611f0b611f05611f0088610621565b61010e565b9161010e565b10156120c357611f2586611f1f6001610552565b90610713565b5b80611f41611f3b611f3689610621565b61010e565b9161010e565b10156120aa578061200187611fef611fe9611fe460006040611fdb8f8383611fca611fd393611fc46120069f8d611f88876020611f7f84889061074e565b5101510161076e565b611fb3611fad611fa88a6020611f9f87899061074e565b5101510161076e565b61010e565b9161010e565b141591821561205b575b50506107d6565b8b61074e565b5101510161076e565b96899061074e565b5101510161076e565b61010e565b9161010e565b1415888a821561200b575b505061085a565b6106ee565b611f26565b8192506120476020604061203e612036838361202d61204c986120529a61074e565b5101510161076e565b96899061074e565b5101510161076e565b61010e565b9161010e565b1415888a611ffa565b81925061209560208061208c61209a94612086838061207d8d6120a09b61074e565b5101510161076e565b9761074e565b5101510161076e565b61010e565b9161010e565b14158f8e90611fbd565b5091946120b9909391936106ee565b9491929092611ef0565b9392919094506120d36000610628565b5b806120ef6120e96120e489610883565b61010e565b9161010e565b101561212b5761212690612121600161211c600c6121166121118c8790610887565b6108a7565b906108e8565b610930565b6106ee565b6120d4565b509193509161213a6000610628565b5b8061215661215061214b88610621565b61010e565b9161010e565b1015612233576121f49061217b6000602061217289859061074e565b5101510161076e565b61218e6121886000610628565b9161010e565b1415806121f9575b61219f906109ab565b6121d06121cb60206121b289859061074e565b51015160406121c28a869061074e565b510151906125d5565b610a2f565b6121ef6121dd600a610a58565b6121e888849061074e565b5190610c2f565b6106ee565b61213b565b5061219f61221760208061220e8a869061074e565b5101510161076e565b61222a6122246000610628565b9161010e565b14159050612196565b509091612275600061226e6122656000612260612257612251610c64565b95610628565b60008601610c71565b610628565b60208301610c71565b6008610b76565b61227f6000610628565b5b8061229b61229561229088610621565b61010e565b9161010e565b10156122dc576122d7906122d26122cb60086122c660206122bd8b879061074e565b51015191610cf1565b6126ff565b6008610b76565b6106ee565b612280565b50916122f69193506122ef83600261122e565b6006611274565b61231161230a61230583610548565b6112ef565b60076116d2565b61232c61232561232083610548565b6117a8565b6005611958565b61234761234061233b83610548565b61199b565b6003611bec565b61236261235b61235683610548565b611c4e565b6004611d85565b61236c6000610628565b5b8061238861238261237d85610548565b61010e565b9161010e565b10156124a6576124a19061243260006123ca6123c160006123bc6123b36123ad610c64565b95610628565b60008601610c71565b610628565b60208301610c71565b61242060006124026123f960006123f46123eb6123e5610c64565b95610628565b60008601610c71565b610628565b60208301610c71565b61241761240d611d91565b9360008501611d9e565b60208301611d9e565b61242c60058490611da1565b90611dca565b612452612440600019611de3565b61244c60038490611dff565b90611e2e565b61249c600061248a612481600061247c61247361246d610c64565b95610628565b60008601610c71565b610628565b60208301610c71565b61249660048490611e50565b90611e79565b6106ee565b61236d565b5050565b6124b26124b4565b565b6124bc612554565b565b90565b6124d56124d06124da926124be565b61054f565b61010e565b90565b6125067f79be667ef9dcbbac55a06295ce870b07029bfcdb2dce28d959f2815b16f817986124c1565b90565b90565b61252061251b61252592612509565b61054f565b61010e565b90565b6125517f483ada7726a3c4655da4fbfc0e1108a8fd17b448a68554199c47d08ffb10d4b861250c565b90565b61258f61255f6124dd565b61258861256a612528565b61257f612575610c64565b9360008501610c71565b60208301610c71565b6000610b76565b565b600090565b90565b6125ad6125a86125b292612596565b61054f565b61010e565b90565b906125bf82611d26565b8110156125d0576020809102010190565b610738565b906126a361269e61269860006126a9946125ed612591565b5061269061262d6126126126036020850161076e565b61260c86610cf1565b90612875565b61262761262086860161076e565b8b90612875565b906128bf565b61266861264261263d6002612599565b611c4e565b996126628b91879061265c61265683610628565b856125b5565b52610628565b906125b5565b515061268a899160019061268461267e83610552565b856125b5565b52610552565b906125b5565b51500161076e565b93612a52565b61010e565b9161010e565b1490565b6126b5611722565b90565b90565b6126cf6126ca6126d4926126b8565b61054f565b61010e565b90565b6126e66401000003d0196126bb565b90565b634e487b7160e01b600052601260045260246000fd5b906127086126ad565b506127136000610628565b5061271e6000610628565b506127296000610628565b506127366000830161076e565b61275361274d6127486000850161076e565b61010e565b9161010e565b1460001461281857612772602061276b81850161076e565b920161076e565b61277a6126d7565b918215612813570861279561278f6000610628565b9161010e565b146000146127d6575060006127d36127ca60006127c56127bc6127b6610c64565b95610628565b60008601610c71565b610628565b60208301610c71565b90565b612805816127f560206127ee6000612810960161076e565b920161076e565b6127ff6001610552565b9161350a565b90915b919091613769565b90565b6126e9565b8161286e9161283860206128316000612810970161076e565b930161076e565b906001612853602061284c6000850161076e565b930161076e565b92612868612862600193610552565b92610552565b94612ce3565b9091612808565b6128bc916128b0916128856126ad565b509061289f60206128986000840161076e565b920161076e565b906128aa6001610552565b92613820565b91909190919091613769565b90565b6128d46128da926128ce6126ad565b50613953565b906126ff565b90565b60007f4e6f20706f696e74732070726f76696465640000000000000000000000000000910152565b612912601260209261056e565b61291b816128dd565b0190565b6129359060208101906000818303910152612905565b90565b1561293f57565b612947610038565b62461bcd60e51b81528061295d6004820161291f565b0390fd5b905090565b61298b612982926020926129798161109e565b94858093612961565b938491016102c7565b0190565b60007f2c00000000000000000000000000000000000000000000000000000000000000910152565b6129c360018092612961565b6129cc8161298f565b0190565b6129e16129e6916129ec9493612966565b6129b7565b90612966565b90565b5190565b905090565b612a1d612a1492602092612a0b816129ef565b948580936129f3565b938491016102c7565b0190565b612a2a916129f8565b90565b612a35610038565b3d6000823e3d90fd5b612a4a612a4f91610c7f565b610b02565b90565b90612a5b610e04565b50612a81612a6883611d26565b612a7b612a756000610628565b9161010e565b11612938565b6000612ab6612aad6000612aa8612a9f612a99610c64565b95610628565b60008601610c71565b610628565b60208301610c71565b612ac06000610628565b905b81612add612ad7612ad287611d26565b61010e565b9161010e565b1015612b0857612afc612b0291612af58685906125b5565b51906126ff565b916106ee565b90612ac2565b602092935060009150612b7490612b63612b3e612b3986612b32612b2d88870161076e565b613a61565b940161076e565b613a61565b91612b55612b4a610038565b9384928884016129d0565b868201810382520382610063565b612b6b610038565b91829182612a21565b039060025afa15612b9557612b92612b8d600051610900565b612a3e565b90565b612a2d565b60018060401b038111612bad5760200290565b61004d565b612bbe612bc391612b9a565b61008a565b90565b369037565b90612be9612bd883612bb2565b92612be38491612b9a565b90612bc6565b565b612bf56004612bcb565b90565b50600490565b90612c0882612bf8565b811015612c16576020020190565b610738565b90565b612c32612c2d612c3792612c1b565b61054f565b61010e565b90565b60007f557365206a6163446f75626c652066756e6374696f6e20696e73746561640000910152565b612c6f601e60209261056e565b612c7881612c3a565b0190565b612c929060208101906000818303910152612c62565b90565b15612c9c57565b612ca4610038565b62461bcd60e51b815280612cba60048201612c7c565b0390fd5b612ccd612cd39193929361010e565b9261010e565b8203918211612cde57565b6106fd565b929593909195612cf1610e04565b50612cfa610e04565b50612d03610e04565b5083612d18612d126000610628565b9161010e565b14806134a4575b6134965780612d37612d316000610628565b9161010e565b148061347b575b61346f57612d4a612beb565b928788612d556126d7565b90811561346a57612d7a9209612d7586612d6f6000610628565b90612bfe565b610c71565b87612d97612d9286612d8c6000610628565b90612bfe565b61076e565b612d9f6126d7565b90811561346557612dc49209612dbf86612db96001610552565b90612bfe565b610c71565b8687612dce6126d7565b90811561346057612df39209612dee86612de86002612599565b90612bfe565b610c71565b86612e10612e0b86612e056002612599565b90612bfe565b61076e565b612e186126d7565b90811561345b57612e3d9209612e3886612e326003612c1e565b90612bfe565b610c71565b612e476004612bb2565b94612e64612e5f86612e596002612599565b90612bfe565b61076e565b612e6c6126d7565b90811561345657612e81920960008701610c71565b612e9d612e9885612e926003612c1e565b90612bfe565b61076e565b612ea56126d7565b90811561345157612eba920960208601610c71565b90612ed7612ed284612ecc6000610628565b90612bfe565b61076e565b90612ee06126d7565b92831561344c57612f1393612f0e93612efd920960408701610c71565b92612f086001610552565b90612bfe565b61076e565b612f1b6126d7565b90811561344757612f30920960608301610c71565b92612f4d612f4885612f426000610628565b90612bfe565b61076e565b612f7a612f74612f6f612f6a88612f646002612599565b90612bfe565b61076e565b61010e565b9161010e565b141580156133f1575b612f8c90612c95565b612f94612beb565b92612fb1612fac86612fa66002612599565b90612bfe565b61076e565b612fde612fbc6126d7565b612fd8612fd389612fcd6000610628565b90612bfe565b61076e565b90612cbe565b612fe66126d7565b9081156133ec5761300b9208613006866130006000610628565b90612bfe565b610c71565b6130276130228661301c6003612c1e565b90612bfe565b61076e565b6130546130326126d7565b61304e613049896130436001610552565b90612bfe565b61076e565b90612cbe565b61305c6126d7565b9081156133e757613081920861307c866130766001610552565b90612bfe565b610c71565b61309d613098856130926000610628565b90612bfe565b61076e565b6130b96130b4866130ae6000610628565b90612bfe565b61076e565b6130c16126d7565b9081156133e2576130e692096130e1866130db6002612599565b90612bfe565b610c71565b6131026130fd856130f76002612599565b90612bfe565b61076e565b61311e613119866131136000610628565b90612bfe565b61076e565b6131266126d7565b9081156133dd5761314b9209613146866131406003612c1e565b90612bfe565b610c71565b6131676131628561315c6001610552565b90612bfe565b61076e565b61318361317e866131786001610552565b90612bfe565b61076e565b61318b6126d7565b9182156133d857096131c061319e6126d7565b6131ba6131b5886131af6003612c1e565b90612bfe565b61076e565b90612cbe565b6131c86126d7565b9182156133d357086131d86126d7565b6002906131f76131f2896131ec6000610628565b90612bfe565b61076e565b61321361320e896132086002612599565b90612bfe565b61076e565b61321b6126d7565b9182156133ce570961322b6126d7565b9081156133c95761323e61324594612599565b0990612cbe565b61324d6126d7565b9182156133c457089461327261326d866132676001610552565b90612bfe565b61076e565b61328e613289836132836000610628565b90612bfe565b61076e565b6132aa6132a58861329f6002612599565b90612bfe565b61076e565b6132b26126d7565b9182156133bf57096132cc6132c56126d7565b8990612cbe565b6132d46126d7565b9182156133ba57086132e46126d7565b9182156133b557099061331161330c6132fb6126d7565b926133066001610552565b90612bfe565b61076e565b9061332e613329886133236003612c1e565b90612bfe565b61076e565b6133366126d7565b9081156133b057613348930990612cbe565b906133516126d7565b80156133ab576133769261337192089561336b6000610628565b90612bfe565b61076e565b91906133806126d7565b9182156133a657096133906126d7565b9182156133a1570992919291929190565b6126e9565b6126e9565b6126e9565b6126e9565b6126e9565b6126e9565b6126e9565b6126e9565b6126e9565b6126e9565b6126e9565b6126e9565b6126e9565b6126e9565b6126e9565b6126e9565b50612f8c61341161340c866134066001610552565b90612bfe565b61076e565b61343e61343861343361342e896134286003612c1e565b90612bfe565b61076e565b61010e565b9161010e565b14159050612f83565b6126e9565b6126e9565b6126e9565b6126e9565b6126e9565b6126e9565b6126e9565b6126e9565b50509250919291929190565b508161349061348a6000610628565b9161010e565b14612d3e565b925093945050919291929190565b50826134b96134b36000610628565b9161010e565b14612d1f565b90565b6134d66134d16134db926134bf565b61054f565b61010e565b90565b6134e86000610628565b90565b90565b6135026134fd613507926134eb565b61054f565b61010e565b90565b9290613514610e04565b5061351d610e04565b50613526610e04565b508261353b6135356000610628565b9161010e565b1461375f57838461354a6126d7565b91821561375a570993818261355d6126d7565b91821561375557099084856135706126d7565b918215613750570990600490836135856126d7565b91821561374b57096135956126d7565b918215613746576135a5906134c2565b09956003906135b26126d7565b918215613741576135c290612c1e565b09906135cc6134de565b90806135d66126d7565b91821561373c57096135e66126d7565b91821561373757096135f66126d7565b91821561373257089485866136096126d7565b91821561372d57096136196126d7565b8290836136246126d7565b90811561372857613636930890612cbe565b61363e6126d7565b9182156137235708959061365a6136536126d7565b8890612cbe565b6136626126d7565b91821561371e57086136726126d7565b9182156137195709906136836126d7565b6008918061368f6126d7565b918215613714570961369f6126d7565b90811561370f576136b26136b9946134ee565b0990612cbe565b6136c16126d7565b91821561370a570892600291906136d66126d7565b91821561370557096136e66126d7565b918215613700576136f690612599565b0992919291929190565b6126e9565b6126e9565b6126e9565b6126e9565b6126e9565b6126e9565b6126e9565b6126e9565b6126e9565b6126e9565b6126e9565b6126e9565b6126e9565b6126e9565b6126e9565b6126e9565b6126e9565b6126e9565b6126e9565b9192919291929190565b909161377d906137776126ad565b50613b8f565b9081826137886126d7565b9182156137f95709908161379a6126d7565b9182156137f457099291906137ad6126d7565b9182156137ef57096137bd6126d7565b9081156137ea576137e792096137de6137d4610c64565b9360008501610c71565b60208301610c71565b90565b6126e9565b6126e9565b6126e9565b6126e9565b61380a6138109161010e565b9161010e565b90811561381b570490565b6126e9565b92919261382b610e04565b50613834610e04565b5061383d610e04565b508061385261384c6000610628565b9161010e565b146139255793906138636000610628565b9361386e6000610628565b936138796001610552565b965b8061388f6138896000610628565b9161010e565b14613919578061389f6001610552565b166138b36138ad6000610628565b9161010e565b036138ed575b906138d26138db93926138cc6002612599565b906137fe565b9391909161350a565b9591959490959295919594909461387b565b956138d2956138db939298613909929190869085928c94612ce3565b98919690969791929350506138b9565b50505050909291929190565b50929092919291929190565b61393d6139439161010e565b9161010e565b90811561394e570690565b6126e9565b61395b6126ad565b506139b861399a61398c6139716000850161076e565b93613986602061397f6126d7565b920161076e565b90612cbe565b6139946126d7565b90613931565b6139af6139a5610c64565b9360008501610c71565b60208301610c71565b90565b606090565b906139cb910161010e565b90565b906139e06139db836102a6565b61008a565b918252565b369037565b90613a0f6139f7836139ce565b92602080613a0586936102a6565b92019103906139e5565b565b6001613a1d910361010e565b90565b90565b613a37613a32613a3c92613a20565b61054f565b61010e565b90565b613a4b613a519161010e565b9161010e565b908115613a5c570490565b6126e9565b613a696139bb565b50613a86613a7682613dd7565b613a806001610552565b906139c0565b90613a90826139ea565b91613a99610e04565b5060200182015b600115613b0457613ab3613adf91613a11565b916f181899199a1a9b1b9c1cb0b131b232b360811b600a82061a8353613ad9600a613a23565b90613a3f565b80613af3613aed6000610628565b9161010e565b14613afe5790613aa0565b50505b90565b5050613b01565b60007f496e76616c6964206e756d626572000000000000000000000000000000000000910152565b613b40600e60209261056e565b613b4981613b0b565b0190565b613b639060208101906000818303910152613b33565b90565b15613b6d57565b613b75610038565b62461bcd60e51b815280613b8b60048201613b4d565b0390fd5b613b97610e04565b5080613bac613ba66000610628565b9161010e565b141580613c9e575b80613c76575b613bc390613b66565b613bcd6000610628565b613bd76001610552565b90613be06126d7565b91613be9610e04565b505b83613bff613bf96000610628565b9161010e565b14613c6f57613c0f8385906137fe565b819291613c1a6126d7565b8291613c246126d7565b908115613c6a57613c36930990612cbe565b91613c3f6126d7565b8015613c6557613c5e93613c5892089395809592610d07565b90612cbe565b9290613beb565b6126e9565b6126e9565b5091505090565b50613bc3613c826126d7565b613c95613c8f6000610628565b9161010e565b14159050613bba565b5080613cb9613cb3613cae6126d7565b61010e565b9161010e565b1415613bb4565b90565b613cd7613cd2613cdc92613cc0565b61054f565b61010e565b90565b90565b613cf6613cf1613cfb92613cdf565b61054f565b61010e565b90565b90565b613d15613d10613d1a92613cfe565b61054f565b61010e565b90565b90565b613d34613d2f613d3992613d1d565b61054f565b61010e565b90565b90565b613d53613d4e613d5892613d3c565b61054f565b61010e565b90565b90565b613d72613d6d613d7792613d5b565b61054f565b61010e565b90565b90565b613d91613d8c613d9692613d7a565b61054f565b61010e565b90565b90565b613db0613dab613db592613d99565b61054f565b61010e565b90565b90565b613dcf613dca613dd492613db8565b61054f565b61010e565b90565b613ddf610e04565b50613dea6000610628565b9080613e19613e137a184f03e93ff9f4daa797ed6e38ed64bf6a1f010000000000000000613cc3565b9161010e565b1015613ff1575b80613e41613e3b6d04ee2d6d415b85acef8100000000613d01565b9161010e565b1015613fb6575b80613e62613e5c662386f26fc10000613d3f565b9161010e565b1015613f82575b80613e80613e7a6305f5e100613d7d565b9161010e565b1015613f51575b80613e9c613e96612710613d9c565b9161010e565b1015613f22575b80613eb7613eb16064613dbb565b9161010e565b1015613ef4575b613ed1613ecb600a613a23565b9161010e565b1015613edb575b90565b613eef90613ee96001610552565b906139c0565b613ed8565b613f0b613f1c91613f056064613dbb565b90613a3f565b91613f166002612599565b906139c0565b90613ebe565b613f3a613f4b91613f34612710613d9c565b90613a3f565b91613f4560046134c2565b906139c0565b90613ea3565b613f6b613f7c91613f656305f5e100613d7d565b90613a3f565b91613f7660086134ee565b906139c0565b90613e87565b613f9f613fb091613f99662386f26fc10000613d3f565b90613a3f565b91613faa6010613d5e565b906139c0565b90613e69565b613fda613feb91613fd46d04ee2d6d415b85acef8100000000613d01565b90613a3f565b91613fe56020613d20565b906139c0565b90613e48565b6140226140339161401c7a184f03e93ff9f4daa797ed6e38ed64bf6a1f010000000000000000613cc3565b90613a3f565b9161402d6040613ce2565b906139c0565b90613e2056fe60806040526004361015610013575b6123ea565b61001e6000356101fd565b806303a507be146101f857806306a49fce146101f35780630dd3849c146101ee5780631bb43d2c146101e95780632f5bb336146101e45780633197cbb6146101df57806332e7c5bf146101da5780633477ee2e146101d557806338e60bdd146101d05780633a2e5a32146101cb5780633b77a5fe146101c6578063477decc0146101c1578063494503d4146101bc5780635c632b38146101b75780636b7a524f146101b25780636fecb623146101ad57806375601fc8146101a85780637a308a4c146101a357806380bb913c1461019e578063820808a3146101995780638b8fbd9214610194578063ad4340981461018f578063b3bf54951461018a578063c21b486514610185578063c392650514610180578063c9e525df1461017b578063cdc6fe9514610176578063f446c1d014610171578063f65e88d21461016c5763fb7344d00361000e576123b5565b6120c3565b611ff4565b611f88565b611dbf565b611d42565b611d0d565b611bd7565b611b8e565b611a68565b6119f7565b611920565b611875565b6117e6565b6115dc565b611589565b6114cd565b6112d1565b6110ad565b610fa9565b610e88565b610cf0565b610bfb565b6109a1565b610935565b610895565b6104c2565b61048c565b6103eb565b6102a2565b60e01c90565b60405190565b600080fd5b600080fd5b600091031261021e57565b61020e565b90565b90565b90565b61024061023b61024592610223565b610229565b610226565b90565b6102717f79be667ef9dcbbac55a06295ce870b07029bfcdb2dce28d959f2815b16f8179861022c565b90565b61027c610248565b90565b61028890610226565b9052565b91906102a09060006020850194019061027f565b565b346102d2576102b2366004610213565b6102ce6102bd610274565b6102c5610203565b9182918261028c565b0390f35b610209565b5190565b60209181520190565b60200190565b5190565b60209181520190565b60005b83811061030b575050906000910152565b8060209183015181850152016102fa565b601f801991011690565b61034561034e6020936103539361033c816102ea565b938480936102ee565b958691016102f7565b61031c565b0190565b9061036191610326565b90565b60200190565b9061037e610377836102d7565b80926102db565b908161038f602083028401946102e4565b926000915b8383106103a357505050505090565b909192939460206103c56103bf83856001950387528951610357565b97610364565b9301930191939290610394565b6103e8916020820191600081840391015261036a565b90565b3461041b576103fb366004610213565b61041761040661248f565b61040e610203565b918291826103d2565b0390f35b610209565b60001c90565b90565b61043561043a91610420565b610426565b90565b6104479054610429565b90565b600890610465600161045e6000850161043d565b930161043d565b90565b91602061048a9294936104836040820196600083019061027f565b019061027f565b565b346104bd5761049c366004610213565b6104a461044a565b906104b96104b0610203565b92839283610468565b0390f35b610209565b346104f2576104d2366004610213565b6104ee6104dd6124aa565b6104e5610203565b9182918261028c565b0390f35b610209565b600080fd5b600080fd5b634e487b7160e01b600052604160045260246000fd5b906105219061031c565b810190811067ffffffffffffffff82111761053b57604052565b610501565b9061055361054c610203565b9283610517565b565b600080fd5b600080fd5b67ffffffffffffffff81116105775760208091020190565b610501565b600080fd5b61058a81610226565b0361059157565b600080fd5b905035906105a382610581565b565b91906040838203126105e1576105da906105bf6040610540565b936105cd8260008301610596565b6000860152602001610596565b6020830152565b6104fc565b91906080838203126106225761061b906106006040610540565b9361060e82600083016105a5565b60008601526040016105a5565b6020830152565b6104fc565b9190610180838203126106d5576106ce90610643610100610540565b9361065182600083016105a5565b600086015261066382604083016105a5565b602086015261067582608083016105a5565b60408601526106878260c083016105a5565b606086015261069a826101008301610596565b60808601526106ad826101208301610596565b60a08601526106c0826101408301610596565b60c086015261016001610596565b60e0830152565b6104fc565b91906102008382031261071757610710906106f56040610540565b9361070382600083016105e6565b6000860152608001610627565b6020830152565b6104fc565b9092919261073161072c8261055f565b610540565b9381855261020060208601920283019281841161077257915b8383106107575750505050565b60206102009161076784866106da565b81520192019161074a565b61057c565b9080601f83011215610795578160206107929335910161071c565b90565b61055a565b919060c0838203126107fa576107f3906107b46080610540565b936107c282600083016105a5565b60008601526107d482604083016105a5565b60208601526107e68260808301610596565b604086015260a001610596565b6060830152565b6104fc565b91909160e081840312610854576108166040610540565b9260008201359167ffffffffffffffff831161084f5761083b82610848948301610777565b600086015260200161079a565b6020830152565b610555565b6104fc565b9060208282031261088a57600082013567ffffffffffffffff81116108855761088292016107ff565b90565b6104f7565b61020e565b60000190565b6108a86108a3366004610859565b61322d565b6108b0610203565b806108ba8161088f565b0390f35b1c90565b67ffffffffffffffff1690565b6108df9060086108e493026108be565b6108c2565b90565b906108f291546108cf565b90565b61090260066000906108e7565b90565b67ffffffffffffffff1690565b61091b90610905565b9052565b919061093390600060208501940190610912565b565b3461096557610945366004610213565b6109616109506108f5565b610958610203565b9182918261091f565b0390f35b610209565b90565b61098161097c6109869261096a565b610229565b610226565b90565b610993600761096d565b90565b61099e610989565b90565b346109d1576109b1366004610213565b6109cd6109bc610996565b6109c4610203565b9182918261028c565b0390f35b610209565b906020828203126109f0576109ed91600001610596565b90565b61020e565b634e487b7160e01b600052603260045260246000fd5b5490565b600052602060002090565b610a2381610a0b565b821015610a3e57610a35600191610a0f565b91020190600090565b6109f5565b634e487b7160e01b600052600060045260246000fd5b634e487b7160e01b600052602260045260246000fd5b9060016002830492168015610a8f575b6020831014610a8a57565b610a59565b91607f1691610a7f565b600052602060002090565b9060009291805490610abf610ab883610a6f565b80946102ee565b91600181169081600014610b185750600114610adb575b505050565b610ae89192939450610a99565b916000925b818410610b005750500190388080610ad6565b60018160209295939554848601520191019290610aed565b92949550505060ff1916825215156020020190388080610ad6565b90610b3d91610aa4565b90565b90610b60610b5992610b50610203565b93848092610b33565b0383610517565b565b90600010610b7657610b7390610b40565b90565b610a43565b6002610b8681610a0b565b821015610ba357610ba091610b9a91610a1a565b90610b62565b90565b600080fd5b60209181520190565b610bd0610bd9602093610bde93610bc7816102ea565b93848093610ba8565b958691016102f7565b61031c565b0190565b610bf89160208201916000818403910152610bb1565b90565b34610c2b57610c27610c16610c113660046109d6565b610b7b565b610c1e610203565b91829182610be2565b0390f35b610209565b5490565b600052602060002090565b919091610c4b81610c30565b831015610c69576004610c5f600892610c34565b8185040193060290565b6109f5565b60070b90565b610c84906008610c8993026108be565b610c6e565b90565b90610c979154610c74565b90565b6003610ca581610c30565b821015610cc257610cbf91610cb991610c3f565b90610c8c565b90565b600080fd5b60070b90565b610cd690610cc7565b9052565b9190610cee90600060208501940190610ccd565b565b34610d2057610d1c610d0b610d063660046109d6565b610c9a565b610d13610203565b91829182610cda565b0390f35b610209565b67ffffffffffffffff8111610d3d5760208091020190565b610501565b919060a083820312610d9057610d8990610d5c6060610540565b93610d6a82600083016105a5565b6000860152610d7c82604083016105a5565b6020860152608001610596565b6040830152565b6104fc565b919060e083820312610dd157610dca90610daf6040610540565b93610dbd82600083016105a5565b6000860152604001610d42565b6020830152565b6104fc565b90929192610deb610de682610d25565b610540565b9381855260e0602086019202830192818411610e2a57915b838310610e105750505050565b602060e091610e1f8486610d95565b815201920191610e03565b61057c565b9080601f83011215610e4d57816020610e4a93359101610dd6565b90565b61055a565b90602082820312610e8357600082013567ffffffffffffffff8111610e7e57610e7b9201610e2f565b90565b6104f7565b61020e565b34610eb657610ea0610e9b366004610e52565b6142ef565b610ea8610203565b80610eb28161088f565b0390f35b610209565b5190565b60209181520190565b60200190565b610ed790610226565b9052565b90602080610eff93610ef560008201516000860190610ece565b0151910190610ece565b565b9060406020610f2693610f1c60008201516000860190610edb565b0151910190610edb565b565b90610f3581608093610f01565b0190565b60200190565b90610f5c610f56610f4f84610ebb565b8093610ebf565b92610ec8565b9060005b818110610f6d5750505090565b909192610f86610f806001928651610f28565b94610f39565b9101919091610f60565b610fa69160208201916000818403910152610f3f565b90565b34610fd957610fb9366004610213565b610fd5610fc46143a2565b610fcc610203565b91829182610f90565b0390f35b610209565b67ffffffffffffffff8111610ff65760208091020190565b610501565b9092919261101061100b82610fde565b610540565b93818552604060208601920283019281841161104f57915b8383106110355750505050565b602060409161104484866105a5565b815201920191611028565b61057c565b9080601f830112156110725781602061106f93359101610ffb565b90565b61055a565b906020828203126110a857600082013567ffffffffffffffff81116110a3576110a09201611054565b90565b6104f7565b61020e565b346110dd576110d96110c86110c3366004611077565b614551565b6110d0610203565b9182918261028c565b0390f35b610209565b5490565b600052602060002090565b6110fa816110e2565b8210156111155761110c6005916110e6565b91020190600090565b6109f5565b60018060a01b031690565b61113161113691610420565b61111a565b90565b6111439054611125565b90565b9061115090610226565b9052565b61115e6040610540565b90565b9061119a6111916001611172611154565b9461118b6111826000830161043d565b60008801611146565b0161043d565b60208401611146565b565b6111a66040610540565b90565b906111e26111d960016111ba61119c565b946111d36111ca6000830161043d565b60008801611146565b0161043d565b60208401611146565b565b600a906111f0826110e2565b81101561122957611200916110f1565b5061120d60008201611139565b91611226600361121f60018501611161565b93016111a9565b90565b600080fd5b60018060a01b031690565b6112429061122e565b90565b61124e90611239565b9052565b906020806112769361126c60008201516000860190610ece565b0151910190610ece565b565b9060208061129c9361129260008201516000860190610ece565b0151910190610ece565b565b6060906112c86112cf94969593966112be60a08401986000850190611245565b6020830190611252565b0190611278565b565b34611304576113006112ec6112e73660046109d6565b6111e4565b6112f7939193610203565b9384938461129e565b0390f35b610209565b5490565b600052602060002090565b61132181611309565b82101561133c5761133360089161130d565b91020190600090565b6109f5565b61134d61135291610420565b6108c2565b90565b61135f9054611341565b90565b60401c90565b61137461137991611362565b61111a565b90565b6113869054611368565b90565b52565b6113966080610540565b90565b906114026113f960056113aa61138c565b946113c36113ba60008301611161565b60008801611389565b6113db6113d260028301611161565b60208801611389565b6113f36113ea6004830161043d565b60408801611146565b0161043d565b60608401611146565b565b600b9061141082611309565b8110156114495761142091611318565b5061142d60008201611355565b91611446600261143f6000850161137c565b9301611399565b90565b600080fd5b9060a060606114979361146960008201516000860190610edb565b61147b60208201516040860190610edb565b61148d60408201516080860190610ece565b0151910190610ece565b565b6040906114c46114cb94969593966114ba6101008401986000850190610912565b6020830190611245565b019061144e565b565b34611500576114fc6114e86114e33660046109d6565b611404565b6114f3939193610203565b93849384611499565b0390f35b610209565b9060a0806115719361151f60008201516000860190610ece565b61153160208201516020860190610ece565b61154360408201516040860190610ece565b61155560608201516060860190610ece565b61156760808201516080860190610ece565b0151910190610ece565b565b919061158790600060c08501940190611505565b565b346115b957611599366004610213565b6115b56115a4614714565b6115ac610203565b91829182611573565b0390f35b610209565b6000906115d960016115d26000850161043d565b930161043d565b90565b3461160d576115ec366004610213565b6115f46115be565b90611609611600610203565b92839283610468565b0390f35b610209565b919060408382031261163b578061162f6116389260008601610596565b93602001610596565b90565b61020e565b5490565b600052602060002090565b61165881611640565b8210156116735761166a600191611644565b91020190600090565b6109f5565b5490565b600052602060002090565b61169081611678565b8210156116ab576116a260089161167c565b91020190600090565b6109f5565b6116ba6060610540565b90565b9061170e61170560046116ce6116b0565b946116e76116de60008301611161565b60008801611389565b6116ff6116f660028301611161565b60208801611389565b0161043d565b60408401611146565b565b60079061171c82611640565b8110156117755761172c9161164f565b509061173782611678565b8110156117705761174791611687565b5061175460008201611139565b9161176d600361176660018501611161565b93016116bd565b90565b600080fd5b600080fd5b90608060406117b09361179560008201516000860190610edb565b6117a6602082015183860190610edb565b0151910190610ece565b565b6060906117dd6117e494969593966117d36101008401986000850190611245565b6020830190611252565b019061177a565b565b3461181a576118166118026117fc366004611612565b90611710565b61180d939193610203565b938493846117b2565b0390f35b610209565b90565b61183661183161183b9261181f565b610229565b610226565b90565b6118677f483ada7726a3c4655da4fbfc0e1108a8fd17b448a68554199c47d08ffb10d4b8611822565b90565b61187261183e565b90565b346118a557611885366004610213565b6118a161189061186a565b611898610203565b9182918261028c565b0390f35b610209565b5490565b600052602060002090565b6118c2816118aa565b8210156118dd576118d46002916118ae565b91020190600090565b6109f5565b6004906118ee826118aa565b81101561191b576118fe916118b9565b509061191860016119116000850161043d565b930161043d565b90565b600080fd5b34611951576119386119333660046109d6565b6118e2565b9061194d611944610203565b92839283610468565b0390f35b610209565b5190565b60209181520190565b60200190565b61197290610cc7565b9052565b9061198381602093611969565b0190565b60200190565b906119aa6119a461199d84611956565b809361195a565b92611963565b9060005b8181106119bb5750505090565b9091926119d46119ce6001928651611976565b94611987565b91019190916119ae565b6119f4916020820191600081840391015261198d565b90565b34611a2757611a07366004610213565b611a23611a1261499f565b611a1a610203565b918291826119de565b0390f35b610209565b90565b611a43611a3e611a4892611a2c565b610229565b610226565b90565b611a5a6401000003d019611a2f565b90565b611a65611a4b565b90565b34611a9857611a78366004610213565b611a94611a83611a5d565b611a8b610203565b9182918261028c565b0390f35b610209565b67ffffffffffffffff8111611ab55760208091020190565b610501565b611ac381610cc7565b03611aca57565b600080fd5b90503590611adc82611aba565b565b90929192611af3611aee82611a9d565b610540565b9381855260208086019202830192818411611b3057915b838310611b175750505050565b60208091611b258486611acf565b815201920191611b0a565b61057c565b9080601f83011215611b5357816020611b5093359101611ade565b90565b61055a565b90602082820312611b8957600082013567ffffffffffffffff8111611b8457611b819201611b35565b90565b6104f7565b61020e565b34611bbc57611ba6611ba1366004611b58565b614d27565b611bae610203565b80611bb88161088f565b0390f35b610209565b9190611bd590600060408501940190611252565b565b34611c0857611c04611bf3611bed366004611612565b90614faf565b611bfb610203565b91829182611bc1565b0390f35b610209565b5190565b60209181520190565b60200190565b611c2990611239565b9052565b90602080611c5193611c4760008201516000860190610ece565b0151910190610ece565b565b9060606040611c8a93611c6e60008201516000860190611c20565b611c8060208201516020860190610edb565b0151910190611c2d565b565b90611c998160a093611c53565b0190565b60200190565b90611cc0611cba611cb384611c0d565b8093611c11565b92611c1a565b9060005b818110611cd15750505090565b909192611cea611ce46001928651611c8c565b94611c9d565b9101919091611cc4565b611d0a9160208201916000818403910152611ca3565b90565b34611d3d57611d1d366004610213565b611d39611d286150e2565b611d30610203565b91829182611cf4565b0390f35b610209565b34611d7257611d6e611d5d611d583660046109d6565b61521c565b611d65610203565b91829182611bc1565b0390f35b610209565b90565b611d8e611d89611d9392611d77565b610229565b610226565b90565b611db170014551231950b75fc4402da1732fc9bebe19611d7a565b90565b611dbc611d96565b90565b34611def57611dcf366004610213565b611deb611dda611db4565b611de2610203565b9182918261028c565b0390f35b610209565b5190565b60209181520190565b60200190565b5190565b60209181520190565b60200190565b9060806040611e5093611e3560008201516000860190610edb565b611e46602082015183860190610edb565b0151910190610ece565b565b9060606040611e8993611e6d60008201516000860190611c20565b611e7f60208201516020860190610edb565b0151910190611e1a565b565b90611e998161010093611e52565b0190565b60200190565b90611ec0611eba611eb384611e07565b8093611e0b565b92611e14565b9060005b818110611ed15750505090565b909192611eea611ee46001928651611e8b565b94611e9d565b9101919091611ec4565b90611efe91611ea3565b90565b60200190565b90611f1b611f1483611df4565b8092611df8565b9081611f2c60208302840194611e01565b926000915b838310611f4057505050505090565b90919293946020611f62611f5c83856001950387528951611ef4565b97611f01565b9301930191939290611f31565b611f859160208201916000818403910152611f07565b90565b34611fb857611f98366004610213565b611fb4611fa3615483565b611fab610203565b91829182611f6f565b0390f35b610209565b90565b611fd4611fcf611fd992611fbd565b610229565b610226565b90565b611fe66000611fc0565b90565b611ff1611fdc565b90565b3461202457612004366004610213565b61202061200f611fe9565b612017610203565b9182918261028c565b0390f35b610209565b5490565b600052602060002090565b61204181612029565b82101561205c5761205360049161202d565b91020190600090565b6109f5565b60059061206d82612029565b81101561209a5761207d91612038565b5090612097600261209060008501611161565b9301611161565b90565b600080fd5b9160406120c19294936120ba60808201966000830190611252565b0190611252565b565b346120f4576120db6120d63660046109d6565b612061565b906120f06120e7610203565b9283928361209f565b0390f35b610209565b5190565b60209181520190565b60200190565b61211590610905565b9052565b5190565b60209181520190565b60200190565b9061016060e06121c19361214860008201516000860190610edb565b61215a60208201516040860190610edb565b61216c60408201516080860190610edb565b61217e606082015160c0860190610edb565b6121916080820151610100860190610ece565b6121a460a0820151610120860190610ece565b6121b760c0820151610140860190610ece565b0151910190610ece565b565b90608060206121e8936121de60008201516000860190610f01565b015191019061212c565b565b906121f881610200936121c3565b0190565b60200190565b9061221f61221961221284612119565b809361211d565b92612126565b9060005b8181106122305750505090565b90919261224961224360019286516121ea565b946121fc565b9101919091612223565b9060a0606061229c9361226e60008201516000860190610edb565b61228060208201516040860190610edb565b61229260408201516080860190610ece565b0151910190610ece565b565b906122ef906060806122e461012084016122c06000880151600087019061210c565b6122d260208801516020870190611c20565b60408701518582036040870152612202565b940151910190612253565b90565b906122fc9161229e565b90565b60200190565b90612319612312836120f9565b80926120fd565b908161232a60208302840194612106565b926000915b83831061233e57505050505090565b9091929394602061236061235a838560019503875289516122f2565b976122ff565b930193019193929061232f565b906123999060208061238e6040840160008701518582036000870152612305565b940151910190610ece565b90565b6123b2916020820191600081840391015261236d565b90565b346123e5576123e16123d06123cb3660046109d6565b615912565b6123d8610203565b9182918261239c565b0390f35b610209565b600080fd5b606090565b67ffffffffffffffff811161240c5760208091020190565b610501565b9061242361241e836123f4565b610540565b918252565b61243190610b40565b90565b9061243e82610a0b565b61244781612411565b926124556020850191610a0f565b6000915b8383106124665750505050565b60016020819261247585612428565b815201920192019190612459565b61248c90612434565b90565b6124976123ef565b506124a26002612483565b90565b600090565b6124b26124a5565b506124bd600b611309565b90565b6124d46124cf6124d992610905565b610229565b610226565b90565b60207f65722061626c6520746f20636173742062616c6c6f7400000000000000000000917f566f74696e6720706572696f642068617320656e6465642c206e6f206c6f6e6760008201520152565b6125376036604092610ba8565b612540816124dc565b0190565b61255a906020810190600081830391015261252a565b90565b1561256457565b61256c610203565b62461bcd60e51b81528061258260048201612544565b0390fd5b61259a61259561259f9261122e565b610229565b61122e565b90565b6125ab90612586565b90565b6125b7906125a2565b90565b906125c4906125ae565b600052602052604060002090565b60ff1690565b6125e46125e991610420565b6125d2565b90565b6125f690546125d8565b90565b60407f7920666f7220667572746865722064657461696c000000000000000000000000917f5468697320766f746572206973206e6f7420656c696769626c652c20706c656160008201527f736520636f6e73756c742074686520656c656374696f6e20617574686f72697460208201520152565b61267a6054606092610ba8565b612683816125f9565b0190565b61269d906020810190600081830391015261266d565b90565b156126a757565b6126af610203565b62461bcd60e51b8152806126c560048201612687565b0390fd5b151590565b60207f6572732063616e206f6e6c7920766f7465206f6e636500000000000000000000917f5468697320766f7465722068617320766f746564206265666f72652c20766f7460008201520152565b6127296036604092610ba8565b612732816126ce565b0190565b61274c906020810190600081830391015261271c565b90565b1561275657565b61275e610203565b62461bcd60e51b81528061277460048201612736565b0390fd5b60207f6d6174636820746865206e756d626572206f662063616e646964617465730000917f496e76616c6964206e756d626572206f6620766f7465732c2073686f756c642060008201520152565b6127d3603e604092610ba8565b6127dc81612778565b0190565b6127f690602081019060008183039101526127c6565b90565b1561280057565b612808610203565b62461bcd60e51b81528061281e600482016127e0565b0390fd5b600161282e9101610226565b90565b9061283b82612119565b81101561284c576020809102010190565b6109f5565b61285a90611161565b90565b60207f6564000000000000000000000000000000000000000000000000000000000000917f566f74652063697068657274657874206973206e6f742077656c6c2d666f726d60008201520152565b6128b86022604092610ba8565b6128c18161285d565b0190565b6128db90602081019060008183039101526128ab565b90565b156128e557565b6128ed610203565b62461bcd60e51b815280612903600482016128c5565b0390fd5b6129116040610540565b90565b61291e6040610540565b90565b61292b9051610226565b90565b60001b90565b906129416000199161292e565b9181191691161790565b61295f61295a61296492610226565b610229565b610226565b90565b90565b9061297f61297a6129869261294b565b612967565b8254612934565b9055565b906129b7602060016129bd946129af600082016129a960008801612921565b9061296a565b019201612921565b9061296a565b565b906129c99161298a565b565b60607f6461746500000000000000000000000000000000000000000000000000000000917f566f74652073756d206973206e6f7420657175616c20746f206f6e652c206d6560008201527f616e696e6720612062616c6c6f74206973206361737420666f72206d6f72652060208201527f7468616e206f6e652063616e646964617465206f72207a65726f2063616e646960408201520152565b612a726064608092610ba8565b612a7b816129cb565b0190565b612a959060208101906000818303910152612a65565b90565b15612a9f57565b612aa7610203565b62461bcd60e51b815280612abd60048201612a7f565b0390fd5b612ad5612ad0612ada92610226565b610229565b610905565b90565b612ae76080610540565b90565b90612af490610905565b9052565b90612b0290611239565b9052565b52565b52565b90565b600052602060002090565b5490565b612b2781612b1a565b821015612b4257612b39600891612b0f565b91020190600090565b6109f5565b612b519051610905565b90565b90612b6767ffffffffffffffff9161292e565b9181191691161790565b612b85612b80612b8a92610905565b610229565b610905565b90565b90565b90612ba5612ba0612bac92612b71565b612b8d565b8254612b54565b9055565b612bba9051611239565b90565b60401b90565b90612bdd68010000000000000000600160e01b0391612bbd565b9181191691161790565b90565b90612bff612bfa612c06926125ae565b612be7565b8254612bc3565b9055565b5190565b5490565b634e487b7160e01b600052601160045260246000fd5b612c37612c3d91939293610226565b92610226565b91612c49838202610226565b928184041490151715612c5857565b612c12565b612c68906010612c28565b90565b600052602060002090565b1b90565b91906008612c96910291612c9060001984612c76565b92612c76565b9181191691161790565b9190612cb6612cb1612cbe9361294b565b612967565b908354612c7a565b9055565b612cd491612cce6124a5565b91612ca0565b565b60006001612cf092612cea83808301612cc2565b01612cc2565b565b90600003612d0557612d0390612cd6565b565b610a43565b60006002612d2492612d1e83808301612cf2565b01612cf2565b565b90600003612d3957612d3790612d0a565b565b610a43565b6000600b612da692612d5283808301612cf2565b612d5f8360028301612cf2565b612d6c8360048301612cf2565b612d798360068301612cf2565b612d868360088301612cc2565b612d938360098301612cc2565b612da083600a8301612cc2565b01612cc2565b565b90600003612dbb57612db990612d3e565b565b610a43565b60006004612dda92612dd483808301612d26565b01612da8565b565b90600003612def57612ded90612dc0565b565b610a43565b5b818110612e00575050565b80612e0e6000601093612ddc565b01612df5565b9091828110612e23575b505050565b612e41612e3b612e35612e4c95612c5d565b92612c5d565b92612c6b565b918201910190612df4565b388080612e1e565b90680100000000000000008111612e7d5781612e72612e7b93612c0e565b90828155612e14565b565b610501565b5190565b5190565b5190565b90612ebb60206002612ec194612eb360008201612ead60008801612e8a565b906129bf565b019201612e8a565b906129bf565b565b90612ecd91612e8e565b565b5190565b90612f9660e0600b612f9c94612ef860008201612ef260008801612e8a565b906129bf565b612f1160028201612f0b60208801612e8a565b906129bf565b612f2a60048201612f2460408801612e8a565b906129bf565b612f4360068201612f3d60608801612e8a565b906129bf565b612f5c60088201612f5660808801612921565b9061296a565b612f7560098201612f6f60a08801612921565b9061296a565b612f8e600a8201612f8860c08801612921565b9061296a565b019201612921565b9061296a565b565b90612fa891612ed3565b565b90612fd760206004612fdd94612fcf60008201612fc960008801612e86565b90612ec3565b019201612ecf565b90612f9e565b565b90612fe991612faa565b565b61301061300a612ffa84612119565b936130058585612e54565b612126565b91612c6b565b6000915b8383106130215750505050565b601060208261303a613034600195612e82565b86612fdf565b01920192019190613014565b9061305091612feb565b565b5190565b906130b5606060056130bb9461307b6000820161307560008801612e8a565b906129bf565b6130946002820161308e60208801612e8a565b906129bf565b6130ad600482016130a760408801612921565b9061296a565b019201612921565b9061296a565b565b906130c791613056565b565b906131286060600261312e946130ee600082016130e860008801612b47565b90612b90565b6131076000820161310160208801612bb0565b90612bea565b6131206001820161311a60408801612c0a565b90613046565b019201613052565b906130bd565b565b91906131415761313f916130c9565b565b610a43565b9081549168010000000000000000831015613176578261316e91600161317495018155612b1e565b90613130565b565b610501565b9061318760ff9161292e565b9181191691161790565b61319a906126c9565b90565b90565b906131b56131b06131bc92613191565b61319d565b825461317b565b9055565b906132119060608061320661012084016131e26000880151600087019061210c565b6131f460208801516020870190611c20565b60408701518582036040870152612202565b940151910190612253565b90565b61322a91602082019160008184039101526131c0565b90565b6132534261324c6132466132416006611355565b6124c0565b91610226565b111561255d565b61326f61326a613265600c33906125ba565b6125ec565b6126a0565b61329461328f613289613284600d33906125ba565b6125ec565b156126c9565b61274f565b6132c56132a46000830151612119565b6132bf6132b96132b46002610a0b565b610226565b91610226565b146127f9565b6132cf6000611fc0565b5b806132ef6132e96132e46000860151612119565b610226565b91610226565b1015613345576133409061333b613336600061330f818701518590612831565b510151602061332360008801518690612831565b5101516133306008612851565b91615bbf565b6128de565b612822565b6132d0565b50600061337b613372600061336d61336461335e612907565b95611fc0565b60008601611146565b611fc0565b60208301611146565b6133d160006133b36133aa60006133a561339c613396612907565b95611fc0565b60008601611146565b611fc0565b60208301611146565b6133c86133be612914565b9360008501611389565b60208301611389565b6133db6000611fc0565b5b806133fb6133f56133f06000870151612119565b610226565b91610226565b1015613501576134fc90613429600084015160008061341e818901518690612831565b510151015190616099565b6000840152613453602084015160206000613448818901518690612831565b510151015190616099565b60208401526134a7613492600061346c60058590612038565b500161348d600080613482818b01518890612831565b510151015191612851565b616099565b60006134a060058590612038565b50016129bf565b6134f76134e260026134bb60058590612038565b50016134dd602060006134d2818b01518890612831565b510151015191612851565b616099565b60026134f060058590612038565b50016129bf565b612822565b6133dc565b5061352961352e9160208401516135186002610a0b565b906135236008612851565b9261620f565b612a98565b61358761354361353e600b611309565b612ac1565b9161357e3391613575602060008301519201519361356c613562612add565b9760008901612aea565b60208701612af8565b60408501612b06565b60608301612b09565b61359b613594600b612b0c565b8290613146565b6135b160016135ac600d33906125ba565b6131a0565b6135e77f139a2fce3cb1f6b7d0e62f2fa38f48d7a95d26bb2163f0a0a80bf0c4e2a19f32916135de610203565b91829182613214565b0390a1565b60407f6363657373000000000000000000000000000000000000000000000000000000917f4d75737420626520656c656374696f6e20617574686f7269747920746f20636160008201527f6c6c20746869732066756e6374696f6e2c20756e617574686f72697a6564206160208201520152565b61366d6045606092610ba8565b613676816135ec565b0190565b6136909060208101906000818303910152613660565b90565b1561369a57565b6136a2610203565b62461bcd60e51b8152806136b86004820161367a565b0390fd5b6000906136c96000611fc0565b5b806136e66136e06136db600a6110e2565b610226565b91610226565b1015613739573361371661371061370b6000613704600a87906110f1565b5001611139565b611239565b91611239565b1461372a575b61372590612822565b6136ca565b9150613725600192905061371c565b5061374661374b92613693565b613d19565b565b60407f6465640000000000000000000000000000000000000000000000000000000000917f44656372797074696f6e207368617265732063616e206f6e6c7920626520737560008201527f626d6974746564206f6e63652074686520656c656374696f6e2068617320656e60208201520152565b6137ce6043606092610ba8565b6137d78161374d565b0190565b6137f190602081019060008183039101526137c1565b90565b156137fb57565b613803610203565b62461bcd60e51b815280613819600482016137db565b0390fd5b60207f6f6e207368617265206265666f72650000000000000000000000000000000000917f417574686f7269747920686173207375626d697474656420646563727970746960008201520152565b613878602f604092610ba8565b6138818161381d565b0190565b61389b906020810190600081830391015261386b565b90565b156138a557565b6138ad610203565b62461bcd60e51b8152806138c360048201613885565b0390fd5b5190565b60407f616e646964617465730000000000000000000000000000000000000000000000917f44656372797074696f6e207368617265732073686f756c64206861766520746860008201527f652073616d65206c656e6774682061732074686520616d6f756e74206f66206360208201520152565b61394c6049606092610ba8565b613955816138cb565b0190565b61396f906020810190600081830391015261393f565b90565b1561397957565b613981610203565b62461bcd60e51b81528061399760048201613959565b0390fd5b600090565b6139a8611154565b90602080836139b561399b565b8152016139c061399b565b81525050565b6139ce6139a0565b90565b67ffffffffffffffff81116139e95760208091020190565b610501565b90613a006139fb836139d1565b610540565b918252565b613a0f6040610540565b90565b613a1a6139a0565b90565b613a25613a05565b9060208083613a32613a12565b815201613a3d613a12565b81525050565b613a4b613a1d565b90565b60005b828110613a5d57505050565b602090613a68613a43565b8184015201613a51565b90613a97613a7f836139ee565b92602080613a8d86936139d1565b9201910390613a4e565b565b90613aa382610ebb565b811015613ab4576020809102010190565b6109f5565b613ac281612c0e565b821015613add57613ad4601091612c6b565b91020190600090565b6109f5565b90613aec826138c7565b811015613afd576020809102010190565b6109f5565b60007f496e76616c69642064656372797074696f6e20736861726520666f756e640000910152565b613b37601e602092610ba8565b613b4081613b02565b0190565b613b5a9060208101906000818303910152613b2a565b90565b15613b6457565b613b6c610203565b62461bcd60e51b815280613b8260048201613b44565b0390fd5b613b906060610540565b90565b52565b90565b600052602060002090565b5490565b613bb181613ba4565b821015613bcc57613bc3600891613b99565b91020190600090565b6109f5565b90613be260018060a01b039161292e565b9181191691161790565b90613c01613bfc613c08926125ae565b612be7565b8254613bd1565b9055565b5190565b90613c5660406004613c5c94613c3560008201613c2f60008801612e8a565b906129bf565b613c4e60028201613c4860208801612e8a565b906129bf565b019201612921565b9061296a565b565b90613c6891613c10565b565b90613cb060406003613cb694613c8f60008201613c8960008801612bb0565b90613bec565b613ca860018201613ca260208801612e8a565b906129bf565b019201613c0c565b90613c5e565b565b9190613cc957613cc791613c6a565b565b610a43565b9081549168010000000000000000831015613cfe5782613cf6916001613cfc95018155613ba8565b90613cb8565b565b610501565b9190613d1457613d129161298a565b565b610a43565b613d3e42613d38613d32613d2d6006611355565b6124c0565b91610226565b116137f4565b613d63613d5e613d58613d53600e33906125ba565b6125ec565b156126c9565b61389e565b613d90613d6f826138c7565b613d8a613d84613d7f6002610a0b565b610226565b91610226565b14613972565b613d986139c6565b90613da36000611fc0565b5b80613dc0613dba613db5600a6110e2565b610226565b91610226565b1015613e2957613dde6000613dd7600a84906110f1565b5001611139565b613df0613dea33611239565b91611239565b14613e04575b613dff90612822565b613da4565b9150613dff613e216001613e1a600a86906110f1565b5001612851565b929050613df6565b5090613e3d613e386002610a0b565b613a72565b91613e486000611fc0565b5b80613e65613e5f613e5a6002610a0b565b610226565b91610226565b1015613f1c57613f1790613f106000613ea7613e9e6000613e99613e90613e8a612907565b95611fc0565b60008601611146565b611fc0565b60208301611146565b613efd6000613edf613ed66000613ed1613ec8613ec2612907565b95611fc0565b60008601611146565b611fc0565b60208301611146565b613ef4613eea612914565b9360008501611389565b60208301611389565b868391613f0a8383613a99565b52613a99565b5150612822565b613e49565b509290613f296000611fc0565b935b84613f47613f41613f3c600b611309565b610226565b91610226565b101561403c57613f576000611fc0565b5b80613f74613f6e613f696002610a0b565b610226565b91610226565b1015614027578061400d8761400760026000613fff6001613ff66020613feb8f6140229c87613fe1613fda8d613fd48480613fcc8d613fc383613fb88d8d90613a99565b51015196600b611318565b50018990613ab9565b500101612851565b90616099565b9284613a99565b5101528b90613a99565b51015196600b611318565b50018790613ab9565b500101612851565b90616099565b602061401a888490613a99565b510152612822565b613f58565b5091909361403490612822565b939091613f2b565b935091909161404b6000611fc0565b5b8061406861406261405d6002610a0b565b610226565b91610226565b101561412757614122906140b16140ac8460006140868a8690613ae2565b51015160206140968b8790613ae2565b510151906140a5898790613a99565b519261652b565b613b5d565b61411d3361410360006140c58a8690613ae2565b5101516140fa60206140d88c8890613ae2565b510151916140f16140e7613b86565b9560008701612af8565b60208501611389565b60408301613b93565b6141186141126007859061164f565b50613b96565b613cce565b612822565b61404c565b5050509050614142600161413d600e33906125ba565b6131a0565b600161414e6000611fc0565b5b8061416b6141656141606002610a0b565b610226565b91610226565b10156141c4576141866141806007839061164f565b50611678565b6141a161419b614196600a6110e2565b610226565b91610226565b036141b5575b6141b090612822565b61414f565b90506141b060009190506141a7565b506141cc575b565b6141d66000611fc0565b5b806141f36141ed6141e86002610a0b565b610226565b91610226565b10156142e957600061422e6142256000614220614217614211612907565b95611fc0565b60008601611146565b611fc0565b60208301611146565b6142386000611fc0565b905b8161426161425b6142566142506007889061164f565b50611678565b610226565b91610226565b10156142a35761429761429d91614291600161428a6142826007899061164f565b508790611687565b5001612851565b90616099565b91612822565b9061423a565b6142e49291506142cd6142df916142c860026142c160058790612038565b5001612851565b616786565b6142d9600484906118b9565b90613d03565b612822565b6141d7565b506141ca565b6142f8906136bc565b565b606090565b9061433861432f6002614310613a05565b9461432961432060008301611161565b60008801611389565b01611161565b60208401611389565b565b614343906142ff565b90565b9061435082612029565b614359816139ee565b92614367602085019161202d565b6000915b8383106143785750505050565b600460206001926143888561433a565b81520192019201919061436b565b61439f90614346565b90565b6143aa6142fa565b506143b56005614396565b90565b5190565b60007f4e6f20706f696e74732070726f76696465640000000000000000000000000000910152565b6143f16012602092610ba8565b6143fa816143bc565b0190565b61441490602081019060008183039101526143e4565b90565b1561441e57565b614426610203565b62461bcd60e51b81528061443c600482016143fe565b0390fd5b9061444a826143b8565b81101561445b576020809102010190565b6109f5565b905090565b61448a61448192602092614478816102ea565b94858093614460565b938491016102f7565b0190565b60007f2c00000000000000000000000000000000000000000000000000000000000000910152565b6144c260018092614460565b6144cb8161448e565b0190565b6144e06144e5916144eb9493614465565b6144b6565b90614465565b90565b5190565b905090565b61451c6145139260209261450a816144ee565b948580936144f2565b938491016102f7565b0190565b614529916144f7565b90565b614534610203565b3d6000823e3d90fd5b61454961454e91610420565b61294b565b90565b9061455a6124a5565b50614580614567836143b8565b61457a6145746000611fc0565b91610226565b11614417565b60006145b56145ac60006145a761459e614598612907565b95611fc0565b60008601611146565b611fc0565b60208301611146565b6145bf6000611fc0565b905b816145dc6145d66145d1876143b8565b610226565b91610226565b1015614607576145fb614601916145f4868590614440565b5190616099565b91612822565b906145c1565b6020929350600091506146739061466261463d6146388661463161462c888701612921565b61686d565b9401612921565b61686d565b91614654614649610203565b9384928884016144cf565b868201810382520382610517565b61466a610203565b91829182614520565b039060025afa156146945761469161468c60005161292e565b61453d565b90565b61452c565b6146a360c0610540565b90565b6146ae614699565b9060208080808080876146bf61399b565b8152016146ca61399b565b8152016146d561399b565b8152016146e061399b565b8152016146eb61399b565b8152016146f661399b565b81525050565b6147046146a6565b90565b61471160c0610540565b90565b61471c6146fc565b50614725610248565b6147a061473061183e565b61479761473b611fdc565b61478e614746610989565b614785614751611a4b565b9361477c61475d611d96565b97614773614769614707565b9b60008d01611146565b60208b01611146565b60408901611146565b60608701611146565b60808501611146565b60a08301611146565b90565b606090565b60209181520190565b6147bd6147c291610420565b610c6e565b90565b6147d16147d691611362565b610c6e565b90565b60801c90565b6147eb6147f0916147d9565b610c6e565b90565b60c01c90565b61480561480a916147f3565b610c6e565b90565b9060019061482d61482761482085610c30565b80936147a8565b93610c34565b6000926148f0575b6001614842575b50505090565b54908083106148ce575b8083106148ac575b80831061488a575b8210614869575b8061483c565b826148816001939461487c6020946147f9565b611969565b01910138614863565b91926020816148a360019361489e866147df565b611969565b0193019161485c565b91926020816148c56001936148c0866147c5565b611969565b01930191614854565b91926020816148e76001936148e2866147b1565b611969565b0193019161484c565b5b816001600403840110156148355792600160206149546149596004948380808b549361492581614920876147b1565b611969565b0161493881614933866147c5565b611969565b0161494b81614946856147df565b611969565b019283916147f9565b611969565b0194019201916148f1565b9061496e9161480d565b90565b9061499161498a92614981610203565b93848092614964565b0383610517565b565b61499c90614971565b90565b6149a76147a3565b506149b26003614993565b90565b60207f65206e756d626572206f662063616e6469646174657300000000000000000000917f566f746573206c656e677468206d75737420626520657175616c20746f20746860008201520152565b614a106036604092610ba8565b614a19816149b5565b0190565b614a339060208101906000818303910152614a03565b90565b15614a3d57565b614a45610203565b62461bcd60e51b815280614a5b60048201614a1d565b0390fd5b90614a6982611956565b811015614a7a576020809102010190565b6109f5565b614a899051610cc7565b90565b614aa0614a9b614aa592611fbd565b610229565b610cc7565b90565b60207f6572000000000000000000000000000000000000000000000000000000000000917f566f7465206d7573742062652061206e6f6e2d6e65676174697665206e756d6260008201520152565b614b036022604092610ba8565b614b0c81614aa8565b0190565b614b269060208101906000818303910152614af6565b90565b15614b3057565b614b38610203565b62461bcd60e51b815280614b4e60048201614b10565b0390fd5b614b66614b61614b6b92610cc7565b610229565b610905565b90565b60407f6564000000000000000000000000000000000000000000000000000000000000917f566f746520666f7220612063616e6469646174652063616e6e6f74206578636560008201527f656420746865206e756d626572206f662062616c6c6f7473207375626d69747460208201520152565b614bef6042606092610ba8565b614bf881614b6e565b0190565b614c129060208101906000818303910152614be2565b90565b15614c1c57565b614c24610203565b62461bcd60e51b815280614c3a60048201614bfc565b0390fd5b614c52614c4d614c5792611fbd565b610229565b610905565b90565b90565b614c71614c6c614c7692614c5a565b610229565b610226565b90565b614c88614c8e91939293610226565b92610226565b8203918211614c9957565b612c12565b614cb2614cad614cb792610905565b610229565b610cc7565b90565b91906008614cdc910291614cd667ffffffffffffffff84612c76565b92612c76565b9181191691161790565b614cfa614cf5614cff92610cc7565b610229565b610cc7565b90565b90565b9190614d1b614d16614d2393614ce6565b614d02565b908354614cba565b9055565b90614d55614d3483611956565b614d4f614d49614d446002610a0b565b610226565b91610226565b14614a36565b614d5f6000611fc0565b5b80614d7c614d76614d716002610a0b565b610226565b91610226565b1015614faa57614e8b90614db6614d9c614d97868490614a5f565b614a7f565b614daf614da96000614a8c565b91610cc7565b1215614b29565b614dd1614dcc614dc7868490614a5f565b614a7f565b614b52565b614df781614df0614dea614de5600b611309565b610226565b916124c0565b1115614c15565b614dff6139c6565b5080614e14614e0e6000614c3e565b91610905565b14600014614ef257614e41614e29600b611309565b614e3b614e366000611fc0565b61521c565b90616917565b5b614e5a6000614e53600486906118b9565b500161043d565b614e77614e71614e6c60008501612921565b610226565b91610226565b149081614eb4575b50614e90575b50612822565b614d60565b614e9c614eae91614c9e565b614ea860038490610c3f565b90614d05565b38614e85565b9050614eeb614ee5614ee06020614ed96001614ed260048a906118b9565b500161043d565b9401612921565b610226565b91610226565b1438614e7f565b80614f0e614f08614f03600b611309565b610226565b916124c0565b14600014614f4157614f3b614f23600b611309565b614f35614f306001614c5d565b61521c565b90616917565b5b614e42565b614fa5614f6882614f63614f5d614f586001614c5d565b61521c565b916124c0565b616917565b614f9f614f87614f78600b611309565b614f81866124c0565b90614c79565b614f99614f946000611fc0565b61521c565b90616917565b90616099565b614f3c565b509050565b614fdb90614fbb6139c6565b5091614fd2614fc8612907565b9360008501611146565b60208301611146565b90565b606090565b67ffffffffffffffff8111614ffb5760208091020190565b610501565b9061501261500d83614fe3565b610540565b918252565b52565b6150246060610540565b90565b9061507861506f600361503861501a565b9461505161504860008301611139565b60008801612af8565b61506961506060018301611161565b60208801611389565b016111a9565b60408401615017565b565b61508390615027565b90565b90615090826110e2565b61509981615000565b926150a760208501916110e6565b6000915b8383106150b85750505050565b600560206001926150c88561507a565b8152019201920191906150ab565b6150df90615086565b90565b6150ea614fde565b506150f5600a6150d6565b90565b60207f2031000000000000000000000000000000000000000000000000000000000000917f496e76616c696420766f74652c2063616e206f6e6c7920636173742030206f7260008201520152565b6151536022604092610ba8565b61515c816150f8565b0190565b6151769060208101906000818303910152615146565b90565b1561518057565b615188610203565b62461bcd60e51b81528061519e60048201615160565b0390fd5b60007f496e76616c696420766f74650000000000000000000000000000000000000000910152565b6151d7600c602092610ba8565b6151e0816151a2565b0190565b6151fa90602081019060008183039101526151ca565b90565b90565b61521461520f615219926151fd565b610229565b610226565b90565b6152246139c6565b50806152396152336000611fc0565b91610226565b1480156152d3575b61524a90615179565b8061525e6152586000611fc0565b91610226565b1460001461527457506152716000612851565b90565b6152876152816001614c5d565b91610226565b146000146152b1576152ae60026152a86152a2600092615200565b91612851565b90616917565b90565b6152b9610203565b62461bcd60e51b8152806152cf600482016151e4565b0390fd5b5061524a816152eb6152e56001614c5d565b91610226565b149050615241565b606090565b67ffffffffffffffff81116153105760208091020190565b610501565b90615327615322836152f8565b610540565b918252565b67ffffffffffffffff81116153445760208091020190565b610501565b9061535b6153568361532c565b610540565b918252565b61536a6060610540565b90565b906153be6153b5600361537e615360565b9461539761538e60008301611139565b60008801612af8565b6153af6153a660018301611161565b60208801611389565b016116bd565b60408401613b93565b565b6153c99061536d565b90565b906153d682611678565b6153df81615349565b926153ed602085019161167c565b6000915b8383106153fe5750505050565b6008602060019261540e856153c0565b8152019201920191906153f1565b615425906153cc565b90565b9061543282611640565b61543b81615315565b926154496020850191611644565b6000915b83831061545a5750505050565b6001602081926154698561541c565b81520192019201919061544d565b61548090615428565b90565b61548b6152f3565b506154966007615477565b90565b6154a36040610540565b90565b606090565b6154b3615499565b90602080836154c06154a6565b8152016154cb61399b565b81525050565b6154d96154ab565b90565b67ffffffffffffffff81116154f45760208091020190565b610501565b9061550b615506836154dc565b610540565b918252565b61551a6080610540565b90565b600090565b600090565b606090565b61553461138c565b90602080808085615543613a12565b81520161554e613a12565b81520161555961399b565b81520161556461399b565b81525050565b61557261552c565b90565b61557d615510565b9060208080808561558c61551d565b815201615597615522565b8152016155a2615527565b8152016155ad61556a565b81525050565b6155bb615575565b90565b60005b8281106155cd57505050565b6020906155d86155b3565b81840152016155c1565b906156076155ef836154f9565b926020806155fd86936154dc565b92019103906155be565b565b6156136040610540565b90565b52565b90565b61563061562b61563592615619565b610229565b610226565b90565b60007f50616765206f7574206f662072616e6765000000000000000000000000000000910152565b61566d6011602092610ba8565b61567681615638565b0190565b6156909060208101906000818303910152615660565b90565b1561569a57565b6156a2610203565b62461bcd60e51b8152806156b86004820161567a565b0390fd5b6156cb6156d191939293610226565b92610226565b82018092116156dc57565b612c12565b906156eb826120f9565b8110156156fc576020809102010190565b6109f5565b9061571361570e8361055f565b610540565b918252565b52565b615726610100610540565b90565b906157f26157e9600b61573a61571b565b9461575361574a60008301611161565b60008801611389565b61576b61576260028301611161565b60208801611389565b61578361577a60048301611161565b60408801611389565b61579b61579260068301611161565b60608801611389565b6157b36157aa6008830161043d565b60808801611146565b6157cb6157c26009830161043d565b60a08801611146565b6157e36157da600a830161043d565b60c08801611146565b0161043d565b60e08401611146565b565b52565b6158016040610540565b90565b9061583d61583460046158156157f7565b9461582e615825600083016142ff565b60008801615718565b01615729565b602084016157f4565b565b61584890615804565b90565b9061585582612c0e565b61585e81615701565b9261586c6020850191612c6b565b6000915b83831061587d5750505050565b6010602060019261588d8561583f565b815201920192019190615870565b906159046158fb60026158ac615510565b946158c56158bc60008301611355565b60008801612aea565b6158dd6158d46000830161137c565b60208801612af8565b6158f56158ec6001830161584b565b60408801612b06565b01611399565b60608401612b09565b565b61590f9061589b565b90565b9061591b6154d1565b50615926600b611309565b6159396159336000611fc0565b91610226565b14615a8157615948600561561c565b61599761599061596261595b600b611309565b8490616983565b946159808161597961597389610226565b91610226565b1115615693565b61598a6001614c5d565b90614c79565b8290612c28565b906159a38282906156bc565b6159be6159b86159b3600b611309565b610226565b91610226565b11600014615a7257506159d1600b611309565b5b916159e66159e1848490614c79565b6155e2565b93825b806159fc6159f687610226565b91610226565b1015615a4757615a4290615a3b615a15600b8390611318565b5088615a2b615a25858a90614c79565b92615906565b615a3583836156e1565b526156e1565b5150612822565b6159e9565b50925092615a6f915091615a66615a5c615609565b9360008501615616565b60208301611146565b90565b615a7c90826156bc565b6159d2565b9050615a95615a906000611fc0565b6155e2565b615ac0615ab76000615ab2615aa8615609565b9460008601615616565b611fc0565b60208301611146565b90565b600090565b90615ada615ad583610fde565b610540565b918252565b60005b828110615aee57505050565b602090615af9613a12565b8184015201615ae2565b90615b28615b1083615ac8565b92602080615b1e8693610fde565b9201910390615adf565b565b90565b615b41615b3c615b4692615b2a565b610229565b610226565b90565b90565b615b60615b5b615b6592615b49565b610229565b610226565b90565b90565b615b7f615b7a615b8492615b68565b610229565b610226565b90565b634e487b7160e01b600052601260045260246000fd5b615ba9615baf91610226565b91610226565b908115615bba570690565b615b87565b615bc7615ac3565b50615be7615bd760c08401612921565b615be16000612851565b90616917565b615c0f6000840151615c09615bfe60808701612921565b600086015190616917565b90616099565b615c1b60008301612921565b615c38615c32615c2d60008501612921565b610226565b91610226565b1415918215616065575b505061605d57615c67615c5760e08401612921565b615c616000612851565b90616917565b615c8f6020840151615c89615c7e60a08701612921565b600086015190616917565b90616099565b615c9b60008301612921565b615cb8615cb2615cad60008501612921565b610226565b91610226565b1415918215616029575b505061602157615cde615cd760c08401612921565b8490616917565b615d216040840151615d1b615cf560808701612921565b615d156020870151615d0f615d0a6000611fc0565b61521c565b90616786565b90616917565b90616099565b615d2d60008301612921565b615d4a615d44615d3f60008501612921565b610226565b91610226565b1415918215615fed575b5050615fe557615d70615d6960e08401612921565b8490616917565b615db36060840151615dad615d8760a08701612921565b615da76020870151615da1615d9c6001614c5d565b61521c565b90616786565b90616917565b90616099565b615dbf60008301612921565b615ddc615dd6615dd160008501612921565b610226565b91610226565b1415918215615fb1575b5050615fa9576020615e8891615e2e615e07615e02600761096d565b615b03565b95615e288791600090615e22615e1c83611fc0565b85614440565b52611fc0565b90614440565b5150615e5e6000820151615e588791600190615e52615e4c83614c5d565b85614440565b52614c5d565b90614440565b51500151615e828491600290615e7c615e7683615200565b85614440565b52615200565b90614440565b5150615eb86000820151615eb28491600390615eac615ea683615b2d565b85614440565b52615b2d565b90614440565b5150615ee86040820151615ee28491600490615edc615ed683615b4c565b85614440565b52615b4c565b90614440565b5150615f186020820151615f128491600590615f0c615f068361561c565b85614440565b5261561c565b90614440565b5150615f486060820151615f428491600690615f3c615f3683615b6b565b85614440565b52615b6b565b90614440565b5150615f6260a0615f5b60808401612921565b9201612921565b615f6a611d96565b908115615fa457615f87615f9a92615f9592615fa0950894614551565b615f8f611d96565b90615b9d565b610226565b91610226565b1490565b615b87565b505050600090565b615fdc919250615fd16020615fca81615fd69401612921565b9401612921565b610226565b91610226565b14153880615de6565b505050600090565b61601891925061600d6020616006816160129401612921565b9401612921565b610226565b91610226565b14153880615d54565b505050600090565b61605491925061604960206160428161604e9401612921565b9401612921565b610226565b91610226565b14153880615cc2565b505050600090565b616090919250616085602061607e8161608a9401612921565b9401612921565b610226565b91610226565b14153880615c42565b906160a26139c6565b506160ad6000611fc0565b506160b86000611fc0565b506160c36000611fc0565b506160d060008301612921565b6160ed6160e76160e260008501612921565b610226565b91610226565b146000146161b25761610c6020616105818501612921565b9201612921565b616114611a4b565b9182156161ad570861612f6161296000611fc0565b91610226565b146000146161705750600061616d616164600061615f616156616150612907565b95611fc0565b60008601611146565b611fc0565b60208301611146565b90565b61619f8161618f602061618860006161aa9601612921565b9201612921565b6161996001614c5d565b916172dc565b90915b91909161753b565b90565b615b87565b81616208916161d260206161cb60006161aa9701612921565b9301612921565b9060016161ed60206161e660008501612921565b9301612921565b926162026161fc600193614c5d565b92614c5d565b94616ae1565b90916161a2565b9291616219615ac3565b5061623961622960608401612921565b6162336000612851565b90616917565b616261600084015161625b61625060408701612921565b600089015190616917565b90616099565b61626d60008301612921565b61628a61628461627f60008501612921565b610226565b91610226565b14159182156164f7575b50506164ee5761632f6162b36162ac60608501612921565b8590616917565b916163296020850151916163236162cc60408801612921565b9161631d60208b0151916163176162ff6162ee6162e96001614c5d565b61521c565b926162f96001614c5d565b90614c79565b61631161630c6000611fc0565b61521c565b90616917565b90616099565b90616786565b90616917565b90616099565b61633b60008301612921565b61635861635261634d60008501612921565b610226565b91610226565b14159182156164ba575b50506164b2576164a361649561648f61648160406164a89561641960206163ba9a6163c06164ae9b61639c616397600561561c565b615b03565b9d8e916000906163b46163ae83611fc0565b85614440565b52611fc0565b90614440565b51506163ef8c6163e960008401516001906163e36163dd83614c5d565b85614440565b52614c5d565b90614440565b515001516164138b9160029061640d61640783615200565b85614440565b52615200565b90614440565b515061644960008201516164438b9160039061643d61643783615b2d565b85614440565b52615b2d565b90614440565b515061647960208201516164738b9160049061646d61646783615b4c565b85614440565b52615b4c565b90614440565b515001612921565b616489611d96565b90615b9d565b94614551565b61649d611d96565b90615b9d565b610226565b91610226565b1490565b505050600090565b6164e59192506164da60206164d3816164df9401612921565b9401612921565b610226565b91610226565b14153880616362565b50505050600090565b61652291925061651760206165108161651c9401612921565b9401612921565b610226565b91610226565b14153880616294565b919290616536615ac3565b5061667161665b61664361655261654d600561561c565b615b03565b61657c87616576839160009061657061656a83611fc0565b85614440565b52611fc0565b90614440565b51506165ac60008701516165a683916001906165a061659a83614c5d565b85614440565b52614c5d565b90614440565b51506165dc60208701516165d683916002906165d06165ca83615200565b85614440565b52615200565b90614440565b515061660c600089015161660683916003906166006165fa83615b2d565b85614440565b52615b2d565b90614440565b515061663c6020890151616636839160049061663061662a83615b4c565b85614440565b52615b4c565b90614440565b5150614551565b93600061665260408901612921565b91015190616917565b9161666b60008701519185616917565b90616099565b61667d60008301612921565b61669a61669461668f60008501612921565b610226565b91610226565b1415918215616752575b505061674a576166db6166e19260206166d26166c260408801612921565b6166cc6000612851565b90616917565b95015192616917565b90616099565b6166ed60008301612921565b61670a6167046166ff60008501612921565b610226565b91610226565b149182616717575b505090565b61674291925061673760206167308161673c9401612921565b9401612921565b610226565b91610226565b143880616712565b505050600090565b61677d919250616772602061676b816167779401612921565b9401612921565b610226565b91610226565b141538806166a4565b61679b6167a1926167956139c6565b506175d0565b90616099565b90565b606090565b906167b49101610226565b90565b67ffffffffffffffff81116167d5576167d160209161031c565b0190565b610501565b906167ec6167e7836167b7565b610540565b918252565b369037565b9061681b616803836167da565b9260208061681186936167b7565b92019103906167f1565b565b60016168299103610226565b90565b90565b61684361683e6168489261682c565b610229565b610226565b90565b61685761685d91610226565b91610226565b908115616868570490565b615b87565b6168756167a4565b506168926168828261774f565b61688c6001614c5d565b906167a9565b9061689c826167f6565b916168a56124a5565b5060200182015b600115616910576168bf6168eb9161681d565b916f181899199a1a9b1b9c1cb0b131b232b360811b600a82061a83536168e5600a61682f565b9061684b565b806168ff6168f96000611fc0565b91610226565b1461690a57906168ac565b50505b90565b505061690d565b61695e91616952916169276139c6565b5090616941602061693a60008401612921565b9201612921565b9061694c6001614c5d565b926179b1565b9190919091909161753b565b90565b61696d61697391610226565b91610226565b90811561697e570490565b615b87565b906169a2906169906124a5565b5061699c838290616961565b92615b9d565b6169b56169af6000611fc0565b91610226565b146000146169c1575b90565b6169d5906169cf6001614c5d565b906156bc565b6169be565b67ffffffffffffffff81116169ef5760200290565b610501565b616a00616a05916169da565b610540565b90565b369037565b90616a2b616a1a836169f4565b92616a2584916169da565b90616a08565b565b616a376004616a0d565b90565b50600490565b90616a4a82616a3a565b811015616a58576020020190565b6109f5565b60007f557365206a6163446f75626c652066756e6374696f6e20696e73746561640000910152565b616a92601e602092610ba8565b616a9b81616a5d565b0190565b616ab59060208101906000818303910152616a85565b90565b15616abf57565b616ac7610203565b62461bcd60e51b815280616add60048201616a9f565b0390fd5b929593909195616aef6124a5565b50616af86124a5565b50616b016124a5565b5083616b16616b106000611fc0565b91610226565b14806172a2575b6172945780616b35616b2f6000611fc0565b91610226565b1480617279575b61726d57616b48616a2d565b928788616b53611a4b565b90811561726857616b789209616b7386616b6d6000611fc0565b90616a40565b611146565b87616b95616b9086616b8a6000611fc0565b90616a40565b612921565b616b9d611a4b565b90811561726357616bc29209616bbd86616bb76001614c5d565b90616a40565b611146565b8687616bcc611a4b565b90811561725e57616bf19209616bec86616be66002615200565b90616a40565b611146565b86616c0e616c0986616c036002615200565b90616a40565b612921565b616c16611a4b565b90811561725957616c3b9209616c3686616c306003615b2d565b90616a40565b611146565b616c4560046169f4565b94616c62616c5d86616c576002615200565b90616a40565b612921565b616c6a611a4b565b90811561725457616c7f920960008701611146565b616c9b616c9685616c906003615b2d565b90616a40565b612921565b616ca3611a4b565b90811561724f57616cb8920960208601611146565b90616cd5616cd084616cca6000611fc0565b90616a40565b612921565b90616cde611a4b565b92831561724a57616d1193616d0c93616cfb920960408701611146565b92616d066001614c5d565b90616a40565b612921565b616d19611a4b565b90811561724557616d2e920960608301611146565b92616d4b616d4685616d406000611fc0565b90616a40565b612921565b616d78616d72616d6d616d6888616d626002615200565b90616a40565b612921565b610226565b91610226565b141580156171ef575b616d8a90616ab8565b616d92616a2d565b92616daf616daa86616da46002615200565b90616a40565b612921565b616ddc616dba611a4b565b616dd6616dd189616dcb6000611fc0565b90616a40565b612921565b90614c79565b616de4611a4b565b9081156171ea57616e099208616e0486616dfe6000611fc0565b90616a40565b611146565b616e25616e2086616e1a6003615b2d565b90616a40565b612921565b616e52616e30611a4b565b616e4c616e4789616e416001614c5d565b90616a40565b612921565b90614c79565b616e5a611a4b565b9081156171e557616e7f9208616e7a86616e746001614c5d565b90616a40565b611146565b616e9b616e9685616e906000611fc0565b90616a40565b612921565b616eb7616eb286616eac6000611fc0565b90616a40565b612921565b616ebf611a4b565b9081156171e057616ee49209616edf86616ed96002615200565b90616a40565b611146565b616f00616efb85616ef56002615200565b90616a40565b612921565b616f1c616f1786616f116000611fc0565b90616a40565b612921565b616f24611a4b565b9081156171db57616f499209616f4486616f3e6003615b2d565b90616a40565b611146565b616f65616f6085616f5a6001614c5d565b90616a40565b612921565b616f81616f7c86616f766001614c5d565b90616a40565b612921565b616f89611a4b565b9182156171d65709616fbe616f9c611a4b565b616fb8616fb388616fad6003615b2d565b90616a40565b612921565b90614c79565b616fc6611a4b565b9182156171d15708616fd6611a4b565b600290616ff5616ff089616fea6000611fc0565b90616a40565b612921565b61701161700c896170066002615200565b90616a40565b612921565b617019611a4b565b9182156171cc5709617029611a4b565b9081156171c75761703c61704394615200565b0990614c79565b61704b611a4b565b9182156171c257089461707061706b866170656001614c5d565b90616a40565b612921565b61708c617087836170816000611fc0565b90616a40565b612921565b6170a86170a38861709d6002615200565b90616a40565b612921565b6170b0611a4b565b9182156171bd57096170ca6170c3611a4b565b8990614c79565b6170d2611a4b565b9182156171b857086170e2611a4b565b9182156171b357099061710f61710a6170f9611a4b565b926171046001614c5d565b90616a40565b612921565b9061712c617127886171216003615b2d565b90616a40565b612921565b617134611a4b565b9081156171ae57617146930990614c79565b9061714f611a4b565b80156171a9576171749261716f9208956171696000611fc0565b90616a40565b612921565b919061717e611a4b565b9182156171a4570961718e611a4b565b91821561719f570992919291929190565b615b87565b615b87565b615b87565b615b87565b615b87565b615b87565b615b87565b615b87565b615b87565b615b87565b615b87565b615b87565b615b87565b615b87565b615b87565b615b87565b50616d8a61720f61720a866172046001614c5d565b90616a40565b612921565b61723c61723661723161722c896172266003615b2d565b90616a40565b612921565b610226565b91610226565b14159050616d81565b615b87565b615b87565b615b87565b615b87565b615b87565b615b87565b615b87565b615b87565b50509250919291929190565b508161728e6172886000611fc0565b91610226565b14616b3c565b925093945050919291929190565b50826172b76172b16000611fc0565b91610226565b14616b1d565b90565b6172d46172cf6172d9926172bd565b610229565b610226565b90565b92906172e66124a5565b506172ef6124a5565b506172f86124a5565b508261730d6173076000611fc0565b91610226565b1461753157838461731c611a4b565b91821561752c570993818261732f611a4b565b9182156175275709908485617342611a4b565b91821561752257099060049083617357611a4b565b91821561751d5709617367611a4b565b9182156175185761737790615b4c565b0995600390617384611a4b565b9182156175135761739490615b2d565b099061739e611fdc565b90806173a8611a4b565b91821561750e57096173b8611a4b565b91821561750957096173c8611a4b565b91821561750457089485866173db611a4b565b9182156174ff57096173eb611a4b565b8290836173f6611a4b565b9081156174fa57617408930890614c79565b617410611a4b565b9182156174f55708959061742c617425611a4b565b8890614c79565b617434611a4b565b9182156174f05708617444611a4b565b9182156174eb570990617455611a4b565b60089180617461611a4b565b9182156174e65709617471611a4b565b9081156174e15761748461748b946172c0565b0990614c79565b617493611a4b565b9182156174dc570892600291906174a8611a4b565b9182156174d757096174b8611a4b565b9182156174d2576174c890615200565b0992919291929190565b615b87565b615b87565b615b87565b615b87565b615b87565b615b87565b615b87565b615b87565b615b87565b615b87565b615b87565b615b87565b615b87565b615b87565b615b87565b615b87565b615b87565b615b87565b615b87565b9192919291929190565b909161754f906175496139c6565b50617b46565b90818261755a611a4b565b9182156175cb5709908161756c611a4b565b9182156175c6570992919061757f611a4b565b9182156175c1570961758f611a4b565b9081156175bc576175b992096175b06175a6612907565b9360008501611146565b60208301611146565b90565b615b87565b615b87565b615b87565b615b87565b6175d86139c6565b506176356176176176096175ee60008501612921565b9361760360206175fc611a4b565b9201612921565b90614c79565b617611611a4b565b90615b9d565b61762c617622612907565b9360008501611146565b60208301611146565b90565b90565b61764f61764a61765492617638565b610229565b610226565b90565b90565b61766e61766961767392617657565b610229565b610226565b90565b90565b61768d61768861769292617676565b610229565b610226565b90565b90565b6176ac6176a76176b192617695565b610229565b610226565b90565b90565b6176cb6176c66176d0926176b4565b610229565b610226565b90565b90565b6176ea6176e56176ef926176d3565b610229565b610226565b90565b90565b61770961770461770e926176f2565b610229565b610226565b90565b90565b61772861772361772d92617711565b610229565b610226565b90565b90565b61774761774261774c92617730565b610229565b610226565b90565b6177576124a5565b506177626000611fc0565b908061779161778b7a184f03e93ff9f4daa797ed6e38ed64bf6a1f01000000000000000061763b565b91610226565b1015617969575b806177b96177b36d04ee2d6d415b85acef8100000000617679565b91610226565b101561792e575b806177da6177d4662386f26fc100006176b7565b91610226565b10156178fa575b806177f86177f26305f5e1006176f5565b91610226565b10156178c9575b8061781461780e612710617714565b91610226565b101561789a575b8061782f6178296064617733565b91610226565b101561786c575b617849617843600a61682f565b91610226565b1015617853575b90565b617867906178616001614c5d565b906167a9565b617850565b6178836178949161787d6064617733565b9061684b565b9161788e6002615200565b906167a9565b90617836565b6178b26178c3916178ac612710617714565b9061684b565b916178bd6004615b4c565b906167a9565b9061781b565b6178e36178f4916178dd6305f5e1006176f5565b9061684b565b916178ee60086172c0565b906167a9565b906177ff565b61791761792891617911662386f26fc100006176b7565b9061684b565b9161792260106176d6565b906167a9565b906177e1565b6179526179639161794c6d04ee2d6d415b85acef8100000000617679565b9061684b565b9161795d6020617698565b906167a9565b906177c0565b61799a6179ab916179947a184f03e93ff9f4daa797ed6e38ed64bf6a1f01000000000000000061763b565b9061684b565b916179a5604061765a565b906167a9565b90617798565b9291926179bc6124a5565b506179c56124a5565b506179ce6124a5565b50806179e36179dd6000611fc0565b91610226565b14617ab65793906179f46000611fc0565b936179ff6000611fc0565b93617a0a6001614c5d565b965b80617a20617a1a6000611fc0565b91610226565b14617aaa5780617a306001614c5d565b16617a44617a3e6000611fc0565b91610226565b03617a7e575b90617a63617a6c9392617a5d6002615200565b90616961565b939190916172dc565b95919594909592959195949094617a0c565b95617a6395617a6c939298617a9a929190869085928c94616ae1565b9891969096979192935050617a4a565b50505050909291929190565b50929092919291929190565b60007f496e76616c6964206e756d626572000000000000000000000000000000000000910152565b617af7600e602092610ba8565b617b0081617ac2565b0190565b617b1a9060208101906000818303910152617aea565b90565b15617b2457565b617b2c610203565b62461bcd60e51b815280617b4260048201617b04565b0390fd5b617b4e6124a5565b5080617b63617b5d6000611fc0565b91610226565b141580617c55575b80617c2d575b617b7a90617b1d565b617b846000611fc0565b617b8e6001614c5d565b90617b97611a4b565b91617ba06124a5565b505b83617bb6617bb06000611fc0565b91610226565b14617c2657617bc6838590616961565b819291617bd1611a4b565b8291617bdb611a4b565b908115617c2157617bed930990614c79565b91617bf6611a4b565b8015617c1c57617c1593617c0f92089395809592612c28565b90614c79565b9290617ba2565b615b87565b615b87565b5091505090565b50617b7a617c39611a4b565b617c4c617c466000611fc0565b91610226565b14159050617b71565b5080617c70617c6a617c65611a4b565b610226565b91610226565b1415617b6b56fea264697066735822122097bef122001314e3986bdf5a7063c1d58178ab3b493becef28a31da62129b46364736f6c634300081c0033",
  "linkReferences": {},
  "deployedLinkReferences": {}
}