{
  "_format": "hh-sol-artifact-1",
  "contractName": "Election",
  "sourceName": "contracts/Election.sol",
  "abi": [
    {
      "inputs": [
        {
          "components": [
            {
              "components": [
                {
                  "internalType": "uint256",
                  "name": "x",
                  "type": "uint256"
                },
                {
                  "internalType": "uint256",
                  "name": "y",
                  "type": "uint256"
                }
              ],
              "internalType": "struct Ecc.EcPoint",
              "name": "publicKey",
              "type": "tuple"
            },
            {
              "components": [
                {
                  "internalType": "uint256",
                  "name": "c",
                  "type": "uint256"
                },
                {
                  "internalType": "uint256",
                  "name": "d",
                  "type": "uint256"
                }
              ],
              "internalType": "struct Zkp.KeyOwnershipProof",
              "name": "proof",
              "type": "tuple"
            }
          ],
          "internalType": "struct Election.Authority[]",
          "name": "_authorities",
          "type": "tuple[]"
        },
        {
          "internalType": "string[]",
          "name": "_candidates",
          "type": "string[]"
        }
      ],
      "stateMutability": "nonpayable",
      "type": "constructor"
    },
    {
      "inputs": [],
      "name": "A",
      "outputs": [
        {
          "internalType": "uint256",
          "name": "",
          "type": "uint256"
        }
      ],
      "stateMutability": "view",
      "type": "function"
    },
    {
      "inputs": [],
      "name": "B",
      "outputs": [
        {
          "internalType": "uint256",
          "name": "",
          "type": "uint256"
        }
      ],
      "stateMutability": "view",
      "type": "function"
    },
    {
      "inputs": [],
      "name": "GX",
      "outputs": [
        {
          "internalType": "uint256",
          "name": "",
          "type": "uint256"
        }
      ],
      "stateMutability": "view",
      "type": "function"
    },
    {
      "inputs": [],
      "name": "GY",
      "outputs": [
        {
          "internalType": "uint256",
          "name": "",
          "type": "uint256"
        }
      ],
      "stateMutability": "view",
      "type": "function"
    },
    {
      "inputs": [],
      "name": "N",
      "outputs": [
        {
          "internalType": "uint256",
          "name": "",
          "type": "uint256"
        }
      ],
      "stateMutability": "view",
      "type": "function"
    },
    {
      "inputs": [],
      "name": "P",
      "outputs": [
        {
          "internalType": "uint256",
          "name": "",
          "type": "uint256"
        }
      ],
      "stateMutability": "view",
      "type": "function"
    },
    {
      "inputs": [
        {
          "internalType": "uint256",
          "name": "",
          "type": "uint256"
        }
      ],
      "name": "authorities",
      "outputs": [
        {
          "components": [
            {
              "internalType": "uint256",
              "name": "x",
              "type": "uint256"
            },
            {
              "internalType": "uint256",
              "name": "y",
              "type": "uint256"
            }
          ],
          "internalType": "struct Ecc.EcPoint",
          "name": "publicKey",
          "type": "tuple"
        },
        {
          "components": [
            {
              "internalType": "uint256",
              "name": "c",
              "type": "uint256"
            },
            {
              "internalType": "uint256",
              "name": "d",
              "type": "uint256"
            }
          ],
          "internalType": "struct Zkp.KeyOwnershipProof",
          "name": "proof",
          "type": "tuple"
        }
      ],
      "stateMutability": "view",
      "type": "function"
    },
    {
      "inputs": [
        {
          "internalType": "uint256",
          "name": "",
          "type": "uint256"
        }
      ],
      "name": "candidates",
      "outputs": [
        {
          "internalType": "string",
          "name": "",
          "type": "string"
        }
      ],
      "stateMutability": "view",
      "type": "function"
    },
    {
      "inputs": [],
      "name": "electionPublicKey",
      "outputs": [
        {
          "internalType": "uint256",
          "name": "x",
          "type": "uint256"
        },
        {
          "internalType": "uint256",
          "name": "y",
          "type": "uint256"
        }
      ],
      "stateMutability": "view",
      "type": "function"
    },
    {
      "inputs": [],
      "name": "getAuthorities",
      "outputs": [
        {
          "components": [
            {
              "components": [
                {
                  "internalType": "uint256",
                  "name": "x",
                  "type": "uint256"
                },
                {
                  "internalType": "uint256",
                  "name": "y",
                  "type": "uint256"
                }
              ],
              "internalType": "struct Ecc.EcPoint",
              "name": "publicKey",
              "type": "tuple"
            },
            {
              "components": [
                {
                  "internalType": "uint256",
                  "name": "c",
                  "type": "uint256"
                },
                {
                  "internalType": "uint256",
                  "name": "d",
                  "type": "uint256"
                }
              ],
              "internalType": "struct Zkp.KeyOwnershipProof",
              "name": "proof",
              "type": "tuple"
            }
          ],
          "internalType": "struct Election.Authority[]",
          "name": "",
          "type": "tuple[]"
        }
      ],
      "stateMutability": "view",
      "type": "function"
    },
    {
      "inputs": [],
      "name": "getCandidates",
      "outputs": [
        {
          "internalType": "string[]",
          "name": "",
          "type": "string[]"
        }
      ],
      "stateMutability": "view",
      "type": "function"
    },
    {
      "inputs": [],
      "name": "getECCParams",
      "outputs": [
        {
          "components": [
            {
              "internalType": "uint256",
              "name": "gx",
              "type": "uint256"
            },
            {
              "internalType": "uint256",
              "name": "gy",
              "type": "uint256"
            },
            {
              "internalType": "uint256",
              "name": "a",
              "type": "uint256"
            },
            {
              "internalType": "uint256",
              "name": "b",
              "type": "uint256"
            },
            {
              "internalType": "uint256",
              "name": "p",
              "type": "uint256"
            },
            {
              "internalType": "uint256",
              "name": "n",
              "type": "uint256"
            }
          ],
          "internalType": "struct Ecc.EccParams",
          "name": "",
          "type": "tuple"
        }
      ],
      "stateMutability": "pure",
      "type": "function"
    },
    {
      "inputs": [
        {
          "components": [
            {
              "internalType": "uint256",
              "name": "x",
              "type": "uint256"
            },
            {
              "internalType": "uint256",
              "name": "y",
              "type": "uint256"
            }
          ],
          "internalType": "struct Ecc.EcPoint[]",
          "name": "points",
          "type": "tuple[]"
        }
      ],
      "name": "hashMultiplePointsToScalar",
      "outputs": [
        {
          "internalType": "uint256",
          "name": "",
          "type": "uint256"
        }
      ],
      "stateMutability": "pure",
      "type": "function"
    },
    {
      "inputs": [
        {
          "internalType": "uint256",
          "name": "x",
          "type": "uint256"
        },
        {
          "internalType": "uint256",
          "name": "y",
          "type": "uint256"
        }
      ],
      "name": "newEcPoint",
      "outputs": [
        {
          "components": [
            {
              "internalType": "uint256",
              "name": "x",
              "type": "uint256"
            },
            {
              "internalType": "uint256",
              "name": "y",
              "type": "uint256"
            }
          ],
          "internalType": "struct Ecc.EcPoint",
          "name": "",
          "type": "tuple"
        }
      ],
      "stateMutability": "pure",
      "type": "function"
    },
    {
      "inputs": [],
      "name": "status",
      "outputs": [
        {
          "internalType": "enum Election.ElectionStatus",
          "name": "",
          "type": "uint8"
        }
      ],
      "stateMutability": "view",
      "type": "function"
    }
  ],
  "bytecode": "0x60806040526000600160006101000a81548160ff0219169083600381111561002a57610029612022565b5b021790555034801561003b57600080fd5b506040516159ae3803806159ae833981810160405281019061005d919061249a565b6000600381111561007157610070612022565b5b600160009054906101000a900460ff16600381111561009357610092612022565b5b146100d3576040517f08c379a00000000000000000000000000000000000000000000000000000000081526004016100ca9061256f565b60405180910390fd5b6001815111610117576040517f08c379a000000000000000000000000000000000000000000000000000000000815260040161010e90612601565b60405180910390fd5b600082511161015b576040517f08c379a000000000000000000000000000000000000000000000000000000000815260040161015290612693565b60405180910390fd5b60005b825181101561034957600060018261017691906126e2565b90505b835181101561033b5783818151811061019557610194612716565b5b602002602001015160000151600001518483815181106101b8576101b7612716565b5b6020026020010151600001516000015114158061021957508381815181106101e3576101e2612716565b5b6020026020010151600001516020015184838151811061020657610205612716565b5b6020026020010151600001516020015114155b610258576040517f08c379a000000000000000000000000000000000000000000000000000000000815260040161024f90612791565b60405180910390fd5b83818151811061026b5761026a612716565b5b6020026020010151602001516000015184838151811061028e5761028d612716565b5b602002602001015160200151600001511415806102ef57508381815181106102b9576102b8612716565b5b602002602001015160200151602001518483815181106102dc576102db612716565b5b6020026020010151602001516020015114155b61032e576040517f08c379a0000000000000000000000000000000000000000000000000000000008152600401610325906127fd565b60405180910390fd5b8080600101915050610179565b50808060010191505061015e565b5060005b825181101561050957600083828151811061036b5761036a612716565b5b60200260200101516000015160000151141580156103ac5750600083828151811061039957610398612716565b5b6020026020010151600001516020015114155b6103eb576040517f08c379a00000000000000000000000000000000000000000000000000000000081526004016103e290612869565b60405180910390fd5b61043783828151811061040157610400612716565b5b6020026020010151600001518483815181106104205761041f612716565b5b60200260200101516020015161063f60201b60201c565b610476576040517f08c379a000000000000000000000000000000000000000000000000000000000815260040161046d906128d5565b60405180910390fd5b600283828151811061048b5761048a612716565b5b6020026020010151908060018154018082558091505060019003906000526020600020906004020160009091909190915060008201518160000160008201518160000155602082015181600101555050602082015181600201600082015181600001556020820151816001015550505050808060010191505061034d565b50600260008154811061051f5761051e612716565b5b9060005260206000209060040201600001600360008201548160000155600182015481600101559050506000600190505b6002805490508110156105f6576105d06003604051806040016040529081600082015481526020016001820154815250506002838154811061059557610594612716565b5b90600052602060002090600402016000016040518060400160405290816000820154815260200160018201548152505061078860201b60201c565b600360008201518160000155602082015181600101559050508080600101915050610550565b50806000908051906020019061060d929190611f0c565b5060018060006101000a81548160ff0219169083600381111561063357610632612022565b5b02179055505050612fa1565b60008061069783602001517f79be667ef9dcbbac55a06295ce870b07029bfcdb2dce28d959f2815b16f817987f483ada7726a3c4655da4fbfc0e1108a8fd17b448a68554199c47d08ffb10d4b861088160201b60201c565b905060006106b884600001518660000151876020015161088160201b60201c565b905060006106cc83836108c460201b60201c565b90506000600267ffffffffffffffff8111156106eb576106ea61207b565b5b60405190808252806020026020018201604052801561072457816020015b610711611f65565b8152602001906001900390816107095790505b509050868160008151811061073c5761073b612716565b5b6020026020010181905250818160018151811061075c5761075b612716565b5b6020026020010181905250610776816108f860201b60201c565b86600001511494505050505092915050565b610790611f65565b600080600084600001518660000151036108315760007ffffffffffffffffffffffffffffffffffffffffffffffffffffffffefffffc2f806107d5576107d46128f5565b5b866020015188602001510803610806576040518060400160405280600081526020016000815250935050505061087b565b610820866000015187602001516001610a4760201b60201c565b809350819450829550505050610864565b610857866000015187602001516001886000015189602001516001610ec460201b60201c565b8093508194508295505050505b61087583838361190260201b60201c565b93505050505b92915050565b610889611f65565b60008060006108a18787876001611a1260201b60201c565b9250925092506108b883838361190260201b60201c565b93505050509392505050565b6108cc611f65565b60006108dd83611ab860201b60201c565b90506108ef848261078860201b60201c565b91505092915050565b60008082511161093d576040517f08c379a000000000000000000000000000000000000000000000000000000000815260040161093490612970565b60405180910390fd5b60008260008151811061095357610952612716565b5b602002602001015190506000600190505b83518110156109a6576109978285838151811061098457610983612716565b5b602002602001015161078860201b60201c565b91508080600101915050610964565b5060026109bc8260000151611b3a60201b60201c565b6109cf8360200151611b3a60201b60201c565b6040516020016109e0929190612a23565b6040516020818303038152906040526040516109fc9190612a99565b602060405180830381855afa158015610a19573d6000803e3d6000fd5b5050506040513d601f19601f82011682018060405250810190610a3c9190612ae6565b60001c915050919050565b6000806000808403610a6157858585925092509250610ebb565b60007ffffffffffffffffffffffffffffffffffffffffffffffffffffffffefffffc2f80610a9257610a916128f5565b5b878809905060007ffffffffffffffffffffffffffffffffffffffffffffffffffffffffefffffc2f80610ac857610ac76128f5565b5b878809905060007ffffffffffffffffffffffffffffffffffffffffffffffffffffffffefffffc2f80610afe57610afd6128f5565b5b878809905060007ffffffffffffffffffffffffffffffffffffffffffffffffffffffffefffffc2f80610b3457610b336128f5565b5b7ffffffffffffffffffffffffffffffffffffffffffffffffffffffffefffffc2f80610b6357610b626128f5565b5b848c09600409905060007ffffffffffffffffffffffffffffffffffffffffffffffffffffffffefffffc2f80610b9c57610b9b6128f5565b5b7ffffffffffffffffffffffffffffffffffffffffffffffffffffffffefffffc2f80610bcb57610bca6128f5565b5b7ffffffffffffffffffffffffffffffffffffffffffffffffffffffffefffffc2f80610bfa57610bf96128f5565b5b8586096000097ffffffffffffffffffffffffffffffffffffffffffffffffffffffffefffffc2f80610c2f57610c2e6128f5565b5b876003090890507ffffffffffffffffffffffffffffffffffffffffffffffffffffffffefffffc2f80610c6557610c646128f5565b5b7ffffffffffffffffffffffffffffffffffffffffffffffffffffffffefffffc2f80610c9457610c936128f5565b5b8384087ffffffffffffffffffffffffffffffffffffffffffffffffffffffffefffffc2f610cc29190612b13565b7ffffffffffffffffffffffffffffffffffffffffffffffffffffffffefffffc2f80610cf157610cf06128f5565b5b8384090894507ffffffffffffffffffffffffffffffffffffffffffffffffffffffffefffffc2f80610d2657610d256128f5565b5b7ffffffffffffffffffffffffffffffffffffffffffffffffffffffffefffffc2f80610d5557610d546128f5565b5b7ffffffffffffffffffffffffffffffffffffffffffffffffffffffffefffffc2f80610d8457610d836128f5565b5b8687096008097ffffffffffffffffffffffffffffffffffffffffffffffffffffffffefffffc2f610db59190612b13565b7ffffffffffffffffffffffffffffffffffffffffffffffffffffffffefffffc2f80610de457610de36128f5565b5b7ffffffffffffffffffffffffffffffffffffffffffffffffffffffffefffffc2f80610e1357610e126128f5565b5b887ffffffffffffffffffffffffffffffffffffffffffffffffffffffffefffffc2f610e3f9190612b13565b860884090893507ffffffffffffffffffffffffffffffffffffffffffffffffffffffffefffffc2f80610e7557610e746128f5565b5b7ffffffffffffffffffffffffffffffffffffffffffffffffffffffffefffffc2f80610ea457610ea36128f5565b5b8a8c09600209925084848497509750975050505050505b93509350939050565b60008060008089148015610ed85750600088145b15610eeb578585859250925092506118f6565b600086148015610efb5750600085145b15610f0e578888889250925092506118f6565b610f16611f7f565b7ffffffffffffffffffffffffffffffffffffffffffffffffffffffffefffffc2f80610f4557610f446128f5565b5b88890981600060048110610f5c57610f5b612716565b5b6020020181815250507ffffffffffffffffffffffffffffffffffffffffffffffffffffffffefffffc2f80610f9457610f936128f5565b5b81600060048110610fa857610fa7612716565b5b6020020151890981600160048110610fc357610fc2612716565b5b6020020181815250507ffffffffffffffffffffffffffffffffffffffffffffffffffffffffefffffc2f80610ffb57610ffa6128f5565b5b8586098160026004811061101257611011612716565b5b6020020181815250507ffffffffffffffffffffffffffffffffffffffffffffffffffffffffefffffc2f8061104a576110496128f5565b5b8160026004811061105e5761105d612716565b5b602002015186098160036004811061107957611078612716565b5b60200201818152505060405180608001604052807ffffffffffffffffffffffffffffffffffffffffffffffffffffffffefffffc2f806110bc576110bb6128f5565b5b836002600481106110d0576110cf612716565b5b60200201518d0981526020017ffffffffffffffffffffffffffffffffffffffffffffffffffffffffefffffc2f8061110b5761110a6128f5565b5b8360036004811061111f5761111e612716565b5b60200201518c0981526020017ffffffffffffffffffffffffffffffffffffffffffffffffffffffffefffffc2f8061115a576111596128f5565b5b8360006004811061116e5761116d612716565b5b60200201518a0981526020017ffffffffffffffffffffffffffffffffffffffffffffffffffffffffefffffc2f806111a9576111a86128f5565b5b836001600481106111bd576111bc612716565b5b602002015189098152509050806002600481106111dd576111dc612716565b5b6020020151816000600481106111f6576111f5612716565b5b602002015114158061123857508060036004811061121757611216612716565b5b6020020151816001600481106112305761122f612716565b5b602002015114155b611277576040517f08c379a000000000000000000000000000000000000000000000000000000000815260040161126e90612b93565b60405180910390fd5b61127f611f7f565b7ffffffffffffffffffffffffffffffffffffffffffffffffffffffffefffffc2f806112ae576112ad6128f5565b5b826000600481106112c2576112c1612716565b5b60200201517ffffffffffffffffffffffffffffffffffffffffffffffffffffffffefffffc2f6112f29190612b13565b8360026004811061130657611305612716565b5b602002015108816000600481106113205761131f612716565b5b6020020181815250507ffffffffffffffffffffffffffffffffffffffffffffffffffffffffefffffc2f80611358576113576128f5565b5b8260016004811061136c5761136b612716565b5b60200201517ffffffffffffffffffffffffffffffffffffffffffffffffffffffffefffffc2f61139c9190612b13565b836003600481106113b0576113af612716565b5b602002015108816001600481106113ca576113c9612716565b5b6020020181815250507ffffffffffffffffffffffffffffffffffffffffffffffffffffffffefffffc2f80611402576114016128f5565b5b8160006004811061141657611415612716565b5b60200201518260006004811061142f5761142e612716565b5b6020020151098160026004811061144957611448612716565b5b6020020181815250507ffffffffffffffffffffffffffffffffffffffffffffffffffffffffefffffc2f80611481576114806128f5565b5b8160006004811061149557611494612716565b5b6020020151826002600481106114ae576114ad612716565b5b602002015109816003600481106114c8576114c7612716565b5b60200201818152505060007ffffffffffffffffffffffffffffffffffffffffffffffffffffffffefffffc2f80611502576115016128f5565b5b8260036004811061151657611515612716565b5b60200201517ffffffffffffffffffffffffffffffffffffffffffffffffffffffffefffffc2f6115469190612b13565b7ffffffffffffffffffffffffffffffffffffffffffffffffffffffffefffffc2f80611575576115746128f5565b5b8460016004811061158957611588612716565b5b6020020151856001600481106115a2576115a1612716565b5b6020020151090890507ffffffffffffffffffffffffffffffffffffffffffffffffffffffffefffffc2f806115da576115d96128f5565b5b7ffffffffffffffffffffffffffffffffffffffffffffffffffffffffefffffc2f80611609576116086128f5565b5b7ffffffffffffffffffffffffffffffffffffffffffffffffffffffffefffffc2f80611638576116376128f5565b5b8460026004811061164c5761164b612716565b5b60200201518660006004811061166557611664612716565b5b6020020151096002097ffffffffffffffffffffffffffffffffffffffffffffffffffffffffefffffc2f6116999190612b13565b8208905060007ffffffffffffffffffffffffffffffffffffffffffffffffffffffffefffffc2f806116ce576116cd6128f5565b5b7ffffffffffffffffffffffffffffffffffffffffffffffffffffffffefffffc2f806116fd576116fc6128f5565b5b837ffffffffffffffffffffffffffffffffffffffffffffffffffffffffefffffc2f6117299190612b13565b7ffffffffffffffffffffffffffffffffffffffffffffffffffffffffefffffc2f80611758576117576128f5565b5b8660026004811061176c5761176b612716565b5b60200201518860006004811061178557611784612716565b5b60200201510908846001600481106117a05761179f612716565b5b60200201510990507ffffffffffffffffffffffffffffffffffffffffffffffffffffffffefffffc2f806117d7576117d66128f5565b5b7ffffffffffffffffffffffffffffffffffffffffffffffffffffffffefffffc2f80611806576118056128f5565b5b8460036004811061181a57611819612716565b5b60200201518660016004811061183357611832612716565b5b6020020151097ffffffffffffffffffffffffffffffffffffffffffffffffffffffffefffffc2f6118649190612b13565b8208905060007ffffffffffffffffffffffffffffffffffffffffffffffffffffffffefffffc2f80611899576118986128f5565b5b7ffffffffffffffffffffffffffffffffffffffffffffffffffffffffefffffc2f806118c8576118c76128f5565b5b8a8e09856000600481106118df576118de612716565b5b602002015109905082828297509750975050505050505b96509650969350505050565b61190a611f65565b600061191b83611c0e60201b60201c565b905060007ffffffffffffffffffffffffffffffffffffffffffffffffffffffffefffffc2f8061194e5761194d6128f5565b5b828309905060007ffffffffffffffffffffffffffffffffffffffffffffffffffffffffefffffc2f80611984576119836128f5565b5b828809905060007ffffffffffffffffffffffffffffffffffffffffffffffffffffffffefffffc2f806119ba576119b96128f5565b5b7ffffffffffffffffffffffffffffffffffffffffffffffffffffffffefffffc2f806119e9576119e86128f5565b5b848609880990506040518060400160405280838152602001828152509450505050509392505050565b6000806000808703611a2c57858585925092509250611aae565b60008790506000806000600190505b60008414611aa05760006001851614611a6f57611a628383838d8d8d610ec460201b60201c565b8093508194508295505050505b600284611a7c9190612bb3565b9350611a8f8a8a8a610a4760201b60201c565b809a50819b50829c50505050611a3b565b828282965096509650505050505b9450945094915050565b611ac0611f65565b6040518060400160405280836000015181526020017ffffffffffffffffffffffffffffffffffffffffffffffffffffffffefffffc2f84602001517ffffffffffffffffffffffffffffffffffffffffffffffffffffffffefffffc2f611b269190612b13565b611b309190612be4565b8152509050919050565b606060006001611b4f84611db960201b60201c565b01905060008167ffffffffffffffff811115611b6e57611b6d61207b565b5b6040519080825280601f01601f191660200182016040528015611ba05781602001600182028036833780820191505090505b509050600082602001820190505b600115611c03578080600190039150507f3031323334353637383961626364656600000000000000000000000000000000600a86061a8153600a8581611bf757611bf66128f5565b5b04945060008503611bae575b819350505050919050565b6000808214158015611c4057507ffffffffffffffffffffffffffffffffffffffffffffffffffffffffefffffc2f8214155b8015611c6d575060007ffffffffffffffffffffffffffffffffffffffffffffffffffffffffefffffc2f14155b611cac576040517f08c379a0000000000000000000000000000000000000000000000000000000008152600401611ca390612c61565b60405180910390fd5b6000806001905060007ffffffffffffffffffffffffffffffffffffffffffffffffffffffffefffffc2f905060005b60008614611dad578582611cef9190612bb3565b9050827ffffffffffffffffffffffffffffffffffffffffffffffffffffffffefffffc2f80611d2157611d206128f5565b5b7ffffffffffffffffffffffffffffffffffffffffffffffffffffffffefffffc2f80611d5057611d4f6128f5565b5b8584097ffffffffffffffffffffffffffffffffffffffffffffffffffffffffefffffc2f611d7e9190612b13565b86088094508195505050858682611d959190612c81565b83611da09190612b13565b8097508193505050611cdb565b83945050505050919050565b600080600090507a184f03e93ff9f4daa797ed6e38ed64bf6a1f0100000000000000008310611e17577a184f03e93ff9f4daa797ed6e38ed64bf6a1f0100000000000000008381611e0d57611e0c6128f5565b5b0492506040810190505b6d04ee2d6d415b85acef81000000008310611e54576d04ee2d6d415b85acef81000000008381611e4a57611e496128f5565b5b0492506020810190505b662386f26fc100008310611e8357662386f26fc100008381611e7957611e786128f5565b5b0492506010810190505b6305f5e1008310611eac576305f5e1008381611ea257611ea16128f5565b5b0492506008810190505b6127108310611ed1576127108381611ec757611ec66128f5565b5b0492506004810190505b60648310611ef45760648381611eea57611ee96128f5565b5b0492506002810190505b600a8310611f03576001810190505b80915050919050565b828054828255906000526020600020908101928215611f54579160200282015b82811115611f53578251829081611f439190612ecf565b5091602001919060010190611f2c565b5b509050611f619190611fa1565b5090565b604051806040016040528060008152602001600081525090565b6040518060800160405280600490602082028036833780820191505090505090565b5b80821115611fc15760008181611fb89190611fc5565b50600101611fa2565b5090565b508054611fd190612cf2565b6000825580601f10611fe35750612002565b601f0160209004906000526020600020908101906120019190612005565b5b50565b5b8082111561201e576000816000905550600101612006565b5090565b7f4e487b7100000000000000000000000000000000000000000000000000000000600052602160045260246000fd5b6000604051905090565b600080fd5b600080fd5b600080fd5b6000601f19601f8301169050919050565b7f4e487b7100000000000000000000000000000000000000000000000000000000600052604160045260246000fd5b6120b38261206a565b810181811067ffffffffffffffff821117156120d2576120d161207b565b5b80604052505050565b60006120e5612051565b90506120f182826120aa565b919050565b600067ffffffffffffffff8211156121115761211061207b565b5b602082029050602081019050919050565b600080fd5b600080fd5b6000819050919050565b61213f8161212c565b811461214a57600080fd5b50565b60008151905061215c81612136565b92915050565b60006040828403121561217857612177612127565b5b61218260406120db565b905060006121928482850161214d565b60008301525060206121a68482850161214d565b60208301525092915050565b6000604082840312156121c8576121c7612127565b5b6121d260406120db565b905060006121e28482850161214d565b60008301525060206121f68482850161214d565b60208301525092915050565b60006080828403121561221857612217612127565b5b61222260406120db565b9050600061223284828501612162565b6000830152506040612246848285016121b2565b60208301525092915050565b6000612265612260846120f6565b6120db565b9050808382526020820190506080840283018581111561228857612287612122565b5b835b818110156122b1578061229d8882612202565b84526020840193505060808101905061228a565b5050509392505050565b600082601f8301126122d0576122cf612065565b5b81516122e0848260208601612252565b91505092915050565b600067ffffffffffffffff8211156123045761230361207b565b5b602082029050602081019050919050565b600080fd5b600067ffffffffffffffff8211156123355761233461207b565b5b61233e8261206a565b9050602081019050919050565b60005b8381101561236957808201518184015260208101905061234e565b60008484015250505050565b60006123886123838461231a565b6120db565b9050828152602081018484840111156123a4576123a3612315565b5b6123af84828561234b565b509392505050565b600082601f8301126123cc576123cb612065565b5b81516123dc848260208601612375565b91505092915050565b60006123f86123f3846122e9565b6120db565b9050808382526020820190506020840283018581111561241b5761241a612122565b5b835b8181101561246257805167ffffffffffffffff8111156124405761243f612065565b5b80860161244d89826123b7565b8552602085019450505060208101905061241d565b5050509392505050565b600082601f83011261248157612480612065565b5b81516124918482602086016123e5565b91505092915050565b600080604083850312156124b1576124b061205b565b5b600083015167ffffffffffffffff8111156124cf576124ce612060565b5b6124db858286016122bb565b925050602083015167ffffffffffffffff8111156124fc576124fb612060565b5b6125088582860161246c565b9150509250929050565b600082825260208201905092915050565b7f456c656374696f6e20616c726561647920737461727465640000000000000000600082015250565b6000612559601883612512565b915061256482612523565b602082019050919050565b600060208201905081810360008301526125888161254c565b9050919050565b7f4174206c656173742074776f2063616e6469646174657320617265207265717560008201527f6972656400000000000000000000000000000000000000000000000000000000602082015250565b60006125eb602483612512565b91506125f68261258f565b604082019050919050565b6000602082019050818103600083015261261a816125de565b9050919050565b7f4174206c65617374206f6e6520617574686f726974792069732072657175697260008201527f6564000000000000000000000000000000000000000000000000000000000000602082015250565b600061267d602283612512565b915061268882612621565b604082019050919050565b600060208201905081810360008301526126ac81612670565b9050919050565b7f4e487b7100000000000000000000000000000000000000000000000000000000600052601160045260246000fd5b60006126ed8261212c565b91506126f88361212c565b92508282019050808211156127105761270f6126b3565b5b92915050565b7f4e487b7100000000000000000000000000000000000000000000000000000000600052603260045260246000fd5b7f4475706c696361746520617574686f72697479207075626c6963206b65790000600082015250565b600061277b601e83612512565b915061278682612745565b602082019050919050565b600060208201905081810360008301526127aa8161276e565b9050919050565b7f4475706c696361746520617574686f726974792070726f6f6600000000000000600082015250565b60006127e7601983612512565b91506127f2826127b1565b602082019050919050565b60006020820190508181036000830152612816816127da565b9050919050565b7f496e76616c6964207075626c6963206b65790000000000000000000000000000600082015250565b6000612853601283612512565b915061285e8261281d565b602082019050919050565b6000602082019050818103600083015261288281612846565b9050919050565b7f496e76616c6964206b65792070726f6f66000000000000000000000000000000600082015250565b60006128bf601183612512565b91506128ca82612889565b602082019050919050565b600060208201905081810360008301526128ee816128b2565b9050919050565b7f4e487b7100000000000000000000000000000000000000000000000000000000600052601260045260246000fd5b7f4e6f20706f696e74732070726f76696465640000000000000000000000000000600082015250565b600061295a601283612512565b915061296582612924565b602082019050919050565b600060208201905081810360008301526129898161294d565b9050919050565b600081519050919050565b600081905092915050565b60006129b182612990565b6129bb818561299b565b93506129cb81856020860161234b565b80840191505092915050565b7f2c00000000000000000000000000000000000000000000000000000000000000600082015250565b6000612a0d60018361299b565b9150612a18826129d7565b600182019050919050565b6000612a2f82856129a6565b9150612a3a82612a00565b9150612a4682846129a6565b91508190509392505050565b600081519050919050565b600081905092915050565b6000612a7382612a52565b612a7d8185612a5d565b9350612a8d81856020860161234b565b80840191505092915050565b6000612aa58284612a68565b915081905092915050565b6000819050919050565b612ac381612ab0565b8114612ace57600080fd5b50565b600081519050612ae081612aba565b92915050565b600060208284031215612afc57612afb61205b565b5b6000612b0a84828501612ad1565b91505092915050565b6000612b1e8261212c565b9150612b298361212c565b9250828203905081811115612b4157612b406126b3565b5b92915050565b7f557365206a6163446f75626c652066756e6374696f6e20696e73746561640000600082015250565b6000612b7d601e83612512565b9150612b8882612b47565b602082019050919050565b60006020820190508181036000830152612bac81612b70565b9050919050565b6000612bbe8261212c565b9150612bc98361212c565b925082612bd957612bd86128f5565b5b828204905092915050565b6000612bef8261212c565b9150612bfa8361212c565b925082612c0a57612c096128f5565b5b828206905092915050565b7f496e76616c6964206e756d626572000000000000000000000000000000000000600082015250565b6000612c4b600e83612512565b9150612c5682612c15565b602082019050919050565b60006020820190508181036000830152612c7a81612c3e565b9050919050565b6000612c8c8261212c565b9150612c978361212c565b9250828202612ca58161212c565b91508282048414831517612cbc57612cbb6126b3565b5b5092915050565b7f4e487b7100000000000000000000000000000000000000000000000000000000600052602260045260246000fd5b60006002820490506001821680612d0a57607f821691505b602082108103612d1d57612d1c612cc3565b5b50919050565b60008190508160005260206000209050919050565b60006020601f8301049050919050565b600082821b905092915050565b600060088302612d857fffffffffffffffffffffffffffffffffffffffffffffffffffffffffffffffff82612d48565b612d8f8683612d48565b95508019841693508086168417925050509392505050565b6000819050919050565b6000612dcc612dc7612dc28461212c565b612da7565b61212c565b9050919050565b6000819050919050565b612de683612db1565b612dfa612df282612dd3565b848454612d55565b825550505050565b600090565b612e0f612e02565b612e1a818484612ddd565b505050565b5b81811015612e3e57612e33600082612e07565b600181019050612e20565b5050565b601f821115612e8357612e5481612d23565b612e5d84612d38565b81016020851015612e6c578190505b612e80612e7885612d38565b830182612e1f565b50505b505050565b600082821c905092915050565b6000612ea660001984600802612e88565b1980831691505092915050565b6000612ebf8383612e95565b9150826002028217905092915050565b612ed882612990565b67ffffffffffffffff811115612ef157612ef061207b565b5b612efb8254612cf2565b612f06828285612e42565b600060209050601f831160018114612f395760008415612f27578287015190505b612f318582612eb3565b865550612f99565b601f198416612f4786612d23565b60005b82811015612f6f57848901518255600182019150602085019450602081019050612f4a565b86831015612f8c5784890151612f88601f891682612e95565b8355505b6001600288020188555050505b505050505050565b6129fe80612fb06000396000f3fe608060405234801561001057600080fd5b50600436106100f55760003560e01c8063494503d411610097578063b3bf549511610066578063b3bf54951461027c578063c21b4865146102ac578063c9e525df146102ca578063f446c1d0146102e8576100f5565b8063494503d4146101f15780636b7a524f146102225780637a308a4c146102405780638b8fbd921461025e576100f5565b8063200d2ed2116100d3578063200d2ed21461015557806332e7c5bf146101735780633477ee2e14610191578063477decc0146101c1576100f5565b806303a507be146100fa57806306a49fce146101185780630dd3849c14610136575b600080fd5b610102610306565b60405161010f9190611d8a565b60405180910390f35b61012061032a565b60405161012d9190611ef7565b60405180910390f35b61013e610403565b60405161014c929190611f19565b60405180910390f35b61015d610415565b60405161016a9190611fb9565b60405180910390f35b61017b610428565b6040516101889190611d8a565b60405180910390f35b6101ab60048036038101906101a69190612014565b61042d565b6040516101b8919061208b565b60405180910390f35b6101db60048036038101906101d6919061224a565b6104d9565b6040516101e89190611d8a565b60405180910390f35b61020b60048036038101906102069190612014565b610616565b604051610219929190612300565b60405180910390f35b61022a610686565b60405161023791906123a4565b60405180910390f35b610248610742565b6040516102559190611d8a565b60405180910390f35b610266610766565b6040516102739190611d8a565b60405180910390f35b610296600480360381019061029191906123bf565b61078a565b6040516102a391906123ff565b60405180910390f35b6102b46107af565b6040516102c19190612556565b60405180910390f35b6102d261085e565b6040516102df9190611d8a565b60405180910390f35b6102f0610882565b6040516102fd9190611d8a565b60405180910390f35b7f79be667ef9dcbbac55a06295ce870b07029bfcdb2dce28d959f2815b16f8179881565b60606000805480602002602001604051908101604052809291908181526020016000905b828210156103fa57838290600052602060002001805461036d906125a7565b80601f0160208091040260200160405190810160405280929190818152602001828054610399906125a7565b80156103e65780601f106103bb576101008083540402835291602001916103e6565b820191906000526020600020905b8154815290600101906020018083116103c957829003601f168201915b50505050508152602001906001019061034e565b50505050905090565b60038060000154908060010154905082565b600160009054906101000a900460ff1681565b600781565b6000818154811061043d57600080fd5b906000526020600020016000915090508054610458906125a7565b80601f0160208091040260200160405190810160405280929190818152602001828054610484906125a7565b80156104d15780601f106104a6576101008083540402835291602001916104d1565b820191906000526020600020905b8154815290600101906020018083116104b457829003601f168201915b505050505081565b60008082511161051e576040517f08c379a000000000000000000000000000000000000000000000000000000000815260040161051590612624565b60405180910390fd5b60008260008151811061053457610533612644565b5b602002602001015190506000600190505b8351811015610581576105728285838151811061056557610564612644565b5b6020026020010151610887565b91508080600101915050610545565b506002610591826000015161096e565b61059e836020015161096e565b6040516020016105af9291906126fb565b6040516020818303038152906040526040516105cb9190612771565b602060405180830381855afa1580156105e8573d6000803e3d6000fd5b5050506040513d601f19601f8201168201806040525081019061060b91906127be565b60001c915050919050565b6002818154811061062657600080fd5b90600052602060002090600402016000915090508060000160405180604001604052908160008201548152602001600182015481525050908060020160405180604001604052908160008201548152602001600182015481525050905082565b61068e611cff565b6040518060c001604052807f79be667ef9dcbbac55a06295ce870b07029bfcdb2dce28d959f2815b16f8179881526020017f483ada7726a3c4655da4fbfc0e1108a8fd17b448a68554199c47d08ffb10d4b8815260200160008152602001600781526020017ffffffffffffffffffffffffffffffffffffffffffffffffffffffffefffffc2f81526020017ffffffffffffffffffffffffffffffffebaaedce6af48a03bbfd25e8cd0364141815250905090565b7f483ada7726a3c4655da4fbfc0e1108a8fd17b448a68554199c47d08ffb10d4b881565b7ffffffffffffffffffffffffffffffffffffffffffffffffffffffffefffffc2f81565b610792611d35565b604051806040016040528084815260200183815250905092915050565b60606002805480602002602001604051908101604052809291908181526020016000905b82821015610855578382906000526020600020906004020160405180604001604052908160008201604051806040016040529081600082015481526020016001820154815250508152602001600282016040518060400160405290816000820154815260200160018201548152505081525050815260200190600101906107d3565b50505050905090565b7ffffffffffffffffffffffffffffffffebaaedce6af48a03bbfd25e8cd036414181565b600081565b61088f611d35565b6000806000846000015186600001510361092a5760007ffffffffffffffffffffffffffffffffffffffffffffffffffffffffefffffc2f806108d4576108d36127eb565b5b8660200151886020015108036109055760405180604001604052806000815260200160008152509350505050610968565b610919866000015187602001516001610a3c565b809350819450829550505050610957565b61094a866000015187602001516001886000015189602001516001610eb9565b8093508194508295505050505b6109628383836118f7565b93505050505b92915050565b60606000600161097d84611a01565b01905060008167ffffffffffffffff81111561099c5761099b6120b2565b5b6040519080825280601f01601f1916602001820160405280156109ce5781602001600182028036833780820191505090505b509050600082602001820190505b600115610a31578080600190039150507f3031323334353637383961626364656600000000000000000000000000000000600a86061a8153600a8581610a2557610a246127eb565b5b049450600085036109dc575b819350505050919050565b6000806000808403610a5657858585925092509250610eb0565b60007ffffffffffffffffffffffffffffffffffffffffffffffffffffffffefffffc2f80610a8757610a866127eb565b5b878809905060007ffffffffffffffffffffffffffffffffffffffffffffffffffffffffefffffc2f80610abd57610abc6127eb565b5b878809905060007ffffffffffffffffffffffffffffffffffffffffffffffffffffffffefffffc2f80610af357610af26127eb565b5b878809905060007ffffffffffffffffffffffffffffffffffffffffffffffffffffffffefffffc2f80610b2957610b286127eb565b5b7ffffffffffffffffffffffffffffffffffffffffffffffffffffffffefffffc2f80610b5857610b576127eb565b5b848c09600409905060007ffffffffffffffffffffffffffffffffffffffffffffffffffffffffefffffc2f80610b9157610b906127eb565b5b7ffffffffffffffffffffffffffffffffffffffffffffffffffffffffefffffc2f80610bc057610bbf6127eb565b5b7ffffffffffffffffffffffffffffffffffffffffffffffffffffffffefffffc2f80610bef57610bee6127eb565b5b8586096000097ffffffffffffffffffffffffffffffffffffffffffffffffffffffffefffffc2f80610c2457610c236127eb565b5b876003090890507ffffffffffffffffffffffffffffffffffffffffffffffffffffffffefffffc2f80610c5a57610c596127eb565b5b7ffffffffffffffffffffffffffffffffffffffffffffffffffffffffefffffc2f80610c8957610c886127eb565b5b8384087ffffffffffffffffffffffffffffffffffffffffffffffffffffffffefffffc2f610cb79190612849565b7ffffffffffffffffffffffffffffffffffffffffffffffffffffffffefffffc2f80610ce657610ce56127eb565b5b8384090894507ffffffffffffffffffffffffffffffffffffffffffffffffffffffffefffffc2f80610d1b57610d1a6127eb565b5b7ffffffffffffffffffffffffffffffffffffffffffffffffffffffffefffffc2f80610d4a57610d496127eb565b5b7ffffffffffffffffffffffffffffffffffffffffffffffffffffffffefffffc2f80610d7957610d786127eb565b5b8687096008097ffffffffffffffffffffffffffffffffffffffffffffffffffffffffefffffc2f610daa9190612849565b7ffffffffffffffffffffffffffffffffffffffffffffffffffffffffefffffc2f80610dd957610dd86127eb565b5b7ffffffffffffffffffffffffffffffffffffffffffffffffffffffffefffffc2f80610e0857610e076127eb565b5b887ffffffffffffffffffffffffffffffffffffffffffffffffffffffffefffffc2f610e349190612849565b860884090893507ffffffffffffffffffffffffffffffffffffffffffffffffffffffffefffffc2f80610e6a57610e696127eb565b5b7ffffffffffffffffffffffffffffffffffffffffffffffffffffffffefffffc2f80610e9957610e986127eb565b5b8a8c09600209925084848497509750975050505050505b93509350939050565b60008060008089148015610ecd5750600088145b15610ee0578585859250925092506118eb565b600086148015610ef05750600085145b15610f03578888889250925092506118eb565b610f0b611d4f565b7ffffffffffffffffffffffffffffffffffffffffffffffffffffffffefffffc2f80610f3a57610f396127eb565b5b88890981600060048110610f5157610f50612644565b5b6020020181815250507ffffffffffffffffffffffffffffffffffffffffffffffffffffffffefffffc2f80610f8957610f886127eb565b5b81600060048110610f9d57610f9c612644565b5b6020020151890981600160048110610fb857610fb7612644565b5b6020020181815250507ffffffffffffffffffffffffffffffffffffffffffffffffffffffffefffffc2f80610ff057610fef6127eb565b5b8586098160026004811061100757611006612644565b5b6020020181815250507ffffffffffffffffffffffffffffffffffffffffffffffffffffffffefffffc2f8061103f5761103e6127eb565b5b8160026004811061105357611052612644565b5b602002015186098160036004811061106e5761106d612644565b5b60200201818152505060405180608001604052807ffffffffffffffffffffffffffffffffffffffffffffffffffffffffefffffc2f806110b1576110b06127eb565b5b836002600481106110c5576110c4612644565b5b60200201518d0981526020017ffffffffffffffffffffffffffffffffffffffffffffffffffffffffefffffc2f80611100576110ff6127eb565b5b8360036004811061111457611113612644565b5b60200201518c0981526020017ffffffffffffffffffffffffffffffffffffffffffffffffffffffffefffffc2f8061114f5761114e6127eb565b5b8360006004811061116357611162612644565b5b60200201518a0981526020017ffffffffffffffffffffffffffffffffffffffffffffffffffffffffefffffc2f8061119e5761119d6127eb565b5b836001600481106111b2576111b1612644565b5b602002015189098152509050806002600481106111d2576111d1612644565b5b6020020151816000600481106111eb576111ea612644565b5b602002015114158061122d57508060036004811061120c5761120b612644565b5b60200201518160016004811061122557611224612644565b5b602002015114155b61126c576040517f08c379a0000000000000000000000000000000000000000000000000000000008152600401611263906128c9565b60405180910390fd5b611274611d4f565b7ffffffffffffffffffffffffffffffffffffffffffffffffffffffffefffffc2f806112a3576112a26127eb565b5b826000600481106112b7576112b6612644565b5b60200201517ffffffffffffffffffffffffffffffffffffffffffffffffffffffffefffffc2f6112e79190612849565b836002600481106112fb576112fa612644565b5b6020020151088160006004811061131557611314612644565b5b6020020181815250507ffffffffffffffffffffffffffffffffffffffffffffffffffffffffefffffc2f8061134d5761134c6127eb565b5b8260016004811061136157611360612644565b5b60200201517ffffffffffffffffffffffffffffffffffffffffffffffffffffffffefffffc2f6113919190612849565b836003600481106113a5576113a4612644565b5b602002015108816001600481106113bf576113be612644565b5b6020020181815250507ffffffffffffffffffffffffffffffffffffffffffffffffffffffffefffffc2f806113f7576113f66127eb565b5b8160006004811061140b5761140a612644565b5b60200201518260006004811061142457611423612644565b5b6020020151098160026004811061143e5761143d612644565b5b6020020181815250507ffffffffffffffffffffffffffffffffffffffffffffffffffffffffefffffc2f80611476576114756127eb565b5b8160006004811061148a57611489612644565b5b6020020151826002600481106114a3576114a2612644565b5b602002015109816003600481106114bd576114bc612644565b5b60200201818152505060007ffffffffffffffffffffffffffffffffffffffffffffffffffffffffefffffc2f806114f7576114f66127eb565b5b8260036004811061150b5761150a612644565b5b60200201517ffffffffffffffffffffffffffffffffffffffffffffffffffffffffefffffc2f61153b9190612849565b7ffffffffffffffffffffffffffffffffffffffffffffffffffffffffefffffc2f8061156a576115696127eb565b5b8460016004811061157e5761157d612644565b5b60200201518560016004811061159757611596612644565b5b6020020151090890507ffffffffffffffffffffffffffffffffffffffffffffffffffffffffefffffc2f806115cf576115ce6127eb565b5b7ffffffffffffffffffffffffffffffffffffffffffffffffffffffffefffffc2f806115fe576115fd6127eb565b5b7ffffffffffffffffffffffffffffffffffffffffffffffffffffffffefffffc2f8061162d5761162c6127eb565b5b8460026004811061164157611640612644565b5b60200201518660006004811061165a57611659612644565b5b6020020151096002097ffffffffffffffffffffffffffffffffffffffffffffffffffffffffefffffc2f61168e9190612849565b8208905060007ffffffffffffffffffffffffffffffffffffffffffffffffffffffffefffffc2f806116c3576116c26127eb565b5b7ffffffffffffffffffffffffffffffffffffffffffffffffffffffffefffffc2f806116f2576116f16127eb565b5b837ffffffffffffffffffffffffffffffffffffffffffffffffffffffffefffffc2f61171e9190612849565b7ffffffffffffffffffffffffffffffffffffffffffffffffffffffffefffffc2f8061174d5761174c6127eb565b5b8660026004811061176157611760612644565b5b60200201518860006004811061177a57611779612644565b5b602002015109088460016004811061179557611794612644565b5b60200201510990507ffffffffffffffffffffffffffffffffffffffffffffffffffffffffefffffc2f806117cc576117cb6127eb565b5b7ffffffffffffffffffffffffffffffffffffffffffffffffffffffffefffffc2f806117fb576117fa6127eb565b5b8460036004811061180f5761180e612644565b5b60200201518660016004811061182857611827612644565b5b6020020151097ffffffffffffffffffffffffffffffffffffffffffffffffffffffffefffffc2f6118599190612849565b8208905060007ffffffffffffffffffffffffffffffffffffffffffffffffffffffffefffffc2f8061188e5761188d6127eb565b5b7ffffffffffffffffffffffffffffffffffffffffffffffffffffffffefffffc2f806118bd576118bc6127eb565b5b8a8e09856000600481106118d4576118d3612644565b5b602002015109905082828297509750975050505050505b96509650969350505050565b6118ff611d35565b600061190a83611b54565b905060007ffffffffffffffffffffffffffffffffffffffffffffffffffffffffefffffc2f8061193d5761193c6127eb565b5b828309905060007ffffffffffffffffffffffffffffffffffffffffffffffffffffffffefffffc2f80611973576119726127eb565b5b828809905060007ffffffffffffffffffffffffffffffffffffffffffffffffffffffffefffffc2f806119a9576119a86127eb565b5b7ffffffffffffffffffffffffffffffffffffffffffffffffffffffffefffffc2f806119d8576119d76127eb565b5b848609880990506040518060400160405280838152602001828152509450505050509392505050565b600080600090507a184f03e93ff9f4daa797ed6e38ed64bf6a1f0100000000000000008310611a5f577a184f03e93ff9f4daa797ed6e38ed64bf6a1f0100000000000000008381611a5557611a546127eb565b5b0492506040810190505b6d04ee2d6d415b85acef81000000008310611a9c576d04ee2d6d415b85acef81000000008381611a9257611a916127eb565b5b0492506020810190505b662386f26fc100008310611acb57662386f26fc100008381611ac157611ac06127eb565b5b0492506010810190505b6305f5e1008310611af4576305f5e1008381611aea57611ae96127eb565b5b0492506008810190505b6127108310611b19576127108381611b0f57611b0e6127eb565b5b0492506004810190505b60648310611b3c5760648381611b3257611b316127eb565b5b0492506002810190505b600a8310611b4b576001810190505b80915050919050565b6000808214158015611b8657507ffffffffffffffffffffffffffffffffffffffffffffffffffffffffefffffc2f8214155b8015611bb3575060007ffffffffffffffffffffffffffffffffffffffffffffffffffffffffefffffc2f14155b611bf2576040517f08c379a0000000000000000000000000000000000000000000000000000000008152600401611be990612935565b60405180910390fd5b6000806001905060007ffffffffffffffffffffffffffffffffffffffffffffffffffffffffefffffc2f905060005b60008614611cf3578582611c359190612955565b9050827ffffffffffffffffffffffffffffffffffffffffffffffffffffffffefffffc2f80611c6757611c666127eb565b5b7ffffffffffffffffffffffffffffffffffffffffffffffffffffffffefffffc2f80611c9657611c956127eb565b5b8584097ffffffffffffffffffffffffffffffffffffffffffffffffffffffffefffffc2f611cc49190612849565b86088094508195505050858682611cdb9190612986565b83611ce69190612849565b8097508193505050611c21565b83945050505050919050565b6040518060c001604052806000815260200160008152602001600081526020016000815260200160008152602001600081525090565b604051806040016040528060008152602001600081525090565b6040518060800160405280600490602082028036833780820191505090505090565b6000819050919050565b611d8481611d71565b82525050565b6000602082019050611d9f6000830184611d7b565b92915050565b600081519050919050565b600082825260208201905092915050565b6000819050602082019050919050565b600081519050919050565b600082825260208201905092915050565b60005b83811015611e0b578082015181840152602081019050611df0565b60008484015250505050565b6000601f19601f8301169050919050565b6000611e3382611dd1565b611e3d8185611ddc565b9350611e4d818560208601611ded565b611e5681611e17565b840191505092915050565b6000611e6d8383611e28565b905092915050565b6000602082019050919050565b6000611e8d82611da5565b611e978185611db0565b935083602082028501611ea985611dc1565b8060005b85811015611ee55784840389528151611ec68582611e61565b9450611ed183611e75565b925060208a01995050600181019050611ead565b50829750879550505050505092915050565b60006020820190508181036000830152611f118184611e82565b905092915050565b6000604082019050611f2e6000830185611d7b565b611f3b6020830184611d7b565b9392505050565b7f4e487b7100000000000000000000000000000000000000000000000000000000600052602160045260246000fd5b60048110611f8257611f81611f42565b5b50565b6000819050611f9382611f71565b919050565b6000611fa382611f85565b9050919050565b611fb381611f98565b82525050565b6000602082019050611fce6000830184611faa565b92915050565b6000604051905090565b600080fd5b600080fd5b611ff181611d71565b8114611ffc57600080fd5b50565b60008135905061200e81611fe8565b92915050565b60006020828403121561202a57612029611fde565b5b600061203884828501611fff565b91505092915050565b600082825260208201905092915050565b600061205d82611dd1565b6120678185612041565b9350612077818560208601611ded565b61208081611e17565b840191505092915050565b600060208201905081810360008301526120a58184612052565b905092915050565b600080fd5b7f4e487b7100000000000000000000000000000000000000000000000000000000600052604160045260246000fd5b6120ea82611e17565b810181811067ffffffffffffffff82111715612109576121086120b2565b5b80604052505050565b600061211c611fd4565b905061212882826120e1565b919050565b600067ffffffffffffffff821115612148576121476120b2565b5b602082029050602081019050919050565b600080fd5b600080fd5b6000604082840312156121795761217861215e565b5b6121836040612112565b9050600061219384828501611fff565b60008301525060206121a784828501611fff565b60208301525092915050565b60006121c66121c18461212d565b612112565b905080838252602082019050604084028301858111156121e9576121e8612159565b5b835b8181101561221257806121fe8882612163565b8452602084019350506040810190506121eb565b5050509392505050565b600082601f830112612231576122306120ad565b5b81356122418482602086016121b3565b91505092915050565b6000602082840312156122605761225f611fde565b5b600082013567ffffffffffffffff81111561227e5761227d611fe3565b5b61228a8482850161221c565b91505092915050565b61229c81611d71565b82525050565b6040820160008201516122b86000850182612293565b5060208201516122cb6020850182612293565b50505050565b6040820160008201516122e76000850182612293565b5060208201516122fa6020850182612293565b50505050565b600060808201905061231560008301856122a2565b61232260408301846122d1565b9392505050565b60c08201600082015161233f6000850182612293565b5060208201516123526020850182612293565b5060408201516123656040850182612293565b5060608201516123786060850182612293565b50608082015161238b6080850182612293565b5060a082015161239e60a0850182612293565b50505050565b600060c0820190506123b96000830184612329565b92915050565b600080604083850312156123d6576123d5611fde565b5b60006123e485828601611fff565b92505060206123f585828601611fff565b9150509250929050565b600060408201905061241460008301846122a2565b92915050565b600081519050919050565b600082825260208201905092915050565b6000819050602082019050919050565b60408201600082015161245c6000850182612293565b50602082015161246f6020850182612293565b50505050565b60408201600082015161248b6000850182612293565b50602082015161249e6020850182612293565b50505050565b6080820160008201516124ba6000850182612446565b5060208201516124cd6040850182612475565b50505050565b60006124df83836124a4565b60808301905092915050565b6000602082019050919050565b60006125038261241a565b61250d8185612425565b935061251883612436565b8060005b8381101561254957815161253088826124d3565b975061253b836124eb565b92505060018101905061251c565b5085935050505092915050565b6000602082019050818103600083015261257081846124f8565b905092915050565b7f4e487b7100000000000000000000000000000000000000000000000000000000600052602260045260246000fd5b600060028204905060018216806125bf57607f821691505b6020821081036125d2576125d1612578565b5b50919050565b7f4e6f20706f696e74732070726f76696465640000000000000000000000000000600082015250565b600061260e601283612041565b9150612619826125d8565b602082019050919050565b6000602082019050818103600083015261263d81612601565b9050919050565b7f4e487b7100000000000000000000000000000000000000000000000000000000600052603260045260246000fd5b600081905092915050565b600061268982611dd1565b6126938185612673565b93506126a3818560208601611ded565b80840191505092915050565b7f2c00000000000000000000000000000000000000000000000000000000000000600082015250565b60006126e5600183612673565b91506126f0826126af565b600182019050919050565b6000612707828561267e565b9150612712826126d8565b915061271e828461267e565b91508190509392505050565b600081519050919050565b600081905092915050565b600061274b8261272a565b6127558185612735565b9350612765818560208601611ded565b80840191505092915050565b600061277d8284612740565b915081905092915050565b6000819050919050565b61279b81612788565b81146127a657600080fd5b50565b6000815190506127b881612792565b92915050565b6000602082840312156127d4576127d3611fde565b5b60006127e2848285016127a9565b91505092915050565b7f4e487b7100000000000000000000000000000000000000000000000000000000600052601260045260246000fd5b7f4e487b7100000000000000000000000000000000000000000000000000000000600052601160045260246000fd5b600061285482611d71565b915061285f83611d71565b92508282039050818111156128775761287661281a565b5b92915050565b7f557365206a6163446f75626c652066756e6374696f6e20696e73746561640000600082015250565b60006128b3601e83612041565b91506128be8261287d565b602082019050919050565b600060208201905081810360008301526128e2816128a6565b9050919050565b7f496e76616c6964206e756d626572000000000000000000000000000000000000600082015250565b600061291f600e83612041565b915061292a826128e9565b602082019050919050565b6000602082019050818103600083015261294e81612912565b9050919050565b600061296082611d71565b915061296b83611d71565b92508261297b5761297a6127eb565b5b828204905092915050565b600061299182611d71565b915061299c83611d71565b92508282026129aa81611d71565b915082820484148315176129c1576129c061281a565b5b509291505056fea26469706673582212202331a16020f103e0fb30abf3467e1506b5b2bd9e9697c5e86ba55ad76b2351da64736f6c634300081c0033",
  "linkReferences": {},
  "deployedLinkReferences": {}
}