{
  "_format": "hh-sol-artifact-1",
  "contractName": "Election",
  "sourceName": "contracts/Election.sol",
  "abi": [
    {
      "inputs": [
        {
          "components": [
            {
              "internalType": "address",
              "name": "owner",
              "type": "address"
            },
            {
              "components": [
                {
                  "internalType": "uint256",
                  "name": "x",
                  "type": "uint256"
                },
                {
                  "internalType": "uint256",
                  "name": "y",
                  "type": "uint256"
                }
              ],
              "internalType": "struct Ecc.EcPoint",
              "name": "publicKey",
              "type": "tuple"
            },
            {
              "components": [
                {
                  "internalType": "uint256",
                  "name": "c",
                  "type": "uint256"
                },
                {
                  "internalType": "uint256",
                  "name": "d",
                  "type": "uint256"
                }
              ],
              "internalType": "struct Zkp.KeyOwnershipProof",
              "name": "proof",
              "type": "tuple"
            }
          ],
          "internalType": "struct Election.Key[]",
          "name": "_authorityKeys",
          "type": "tuple[]"
        },
        {
          "internalType": "string[]",
          "name": "_candidates",
          "type": "string[]"
        },
        {
          "internalType": "address[]",
          "name": "_whitelistedAddresses",
          "type": "address[]"
        },
        {
          "internalType": "uint64",
          "name": "_endTime",
          "type": "uint64"
        }
      ],
      "stateMutability": "nonpayable",
      "type": "constructor"
    },
    {
      "anonymous": false,
      "inputs": [
        {
          "components": [
            {
              "internalType": "uint64",
              "name": "id",
              "type": "uint64"
            },
            {
              "internalType": "address",
              "name": "from",
              "type": "address"
            },
            {
              "components": [
                {
                  "components": [
                    {
                      "components": [
                        {
                          "internalType": "uint256",
                          "name": "x",
                          "type": "uint256"
                        },
                        {
                          "internalType": "uint256",
                          "name": "y",
                          "type": "uint256"
                        }
                      ],
                      "internalType": "struct Ecc.EcPoint",
                      "name": "a",
                      "type": "tuple"
                    },
                    {
                      "components": [
                        {
                          "internalType": "uint256",
                          "name": "x",
                          "type": "uint256"
                        },
                        {
                          "internalType": "uint256",
                          "name": "y",
                          "type": "uint256"
                        }
                      ],
                      "internalType": "struct Ecc.EcPoint",
                      "name": "b",
                      "type": "tuple"
                    }
                  ],
                  "internalType": "struct Ecc.ECElGamalCiphertext",
                  "name": "ciphertext",
                  "type": "tuple"
                },
                {
                  "components": [
                    {
                      "components": [
                        {
                          "internalType": "uint256",
                          "name": "x",
                          "type": "uint256"
                        },
                        {
                          "internalType": "uint256",
                          "name": "y",
                          "type": "uint256"
                        }
                      ],
                      "internalType": "struct Ecc.EcPoint",
                      "name": "a0_",
                      "type": "tuple"
                    },
                    {
                      "components": [
                        {
                          "internalType": "uint256",
                          "name": "x",
                          "type": "uint256"
                        },
                        {
                          "internalType": "uint256",
                          "name": "y",
                          "type": "uint256"
                        }
                      ],
                      "internalType": "struct Ecc.EcPoint",
                      "name": "a1_",
                      "type": "tuple"
                    },
                    {
                      "components": [
                        {
                          "internalType": "uint256",
                          "name": "x",
                          "type": "uint256"
                        },
                        {
                          "internalType": "uint256",
                          "name": "y",
                          "type": "uint256"
                        }
                      ],
                      "internalType": "struct Ecc.EcPoint",
                      "name": "b0_",
                      "type": "tuple"
                    },
                    {
                      "components": [
                        {
                          "internalType": "uint256",
                          "name": "x",
                          "type": "uint256"
                        },
                        {
                          "internalType": "uint256",
                          "name": "y",
                          "type": "uint256"
                        }
                      ],
                      "internalType": "struct Ecc.EcPoint",
                      "name": "b1_",
                      "type": "tuple"
                    },
                    {
                      "internalType": "uint256",
                      "name": "c0",
                      "type": "uint256"
                    },
                    {
                      "internalType": "uint256",
                      "name": "c1",
                      "type": "uint256"
                    },
                    {
                      "internalType": "uint256",
                      "name": "r0__",
                      "type": "uint256"
                    },
                    {
                      "internalType": "uint256",
                      "name": "r1__",
                      "type": "uint256"
                    }
                  ],
                  "internalType": "struct Zkp.WellFormedVoteProof",
                  "name": "wellFormedVoteProof",
                  "type": "tuple"
                }
              ],
              "internalType": "struct Election.Vote[]",
              "name": "votes",
              "type": "tuple[]"
            },
            {
              "components": [
                {
                  "components": [
                    {
                      "internalType": "uint256",
                      "name": "x",
                      "type": "uint256"
                    },
                    {
                      "internalType": "uint256",
                      "name": "y",
                      "type": "uint256"
                    }
                  ],
                  "internalType": "struct Ecc.EcPoint",
                  "name": "A_",
                  "type": "tuple"
                },
                {
                  "components": [
                    {
                      "internalType": "uint256",
                      "name": "x",
                      "type": "uint256"
                    },
                    {
                      "internalType": "uint256",
                      "name": "y",
                      "type": "uint256"
                    }
                  ],
                  "internalType": "struct Ecc.EcPoint",
                  "name": "B_",
                  "type": "tuple"
                },
                {
                  "internalType": "uint256",
                  "name": "c",
                  "type": "uint256"
                },
                {
                  "internalType": "uint256",
                  "name": "R__",
                  "type": "uint256"
                }
              ],
              "internalType": "struct Zkp.SingleVoteSumProof",
              "name": "singleVoteSumProof",
              "type": "tuple"
            }
          ],
          "indexed": false,
          "internalType": "struct Election.Ballot",
          "name": "_ballot",
          "type": "tuple"
        }
      ],
      "name": "BallotCast",
      "type": "event"
    },
    {
      "inputs": [],
      "name": "A",
      "outputs": [
        {
          "internalType": "uint256",
          "name": "",
          "type": "uint256"
        }
      ],
      "stateMutability": "view",
      "type": "function"
    },
    {
      "inputs": [],
      "name": "B",
      "outputs": [
        {
          "internalType": "uint256",
          "name": "",
          "type": "uint256"
        }
      ],
      "stateMutability": "view",
      "type": "function"
    },
    {
      "inputs": [],
      "name": "G",
      "outputs": [
        {
          "internalType": "uint256",
          "name": "x",
          "type": "uint256"
        },
        {
          "internalType": "uint256",
          "name": "y",
          "type": "uint256"
        }
      ],
      "stateMutability": "view",
      "type": "function"
    },
    {
      "inputs": [],
      "name": "GX",
      "outputs": [
        {
          "internalType": "uint256",
          "name": "",
          "type": "uint256"
        }
      ],
      "stateMutability": "view",
      "type": "function"
    },
    {
      "inputs": [],
      "name": "GY",
      "outputs": [
        {
          "internalType": "uint256",
          "name": "",
          "type": "uint256"
        }
      ],
      "stateMutability": "view",
      "type": "function"
    },
    {
      "inputs": [],
      "name": "N",
      "outputs": [
        {
          "internalType": "uint256",
          "name": "",
          "type": "uint256"
        }
      ],
      "stateMutability": "view",
      "type": "function"
    },
    {
      "inputs": [],
      "name": "P",
      "outputs": [
        {
          "internalType": "uint256",
          "name": "",
          "type": "uint256"
        }
      ],
      "stateMutability": "view",
      "type": "function"
    },
    {
      "inputs": [
        {
          "internalType": "uint256",
          "name": "",
          "type": "uint256"
        }
      ],
      "name": "authorities",
      "outputs": [
        {
          "internalType": "address",
          "name": "owner",
          "type": "address"
        },
        {
          "components": [
            {
              "internalType": "uint256",
              "name": "x",
              "type": "uint256"
            },
            {
              "internalType": "uint256",
              "name": "y",
              "type": "uint256"
            }
          ],
          "internalType": "struct Ecc.EcPoint",
          "name": "publicKey",
          "type": "tuple"
        },
        {
          "components": [
            {
              "internalType": "uint256",
              "name": "c",
              "type": "uint256"
            },
            {
              "internalType": "uint256",
              "name": "d",
              "type": "uint256"
            }
          ],
          "internalType": "struct Zkp.KeyOwnershipProof",
          "name": "proof",
          "type": "tuple"
        }
      ],
      "stateMutability": "view",
      "type": "function"
    },
    {
      "inputs": [
        {
          "internalType": "uint256",
          "name": "",
          "type": "uint256"
        }
      ],
      "name": "ballots",
      "outputs": [
        {
          "internalType": "uint64",
          "name": "id",
          "type": "uint64"
        },
        {
          "internalType": "address",
          "name": "from",
          "type": "address"
        },
        {
          "components": [
            {
              "components": [
                {
                  "internalType": "uint256",
                  "name": "x",
                  "type": "uint256"
                },
                {
                  "internalType": "uint256",
                  "name": "y",
                  "type": "uint256"
                }
              ],
              "internalType": "struct Ecc.EcPoint",
              "name": "A_",
              "type": "tuple"
            },
            {
              "components": [
                {
                  "internalType": "uint256",
                  "name": "x",
                  "type": "uint256"
                },
                {
                  "internalType": "uint256",
                  "name": "y",
                  "type": "uint256"
                }
              ],
              "internalType": "struct Ecc.EcPoint",
              "name": "B_",
              "type": "tuple"
            },
            {
              "internalType": "uint256",
              "name": "c",
              "type": "uint256"
            },
            {
              "internalType": "uint256",
              "name": "R__",
              "type": "uint256"
            }
          ],
          "internalType": "struct Zkp.SingleVoteSumProof",
          "name": "singleVoteSumProof",
          "type": "tuple"
        }
      ],
      "stateMutability": "view",
      "type": "function"
    },
    {
      "inputs": [
        {
          "internalType": "uint256",
          "name": "",
          "type": "uint256"
        }
      ],
      "name": "candidates",
      "outputs": [
        {
          "internalType": "string",
          "name": "",
          "type": "string"
        }
      ],
      "stateMutability": "view",
      "type": "function"
    },
    {
      "inputs": [],
      "name": "electionPublicKey",
      "outputs": [
        {
          "internalType": "uint256",
          "name": "x",
          "type": "uint256"
        },
        {
          "internalType": "uint256",
          "name": "y",
          "type": "uint256"
        }
      ],
      "stateMutability": "view",
      "type": "function"
    },
    {
      "inputs": [
        {
          "internalType": "uint256",
          "name": "v",
          "type": "uint256"
        }
      ],
      "name": "encodeVote",
      "outputs": [
        {
          "components": [
            {
              "internalType": "uint256",
              "name": "x",
              "type": "uint256"
            },
            {
              "internalType": "uint256",
              "name": "y",
              "type": "uint256"
            }
          ],
          "internalType": "struct Ecc.EcPoint",
          "name": "",
          "type": "tuple"
        }
      ],
      "stateMutability": "view",
      "type": "function"
    },
    {
      "inputs": [],
      "name": "endTime",
      "outputs": [
        {
          "internalType": "uint64",
          "name": "",
          "type": "uint64"
        }
      ],
      "stateMutability": "view",
      "type": "function"
    },
    {
      "inputs": [],
      "name": "getAuthorities",
      "outputs": [
        {
          "components": [
            {
              "internalType": "address",
              "name": "owner",
              "type": "address"
            },
            {
              "components": [
                {
                  "internalType": "uint256",
                  "name": "x",
                  "type": "uint256"
                },
                {
                  "internalType": "uint256",
                  "name": "y",
                  "type": "uint256"
                }
              ],
              "internalType": "struct Ecc.EcPoint",
              "name": "publicKey",
              "type": "tuple"
            },
            {
              "components": [
                {
                  "internalType": "uint256",
                  "name": "c",
                  "type": "uint256"
                },
                {
                  "internalType": "uint256",
                  "name": "d",
                  "type": "uint256"
                }
              ],
              "internalType": "struct Zkp.KeyOwnershipProof",
              "name": "proof",
              "type": "tuple"
            }
          ],
          "internalType": "struct Election.Key[]",
          "name": "",
          "type": "tuple[]"
        }
      ],
      "stateMutability": "view",
      "type": "function"
    },
    {
      "inputs": [
        {
          "internalType": "uint256",
          "name": "page",
          "type": "uint256"
        }
      ],
      "name": "getBallots",
      "outputs": [
        {
          "components": [
            {
              "components": [
                {
                  "internalType": "uint64",
                  "name": "id",
                  "type": "uint64"
                },
                {
                  "internalType": "address",
                  "name": "from",
                  "type": "address"
                },
                {
                  "components": [
                    {
                      "components": [
                        {
                          "components": [
                            {
                              "internalType": "uint256",
                              "name": "x",
                              "type": "uint256"
                            },
                            {
                              "internalType": "uint256",
                              "name": "y",
                              "type": "uint256"
                            }
                          ],
                          "internalType": "struct Ecc.EcPoint",
                          "name": "a",
                          "type": "tuple"
                        },
                        {
                          "components": [
                            {
                              "internalType": "uint256",
                              "name": "x",
                              "type": "uint256"
                            },
                            {
                              "internalType": "uint256",
                              "name": "y",
                              "type": "uint256"
                            }
                          ],
                          "internalType": "struct Ecc.EcPoint",
                          "name": "b",
                          "type": "tuple"
                        }
                      ],
                      "internalType": "struct Ecc.ECElGamalCiphertext",
                      "name": "ciphertext",
                      "type": "tuple"
                    },
                    {
                      "components": [
                        {
                          "components": [
                            {
                              "internalType": "uint256",
                              "name": "x",
                              "type": "uint256"
                            },
                            {
                              "internalType": "uint256",
                              "name": "y",
                              "type": "uint256"
                            }
                          ],
                          "internalType": "struct Ecc.EcPoint",
                          "name": "a0_",
                          "type": "tuple"
                        },
                        {
                          "components": [
                            {
                              "internalType": "uint256",
                              "name": "x",
                              "type": "uint256"
                            },
                            {
                              "internalType": "uint256",
                              "name": "y",
                              "type": "uint256"
                            }
                          ],
                          "internalType": "struct Ecc.EcPoint",
                          "name": "a1_",
                          "type": "tuple"
                        },
                        {
                          "components": [
                            {
                              "internalType": "uint256",
                              "name": "x",
                              "type": "uint256"
                            },
                            {
                              "internalType": "uint256",
                              "name": "y",
                              "type": "uint256"
                            }
                          ],
                          "internalType": "struct Ecc.EcPoint",
                          "name": "b0_",
                          "type": "tuple"
                        },
                        {
                          "components": [
                            {
                              "internalType": "uint256",
                              "name": "x",
                              "type": "uint256"
                            },
                            {
                              "internalType": "uint256",
                              "name": "y",
                              "type": "uint256"
                            }
                          ],
                          "internalType": "struct Ecc.EcPoint",
                          "name": "b1_",
                          "type": "tuple"
                        },
                        {
                          "internalType": "uint256",
                          "name": "c0",
                          "type": "uint256"
                        },
                        {
                          "internalType": "uint256",
                          "name": "c1",
                          "type": "uint256"
                        },
                        {
                          "internalType": "uint256",
                          "name": "r0__",
                          "type": "uint256"
                        },
                        {
                          "internalType": "uint256",
                          "name": "r1__",
                          "type": "uint256"
                        }
                      ],
                      "internalType": "struct Zkp.WellFormedVoteProof",
                      "name": "wellFormedVoteProof",
                      "type": "tuple"
                    }
                  ],
                  "internalType": "struct Election.Vote[]",
                  "name": "votes",
                  "type": "tuple[]"
                },
                {
                  "components": [
                    {
                      "components": [
                        {
                          "internalType": "uint256",
                          "name": "x",
                          "type": "uint256"
                        },
                        {
                          "internalType": "uint256",
                          "name": "y",
                          "type": "uint256"
                        }
                      ],
                      "internalType": "struct Ecc.EcPoint",
                      "name": "A_",
                      "type": "tuple"
                    },
                    {
                      "components": [
                        {
                          "internalType": "uint256",
                          "name": "x",
                          "type": "uint256"
                        },
                        {
                          "internalType": "uint256",
                          "name": "y",
                          "type": "uint256"
                        }
                      ],
                      "internalType": "struct Ecc.EcPoint",
                      "name": "B_",
                      "type": "tuple"
                    },
                    {
                      "internalType": "uint256",
                      "name": "c",
                      "type": "uint256"
                    },
                    {
                      "internalType": "uint256",
                      "name": "R__",
                      "type": "uint256"
                    }
                  ],
                  "internalType": "struct Zkp.SingleVoteSumProof",
                  "name": "singleVoteSumProof",
                  "type": "tuple"
                }
              ],
              "internalType": "struct Election.Ballot[]",
              "name": "ballots",
              "type": "tuple[]"
            },
            {
              "internalType": "uint256",
              "name": "totalPage",
              "type": "uint256"
            }
          ],
          "internalType": "struct Election.PaginatedBallot",
          "name": "",
          "type": "tuple"
        }
      ],
      "stateMutability": "view",
      "type": "function"
    },
    {
      "inputs": [],
      "name": "getCandidates",
      "outputs": [
        {
          "internalType": "string[]",
          "name": "",
          "type": "string[]"
        }
      ],
      "stateMutability": "view",
      "type": "function"
    },
    {
      "inputs": [],
      "name": "getECCParams",
      "outputs": [
        {
          "components": [
            {
              "internalType": "uint256",
              "name": "gx",
              "type": "uint256"
            },
            {
              "internalType": "uint256",
              "name": "gy",
              "type": "uint256"
            },
            {
              "internalType": "uint256",
              "name": "a",
              "type": "uint256"
            },
            {
              "internalType": "uint256",
              "name": "b",
              "type": "uint256"
            },
            {
              "internalType": "uint256",
              "name": "p",
              "type": "uint256"
            },
            {
              "internalType": "uint256",
              "name": "n",
              "type": "uint256"
            }
          ],
          "internalType": "struct Ecc.EccParams",
          "name": "",
          "type": "tuple"
        }
      ],
      "stateMutability": "pure",
      "type": "function"
    },
    {
      "inputs": [
        {
          "components": [
            {
              "internalType": "uint256",
              "name": "x",
              "type": "uint256"
            },
            {
              "internalType": "uint256",
              "name": "y",
              "type": "uint256"
            }
          ],
          "internalType": "struct Ecc.EcPoint[]",
          "name": "points",
          "type": "tuple[]"
        }
      ],
      "name": "hashMultiplePointsToScalar",
      "outputs": [
        {
          "internalType": "uint256",
          "name": "",
          "type": "uint256"
        }
      ],
      "stateMutability": "pure",
      "type": "function"
    },
    {
      "inputs": [
        {
          "internalType": "uint256",
          "name": "x",
          "type": "uint256"
        },
        {
          "internalType": "uint256",
          "name": "y",
          "type": "uint256"
        }
      ],
      "name": "newEcPoint",
      "outputs": [
        {
          "components": [
            {
              "internalType": "uint256",
              "name": "x",
              "type": "uint256"
            },
            {
              "internalType": "uint256",
              "name": "y",
              "type": "uint256"
            }
          ],
          "internalType": "struct Ecc.EcPoint",
          "name": "",
          "type": "tuple"
        }
      ],
      "stateMutability": "pure",
      "type": "function"
    },
    {
      "inputs": [
        {
          "components": [
            {
              "components": [
                {
                  "components": [
                    {
                      "components": [
                        {
                          "internalType": "uint256",
                          "name": "x",
                          "type": "uint256"
                        },
                        {
                          "internalType": "uint256",
                          "name": "y",
                          "type": "uint256"
                        }
                      ],
                      "internalType": "struct Ecc.EcPoint",
                      "name": "a",
                      "type": "tuple"
                    },
                    {
                      "components": [
                        {
                          "internalType": "uint256",
                          "name": "x",
                          "type": "uint256"
                        },
                        {
                          "internalType": "uint256",
                          "name": "y",
                          "type": "uint256"
                        }
                      ],
                      "internalType": "struct Ecc.EcPoint",
                      "name": "b",
                      "type": "tuple"
                    }
                  ],
                  "internalType": "struct Ecc.ECElGamalCiphertext",
                  "name": "ciphertext",
                  "type": "tuple"
                },
                {
                  "components": [
                    {
                      "components": [
                        {
                          "internalType": "uint256",
                          "name": "x",
                          "type": "uint256"
                        },
                        {
                          "internalType": "uint256",
                          "name": "y",
                          "type": "uint256"
                        }
                      ],
                      "internalType": "struct Ecc.EcPoint",
                      "name": "a0_",
                      "type": "tuple"
                    },
                    {
                      "components": [
                        {
                          "internalType": "uint256",
                          "name": "x",
                          "type": "uint256"
                        },
                        {
                          "internalType": "uint256",
                          "name": "y",
                          "type": "uint256"
                        }
                      ],
                      "internalType": "struct Ecc.EcPoint",
                      "name": "a1_",
                      "type": "tuple"
                    },
                    {
                      "components": [
                        {
                          "internalType": "uint256",
                          "name": "x",
                          "type": "uint256"
                        },
                        {
                          "internalType": "uint256",
                          "name": "y",
                          "type": "uint256"
                        }
                      ],
                      "internalType": "struct Ecc.EcPoint",
                      "name": "b0_",
                      "type": "tuple"
                    },
                    {
                      "components": [
                        {
                          "internalType": "uint256",
                          "name": "x",
                          "type": "uint256"
                        },
                        {
                          "internalType": "uint256",
                          "name": "y",
                          "type": "uint256"
                        }
                      ],
                      "internalType": "struct Ecc.EcPoint",
                      "name": "b1_",
                      "type": "tuple"
                    },
                    {
                      "internalType": "uint256",
                      "name": "c0",
                      "type": "uint256"
                    },
                    {
                      "internalType": "uint256",
                      "name": "c1",
                      "type": "uint256"
                    },
                    {
                      "internalType": "uint256",
                      "name": "r0__",
                      "type": "uint256"
                    },
                    {
                      "internalType": "uint256",
                      "name": "r1__",
                      "type": "uint256"
                    }
                  ],
                  "internalType": "struct Zkp.WellFormedVoteProof",
                  "name": "wellFormedVoteProof",
                  "type": "tuple"
                }
              ],
              "internalType": "struct Election.Vote[]",
              "name": "votes",
              "type": "tuple[]"
            },
            {
              "components": [
                {
                  "components": [
                    {
                      "internalType": "uint256",
                      "name": "x",
                      "type": "uint256"
                    },
                    {
                      "internalType": "uint256",
                      "name": "y",
                      "type": "uint256"
                    }
                  ],
                  "internalType": "struct Ecc.EcPoint",
                  "name": "A_",
                  "type": "tuple"
                },
                {
                  "components": [
                    {
                      "internalType": "uint256",
                      "name": "x",
                      "type": "uint256"
                    },
                    {
                      "internalType": "uint256",
                      "name": "y",
                      "type": "uint256"
                    }
                  ],
                  "internalType": "struct Ecc.EcPoint",
                  "name": "B_",
                  "type": "tuple"
                },
                {
                  "internalType": "uint256",
                  "name": "c",
                  "type": "uint256"
                },
                {
                  "internalType": "uint256",
                  "name": "R__",
                  "type": "uint256"
                }
              ],
              "internalType": "struct Zkp.SingleVoteSumProof",
              "name": "singleVoteSumProof",
              "type": "tuple"
            }
          ],
          "internalType": "struct Election.BallotInput",
          "name": "_ballot",
          "type": "tuple"
        }
      ],
      "name": "submitBallot",
      "outputs": [],
      "stateMutability": "payable",
      "type": "function"
    }
  ],
  "bytecode": "0x6080604052346100335761001d610014610524565b92919091611287565b610025610038565b61570c613306823961570c90f35b61003e565b60405190565b600080fd5b601f801991011690565b634e487b7160e01b600052604160045260246000fd5b9061006d90610043565b810190811060018060401b0382111761008557604052565b61004d565b9061009d610096610038565b9283610063565b565b600080fd5b600080fd5b600080fd5b60018060401b0381116100c45760208091020190565b61004d565b600080fd5b600080fd5b60018060a01b031690565b6100e7906100d3565b90565b6100f3816100de565b036100fa57565b600080fd5b9050519061010c826100ea565b565b90565b61011a8161010e565b0361012157565b600080fd5b9050519061013382610111565b565b91906040838203126101715761016a9061014f604061008a565b9361015d8260008301610126565b6000860152602001610126565b6020830152565b6100ce565b91906040838203126101b2576101ab90610190604061008a565b9361019e8260008301610126565b6000860152602001610126565b6020830152565b6100ce565b919060a083820312610205576101fe906101d1606061008a565b936101df82600083016100ff565b60008601526101f18260208301610135565b6020860152606001610176565b6040830152565b6100ce565b9092919261021f61021a826100ae565b61008a565b9381855260a060208601920283019281841161025e57915b8383106102445750505050565b602060a09161025384866101b7565b815201920191610237565b6100c9565b9080601f830112156102815781602061027e9351910161020a565b90565b6100a9565b60018060401b03811161029c5760208091020190565b61004d565b600080fd5b60018060401b0381116102c2576102be602091610043565b0190565b61004d565b60005b8381106102db575050906000910152565b8060209183015181850152016102ca565b909291926103016102fc826102a6565b61008a565b9381855260208501908284011161031d5761031b926102c7565b565b6102a1565b9080601f830112156103405781602061033d935191016102ec565b90565b6100a9565b92919061035961035482610286565b61008a565b93818552602080860192028101918383116103ae5781905b83821061037f575050505050565b815160018060401b0381116103a95760209161039e8784938701610322565b815201910190610371565b6100a9565b6100c9565b9080601f830112156103d1578160206103ce93519101610345565b90565b6100a9565b60018060401b0381116103ec5760208091020190565b61004d565b90929192610406610401826103d6565b61008a565b938185526020808601920283019281841161044357915b83831061042a5750505050565b6020809161043884866100ff565b81520192019161041d565b6100c9565b9080601f8301121561046657816020610463935191016103f1565b90565b6100a9565b60018060401b031690565b61047f8161046b565b0361048657565b600080fd5b9050519061049882610476565b565b60808183031261051f57600081015160018060401b03811161051a57826104c2918301610263565b92602082015160018060401b03811161051557836104e19184016103b3565b9260408301519060018060401b038211610510576105048161050d938601610448565b9360600161048b565b90565b6100a4565b6100a4565b6100a4565b61009f565b610542618a12803803806105378161008a565b92833981019061049a565b90919293565b5190565b90565b90565b61056661056161056b9261054c565b61054f565b61010e565b90565b60209181520190565b60207f6972656400000000000000000000000000000000000000000000000000000000917f4174206c656173742074776f2063616e6469646174657320617265207265717560008201520152565b6105d2602460409261056e565b6105db81610577565b0190565b6105f590602081019060008183039101526105c5565b90565b156105ff57565b610607610038565b62461bcd60e51b81528061061d600482016105df565b0390fd5b5190565b90565b61063c61063761064192610625565b61054f565b61010e565b90565b60207f6564000000000000000000000000000000000000000000000000000000000000917f4174206c65617374206f6e6520617574686f726974792069732072657175697260008201520152565b61069f602260409261056e565b6106a881610644565b0190565b6106c29060208101906000818303910152610692565b90565b156106cc57565b6106d4610038565b62461bcd60e51b8152806106ea600482016106ac565b0390fd5b60016106fa910161010e565b90565b634e487b7160e01b600052601160045260246000fd5b6107226107289193929361010e565b9261010e565b820180921161073357565b6106fd565b634e487b7160e01b600052603260045260246000fd5b9061075882610621565b811015610769576020809102010190565b610738565b610778905161010e565b90565b60007f4475706c696361746520617574686f72697479207075626c6963206b65790000910152565b6107b0601e60209261056e565b6107b98161077b565b0190565b6107d390602081019060008183039101526107a3565b90565b156107dd57565b6107e5610038565b62461bcd60e51b8152806107fb600482016107bd565b0390fd5b60007f4475706c696361746520617574686f726974792070726f6f6600000000000000910152565b610834601960209261056e565b61083d816107ff565b0190565b6108579060208101906000818303910152610827565b90565b1561086157565b610869610038565b62461bcd60e51b81528061087f60048201610841565b0390fd5b5190565b9061089182610883565b8110156108a2576020809102010190565b610738565b6108b190516100de565b90565b6108c86108c36108cd926100d3565b61054f565b6100d3565b90565b6108d9906108b4565b90565b6108e5906108d0565b90565b906108f2906108dc565b600052602052604060002090565b60001b90565b9061091260ff91610900565b9181191691161790565b151590565b61092a9061091c565b90565b90565b9061094561094061094c92610921565b61092d565b8254610906565b9055565b60007f496e76616c6964207075626c6963206b65790000000000000000000000000000910152565b610985601260209261056e565b61098e81610950565b0190565b6109a89060208101906000818303910152610978565b90565b156109b257565b6109ba610038565b62461bcd60e51b8152806109d060048201610992565b0390fd5b60007f496e76616c6964206b65792070726f6f66000000000000000000000000000000910152565b610a09601160209261056e565b610a12816109d4565b0190565b610a2c90602081019060008183039101526109fc565b90565b15610a3657565b610a3e610038565b62461bcd60e51b815280610a5460048201610a16565b0390fd5b90565b600052602060002090565b5490565b610a7381610a66565b821015610a8e57610a85600591610a5b565b91020190600090565b610738565b634e487b7160e01b600052600060045260246000fd5b90610aba60018060a01b0391610900565b9181191691161790565b90565b90610adc610ad7610ae3926108dc565b610ac4565b8254610aa9565b9055565b5190565b90610af860001991610900565b9181191691161790565b610b16610b11610b1b9261010e565b61054f565b61010e565b90565b90565b90610b36610b31610b3d92610b02565b610b1e565b8254610aeb565b9055565b90610b6e60206001610b7494610b6660008201610b606000880161076e565b90610b21565b01920161076e565b90610b21565b565b90610b8091610b41565b565b5190565b90610bb360206001610bb994610bab60008201610ba56000880161076e565b90610b21565b01920161076e565b90610b21565b565b90610bc591610b86565b565b90610c0d60406003610c1394610bec60008201610be6600088016108a7565b90610ac7565b610c0560018201610bff60208801610ae7565b90610b76565b019201610b82565b90610bbb565b565b9190610c2657610c2491610bc7565b565b610a93565b1b90565b9081549168010000000000000000831015610c5f5782610c57916001610c5d95018155610a6a565b90610c15565b565b61004d565b60001c90565b90565b610c79610c7e91610c64565b610c6a565b90565b610c8b9054610c6d565b90565b90610c989061010e565b9052565b610ca6604061008a565b90565b90610ce2610cd96001610cba610c9c565b94610cd3610cca60008301610c81565b60008801610c8e565b01610c81565b60208401610c8e565b565b610ced90610ca9565b90565b60200190565b5490565b610d09610d0f9193929361010e565b9261010e565b91610d1b83820261010e565b928184041490151715610d2a57565b6106fd565b600190818003010490565b600052602060002090565b634e487b7160e01b600052602260045260246000fd5b9060016002830492168015610d7b575b6020831014610d7657565b610d45565b91607f1691610d6b565b600052602060002090565b1c90565b90610da89060001990602003600802610d90565b8154169055565b91906008610dcb910291610dc560001984610c2b565b92610c2b565b9181191691161790565b9190610deb610de6610df393610b02565b610b1e565b908354610daf565b9055565b600090565b610e0e91610e08610df7565b91610dd5565b565b5b818110610e1c575050565b80610e2a6000600193610dfc565b01610e11565b90610e419060001990600802610d90565b191690565b81610e5091610e30565b906002021790565b90600091610e70610e6882610d85565b928354610e46565b905555565b601f602091010490565b91929060208210600014610ed957601f8411600114610ea957610ea3929350610e46565b90555b5b565b5090610ecf610ed4936001610ec6610ec085610d85565b92610e75565b82019101610e10565b610e58565b610ea6565b50610f108293610eea600194610d85565b610f09610ef685610e75565b820192601f861680610f1b575b50610e75565b0190610e10565b600202179055610ea7565b610f2790888603610d94565b38610f03565b929091680100000000000000008211610f8f57602011600014610f805760208110600014610f6457610f5e91610e46565b90555b5b565b60019160ff1916610f7484610d85565b55600202019055610f61565b60019150600202019055610f62565b61004d565b908154610fa081610d5b565b90818311610fc9575b818310610fb7575b50505050565b610fc093610e7f565b38808080610fb1565b610fd583838387610f2d565b610fa9565b6000610fe591610f94565b565b90600003610ffa57610ff890610fda565b565b610a93565b5b81811061100b575050565b806110196000600193610fe7565b01611000565b909182811061102e575b505050565b61104c61104661104061105795610d2f565b92610d2f565b92610d3a565b918201910190610fff565b388080611029565b90680100000000000000008111611088578161107d61108693610cf6565b9082815561101f565b565b61004d565b5190565b5190565b9190601f81116110a5575b505050565b6110b16110d693610d85565b9060206110bd84610e75565b830193106110de575b6110cf90610e75565b0190610e10565b3880806110a0565b91506110cf819290506110c6565b906110f681611091565b9060018060401b0382116111b657611118826111128554610d5b565b85611095565b602090601f831160011461114d5791809161113c93600092611141575b5050610e46565b90555b565b90915001513880611135565b601f1983169161115c85610d85565b9260005b81811061119e57509160029391856001969410611184575b5050500201905561113f565b611194910151601f841690610e30565b9055388080611178565b91936020600181928787015181550195019201611160565b61004d565b906111c5916110ec565b565b6111ec6111e66111d684610548565b936111e1858561105f565b610cf0565b91610d3a565b6000915b8383106111fd5750505050565b600160208261121561120f849561108d565b866111bb565b019201920191906111f0565b9061122b916111c7565b565b9061123e60018060401b0391610900565b9181191691161790565b61125c6112576112619261046b565b61054f565b61046b565b90565b90565b9061127c61127761128392611248565b611264565b825461122d565b9055565b92916112916116d2565b6112b661129d83610548565b6112b06112aa6001610552565b9161010e565b116105f8565b6112db6112c285610621565b6112d56112cf6000610628565b9161010e565b116106c5565b6112e56000610628565b945b856113026112fc6112f788610621565b61010e565b9161010e565b10156114ba5761131c866113166001610552565b90610713565b5b8061133861133261132d89610621565b61010e565b9161010e565b10156114a157806113f8876113e66113e06113db600060406113d28f83836113c16113ca936113bb6113fd9f8d61137f87602061137684889061074e565b5101510161076e565b6113aa6113a461139f8a602061139687899061074e565b5101510161076e565b61010e565b9161010e565b1415918215611452575b50506107d6565b8b61074e565b5101510161076e565b96899061074e565b5101510161076e565b61010e565b9161010e565b1415888a8215611402575b505061085a565b6106ee565b61131d565b81925061143e6020604061143561142d8383611424611443986114499a61074e565b5101510161076e565b96899061074e565b5101510161076e565b61010e565b9161010e565b1415888a6113f1565b81925061148c6020806114836114919461147d83806114748d6114979b61074e565b5101510161076e565b9761074e565b5101510161076e565b61010e565b9161010e565b14158f8e906113b4565b5091946114b0909391936106ee565b94919290926112e7565b9392919094506114ca6000610628565b5b806114e66114e06114db89610883565b61010e565b9161010e565b10156115225761151d906115186001611513600861150d6115088c8790610887565b6108a7565b906108e8565b610930565b6106ee565b6114cb565b50919350916115316000610628565b5b8061154d61154761154288610621565b61010e565b9161010e565b101561162a576115eb906115726000602061156989859061074e565b5101510161076e565b61158561157f6000610628565b9161010e565b1415806115f0575b611596906109ab565b6115c76115c260206115a989859061074e565b51015160406115b98a869061074e565b510151906118c1565b610a2f565b6115e66115d46006610a58565b6115df88849061074e565b5190610c2f565b6106ee565b611532565b5061159661160e6020806116058a869061074e565b5101510161076e565b61162161161b6000610628565b9161010e565b1415905061158d565b5090916116506020611646866116406000610628565b9061074e565b5101516004610b76565b61165a6001610552565b5b8061167661167061166b88610621565b61010e565b9161010e565b10156116b7576116b2906116ad6116a660046116a160206116988b879061074e565b51015191610ce4565b6119eb565b6004610b76565b6106ee565b61165b565b509092506116c96116d0926002611221565b6003611267565b565b6116da6116dc565b565b6116e4611789565b565b90565b6116fd6116f8611702926116e6565b61054f565b61010e565b90565b61172e7f79be667ef9dcbbac55a06295ce870b07029bfcdb2dce28d959f2815b16f817986116e9565b90565b90565b61174861174361174d92611731565b61054f565b61010e565b90565b6117797f483ada7726a3c4655da4fbfc0e1108a8fd17b448a68554199c47d08ffb10d4b8611734565b90565b611786604061008a565b90565b6117c4611794611705565b6117bd61179f611750565b6117b46117aa61177c565b9360008501610c8e565b60208301610c8e565b6000610b76565b565b600090565b90565b6117e26117dd6117e7926117cb565b61054f565b61010e565b90565b60018060401b0381116118005760208091020190565b61004d565b90611817611812836117ea565b61008a565b918252565b600090565b611829610c9c565b906020808361183661181c565b81520161184161181c565b81525050565b61184f611821565b90565b60005b82811061186157505050565b60209061186c611847565b8184015201611855565b9061189b61188383611805565b9260208061189186936117ea565b9201910390611852565b565b5190565b906118ab8261189d565b8110156118bc576020809102010190565b610738565b9061198f61198a6119846000611995946118d96117c6565b5061197c6119196118fe6118ef6020850161076e565b6118f886610ce4565b90611b61565b61191361190c86860161076e565b8b90611b61565b90611bab565b61195461192e61192960026117ce565b611876565b9961194e8b91879061194861194283610628565b856118a1565b52610628565b906118a1565b5150611976899160019061197061196a83610552565b856118a1565b52610552565b906118a1565b51500161076e565b93611d3e565b61010e565b9161010e565b1490565b6119a1611821565b90565b90565b6119bb6119b66119c0926119a4565b61054f565b61010e565b90565b6119d26401000003d0196119a7565b90565b634e487b7160e01b600052601260045260246000fd5b906119f4611999565b506119ff6000610628565b50611a0a6000610628565b50611a156000610628565b50611a226000830161076e565b611a3f611a39611a346000850161076e565b61010e565b9161010e565b14600014611b0457611a5e6020611a5781850161076e565b920161076e565b611a666119c3565b918215611aff5708611a81611a7b6000610628565b9161010e565b14600014611ac257506000611abf611ab66000611ab1611aa8611aa261177c565b95610628565b60008601610c8e565b610628565b60208301610c8e565b90565b611af181611ae16020611ada6000611afc960161076e565b920161076e565b611aeb6001610552565b916127d6565b90915b919091612a35565b90565b6119d5565b81611b5a91611b246020611b1d6000611afc970161076e565b930161076e565b906001611b3f6020611b386000850161076e565b930161076e565b92611b54611b4e600193610552565b92610552565b94611faf565b9091611af4565b611ba891611b9c91611b71611999565b5090611b8b6020611b846000840161076e565b920161076e565b90611b966001610552565b92612aec565b91909190919091612a35565b90565b611bc0611bc692611bba611999565b50612c1f565b906119eb565b90565b60007f4e6f20706f696e74732070726f76696465640000000000000000000000000000910152565b611bfe601260209261056e565b611c0781611bc9565b0190565b611c219060208101906000818303910152611bf1565b90565b15611c2b57565b611c33610038565b62461bcd60e51b815280611c4960048201611c0b565b0390fd5b905090565b611c77611c6e92602092611c6581611091565b94858093611c4d565b938491016102c7565b0190565b60007f2c00000000000000000000000000000000000000000000000000000000000000910152565b611caf60018092611c4d565b611cb881611c7b565b0190565b611ccd611cd291611cd89493611c52565b611ca3565b90611c52565b90565b5190565b905090565b611d09611d0092602092611cf781611cdb565b94858093611cdf565b938491016102c7565b0190565b611d1691611ce4565b90565b611d21610038565b3d6000823e3d90fd5b611d36611d3b91610c64565b610b02565b90565b90611d47610df7565b50611d6d611d548361189d565b611d67611d616000610628565b9161010e565b11611c24565b611d8182611d7b6000610628565b906118a1565b51611d8c6001610552565b905b81611da9611da3611d9e8761189d565b61010e565b9161010e565b1015611dd457611dc8611dce91611dc18685906118a1565b51906119eb565b916106ee565b90611d8e565b602092935060009150611e4090611e2f611e0a611e0586611dfe611df988870161076e565b612d2d565b940161076e565b612d2d565b91611e21611e16610038565b938492888401611cbc565b868201810382520382610063565b611e37610038565b91829182611d0d565b039060025afa15611e6157611e5e611e59600051610900565b611d2a565b90565b611d19565b60018060401b038111611e795760200290565b61004d565b611e8a611e8f91611e66565b61008a565b90565b369037565b90611eb5611ea483611e7e565b92611eaf8491611e66565b90611e92565b565b611ec16004611e97565b90565b50600490565b90611ed482611ec4565b811015611ee2576020020190565b610738565b90565b611efe611ef9611f0392611ee7565b61054f565b61010e565b90565b60007f557365206a6163446f75626c652066756e6374696f6e20696e73746561640000910152565b611f3b601e60209261056e565b611f4481611f06565b0190565b611f5e9060208101906000818303910152611f2e565b90565b15611f6857565b611f70610038565b62461bcd60e51b815280611f8660048201611f48565b0390fd5b611f99611f9f9193929361010e565b9261010e565b8203918211611faa57565b6106fd565b929593909195611fbd610df7565b50611fc6610df7565b50611fcf610df7565b5083611fe4611fde6000610628565b9161010e565b1480612770575b6127625780612003611ffd6000610628565b9161010e565b1480612747575b61273b57612016611eb7565b9287886120216119c3565b9081156127365761204692096120418661203b6000610628565b90611eca565b610c8e565b8761206361205e866120586000610628565b90611eca565b61076e565b61206b6119c3565b90811561273157612090920961208b866120856001610552565b90611eca565b610c8e565b868761209a6119c3565b90811561272c576120bf92096120ba866120b460026117ce565b90611eca565b610c8e565b866120dc6120d7866120d160026117ce565b90611eca565b61076e565b6120e46119c3565b908115612727576121099209612104866120fe6003611eea565b90611eca565b610c8e565b6121136004611e7e565b9461213061212b8661212560026117ce565b90611eca565b61076e565b6121386119c3565b9081156127225761214d920960008701610c8e565b6121696121648561215e6003611eea565b90611eca565b61076e565b6121716119c3565b90811561271d57612186920960208601610c8e565b906121a361219e846121986000610628565b90611eca565b61076e565b906121ac6119c3565b928315612718576121df936121da936121c9920960408701610c8e565b926121d46001610552565b90611eca565b61076e565b6121e76119c3565b908115612713576121fc920960608301610c8e565b926122196122148561220e6000610628565b90611eca565b61076e565b61224661224061223b6122368861223060026117ce565b90611eca565b61076e565b61010e565b9161010e565b141580156126bd575b61225890611f61565b612260611eb7565b9261227d6122788661227260026117ce565b90611eca565b61076e565b6122aa6122886119c3565b6122a461229f896122996000610628565b90611eca565b61076e565b90611f8a565b6122b26119c3565b9081156126b8576122d792086122d2866122cc6000610628565b90611eca565b610c8e565b6122f36122ee866122e86003611eea565b90611eca565b61076e565b6123206122fe6119c3565b61231a6123158961230f6001610552565b90611eca565b61076e565b90611f8a565b6123286119c3565b9081156126b35761234d9208612348866123426001610552565b90611eca565b610c8e565b6123696123648561235e6000610628565b90611eca565b61076e565b6123856123808661237a6000610628565b90611eca565b61076e565b61238d6119c3565b9081156126ae576123b292096123ad866123a760026117ce565b90611eca565b610c8e565b6123ce6123c9856123c360026117ce565b90611eca565b61076e565b6123ea6123e5866123df6000610628565b90611eca565b61076e565b6123f26119c3565b9081156126a95761241792096124128661240c6003611eea565b90611eca565b610c8e565b61243361242e856124286001610552565b90611eca565b61076e565b61244f61244a866124446001610552565b90611eca565b61076e565b6124576119c3565b9182156126a4570961248c61246a6119c3565b6124866124818861247b6003611eea565b90611eca565b61076e565b90611f8a565b6124946119c3565b91821561269f57086124a46119c3565b6002906124c36124be896124b86000610628565b90611eca565b61076e565b6124df6124da896124d460026117ce565b90611eca565b61076e565b6124e76119c3565b91821561269a57096124f76119c3565b9081156126955761250a612511946117ce565b0990611f8a565b6125196119c3565b91821561269057089461253e612539866125336001610552565b90611eca565b61076e565b61255a6125558361254f6000610628565b90611eca565b61076e565b6125766125718861256b60026117ce565b90611eca565b61076e565b61257e6119c3565b91821561268b57096125986125916119c3565b8990611f8a565b6125a06119c3565b91821561268657086125b06119c3565b9182156126815709906125dd6125d86125c76119c3565b926125d26001610552565b90611eca565b61076e565b906125fa6125f5886125ef6003611eea565b90611eca565b61076e565b6126026119c3565b90811561267c57612614930990611f8a565b9061261d6119c3565b8015612677576126429261263d9208956126376000610628565b90611eca565b61076e565b919061264c6119c3565b918215612672570961265c6119c3565b91821561266d570992919291929190565b6119d5565b6119d5565b6119d5565b6119d5565b6119d5565b6119d5565b6119d5565b6119d5565b6119d5565b6119d5565b6119d5565b6119d5565b6119d5565b6119d5565b6119d5565b6119d5565b506122586126dd6126d8866126d26001610552565b90611eca565b61076e565b61270a6127046126ff6126fa896126f46003611eea565b90611eca565b61076e565b61010e565b9161010e565b1415905061224f565b6119d5565b6119d5565b6119d5565b6119d5565b6119d5565b6119d5565b6119d5565b6119d5565b50509250919291929190565b508161275c6127566000610628565b9161010e565b1461200a565b925093945050919291929190565b508261278561277f6000610628565b9161010e565b14611feb565b90565b6127a261279d6127a79261278b565b61054f565b61010e565b90565b6127b46000610628565b90565b90565b6127ce6127c96127d3926127b7565b61054f565b61010e565b90565b92906127e0610df7565b506127e9610df7565b506127f2610df7565b50826128076128016000610628565b9161010e565b14612a2b5783846128166119c3565b918215612a2657099381826128296119c3565b918215612a21570990848561283c6119c3565b918215612a1c570990600490836128516119c3565b918215612a1757096128616119c3565b918215612a12576128719061278e565b099560039061287e6119c3565b918215612a0d5761288e90611eea565b09906128986127aa565b90806128a26119c3565b918215612a0857096128b26119c3565b918215612a0357096128c26119c3565b9182156129fe57089485866128d56119c3565b9182156129f957096128e56119c3565b8290836128f06119c3565b9081156129f457612902930890611f8a565b61290a6119c3565b9182156129ef5708959061292661291f6119c3565b8890611f8a565b61292e6119c3565b9182156129ea570861293e6119c3565b9182156129e557099061294f6119c3565b6008918061295b6119c3565b9182156129e0570961296b6119c3565b9081156129db5761297e612985946127ba565b0990611f8a565b61298d6119c3565b9182156129d6570892600291906129a26119c3565b9182156129d157096129b26119c3565b9182156129cc576129c2906117ce565b0992919291929190565b6119d5565b6119d5565b6119d5565b6119d5565b6119d5565b6119d5565b6119d5565b6119d5565b6119d5565b6119d5565b6119d5565b6119d5565b6119d5565b6119d5565b6119d5565b6119d5565b6119d5565b6119d5565b6119d5565b9192919291929190565b9091612a4990612a43611999565b50612e5b565b908182612a546119c3565b918215612ac557099081612a666119c3565b918215612ac05709929190612a796119c3565b918215612abb5709612a896119c3565b908115612ab657612ab39209612aaa612aa061177c565b9360008501610c8e565b60208301610c8e565b90565b6119d5565b6119d5565b6119d5565b6119d5565b612ad6612adc9161010e565b9161010e565b908115612ae7570490565b6119d5565b929192612af7610df7565b50612b00610df7565b50612b09610df7565b5080612b1e612b186000610628565b9161010e565b14612bf1579390612b2f6000610628565b93612b3a6000610628565b93612b456001610552565b965b80612b5b612b556000610628565b9161010e565b14612be55780612b6b6001610552565b16612b7f612b796000610628565b9161010e565b03612bb9575b90612b9e612ba79392612b9860026117ce565b90612aca565b939190916127d6565b95919594909592959195949094612b47565b95612b9e95612ba7939298612bd5929190869085928c94611faf565b9891969096979192935050612b85565b50505050909291929190565b50929092919291929190565b612c09612c0f9161010e565b9161010e565b908115612c1a570690565b6119d5565b612c27611999565b50612c84612c66612c58612c3d6000850161076e565b93612c526020612c4b6119c3565b920161076e565b90611f8a565b612c606119c3565b90612bfd565b612c7b612c7161177c565b9360008501610c8e565b60208301610c8e565b90565b606090565b90612c97910161010e565b90565b90612cac612ca7836102a6565b61008a565b918252565b369037565b90612cdb612cc383612c9a565b92602080612cd186936102a6565b9201910390612cb1565b565b6001612ce9910361010e565b90565b90565b612d03612cfe612d0892612cec565b61054f565b61010e565b90565b612d17612d1d9161010e565b9161010e565b908115612d28570490565b6119d5565b612d35612c87565b50612d52612d42826130a3565b612d4c6001610552565b90612c8c565b90612d5c82612cb6565b91612d65610df7565b5060200182015b600115612dd057612d7f612dab91612cdd565b916f181899199a1a9b1b9c1cb0b131b232b360811b600a82061a8353612da5600a612cef565b90612d0b565b80612dbf612db96000610628565b9161010e565b14612dca5790612d6c565b50505b90565b5050612dcd565b60007f496e76616c6964206e756d626572000000000000000000000000000000000000910152565b612e0c600e60209261056e565b612e1581612dd7565b0190565b612e2f9060208101906000818303910152612dff565b90565b15612e3957565b612e41610038565b62461bcd60e51b815280612e5760048201612e19565b0390fd5b612e63610df7565b5080612e78612e726000610628565b9161010e565b141580612f6a575b80612f42575b612e8f90612e32565b612e996000610628565b612ea36001610552565b90612eac6119c3565b91612eb5610df7565b505b83612ecb612ec56000610628565b9161010e565b14612f3b57612edb838590612aca565b819291612ee66119c3565b8291612ef06119c3565b908115612f3657612f02930990611f8a565b91612f0b6119c3565b8015612f3157612f2a93612f2492089395809592610cfa565b90611f8a565b9290612eb7565b6119d5565b6119d5565b5091505090565b50612e8f612f4e6119c3565b612f61612f5b6000610628565b9161010e565b14159050612e86565b5080612f85612f7f612f7a6119c3565b61010e565b9161010e565b1415612e80565b90565b612fa3612f9e612fa892612f8c565b61054f565b61010e565b90565b90565b612fc2612fbd612fc792612fab565b61054f565b61010e565b90565b90565b612fe1612fdc612fe692612fca565b61054f565b61010e565b90565b90565b613000612ffb61300592612fe9565b61054f565b61010e565b90565b90565b61301f61301a61302492613008565b61054f565b61010e565b90565b90565b61303e61303961304392613027565b61054f565b61010e565b90565b90565b61305d61305861306292613046565b61054f565b61010e565b90565b90565b61307c61307761308192613065565b61054f565b61010e565b90565b90565b61309b6130966130a092613084565b61054f565b61010e565b90565b6130ab610df7565b506130b66000610628565b90806130e56130df7a184f03e93ff9f4daa797ed6e38ed64bf6a1f010000000000000000612f8f565b9161010e565b10156132bd575b8061310d6131076d04ee2d6d415b85acef8100000000612fcd565b9161010e565b1015613282575b8061312e613128662386f26fc1000061300b565b9161010e565b101561324e575b8061314c6131466305f5e100613049565b9161010e565b101561321d575b80613168613162612710613068565b9161010e565b10156131ee575b8061318361317d6064613087565b9161010e565b10156131c0575b61319d613197600a612cef565b9161010e565b10156131a7575b90565b6131bb906131b56001610552565b90612c8c565b6131a4565b6131d76131e8916131d16064613087565b90612d0b565b916131e260026117ce565b90612c8c565b9061318a565b61320661321791613200612710613068565b90612d0b565b91613211600461278e565b90612c8c565b9061316f565b613237613248916132316305f5e100613049565b90612d0b565b9161324260086127ba565b90612c8c565b90613153565b61326b61327c91613265662386f26fc1000061300b565b90612d0b565b91613276601061302a565b90612c8c565b90613135565b6132a66132b7916132a06d04ee2d6d415b85acef8100000000612fcd565b90612d0b565b916132b16020612fec565b90612c8c565b90613114565b6132ee6132ff916132e87a184f03e93ff9f4daa797ed6e38ed64bf6a1f010000000000000000612f8f565b90612d0b565b916132f96040612fae565b90612c8c565b906130ec56fe60806040526004361015610013575b6118a3565b61001e60003561015d565b806303a507be1461015857806306a49fce146101535780630dd3849c1461014e5780632f5bb336146101495780633197cbb61461014457806332e7c5bf1461013f5780633477ee2e1461013a578063477decc014610135578063494503d4146101305780635c632b381461012b5780636b7a524f146101265780636fecb623146101215780637a308a4c1461011c5780638b8fbd9214610117578063b3bf549514610112578063c21b48651461010d578063c392650514610108578063c9e525df14610103578063f446c1d0146100fe5763fb7344d00361000e5761186e565b611556565b6114ea565b61146d565b611438565b611302565b611289565b611218565b61118c565b611139565b61107d565b610e5b565b610c2a565b610b26565b6108cc565b610860565b6107c0565b6103ec565b61034b565b610202565b60e01c90565b60405190565b600080fd5b600080fd5b600091031261017e57565b61016e565b90565b90565b90565b6101a061019b6101a592610183565b610189565b610186565b90565b6101d17f79be667ef9dcbbac55a06295ce870b07029bfcdb2dce28d959f2815b16f8179861018c565b90565b6101dc6101a8565b90565b6101e890610186565b9052565b9190610200906000602085019401906101df565b565b3461023257610212366004610173565b61022e61021d6101d4565b610225610163565b918291826101ec565b0390f35b610169565b5190565b60209181520190565b60200190565b5190565b60209181520190565b60005b83811061026b575050906000910152565b80602091830151818501520161025a565b601f801991011690565b6102a56102ae6020936102b39361029c8161024a565b9384809361024e565b95869101610257565b61027c565b0190565b906102c191610286565b90565b60200190565b906102de6102d783610237565b809261023b565b90816102ef60208302840194610244565b926000915b83831061030357505050505090565b9091929394602061032561031f838560019503875289516102b7565b976102c4565b93019301919392906102f4565b61034891602082019160008184039101526102ca565b90565b3461037b5761035b366004610173565b610377610366611948565b61036e610163565b91829182610332565b0390f35b610169565b60001c90565b90565b61039561039a91610380565b610386565b90565b6103a79054610389565b90565b6004906103c560016103be6000850161039d565b930161039d565b90565b9160206103ea9294936103e3604082019660008301906101df565b01906101df565b565b3461041d576103fc366004610173565b6104046103aa565b90610419610410610163565b928392836103c8565b0390f35b610169565b600080fd5b600080fd5b634e487b7160e01b600052604160045260246000fd5b9061044c9061027c565b810190811067ffffffffffffffff82111761046657604052565b61042c565b9061047e610477610163565b9283610442565b565b600080fd5b600080fd5b67ffffffffffffffff81116104a25760208091020190565b61042c565b600080fd5b6104b581610186565b036104bc57565b600080fd5b905035906104ce826104ac565b565b919060408382031261050c57610505906104ea604061046b565b936104f882600083016104c1565b60008601526020016104c1565b6020830152565b610427565b919060808382031261054d576105469061052b604061046b565b9361053982600083016104d0565b60008601526040016104d0565b6020830152565b610427565b919061018083820312610600576105f99061056e61010061046b565b9361057c82600083016104d0565b600086015261058e82604083016104d0565b60208601526105a082608083016104d0565b60408601526105b28260c083016104d0565b60608601526105c58261010083016104c1565b60808601526105d88261012083016104c1565b60a08601526105eb8261014083016104c1565b60c0860152610160016104c1565b60e0830152565b610427565b9190610200838203126106425761063b90610620604061046b565b9361062e8260008301610511565b6000860152608001610552565b6020830152565b610427565b9092919261065c6106578261048a565b61046b565b9381855261020060208601920283019281841161069d57915b8383106106825750505050565b6020610200916106928486610605565b815201920191610675565b6104a7565b9080601f830112156106c0578160206106bd93359101610647565b90565b610485565b919060c0838203126107255761071e906106df608061046b565b936106ed82600083016104d0565b60008601526106ff82604083016104d0565b602086015261071182608083016104c1565b604086015260a0016104c1565b6060830152565b610427565b91909160e08184031261077f57610741604061046b565b9260008201359167ffffffffffffffff831161077a57610766826107739483016106a2565b60008601526020016106c5565b6020830152565b610480565b610427565b906020828203126107b557600082013567ffffffffffffffff81116107b0576107ad920161072a565b90565b610422565b61016e565b60000190565b6107d36107ce366004610784565b6126d5565b6107db610163565b806107e5816107ba565b0390f35b1c90565b67ffffffffffffffff1690565b61080a90600861080f93026107e9565b6107ed565b90565b9061081d91546107fa565b90565b61082d6003600090610812565b90565b67ffffffffffffffff1690565b61084690610830565b9052565b919061085e9060006020850194019061083d565b565b3461089057610870366004610173565b61088c61087b610820565b610883610163565b9182918261084a565b0390f35b610169565b90565b6108ac6108a76108b192610895565b610189565b610186565b90565b6108be6007610898565b90565b6108c96108b4565b90565b346108fc576108dc366004610173565b6108f86108e76108c1565b6108ef610163565b918291826101ec565b0390f35b610169565b9060208282031261091b57610918916000016104c1565b90565b61016e565b634e487b7160e01b600052603260045260246000fd5b5490565b600052602060002090565b61094e81610936565b8210156109695761096060019161093a565b91020190600090565b610920565b634e487b7160e01b600052600060045260246000fd5b634e487b7160e01b600052602260045260246000fd5b90600160028304921680156109ba575b60208310146109b557565b610984565b91607f16916109aa565b600052602060002090565b90600092918054906109ea6109e38361099a565b809461024e565b91600181169081600014610a435750600114610a06575b505050565b610a1391929394506109c4565b916000925b818410610a2b5750500190388080610a01565b60018160209295939554848601520191019290610a18565b92949550505060ff1916825215156020020190388080610a01565b90610a68916109cf565b90565b90610a8b610a8492610a7b610163565b93848092610a5e565b0383610442565b565b90600010610aa157610a9e90610a6b565b90565b61096e565b6002610ab181610936565b821015610ace57610acb91610ac591610945565b90610a8d565b90565b600080fd5b60209181520190565b610afb610b04602093610b0993610af28161024a565b93848093610ad3565b95869101610257565b61027c565b0190565b610b239160208201916000818403910152610adc565b90565b34610b5657610b52610b41610b3c366004610901565b610aa6565b610b49610163565b91829182610b0d565b0390f35b610169565b67ffffffffffffffff8111610b735760208091020190565b61042c565b90929192610b8d610b8882610b5b565b61046b565b938185526040602086019202830192818411610bcc57915b838310610bb25750505050565b6020604091610bc184866104d0565b815201920191610ba5565b6104a7565b9080601f83011215610bef57816020610bec93359101610b78565b90565b610485565b90602082820312610c2557600082013567ffffffffffffffff8111610c2057610c1d9201610bd1565b90565b610422565b61016e565b34610c5a57610c56610c45610c40366004610bf4565b612b22565b610c4d610163565b918291826101ec565b0390f35b610169565b5490565b600052602060002090565b610c7781610c5f565b821015610c9257610c89600591610c63565b91020190600090565b610920565b60018060a01b031690565b610cae610cb391610380565b610c97565b90565b610cc09054610ca2565b90565b90610ccd90610186565b9052565b610cdb604061046b565b90565b90610d17610d0e6001610cef610cd1565b94610d08610cff6000830161039d565b60008801610cc3565b0161039d565b60208401610cc3565b565b610d23604061046b565b90565b90610d5f610d566001610d37610d19565b94610d50610d476000830161039d565b60008801610cc3565b0161039d565b60208401610cc3565b565b600690610d6d82610c5f565b811015610da657610d7d91610c6e565b50610d8a60008201610cb6565b91610da36003610d9c60018501610cde565b9301610d26565b90565b600080fd5b60018060a01b031690565b610dbf90610dab565b90565b610dcb90610db6565b9052565b610dd890610186565b9052565b90602080610e0093610df660008201516000860190610dcf565b0151910190610dcf565b565b90602080610e2693610e1c60008201516000860190610dcf565b0151910190610dcf565b565b606090610e52610e599496959396610e4860a08401986000850190610dc2565b6020830190610ddc565b0190610e02565b565b34610e8e57610e8a610e76610e71366004610901565b610d61565b610e81939193610163565b93849384610e28565b0390f35b610169565b5490565b600052602060002090565b610eab81610e93565b821015610ec657610ebd600891610e97565b91020190600090565b610920565b610ed7610edc91610380565b6107ed565b90565b610ee99054610ecb565b90565b60401c90565b610efe610f0391610eec565b610c97565b90565b610f109054610ef2565b90565b52565b610f20608061046b565b90565b90610f8c610f836005610f34610f16565b94610f4d610f4460008301610cde565b60008801610f13565b610f65610f5c60028301610cde565b60208801610f13565b610f7d610f746004830161039d565b60408801610cc3565b0161039d565b60608401610cc3565b565b600790610f9a82610e93565b811015610fd357610faa91610ea2565b50610fb760008201610edf565b91610fd06002610fc960008501610f06565b9301610f23565b90565b600080fd5b90602080610ffc93610ff260008201516000860190610dcf565b0151910190610dcf565b565b9060a060606110479361101960008201516000860190610fd8565b61102b60208201516040860190610fd8565b61103d60408201516080860190610dcf565b0151910190610dcf565b565b60409061107461107b949695939661106a610100840198600085019061083d565b6020830190610dc2565b0190610ffe565b565b346110b0576110ac611098611093366004610901565b610f8e565b6110a3939193610163565b93849384611049565b0390f35b610169565b9060a080611121936110cf60008201516000860190610dcf565b6110e160208201516020860190610dcf565b6110f360408201516040860190610dcf565b61110560608201516060860190610dcf565b61111760808201516080860190610dcf565b0151910190610dcf565b565b919061113790600060c085019401906110b5565b565b3461116957611149366004610173565b611165611154612cca565b61115c610163565b91829182611123565b0390f35b610169565b60009061118960016111826000850161039d565b930161039d565b90565b346111bd5761119c366004610173565b6111a461116e565b906111b96111b0610163565b928392836103c8565b0390f35b610169565b90565b6111d96111d46111de926111c2565b610189565b610186565b90565b61120a7f483ada7726a3c4655da4fbfc0e1108a8fd17b448a68554199c47d08ffb10d4b86111c5565b90565b6112156111e1565b90565b3461124857611228366004610173565b61124461123361120d565b61123b610163565b918291826101ec565b0390f35b610169565b90565b61126461125f6112699261124d565b610189565b610186565b90565b61127b6401000003d019611250565b90565b61128661126c565b90565b346112b957611299366004610173565b6112b56112a461127e565b6112ac610163565b918291826101ec565b0390f35b610169565b91906040838203126112e757806112db6112e492600086016104c1565b936020016104c1565b90565b61016e565b919061130090600060408501940190610ddc565b565b346113335761132f61131e6113183660046112be565b90612d97565b611326610163565b918291826112ec565b0390f35b610169565b5190565b60209181520190565b60200190565b61135490610db6565b9052565b9060208061137c9361137260008201516000860190610dcf565b0151910190610dcf565b565b90606060406113b5936113996000820151600086019061134b565b6113ab60208201516020860190610fd8565b0151910190611358565b565b906113c48160a09361137e565b0190565b60200190565b906113eb6113e56113de84611338565b809361133c565b92611345565b9060005b8181106113fc5750505090565b90919261141561140f60019286516113b7565b946113c8565b91019190916113ef565b61143591602082019160008184039101526113ce565b90565b3461146857611448366004610173565b611464611453612eca565b61145b610163565b9182918261141f565b0390f35b610169565b3461149d57611499611488611483366004610901565b613004565b611490610163565b918291826112ec565b0390f35b610169565b90565b6114b96114b46114be926114a2565b610189565b610186565b90565b6114dc70014551231950b75fc4402da1732fc9bebe196114a5565b90565b6114e76114c1565b90565b3461151a576114fa366004610173565b6115166115056114df565b61150d610163565b918291826101ec565b0390f35b610169565b90565b61153661153161153b9261151f565b610189565b610186565b90565b6115486000611522565b90565b61155361153e565b90565b3461158657611566366004610173565b61158261157161154b565b611579610163565b918291826101ec565b0390f35b610169565b5190565b60209181520190565b60200190565b6115a790610830565b9052565b5190565b60209181520190565b60200190565b90604060206115e3936115d960008201516000860190610fd8565b0151910190610fd8565b565b9061016060e061167a9361160160008201516000860190610fd8565b61161360208201516040860190610fd8565b61162560408201516080860190610fd8565b611637606082015160c0860190610fd8565b61164a6080820151610100860190610dcf565b61165d60a0820151610120860190610dcf565b61167060c0820151610140860190610dcf565b0151910190610dcf565b565b90608060206116a193611697600082015160008601906115be565b01519101906115e5565b565b906116b1816102009361167c565b0190565b60200190565b906116d86116d26116cb846115ab565b80936115af565b926115b8565b9060005b8181106116e95750505090565b9091926117026116fc60019286516116a3565b946116b5565b91019190916116dc565b9060a060606117559361172760008201516000860190610fd8565b61173960208201516040860190610fd8565b61174b60408201516080860190610dcf565b0151910190610dcf565b565b906117a89060608061179d61012084016117796000880151600087019061159e565b61178b6020880151602087019061134b565b604087015185820360408701526116bb565b94015191019061170c565b90565b906117b591611757565b90565b60200190565b906117d26117cb8361158b565b809261158f565b90816117e360208302840194611598565b926000915b8383106117f757505050505090565b90919293946020611819611813838560019503875289516117ab565b976117b8565b93019301919392906117e8565b906118529060208061184760408401600087015185820360008701526117be565b940151910190610dcf565b90565b61186b9160208201916000818403910152611826565b90565b3461189e5761189a611889611884366004610901565b6135cc565b611891610163565b91829182611855565b0390f35b610169565b600080fd5b606090565b67ffffffffffffffff81116118c55760208091020190565b61042c565b906118dc6118d7836118ad565b61046b565b918252565b6118ea90610a6b565b90565b906118f782610936565b611900816118ca565b9261190e602085019161093a565b6000915b83831061191f5750505050565b60016020819261192e856118e1565b815201920192019190611912565b611945906118ed565b90565b6119506118a8565b5061195b600261193c565b90565b61197261196d61197792610830565b610189565b610186565b90565b60207f65722061626c6520746f20636173742062616c6c6f7400000000000000000000917f566f74696e6720706572696f642068617320656e6465642c206e6f206c6f6e6760008201520152565b6119d56036604092610ad3565b6119de8161197a565b0190565b6119f890602081019060008183039101526119c8565b90565b15611a0257565b611a0a610163565b62461bcd60e51b815280611a20600482016119e2565b0390fd5b611a38611a33611a3d92610dab565b610189565b610dab565b90565b611a4990611a24565b90565b611a5590611a40565b90565b90611a6290611a4c565b600052602052604060002090565b60ff1690565b611a82611a8791610380565b611a70565b90565b611a949054611a76565b90565b60407f7920666f7220667572746865722064657461696c000000000000000000000000917f5468697320766f746572206973206e6f7420656c696769626c652c20706c656160008201527f736520636f6e73756c742074686520656c656374696f6e20617574686f72697460208201520152565b611b186054606092610ad3565b611b2181611a97565b0190565b611b3b9060208101906000818303910152611b0b565b90565b15611b4557565b611b4d610163565b62461bcd60e51b815280611b6360048201611b25565b0390fd5b151590565b60207f6572732063616e206f6e6c7920766f7465206f6e636500000000000000000000917f5468697320766f7465722068617320766f746564206265666f72652c20766f7460008201520152565b611bc76036604092610ad3565b611bd081611b6c565b0190565b611bea9060208101906000818303910152611bba565b90565b15611bf457565b611bfc610163565b62461bcd60e51b815280611c1260048201611bd4565b0390fd5b60207f6d6174636820746865206e756d626572206f662063616e646964617465730000917f496e76616c6964206e756d626572206f6620766f7465732c2073686f756c642060008201520152565b611c71603e604092610ad3565b611c7a81611c16565b0190565b611c949060208101906000818303910152611c64565b90565b15611c9e57565b611ca6610163565b62461bcd60e51b815280611cbc60048201611c7e565b0390fd5b6001611ccc9101610186565b90565b90611cd9826115ab565b811015611cea576020809102010190565b610920565b611cf890610cde565b90565b60207f6564000000000000000000000000000000000000000000000000000000000000917f566f74652063697068657274657874206973206e6f742077656c6c2d666f726d60008201520152565b611d566022604092610ad3565b611d5f81611cfb565b0190565b611d799060208101906000818303910152611d49565b90565b15611d8357565b611d8b610163565b62461bcd60e51b815280611da160048201611d63565b0390fd5b90565b611dbc611db7611dc192611da5565b610189565b610186565b90565b60607f6461746500000000000000000000000000000000000000000000000000000000917f566f74652073756d206973206e6f7420657175616c20746f206f6e652c206d6560008201527f616e696e6720612062616c6c6f74206973206361737420666f72206d6f72652060208201527f7468616e206f6e652063616e646964617465206f72207a65726f2063616e646960408201520152565b611e6b6064608092610ad3565b611e7481611dc4565b0190565b611e8e9060208101906000818303910152611e5e565b90565b15611e9857565b611ea0610163565b62461bcd60e51b815280611eb660048201611e78565b0390fd5b611ece611ec9611ed392610186565b610189565b610830565b90565b611ee0608061046b565b90565b90611eed90610830565b9052565b90611efb90610db6565b9052565b52565b52565b90565b600052602060002090565b5490565b611f2081611f13565b821015611f3b57611f32600891611f08565b91020190600090565b610920565b611f4a9051610830565b90565b60001b90565b90611f6667ffffffffffffffff91611f4d565b9181191691161790565b611f84611f7f611f8992610830565b610189565b610830565b90565b90565b90611fa4611f9f611fab92611f70565b611f8c565b8254611f53565b9055565b611fb99051610db6565b90565b60401b90565b90611fdc68010000000000000000600160e01b0391611fbc565b9181191691161790565b90565b90611ffe611ff961200592611a4c565b611fe6565b8254611fc2565b9055565b5190565b5490565b634e487b7160e01b600052601160045260246000fd5b61203661203c91939293610186565b92610186565b91612048838202610186565b92818404149015171561205757565b612011565b612067906010612027565b90565b600052602060002090565b1b90565b9190600861209591029161208f60001984612075565b92612075565b9181191691161790565b6120b36120ae6120b892610186565b610189565b610186565b90565b90565b91906120d46120cf6120dc9361209f565b6120bb565b908354612079565b9055565b600090565b6120f7916120f16120e0565b916120be565b565b600060016121139261210d838083016120e5565b016120e5565b565b9060000361212857612126906120f9565b565b61096e565b600060026121479261214183808301612115565b01612115565b565b9060000361215c5761215a9061212d565b565b61096e565b6000600b6121c99261217583808301612115565b6121828360028301612115565b61218f8360048301612115565b61219c8360068301612115565b6121a983600883016120e5565b6121b683600983016120e5565b6121c383600a83016120e5565b016120e5565b565b906000036121de576121dc90612161565b565b61096e565b600060046121fd926121f783808301612149565b016121cb565b565b9060000361221257612210906121e3565b565b61096e565b5b818110612223575050565b8061223160006010936121ff565b01612218565b9091828110612246575b505050565b61226461225e61225861226f9561205c565b9261205c565b9261206a565b918201910190612217565b388080612241565b906801000000000000000081116122a0578161229561229e9361200d565b90828155612237565b565b61042c565b5190565b5190565b5190565b6122bb9051610186565b90565b906122cb60001991611f4d565b9181191691161790565b906122ea6122e56122f19261209f565b6120bb565b82546122be565b9055565b90612322602060016123289461231a60008201612314600088016122b1565b906122d5565b0192016122b1565b906122d5565b565b90612334916122f5565b565b90612363602060026123699461235b60008201612355600088016122ad565b9061232a565b0192016122ad565b9061232a565b565b9061237591612336565b565b5190565b9061243e60e0600b612444946123a06000820161239a600088016122ad565b9061232a565b6123b9600282016123b3602088016122ad565b9061232a565b6123d2600482016123cc604088016122ad565b9061232a565b6123eb600682016123e5606088016122ad565b9061232a565b612404600882016123fe608088016122b1565b906122d5565b61241d6009820161241760a088016122b1565b906122d5565b612436600a820161243060c088016122b1565b906122d5565b0192016122b1565b906122d5565b565b906124509161237b565b565b9061247f602060046124859461247760008201612471600088016122a9565b9061236b565b019201612377565b90612446565b565b9061249191612452565b565b6124b86124b26124a2846115ab565b936124ad8585612277565b6115b8565b9161206a565b6000915b8383106124c95750505050565b60106020826124e26124dc6001956122a5565b86612487565b019201920191906124bc565b906124f891612493565b565b5190565b9061255d60606005612563946125236000820161251d600088016122ad565b9061232a565b61253c60028201612536602088016122ad565b9061232a565b6125556004820161254f604088016122b1565b906122d5565b0192016122b1565b906122d5565b565b9061256f916124fe565b565b906125d0606060026125d6946125966000820161259060008801611f40565b90611f8f565b6125af600082016125a960208801611faf565b90611fe9565b6125c8600182016125c260408801612009565b906124ee565b0192016124fa565b90612565565b565b91906125e9576125e791612571565b565b61096e565b908154916801000000000000000083101561261e578261261691600161261c95018155611f17565b906125d8565b565b61042c565b9061262f60ff91611f4d565b9181191691161790565b61264290611b67565b90565b90565b9061265d61265861266492612639565b612645565b8254612623565b9055565b906126b9906060806126ae610120840161268a6000880151600087019061159e565b61269c6020880151602087019061134b565b604087015185820360408701526116bb565b94015191019061170c565b90565b6126d29160208201916000818403910152612668565b90565b906126fc426126f56126ef6126ea6003610edf565b61195e565b91610186565b11156119fb565b61271861271361270e60083390611a58565b611a8a565b611b3e565b61273d61273861273261272d60093390611a58565b611a8a565b15611b67565b611bed565b61276e61274d60008401516115ab565b61276861276261275d6002610936565b610186565b91610186565b14611c97565b6127786000611522565b5b8061279861279261278d60008701516115ab565b610186565b91610186565b10156127ee576127e9906127e46127df60006127b8818801518590611ccf565b51015160206127cc60008901518690611ccf565b5101516127d96004611cef565b91613879565b611d7c565b611cc0565b612779565b5060006128078184015161280183611522565b90611ccf565b5101516128146001611da8565b5b8061283461282e61282960008801516115ab565b610186565b91610186565b101561289b57612896906128626000840151600080612857818a01518690611ccf565b510151015190613d53565b600084015261288c602084015160206000612881818a01518690611ccf565b510151015190613d53565b6020840152611cc0565b612815565b506128c66128cb9193929360208401516128b56002610936565b906128c06004611cef565b92613ec9565b611e91565b6129246128e06128db6007610e93565b611eba565b9161291b339161291260206000830151920151936129096128ff611ed6565b9760008901611ee3565b60208701611ef1565b60408501611eff565b60608301611f02565b6129386129316007611f05565b82906125ee565b61294e600161294960093390611a58565b612648565b6129847f139a2fce3cb1f6b7d0e62f2fa38f48d7a95d26bb2163f0a0a80bf0c4e2a19f329161297b610163565b918291826126bc565b0390a1565b5190565b60007f4e6f20706f696e74732070726f76696465640000000000000000000000000000910152565b6129c26012602092610ad3565b6129cb8161298d565b0190565b6129e590602081019060008183039101526129b5565b90565b156129ef57565b6129f7610163565b62461bcd60e51b815280612a0d600482016129cf565b0390fd5b90612a1b82612989565b811015612a2c576020809102010190565b610920565b905090565b612a5b612a5292602092612a498161024a565b94858093612a31565b93849101610257565b0190565b60007f2c00000000000000000000000000000000000000000000000000000000000000910152565b612a9360018092612a31565b612a9c81612a5f565b0190565b612ab1612ab691612abc9493612a36565b612a87565b90612a36565b90565b5190565b905090565b612aed612ae492602092612adb81612abf565b94858093612ac3565b93849101610257565b0190565b612afa91612ac8565b90565b612b05610163565b3d6000823e3d90fd5b612b1a612b1f91610380565b61209f565b90565b90612b2b6120e0565b50612b51612b3883612989565b612b4b612b456000611522565b91610186565b116129e8565b612b6582612b5f6000611522565b90612a11565b51612b706001611da8565b905b81612b8d612b87612b8287612989565b610186565b91610186565b1015612bb857612bac612bb291612ba5868590612a11565b5190613d53565b91611cc0565b90612b72565b602092935060009150612c2490612c13612bee612be986612be2612bdd8887016122b1565b6142ae565b94016122b1565b6142ae565b91612c05612bfa610163565b938492888401612aa0565b868201810382520382610442565b612c1b610163565b91829182612af1565b039060025afa15612c4557612c42612c3d600051611f4d565b612b0e565b90565b612afd565b612c5460c061046b565b90565b600090565b612c64612c4a565b906020808080808087612c75612c57565b815201612c80612c57565b815201612c8b612c57565b815201612c96612c57565b815201612ca1612c57565b815201612cac612c57565b81525050565b612cba612c5c565b90565b612cc760c061046b565b90565b612cd2612cb2565b50612cdb6101a8565b612d56612ce66111e1565b612d4d612cf161153e565b612d44612cfc6108b4565b612d3b612d0761126c565b93612d32612d136114c1565b97612d29612d1f612cbd565b9b60008d01610cc3565b60208b01610cc3565b60408901610cc3565b60608701610cc3565b60808501610cc3565b60a08301610cc3565b90565b612d61610cd1565b9060208083612d6e612c57565b815201612d79612c57565b81525050565b612d87612d59565b90565b612d94604061046b565b90565b612dc390612da3612d7f565b5091612dba612db0612d8a565b9360008501610cc3565b60208301610cc3565b90565b606090565b67ffffffffffffffff8111612de35760208091020190565b61042c565b90612dfa612df583612dcb565b61046b565b918252565b52565b612e0c606061046b565b90565b90612e60612e576003612e20612e02565b94612e39612e3060008301610cb6565b60008801611ef1565b612e51612e4860018301610cde565b60208801610f13565b01610d26565b60408401612dff565b565b612e6b90612e0f565b90565b90612e7882610c5f565b612e8181612de8565b92612e8f6020850191610c63565b6000915b838310612ea05750505050565b60056020600192612eb085612e62565b815201920192019190612e93565b612ec790612e6e565b90565b612ed2612dc6565b50612edd6006612ebe565b90565b60207f2031000000000000000000000000000000000000000000000000000000000000917f496e76616c696420766f74652c2063616e206f6e6c7920636173742030206f7260008201520152565b612f3b6022604092610ad3565b612f4481612ee0565b0190565b612f5e9060208101906000818303910152612f2e565b90565b15612f6857565b612f70610163565b62461bcd60e51b815280612f8660048201612f48565b0390fd5b60007f496e76616c696420766f74650000000000000000000000000000000000000000910152565b612fbf600c602092610ad3565b612fc881612f8a565b0190565b612fe29060208101906000818303910152612fb2565b90565b90565b612ffc612ff761300192612fe5565b610189565b610186565b90565b61300c612d7f565b508061302161301b6000611522565b91610186565b1480156130bb575b61303290612f61565b806130466130406000611522565b91610186565b1460001461305c57506130596000611cef565b90565b61306f6130696001611da8565b91610186565b1460001461309957613096600261309061308a600092612fe8565b91611cef565b90614358565b90565b6130a1610163565b62461bcd60e51b8152806130b760048201612fcc565b0390fd5b50613032816130d36130cd6001611da8565b91610186565b149050613029565b6130e5604061046b565b90565b606090565b6130f56130db565b90602080836131026130e8565b81520161310d612c57565b81525050565b61311b6130ed565b90565b67ffffffffffffffff81116131365760208091020190565b61042c565b9061314d6131488361311e565b61046b565b918252565b61315c608061046b565b90565b600090565b600090565b606090565b613176612d59565b90565b613181610f16565b9060208080808561319061316e565b81520161319b61316e565b8152016131a6612c57565b8152016131b1612c57565b81525050565b6131bf613179565b90565b6131ca613152565b906020808080856131d961315f565b8152016131e4613164565b8152016131ef613169565b8152016131fa6131b7565b81525050565b6132086131c2565b90565b60005b82811061321a57505050565b602090613225613200565b818401520161320e565b9061325461323c8361313b565b9260208061324a869361311e565b920191039061320b565b565b613260604061046b565b90565b52565b90565b61327d61327861328292613266565b610189565b610186565b90565b60007f50616765206f7574206f662072616e6765000000000000000000000000000000910152565b6132ba6011602092610ad3565b6132c381613285565b0190565b6132dd90602081019060008183039101526132ad565b90565b156132e757565b6132ef610163565b62461bcd60e51b815280613305600482016132c7565b0390fd5b61331861331e91939293610186565b92610186565b820391821161332957565b612011565b61333d61334391939293610186565b92610186565b820180921161334e57565b612011565b9061335d8261158b565b81101561336e576020809102010190565b610920565b906133856133808361048a565b61046b565b918252565b613394604061046b565b90565b906133d06133c760026133a861338a565b946133c16133b860008301610cde565b60008801610f13565b01610cde565b60208401610f13565b565b52565b6133e061010061046b565b90565b906134ac6134a3600b6133f46133d5565b9461340d61340460008301610cde565b60008801610f13565b61342561341c60028301610cde565b60208801610f13565b61343d61343460048301610cde565b60408801610f13565b61345561344c60068301610cde565b60608801610f13565b61346d6134646008830161039d565b60808801610cc3565b61348561347c6009830161039d565b60a08801610cc3565b61349d613494600a830161039d565b60c08801610cc3565b0161039d565b60e08401610cc3565b565b52565b6134bb604061046b565b90565b906134f76134ee60046134cf6134b1565b946134e86134df60008301613397565b600088016133d2565b016133e3565b602084016134ae565b565b613502906134be565b90565b9061350f8261200d565b61351881613373565b92613526602085019161206a565b6000915b8383106135375750505050565b60106020600192613547856134f9565b81520192019201919061352a565b906135be6135b56002613566613152565b9461357f61357660008301610edf565b60008801611ee3565b61359761358e60008301610f06565b60208801611ef1565b6135af6135a660018301613505565b60408801611eff565b01610f23565b60608401611f02565b565b6135c990613555565b90565b906135d5613113565b506135e06007610e93565b6135f36135ed6000611522565b91610186565b1461373b576136026005613269565b61365161364a61361c6136156007610e93565b84906143c4565b9461363a8161363361362d89610186565b91610186565b11156132e0565b6136446001611da8565b90613309565b8290612027565b9061365d82829061332e565b61367861367261366d6007610e93565b610186565b91610186565b1160001461372c575061368b6007610e93565b5b916136a061369b848490613309565b61322f565b93825b806136b66136b087610186565b91610186565b1015613701576136fc906136f56136cf60078390610ea2565b50886136e56136df858a90613309565b926135c0565b6136ef8383613353565b52613353565b5150611cc0565b6136a3565b50925092613729915091613720613716613256565b9360008501613263565b60208301610cc3565b90565b613736908261332e565b61368c565b905061374f61374a6000611522565b61322f565b61377a613771600061376c613762613256565b9460008601613263565b611522565b60208301610cc3565b90565b600090565b9061379461378f83610b5b565b61046b565b918252565b60005b8281106137a857505050565b6020906137b361316e565b818401520161379c565b906137e26137ca83613782565b926020806137d88693610b5b565b9201910390613799565b565b90565b6137fb6137f6613800926137e4565b610189565b610186565b90565b90565b61381a61381561381f92613803565b610189565b610186565b90565b90565b61383961383461383e92613822565b610189565b610186565b90565b634e487b7160e01b600052601260045260246000fd5b61386361386991610186565b91610186565b908115613874570690565b613841565b61388161377d565b506138a161389160c084016122b1565b61389b6000611cef565b90614358565b6138c960008401516138c36138b8608087016122b1565b600086015190614358565b90613d53565b6138d5600083016122b1565b6138f26138ec6138e7600085016122b1565b610186565b91610186565b1415918215613d1f575b5050613d175761392161391160e084016122b1565b61391b6000611cef565b90614358565b613949602084015161394361393860a087016122b1565b600086015190614358565b90613d53565b613955600083016122b1565b61397261396c613967600085016122b1565b610186565b91610186565b1415918215613ce3575b5050613cdb5761399861399160c084016122b1565b8490614358565b6139db60408401516139d56139af608087016122b1565b6139cf60208701516139c96139c46000611522565b613004565b9061441b565b90614358565b90613d53565b6139e7600083016122b1565b613a046139fe6139f9600085016122b1565b610186565b91610186565b1415918215613ca7575b5050613c9f57613a2a613a2360e084016122b1565b8490614358565b613a6d6060840151613a67613a4160a087016122b1565b613a616020870151613a5b613a566001611da8565b613004565b9061441b565b90614358565b90613d53565b613a79600083016122b1565b613a96613a90613a8b600085016122b1565b610186565b91610186565b1415918215613c6b575b5050613c63576020613b4291613ae8613ac1613abc6007610898565b6137bd565b95613ae28791600090613adc613ad683611522565b85612a11565b52611522565b90612a11565b5150613b186000820151613b128791600190613b0c613b0683611da8565b85612a11565b52611da8565b90612a11565b51500151613b3c8491600290613b36613b3083612fe8565b85612a11565b52612fe8565b90612a11565b5150613b726000820151613b6c8491600390613b66613b60836137e7565b85612a11565b526137e7565b90612a11565b5150613ba26040820151613b9c8491600490613b96613b9083613806565b85612a11565b52613806565b90612a11565b5150613bd26020820151613bcc8491600590613bc6613bc083613269565b85612a11565b52613269565b90612a11565b5150613c026060820151613bfc8491600690613bf6613bf083613825565b85612a11565b52613825565b90612a11565b5150613c1c60a0613c15608084016122b1565b92016122b1565b613c246114c1565b908115613c5e57613c41613c5492613c4f92613c5a950894612b22565b613c496114c1565b90613857565b610186565b91610186565b1490565b613841565b505050600090565b613c96919250613c8b6020613c8481613c9094016122b1565b94016122b1565b610186565b91610186565b14153880613aa0565b505050600090565b613cd2919250613cc76020613cc081613ccc94016122b1565b94016122b1565b610186565b91610186565b14153880613a0e565b505050600090565b613d0e919250613d036020613cfc81613d0894016122b1565b94016122b1565b610186565b91610186565b1415388061397c565b505050600090565b613d4a919250613d3f6020613d3881613d4494016122b1565b94016122b1565b610186565b91610186565b141538806138fc565b90613d5c612d7f565b50613d676000611522565b50613d726000611522565b50613d7d6000611522565b50613d8a600083016122b1565b613da7613da1613d9c600085016122b1565b610186565b91610186565b14600014613e6c57613dc66020613dbf8185016122b1565b92016122b1565b613dce61126c565b918215613e675708613de9613de36000611522565b91610186565b14600014613e2a57506000613e27613e1e6000613e19613e10613e0a612d8a565b95611522565b60008601610cc3565b611522565b60208301610cc3565b90565b613e5981613e496020613e426000613e6496016122b1565b92016122b1565b613e536001611da8565b91614d3b565b90915b919091614f9a565b90565b613841565b81613ec291613e8c6020613e856000613e6497016122b1565b93016122b1565b906001613ea76020613ea0600085016122b1565b93016122b1565b92613ebc613eb6600193611da8565b92611da8565b94614540565b9091613e5c565b9291613ed361377d565b50613ef3613ee3606084016122b1565b613eed6000611cef565b90614358565b613f1b6000840151613f15613f0a604087016122b1565b600089015190614358565b90613d53565b613f27600083016122b1565b613f44613f3e613f39600085016122b1565b610186565b91610186565b14159182156141b1575b50506141a857613fe9613f6d613f66606085016122b1565b8590614358565b91613fe3602085015191613fdd613f86604088016122b1565b91613fd760208b015191613fd1613fb9613fa8613fa36001611da8565b613004565b92613fb36001611da8565b90613309565b613fcb613fc66000611522565b613004565b90614358565b90613d53565b9061441b565b90614358565b90613d53565b613ff5600083016122b1565b61401261400c614007600085016122b1565b610186565b91610186565b1415918215614174575b505061416c5761415d61414f61414961413b6040614162956140d360206140749a61407a6141689b6140566140516005613269565b6137bd565b9d8e9160009061406e61406883611522565b85612a11565b52611522565b90612a11565b51506140a98c6140a3600084015160019061409d61409783611da8565b85612a11565b52611da8565b90612a11565b515001516140cd8b916002906140c76140c183612fe8565b85612a11565b52612fe8565b90612a11565b515061410360008201516140fd8b916003906140f76140f1836137e7565b85612a11565b526137e7565b90612a11565b5150614133602082015161412d8b9160049061412761412183613806565b85612a11565b52613806565b90612a11565b5150016122b1565b6141436114c1565b90613857565b94612b22565b6141576114c1565b90613857565b610186565b91610186565b1490565b505050600090565b61419f919250614194602061418d8161419994016122b1565b94016122b1565b610186565b91610186565b1415388061401c565b50505050600090565b6141dc9192506141d160206141ca816141d694016122b1565b94016122b1565b610186565b91610186565b14153880613f4e565b606090565b906141f59101610186565b90565b67ffffffffffffffff81116142165761421260209161027c565b0190565b61042c565b9061422d614228836141f8565b61046b565b918252565b369037565b9061425c6142448361421b565b9260208061425286936141f8565b9201910390614232565b565b600161426a9103610186565b90565b90565b61428461427f6142899261426d565b610189565b610186565b90565b61429861429e91610186565b91610186565b9081156142a9570490565b613841565b6142b66141e5565b506142d36142c382615146565b6142cd6001611da8565b906141ea565b906142dd82614237565b916142e66120e0565b5060200182015b6001156143515761430061432c9161425e565b916f181899199a1a9b1b9c1cb0b131b232b360811b600a82061a8353614326600a614270565b9061428c565b8061434061433a6000611522565b91610186565b1461434b57906142ed565b50505b90565b505061434e565b61439f9161439391614368612d7f565b5090614382602061437b600084016122b1565b92016122b1565b9061438d6001611da8565b926153a8565b91909190919091614f9a565b90565b6143ae6143b491610186565b91610186565b9081156143bf570490565b613841565b906143e3906143d16120e0565b506143dd8382906143a2565b92613857565b6143f66143f06000611522565b91610186565b14600014614402575b90565b614416906144106001611da8565b9061332e565b6143ff565b6144306144369261442a612d7f565b506154b9565b90613d53565b90565b67ffffffffffffffff811161444e5760200290565b61042c565b61445f61446491614439565b61046b565b90565b369037565b9061448a61447983614453565b926144848491614439565b90614467565b565b614496600461446c565b90565b50600490565b906144a982614499565b8110156144b7576020020190565b610920565b60007f557365206a6163446f75626c652066756e6374696f6e20696e73746561640000910152565b6144f1601e602092610ad3565b6144fa816144bc565b0190565b61451490602081019060008183039101526144e4565b90565b1561451e57565b614526610163565b62461bcd60e51b81528061453c600482016144fe565b0390fd5b92959390919561454e6120e0565b506145576120e0565b506145606120e0565b508361457561456f6000611522565b91610186565b1480614d01575b614cf3578061459461458e6000611522565b91610186565b1480614cd8575b614ccc576145a761448c565b9287886145b261126c565b908115614cc7576145d792096145d2866145cc6000611522565b9061449f565b610cc3565b876145f46145ef866145e96000611522565b9061449f565b6122b1565b6145fc61126c565b908115614cc257614621920961461c866146166001611da8565b9061449f565b610cc3565b868761462b61126c565b908115614cbd57614650920961464b866146456002612fe8565b9061449f565b610cc3565b8661466d614668866146626002612fe8565b9061449f565b6122b1565b61467561126c565b908115614cb85761469a92096146958661468f60036137e7565b9061449f565b610cc3565b6146a46004614453565b946146c16146bc866146b66002612fe8565b9061449f565b6122b1565b6146c961126c565b908115614cb3576146de920960008701610cc3565b6146fa6146f5856146ef60036137e7565b9061449f565b6122b1565b61470261126c565b908115614cae57614717920960208601610cc3565b9061473461472f846147296000611522565b9061449f565b6122b1565b9061473d61126c565b928315614ca9576147709361476b9361475a920960408701610cc3565b926147656001611da8565b9061449f565b6122b1565b61477861126c565b908115614ca45761478d920960608301610cc3565b926147aa6147a58561479f6000611522565b9061449f565b6122b1565b6147d76147d16147cc6147c7886147c16002612fe8565b9061449f565b6122b1565b610186565b91610186565b14158015614c4e575b6147e990614517565b6147f161448c565b9261480e614809866148036002612fe8565b9061449f565b6122b1565b61483b61481961126c565b6148356148308961482a6000611522565b9061449f565b6122b1565b90613309565b61484361126c565b908115614c495761486892086148638661485d6000611522565b9061449f565b610cc3565b61488461487f8661487960036137e7565b9061449f565b6122b1565b6148b161488f61126c565b6148ab6148a6896148a06001611da8565b9061449f565b6122b1565b90613309565b6148b961126c565b908115614c44576148de92086148d9866148d36001611da8565b9061449f565b610cc3565b6148fa6148f5856148ef6000611522565b9061449f565b6122b1565b6149166149118661490b6000611522565b9061449f565b6122b1565b61491e61126c565b908115614c3f57614943920961493e866149386002612fe8565b9061449f565b610cc3565b61495f61495a856149546002612fe8565b9061449f565b6122b1565b61497b614976866149706000611522565b9061449f565b6122b1565b61498361126c565b908115614c3a576149a892096149a38661499d60036137e7565b9061449f565b610cc3565b6149c46149bf856149b96001611da8565b9061449f565b6122b1565b6149e06149db866149d56001611da8565b9061449f565b6122b1565b6149e861126c565b918215614c355709614a1d6149fb61126c565b614a17614a1288614a0c60036137e7565b9061449f565b6122b1565b90613309565b614a2561126c565b918215614c305708614a3561126c565b600290614a54614a4f89614a496000611522565b9061449f565b6122b1565b614a70614a6b89614a656002612fe8565b9061449f565b6122b1565b614a7861126c565b918215614c2b5709614a8861126c565b908115614c2657614a9b614aa294612fe8565b0990613309565b614aaa61126c565b918215614c21570894614acf614aca86614ac46001611da8565b9061449f565b6122b1565b614aeb614ae683614ae06000611522565b9061449f565b6122b1565b614b07614b0288614afc6002612fe8565b9061449f565b6122b1565b614b0f61126c565b918215614c1c5709614b29614b2261126c565b8990613309565b614b3161126c565b918215614c175708614b4161126c565b918215614c12570990614b6e614b69614b5861126c565b92614b636001611da8565b9061449f565b6122b1565b90614b8b614b8688614b8060036137e7565b9061449f565b6122b1565b614b9361126c565b908115614c0d57614ba5930990613309565b90614bae61126c565b8015614c0857614bd392614bce920895614bc86000611522565b9061449f565b6122b1565b9190614bdd61126c565b918215614c035709614bed61126c565b918215614bfe570992919291929190565b613841565b613841565b613841565b613841565b613841565b613841565b613841565b613841565b613841565b613841565b613841565b613841565b613841565b613841565b613841565b613841565b506147e9614c6e614c6986614c636001611da8565b9061449f565b6122b1565b614c9b614c95614c90614c8b89614c8560036137e7565b9061449f565b6122b1565b610186565b91610186565b141590506147e0565b613841565b613841565b613841565b613841565b613841565b613841565b613841565b613841565b50509250919291929190565b5081614ced614ce76000611522565b91610186565b1461459b565b925093945050919291929190565b5082614d16614d106000611522565b91610186565b1461457c565b90565b614d33614d2e614d3892614d1c565b610189565b610186565b90565b9290614d456120e0565b50614d4e6120e0565b50614d576120e0565b5082614d6c614d666000611522565b91610186565b14614f90578384614d7b61126c565b918215614f8b5709938182614d8e61126c565b918215614f865709908485614da161126c565b918215614f8157099060049083614db661126c565b918215614f7c5709614dc661126c565b918215614f7757614dd690613806565b0995600390614de361126c565b918215614f7257614df3906137e7565b0990614dfd61153e565b9080614e0761126c565b918215614f6d5709614e1761126c565b918215614f685709614e2761126c565b918215614f635708948586614e3a61126c565b918215614f5e5709614e4a61126c565b829083614e5561126c565b908115614f5957614e67930890613309565b614e6f61126c565b918215614f5457089590614e8b614e8461126c565b8890613309565b614e9361126c565b918215614f4f5708614ea361126c565b918215614f4a570990614eb461126c565b60089180614ec061126c565b918215614f455709614ed061126c565b908115614f4057614ee3614eea94614d1f565b0990613309565b614ef261126c565b918215614f3b57089260029190614f0761126c565b918215614f365709614f1761126c565b918215614f3157614f2790612fe8565b0992919291929190565b613841565b613841565b613841565b613841565b613841565b613841565b613841565b613841565b613841565b613841565b613841565b613841565b613841565b613841565b613841565b613841565b613841565b613841565b613841565b9192919291929190565b9091614fae90614fa8612d7f565b506155a5565b908182614fb961126c565b91821561502a57099081614fcb61126c565b9182156150255709929190614fde61126c565b9182156150205709614fee61126c565b90811561501b57615018920961500f615005612d8a565b9360008501610cc3565b60208301610cc3565b90565b613841565b613841565b613841565b613841565b90565b61504661504161504b9261502f565b610189565b610186565b90565b90565b61506561506061506a9261504e565b610189565b610186565b90565b90565b61508461507f6150899261506d565b610189565b610186565b90565b90565b6150a361509e6150a89261508c565b610189565b610186565b90565b90565b6150c26150bd6150c7926150ab565b610189565b610186565b90565b90565b6150e16150dc6150e6926150ca565b610189565b610186565b90565b90565b6151006150fb615105926150e9565b610189565b610186565b90565b90565b61511f61511a61512492615108565b610189565b610186565b90565b90565b61513e61513961514392615127565b610189565b610186565b90565b61514e6120e0565b506151596000611522565b90806151886151827a184f03e93ff9f4daa797ed6e38ed64bf6a1f010000000000000000615032565b91610186565b1015615360575b806151b06151aa6d04ee2d6d415b85acef8100000000615070565b91610186565b1015615325575b806151d16151cb662386f26fc100006150ae565b91610186565b10156152f1575b806151ef6151e96305f5e1006150ec565b91610186565b10156152c0575b8061520b61520561271061510b565b91610186565b1015615291575b80615226615220606461512a565b91610186565b1015615263575b61524061523a600a614270565b91610186565b101561524a575b90565b61525e906152586001611da8565b906141ea565b615247565b61527a61528b91615274606461512a565b9061428c565b916152856002612fe8565b906141ea565b9061522d565b6152a96152ba916152a361271061510b565b9061428c565b916152b46004613806565b906141ea565b90615212565b6152da6152eb916152d46305f5e1006150ec565b9061428c565b916152e56008614d1f565b906141ea565b906151f6565b61530e61531f91615308662386f26fc100006150ae565b9061428c565b9161531960106150cd565b906141ea565b906151d8565b61534961535a916153436d04ee2d6d415b85acef8100000000615070565b9061428c565b91615354602061508f565b906141ea565b906151b7565b6153916153a29161538b7a184f03e93ff9f4daa797ed6e38ed64bf6a1f010000000000000000615032565b9061428c565b9161539c6040615051565b906141ea565b9061518f565b9291926153b36120e0565b506153bc6120e0565b506153c56120e0565b50806153da6153d46000611522565b91610186565b146154ad5793906153eb6000611522565b936153f66000611522565b936154016001611da8565b965b806154176154116000611522565b91610186565b146154a157806154276001611da8565b1661543b6154356000611522565b91610186565b03615475575b9061545a61546393926154546002612fe8565b906143a2565b93919091614d3b565b95919594909592959195949094615403565b9561545a95615463939298615491929190869085928c94614540565b9891969096979192935050615441565b50505050909291929190565b50929092919291929190565b6154c1612d7f565b5061551e6155006154f26154d7600085016122b1565b936154ec60206154e561126c565b92016122b1565b90613309565b6154fa61126c565b90613857565b61551561550b612d8a565b9360008501610cc3565b60208301610cc3565b90565b60007f496e76616c6964206e756d626572000000000000000000000000000000000000910152565b615556600e602092610ad3565b61555f81615521565b0190565b6155799060208101906000818303910152615549565b90565b1561558357565b61558b610163565b62461bcd60e51b8152806155a160048201615563565b0390fd5b6155ad6120e0565b50806155c26155bc6000611522565b91610186565b1415806156b4575b8061568c575b6155d99061557c565b6155e36000611522565b6155ed6001611da8565b906155f661126c565b916155ff6120e0565b505b8361561561560f6000611522565b91610186565b14615685576156258385906143a2565b81929161563061126c565b829161563a61126c565b9081156156805761564c930990613309565b9161565561126c565b801561567b576156749361566e92089395809592612027565b90613309565b9290615601565b613841565b613841565b5091505090565b506155d961569861126c565b6156ab6156a56000611522565b91610186565b141590506155d0565b50806156cf6156c96156c461126c565b610186565b91610186565b14156155ca56fea26469706673582212209d257b1efa8b629f800441c933dee46de18edb3574c894073238f5122b913a6364736f6c634300081c0033",
  "linkReferences": {},
  "deployedLinkReferences": {}
}