{
  "_format": "hh-sol-artifact-1",
  "contractName": "Election",
  "sourceName": "contracts/Election.sol",
  "abi": [
    {
      "inputs": [
        {
          "components": [
            {
              "internalType": "address",
              "name": "owner",
              "type": "address"
            },
            {
              "components": [
                {
                  "internalType": "uint256",
                  "name": "x",
                  "type": "uint256"
                },
                {
                  "internalType": "uint256",
                  "name": "y",
                  "type": "uint256"
                }
              ],
              "internalType": "struct Ecc.EcPoint",
              "name": "publicKey",
              "type": "tuple"
            },
            {
              "components": [
                {
                  "internalType": "uint256",
                  "name": "c",
                  "type": "uint256"
                },
                {
                  "internalType": "uint256",
                  "name": "d",
                  "type": "uint256"
                }
              ],
              "internalType": "struct Zkp.KeyOwnershipProof",
              "name": "proof",
              "type": "tuple"
            }
          ],
          "internalType": "struct Election.Key[]",
          "name": "_authorityKeys",
          "type": "tuple[]"
        },
        {
          "internalType": "string[]",
          "name": "_candidates",
          "type": "string[]"
        },
        {
          "internalType": "address[]",
          "name": "_whitelistedAddresses",
          "type": "address[]"
        }
      ],
      "stateMutability": "nonpayable",
      "type": "constructor"
    },
    {
      "anonymous": false,
      "inputs": [
        {
          "components": [
            {
              "internalType": "address",
              "name": "from",
              "type": "address"
            },
            {
              "components": [
                {
                  "components": [
                    {
                      "components": [
                        {
                          "internalType": "uint256",
                          "name": "x",
                          "type": "uint256"
                        },
                        {
                          "internalType": "uint256",
                          "name": "y",
                          "type": "uint256"
                        }
                      ],
                      "internalType": "struct Ecc.EcPoint",
                      "name": "a",
                      "type": "tuple"
                    },
                    {
                      "components": [
                        {
                          "internalType": "uint256",
                          "name": "x",
                          "type": "uint256"
                        },
                        {
                          "internalType": "uint256",
                          "name": "y",
                          "type": "uint256"
                        }
                      ],
                      "internalType": "struct Ecc.EcPoint",
                      "name": "b",
                      "type": "tuple"
                    }
                  ],
                  "internalType": "struct Ecc.ECElGamalCiphertext",
                  "name": "ciphertext",
                  "type": "tuple"
                },
                {
                  "components": [
                    {
                      "components": [
                        {
                          "internalType": "uint256",
                          "name": "x",
                          "type": "uint256"
                        },
                        {
                          "internalType": "uint256",
                          "name": "y",
                          "type": "uint256"
                        }
                      ],
                      "internalType": "struct Ecc.EcPoint",
                      "name": "a0_",
                      "type": "tuple"
                    },
                    {
                      "components": [
                        {
                          "internalType": "uint256",
                          "name": "x",
                          "type": "uint256"
                        },
                        {
                          "internalType": "uint256",
                          "name": "y",
                          "type": "uint256"
                        }
                      ],
                      "internalType": "struct Ecc.EcPoint",
                      "name": "a1_",
                      "type": "tuple"
                    },
                    {
                      "components": [
                        {
                          "internalType": "uint256",
                          "name": "x",
                          "type": "uint256"
                        },
                        {
                          "internalType": "uint256",
                          "name": "y",
                          "type": "uint256"
                        }
                      ],
                      "internalType": "struct Ecc.EcPoint",
                      "name": "b0_",
                      "type": "tuple"
                    },
                    {
                      "components": [
                        {
                          "internalType": "uint256",
                          "name": "x",
                          "type": "uint256"
                        },
                        {
                          "internalType": "uint256",
                          "name": "y",
                          "type": "uint256"
                        }
                      ],
                      "internalType": "struct Ecc.EcPoint",
                      "name": "b1_",
                      "type": "tuple"
                    },
                    {
                      "internalType": "uint256",
                      "name": "c0",
                      "type": "uint256"
                    },
                    {
                      "internalType": "uint256",
                      "name": "c1",
                      "type": "uint256"
                    },
                    {
                      "internalType": "uint256",
                      "name": "r0__",
                      "type": "uint256"
                    },
                    {
                      "internalType": "uint256",
                      "name": "r1__",
                      "type": "uint256"
                    }
                  ],
                  "internalType": "struct Zkp.WellFormedVoteProof",
                  "name": "wellFormedVoteProof",
                  "type": "tuple"
                }
              ],
              "internalType": "struct Election.Vote[]",
              "name": "votes",
              "type": "tuple[]"
            },
            {
              "components": [
                {
                  "components": [
                    {
                      "internalType": "uint256",
                      "name": "x",
                      "type": "uint256"
                    },
                    {
                      "internalType": "uint256",
                      "name": "y",
                      "type": "uint256"
                    }
                  ],
                  "internalType": "struct Ecc.EcPoint",
                  "name": "A_",
                  "type": "tuple"
                },
                {
                  "components": [
                    {
                      "internalType": "uint256",
                      "name": "x",
                      "type": "uint256"
                    },
                    {
                      "internalType": "uint256",
                      "name": "y",
                      "type": "uint256"
                    }
                  ],
                  "internalType": "struct Ecc.EcPoint",
                  "name": "B_",
                  "type": "tuple"
                },
                {
                  "internalType": "uint256",
                  "name": "c",
                  "type": "uint256"
                },
                {
                  "internalType": "uint256",
                  "name": "R__",
                  "type": "uint256"
                }
              ],
              "internalType": "struct Zkp.SingleVoteSumProof",
              "name": "singleVoteSumProof",
              "type": "tuple"
            }
          ],
          "indexed": false,
          "internalType": "struct Election.Ballot",
          "name": "_ballot",
          "type": "tuple"
        }
      ],
      "name": "BallotCast",
      "type": "event"
    },
    {
      "inputs": [],
      "name": "A",
      "outputs": [
        {
          "internalType": "uint256",
          "name": "",
          "type": "uint256"
        }
      ],
      "stateMutability": "view",
      "type": "function"
    },
    {
      "inputs": [],
      "name": "B",
      "outputs": [
        {
          "internalType": "uint256",
          "name": "",
          "type": "uint256"
        }
      ],
      "stateMutability": "view",
      "type": "function"
    },
    {
      "inputs": [],
      "name": "G",
      "outputs": [
        {
          "internalType": "uint256",
          "name": "x",
          "type": "uint256"
        },
        {
          "internalType": "uint256",
          "name": "y",
          "type": "uint256"
        }
      ],
      "stateMutability": "view",
      "type": "function"
    },
    {
      "inputs": [],
      "name": "GX",
      "outputs": [
        {
          "internalType": "uint256",
          "name": "",
          "type": "uint256"
        }
      ],
      "stateMutability": "view",
      "type": "function"
    },
    {
      "inputs": [],
      "name": "GY",
      "outputs": [
        {
          "internalType": "uint256",
          "name": "",
          "type": "uint256"
        }
      ],
      "stateMutability": "view",
      "type": "function"
    },
    {
      "inputs": [],
      "name": "N",
      "outputs": [
        {
          "internalType": "uint256",
          "name": "",
          "type": "uint256"
        }
      ],
      "stateMutability": "view",
      "type": "function"
    },
    {
      "inputs": [],
      "name": "P",
      "outputs": [
        {
          "internalType": "uint256",
          "name": "",
          "type": "uint256"
        }
      ],
      "stateMutability": "view",
      "type": "function"
    },
    {
      "inputs": [
        {
          "internalType": "uint256",
          "name": "",
          "type": "uint256"
        }
      ],
      "name": "authorities",
      "outputs": [
        {
          "internalType": "address",
          "name": "owner",
          "type": "address"
        },
        {
          "components": [
            {
              "internalType": "uint256",
              "name": "x",
              "type": "uint256"
            },
            {
              "internalType": "uint256",
              "name": "y",
              "type": "uint256"
            }
          ],
          "internalType": "struct Ecc.EcPoint",
          "name": "publicKey",
          "type": "tuple"
        },
        {
          "components": [
            {
              "internalType": "uint256",
              "name": "c",
              "type": "uint256"
            },
            {
              "internalType": "uint256",
              "name": "d",
              "type": "uint256"
            }
          ],
          "internalType": "struct Zkp.KeyOwnershipProof",
          "name": "proof",
          "type": "tuple"
        }
      ],
      "stateMutability": "view",
      "type": "function"
    },
    {
      "inputs": [
        {
          "internalType": "uint256",
          "name": "",
          "type": "uint256"
        }
      ],
      "name": "candidates",
      "outputs": [
        {
          "internalType": "string",
          "name": "",
          "type": "string"
        }
      ],
      "stateMutability": "view",
      "type": "function"
    },
    {
      "inputs": [],
      "name": "electionPublicKey",
      "outputs": [
        {
          "internalType": "uint256",
          "name": "x",
          "type": "uint256"
        },
        {
          "internalType": "uint256",
          "name": "y",
          "type": "uint256"
        }
      ],
      "stateMutability": "view",
      "type": "function"
    },
    {
      "inputs": [
        {
          "internalType": "uint256",
          "name": "v",
          "type": "uint256"
        }
      ],
      "name": "encodeVote",
      "outputs": [
        {
          "components": [
            {
              "internalType": "uint256",
              "name": "x",
              "type": "uint256"
            },
            {
              "internalType": "uint256",
              "name": "y",
              "type": "uint256"
            }
          ],
          "internalType": "struct Ecc.EcPoint",
          "name": "",
          "type": "tuple"
        }
      ],
      "stateMutability": "view",
      "type": "function"
    },
    {
      "inputs": [],
      "name": "getAuthorities",
      "outputs": [
        {
          "components": [
            {
              "internalType": "address",
              "name": "owner",
              "type": "address"
            },
            {
              "components": [
                {
                  "internalType": "uint256",
                  "name": "x",
                  "type": "uint256"
                },
                {
                  "internalType": "uint256",
                  "name": "y",
                  "type": "uint256"
                }
              ],
              "internalType": "struct Ecc.EcPoint",
              "name": "publicKey",
              "type": "tuple"
            },
            {
              "components": [
                {
                  "internalType": "uint256",
                  "name": "c",
                  "type": "uint256"
                },
                {
                  "internalType": "uint256",
                  "name": "d",
                  "type": "uint256"
                }
              ],
              "internalType": "struct Zkp.KeyOwnershipProof",
              "name": "proof",
              "type": "tuple"
            }
          ],
          "internalType": "struct Election.Key[]",
          "name": "",
          "type": "tuple[]"
        }
      ],
      "stateMutability": "view",
      "type": "function"
    },
    {
      "inputs": [
        {
          "internalType": "uint256",
          "name": "page",
          "type": "uint256"
        }
      ],
      "name": "getBallots",
      "outputs": [
        {
          "components": [
            {
              "components": [
                {
                  "internalType": "address",
                  "name": "from",
                  "type": "address"
                },
                {
                  "components": [
                    {
                      "components": [
                        {
                          "components": [
                            {
                              "internalType": "uint256",
                              "name": "x",
                              "type": "uint256"
                            },
                            {
                              "internalType": "uint256",
                              "name": "y",
                              "type": "uint256"
                            }
                          ],
                          "internalType": "struct Ecc.EcPoint",
                          "name": "a",
                          "type": "tuple"
                        },
                        {
                          "components": [
                            {
                              "internalType": "uint256",
                              "name": "x",
                              "type": "uint256"
                            },
                            {
                              "internalType": "uint256",
                              "name": "y",
                              "type": "uint256"
                            }
                          ],
                          "internalType": "struct Ecc.EcPoint",
                          "name": "b",
                          "type": "tuple"
                        }
                      ],
                      "internalType": "struct Ecc.ECElGamalCiphertext",
                      "name": "ciphertext",
                      "type": "tuple"
                    },
                    {
                      "components": [
                        {
                          "components": [
                            {
                              "internalType": "uint256",
                              "name": "x",
                              "type": "uint256"
                            },
                            {
                              "internalType": "uint256",
                              "name": "y",
                              "type": "uint256"
                            }
                          ],
                          "internalType": "struct Ecc.EcPoint",
                          "name": "a0_",
                          "type": "tuple"
                        },
                        {
                          "components": [
                            {
                              "internalType": "uint256",
                              "name": "x",
                              "type": "uint256"
                            },
                            {
                              "internalType": "uint256",
                              "name": "y",
                              "type": "uint256"
                            }
                          ],
                          "internalType": "struct Ecc.EcPoint",
                          "name": "a1_",
                          "type": "tuple"
                        },
                        {
                          "components": [
                            {
                              "internalType": "uint256",
                              "name": "x",
                              "type": "uint256"
                            },
                            {
                              "internalType": "uint256",
                              "name": "y",
                              "type": "uint256"
                            }
                          ],
                          "internalType": "struct Ecc.EcPoint",
                          "name": "b0_",
                          "type": "tuple"
                        },
                        {
                          "components": [
                            {
                              "internalType": "uint256",
                              "name": "x",
                              "type": "uint256"
                            },
                            {
                              "internalType": "uint256",
                              "name": "y",
                              "type": "uint256"
                            }
                          ],
                          "internalType": "struct Ecc.EcPoint",
                          "name": "b1_",
                          "type": "tuple"
                        },
                        {
                          "internalType": "uint256",
                          "name": "c0",
                          "type": "uint256"
                        },
                        {
                          "internalType": "uint256",
                          "name": "c1",
                          "type": "uint256"
                        },
                        {
                          "internalType": "uint256",
                          "name": "r0__",
                          "type": "uint256"
                        },
                        {
                          "internalType": "uint256",
                          "name": "r1__",
                          "type": "uint256"
                        }
                      ],
                      "internalType": "struct Zkp.WellFormedVoteProof",
                      "name": "wellFormedVoteProof",
                      "type": "tuple"
                    }
                  ],
                  "internalType": "struct Election.Vote[]",
                  "name": "votes",
                  "type": "tuple[]"
                },
                {
                  "components": [
                    {
                      "components": [
                        {
                          "internalType": "uint256",
                          "name": "x",
                          "type": "uint256"
                        },
                        {
                          "internalType": "uint256",
                          "name": "y",
                          "type": "uint256"
                        }
                      ],
                      "internalType": "struct Ecc.EcPoint",
                      "name": "A_",
                      "type": "tuple"
                    },
                    {
                      "components": [
                        {
                          "internalType": "uint256",
                          "name": "x",
                          "type": "uint256"
                        },
                        {
                          "internalType": "uint256",
                          "name": "y",
                          "type": "uint256"
                        }
                      ],
                      "internalType": "struct Ecc.EcPoint",
                      "name": "B_",
                      "type": "tuple"
                    },
                    {
                      "internalType": "uint256",
                      "name": "c",
                      "type": "uint256"
                    },
                    {
                      "internalType": "uint256",
                      "name": "R__",
                      "type": "uint256"
                    }
                  ],
                  "internalType": "struct Zkp.SingleVoteSumProof",
                  "name": "singleVoteSumProof",
                  "type": "tuple"
                }
              ],
              "internalType": "struct Election.Ballot[]",
              "name": "ballots",
              "type": "tuple[]"
            },
            {
              "internalType": "uint256",
              "name": "totalPage",
              "type": "uint256"
            }
          ],
          "internalType": "struct Election.PaginatedBallot",
          "name": "",
          "type": "tuple"
        }
      ],
      "stateMutability": "view",
      "type": "function"
    },
    {
      "inputs": [],
      "name": "getCandidates",
      "outputs": [
        {
          "internalType": "string[]",
          "name": "",
          "type": "string[]"
        }
      ],
      "stateMutability": "view",
      "type": "function"
    },
    {
      "inputs": [],
      "name": "getECCParams",
      "outputs": [
        {
          "components": [
            {
              "internalType": "uint256",
              "name": "gx",
              "type": "uint256"
            },
            {
              "internalType": "uint256",
              "name": "gy",
              "type": "uint256"
            },
            {
              "internalType": "uint256",
              "name": "a",
              "type": "uint256"
            },
            {
              "internalType": "uint256",
              "name": "b",
              "type": "uint256"
            },
            {
              "internalType": "uint256",
              "name": "p",
              "type": "uint256"
            },
            {
              "internalType": "uint256",
              "name": "n",
              "type": "uint256"
            }
          ],
          "internalType": "struct Ecc.EccParams",
          "name": "",
          "type": "tuple"
        }
      ],
      "stateMutability": "pure",
      "type": "function"
    },
    {
      "inputs": [
        {
          "components": [
            {
              "internalType": "uint256",
              "name": "x",
              "type": "uint256"
            },
            {
              "internalType": "uint256",
              "name": "y",
              "type": "uint256"
            }
          ],
          "internalType": "struct Ecc.EcPoint[]",
          "name": "points",
          "type": "tuple[]"
        }
      ],
      "name": "hashMultiplePointsToScalar",
      "outputs": [
        {
          "internalType": "uint256",
          "name": "",
          "type": "uint256"
        }
      ],
      "stateMutability": "pure",
      "type": "function"
    },
    {
      "inputs": [
        {
          "internalType": "uint256",
          "name": "x",
          "type": "uint256"
        },
        {
          "internalType": "uint256",
          "name": "y",
          "type": "uint256"
        }
      ],
      "name": "newEcPoint",
      "outputs": [
        {
          "components": [
            {
              "internalType": "uint256",
              "name": "x",
              "type": "uint256"
            },
            {
              "internalType": "uint256",
              "name": "y",
              "type": "uint256"
            }
          ],
          "internalType": "struct Ecc.EcPoint",
          "name": "",
          "type": "tuple"
        }
      ],
      "stateMutability": "pure",
      "type": "function"
    },
    {
      "inputs": [],
      "name": "status",
      "outputs": [
        {
          "internalType": "enum Election.ElectionStatus",
          "name": "",
          "type": "uint8"
        }
      ],
      "stateMutability": "view",
      "type": "function"
    },
    {
      "inputs": [
        {
          "components": [
            {
              "components": [
                {
                  "components": [
                    {
                      "components": [
                        {
                          "internalType": "uint256",
                          "name": "x",
                          "type": "uint256"
                        },
                        {
                          "internalType": "uint256",
                          "name": "y",
                          "type": "uint256"
                        }
                      ],
                      "internalType": "struct Ecc.EcPoint",
                      "name": "a",
                      "type": "tuple"
                    },
                    {
                      "components": [
                        {
                          "internalType": "uint256",
                          "name": "x",
                          "type": "uint256"
                        },
                        {
                          "internalType": "uint256",
                          "name": "y",
                          "type": "uint256"
                        }
                      ],
                      "internalType": "struct Ecc.EcPoint",
                      "name": "b",
                      "type": "tuple"
                    }
                  ],
                  "internalType": "struct Ecc.ECElGamalCiphertext",
                  "name": "ciphertext",
                  "type": "tuple"
                },
                {
                  "components": [
                    {
                      "components": [
                        {
                          "internalType": "uint256",
                          "name": "x",
                          "type": "uint256"
                        },
                        {
                          "internalType": "uint256",
                          "name": "y",
                          "type": "uint256"
                        }
                      ],
                      "internalType": "struct Ecc.EcPoint",
                      "name": "a0_",
                      "type": "tuple"
                    },
                    {
                      "components": [
                        {
                          "internalType": "uint256",
                          "name": "x",
                          "type": "uint256"
                        },
                        {
                          "internalType": "uint256",
                          "name": "y",
                          "type": "uint256"
                        }
                      ],
                      "internalType": "struct Ecc.EcPoint",
                      "name": "a1_",
                      "type": "tuple"
                    },
                    {
                      "components": [
                        {
                          "internalType": "uint256",
                          "name": "x",
                          "type": "uint256"
                        },
                        {
                          "internalType": "uint256",
                          "name": "y",
                          "type": "uint256"
                        }
                      ],
                      "internalType": "struct Ecc.EcPoint",
                      "name": "b0_",
                      "type": "tuple"
                    },
                    {
                      "components": [
                        {
                          "internalType": "uint256",
                          "name": "x",
                          "type": "uint256"
                        },
                        {
                          "internalType": "uint256",
                          "name": "y",
                          "type": "uint256"
                        }
                      ],
                      "internalType": "struct Ecc.EcPoint",
                      "name": "b1_",
                      "type": "tuple"
                    },
                    {
                      "internalType": "uint256",
                      "name": "c0",
                      "type": "uint256"
                    },
                    {
                      "internalType": "uint256",
                      "name": "c1",
                      "type": "uint256"
                    },
                    {
                      "internalType": "uint256",
                      "name": "r0__",
                      "type": "uint256"
                    },
                    {
                      "internalType": "uint256",
                      "name": "r1__",
                      "type": "uint256"
                    }
                  ],
                  "internalType": "struct Zkp.WellFormedVoteProof",
                  "name": "wellFormedVoteProof",
                  "type": "tuple"
                }
              ],
              "internalType": "struct Election.Vote[]",
              "name": "votes",
              "type": "tuple[]"
            },
            {
              "components": [
                {
                  "components": [
                    {
                      "internalType": "uint256",
                      "name": "x",
                      "type": "uint256"
                    },
                    {
                      "internalType": "uint256",
                      "name": "y",
                      "type": "uint256"
                    }
                  ],
                  "internalType": "struct Ecc.EcPoint",
                  "name": "A_",
                  "type": "tuple"
                },
                {
                  "components": [
                    {
                      "internalType": "uint256",
                      "name": "x",
                      "type": "uint256"
                    },
                    {
                      "internalType": "uint256",
                      "name": "y",
                      "type": "uint256"
                    }
                  ],
                  "internalType": "struct Ecc.EcPoint",
                  "name": "B_",
                  "type": "tuple"
                },
                {
                  "internalType": "uint256",
                  "name": "c",
                  "type": "uint256"
                },
                {
                  "internalType": "uint256",
                  "name": "R__",
                  "type": "uint256"
                }
              ],
              "internalType": "struct Zkp.SingleVoteSumProof",
              "name": "singleVoteSumProof",
              "type": "tuple"
            }
          ],
          "internalType": "struct Election.BallotInput",
          "name": "_ballot",
          "type": "tuple"
        }
      ],
      "name": "submitBallot",
      "outputs": [],
      "stateMutability": "payable",
      "type": "function"
    }
  ],
  "bytecode": "0x6080604052346100305761001a6100146104e4565b916112f7565b610022610035565b6154a66133a682396154a690f35b61003b565b60405190565b600080fd5b601f801991011690565b634e487b7160e01b600052604160045260246000fd5b9061006a90610040565b810190811060018060401b0382111761008257604052565b61004a565b9061009a610093610035565b9283610060565b565b600080fd5b600080fd5b600080fd5b60018060401b0381116100c15760208091020190565b61004a565b600080fd5b600080fd5b60018060a01b031690565b6100e4906100d0565b90565b6100f0816100db565b036100f757565b600080fd5b90505190610109826100e7565b565b90565b6101178161010b565b0361011e57565b600080fd5b905051906101308261010e565b565b919060408382031261016e576101679061014c6040610087565b9361015a8260008301610123565b6000860152602001610123565b6020830152565b6100cb565b91906040838203126101af576101a89061018d6040610087565b9361019b8260008301610123565b6000860152602001610123565b6020830152565b6100cb565b919060a083820312610202576101fb906101ce6060610087565b936101dc82600083016100fc565b60008601526101ee8260208301610132565b6020860152606001610173565b6040830152565b6100cb565b9092919261021c610217826100ab565b610087565b9381855260a060208601920283019281841161025b57915b8383106102415750505050565b602060a09161025084866101b4565b815201920191610234565b6100c6565b9080601f8301121561027e5781602061027b93519101610207565b90565b6100a6565b60018060401b0381116102995760208091020190565b61004a565b600080fd5b60018060401b0381116102bf576102bb602091610040565b0190565b61004a565b60005b8381106102d8575050906000910152565b8060209183015181850152016102c7565b909291926102fe6102f9826102a3565b610087565b9381855260208501908284011161031a57610318926102c4565b565b61029e565b9080601f8301121561033d5781602061033a935191016102e9565b90565b6100a6565b92919061035661035182610283565b610087565b93818552602080860192028101918383116103ab5781905b83821061037c575050505050565b815160018060401b0381116103a65760209161039b878493870161031f565b81520191019061036e565b6100a6565b6100c6565b9080601f830112156103ce578160206103cb93519101610342565b90565b6100a6565b60018060401b0381116103e95760208091020190565b61004a565b909291926104036103fe826103d3565b610087565b938185526020808601920283019281841161044057915b8383106104275750505050565b6020809161043584866100fc565b81520192019161041a565b6100c6565b9080601f8301121561046357816020610460935191016103ee565b90565b6100a6565b916060838303126104df57600083015160018060401b0381116104da5782610491918501610260565b92602081015160018060401b0381116104d557836104b09183016103b0565b92604082015160018060401b0381116104d0576104cd9201610445565b90565b6100a1565b6100a1565b6100a1565b61009c565b61050261884c803803806104f781610087565b928339810190610468565b909192565b60001b90565b9061051960ff91610507565b9181191691161790565b634e487b7160e01b600052602160045260246000fd5b6004111561054357565b610523565b9061055282610539565b565b61055d90610548565b90565b90565b9061057861057361057f92610554565b610560565b825461050d565b9055565b60001c90565b60ff1690565b61059b6105a091610583565b610589565b90565b6105ad905461058f565b90565b60209181520190565b60007f456c656374696f6e20616c726561647920737461727465640000000000000000910152565b6105ee60186020926105b0565b6105f7816105b9565b0190565b61061190602081019060008183039101526105e1565b90565b1561061b57565b610623610035565b62461bcd60e51b815280610639600482016105fb565b0390fd5b5190565b90565b90565b61065b61065661066092610641565b610644565b61010b565b90565b60207f6972656400000000000000000000000000000000000000000000000000000000917f4174206c656173742074776f2063616e6469646174657320617265207265717560008201520152565b6106be60246040926105b0565b6106c781610663565b0190565b6106e190602081019060008183039101526106b1565b90565b156106eb57565b6106f3610035565b62461bcd60e51b815280610709600482016106cb565b0390fd5b5190565b90565b61072861072361072d92610711565b610644565b61010b565b90565b60207f6564000000000000000000000000000000000000000000000000000000000000917f4174206c65617374206f6e6520617574686f726974792069732072657175697260008201520152565b61078b60226040926105b0565b61079481610730565b0190565b6107ae906020810190600081830391015261077e565b90565b156107b857565b6107c0610035565b62461bcd60e51b8152806107d660048201610798565b0390fd5b60016107e6910161010b565b90565b634e487b7160e01b600052601160045260246000fd5b61080e6108149193929361010b565b9261010b565b820180921161081f57565b6107e9565b634e487b7160e01b600052603260045260246000fd5b906108448261070d565b811015610855576020809102010190565b610824565b610864905161010b565b90565b60007f4475706c696361746520617574686f72697479207075626c6963206b65790000910152565b61089c601e6020926105b0565b6108a581610867565b0190565b6108bf906020810190600081830391015261088f565b90565b156108c957565b6108d1610035565b62461bcd60e51b8152806108e7600482016108a9565b0390fd5b60007f4475706c696361746520617574686f726974792070726f6f6600000000000000910152565b61092060196020926105b0565b610929816108eb565b0190565b6109439060208101906000818303910152610913565b90565b1561094d57565b610955610035565b62461bcd60e51b81528061096b6004820161092d565b0390fd5b5190565b9061097d8261096f565b81101561098e576020809102010190565b610824565b61099d90516100db565b90565b6109b46109af6109b9926100d0565b610644565b6100d0565b90565b6109c5906109a0565b90565b6109d1906109bc565b90565b906109de906109c8565b600052602052604060002090565b151590565b6109fa906109ec565b90565b90565b90610a15610a10610a1c926109f1565b6109fd565b825461050d565b9055565b60007f496e76616c6964207075626c6963206b65790000000000000000000000000000910152565b610a5560126020926105b0565b610a5e81610a20565b0190565b610a789060208101906000818303910152610a48565b90565b15610a8257565b610a8a610035565b62461bcd60e51b815280610aa060048201610a62565b0390fd5b60007f496e76616c6964206b65792070726f6f66000000000000000000000000000000910152565b610ad960116020926105b0565b610ae281610aa4565b0190565b610afc9060208101906000818303910152610acc565b90565b15610b0657565b610b0e610035565b62461bcd60e51b815280610b2460048201610ae6565b0390fd5b90565b600052602060002090565b5490565b610b4381610b36565b821015610b5e57610b55600591610b2b565b91020190600090565b610824565b634e487b7160e01b600052600060045260246000fd5b90610b8a60018060a01b0391610507565b9181191691161790565b90565b90610bac610ba7610bb3926109c8565b610b94565b8254610b79565b9055565b5190565b90610bc860001991610507565b9181191691161790565b610be6610be1610beb9261010b565b610644565b61010b565b90565b90565b90610c06610c01610c0d92610bd2565b610bee565b8254610bbb565b9055565b90610c3e60206001610c4494610c3660008201610c306000880161085a565b90610bf1565b01920161085a565b90610bf1565b565b90610c5091610c11565b565b5190565b90610c8360206001610c8994610c7b60008201610c756000880161085a565b90610bf1565b01920161085a565b90610bf1565b565b90610c9591610c56565b565b90610cdd60406003610ce394610cbc60008201610cb660008801610993565b90610b97565b610cd560018201610ccf60208801610bb7565b90610c46565b019201610c52565b90610c8b565b565b9190610cf657610cf491610c97565b565b610b63565b1b90565b9081549168010000000000000000831015610d2f5782610d27916001610d2d95018155610b3a565b90610ce5565b565b61004a565b90565b610d43610d4891610583565b610d34565b90565b610d559054610d37565b90565b90610d629061010b565b9052565b610d706040610087565b90565b90610dac610da36001610d84610d66565b94610d9d610d9460008301610d4b565b60008801610d58565b01610d4b565b60208401610d58565b565b610db790610d73565b90565b60200190565b5490565b610dd3610dd99193929361010b565b9261010b565b91610de583820261010b565b928184041490151715610df457565b6107e9565b600190818003010490565b600052602060002090565b634e487b7160e01b600052602260045260246000fd5b9060016002830492168015610e45575b6020831014610e4057565b610e0f565b91607f1691610e35565b600052602060002090565b1c90565b90610e729060001990602003600802610e5a565b8154169055565b91906008610e95910291610e8f60001984610cfb565b92610cfb565b9181191691161790565b9190610eb5610eb0610ebd93610bd2565b610bee565b908354610e79565b9055565b600090565b610ed891610ed2610ec1565b91610e9f565b565b5b818110610ee6575050565b80610ef46000600193610ec6565b01610edb565b90610f0b9060001990600802610e5a565b191690565b81610f1a91610efa565b906002021790565b90600091610f3a610f3282610e4f565b928354610f10565b905555565b601f602091010490565b91929060208210600014610fa357601f8411600114610f7357610f6d929350610f10565b90555b5b565b5090610f99610f9e936001610f90610f8a85610e4f565b92610f3f565b82019101610eda565b610f22565b610f70565b50610fda8293610fb4600194610e4f565b610fd3610fc085610f3f565b820192601f861680610fe5575b50610f3f565b0190610eda565b600202179055610f71565b610ff190888603610e5e565b38610fcd565b9290916801000000000000000082116110595760201160001461104a576020811060001461102e5761102891610f10565b90555b5b565b60019160ff191661103e84610e4f565b5560020201905561102b565b6001915060020201905561102c565b61004a565b90815461106a81610e25565b90818311611093575b818310611081575b50505050565b61108a93610f49565b3880808061107b565b61109f83838387610ff7565b611073565b60006110af9161105e565b565b906000036110c4576110c2906110a4565b565b610b63565b5b8181106110d5575050565b806110e360006001936110b1565b016110ca565b90918281106110f8575b505050565b61111661111061110a61112195610df9565b92610df9565b92610e04565b9182019101906110c9565b3880806110f3565b90680100000000000000008111611152578161114761115093610dc0565b908281556110e9565b565b61004a565b5190565b5190565b9190601f811161116f575b505050565b61117b6111a093610e4f565b90602061118784610f3f565b830193106111a8575b61119990610f3f565b0190610eda565b38808061116a565b915061119981929050611190565b906111c08161115b565b9060018060401b038211611280576111e2826111dc8554610e25565b8561115f565b602090601f8311600114611217579180916112069360009261120b575b5050610f10565b90555b565b909150015138806111ff565b601f1983169161122685610e4f565b9260005b8181106112685750916002939185600196941061124e575b50505002019055611209565b61125e910151601f841690610efa565b9055388080611242565b9193602060018192878701518155019501920161122a565b61004a565b9061128f916111b6565b565b6112b66112b06112a08461063d565b936112ab8585611129565b610dba565b91610e04565b6000915b8383106112c75750505050565b60016020826112df6112d98495611157565b86611285565b019201920191906112ba565b906112f591611291565b565b9192611301611772565b61130d60006003610563565b61133361131a60036105a3565b61132d6113276000610548565b91610548565b14610614565b61135861133f8361063d565b61135261134c6001610647565b9161010b565b116106e4565b61137d6113648461070d565b6113776113716000610714565b9161010b565b116107b1565b6113876000610714565b935b846113a461139e6113998761070d565b61010b565b9161010b565b101561155b576113be856113b86001610647565b906107ff565b5b806113da6113d46113cf8861070d565b61010b565b9161010b565b10156115465761149b906113ff600060206113f6898b9061083a565b5101510161085a565b61142b611425611420600060206114178c889061083a565b5101510161085a565b61010b565b9161010b565b141580156114f4575b61143d906108c2565b6114586000604061144f898b9061083a565b5101510161085a565b61148461147e611479600060406114708c889061083a565b5101510161085a565b61010b565b9161010b565b141580156114a0575b61149690610946565b6107da565b6113bf565b506114966114bf602060406114b68a8c9061083a565b5101510161085a565b6114eb6114e56114e0602060406114d78d899061083a565b5101510161085a565b61010b565b9161010b565b1415905061148d565b5061143d6115126020806115098a8c9061083a565b5101510161085a565b61153d6115376115326020806115298d899061083a565b5101510161085a565b61010b565b9161010b565b14159050611434565b50919093611553906107da565b939091611389565b935091909161156a6000610714565b5b8061158661158061157b8861096f565b61010b565b9161010b565b10156115c2576115bd906115b860016115b360086115ad6115a88b8790610973565b610993565b906109d4565b610a00565b6107da565b61156b565b50919092506115d16000610714565b5b806115ed6115e76115e28761070d565b61010b565b9161010b565b10156116ca5761168b906116126000602061160988859061083a565b5101510161085a565b61162561161f6000610714565b9161010b565b141580611690575b61163690610a7b565b611667611662602061164988859061083a565b510151604061165989869061083a565b51015190611961565b610aff565b6116866116746006610b28565b61167f87849061083a565b5190610cff565b6107da565b6115d2565b506116366116ae6020806116a589869061083a565b5101510161085a565b6116c16116bb6000610714565b9161010b565b1415905061162d565b50906116ef60206116e5856116df6000610714565b9061083a565b5101516004610c46565b6116f96001610647565b5b8061171561170f61170a8761070d565b61010b565b9161010b565b1015611756576117519061174c611745600461174060206117378a879061083a565b51015191610dae565b611a8b565b6004610c46565b6107da565b6116fa565b5091506117649060026112eb565b61177060016003610563565b565b61177a61177c565b565b611784611829565b565b90565b61179d6117986117a292611786565b610644565b61010b565b90565b6117ce7f79be667ef9dcbbac55a06295ce870b07029bfcdb2dce28d959f2815b16f81798611789565b90565b90565b6117e86117e36117ed926117d1565b610644565b61010b565b90565b6118197f483ada7726a3c4655da4fbfc0e1108a8fd17b448a68554199c47d08ffb10d4b86117d4565b90565b6118266040610087565b90565b6118646118346117a5565b61185d61183f6117f0565b61185461184a61181c565b9360008501610d58565b60208301610d58565b6000610c46565b565b600090565b90565b61188261187d6118879261186b565b610644565b61010b565b90565b60018060401b0381116118a05760208091020190565b61004a565b906118b76118b28361188a565b610087565b918252565b600090565b6118c9610d66565b90602080836118d66118bc565b8152016118e16118bc565b81525050565b6118ef6118c1565b90565b60005b82811061190157505050565b60209061190c6118e7565b81840152016118f5565b9061193b611923836118a5565b92602080611931869361188a565b92019103906118f2565b565b5190565b9061194b8261193d565b81101561195c576020809102010190565b610824565b90611a2f611a2a611a246000611a3594611979611866565b50611a1c6119b961199e61198f6020850161085a565b61199886610dae565b90611c01565b6119b36119ac86860161085a565b8b90611c01565b90611c4b565b6119f46119ce6119c9600261186e565b611916565b996119ee8b9187906119e86119e283610714565b85611941565b52610714565b90611941565b5150611a168991600190611a10611a0a83610647565b85611941565b52610647565b90611941565b51500161085a565b93611dde565b61010b565b9161010b565b1490565b611a416118c1565b90565b90565b611a5b611a56611a6092611a44565b610644565b61010b565b90565b611a726401000003d019611a47565b90565b634e487b7160e01b600052601260045260246000fd5b90611a94611a39565b50611a9f6000610714565b50611aaa6000610714565b50611ab56000610714565b50611ac26000830161085a565b611adf611ad9611ad46000850161085a565b61010b565b9161010b565b14600014611ba457611afe6020611af781850161085a565b920161085a565b611b06611a63565b918215611b9f5708611b21611b1b6000610714565b9161010b565b14600014611b6257506000611b5f611b566000611b51611b48611b4261181c565b95610714565b60008601610d58565b610714565b60208301610d58565b90565b611b9181611b816020611b7a6000611b9c960161085a565b920161085a565b611b8b6001610647565b91612876565b90915b919091612ad5565b90565b611a75565b81611bfa91611bc46020611bbd6000611b9c970161085a565b930161085a565b906001611bdf6020611bd86000850161085a565b930161085a565b92611bf4611bee600193610647565b92610647565b9461204f565b9091611b94565b611c4891611c3c91611c11611a39565b5090611c2b6020611c246000840161085a565b920161085a565b90611c366001610647565b92612b8c565b91909190919091612ad5565b90565b611c60611c6692611c5a611a39565b50612cbf565b90611a8b565b90565b60007f4e6f20706f696e74732070726f76696465640000000000000000000000000000910152565b611c9e60126020926105b0565b611ca781611c69565b0190565b611cc19060208101906000818303910152611c91565b90565b15611ccb57565b611cd3610035565b62461bcd60e51b815280611ce960048201611cab565b0390fd5b905090565b611d17611d0e92602092611d058161115b565b94858093611ced565b938491016102c4565b0190565b60007f2c00000000000000000000000000000000000000000000000000000000000000910152565b611d4f60018092611ced565b611d5881611d1b565b0190565b611d6d611d7291611d789493611cf2565b611d43565b90611cf2565b90565b5190565b905090565b611da9611da092602092611d9781611d7b565b94858093611d7f565b938491016102c4565b0190565b611db691611d84565b90565b611dc1610035565b3d6000823e3d90fd5b611dd6611ddb91610583565b610bd2565b90565b90611de7610ec1565b50611e0d611df48361193d565b611e07611e016000610714565b9161010b565b11611cc4565b611e2182611e1b6000610714565b90611941565b51611e2c6001610647565b905b81611e49611e43611e3e8761193d565b61010b565b9161010b565b1015611e7457611e68611e6e91611e61868590611941565b5190611a8b565b916107da565b90611e2e565b602092935060009150611ee090611ecf611eaa611ea586611e9e611e9988870161085a565b612dcd565b940161085a565b612dcd565b91611ec1611eb6610035565b938492888401611d5c565b868201810382520382610060565b611ed7610035565b91829182611dad565b039060025afa15611f0157611efe611ef9600051610507565b611dca565b90565b611db9565b60018060401b038111611f195760200290565b61004a565b611f2a611f2f91611f06565b610087565b90565b369037565b90611f55611f4483611f1e565b92611f4f8491611f06565b90611f32565b565b611f616004611f37565b90565b50600490565b90611f7482611f64565b811015611f82576020020190565b610824565b90565b611f9e611f99611fa392611f87565b610644565b61010b565b90565b60007f557365206a6163446f75626c652066756e6374696f6e20696e73746561640000910152565b611fdb601e6020926105b0565b611fe481611fa6565b0190565b611ffe9060208101906000818303910152611fce565b90565b1561200857565b612010610035565b62461bcd60e51b81528061202660048201611fe8565b0390fd5b61203961203f9193929361010b565b9261010b565b820391821161204a57565b6107e9565b92959390919561205d610ec1565b50612066610ec1565b5061206f610ec1565b508361208461207e6000610714565b9161010b565b1480612810575b61280257806120a361209d6000610714565b9161010b565b14806127e7575b6127db576120b6611f57565b9287886120c1611a63565b9081156127d6576120e692096120e1866120db6000610714565b90611f6a565b610d58565b876121036120fe866120f86000610714565b90611f6a565b61085a565b61210b611a63565b9081156127d157612130920961212b866121256001610647565b90611f6a565b610d58565b868761213a611a63565b9081156127cc5761215f920961215a86612154600261186e565b90611f6a565b610d58565b8661217c61217786612171600261186e565b90611f6a565b61085a565b612184611a63565b9081156127c7576121a992096121a48661219e6003611f8a565b90611f6a565b610d58565b6121b36004611f1e565b946121d06121cb866121c5600261186e565b90611f6a565b61085a565b6121d8611a63565b9081156127c2576121ed920960008701610d58565b612209612204856121fe6003611f8a565b90611f6a565b61085a565b612211611a63565b9081156127bd57612226920960208601610d58565b9061224361223e846122386000610714565b90611f6a565b61085a565b9061224c611a63565b9283156127b85761227f9361227a93612269920960408701610d58565b926122746001610647565b90611f6a565b61085a565b612287611a63565b9081156127b35761229c920960608301610d58565b926122b96122b4856122ae6000610714565b90611f6a565b61085a565b6122e66122e06122db6122d6886122d0600261186e565b90611f6a565b61085a565b61010b565b9161010b565b1415801561275d575b6122f890612001565b612300611f57565b9261231d61231886612312600261186e565b90611f6a565b61085a565b61234a612328611a63565b61234461233f896123396000610714565b90611f6a565b61085a565b9061202a565b612352611a63565b9081156127585761237792086123728661236c6000610714565b90611f6a565b610d58565b61239361238e866123886003611f8a565b90611f6a565b61085a565b6123c061239e611a63565b6123ba6123b5896123af6001610647565b90611f6a565b61085a565b9061202a565b6123c8611a63565b908115612753576123ed92086123e8866123e26001610647565b90611f6a565b610d58565b612409612404856123fe6000610714565b90611f6a565b61085a565b6124256124208661241a6000610714565b90611f6a565b61085a565b61242d611a63565b90811561274e57612452920961244d86612447600261186e565b90611f6a565b610d58565b61246e61246985612463600261186e565b90611f6a565b61085a565b61248a6124858661247f6000610714565b90611f6a565b61085a565b612492611a63565b908115612749576124b792096124b2866124ac6003611f8a565b90611f6a565b610d58565b6124d36124ce856124c86001610647565b90611f6a565b61085a565b6124ef6124ea866124e46001610647565b90611f6a565b61085a565b6124f7611a63565b918215612744570961252c61250a611a63565b6125266125218861251b6003611f8a565b90611f6a565b61085a565b9061202a565b612534611a63565b91821561273f5708612544611a63565b60029061256361255e896125586000610714565b90611f6a565b61085a565b61257f61257a89612574600261186e565b90611f6a565b61085a565b612587611a63565b91821561273a5709612597611a63565b908115612735576125aa6125b19461186e565b099061202a565b6125b9611a63565b9182156127305708946125de6125d9866125d36001610647565b90611f6a565b61085a565b6125fa6125f5836125ef6000610714565b90611f6a565b61085a565b6126166126118861260b600261186e565b90611f6a565b61085a565b61261e611a63565b91821561272b5709612638612631611a63565b899061202a565b612640611a63565b9182156127265708612650611a63565b91821561272157099061267d612678612667611a63565b926126726001610647565b90611f6a565b61085a565b9061269a6126958861268f6003611f8a565b90611f6a565b61085a565b6126a2611a63565b90811561271c576126b493099061202a565b906126bd611a63565b8015612717576126e2926126dd9208956126d76000610714565b90611f6a565b61085a565b91906126ec611a63565b91821561271257096126fc611a63565b91821561270d570992919291929190565b611a75565b611a75565b611a75565b611a75565b611a75565b611a75565b611a75565b611a75565b611a75565b611a75565b611a75565b611a75565b611a75565b611a75565b611a75565b611a75565b506122f861277d612778866127726001610647565b90611f6a565b61085a565b6127aa6127a461279f61279a896127946003611f8a565b90611f6a565b61085a565b61010b565b9161010b565b141590506122ef565b611a75565b611a75565b611a75565b611a75565b611a75565b611a75565b611a75565b611a75565b50509250919291929190565b50816127fc6127f66000610714565b9161010b565b146120aa565b925093945050919291929190565b508261282561281f6000610714565b9161010b565b1461208b565b90565b61284261283d6128479261282b565b610644565b61010b565b90565b6128546000610714565b90565b90565b61286e61286961287392612857565b610644565b61010b565b90565b9290612880610ec1565b50612889610ec1565b50612892610ec1565b50826128a76128a16000610714565b9161010b565b14612acb5783846128b6611a63565b918215612ac657099381826128c9611a63565b918215612ac157099084856128dc611a63565b918215612abc570990600490836128f1611a63565b918215612ab75709612901611a63565b918215612ab2576129119061282e565b099560039061291e611a63565b918215612aad5761292e90611f8a565b099061293861284a565b9080612942611a63565b918215612aa85709612952611a63565b918215612aa35709612962611a63565b918215612a9e5708948586612975611a63565b918215612a995709612985611a63565b829083612990611a63565b908115612a94576129a293089061202a565b6129aa611a63565b918215612a8f570895906129c66129bf611a63565b889061202a565b6129ce611a63565b918215612a8a57086129de611a63565b918215612a855709906129ef611a63565b600891806129fb611a63565b918215612a805709612a0b611a63565b908115612a7b57612a1e612a259461285a565b099061202a565b612a2d611a63565b918215612a7657089260029190612a42611a63565b918215612a715709612a52611a63565b918215612a6c57612a629061186e565b0992919291929190565b611a75565b611a75565b611a75565b611a75565b611a75565b611a75565b611a75565b611a75565b611a75565b611a75565b611a75565b611a75565b611a75565b611a75565b611a75565b611a75565b611a75565b611a75565b611a75565b9192919291929190565b9091612ae990612ae3611a39565b50612efb565b908182612af4611a63565b918215612b6557099081612b06611a63565b918215612b605709929190612b19611a63565b918215612b5b5709612b29611a63565b908115612b5657612b539209612b4a612b4061181c565b9360008501610d58565b60208301610d58565b90565b611a75565b611a75565b611a75565b611a75565b612b76612b7c9161010b565b9161010b565b908115612b87570490565b611a75565b929192612b97610ec1565b50612ba0610ec1565b50612ba9610ec1565b5080612bbe612bb86000610714565b9161010b565b14612c91579390612bcf6000610714565b93612bda6000610714565b93612be56001610647565b965b80612bfb612bf56000610714565b9161010b565b14612c855780612c0b6001610647565b16612c1f612c196000610714565b9161010b565b03612c59575b90612c3e612c479392612c38600261186e565b90612b6a565b93919091612876565b95919594909592959195949094612be7565b95612c3e95612c47939298612c75929190869085928c9461204f565b9891969096979192935050612c25565b50505050909291929190565b50929092919291929190565b612ca9612caf9161010b565b9161010b565b908115612cba570690565b611a75565b612cc7611a39565b50612d24612d06612cf8612cdd6000850161085a565b93612cf26020612ceb611a63565b920161085a565b9061202a565b612d00611a63565b90612c9d565b612d1b612d1161181c565b9360008501610d58565b60208301610d58565b90565b606090565b90612d37910161010b565b90565b90612d4c612d47836102a3565b610087565b918252565b369037565b90612d7b612d6383612d3a565b92602080612d7186936102a3565b9201910390612d51565b565b6001612d89910361010b565b90565b90565b612da3612d9e612da892612d8c565b610644565b61010b565b90565b612db7612dbd9161010b565b9161010b565b908115612dc8570490565b611a75565b612dd5612d27565b50612df2612de282613143565b612dec6001610647565b90612d2c565b90612dfc82612d56565b91612e05610ec1565b5060200182015b600115612e7057612e1f612e4b91612d7d565b916f181899199a1a9b1b9c1cb0b131b232b360811b600a82061a8353612e45600a612d8f565b90612dab565b80612e5f612e596000610714565b9161010b565b14612e6a5790612e0c565b50505b90565b5050612e6d565b60007f496e76616c6964206e756d626572000000000000000000000000000000000000910152565b612eac600e6020926105b0565b612eb581612e77565b0190565b612ecf9060208101906000818303910152612e9f565b90565b15612ed957565b612ee1610035565b62461bcd60e51b815280612ef760048201612eb9565b0390fd5b612f03610ec1565b5080612f18612f126000610714565b9161010b565b14158061300a575b80612fe2575b612f2f90612ed2565b612f396000610714565b612f436001610647565b90612f4c611a63565b91612f55610ec1565b505b83612f6b612f656000610714565b9161010b565b14612fdb57612f7b838590612b6a565b819291612f86611a63565b8291612f90611a63565b908115612fd657612fa293099061202a565b91612fab611a63565b8015612fd157612fca93612fc492089395809592610dc4565b9061202a565b9290612f57565b611a75565b611a75565b5091505090565b50612f2f612fee611a63565b613001612ffb6000610714565b9161010b565b14159050612f26565b508061302561301f61301a611a63565b61010b565b9161010b565b1415612f20565b90565b61304361303e6130489261302c565b610644565b61010b565b90565b90565b61306261305d6130679261304b565b610644565b61010b565b90565b90565b61308161307c6130869261306a565b610644565b61010b565b90565b90565b6130a061309b6130a592613089565b610644565b61010b565b90565b90565b6130bf6130ba6130c4926130a8565b610644565b61010b565b90565b90565b6130de6130d96130e3926130c7565b610644565b61010b565b90565b90565b6130fd6130f8613102926130e6565b610644565b61010b565b90565b90565b61311c61311761312192613105565b610644565b61010b565b90565b90565b61313b61313661314092613124565b610644565b61010b565b90565b61314b610ec1565b506131566000610714565b908061318561317f7a184f03e93ff9f4daa797ed6e38ed64bf6a1f01000000000000000061302f565b9161010b565b101561335d575b806131ad6131a76d04ee2d6d415b85acef810000000061306d565b9161010b565b1015613322575b806131ce6131c8662386f26fc100006130ab565b9161010b565b10156132ee575b806131ec6131e66305f5e1006130e9565b9161010b565b10156132bd575b80613208613202612710613108565b9161010b565b101561328e575b8061322361321d6064613127565b9161010b565b1015613260575b61323d613237600a612d8f565b9161010b565b1015613247575b90565b61325b906132556001610647565b90612d2c565b613244565b613277613288916132716064613127565b90612dab565b91613282600261186e565b90612d2c565b9061322a565b6132a66132b7916132a0612710613108565b90612dab565b916132b1600461282e565b90612d2c565b9061320f565b6132d76132e8916132d16305f5e1006130e9565b90612dab565b916132e2600861285a565b90612d2c565b906131f3565b61330b61331c91613305662386f26fc100006130ab565b90612dab565b9161331660106130ca565b90612d2c565b906131d5565b613346613357916133406d04ee2d6d415b85acef810000000061306d565b90612dab565b91613351602061308c565b90612d2c565b906131b4565b61338e61339f916133887a184f03e93ff9f4daa797ed6e38ed64bf6a1f01000000000000000061302f565b90612dab565b91613399604061304e565b90612d2c565b9061318c56fe60806040526004361015610013575b6116a1565b61001e60003561014d565b806303a507be1461014857806306a49fce146101435780630dd3849c1461013e578063200d2ed2146101395780632f5bb3361461013457806332e7c5bf1461012f5780633477ee2e1461012a578063477decc014610125578063494503d4146101205780636b7a524f1461011b5780636fecb623146101165780637a308a4c146101115780638b8fbd921461010c578063b3bf549514610107578063c21b486514610102578063c3926505146100fd578063c9e525df146100f8578063f446c1d0146100f35763fb7344d00361000e5761166c565b611373565b611307565b61128a565b611255565b6110f9565b611080565b61100f565b610f83565b610f30565b610e74565b610c43565b610b3f565b6108e5565b610885565b6104b2565b6103dc565b61033b565b6101f2565b60e01c90565b60405190565b600080fd5b600080fd5b600091031261016e57565b61015e565b90565b90565b90565b61019061018b61019592610173565b610179565b610176565b90565b6101c17f79be667ef9dcbbac55a06295ce870b07029bfcdb2dce28d959f2815b16f8179861017c565b90565b6101cc610198565b90565b6101d890610176565b9052565b91906101f0906000602085019401906101cf565b565b3461022257610202366004610163565b61021e61020d6101c4565b610215610153565b918291826101dc565b0390f35b610159565b5190565b60209181520190565b60200190565b5190565b60209181520190565b60005b83811061025b575050906000910152565b80602091830151818501520161024a565b601f801991011690565b61029561029e6020936102a39361028c8161023a565b9384809361023e565b95869101610247565b61026c565b0190565b906102b191610276565b90565b60200190565b906102ce6102c783610227565b809261022b565b90816102df60208302840194610234565b926000915b8383106102f357505050505090565b9091929394602061031561030f838560019503875289516102a7565b976102b4565b93019301919392906102e4565b61033891602082019160008184039101526102ba565b90565b3461036b5761034b366004610163565b610367610356611746565b61035e610153565b91829182610322565b0390f35b610159565b60001c90565b90565b61038561038a91610370565b610376565b90565b6103979054610379565b90565b6004906103b560016103ae6000850161038d565b930161038d565b90565b9160206103da9294936103d3604082019660008301906101cf565b01906101cf565b565b3461040d576103ec366004610163565b6103f461039a565b90610409610400610153565b928392836103b8565b0390f35b610159565b1c90565b60ff1690565b61042c9060086104319302610412565b610416565b90565b9061043f915461041c565b90565b61044f6003600090610434565b90565b634e487b7160e01b600052602160045260246000fd5b6004111561047257565b610452565b9061048182610468565b565b61048c90610477565b90565b61049890610483565b9052565b91906104b09060006020850194019061048f565b565b346104e2576104c2366004610163565b6104de6104cd610442565b6104d5610153565b9182918261049c565b0390f35b610159565b600080fd5b600080fd5b634e487b7160e01b600052604160045260246000fd5b906105119061026c565b810190811067ffffffffffffffff82111761052b57604052565b6104f1565b9061054361053c610153565b9283610507565b565b600080fd5b600080fd5b67ffffffffffffffff81116105675760208091020190565b6104f1565b600080fd5b61057a81610176565b0361058157565b600080fd5b9050359061059382610571565b565b91906040838203126105d1576105ca906105af6040610530565b936105bd8260008301610586565b6000860152602001610586565b6020830152565b6104ec565b91906080838203126106125761060b906105f06040610530565b936105fe8260008301610595565b6000860152604001610595565b6020830152565b6104ec565b9190610180838203126106c5576106be90610633610100610530565b936106418260008301610595565b60008601526106538260408301610595565b60208601526106658260808301610595565b60408601526106778260c08301610595565b606086015261068a826101008301610586565b608086015261069d826101208301610586565b60a08601526106b0826101408301610586565b60c086015261016001610586565b60e0830152565b6104ec565b91906102008382031261070757610700906106e56040610530565b936106f382600083016105d6565b6000860152608001610617565b6020830152565b6104ec565b9092919261072161071c8261054f565b610530565b9381855261020060208601920283019281841161076257915b8383106107475750505050565b60206102009161075784866106ca565b81520192019161073a565b61056c565b9080601f83011215610785578160206107829335910161070c565b90565b61054a565b919060c0838203126107ea576107e3906107a46080610530565b936107b28260008301610595565b60008601526107c48260408301610595565b60208601526107d68260808301610586565b604086015260a001610586565b6060830152565b6104ec565b91909160e081840312610844576108066040610530565b9260008201359167ffffffffffffffff831161083f5761082b82610838948301610767565b600086015260200161078a565b6020830152565b610545565b6104ec565b9060208282031261087a57600082013567ffffffffffffffff81116108755761087292016107ef565b90565b6104e7565b61015e565b60000190565b610898610893366004610849565b6123e5565b6108a0610153565b806108aa8161087f565b0390f35b90565b6108c56108c06108ca926108ae565b610179565b610176565b90565b6108d760076108b1565b90565b6108e26108cd565b90565b34610915576108f5366004610163565b6109116109006108da565b610908610153565b918291826101dc565b0390f35b610159565b906020828203126109345761093191600001610586565b90565b61015e565b634e487b7160e01b600052603260045260246000fd5b5490565b600052602060002090565b6109678161094f565b82101561098257610979600191610953565b91020190600090565b610939565b634e487b7160e01b600052600060045260246000fd5b634e487b7160e01b600052602260045260246000fd5b90600160028304921680156109d3575b60208310146109ce57565b61099d565b91607f16916109c3565b600052602060002090565b9060009291805490610a036109fc836109b3565b809461023e565b91600181169081600014610a5c5750600114610a1f575b505050565b610a2c91929394506109dd565b916000925b818410610a445750500190388080610a1a565b60018160209295939554848601520191019290610a31565b92949550505060ff1916825215156020020190388080610a1a565b90610a81916109e8565b90565b90610aa4610a9d92610a94610153565b93848092610a77565b0383610507565b565b90600010610aba57610ab790610a84565b90565b610987565b6002610aca8161094f565b821015610ae757610ae491610ade9161095e565b90610aa6565b90565b600080fd5b60209181520190565b610b14610b1d602093610b2293610b0b8161023a565b93848093610aec565b95869101610247565b61026c565b0190565b610b3c9160208201916000818403910152610af5565b90565b34610b6f57610b6b610b5a610b5536600461091a565b610abf565b610b62610153565b91829182610b26565b0390f35b610159565b67ffffffffffffffff8111610b8c5760208091020190565b6104f1565b90929192610ba6610ba182610b74565b610530565b938185526040602086019202830192818411610be557915b838310610bcb5750505050565b6020604091610bda8486610595565b815201920191610bbe565b61056c565b9080601f83011215610c0857816020610c0593359101610b91565b90565b61054a565b90602082820312610c3e57600082013567ffffffffffffffff8111610c3957610c369201610bea565b90565b6104e7565b61015e565b34610c7357610c6f610c5e610c59366004610c0d565b612813565b610c66610153565b918291826101dc565b0390f35b610159565b5490565b600052602060002090565b610c9081610c78565b821015610cab57610ca2600591610c7c565b91020190600090565b610939565b60018060a01b031690565b610cc7610ccc91610370565b610cb0565b90565b610cd99054610cbb565b90565b90610ce690610176565b9052565b610cf46040610530565b90565b90610d30610d276001610d08610cea565b94610d21610d186000830161038d565b60008801610cdc565b0161038d565b60208401610cdc565b565b610d3c6040610530565b90565b90610d78610d6f6001610d50610d32565b94610d69610d606000830161038d565b60008801610cdc565b0161038d565b60208401610cdc565b565b600690610d8682610c78565b811015610dbf57610d9691610c87565b50610da360008201610ccf565b91610dbc6003610db560018501610cf7565b9301610d3f565b90565b600080fd5b60018060a01b031690565b610dd890610dc4565b90565b610de490610dcf565b9052565b610df190610176565b9052565b90602080610e1993610e0f60008201516000860190610de8565b0151910190610de8565b565b90602080610e3f93610e3560008201516000860190610de8565b0151910190610de8565b565b606090610e6b610e729496959396610e6160a08401986000850190610ddb565b6020830190610df5565b0190610e1b565b565b34610ea757610ea3610e8f610e8a36600461091a565b610d7a565b610e9a939193610153565b93849384610e41565b0390f35b610159565b9060a080610f1893610ec660008201516000860190610de8565b610ed860208201516020860190610de8565b610eea60408201516040860190610de8565b610efc60608201516060860190610de8565b610f0e60808201516080860190610de8565b0151910190610de8565b565b9190610f2e90600060c08501940190610eac565b565b34610f6057610f40366004610163565b610f5c610f4b6129bb565b610f53610153565b91829182610f1a565b0390f35b610159565b600090610f806001610f796000850161038d565b930161038d565b90565b34610fb457610f93366004610163565b610f9b610f65565b90610fb0610fa7610153565b928392836103b8565b0390f35b610159565b90565b610fd0610fcb610fd592610fb9565b610179565b610176565b90565b6110017f483ada7726a3c4655da4fbfc0e1108a8fd17b448a68554199c47d08ffb10d4b8610fbc565b90565b61100c610fd8565b90565b3461103f5761101f366004610163565b61103b61102a611004565b611032610153565b918291826101dc565b0390f35b610159565b90565b61105b61105661106092611044565b610179565b610176565b90565b6110726401000003d019611047565b90565b61107d611063565b90565b346110b057611090366004610163565b6110ac61109b611075565b6110a3610153565b918291826101dc565b0390f35b610159565b91906040838203126110de57806110d26110db9260008601610586565b93602001610586565b90565b61015e565b91906110f790600060408501940190610df5565b565b3461112a5761112661111561110f3660046110b5565b90612a88565b61111d610153565b918291826110e3565b0390f35b610159565b5190565b60209181520190565b60200190565b61114b90610dcf565b9052565b906020806111739361116960008201516000860190610de8565b0151910190610de8565b565b906020806111999361118f60008201516000860190610de8565b0151910190610de8565b565b90606060406111d2936111b660008201516000860190611142565b6111c86020820151602086019061114f565b0151910190611175565b565b906111e18160a09361119b565b0190565b60200190565b906112086112026111fb8461112f565b8093611133565b9261113c565b9060005b8181106112195750505090565b90919261123261122c60019286516111d4565b946111e5565b910191909161120c565b61125291602082019160008184039101526111eb565b90565b3461128557611265366004610163565b611281611270612bbe565b611278610153565b9182918261123c565b0390f35b610159565b346112ba576112b66112a56112a036600461091a565b612cf8565b6112ad610153565b918291826110e3565b0390f35b610159565b90565b6112d66112d16112db926112bf565b610179565b610176565b90565b6112f970014551231950b75fc4402da1732fc9bebe196112c2565b90565b6113046112de565b90565b3461133757611317366004610163565b6113336113226112fc565b61132a610153565b918291826101dc565b0390f35b610159565b90565b61135361134e6113589261133c565b610179565b610176565b90565b611365600061133f565b90565b61137061135b565b90565b346113a357611383366004610163565b61139f61138e611368565b611396610153565b918291826101dc565b0390f35b610159565b5190565b60209181520190565b60200190565b5190565b60209181520190565b60200190565b90604060206113f3936113e96000820151600086019061114f565b015191019061114f565b565b9061016060e061148a936114116000820151600086019061114f565b6114236020820151604086019061114f565b6114356040820151608086019061114f565b611447606082015160c086019061114f565b61145a6080820151610100860190610de8565b61146d60a0820151610120860190610de8565b61148060c0820151610140860190610de8565b0151910190610de8565b565b90608060206114b1936114a7600082015160008601906113ce565b01519101906113f5565b565b906114c1816102009361148c565b0190565b60200190565b906114e86114e26114db846113bb565b80936113bf565b926113c8565b9060005b8181106114f95750505090565b90919261151261150c60019286516114b3565b946114c5565b91019190916114ec565b9060a06060611565936115376000820151600086019061114f565b6115496020820151604086019061114f565b61155b60408201516080860190610de8565b0151910190610de8565b565b906115a69060408061159b610100840161158960008801516000870190611142565b602087015185820360208701526114cb565b94015191019061151c565b90565b906115b391611567565b90565b60200190565b906115d06115c9836113a8565b80926113ac565b90816115e1602083028401946113b5565b926000915b8383106115f557505050505090565b90919293946020611617611611838560019503875289516115a9565b976115b6565b93019301919392906115e6565b906116509060208061164560408401600087015185820360008701526115bc565b940151910190610de8565b90565b6116699160208201916000818403910152611624565b90565b3461169c5761169861168761168236600461091a565b613347565b61168f610153565b91829182611653565b0390f35b610159565b600080fd5b606090565b67ffffffffffffffff81116116c35760208091020190565b6104f1565b906116da6116d5836116ab565b610530565b918252565b6116e890610a84565b90565b906116f58261094f565b6116fe816116c8565b9261170c6020850191610953565b6000915b83831061171d5750505050565b60016020819261172c856116df565b815201920192019190611710565b611743906116eb565b90565b61174e6116a6565b50611759600261173a565b90565b61177061176b61177592610dc4565b610179565b610dc4565b90565b6117819061175c565b90565b61178d90611778565b90565b9061179a90611784565b600052602052604060002090565b60ff1690565b6117ba6117bf91610370565b6117a8565b90565b6117cc90546117ae565b90565b60407f7920666f7220667572746865722064657461696c000000000000000000000000917f5468697320766f746572206973206e6f7420656c696769626c652c20706c656160008201527f736520636f6e73756c742074686520656c656374696f6e20617574686f72697460208201520152565b6118506054606092610aec565b611859816117cf565b0190565b6118739060208101906000818303910152611843565b90565b1561187d57565b611885610153565b62461bcd60e51b81528061189b6004820161185d565b0390fd5b151590565b60207f6572732063616e206f6e6c7920766f7465206f6e636500000000000000000000917f5468697320766f7465722068617320766f746564206265666f72652c20766f7460008201520152565b6118ff6036604092610aec565b611908816118a4565b0190565b61192290602081019060008183039101526118f2565b90565b1561192c57565b611934610153565b62461bcd60e51b81528061194a6004820161190c565b0390fd5b61195a61195f91610370565b610416565b90565b61196c905461194e565b90565b60007f456c656374696f6e206973206e6f7420696e20766f74696e6720737461746500910152565b6119a4601f602092610aec565b6119ad8161196f565b0190565b6119c79060208101906000818303910152611997565b90565b156119d157565b6119d9610153565b62461bcd60e51b8152806119ef600482016119b1565b0390fd5b60207f6d6174636820746865206e756d626572206f662063616e646964617465730000917f496e76616c6964206e756d626572206f6620766f7465732c2073686f756c642060008201520152565b611a4e603e604092610aec565b611a57816119f3565b0190565b611a719060208101906000818303910152611a41565b90565b15611a7b57565b611a83610153565b62461bcd60e51b815280611a9960048201611a5b565b0390fd5b6001611aa99101610176565b90565b90611ab6826113bb565b811015611ac7576020809102010190565b610939565b611ad590610cf7565b90565b60207f6564000000000000000000000000000000000000000000000000000000000000917f566f74652063697068657274657874206973206e6f742077656c6c2d666f726d60008201520152565b611b336022604092610aec565b611b3c81611ad8565b0190565b611b569060208101906000818303910152611b26565b90565b15611b6057565b611b68610153565b62461bcd60e51b815280611b7e60048201611b40565b0390fd5b90565b611b99611b94611b9e92611b82565b610179565b610176565b90565b60607f6461746500000000000000000000000000000000000000000000000000000000917f566f74652073756d206973206e6f7420657175616c20746f206f6e652c206d6560008201527f616e696e6720612062616c6c6f74206973206361737420666f72206d6f72652060208201527f7468616e206f6e652063616e646964617465206f72207a65726f2063616e646960408201520152565b611c486064608092610aec565b611c5181611ba1565b0190565b611c6b9060208101906000818303910152611c3b565b90565b15611c7557565b611c7d610153565b62461bcd60e51b815280611c9360048201611c55565b0390fd5b611ca16060610530565b90565b90611cae90610dcf565b9052565b52565b52565b90565b600052602060002090565b5490565b611cd381611cc6565b821015611cee57611ce5600891611cbb565b91020190600090565b610939565b611cfd9051610dcf565b90565b60001b90565b90611d1760018060a01b0391611d00565b9181191691161790565b90565b90611d39611d34611d4092611784565b611d21565b8254611d06565b9055565b5190565b5490565b634e487b7160e01b600052601160045260246000fd5b611d71611d7791939293610176565b92610176565b91611d83838202610176565b928184041490151715611d9257565b611d4c565b611da2906010611d62565b90565b600052602060002090565b1b90565b91906008611dd0910291611dca60001984611db0565b92611db0565b9181191691161790565b611dee611de9611df392610176565b610179565b610176565b90565b90565b9190611e0f611e0a611e1793611dda565b611df6565b908354611db4565b9055565b600090565b611e3291611e2c611e1b565b91611df9565b565b60006001611e4e92611e4883808301611e20565b01611e20565b565b90600003611e6357611e6190611e34565b565b610987565b60006002611e8292611e7c83808301611e50565b01611e50565b565b90600003611e9757611e9590611e68565b565b610987565b6000600b611f0492611eb083808301611e50565b611ebd8360028301611e50565b611eca8360048301611e50565b611ed78360068301611e50565b611ee48360088301611e20565b611ef18360098301611e20565b611efe83600a8301611e20565b01611e20565b565b90600003611f1957611f1790611e9c565b565b610987565b60006004611f3892611f3283808301611e84565b01611f06565b565b90600003611f4d57611f4b90611f1e565b565b610987565b5b818110611f5e575050565b80611f6c6000601093611f3a565b01611f53565b9091828110611f81575b505050565b611f9f611f99611f93611faa95611d97565b92611d97565b92611da5565b918201910190611f52565b388080611f7c565b90680100000000000000008111611fdb5781611fd0611fd993611d48565b90828155611f72565b565b6104f1565b5190565b5190565b5190565b611ff69051610176565b90565b9061200660001991611d00565b9181191691161790565b9061202561202061202c92611dda565b611df6565b8254611ff9565b9055565b9061205d60206001612063946120556000820161204f60008801611fec565b90612010565b019201611fec565b90612010565b565b9061206f91612030565b565b9061209e602060026120a4946120966000820161209060008801611fe8565b90612065565b019201611fe8565b90612065565b565b906120b091612071565b565b5190565b9061217960e0600b61217f946120db600082016120d560008801611fe8565b90612065565b6120f4600282016120ee60208801611fe8565b90612065565b61210d6004820161210760408801611fe8565b90612065565b6121266006820161212060608801611fe8565b90612065565b61213f6008820161213960808801611fec565b90612010565b6121586009820161215260a08801611fec565b90612010565b612171600a820161216b60c08801611fec565b90612010565b019201611fec565b90612010565b565b9061218b916120b6565b565b906121ba602060046121c0946121b2600082016121ac60008801611fe4565b906120a6565b0192016120b2565b90612181565b565b906121cc9161218d565b565b6121f36121ed6121dd846113bb565b936121e88585611fb2565b6113c8565b91611da5565b6000915b8383106122045750505050565b601060208261221d612217600195611fe0565b866121c2565b019201920191906121f7565b90612233916121ce565b565b5190565b906122986060600561229e9461225e6000820161225860008801611fe8565b90612065565b6122776002820161227160208801611fe8565b90612065565b6122906004820161228a60408801611fec565b90612010565b019201611fec565b90612010565b565b906122aa91612239565b565b906122f2604060026122f8946122d1600082016122cb60008801611cf3565b90611d24565b6122ea600182016122e460208801611d44565b90612229565b019201612235565b906122a0565b565b919061230b57612309916122ac565b565b610987565b9081549168010000000000000000831015612340578261233891600161233e95018155611cca565b906122fa565b565b6104f1565b9061235160ff91611d00565b9181191691161790565b6123649061189f565b90565b90565b9061237f61237a6123869261235b565b612367565b8254612345565b9055565b906123c9906040806123be61010084016123ac60008801516000870190611142565b602087015185820360208701526114cb565b94015191019061151c565b90565b6123e2916020820191600081840391015261238a565b90565b906124026123fd6123f860083390611790565b6117c2565b611876565b61242761242261241c61241760093390611790565b6117c2565b1561189f565b611925565b61244d6124346003611962565b6124476124416001610477565b91610477565b146119ca565b61247e61245d60008401516113bb565b61247861247261246d600261094f565b610176565b91610176565b14611a74565b612488600061133f565b5b806124a86124a261249d60008701516113bb565b610176565b91610176565b10156124fe576124f9906124f46124ef60006124c8818801518590611aac565b51015160206124dc60008901518690611aac565b5101516124e96004611acc565b91613613565b611b59565b611a9d565b612489565b506000612517818401516125118361133f565b90611aac565b5101516125246001611b85565b5b8061254461253e61253960008801516113bb565b610176565b91610176565b10156125ab576125a6906125726000840151600080612567818a01518690611aac565b510151015190613aed565b600084015261259c602084015160206000612591818a01518690611aac565b510151015190613aed565b6020840152611a9d565b612525565b506125d66125db9193929360208401516125c5600261094f565b906125d06004611acc565b92613c63565b611c6e565b612615339161260c60206000830151920151916126036125f9611c97565b9560008701611ca4565b60208501611cb2565b60408301611cb5565b6126296126226007611cb8565b8290612310565b61263f600161263a60093390611790565b61236a565b6126757f9fa7b96c93da79a8f3157d252f8f6d80dffd40993e53a8a4db2ef4db6acddd5b9161266c610153565b918291826123cc565b0390a1565b5190565b60007f4e6f20706f696e74732070726f76696465640000000000000000000000000000910152565b6126b36012602092610aec565b6126bc8161267e565b0190565b6126d690602081019060008183039101526126a6565b90565b156126e057565b6126e8610153565b62461bcd60e51b8152806126fe600482016126c0565b0390fd5b9061270c8261267a565b81101561271d576020809102010190565b610939565b905090565b61274c6127439260209261273a8161023a565b94858093612722565b93849101610247565b0190565b60007f2c00000000000000000000000000000000000000000000000000000000000000910152565b61278460018092612722565b61278d81612750565b0190565b6127a26127a7916127ad9493612727565b612778565b90612727565b90565b5190565b905090565b6127de6127d5926020926127cc816127b0565b948580936127b4565b93849101610247565b0190565b6127eb916127b9565b90565b6127f6610153565b3d6000823e3d90fd5b61280b61281091610370565b611dda565b90565b9061281c611e1b565b506128426128298361267a565b61283c612836600061133f565b91610176565b116126d9565b61285682612850600061133f565b90612702565b516128616001611b85565b905b8161287e6128786128738761267a565b610176565b91610176565b10156128a95761289d6128a391612896868590612702565b5190613aed565b91611a9d565b90612863565b602092935060009150612915906129046128df6128da866128d36128ce888701611fec565b614048565b9401611fec565b614048565b916128f66128eb610153565b938492888401612791565b868201810382520382610507565b61290c610153565b918291826127e2565b039060025afa156129365761293361292e600051611d00565b6127ff565b90565b6127ee565b61294560c0610530565b90565b600090565b61295561293b565b906020808080808087612966612948565b815201612971612948565b81520161297c612948565b815201612987612948565b815201612992612948565b81520161299d612948565b81525050565b6129ab61294d565b90565b6129b860c0610530565b90565b6129c36129a3565b506129cc610198565b612a476129d7610fd8565b612a3e6129e261135b565b612a356129ed6108cd565b612a2c6129f8611063565b93612a23612a046112de565b97612a1a612a106129ae565b9b60008d01610cdc565b60208b01610cdc565b60408901610cdc565b60608701610cdc565b60808501610cdc565b60a08301610cdc565b90565b612a52610cea565b9060208083612a5f612948565b815201612a6a612948565b81525050565b612a78612a4a565b90565b612a856040610530565b90565b612ab490612a94612a70565b5091612aab612aa1612a7b565b9360008501610cdc565b60208301610cdc565b90565b606090565b67ffffffffffffffff8111612ad45760208091020190565b6104f1565b90612aeb612ae683612abc565b610530565b918252565b52565b52565b612b006060610530565b90565b90612b54612b4b6003612b14612af6565b94612b2d612b2460008301610ccf565b60008801611ca4565b612b45612b3c60018301610cf7565b60208801612af0565b01610d3f565b60408401612af3565b565b612b5f90612b03565b90565b90612b6c82610c78565b612b7581612ad9565b92612b836020850191610c7c565b6000915b838310612b945750505050565b60056020600192612ba485612b56565b815201920192019190612b87565b612bbb90612b62565b90565b612bc6612ab7565b50612bd16006612bb2565b90565b60207f2031000000000000000000000000000000000000000000000000000000000000917f496e76616c696420766f74652c2063616e206f6e6c7920636173742030206f7260008201520152565b612c2f6022604092610aec565b612c3881612bd4565b0190565b612c529060208101906000818303910152612c22565b90565b15612c5c57565b612c64610153565b62461bcd60e51b815280612c7a60048201612c3c565b0390fd5b60007f496e76616c696420766f74650000000000000000000000000000000000000000910152565b612cb3600c602092610aec565b612cbc81612c7e565b0190565b612cd69060208101906000818303910152612ca6565b90565b90565b612cf0612ceb612cf592612cd9565b610179565b610176565b90565b612d00612a70565b5080612d15612d0f600061133f565b91610176565b148015612daf575b612d2690612c55565b80612d3a612d34600061133f565b91610176565b14600014612d505750612d4d6000611acc565b90565b612d63612d5d6001611b85565b91610176565b14600014612d8d57612d8a6002612d84612d7e600092612cdc565b91611acc565b906140f2565b90565b612d95610153565b62461bcd60e51b815280612dab60048201612cc0565b0390fd5b50612d2681612dc7612dc16001611b85565b91610176565b149050612d1d565b612dd96040610530565b90565b606090565b612de9612dcf565b9060208083612df6612ddc565b815201612e01612948565b81525050565b612e0f612de1565b90565b5490565b67ffffffffffffffff8111612e2e5760208091020190565b6104f1565b90612e45612e4083612e16565b610530565b918252565b612e546060610530565b90565b600090565b606090565b612e6b6080610530565b90565b612e76612a4a565b90565b612e81612e61565b90602080808085612e90612e6e565b815201612e9b612e6e565b815201612ea6612948565b815201612eb1612948565b81525050565b612ebf612e79565b90565b612eca612e4a565b906020808084612ed8612e57565b815201612ee3612e5c565b815201612eee612eb7565b81525050565b612efc612ec2565b90565b60005b828110612f0e57505050565b602090612f19612ef4565b8184015201612f02565b90612f48612f3083612e33565b92602080612f3e8693612e16565b9201910390612eff565b565b612f546040610530565b90565b52565b90565b612f71612f6c612f7692612f5a565b610179565b610176565b90565b60007f50616765206f7574206f662072616e6765000000000000000000000000000000910152565b612fae6011602092610aec565b612fb781612f79565b0190565b612fd19060208101906000818303910152612fa1565b90565b15612fdb57565b612fe3610153565b62461bcd60e51b815280612ff960048201612fbb565b0390fd5b61300c61301291939293610176565b92610176565b820391821161301d57565b611d4c565b61303161303791939293610176565b92610176565b820180921161304257565b611d4c565b600052602060002090565b61305b81612e12565b8210156130765761306d600891613047565b91020190600090565b610939565b90613085826113a8565b811015613096576020809102010190565b610939565b906130ad6130a88361054f565b610530565b918252565b6130bc6040610530565b90565b906130f86130ef60026130d06130b2565b946130e96130e060008301610cf7565b60008801612af0565b01610cf7565b60208401612af0565b565b52565b613108610100610530565b90565b906131d46131cb600b61311c6130fd565b9461313561312c60008301610cf7565b60008801612af0565b61314d61314460028301610cf7565b60208801612af0565b61316561315c60048301610cf7565b60408801612af0565b61317d61317460068301610cf7565b60608801612af0565b61319561318c6008830161038d565b60808801610cdc565b6131ad6131a46009830161038d565b60a08801610cdc565b6131c56131bc600a830161038d565b60c08801610cdc565b0161038d565b60e08401610cdc565b565b52565b6131e36040610530565b90565b9061321f61321660046131f76131d9565b94613210613207600083016130bf565b600088016130fa565b0161310b565b602084016131d6565b565b61322a906131e6565b90565b9061323782611d48565b6132408161309b565b9261324e6020850191611da5565b6000915b83831061325f5750505050565b6010602060019261326f85613221565b815201920192019190613252565b906132e66132dd600561328e612e61565b946132a761329e60008301610cf7565b60008801612af0565b6132bf6132b660028301610cf7565b60208801612af0565b6132d76132ce6004830161038d565b60408801610cdc565b0161038d565b60608401610cdc565b565b9061333961333060026132f9612e4a565b9461331261330960008301610ccf565b60008801611ca4565b61332a6133216001830161322d565b60208801611cb2565b0161327d565b60408401611cb5565b565b613344906132e8565b90565b90613350612e07565b5061335b6007612e12565b61336e613368600061133f565b91610176565b146134b65761337d6032612f5d565b6133cc6133c56133976133906007612e12565b849061415e565b946133b5816133ae6133a889610176565b91610176565b1115612fd4565b6133bf6001611b85565b90612ffd565b8290611d62565b906133d8828290613022565b6133f36133ed6133e86007612e12565b610176565b91610176565b116000146134a757506134066007612e12565b5b9161341b613416848490612ffd565b612f23565b93825b8061343161342b87610176565b91610176565b101561347c576134779061347061344a60078390613052565b508861346061345a858a90612ffd565b9261333b565b61346a838361307b565b5261307b565b5150611a9d565b61341e565b509250926134a491509161349b613491612f4a565b9360008501612f57565b60208301610cdc565b90565b6134b19082613022565b613407565b90506134ca6134c5600061133f565b612f23565b6134f56134ec60006134e76134dd612f4a565b9460008601612f57565b61133f565b60208301610cdc565b90565b600090565b9061350f61350a83610b74565b610530565b918252565b60005b82811061352357505050565b60209061352e612e6e565b8184015201613517565b9061355d613545836134fd565b926020806135538693610b74565b9201910390613514565b565b90565b61357661357161357b9261355f565b610179565b610176565b90565b90565b61359561359061359a9261357e565b610179565b610176565b90565b90565b6135b46135af6135b99261359d565b610179565b610176565b90565b90565b6135d36135ce6135d8926135bc565b610179565b610176565b90565b634e487b7160e01b600052601260045260246000fd5b6135fd61360391610176565b91610176565b90811561360e570690565b6135db565b61361b6134f8565b5061363b61362b60c08401611fec565b6136356000611acc565b906140f2565b613663600084015161365d61365260808701611fec565b6000860151906140f2565b90613aed565b61366f60008301611fec565b61368c61368661368160008501611fec565b610176565b91610176565b1415918215613ab9575b5050613ab1576136bb6136ab60e08401611fec565b6136b56000611acc565b906140f2565b6136e360208401516136dd6136d260a08701611fec565b6000860151906140f2565b90613aed565b6136ef60008301611fec565b61370c61370661370160008501611fec565b610176565b91610176565b1415918215613a7d575b5050613a755761373261372b60c08401611fec565b84906140f2565b613775604084015161376f61374960808701611fec565b613769602087015161376361375e600061133f565b612cf8565b906141b5565b906140f2565b90613aed565b61378160008301611fec565b61379e61379861379360008501611fec565b610176565b91610176565b1415918215613a41575b5050613a39576137c46137bd60e08401611fec565b84906140f2565b61380760608401516138016137db60a08701611fec565b6137fb60208701516137f56137f06001611b85565b612cf8565b906141b5565b906140f2565b90613aed565b61381360008301611fec565b61383061382a61382560008501611fec565b610176565b91610176565b1415918215613a05575b50506139fd5760206138dc9161388261385b61385660076108b1565b613538565b9561387c87916000906138766138708361133f565b85612702565b5261133f565b90612702565b51506138b260008201516138ac87916001906138a66138a083611b85565b85612702565b52611b85565b90612702565b515001516138d684916002906138d06138ca83612cdc565b85612702565b52612cdc565b90612702565b515061390c600082015161390684916003906139006138fa83613562565b85612702565b52613562565b90612702565b515061393c6040820151613936849160049061393061392a83613581565b85612702565b52613581565b90612702565b515061396c6020820151613966849160059061396061395a836135a0565b85612702565b526135a0565b90612702565b515061399c6060820151613996849160069061399061398a836135bf565b85612702565b526135bf565b90612702565b51506139b660a06139af60808401611fec565b9201611fec565b6139be6112de565b9081156139f8576139db6139ee926139e9926139f4950894612813565b6139e36112de565b906135f1565b610176565b91610176565b1490565b6135db565b505050600090565b613a30919250613a256020613a1e81613a2a9401611fec565b9401611fec565b610176565b91610176565b1415388061383a565b505050600090565b613a6c919250613a616020613a5a81613a669401611fec565b9401611fec565b610176565b91610176565b141538806137a8565b505050600090565b613aa8919250613a9d6020613a9681613aa29401611fec565b9401611fec565b610176565b91610176565b14153880613716565b505050600090565b613ae4919250613ad96020613ad281613ade9401611fec565b9401611fec565b610176565b91610176565b14153880613696565b90613af6612a70565b50613b01600061133f565b50613b0c600061133f565b50613b17600061133f565b50613b2460008301611fec565b613b41613b3b613b3660008501611fec565b610176565b91610176565b14600014613c0657613b606020613b59818501611fec565b9201611fec565b613b68611063565b918215613c015708613b83613b7d600061133f565b91610176565b14600014613bc457506000613bc1613bb86000613bb3613baa613ba4612a7b565b9561133f565b60008601610cdc565b61133f565b60208301610cdc565b90565b613bf381613be36020613bdc6000613bfe9601611fec565b9201611fec565b613bed6001611b85565b91614ad5565b90915b919091614d34565b90565b6135db565b81613c5c91613c266020613c1f6000613bfe9701611fec565b9301611fec565b906001613c416020613c3a60008501611fec565b9301611fec565b92613c56613c50600193611b85565b92611b85565b946142da565b9091613bf6565b9291613c6d6134f8565b50613c8d613c7d60608401611fec565b613c876000611acc565b906140f2565b613cb56000840151613caf613ca460408701611fec565b6000890151906140f2565b90613aed565b613cc160008301611fec565b613cde613cd8613cd360008501611fec565b610176565b91610176565b1415918215613f4b575b5050613f4257613d83613d07613d0060608501611fec565b85906140f2565b91613d7d602085015191613d77613d2060408801611fec565b91613d7160208b015191613d6b613d53613d42613d3d6001611b85565b612cf8565b92613d4d6001611b85565b90612ffd565b613d65613d60600061133f565b612cf8565b906140f2565b90613aed565b906141b5565b906140f2565b90613aed565b613d8f60008301611fec565b613dac613da6613da160008501611fec565b610176565b91610176565b1415918215613f0e575b5050613f0657613ef7613ee9613ee3613ed56040613efc95613e6d6020613e0e9a613e14613f029b613df0613deb60056135a0565b613538565b9d8e91600090613e08613e028361133f565b85612702565b5261133f565b90612702565b5150613e438c613e3d6000840151600190613e37613e3183611b85565b85612702565b52611b85565b90612702565b51500151613e678b91600290613e61613e5b83612cdc565b85612702565b52612cdc565b90612702565b5150613e9d6000820151613e978b91600390613e91613e8b83613562565b85612702565b52613562565b90612702565b5150613ecd6020820151613ec78b91600490613ec1613ebb83613581565b85612702565b52613581565b90612702565b515001611fec565b613edd6112de565b906135f1565b94612813565b613ef16112de565b906135f1565b610176565b91610176565b1490565b505050600090565b613f39919250613f2e6020613f2781613f339401611fec565b9401611fec565b610176565b91610176565b14153880613db6565b50505050600090565b613f76919250613f6b6020613f6481613f709401611fec565b9401611fec565b610176565b91610176565b14153880613ce8565b606090565b90613f8f9101610176565b90565b67ffffffffffffffff8111613fb057613fac60209161026c565b0190565b6104f1565b90613fc7613fc283613f92565b610530565b918252565b369037565b90613ff6613fde83613fb5565b92602080613fec8693613f92565b9201910390613fcc565b565b60016140049103610176565b90565b90565b61401e61401961402392614007565b610179565b610176565b90565b61403261403891610176565b91610176565b908115614043570490565b6135db565b614050613f7f565b5061406d61405d82614ee0565b6140676001611b85565b90613f84565b9061407782613fd1565b91614080611e1b565b5060200182015b6001156140eb5761409a6140c691613ff8565b916f181899199a1a9b1b9c1cb0b131b232b360811b600a82061a83536140c0600a61400a565b90614026565b806140da6140d4600061133f565b91610176565b146140e55790614087565b50505b90565b50506140e8565b6141399161412d91614102612a70565b509061411c602061411560008401611fec565b9201611fec565b906141276001611b85565b92615142565b91909190919091614d34565b90565b61414861414e91610176565b91610176565b908115614159570490565b6135db565b9061417d9061416b611e1b565b5061417783829061413c565b926135f1565b61419061418a600061133f565b91610176565b1460001461419c575b90565b6141b0906141aa6001611b85565b90613022565b614199565b6141ca6141d0926141c4612a70565b50615253565b90613aed565b90565b67ffffffffffffffff81116141e85760200290565b6104f1565b6141f96141fe916141d3565b610530565b90565b369037565b90614224614213836141ed565b9261421e84916141d3565b90614201565b565b6142306004614206565b90565b50600490565b9061424382614233565b811015614251576020020190565b610939565b60007f557365206a6163446f75626c652066756e6374696f6e20696e73746561640000910152565b61428b601e602092610aec565b61429481614256565b0190565b6142ae906020810190600081830391015261427e565b90565b156142b857565b6142c0610153565b62461bcd60e51b8152806142d660048201614298565b0390fd5b9295939091956142e8611e1b565b506142f1611e1b565b506142fa611e1b565b508361430f614309600061133f565b91610176565b1480614a9b575b614a8d578061432e614328600061133f565b91610176565b1480614a72575b614a6657614341614226565b92878861434c611063565b908115614a6157614371920961436c86614366600061133f565b90614239565b610cdc565b8761438e61438986614383600061133f565b90614239565b611fec565b614396611063565b908115614a5c576143bb92096143b6866143b06001611b85565b90614239565b610cdc565b86876143c5611063565b908115614a57576143ea92096143e5866143df6002612cdc565b90614239565b610cdc565b86614407614402866143fc6002612cdc565b90614239565b611fec565b61440f611063565b908115614a5257614434920961442f866144296003613562565b90614239565b610cdc565b61443e60046141ed565b9461445b614456866144506002612cdc565b90614239565b611fec565b614463611063565b908115614a4d57614478920960008701610cdc565b61449461448f856144896003613562565b90614239565b611fec565b61449c611063565b908115614a48576144b1920960208601610cdc565b906144ce6144c9846144c3600061133f565b90614239565b611fec565b906144d7611063565b928315614a435761450a93614505936144f4920960408701610cdc565b926144ff6001611b85565b90614239565b611fec565b614512611063565b908115614a3e57614527920960608301610cdc565b9261454461453f85614539600061133f565b90614239565b611fec565b61457161456b6145666145618861455b6002612cdc565b90614239565b611fec565b610176565b91610176565b141580156149e8575b614583906142b1565b61458b614226565b926145a86145a38661459d6002612cdc565b90614239565b611fec565b6145d56145b3611063565b6145cf6145ca896145c4600061133f565b90614239565b611fec565b90612ffd565b6145dd611063565b9081156149e35761460292086145fd866145f7600061133f565b90614239565b610cdc565b61461e614619866146136003613562565b90614239565b611fec565b61464b614629611063565b6146456146408961463a6001611b85565b90614239565b611fec565b90612ffd565b614653611063565b9081156149de5761467892086146738661466d6001611b85565b90614239565b610cdc565b61469461468f85614689600061133f565b90614239565b611fec565b6146b06146ab866146a5600061133f565b90614239565b611fec565b6146b8611063565b9081156149d9576146dd92096146d8866146d26002612cdc565b90614239565b610cdc565b6146f96146f4856146ee6002612cdc565b90614239565b611fec565b6147156147108661470a600061133f565b90614239565b611fec565b61471d611063565b9081156149d457614742920961473d866147376003613562565b90614239565b610cdc565b61475e614759856147536001611b85565b90614239565b611fec565b61477a6147758661476f6001611b85565b90614239565b611fec565b614782611063565b9182156149cf57096147b7614795611063565b6147b16147ac886147a66003613562565b90614239565b611fec565b90612ffd565b6147bf611063565b9182156149ca57086147cf611063565b6002906147ee6147e9896147e3600061133f565b90614239565b611fec565b61480a614805896147ff6002612cdc565b90614239565b611fec565b614812611063565b9182156149c55709614822611063565b9081156149c05761483561483c94612cdc565b0990612ffd565b614844611063565b9182156149bb5708946148696148648661485e6001611b85565b90614239565b611fec565b6148856148808361487a600061133f565b90614239565b611fec565b6148a161489c886148966002612cdc565b90614239565b611fec565b6148a9611063565b9182156149b657096148c36148bc611063565b8990612ffd565b6148cb611063565b9182156149b157086148db611063565b9182156149ac5709906149086149036148f2611063565b926148fd6001611b85565b90614239565b611fec565b906149256149208861491a6003613562565b90614239565b611fec565b61492d611063565b9081156149a75761493f930990612ffd565b90614948611063565b80156149a25761496d92614968920895614962600061133f565b90614239565b611fec565b9190614977611063565b91821561499d5709614987611063565b918215614998570992919291929190565b6135db565b6135db565b6135db565b6135db565b6135db565b6135db565b6135db565b6135db565b6135db565b6135db565b6135db565b6135db565b6135db565b6135db565b6135db565b6135db565b50614583614a08614a03866149fd6001611b85565b90614239565b611fec565b614a35614a2f614a2a614a2589614a1f6003613562565b90614239565b611fec565b610176565b91610176565b1415905061457a565b6135db565b6135db565b6135db565b6135db565b6135db565b6135db565b6135db565b6135db565b50509250919291929190565b5081614a87614a81600061133f565b91610176565b14614335565b925093945050919291929190565b5082614ab0614aaa600061133f565b91610176565b14614316565b90565b614acd614ac8614ad292614ab6565b610179565b610176565b90565b9290614adf611e1b565b50614ae8611e1b565b50614af1611e1b565b5082614b06614b00600061133f565b91610176565b14614d2a578384614b15611063565b918215614d255709938182614b28611063565b918215614d205709908485614b3b611063565b918215614d1b57099060049083614b50611063565b918215614d165709614b60611063565b918215614d1157614b7090613581565b0995600390614b7d611063565b918215614d0c57614b8d90613562565b0990614b9761135b565b9080614ba1611063565b918215614d075709614bb1611063565b918215614d025709614bc1611063565b918215614cfd5708948586614bd4611063565b918215614cf85709614be4611063565b829083614bef611063565b908115614cf357614c01930890612ffd565b614c09611063565b918215614cee57089590614c25614c1e611063565b8890612ffd565b614c2d611063565b918215614ce95708614c3d611063565b918215614ce4570990614c4e611063565b60089180614c5a611063565b918215614cdf5709614c6a611063565b908115614cda57614c7d614c8494614ab9565b0990612ffd565b614c8c611063565b918215614cd557089260029190614ca1611063565b918215614cd05709614cb1611063565b918215614ccb57614cc190612cdc565b0992919291929190565b6135db565b6135db565b6135db565b6135db565b6135db565b6135db565b6135db565b6135db565b6135db565b6135db565b6135db565b6135db565b6135db565b6135db565b6135db565b6135db565b6135db565b6135db565b6135db565b9192919291929190565b9091614d4890614d42612a70565b5061533f565b908182614d53611063565b918215614dc457099081614d65611063565b918215614dbf5709929190614d78611063565b918215614dba5709614d88611063565b908115614db557614db29209614da9614d9f612a7b565b9360008501610cdc565b60208301610cdc565b90565b6135db565b6135db565b6135db565b6135db565b90565b614de0614ddb614de592614dc9565b610179565b610176565b90565b90565b614dff614dfa614e0492614de8565b610179565b610176565b90565b90565b614e1e614e19614e2392614e07565b610179565b610176565b90565b90565b614e3d614e38614e4292614e26565b610179565b610176565b90565b90565b614e5c614e57614e6192614e45565b610179565b610176565b90565b90565b614e7b614e76614e8092614e64565b610179565b610176565b90565b90565b614e9a614e95614e9f92614e83565b610179565b610176565b90565b90565b614eb9614eb4614ebe92614ea2565b610179565b610176565b90565b90565b614ed8614ed3614edd92614ec1565b610179565b610176565b90565b614ee8611e1b565b50614ef3600061133f565b9080614f22614f1c7a184f03e93ff9f4daa797ed6e38ed64bf6a1f010000000000000000614dcc565b91610176565b10156150fa575b80614f4a614f446d04ee2d6d415b85acef8100000000614e0a565b91610176565b10156150bf575b80614f6b614f65662386f26fc10000614e48565b91610176565b101561508b575b80614f89614f836305f5e100614e86565b91610176565b101561505a575b80614fa5614f9f612710614ea5565b91610176565b101561502b575b80614fc0614fba6064614ec4565b91610176565b1015614ffd575b614fda614fd4600a61400a565b91610176565b1015614fe4575b90565b614ff890614ff26001611b85565b90613f84565b614fe1565b6150146150259161500e6064614ec4565b90614026565b9161501f6002612cdc565b90613f84565b90614fc7565b6150436150549161503d612710614ea5565b90614026565b9161504e6004613581565b90613f84565b90614fac565b6150746150859161506e6305f5e100614e86565b90614026565b9161507f6008614ab9565b90613f84565b90614f90565b6150a86150b9916150a2662386f26fc10000614e48565b90614026565b916150b36010614e67565b90613f84565b90614f72565b6150e36150f4916150dd6d04ee2d6d415b85acef8100000000614e0a565b90614026565b916150ee6020614e29565b90613f84565b90614f51565b61512b61513c916151257a184f03e93ff9f4daa797ed6e38ed64bf6a1f010000000000000000614dcc565b90614026565b916151366040614deb565b90613f84565b90614f29565b92919261514d611e1b565b50615156611e1b565b5061515f611e1b565b508061517461516e600061133f565b91610176565b14615247579390615185600061133f565b93615190600061133f565b9361519b6001611b85565b965b806151b16151ab600061133f565b91610176565b1461523b57806151c16001611b85565b166151d56151cf600061133f565b91610176565b0361520f575b906151f46151fd93926151ee6002612cdc565b9061413c565b93919091614ad5565b9591959490959295919594909461519d565b956151f4956151fd93929861522b929190869085928c946142da565b98919690969791929350506151db565b50505050909291929190565b50929092919291929190565b61525b612a70565b506152b861529a61528c61527160008501611fec565b93615286602061527f611063565b9201611fec565b90612ffd565b615294611063565b906135f1565b6152af6152a5612a7b565b9360008501610cdc565b60208301610cdc565b90565b60007f496e76616c6964206e756d626572000000000000000000000000000000000000910152565b6152f0600e602092610aec565b6152f9816152bb565b0190565b61531390602081019060008183039101526152e3565b90565b1561531d57565b615325610153565b62461bcd60e51b81528061533b600482016152fd565b0390fd5b615347611e1b565b508061535c615356600061133f565b91610176565b14158061544e575b80615426575b61537390615316565b61537d600061133f565b6153876001611b85565b90615390611063565b91615399611e1b565b505b836153af6153a9600061133f565b91610176565b1461541f576153bf83859061413c565b8192916153ca611063565b82916153d4611063565b90811561541a576153e6930990612ffd565b916153ef611063565b80156154155761540e9361540892089395809592611d62565b90612ffd565b929061539b565b6135db565b6135db565b5091505090565b50615373615432611063565b61544561543f600061133f565b91610176565b1415905061536a565b508061546961546361545e611063565b610176565b91610176565b141561536456fea264697066735822122094db6ae71dfcf490f80b6bf39f7652fd84562ec2ef34011c7a79da2eab86599164736f6c634300081c0033",
  "linkReferences": {},
  "deployedLinkReferences": {}
}