{
  "_format": "hh-sol-artifact-1",
  "contractName": "Election",
  "sourceName": "contracts/Election.sol",
  "abi": [
    {
      "inputs": [
        {
          "components": [
            {
              "internalType": "address",
              "name": "owner",
              "type": "address"
            },
            {
              "components": [
                {
                  "internalType": "uint256",
                  "name": "x",
                  "type": "uint256"
                },
                {
                  "internalType": "uint256",
                  "name": "y",
                  "type": "uint256"
                }
              ],
              "internalType": "struct Ecc.EcPoint",
              "name": "publicKey",
              "type": "tuple"
            },
            {
              "components": [
                {
                  "internalType": "uint256",
                  "name": "c",
                  "type": "uint256"
                },
                {
                  "internalType": "uint256",
                  "name": "d",
                  "type": "uint256"
                }
              ],
              "internalType": "struct Zkp.KeyOwnershipProof",
              "name": "proof",
              "type": "tuple"
            }
          ],
          "internalType": "struct Election.Key[]",
          "name": "_authorityKeys",
          "type": "tuple[]"
        },
        {
          "internalType": "string[]",
          "name": "_candidates",
          "type": "string[]"
        },
        {
          "internalType": "address[]",
          "name": "_whitelistedAddresses",
          "type": "address[]"
        },
        {
          "internalType": "uint64",
          "name": "_endTime",
          "type": "uint64"
        }
      ],
      "stateMutability": "nonpayable",
      "type": "constructor"
    },
    {
      "anonymous": false,
      "inputs": [
        {
          "components": [
            {
              "internalType": "uint64",
              "name": "id",
              "type": "uint64"
            },
            {
              "internalType": "address",
              "name": "from",
              "type": "address"
            },
            {
              "components": [
                {
                  "components": [
                    {
                      "components": [
                        {
                          "internalType": "uint256",
                          "name": "x",
                          "type": "uint256"
                        },
                        {
                          "internalType": "uint256",
                          "name": "y",
                          "type": "uint256"
                        }
                      ],
                      "internalType": "struct Ecc.EcPoint",
                      "name": "a",
                      "type": "tuple"
                    },
                    {
                      "components": [
                        {
                          "internalType": "uint256",
                          "name": "x",
                          "type": "uint256"
                        },
                        {
                          "internalType": "uint256",
                          "name": "y",
                          "type": "uint256"
                        }
                      ],
                      "internalType": "struct Ecc.EcPoint",
                      "name": "b",
                      "type": "tuple"
                    }
                  ],
                  "internalType": "struct Ecc.ECElGamalCiphertext",
                  "name": "ciphertext",
                  "type": "tuple"
                },
                {
                  "components": [
                    {
                      "components": [
                        {
                          "internalType": "uint256",
                          "name": "x",
                          "type": "uint256"
                        },
                        {
                          "internalType": "uint256",
                          "name": "y",
                          "type": "uint256"
                        }
                      ],
                      "internalType": "struct Ecc.EcPoint",
                      "name": "a0_",
                      "type": "tuple"
                    },
                    {
                      "components": [
                        {
                          "internalType": "uint256",
                          "name": "x",
                          "type": "uint256"
                        },
                        {
                          "internalType": "uint256",
                          "name": "y",
                          "type": "uint256"
                        }
                      ],
                      "internalType": "struct Ecc.EcPoint",
                      "name": "a1_",
                      "type": "tuple"
                    },
                    {
                      "components": [
                        {
                          "internalType": "uint256",
                          "name": "x",
                          "type": "uint256"
                        },
                        {
                          "internalType": "uint256",
                          "name": "y",
                          "type": "uint256"
                        }
                      ],
                      "internalType": "struct Ecc.EcPoint",
                      "name": "b0_",
                      "type": "tuple"
                    },
                    {
                      "components": [
                        {
                          "internalType": "uint256",
                          "name": "x",
                          "type": "uint256"
                        },
                        {
                          "internalType": "uint256",
                          "name": "y",
                          "type": "uint256"
                        }
                      ],
                      "internalType": "struct Ecc.EcPoint",
                      "name": "b1_",
                      "type": "tuple"
                    },
                    {
                      "internalType": "uint256",
                      "name": "c0",
                      "type": "uint256"
                    },
                    {
                      "internalType": "uint256",
                      "name": "c1",
                      "type": "uint256"
                    },
                    {
                      "internalType": "uint256",
                      "name": "r0__",
                      "type": "uint256"
                    },
                    {
                      "internalType": "uint256",
                      "name": "r1__",
                      "type": "uint256"
                    }
                  ],
                  "internalType": "struct Zkp.WellFormedVoteProof",
                  "name": "wellFormedVoteProof",
                  "type": "tuple"
                }
              ],
              "internalType": "struct Election.Vote[]",
              "name": "votes",
              "type": "tuple[]"
            },
            {
              "components": [
                {
                  "components": [
                    {
                      "internalType": "uint256",
                      "name": "x",
                      "type": "uint256"
                    },
                    {
                      "internalType": "uint256",
                      "name": "y",
                      "type": "uint256"
                    }
                  ],
                  "internalType": "struct Ecc.EcPoint",
                  "name": "A_",
                  "type": "tuple"
                },
                {
                  "components": [
                    {
                      "internalType": "uint256",
                      "name": "x",
                      "type": "uint256"
                    },
                    {
                      "internalType": "uint256",
                      "name": "y",
                      "type": "uint256"
                    }
                  ],
                  "internalType": "struct Ecc.EcPoint",
                  "name": "B_",
                  "type": "tuple"
                },
                {
                  "internalType": "uint256",
                  "name": "c",
                  "type": "uint256"
                },
                {
                  "internalType": "uint256",
                  "name": "R__",
                  "type": "uint256"
                }
              ],
              "internalType": "struct Zkp.SingleVoteSumProof",
              "name": "singleVoteSumProof",
              "type": "tuple"
            }
          ],
          "indexed": false,
          "internalType": "struct Election.Ballot",
          "name": "_ballot",
          "type": "tuple"
        }
      ],
      "name": "BallotCast",
      "type": "event"
    },
    {
      "inputs": [],
      "name": "A",
      "outputs": [
        {
          "internalType": "uint256",
          "name": "",
          "type": "uint256"
        }
      ],
      "stateMutability": "view",
      "type": "function"
    },
    {
      "inputs": [],
      "name": "B",
      "outputs": [
        {
          "internalType": "uint256",
          "name": "",
          "type": "uint256"
        }
      ],
      "stateMutability": "view",
      "type": "function"
    },
    {
      "inputs": [],
      "name": "G",
      "outputs": [
        {
          "internalType": "uint256",
          "name": "x",
          "type": "uint256"
        },
        {
          "internalType": "uint256",
          "name": "y",
          "type": "uint256"
        }
      ],
      "stateMutability": "view",
      "type": "function"
    },
    {
      "inputs": [],
      "name": "GX",
      "outputs": [
        {
          "internalType": "uint256",
          "name": "",
          "type": "uint256"
        }
      ],
      "stateMutability": "view",
      "type": "function"
    },
    {
      "inputs": [],
      "name": "GY",
      "outputs": [
        {
          "internalType": "uint256",
          "name": "",
          "type": "uint256"
        }
      ],
      "stateMutability": "view",
      "type": "function"
    },
    {
      "inputs": [],
      "name": "N",
      "outputs": [
        {
          "internalType": "uint256",
          "name": "",
          "type": "uint256"
        }
      ],
      "stateMutability": "view",
      "type": "function"
    },
    {
      "inputs": [],
      "name": "P",
      "outputs": [
        {
          "internalType": "uint256",
          "name": "",
          "type": "uint256"
        }
      ],
      "stateMutability": "view",
      "type": "function"
    },
    {
      "inputs": [
        {
          "internalType": "uint256",
          "name": "",
          "type": "uint256"
        }
      ],
      "name": "authorities",
      "outputs": [
        {
          "internalType": "address",
          "name": "owner",
          "type": "address"
        },
        {
          "components": [
            {
              "internalType": "uint256",
              "name": "x",
              "type": "uint256"
            },
            {
              "internalType": "uint256",
              "name": "y",
              "type": "uint256"
            }
          ],
          "internalType": "struct Ecc.EcPoint",
          "name": "publicKey",
          "type": "tuple"
        },
        {
          "components": [
            {
              "internalType": "uint256",
              "name": "c",
              "type": "uint256"
            },
            {
              "internalType": "uint256",
              "name": "d",
              "type": "uint256"
            }
          ],
          "internalType": "struct Zkp.KeyOwnershipProof",
          "name": "proof",
          "type": "tuple"
        }
      ],
      "stateMutability": "view",
      "type": "function"
    },
    {
      "inputs": [
        {
          "internalType": "uint256",
          "name": "",
          "type": "uint256"
        }
      ],
      "name": "ballots",
      "outputs": [
        {
          "internalType": "uint64",
          "name": "id",
          "type": "uint64"
        },
        {
          "internalType": "address",
          "name": "from",
          "type": "address"
        },
        {
          "components": [
            {
              "components": [
                {
                  "internalType": "uint256",
                  "name": "x",
                  "type": "uint256"
                },
                {
                  "internalType": "uint256",
                  "name": "y",
                  "type": "uint256"
                }
              ],
              "internalType": "struct Ecc.EcPoint",
              "name": "A_",
              "type": "tuple"
            },
            {
              "components": [
                {
                  "internalType": "uint256",
                  "name": "x",
                  "type": "uint256"
                },
                {
                  "internalType": "uint256",
                  "name": "y",
                  "type": "uint256"
                }
              ],
              "internalType": "struct Ecc.EcPoint",
              "name": "B_",
              "type": "tuple"
            },
            {
              "internalType": "uint256",
              "name": "c",
              "type": "uint256"
            },
            {
              "internalType": "uint256",
              "name": "R__",
              "type": "uint256"
            }
          ],
          "internalType": "struct Zkp.SingleVoteSumProof",
          "name": "singleVoteSumProof",
          "type": "tuple"
        }
      ],
      "stateMutability": "view",
      "type": "function"
    },
    {
      "inputs": [
        {
          "internalType": "uint256",
          "name": "",
          "type": "uint256"
        }
      ],
      "name": "candidates",
      "outputs": [
        {
          "internalType": "string",
          "name": "",
          "type": "string"
        }
      ],
      "stateMutability": "view",
      "type": "function"
    },
    {
      "inputs": [],
      "name": "electionPublicKey",
      "outputs": [
        {
          "internalType": "uint256",
          "name": "x",
          "type": "uint256"
        },
        {
          "internalType": "uint256",
          "name": "y",
          "type": "uint256"
        }
      ],
      "stateMutability": "view",
      "type": "function"
    },
    {
      "inputs": [
        {
          "internalType": "uint256",
          "name": "v",
          "type": "uint256"
        }
      ],
      "name": "encodeVote",
      "outputs": [
        {
          "components": [
            {
              "internalType": "uint256",
              "name": "x",
              "type": "uint256"
            },
            {
              "internalType": "uint256",
              "name": "y",
              "type": "uint256"
            }
          ],
          "internalType": "struct Ecc.EcPoint",
          "name": "",
          "type": "tuple"
        }
      ],
      "stateMutability": "view",
      "type": "function"
    },
    {
      "inputs": [],
      "name": "endTime",
      "outputs": [
        {
          "internalType": "uint64",
          "name": "",
          "type": "uint64"
        }
      ],
      "stateMutability": "view",
      "type": "function"
    },
    {
      "inputs": [],
      "name": "getAllBallots",
      "outputs": [
        {
          "components": [
            {
              "internalType": "uint64",
              "name": "id",
              "type": "uint64"
            },
            {
              "internalType": "address",
              "name": "from",
              "type": "address"
            },
            {
              "components": [
                {
                  "components": [
                    {
                      "components": [
                        {
                          "internalType": "uint256",
                          "name": "x",
                          "type": "uint256"
                        },
                        {
                          "internalType": "uint256",
                          "name": "y",
                          "type": "uint256"
                        }
                      ],
                      "internalType": "struct Ecc.EcPoint",
                      "name": "a",
                      "type": "tuple"
                    },
                    {
                      "components": [
                        {
                          "internalType": "uint256",
                          "name": "x",
                          "type": "uint256"
                        },
                        {
                          "internalType": "uint256",
                          "name": "y",
                          "type": "uint256"
                        }
                      ],
                      "internalType": "struct Ecc.EcPoint",
                      "name": "b",
                      "type": "tuple"
                    }
                  ],
                  "internalType": "struct Ecc.ECElGamalCiphertext",
                  "name": "ciphertext",
                  "type": "tuple"
                },
                {
                  "components": [
                    {
                      "components": [
                        {
                          "internalType": "uint256",
                          "name": "x",
                          "type": "uint256"
                        },
                        {
                          "internalType": "uint256",
                          "name": "y",
                          "type": "uint256"
                        }
                      ],
                      "internalType": "struct Ecc.EcPoint",
                      "name": "a0_",
                      "type": "tuple"
                    },
                    {
                      "components": [
                        {
                          "internalType": "uint256",
                          "name": "x",
                          "type": "uint256"
                        },
                        {
                          "internalType": "uint256",
                          "name": "y",
                          "type": "uint256"
                        }
                      ],
                      "internalType": "struct Ecc.EcPoint",
                      "name": "a1_",
                      "type": "tuple"
                    },
                    {
                      "components": [
                        {
                          "internalType": "uint256",
                          "name": "x",
                          "type": "uint256"
                        },
                        {
                          "internalType": "uint256",
                          "name": "y",
                          "type": "uint256"
                        }
                      ],
                      "internalType": "struct Ecc.EcPoint",
                      "name": "b0_",
                      "type": "tuple"
                    },
                    {
                      "components": [
                        {
                          "internalType": "uint256",
                          "name": "x",
                          "type": "uint256"
                        },
                        {
                          "internalType": "uint256",
                          "name": "y",
                          "type": "uint256"
                        }
                      ],
                      "internalType": "struct Ecc.EcPoint",
                      "name": "b1_",
                      "type": "tuple"
                    },
                    {
                      "internalType": "uint256",
                      "name": "c0",
                      "type": "uint256"
                    },
                    {
                      "internalType": "uint256",
                      "name": "c1",
                      "type": "uint256"
                    },
                    {
                      "internalType": "uint256",
                      "name": "r0__",
                      "type": "uint256"
                    },
                    {
                      "internalType": "uint256",
                      "name": "r1__",
                      "type": "uint256"
                    }
                  ],
                  "internalType": "struct Zkp.WellFormedVoteProof",
                  "name": "wellFormedVoteProof",
                  "type": "tuple"
                }
              ],
              "internalType": "struct Election.Vote[]",
              "name": "votes",
              "type": "tuple[]"
            },
            {
              "components": [
                {
                  "components": [
                    {
                      "internalType": "uint256",
                      "name": "x",
                      "type": "uint256"
                    },
                    {
                      "internalType": "uint256",
                      "name": "y",
                      "type": "uint256"
                    }
                  ],
                  "internalType": "struct Ecc.EcPoint",
                  "name": "A_",
                  "type": "tuple"
                },
                {
                  "components": [
                    {
                      "internalType": "uint256",
                      "name": "x",
                      "type": "uint256"
                    },
                    {
                      "internalType": "uint256",
                      "name": "y",
                      "type": "uint256"
                    }
                  ],
                  "internalType": "struct Ecc.EcPoint",
                  "name": "B_",
                  "type": "tuple"
                },
                {
                  "internalType": "uint256",
                  "name": "c",
                  "type": "uint256"
                },
                {
                  "internalType": "uint256",
                  "name": "R__",
                  "type": "uint256"
                }
              ],
              "internalType": "struct Zkp.SingleVoteSumProof",
              "name": "singleVoteSumProof",
              "type": "tuple"
            }
          ],
          "internalType": "struct Election.Ballot[]",
          "name": "",
          "type": "tuple[]"
        }
      ],
      "stateMutability": "view",
      "type": "function"
    },
    {
      "inputs": [],
      "name": "getAuthorities",
      "outputs": [
        {
          "components": [
            {
              "internalType": "address",
              "name": "owner",
              "type": "address"
            },
            {
              "components": [
                {
                  "internalType": "uint256",
                  "name": "x",
                  "type": "uint256"
                },
                {
                  "internalType": "uint256",
                  "name": "y",
                  "type": "uint256"
                }
              ],
              "internalType": "struct Ecc.EcPoint",
              "name": "publicKey",
              "type": "tuple"
            },
            {
              "components": [
                {
                  "internalType": "uint256",
                  "name": "c",
                  "type": "uint256"
                },
                {
                  "internalType": "uint256",
                  "name": "d",
                  "type": "uint256"
                }
              ],
              "internalType": "struct Zkp.KeyOwnershipProof",
              "name": "proof",
              "type": "tuple"
            }
          ],
          "internalType": "struct Election.Key[]",
          "name": "",
          "type": "tuple[]"
        }
      ],
      "stateMutability": "view",
      "type": "function"
    },
    {
      "inputs": [
        {
          "internalType": "uint256",
          "name": "page",
          "type": "uint256"
        }
      ],
      "name": "getBallots",
      "outputs": [
        {
          "components": [
            {
              "components": [
                {
                  "internalType": "uint64",
                  "name": "id",
                  "type": "uint64"
                },
                {
                  "internalType": "address",
                  "name": "from",
                  "type": "address"
                },
                {
                  "components": [
                    {
                      "components": [
                        {
                          "components": [
                            {
                              "internalType": "uint256",
                              "name": "x",
                              "type": "uint256"
                            },
                            {
                              "internalType": "uint256",
                              "name": "y",
                              "type": "uint256"
                            }
                          ],
                          "internalType": "struct Ecc.EcPoint",
                          "name": "a",
                          "type": "tuple"
                        },
                        {
                          "components": [
                            {
                              "internalType": "uint256",
                              "name": "x",
                              "type": "uint256"
                            },
                            {
                              "internalType": "uint256",
                              "name": "y",
                              "type": "uint256"
                            }
                          ],
                          "internalType": "struct Ecc.EcPoint",
                          "name": "b",
                          "type": "tuple"
                        }
                      ],
                      "internalType": "struct Ecc.ECElGamalCiphertext",
                      "name": "ciphertext",
                      "type": "tuple"
                    },
                    {
                      "components": [
                        {
                          "components": [
                            {
                              "internalType": "uint256",
                              "name": "x",
                              "type": "uint256"
                            },
                            {
                              "internalType": "uint256",
                              "name": "y",
                              "type": "uint256"
                            }
                          ],
                          "internalType": "struct Ecc.EcPoint",
                          "name": "a0_",
                          "type": "tuple"
                        },
                        {
                          "components": [
                            {
                              "internalType": "uint256",
                              "name": "x",
                              "type": "uint256"
                            },
                            {
                              "internalType": "uint256",
                              "name": "y",
                              "type": "uint256"
                            }
                          ],
                          "internalType": "struct Ecc.EcPoint",
                          "name": "a1_",
                          "type": "tuple"
                        },
                        {
                          "components": [
                            {
                              "internalType": "uint256",
                              "name": "x",
                              "type": "uint256"
                            },
                            {
                              "internalType": "uint256",
                              "name": "y",
                              "type": "uint256"
                            }
                          ],
                          "internalType": "struct Ecc.EcPoint",
                          "name": "b0_",
                          "type": "tuple"
                        },
                        {
                          "components": [
                            {
                              "internalType": "uint256",
                              "name": "x",
                              "type": "uint256"
                            },
                            {
                              "internalType": "uint256",
                              "name": "y",
                              "type": "uint256"
                            }
                          ],
                          "internalType": "struct Ecc.EcPoint",
                          "name": "b1_",
                          "type": "tuple"
                        },
                        {
                          "internalType": "uint256",
                          "name": "c0",
                          "type": "uint256"
                        },
                        {
                          "internalType": "uint256",
                          "name": "c1",
                          "type": "uint256"
                        },
                        {
                          "internalType": "uint256",
                          "name": "r0__",
                          "type": "uint256"
                        },
                        {
                          "internalType": "uint256",
                          "name": "r1__",
                          "type": "uint256"
                        }
                      ],
                      "internalType": "struct Zkp.WellFormedVoteProof",
                      "name": "wellFormedVoteProof",
                      "type": "tuple"
                    }
                  ],
                  "internalType": "struct Election.Vote[]",
                  "name": "votes",
                  "type": "tuple[]"
                },
                {
                  "components": [
                    {
                      "components": [
                        {
                          "internalType": "uint256",
                          "name": "x",
                          "type": "uint256"
                        },
                        {
                          "internalType": "uint256",
                          "name": "y",
                          "type": "uint256"
                        }
                      ],
                      "internalType": "struct Ecc.EcPoint",
                      "name": "A_",
                      "type": "tuple"
                    },
                    {
                      "components": [
                        {
                          "internalType": "uint256",
                          "name": "x",
                          "type": "uint256"
                        },
                        {
                          "internalType": "uint256",
                          "name": "y",
                          "type": "uint256"
                        }
                      ],
                      "internalType": "struct Ecc.EcPoint",
                      "name": "B_",
                      "type": "tuple"
                    },
                    {
                      "internalType": "uint256",
                      "name": "c",
                      "type": "uint256"
                    },
                    {
                      "internalType": "uint256",
                      "name": "R__",
                      "type": "uint256"
                    }
                  ],
                  "internalType": "struct Zkp.SingleVoteSumProof",
                  "name": "singleVoteSumProof",
                  "type": "tuple"
                }
              ],
              "internalType": "struct Election.Ballot[]",
              "name": "ballots",
              "type": "tuple[]"
            },
            {
              "internalType": "uint256",
              "name": "totalPage",
              "type": "uint256"
            }
          ],
          "internalType": "struct Election.PaginatedBallot",
          "name": "",
          "type": "tuple"
        }
      ],
      "stateMutability": "view",
      "type": "function"
    },
    {
      "inputs": [],
      "name": "getCandidates",
      "outputs": [
        {
          "internalType": "string[]",
          "name": "",
          "type": "string[]"
        }
      ],
      "stateMutability": "view",
      "type": "function"
    },
    {
      "inputs": [],
      "name": "getECCParams",
      "outputs": [
        {
          "components": [
            {
              "internalType": "uint256",
              "name": "gx",
              "type": "uint256"
            },
            {
              "internalType": "uint256",
              "name": "gy",
              "type": "uint256"
            },
            {
              "internalType": "uint256",
              "name": "a",
              "type": "uint256"
            },
            {
              "internalType": "uint256",
              "name": "b",
              "type": "uint256"
            },
            {
              "internalType": "uint256",
              "name": "p",
              "type": "uint256"
            },
            {
              "internalType": "uint256",
              "name": "n",
              "type": "uint256"
            }
          ],
          "internalType": "struct Ecc.EccParams",
          "name": "",
          "type": "tuple"
        }
      ],
      "stateMutability": "pure",
      "type": "function"
    },
    {
      "inputs": [
        {
          "components": [
            {
              "internalType": "uint256",
              "name": "x",
              "type": "uint256"
            },
            {
              "internalType": "uint256",
              "name": "y",
              "type": "uint256"
            }
          ],
          "internalType": "struct Ecc.EcPoint[]",
          "name": "points",
          "type": "tuple[]"
        }
      ],
      "name": "hashMultiplePointsToScalar",
      "outputs": [
        {
          "internalType": "uint256",
          "name": "",
          "type": "uint256"
        }
      ],
      "stateMutability": "pure",
      "type": "function"
    },
    {
      "inputs": [
        {
          "internalType": "uint256",
          "name": "x",
          "type": "uint256"
        },
        {
          "internalType": "uint256",
          "name": "y",
          "type": "uint256"
        }
      ],
      "name": "newEcPoint",
      "outputs": [
        {
          "components": [
            {
              "internalType": "uint256",
              "name": "x",
              "type": "uint256"
            },
            {
              "internalType": "uint256",
              "name": "y",
              "type": "uint256"
            }
          ],
          "internalType": "struct Ecc.EcPoint",
          "name": "",
          "type": "tuple"
        }
      ],
      "stateMutability": "pure",
      "type": "function"
    },
    {
      "inputs": [
        {
          "components": [
            {
              "components": [
                {
                  "components": [
                    {
                      "components": [
                        {
                          "internalType": "uint256",
                          "name": "x",
                          "type": "uint256"
                        },
                        {
                          "internalType": "uint256",
                          "name": "y",
                          "type": "uint256"
                        }
                      ],
                      "internalType": "struct Ecc.EcPoint",
                      "name": "a",
                      "type": "tuple"
                    },
                    {
                      "components": [
                        {
                          "internalType": "uint256",
                          "name": "x",
                          "type": "uint256"
                        },
                        {
                          "internalType": "uint256",
                          "name": "y",
                          "type": "uint256"
                        }
                      ],
                      "internalType": "struct Ecc.EcPoint",
                      "name": "b",
                      "type": "tuple"
                    }
                  ],
                  "internalType": "struct Ecc.ECElGamalCiphertext",
                  "name": "ciphertext",
                  "type": "tuple"
                },
                {
                  "components": [
                    {
                      "components": [
                        {
                          "internalType": "uint256",
                          "name": "x",
                          "type": "uint256"
                        },
                        {
                          "internalType": "uint256",
                          "name": "y",
                          "type": "uint256"
                        }
                      ],
                      "internalType": "struct Ecc.EcPoint",
                      "name": "a0_",
                      "type": "tuple"
                    },
                    {
                      "components": [
                        {
                          "internalType": "uint256",
                          "name": "x",
                          "type": "uint256"
                        },
                        {
                          "internalType": "uint256",
                          "name": "y",
                          "type": "uint256"
                        }
                      ],
                      "internalType": "struct Ecc.EcPoint",
                      "name": "a1_",
                      "type": "tuple"
                    },
                    {
                      "components": [
                        {
                          "internalType": "uint256",
                          "name": "x",
                          "type": "uint256"
                        },
                        {
                          "internalType": "uint256",
                          "name": "y",
                          "type": "uint256"
                        }
                      ],
                      "internalType": "struct Ecc.EcPoint",
                      "name": "b0_",
                      "type": "tuple"
                    },
                    {
                      "components": [
                        {
                          "internalType": "uint256",
                          "name": "x",
                          "type": "uint256"
                        },
                        {
                          "internalType": "uint256",
                          "name": "y",
                          "type": "uint256"
                        }
                      ],
                      "internalType": "struct Ecc.EcPoint",
                      "name": "b1_",
                      "type": "tuple"
                    },
                    {
                      "internalType": "uint256",
                      "name": "c0",
                      "type": "uint256"
                    },
                    {
                      "internalType": "uint256",
                      "name": "c1",
                      "type": "uint256"
                    },
                    {
                      "internalType": "uint256",
                      "name": "r0__",
                      "type": "uint256"
                    },
                    {
                      "internalType": "uint256",
                      "name": "r1__",
                      "type": "uint256"
                    }
                  ],
                  "internalType": "struct Zkp.WellFormedVoteProof",
                  "name": "wellFormedVoteProof",
                  "type": "tuple"
                }
              ],
              "internalType": "struct Election.Vote[]",
              "name": "votes",
              "type": "tuple[]"
            },
            {
              "components": [
                {
                  "components": [
                    {
                      "internalType": "uint256",
                      "name": "x",
                      "type": "uint256"
                    },
                    {
                      "internalType": "uint256",
                      "name": "y",
                      "type": "uint256"
                    }
                  ],
                  "internalType": "struct Ecc.EcPoint",
                  "name": "A_",
                  "type": "tuple"
                },
                {
                  "components": [
                    {
                      "internalType": "uint256",
                      "name": "x",
                      "type": "uint256"
                    },
                    {
                      "internalType": "uint256",
                      "name": "y",
                      "type": "uint256"
                    }
                  ],
                  "internalType": "struct Ecc.EcPoint",
                  "name": "B_",
                  "type": "tuple"
                },
                {
                  "internalType": "uint256",
                  "name": "c",
                  "type": "uint256"
                },
                {
                  "internalType": "uint256",
                  "name": "R__",
                  "type": "uint256"
                }
              ],
              "internalType": "struct Zkp.SingleVoteSumProof",
              "name": "singleVoteSumProof",
              "type": "tuple"
            }
          ],
          "internalType": "struct Election.BallotInput",
          "name": "_ballot",
          "type": "tuple"
        }
      ],
      "name": "submitBallot",
      "outputs": [],
      "stateMutability": "payable",
      "type": "function"
    }
  ],
  "bytecode": "0x6080604052346100335761001d610014610524565b92919091611294565b610025610038565b615a456133428239615a4590f35b61003e565b60405190565b600080fd5b601f801991011690565b634e487b7160e01b600052604160045260246000fd5b9061006d90610043565b810190811060018060401b0382111761008557604052565b61004d565b9061009d610096610038565b9283610063565b565b600080fd5b600080fd5b600080fd5b60018060401b0381116100c45760208091020190565b61004d565b600080fd5b600080fd5b60018060a01b031690565b6100e7906100d3565b90565b6100f3816100de565b036100fa57565b600080fd5b9050519061010c826100ea565b565b90565b61011a8161010e565b0361012157565b600080fd5b9050519061013382610111565b565b91906040838203126101715761016a9061014f604061008a565b9361015d8260008301610126565b6000860152602001610126565b6020830152565b6100ce565b91906040838203126101b2576101ab90610190604061008a565b9361019e8260008301610126565b6000860152602001610126565b6020830152565b6100ce565b919060a083820312610205576101fe906101d1606061008a565b936101df82600083016100ff565b60008601526101f18260208301610135565b6020860152606001610176565b6040830152565b6100ce565b9092919261021f61021a826100ae565b61008a565b9381855260a060208601920283019281841161025e57915b8383106102445750505050565b602060a09161025384866101b7565b815201920191610237565b6100c9565b9080601f830112156102815781602061027e9351910161020a565b90565b6100a9565b60018060401b03811161029c5760208091020190565b61004d565b600080fd5b60018060401b0381116102c2576102be602091610043565b0190565b61004d565b60005b8381106102db575050906000910152565b8060209183015181850152016102ca565b909291926103016102fc826102a6565b61008a565b9381855260208501908284011161031d5761031b926102c7565b565b6102a1565b9080601f830112156103405781602061033d935191016102ec565b90565b6100a9565b92919061035961035482610286565b61008a565b93818552602080860192028101918383116103ae5781905b83821061037f575050505050565b815160018060401b0381116103a95760209161039e8784938701610322565b815201910190610371565b6100a9565b6100c9565b9080601f830112156103d1578160206103ce93519101610345565b90565b6100a9565b60018060401b0381116103ec5760208091020190565b61004d565b90929192610406610401826103d6565b61008a565b938185526020808601920283019281841161044357915b83831061042a5750505050565b6020809161043884866100ff565b81520192019161041d565b6100c9565b9080601f8301121561046657816020610463935191016103f1565b90565b6100a9565b60018060401b031690565b61047f8161046b565b0361048657565b600080fd5b9050519061049882610476565b565b60808183031261051f57600081015160018060401b03811161051a57826104c2918301610263565b92602082015160018060401b03811161051557836104e19184016103b3565b9260408301519060018060401b038211610510576105048161050d938601610448565b9360600161048b565b90565b6100a4565b6100a4565b6100a4565b61009f565b610542618d87803803806105378161008a565b92833981019061049a565b90919293565b5190565b90565b90565b61056661056161056b9261054c565b61054f565b61010e565b90565b60209181520190565b60207f6972656400000000000000000000000000000000000000000000000000000000917f4174206c656173742074776f2063616e6469646174657320617265207265717560008201520152565b6105d2602460409261056e565b6105db81610577565b0190565b6105f590602081019060008183039101526105c5565b90565b156105ff57565b610607610038565b62461bcd60e51b81528061061d600482016105df565b0390fd5b5190565b90565b61063c61063761064192610625565b61054f565b61010e565b90565b60207f6564000000000000000000000000000000000000000000000000000000000000917f4174206c65617374206f6e6520617574686f726974792069732072657175697260008201520152565b61069f602260409261056e565b6106a881610644565b0190565b6106c29060208101906000818303910152610692565b90565b156106cc57565b6106d4610038565b62461bcd60e51b8152806106ea600482016106ac565b0390fd5b60016106fa910161010e565b90565b634e487b7160e01b600052601160045260246000fd5b6107226107289193929361010e565b9261010e565b820180921161073357565b6106fd565b634e487b7160e01b600052603260045260246000fd5b9061075882610621565b811015610769576020809102010190565b610738565b610778905161010e565b90565b60007f4475706c696361746520617574686f72697479207075626c6963206b65790000910152565b6107b0601e60209261056e565b6107b98161077b565b0190565b6107d390602081019060008183039101526107a3565b90565b156107dd57565b6107e5610038565b62461bcd60e51b8152806107fb600482016107bd565b0390fd5b60007f4475706c696361746520617574686f726974792070726f6f6600000000000000910152565b610834601960209261056e565b61083d816107ff565b0190565b6108579060208101906000818303910152610827565b90565b1561086157565b610869610038565b62461bcd60e51b81528061087f60048201610841565b0390fd5b5190565b9061089182610883565b8110156108a2576020809102010190565b610738565b6108b190516100de565b90565b6108c86108c36108cd926100d3565b61054f565b6100d3565b90565b6108d9906108b4565b90565b6108e5906108d0565b90565b906108f2906108dc565b600052602052604060002090565b60001b90565b9061091260ff91610900565b9181191691161790565b151590565b61092a9061091c565b90565b90565b9061094561094061094c92610921565b61092d565b8254610906565b9055565b60007f496e76616c6964207075626c6963206b65790000000000000000000000000000910152565b610985601260209261056e565b61098e81610950565b0190565b6109a89060208101906000818303910152610978565b90565b156109b257565b6109ba610038565b62461bcd60e51b8152806109d060048201610992565b0390fd5b60007f496e76616c6964206b65792070726f6f66000000000000000000000000000000910152565b610a09601160209261056e565b610a12816109d4565b0190565b610a2c90602081019060008183039101526109fc565b90565b15610a3657565b610a3e610038565b62461bcd60e51b815280610a5460048201610a16565b0390fd5b90565b600052602060002090565b5490565b610a7381610a66565b821015610a8e57610a85600591610a5b565b91020190600090565b610738565b634e487b7160e01b600052600060045260246000fd5b90610aba60018060a01b0391610900565b9181191691161790565b90565b90610adc610ad7610ae3926108dc565b610ac4565b8254610aa9565b9055565b5190565b90610af860001991610900565b9181191691161790565b610b16610b11610b1b9261010e565b61054f565b61010e565b90565b90565b90610b36610b31610b3d92610b02565b610b1e565b8254610aeb565b9055565b90610b6e60206001610b7494610b6660008201610b606000880161076e565b90610b21565b01920161076e565b90610b21565b565b90610b8091610b41565b565b5190565b90610bb360206001610bb994610bab60008201610ba56000880161076e565b90610b21565b01920161076e565b90610b21565b565b90610bc591610b86565b565b90610c0d60406003610c1394610bec60008201610be6600088016108a7565b90610ac7565b610c0560018201610bff60208801610ae7565b90610b76565b019201610b82565b90610bbb565b565b9190610c2657610c2491610bc7565b565b610a93565b1b90565b9081549168010000000000000000831015610c5f5782610c57916001610c5d95018155610a6a565b90610c15565b565b61004d565b610c6e604061008a565b90565b90610c7b9061010e565b9052565b60001c90565b90565b610c94610c9991610c7f565b610c85565b90565b610ca69054610c88565b90565b610cb3604061008a565b90565b90610cef610ce66001610cc7610ca9565b94610ce0610cd760008301610c9c565b60008801610c71565b01610c9c565b60208401610c71565b565b610cfa90610cb6565b90565b60200190565b5490565b610d16610d1c9193929361010e565b9261010e565b91610d2883820261010e565b928184041490151715610d3757565b6106fd565b600190818003010490565b600052602060002090565b634e487b7160e01b600052602260045260246000fd5b9060016002830492168015610d88575b6020831014610d8357565b610d52565b91607f1691610d78565b600052602060002090565b1c90565b90610db59060001990602003600802610d9d565b8154169055565b91906008610dd8910291610dd260001984610c2b565b92610c2b565b9181191691161790565b9190610df8610df3610e0093610b02565b610b1e565b908354610dbc565b9055565b600090565b610e1b91610e15610e04565b91610de2565b565b5b818110610e29575050565b80610e376000600193610e09565b01610e1e565b90610e4e9060001990600802610d9d565b191690565b81610e5d91610e3d565b906002021790565b90600091610e7d610e7582610d92565b928354610e53565b905555565b601f602091010490565b91929060208210600014610ee657601f8411600114610eb657610eb0929350610e53565b90555b5b565b5090610edc610ee1936001610ed3610ecd85610d92565b92610e82565b82019101610e1d565b610e65565b610eb3565b50610f1d8293610ef7600194610d92565b610f16610f0385610e82565b820192601f861680610f28575b50610e82565b0190610e1d565b600202179055610eb4565b610f3490888603610da1565b38610f10565b929091680100000000000000008211610f9c57602011600014610f8d5760208110600014610f7157610f6b91610e53565b90555b5b565b60019160ff1916610f8184610d92565b55600202019055610f6e565b60019150600202019055610f6f565b61004d565b908154610fad81610d68565b90818311610fd6575b818310610fc4575b50505050565b610fcd93610e8c565b38808080610fbe565b610fe283838387610f3a565b610fb6565b6000610ff291610fa1565b565b906000036110075761100590610fe7565b565b610a93565b5b818110611018575050565b806110266000600193610ff4565b0161100d565b909182811061103b575b505050565b61105961105361104d61106495610d3c565b92610d3c565b92610d47565b91820191019061100c565b388080611036565b90680100000000000000008111611095578161108a61109393610d03565b9082815561102c565b565b61004d565b5190565b5190565b9190601f81116110b2575b505050565b6110be6110e393610d92565b9060206110ca84610e82565b830193106110eb575b6110dc90610e82565b0190610e1d565b3880806110ad565b91506110dc819290506110d3565b906111038161109e565b9060018060401b0382116111c3576111258261111f8554610d68565b856110a2565b602090601f831160011461115a579180916111499360009261114e575b5050610e53565b90555b565b90915001513880611142565b601f1983169161116985610d92565b9260005b8181106111ab57509160029391856001969410611191575b5050500201905561114c565b6111a1910151601f841690610e3d565b9055388080611185565b9193602060018192878701518155019501920161116d565b61004d565b906111d2916110f9565b565b6111f96111f36111e384610548565b936111ee858561106c565b610cfd565b91610d47565b6000915b83831061120a5750505050565b600160208261122261121c849561109a565b866111c8565b019201920191906111fd565b90611238916111d4565b565b9061124b60018060401b0391610900565b9181191691161790565b61126961126461126e9261046b565b61054f565b61046b565b90565b90565b9061128961128461129092611255565b611271565b825461123a565b9055565b929161129e6116fb565b6112c36112aa83610548565b6112bd6112b76001610552565b9161010e565b116105f8565b6112e86112cf85610621565b6112e26112dc6000610628565b9161010e565b116106c5565b6112f26000610628565b945b8561130f61130961130488610621565b61010e565b9161010e565b10156114c757611329866113236001610552565b90610713565b5b8061134561133f61133a89610621565b61010e565b9161010e565b10156114ae5780611405876113f36113ed6113e8600060406113df8f83836113ce6113d7936113c861140a9f8d61138c87602061138384889061074e565b5101510161076e565b6113b76113b16113ac8a60206113a387899061074e565b5101510161076e565b61010e565b9161010e565b141591821561145f575b50506107d6565b8b61074e565b5101510161076e565b96899061074e565b5101510161076e565b61010e565b9161010e565b1415888a821561140f575b505061085a565b6106ee565b61132a565b81925061144b6020604061144261143a8383611431611450986114569a61074e565b5101510161076e565b96899061074e565b5101510161076e565b61010e565b9161010e565b1415888a6113fe565b81925061149960208061149061149e9461148a83806114818d6114a49b61074e565b5101510161076e565b9761074e565b5101510161076e565b61010e565b9161010e565b14158f8e906113c1565b5091946114bd909391936106ee565b94919290926112f4565b9392919094506114d76000610628565b5b806114f36114ed6114e889610883565b61010e565b9161010e565b101561152f5761152a906115256001611520600861151a6115158c8790610887565b6108a7565b906108e8565b610930565b6106ee565b6114d8565b509193509161153e6000610628565b5b8061155a61155461154f88610621565b61010e565b9161010e565b1015611637576115f89061157f6000602061157689859061074e565b5101510161076e565b61159261158c6000610628565b9161010e565b1415806115fd575b6115a3906109ab565b6115d46115cf60206115b689859061074e565b51015160406115c68a869061074e565b510151906118dd565b610a2f565b6115f36115e16006610a58565b6115ec88849061074e565b5190610c2f565b6106ee565b61153f565b506115a361161b6020806116128a869061074e565b5101510161076e565b61162e6116286000610628565b9161010e565b1415905061159a565b5090916116796000611672611669600061166461165b611655610c64565b95610628565b60008601610c71565b610628565b60208301610c71565b6004610b76565b6116836000610628565b5b8061169f61169961169488610621565b61010e565b9161010e565b10156116e0576116db906116d66116cf60046116ca60206116c18b879061074e565b51015191610cf1565b611a07565b6004610b76565b6106ee565b611684565b509092506116f26116f992600261122e565b6003611274565b565b611703611705565b565b61170d6117a5565b565b90565b61172661172161172b9261170f565b61054f565b61010e565b90565b6117577f79be667ef9dcbbac55a06295ce870b07029bfcdb2dce28d959f2815b16f81798611712565b90565b90565b61177161176c6117769261175a565b61054f565b61010e565b90565b6117a27f483ada7726a3c4655da4fbfc0e1108a8fd17b448a68554199c47d08ffb10d4b861175d565b90565b6117e06117b061172e565b6117d96117bb611779565b6117d06117c6610c64565b9360008501610c71565b60208301610c71565b6000610b76565b565b600090565b90565b6117fe6117f9611803926117e7565b61054f565b61010e565b90565b60018060401b03811161181c5760208091020190565b61004d565b9061183361182e83611806565b61008a565b918252565b600090565b611845610ca9565b9060208083611852611838565b81520161185d611838565b81525050565b61186b61183d565b90565b60005b82811061187d57505050565b602090611888611863565b8184015201611871565b906118b761189f83611821565b926020806118ad8693611806565b920191039061186e565b565b5190565b906118c7826118b9565b8110156118d8576020809102010190565b610738565b906119ab6119a66119a060006119b1946118f56117e2565b5061199861193561191a61190b6020850161076e565b61191486610cf1565b90611b7d565b61192f61192886860161076e565b8b90611b7d565b90611bc7565b61197061194a61194560026117ea565b611892565b9961196a8b91879061196461195e83610628565b856118bd565b52610628565b906118bd565b5150611992899160019061198c61198683610552565b856118bd565b52610552565b906118bd565b51500161076e565b93611d5a565b61010e565b9161010e565b1490565b6119bd61183d565b90565b90565b6119d76119d26119dc926119c0565b61054f565b61010e565b90565b6119ee6401000003d0196119c3565b90565b634e487b7160e01b600052601260045260246000fd5b90611a106119b5565b50611a1b6000610628565b50611a266000610628565b50611a316000610628565b50611a3e6000830161076e565b611a5b611a55611a506000850161076e565b61010e565b9161010e565b14600014611b2057611a7a6020611a7381850161076e565b920161076e565b611a826119df565b918215611b1b5708611a9d611a976000610628565b9161010e565b14600014611ade57506000611adb611ad26000611acd611ac4611abe610c64565b95610628565b60008601610c71565b610628565b60208301610c71565b90565b611b0d81611afd6020611af66000611b18960161076e565b920161076e565b611b076001610552565b91612812565b90915b919091612a71565b90565b6119f1565b81611b7691611b406020611b396000611b18970161076e565b930161076e565b906001611b5b6020611b546000850161076e565b930161076e565b92611b70611b6a600193610552565b92610552565b94611feb565b9091611b10565b611bc491611bb891611b8d6119b5565b5090611ba76020611ba06000840161076e565b920161076e565b90611bb26001610552565b92612b28565b91909190919091612a71565b90565b611bdc611be292611bd66119b5565b50612c5b565b90611a07565b90565b60007f4e6f20706f696e74732070726f76696465640000000000000000000000000000910152565b611c1a601260209261056e565b611c2381611be5565b0190565b611c3d9060208101906000818303910152611c0d565b90565b15611c4757565b611c4f610038565b62461bcd60e51b815280611c6560048201611c27565b0390fd5b905090565b611c93611c8a92602092611c818161109e565b94858093611c69565b938491016102c7565b0190565b60007f2c00000000000000000000000000000000000000000000000000000000000000910152565b611ccb60018092611c69565b611cd481611c97565b0190565b611ce9611cee91611cf49493611c6e565b611cbf565b90611c6e565b90565b5190565b905090565b611d25611d1c92602092611d1381611cf7565b94858093611cfb565b938491016102c7565b0190565b611d3291611d00565b90565b611d3d610038565b3d6000823e3d90fd5b611d52611d5791610c7f565b610b02565b90565b90611d63610e04565b50611d89611d70836118b9565b611d83611d7d6000610628565b9161010e565b11611c40565b6000611dbe611db56000611db0611da7611da1610c64565b95610628565b60008601610c71565b610628565b60208301610c71565b611dc86000610628565b905b81611de5611ddf611dda876118b9565b61010e565b9161010e565b1015611e1057611e04611e0a91611dfd8685906118bd565b5190611a07565b916106ee565b90611dca565b602092935060009150611e7c90611e6b611e46611e4186611e3a611e3588870161076e565b612d69565b940161076e565b612d69565b91611e5d611e52610038565b938492888401611cd8565b868201810382520382610063565b611e73610038565b91829182611d29565b039060025afa15611e9d57611e9a611e95600051610900565b611d46565b90565b611d35565b60018060401b038111611eb55760200290565b61004d565b611ec6611ecb91611ea2565b61008a565b90565b369037565b90611ef1611ee083611eba565b92611eeb8491611ea2565b90611ece565b565b611efd6004611ed3565b90565b50600490565b90611f1082611f00565b811015611f1e576020020190565b610738565b90565b611f3a611f35611f3f92611f23565b61054f565b61010e565b90565b60007f557365206a6163446f75626c652066756e6374696f6e20696e73746561640000910152565b611f77601e60209261056e565b611f8081611f42565b0190565b611f9a9060208101906000818303910152611f6a565b90565b15611fa457565b611fac610038565b62461bcd60e51b815280611fc260048201611f84565b0390fd5b611fd5611fdb9193929361010e565b9261010e565b8203918211611fe657565b6106fd565b929593909195611ff9610e04565b50612002610e04565b5061200b610e04565b508361202061201a6000610628565b9161010e565b14806127ac575b61279e578061203f6120396000610628565b9161010e565b1480612783575b61277757612052611ef3565b92878861205d6119df565b90811561277257612082920961207d866120776000610628565b90611f06565b610c71565b8761209f61209a866120946000610628565b90611f06565b61076e565b6120a76119df565b90811561276d576120cc92096120c7866120c16001610552565b90611f06565b610c71565b86876120d66119df565b908115612768576120fb92096120f6866120f060026117ea565b90611f06565b610c71565b866121186121138661210d60026117ea565b90611f06565b61076e565b6121206119df565b9081156127635761214592096121408661213a6003611f26565b90611f06565b610c71565b61214f6004611eba565b9461216c6121678661216160026117ea565b90611f06565b61076e565b6121746119df565b90811561275e57612189920960008701610c71565b6121a56121a08561219a6003611f26565b90611f06565b61076e565b6121ad6119df565b908115612759576121c2920960208601610c71565b906121df6121da846121d46000610628565b90611f06565b61076e565b906121e86119df565b9283156127545761221b9361221693612205920960408701610c71565b926122106001610552565b90611f06565b61076e565b6122236119df565b90811561274f57612238920960608301610c71565b926122556122508561224a6000610628565b90611f06565b61076e565b61228261227c6122776122728861226c60026117ea565b90611f06565b61076e565b61010e565b9161010e565b141580156126f9575b61229490611f9d565b61229c611ef3565b926122b96122b4866122ae60026117ea565b90611f06565b61076e565b6122e66122c46119df565b6122e06122db896122d56000610628565b90611f06565b61076e565b90611fc6565b6122ee6119df565b9081156126f457612313920861230e866123086000610628565b90611f06565b610c71565b61232f61232a866123246003611f26565b90611f06565b61076e565b61235c61233a6119df565b6123566123518961234b6001610552565b90611f06565b61076e565b90611fc6565b6123646119df565b9081156126ef5761238992086123848661237e6001610552565b90611f06565b610c71565b6123a56123a08561239a6000610628565b90611f06565b61076e565b6123c16123bc866123b66000610628565b90611f06565b61076e565b6123c96119df565b9081156126ea576123ee92096123e9866123e360026117ea565b90611f06565b610c71565b61240a612405856123ff60026117ea565b90611f06565b61076e565b6124266124218661241b6000610628565b90611f06565b61076e565b61242e6119df565b9081156126e557612453920961244e866124486003611f26565b90611f06565b610c71565b61246f61246a856124646001610552565b90611f06565b61076e565b61248b612486866124806001610552565b90611f06565b61076e565b6124936119df565b9182156126e057096124c86124a66119df565b6124c26124bd886124b76003611f26565b90611f06565b61076e565b90611fc6565b6124d06119df565b9182156126db57086124e06119df565b6002906124ff6124fa896124f46000610628565b90611f06565b61076e565b61251b6125168961251060026117ea565b90611f06565b61076e565b6125236119df565b9182156126d657096125336119df565b9081156126d15761254661254d946117ea565b0990611fc6565b6125556119df565b9182156126cc57089461257a6125758661256f6001610552565b90611f06565b61076e565b6125966125918361258b6000610628565b90611f06565b61076e565b6125b26125ad886125a760026117ea565b90611f06565b61076e565b6125ba6119df565b9182156126c757096125d46125cd6119df565b8990611fc6565b6125dc6119df565b9182156126c257086125ec6119df565b9182156126bd5709906126196126146126036119df565b9261260e6001610552565b90611f06565b61076e565b906126366126318861262b6003611f26565b90611f06565b61076e565b61263e6119df565b9081156126b857612650930990611fc6565b906126596119df565b80156126b35761267e926126799208956126736000610628565b90611f06565b61076e565b91906126886119df565b9182156126ae57096126986119df565b9182156126a9570992919291929190565b6119f1565b6119f1565b6119f1565b6119f1565b6119f1565b6119f1565b6119f1565b6119f1565b6119f1565b6119f1565b6119f1565b6119f1565b6119f1565b6119f1565b6119f1565b6119f1565b506122946127196127148661270e6001610552565b90611f06565b61076e565b61274661274061273b612736896127306003611f26565b90611f06565b61076e565b61010e565b9161010e565b1415905061228b565b6119f1565b6119f1565b6119f1565b6119f1565b6119f1565b6119f1565b6119f1565b6119f1565b50509250919291929190565b50816127986127926000610628565b9161010e565b14612046565b925093945050919291929190565b50826127c16127bb6000610628565b9161010e565b14612027565b90565b6127de6127d96127e3926127c7565b61054f565b61010e565b90565b6127f06000610628565b90565b90565b61280a61280561280f926127f3565b61054f565b61010e565b90565b929061281c610e04565b50612825610e04565b5061282e610e04565b508261284361283d6000610628565b9161010e565b14612a675783846128526119df565b918215612a6257099381826128656119df565b918215612a5d57099084856128786119df565b918215612a585709906004908361288d6119df565b918215612a53570961289d6119df565b918215612a4e576128ad906127ca565b09956003906128ba6119df565b918215612a49576128ca90611f26565b09906128d46127e6565b90806128de6119df565b918215612a4457096128ee6119df565b918215612a3f57096128fe6119df565b918215612a3a57089485866129116119df565b918215612a3557096129216119df565b82908361292c6119df565b908115612a305761293e930890611fc6565b6129466119df565b918215612a2b5708959061296261295b6119df565b8890611fc6565b61296a6119df565b918215612a26570861297a6119df565b918215612a2157099061298b6119df565b600891806129976119df565b918215612a1c57096129a76119df565b908115612a17576129ba6129c1946127f6565b0990611fc6565b6129c96119df565b918215612a12570892600291906129de6119df565b918215612a0d57096129ee6119df565b918215612a08576129fe906117ea565b0992919291929190565b6119f1565b6119f1565b6119f1565b6119f1565b6119f1565b6119f1565b6119f1565b6119f1565b6119f1565b6119f1565b6119f1565b6119f1565b6119f1565b6119f1565b6119f1565b6119f1565b6119f1565b6119f1565b6119f1565b9192919291929190565b9091612a8590612a7f6119b5565b50612e97565b908182612a906119df565b918215612b0157099081612aa26119df565b918215612afc5709929190612ab56119df565b918215612af75709612ac56119df565b908115612af257612aef9209612ae6612adc610c64565b9360008501610c71565b60208301610c71565b90565b6119f1565b6119f1565b6119f1565b6119f1565b612b12612b189161010e565b9161010e565b908115612b23570490565b6119f1565b929192612b33610e04565b50612b3c610e04565b50612b45610e04565b5080612b5a612b546000610628565b9161010e565b14612c2d579390612b6b6000610628565b93612b766000610628565b93612b816001610552565b965b80612b97612b916000610628565b9161010e565b14612c215780612ba76001610552565b16612bbb612bb56000610628565b9161010e565b03612bf5575b90612bda612be39392612bd460026117ea565b90612b06565b93919091612812565b95919594909592959195949094612b83565b95612bda95612be3939298612c11929190869085928c94611feb565b9891969096979192935050612bc1565b50505050909291929190565b50929092919291929190565b612c45612c4b9161010e565b9161010e565b908115612c56570690565b6119f1565b612c636119b5565b50612cc0612ca2612c94612c796000850161076e565b93612c8e6020612c876119df565b920161076e565b90611fc6565b612c9c6119df565b90612c39565b612cb7612cad610c64565b9360008501610c71565b60208301610c71565b90565b606090565b90612cd3910161010e565b90565b90612ce8612ce3836102a6565b61008a565b918252565b369037565b90612d17612cff83612cd6565b92602080612d0d86936102a6565b9201910390612ced565b565b6001612d25910361010e565b90565b90565b612d3f612d3a612d4492612d28565b61054f565b61010e565b90565b612d53612d599161010e565b9161010e565b908115612d64570490565b6119f1565b612d71612cc3565b50612d8e612d7e826130df565b612d886001610552565b90612cc8565b90612d9882612cf2565b91612da1610e04565b5060200182015b600115612e0c57612dbb612de791612d19565b916f181899199a1a9b1b9c1cb0b131b232b360811b600a82061a8353612de1600a612d2b565b90612d47565b80612dfb612df56000610628565b9161010e565b14612e065790612da8565b50505b90565b5050612e09565b60007f496e76616c6964206e756d626572000000000000000000000000000000000000910152565b612e48600e60209261056e565b612e5181612e13565b0190565b612e6b9060208101906000818303910152612e3b565b90565b15612e7557565b612e7d610038565b62461bcd60e51b815280612e9360048201612e55565b0390fd5b612e9f610e04565b5080612eb4612eae6000610628565b9161010e565b141580612fa6575b80612f7e575b612ecb90612e6e565b612ed56000610628565b612edf6001610552565b90612ee86119df565b91612ef1610e04565b505b83612f07612f016000610628565b9161010e565b14612f7757612f17838590612b06565b819291612f226119df565b8291612f2c6119df565b908115612f7257612f3e930990611fc6565b91612f476119df565b8015612f6d57612f6693612f6092089395809592610d07565b90611fc6565b9290612ef3565b6119f1565b6119f1565b5091505090565b50612ecb612f8a6119df565b612f9d612f976000610628565b9161010e565b14159050612ec2565b5080612fc1612fbb612fb66119df565b61010e565b9161010e565b1415612ebc565b90565b612fdf612fda612fe492612fc8565b61054f565b61010e565b90565b90565b612ffe612ff961300392612fe7565b61054f565b61010e565b90565b90565b61301d61301861302292613006565b61054f565b61010e565b90565b90565b61303c61303761304192613025565b61054f565b61010e565b90565b90565b61305b61305661306092613044565b61054f565b61010e565b90565b90565b61307a61307561307f92613063565b61054f565b61010e565b90565b90565b61309961309461309e92613082565b61054f565b61010e565b90565b90565b6130b86130b36130bd926130a1565b61054f565b61010e565b90565b90565b6130d76130d26130dc926130c0565b61054f565b61010e565b90565b6130e7610e04565b506130f26000610628565b908061312161311b7a184f03e93ff9f4daa797ed6e38ed64bf6a1f010000000000000000612fcb565b9161010e565b10156132f9575b806131496131436d04ee2d6d415b85acef8100000000613009565b9161010e565b10156132be575b8061316a613164662386f26fc10000613047565b9161010e565b101561328a575b806131886131826305f5e100613085565b9161010e565b1015613259575b806131a461319e6127106130a4565b9161010e565b101561322a575b806131bf6131b960646130c3565b9161010e565b10156131fc575b6131d96131d3600a612d2b565b9161010e565b10156131e3575b90565b6131f7906131f16001610552565b90612cc8565b6131e0565b6132136132249161320d60646130c3565b90612d47565b9161321e60026117ea565b90612cc8565b906131c6565b6132426132539161323c6127106130a4565b90612d47565b9161324d60046127ca565b90612cc8565b906131ab565b6132736132849161326d6305f5e100613085565b90612d47565b9161327e60086127f6565b90612cc8565b9061318f565b6132a76132b8916132a1662386f26fc10000613047565b90612d47565b916132b26010613066565b90612cc8565b90613171565b6132e26132f3916132dc6d04ee2d6d415b85acef8100000000613009565b90612d47565b916132ed6020613028565b90612cc8565b90613150565b61332a61333b916133247a184f03e93ff9f4daa797ed6e38ed64bf6a1f010000000000000000612fcb565b90612d47565b916133356040612fea565b90612cc8565b9061312856fe60806040526004361015610013575b611972565b61001e60003561016d565b806303a507be1461016857806306a49fce146101635780630b8710e41461015e5780630dd3849c146101595780632f5bb336146101545780633197cbb61461014f57806332e7c5bf1461014a5780633477ee2e14610145578063477decc014610140578063494503d41461013b5780635c632b38146101365780636b7a524f146101315780636fecb6231461012c5780637a308a4c146101275780638b8fbd9214610122578063b3bf54951461011d578063c21b486514610118578063c392650514610113578063c9e525df1461010e578063f446c1d0146101095763fb7344d00361000e5761193d565b61184f565b6117e3565b611766565b611731565b611608565b61158f565b61151e565b611492565b61143f565b611383565b611187565b610f7a565b610e76565b610c1c565b610bb0565b610b1d565b610749565b6106a8565b61035b565b610212565b60e01c90565b60405190565b600080fd5b600080fd5b600091031261018e57565b61017e565b90565b90565b90565b6101b06101ab6101b592610193565b610199565b610196565b90565b6101e17f79be667ef9dcbbac55a06295ce870b07029bfcdb2dce28d959f2815b16f8179861019c565b90565b6101ec6101b8565b90565b6101f890610196565b9052565b9190610210906000602085019401906101ef565b565b3461024257610222366004610183565b61023e61022d6101e4565b610235610173565b918291826101fc565b0390f35b610179565b5190565b60209181520190565b60200190565b5190565b60209181520190565b60005b83811061027b575050906000910152565b80602091830151818501520161026a565b601f801991011690565b6102b56102be6020936102c3936102ac8161025a565b9384809361025e565b95869101610267565b61028c565b0190565b906102d191610296565b90565b60200190565b906102ee6102e783610247565b809261024b565b90816102ff60208302840194610254565b926000915b83831061031357505050505090565b9091929394602061033561032f838560019503875289516102c7565b976102d4565b9301930191939290610304565b61035891602082019160008184039101526102da565b90565b3461038b5761036b366004610183565b610387610376611a17565b61037e610173565b91829182610342565b0390f35b610179565b5190565b60209181520190565b60200190565b67ffffffffffffffff1690565b6103b9906103a3565b9052565b60018060a01b031690565b6103d1906103bd565b90565b6103dd906103c8565b9052565b5190565b60209181520190565b60200190565b6103fd90610196565b9052565b906020806104259361041b600082015160008601906103f4565b01519101906103f4565b565b906040602061044c9361044260008201516000860190610401565b0151910190610401565b565b9061016060e06104e39361046a60008201516000860190610401565b61047c60208201516040860190610401565b61048e60408201516080860190610401565b6104a0606082015160c0860190610401565b6104b360808201516101008601906103f4565b6104c660a08201516101208601906103f4565b6104d960c08201516101408601906103f4565b01519101906103f4565b565b906080602061050a9361050060008201516000860190610427565b015191019061044e565b565b9061051a81610200936104e5565b0190565b60200190565b9061054161053b610534846103e1565b80936103e5565b926103ee565b9060005b8181106105525750505090565b90919261056b610565600192865161050c565b9461051e565b9101919091610545565b9060a060606105be9361059060008201516000860190610401565b6105a260208201516040860190610401565b6105b4604082015160808601906103f4565b01519101906103f4565b565b906106119060608061060661012084016105e2600088015160008701906103b0565b6105f4602088015160208701906103d4565b60408701518582036040870152610524565b940151910190610575565b90565b9061061e916105c0565b90565b60200190565b9061063b61063483610390565b8092610394565b908161064c6020830284019461039d565b926000915b83831061066057505050505090565b9091929394602061068261067c83856001950387528951610614565b97610621565b9301930191939290610651565b6106a59160208201916000818403910152610627565b90565b346106d8576106b8366004610183565b6106d46106c3611e38565b6106cb610173565b9182918261068f565b0390f35b610179565b60001c90565b90565b6106f26106f7916106dd565b6106e3565b90565b61070490546106e6565b90565b600490610722600161071b600085016106fa565b93016106fa565b90565b916020610747929493610740604082019660008301906101ef565b01906101ef565b565b3461077a57610759366004610183565b610761610707565b9061077661076d610173565b92839283610725565b0390f35b610179565b600080fd5b600080fd5b634e487b7160e01b600052604160045260246000fd5b906107a99061028c565b810190811067ffffffffffffffff8211176107c357604052565b610789565b906107db6107d4610173565b928361079f565b565b600080fd5b600080fd5b67ffffffffffffffff81116107ff5760208091020190565b610789565b600080fd5b61081281610196565b0361081957565b600080fd5b9050359061082b82610809565b565b9190604083820312610869576108629061084760406107c8565b93610855826000830161081e565b600086015260200161081e565b6020830152565b610784565b91906080838203126108aa576108a39061088860406107c8565b93610896826000830161082d565b600086015260400161082d565b6020830152565b610784565b91906101808382031261095d57610956906108cb6101006107c8565b936108d9826000830161082d565b60008601526108eb826040830161082d565b60208601526108fd826080830161082d565b604086015261090f8260c0830161082d565b606086015261092282610100830161081e565b608086015261093582610120830161081e565b60a086015261094882610140830161081e565b60c08601526101600161081e565b60e0830152565b610784565b91906102008382031261099f576109989061097d60406107c8565b9361098b826000830161086e565b60008601526080016108af565b6020830152565b610784565b909291926109b96109b4826107e7565b6107c8565b938185526102006020860192028301928184116109fa57915b8383106109df5750505050565b6020610200916109ef8486610962565b8152019201916109d2565b610804565b9080601f83011215610a1d57816020610a1a933591016109a4565b90565b6107e2565b919060c083820312610a8257610a7b90610a3c60806107c8565b93610a4a826000830161082d565b6000860152610a5c826040830161082d565b6020860152610a6e826080830161081e565b604086015260a00161081e565b6060830152565b610784565b91909160e081840312610adc57610a9e60406107c8565b9260008201359167ffffffffffffffff8311610ad757610ac382610ad09483016109ff565b6000860152602001610a22565b6020830152565b6107dd565b610784565b90602082820312610b1257600082013567ffffffffffffffff8111610b0d57610b0a9201610a87565b90565b61077f565b61017e565b60000190565b610b30610b2b366004610ae1565b612c06565b610b38610173565b80610b4281610b17565b0390f35b1c90565b67ffffffffffffffff1690565b610b67906008610b6c9302610b46565b610b4a565b90565b90610b7a9154610b57565b90565b610b8a6003600090610b6f565b90565b610b96906103a3565b9052565b9190610bae90600060208501940190610b8d565b565b34610be057610bc0366004610183565b610bdc610bcb610b7d565b610bd3610173565b91829182610b9a565b0390f35b610179565b90565b610bfc610bf7610c0192610be5565b610199565b610196565b90565b610c0e6007610be8565b90565b610c19610c04565b90565b34610c4c57610c2c366004610183565b610c48610c37610c11565b610c3f610173565b918291826101fc565b0390f35b610179565b90602082820312610c6b57610c689160000161081e565b90565b61017e565b634e487b7160e01b600052603260045260246000fd5b5490565b600052602060002090565b610c9e81610c86565b821015610cb957610cb0600191610c8a565b91020190600090565b610c70565b634e487b7160e01b600052600060045260246000fd5b634e487b7160e01b600052602260045260246000fd5b9060016002830492168015610d0a575b6020831014610d0557565b610cd4565b91607f1691610cfa565b600052602060002090565b9060009291805490610d3a610d3383610cea565b809461025e565b91600181169081600014610d935750600114610d56575b505050565b610d639192939450610d14565b916000925b818410610d7b5750500190388080610d51565b60018160209295939554848601520191019290610d68565b92949550505060ff1916825215156020020190388080610d51565b90610db891610d1f565b90565b90610ddb610dd492610dcb610173565b93848092610dae565b038361079f565b565b90600010610df157610dee90610dbb565b90565b610cbe565b6002610e0181610c86565b821015610e1e57610e1b91610e1591610c95565b90610ddd565b90565b600080fd5b60209181520190565b610e4b610e54602093610e5993610e428161025a565b93848093610e23565b95869101610267565b61028c565b0190565b610e739160208201916000818403910152610e2c565b90565b34610ea657610ea2610e91610e8c366004610c51565b610df6565b610e99610173565b91829182610e5d565b0390f35b610179565b67ffffffffffffffff8111610ec35760208091020190565b610789565b90929192610edd610ed882610eab565b6107c8565b938185526040602086019202830192818411610f1c57915b838310610f025750505050565b6020604091610f11848661082d565b815201920191610ef5565b610804565b9080601f83011215610f3f57816020610f3c93359101610ec8565b90565b6107e2565b90602082820312610f7557600082013567ffffffffffffffff8111610f7057610f6d9201610f21565b90565b61077f565b61017e565b34610faa57610fa6610f95610f90366004610f44565b6130c3565b610f9d610173565b918291826101fc565b0390f35b610179565b5490565b600052602060002090565b610fc781610faf565b821015610fe257610fd9600591610fb3565b91020190600090565b610c70565b60018060a01b031690565b610ffe611003916106dd565b610fe7565b90565b6110109054610ff2565b90565b9061101d90610196565b9052565b61102b60406107c8565b90565b9061106761105e600161103f611021565b9461105861104f600083016106fa565b60008801611013565b016106fa565b60208401611013565b565b61107360406107c8565b90565b906110af6110a66001611087611069565b946110a0611097600083016106fa565b60008801611013565b016106fa565b60208401611013565b565b6006906110bd82610faf565b8110156110f6576110cd91610fbe565b506110da60008201611006565b916110f360036110ec6001850161102e565b9301611076565b90565b600080fd5b611104906103c8565b9052565b9060208061112c93611122600082015160008601906103f4565b01519101906103f4565b565b9060208061115293611148600082015160008601906103f4565b01519101906103f4565b565b60609061117e611185949695939661117460a084019860008501906110fb565b6020830190611108565b019061112e565b565b346111ba576111b66111a261119d366004610c51565b6110b1565b6111ad939193610173565b93849384611154565b0390f35b610179565b5490565b600052602060002090565b6111d7816111bf565b8210156111f2576111e96008916111c3565b91020190600090565b610c70565b611203611208916106dd565b610b4a565b90565b61121590546111f7565b90565b60401c90565b61122a61122f91611218565b610fe7565b90565b61123c905461121e565b90565b52565b61124c60806107c8565b90565b906112b86112af6005611260611242565b946112796112706000830161102e565b6000880161123f565b6112916112886002830161102e565b6020880161123f565b6112a96112a0600483016106fa565b60408801611013565b016106fa565b60608401611013565b565b6007906112c6826111bf565b8110156112ff576112d6916111ce565b506112e36000820161120b565b916112fc60026112f560008501611232565b930161124f565b90565b600080fd5b9060a0606061134d9361131f60008201516000860190610401565b61133160208201516040860190610401565b611343604082015160808601906103f4565b01519101906103f4565b565b60409061137a61138194969593966113706101008401986000850190610b8d565b60208301906110fb565b0190611304565b565b346113b6576113b261139e611399366004610c51565b6112ba565b6113a9939193610173565b9384938461134f565b0390f35b610179565b9060a080611427936113d5600082015160008601906103f4565b6113e7602082015160208601906103f4565b6113f9604082015160408601906103f4565b61140b606082015160608601906103f4565b61141d608082015160808601906103f4565b01519101906103f4565b565b919061143d90600060c085019401906113bb565b565b3461146f5761144f366004610183565b61146b61145a61328b565b611462610173565b91829182611429565b0390f35b610179565b60009061148f6001611488600085016106fa565b93016106fa565b90565b346114c3576114a2366004610183565b6114aa611474565b906114bf6114b6610173565b92839283610725565b0390f35b610179565b90565b6114df6114da6114e4926114c8565b610199565b610196565b90565b6115107f483ada7726a3c4655da4fbfc0e1108a8fd17b448a68554199c47d08ffb10d4b86114cb565b90565b61151b6114e7565b90565b3461154e5761152e366004610183565b61154a611539611513565b611541610173565b918291826101fc565b0390f35b610179565b90565b61156a61156561156f92611553565b610199565b610196565b90565b6115816401000003d019611556565b90565b61158c611572565b90565b346115bf5761159f366004610183565b6115bb6115aa611584565b6115b2610173565b918291826101fc565b0390f35b610179565b91906040838203126115ed57806115e16115ea926000860161081e565b9360200161081e565b90565b61017e565b919061160690600060408501940190611108565b565b346116395761163561162461161e3660046115c4565b9061334b565b61162c610173565b918291826115f2565b0390f35b610179565b5190565b60209181520190565b60200190565b906020806116759361166b600082015160008601906103f4565b01519101906103f4565b565b90606060406116ae93611692600082015160008601906103d4565b6116a460208201516020860190610401565b0151910190611651565b565b906116bd8160a093611677565b0190565b60200190565b906116e46116de6116d78461163e565b8093611642565b9261164b565b9060005b8181106116f55750505090565b90919261170e61170860019286516116b0565b946116c1565b91019190916116e8565b61172e91602082019160008184039101526116c7565b90565b3461176157611741366004610183565b61175d61174c61347e565b611754610173565b91829182611718565b0390f35b610179565b346117965761179261178161177c366004610c51565b6135d7565b611789610173565b918291826115f2565b0390f35b610179565b90565b6117b26117ad6117b79261179b565b610199565b610196565b90565b6117d570014551231950b75fc4402da1732fc9bebe1961179e565b90565b6117e06117ba565b90565b34611813576117f3366004610183565b61180f6117fe6117d8565b611806610173565b918291826101fc565b0390f35b610179565b90565b61182f61182a61183492611818565b610199565b610196565b90565b611841600061181b565b90565b61184c611837565b90565b3461187f5761185f366004610183565b61187b61186a611844565b611872610173565b918291826101fc565b0390f35b610179565b60209181520190565b906118a161189a83610390565b8092611884565b90816118b26020830284019461039d565b926000915b8383106118c657505050505090565b909192939460206118e86118e283856001950387528951610614565b97610621565b93019301919392906118b7565b9061192190602080611916604084016000870151858203600087015261188d565b9401519101906103f4565b90565b61193a91602082019160008184039101526118f5565b90565b3461196d57611969611958611953366004610c51565b613905565b611960610173565b91829182611924565b0390f35b610179565b600080fd5b606090565b67ffffffffffffffff81116119945760208091020190565b610789565b906119ab6119a68361197c565b6107c8565b918252565b6119b990610dbb565b90565b906119c682610c86565b6119cf81611999565b926119dd6020850191610c8a565b6000915b8383106119ee5750505050565b6001602081926119fd856119b0565b8152019201920191906119e1565b611a14906119bc565b90565b611a1f611977565b50611a2a6002611a0b565b90565b606090565b6001611a3e9101610196565b90565b60407f6363657373000000000000000000000000000000000000000000000000000000917f4d75737420626520656c656374696f6e20617574686f7269747920746f20636160008201527f6c6c20746869732066756e6374696f6e2c20756e617574686f72697a6564206160208201520152565b611ac26045606092610e23565b611acb81611a41565b0190565b611ae59060208101906000818303910152611ab5565b90565b15611aef57565b611af7610173565b62461bcd60e51b815280611b0d60048201611acf565b0390fd5b67ffffffffffffffff8111611b295760208091020190565b610789565b90611b40611b3b83611b11565b6107c8565b918252565b90611b4f906103a3565b9052565b90611b5d906103c8565b9052565b5490565b90611b77611b72836107e7565b6107c8565b918252565b600052602060002090565b611b9160406107c8565b90565b90611bcd611bc46002611ba5611b87565b94611bbe611bb56000830161102e565b6000880161123f565b0161102e565b6020840161123f565b565b52565b611bdd6101006107c8565b90565b90611ca9611ca0600b611bf1611bd2565b94611c0a611c016000830161102e565b6000880161123f565b611c22611c196002830161102e565b6020880161123f565b611c3a611c316004830161102e565b6040880161123f565b611c52611c496006830161102e565b6060880161123f565b611c6a611c61600883016106fa565b60808801611013565b611c82611c79600983016106fa565b60a08801611013565b611c9a611c91600a83016106fa565b60c08801611013565b016106fa565b60e08401611013565b565b52565b611cb860406107c8565b90565b90611cf4611ceb6004611ccc611cae565b94611ce5611cdc60008301611b94565b60008801611bcf565b01611be0565b60208401611cab565b565b611cff90611cbb565b90565b90611d0c82611b61565b611d1581611b65565b92611d236020850191611b7c565b6000915b838310611d345750505050565b60106020600192611d4485611cf6565b815201920192019190611d27565b52565b52565b611d6260806107c8565b90565b90611dce611dc56002611d76611d58565b94611d8f611d866000830161120b565b60008801611b45565b611da7611d9e60008301611232565b60208801611b53565b611dbf611db660018301611d02565b60408801611d52565b0161124f565b60608401611d55565b565b611dd990611d65565b90565b90611de6826111bf565b611def81611b2e565b92611dfd60208501916111c3565b6000915b838310611e0e5750505050565b60086020600192611e1e85611dd0565b815201920192019190611e01565b611e3590611ddc565b90565b611e40611a2d565b506000611e4d600061181b565b5b80611e6a611e64611e5f6006610faf565b610196565b91610196565b1015611ebd5733611e9a611e94611e8f6000611e8860068790610fbe565b5001611006565b6103c8565b916103c8565b14611eae575b611ea990611a32565b611e4e565b9050611ea96001919050611ea0565b50611ec790611ae8565b611ed16007611e2c565b90565b611ee8611ee3611eed926103a3565b610199565b610196565b90565b60207f65722061626c6520746f20636173742062616c6c6f7400000000000000000000917f566f74696e6720706572696f642068617320656e6465642c206e6f206c6f6e6760008201520152565b611f4b6036604092610e23565b611f5481611ef0565b0190565b611f6e9060208101906000818303910152611f3e565b90565b15611f7857565b611f80610173565b62461bcd60e51b815280611f9660048201611f58565b0390fd5b611fae611fa9611fb3926103bd565b610199565b6103bd565b90565b611fbf90611f9a565b90565b611fcb90611fb6565b90565b90611fd890611fc2565b600052602052604060002090565b60ff1690565b611ff8611ffd916106dd565b611fe6565b90565b61200a9054611fec565b90565b60407f7920666f7220667572746865722064657461696c000000000000000000000000917f5468697320766f746572206973206e6f7420656c696769626c652c20706c656160008201527f736520636f6e73756c742074686520656c656374696f6e20617574686f72697460208201520152565b61208e6054606092610e23565b6120978161200d565b0190565b6120b19060208101906000818303910152612081565b90565b156120bb57565b6120c3610173565b62461bcd60e51b8152806120d96004820161209b565b0390fd5b151590565b60207f6572732063616e206f6e6c7920766f7465206f6e636500000000000000000000917f5468697320766f7465722068617320766f746564206265666f72652c20766f7460008201520152565b61213d6036604092610e23565b612146816120e2565b0190565b6121609060208101906000818303910152612130565b90565b1561216a57565b612172610173565b62461bcd60e51b8152806121886004820161214a565b0390fd5b60207f6d6174636820746865206e756d626572206f662063616e646964617465730000917f496e76616c6964206e756d626572206f6620766f7465732c2073686f756c642060008201520152565b6121e7603e604092610e23565b6121f08161218c565b0190565b61220a90602081019060008183039101526121da565b90565b1561221457565b61221c610173565b62461bcd60e51b815280612232600482016121f4565b0390fd5b90612240826103e1565b811015612251576020809102010190565b610c70565b61225f9061102e565b90565b60207f6564000000000000000000000000000000000000000000000000000000000000917f566f74652063697068657274657874206973206e6f742077656c6c2d666f726d60008201520152565b6122bd6022604092610e23565b6122c681612262565b0190565b6122e090602081019060008183039101526122b0565b90565b156122ea57565b6122f2610173565b62461bcd60e51b815280612308600482016122ca565b0390fd5b61231660406107c8565b90565b61232360406107c8565b90565b60607f6461746500000000000000000000000000000000000000000000000000000000917f566f74652073756d206973206e6f7420657175616c20746f206f6e652c206d6560008201527f616e696e6720612062616c6c6f74206973206361737420666f72206d6f72652060208201527f7468616e206f6e652063616e646964617465206f72207a65726f2063616e646960408201520152565b6123cd6064608092610e23565b6123d681612326565b0190565b6123f090602081019060008183039101526123c0565b90565b156123fa57565b612402610173565b62461bcd60e51b815280612418600482016123da565b0390fd5b61243061242b61243592610196565b610199565b6103a3565b90565b61244260806107c8565b90565b90565b600052602060002090565b5490565b61246081612453565b82101561247b57612472600891612448565b91020190600090565b610c70565b61248a90516103a3565b90565b60001b90565b906124a667ffffffffffffffff9161248d565b9181191691161790565b6124c46124bf6124c9926103a3565b610199565b6103a3565b90565b90565b906124e46124df6124eb926124b0565b6124cc565b8254612493565b9055565b6124f990516103c8565b90565b60401b90565b9061251c68010000000000000000600160e01b03916124fc565b9181191691161790565b90565b9061253e61253961254592611fc2565b612526565b8254612502565b9055565b5190565b634e487b7160e01b600052601160045260246000fd5b61257261257891939293610196565b92610196565b91612584838202610196565b92818404149015171561259357565b61254d565b6125a3906010612563565b90565b1b90565b919060086125c69102916125c0600019846125a6565b926125a6565b9181191691161790565b6125e46125df6125e992610196565b610199565b610196565b90565b90565b919061260561260061260d936125d0565b6125ec565b9083546125aa565b9055565b600090565b61262891612622612611565b916125ef565b565b600060016126449261263e83808301612616565b01612616565b565b90600003612659576126579061262a565b565b610cbe565b600060026126789261267283808301612646565b01612646565b565b9060000361268d5761268b9061265e565b565b610cbe565b6000600b6126fa926126a683808301612646565b6126b38360028301612646565b6126c08360048301612646565b6126cd8360068301612646565b6126da8360088301612616565b6126e78360098301612616565b6126f483600a8301612616565b01612616565b565b9060000361270f5761270d90612692565b565b610cbe565b6000600461272e926127288380830161267a565b016126fc565b565b906000036127435761274190612714565b565b610cbe565b5b818110612754575050565b806127626000601093612730565b01612749565b9091828110612777575b505050565b61279561278f6127896127a095612598565b92612598565b92611b7c565b918201910190612748565b388080612772565b906801000000000000000081116127d157816127c66127cf93611b61565b90828155612768565b565b610789565b5190565b5190565b5190565b6127ec9051610196565b90565b906127fc6000199161248d565b9181191691161790565b9061281b612816612822926125d0565b6125ec565b82546127ef565b9055565b90612853602060016128599461284b60008201612845600088016127e2565b90612806565b0192016127e2565b90612806565b565b9061286591612826565b565b906128946020600261289a9461288c60008201612886600088016127de565b9061285b565b0192016127de565b9061285b565b565b906128a691612867565b565b5190565b9061296f60e0600b612975946128d1600082016128cb600088016127de565b9061285b565b6128ea600282016128e4602088016127de565b9061285b565b612903600482016128fd604088016127de565b9061285b565b61291c60068201612916606088016127de565b9061285b565b6129356008820161292f608088016127e2565b90612806565b61294e6009820161294860a088016127e2565b90612806565b612967600a820161296160c088016127e2565b90612806565b0192016127e2565b90612806565b565b90612981916128ac565b565b906129b0602060046129b6946129a8600082016129a2600088016127da565b9061289c565b0192016128a8565b90612977565b565b906129c291612983565b565b6129e96129e36129d3846103e1565b936129de85856127a8565b6103ee565b91611b7c565b6000915b8383106129fa5750505050565b6010602082612a13612a0d6001956127d6565b866129b8565b019201920191906129ed565b90612a29916129c4565b565b5190565b90612a8e60606005612a9494612a5460008201612a4e600088016127de565b9061285b565b612a6d60028201612a67602088016127de565b9061285b565b612a8660048201612a80604088016127e2565b90612806565b0192016127e2565b90612806565b565b90612aa091612a2f565b565b90612b0160606002612b0794612ac760008201612ac160008801612480565b906124cf565b612ae060008201612ada602088016124ef565b90612529565b612af960018201612af360408801612549565b90612a1f565b019201612a2b565b90612a96565b565b9190612b1a57612b1891612aa2565b565b610cbe565b9081549168010000000000000000831015612b4f5782612b47916001612b4d95018155612457565b90612b09565b565b610789565b90612b6060ff9161248d565b9181191691161790565b612b73906120dd565b90565b90565b90612b8e612b89612b9592612b6a565b612b76565b8254612b54565b9055565b90612bea90606080612bdf6101208401612bbb600088015160008701906103b0565b612bcd602088015160208701906103d4565b60408701518582036040870152610524565b940151910190610575565b90565b612c039160208201916000818403910152612b99565b90565b90612c2d42612c26612c20612c1b600361120b565b611ed4565b91610196565b1115611f71565b612c49612c44612c3f60083390611fce565b612000565b6120b4565b612c6e612c69612c63612c5e60093390611fce565b612000565b156120dd565b612163565b612c9f612c7e60008401516103e1565b612c99612c93612c8e6002610c86565b610196565b91610196565b1461220d565b612ca9600061181b565b5b80612cc9612cc3612cbe60008701516103e1565b610196565b91610196565b1015612d1f57612d1a90612d15612d106000612ce9818801518590612236565b5101516020612cfd60008901518690612236565b510151612d0a6004612256565b91613bb2565b6122e3565b611a32565b612caa565b506000612d55612d4c6000612d47612d3e612d3861230c565b9561181b565b60008601611013565b61181b565b60208301611013565b612dab6000612d8d612d846000612d7f612d76612d7061230c565b9561181b565b60008601611013565b61181b565b60208301611013565b612da2612d98612319565b936000850161123f565b6020830161123f565b612db5600061181b565b5b80612dd5612dcf612dca60008801516103e1565b610196565b91610196565b1015612e3c57612e3790612e036000840151600080612df8818a01518690612236565b51015101519061408c565b6000840152612e2d602084015160206000612e22818a01518690612236565b51015101519061408c565b6020840152611a32565b612db6565b50612e67612e6c919392936020840151612e566002610c86565b90612e616004612256565b92614202565b6123f3565b612ec5612e81612e7c60076111bf565b61241c565b91612ebc3391612eb36020600083015192015193612eaa612ea0612438565b9760008901611b45565b60208701611b53565b60408501611d52565b60608301611d55565b612ed9612ed26007612445565b8290612b1f565b612eef6001612eea60093390611fce565b612b79565b612f257f139a2fce3cb1f6b7d0e62f2fa38f48d7a95d26bb2163f0a0a80bf0c4e2a19f3291612f1c610173565b91829182612bed565b0390a1565b5190565b60007f4e6f20706f696e74732070726f76696465640000000000000000000000000000910152565b612f636012602092610e23565b612f6c81612f2e565b0190565b612f869060208101906000818303910152612f56565b90565b15612f9057565b612f98610173565b62461bcd60e51b815280612fae60048201612f70565b0390fd5b90612fbc82612f2a565b811015612fcd576020809102010190565b610c70565b905090565b612ffc612ff392602092612fea8161025a565b94858093612fd2565b93849101610267565b0190565b60007f2c00000000000000000000000000000000000000000000000000000000000000910152565b61303460018092612fd2565b61303d81613000565b0190565b6130526130579161305d9493612fd7565b613028565b90612fd7565b90565b5190565b905090565b61308e6130859260209261307c81613060565b94858093613064565b93849101610267565b0190565b61309b91613069565b90565b6130a6610173565b3d6000823e3d90fd5b6130bb6130c0916106dd565b6125d0565b90565b906130cc612611565b506130f26130d983612f2a565b6130ec6130e6600061181b565b91610196565b11612f89565b600061312761311e600061311961311061310a61230c565b9561181b565b60008601611013565b61181b565b60208301611013565b613131600061181b565b905b8161314e61314861314387612f2a565b610196565b91610196565b10156131795761316d61317391613166868590612fb2565b519061408c565b91611a32565b90613133565b6020929350600091506131e5906131d46131af6131aa866131a361319e8887016127e2565b6145e7565b94016127e2565b6145e7565b916131c66131bb610173565b938492888401613041565b86820181038252038261079f565b6131dc610173565b91829182613092565b039060025afa15613206576132036131fe60005161248d565b6130af565b90565b61309e565b61321560c06107c8565b90565b600090565b61322561320b565b906020808080808087613236613218565b815201613241613218565b81520161324c613218565b815201613257613218565b815201613262613218565b81520161326d613218565b81525050565b61327b61321d565b90565b61328860c06107c8565b90565b613293613273565b5061329c6101b8565b6133176132a76114e7565b61330e6132b2611837565b6133056132bd610c04565b6132fc6132c8611572565b936132f36132d46117ba565b976132ea6132e061327e565b9b60008d01611013565b60208b01611013565b60408901611013565b60608701611013565b60808501611013565b60a08301611013565b90565b613322611021565b906020808361332f613218565b81520161333a613218565b81525050565b61334861331a565b90565b61337790613357613340565b509161336e61336461230c565b9360008501611013565b60208301611013565b90565b606090565b67ffffffffffffffff81116133975760208091020190565b610789565b906133ae6133a98361337f565b6107c8565b918252565b52565b6133c060606107c8565b90565b9061341461340b60036133d46133b6565b946133ed6133e460008301611006565b60008801611b53565b6134056133fc6001830161102e565b6020880161123f565b01611076565b604084016133b3565b565b61341f906133c3565b90565b9061342c82610faf565b6134358161339c565b926134436020850191610fb3565b6000915b8383106134545750505050565b6005602060019261346485613416565b815201920192019190613447565b61347b90613422565b90565b61348661337a565b506134916006613472565b90565b90565b6134ab6134a66134b092613494565b610199565b610196565b90565b60207f2031000000000000000000000000000000000000000000000000000000000000917f496e76616c696420766f74652c2063616e206f6e6c7920636173742030206f7260008201520152565b61350e6022604092610e23565b613517816134b3565b0190565b6135319060208101906000818303910152613501565b90565b1561353b57565b613543610173565b62461bcd60e51b8152806135596004820161351b565b0390fd5b60007f496e76616c696420766f74650000000000000000000000000000000000000000910152565b613592600c602092610e23565b61359b8161355d565b0190565b6135b59060208101906000818303910152613585565b90565b90565b6135cf6135ca6135d4926135b8565b610199565b610196565b90565b6135df613340565b50806135f46135ee600061181b565b91610196565b14801561368e575b61360590613534565b80613619613613600061181b565b91610196565b1460001461362f575061362c6000612256565b90565b61364261363c6001613497565b91610196565b1460001461366c57613669600261366361365d6000926135bb565b91612256565b90614691565b90565b613674610173565b62461bcd60e51b81528061368a6004820161359f565b0390fd5b50613605816136a66136a06001613497565b91610196565b1490506135fc565b6136b860406107c8565b90565b606090565b6136c86136ae565b90602080836136d56136bb565b8152016136e0613218565b81525050565b6136ee6136c0565b90565b600090565b600090565b606090565b61370861331a565b90565b613713611242565b90602080808085613722613700565b81520161372d613700565b815201613738613218565b815201613743613218565b81525050565b61375161370b565b90565b61375c611d58565b9060208080808561376b6136f1565b8152016137766136f6565b8152016137816136fb565b81520161378c613749565b81525050565b61379a613754565b90565b60005b8281106137ac57505050565b6020906137b7613792565b81840152016137a0565b906137e66137ce83611b2e565b926020806137dc8693611b11565b920191039061379d565b565b6137f260406107c8565b90565b52565b90565b61380f61380a613814926137f8565b610199565b610196565b90565b60007f50616765206f7574206f662072616e6765000000000000000000000000000000910152565b61384c6011602092610e23565b61385581613817565b0190565b61386f906020810190600081830391015261383f565b90565b1561387957565b613881610173565b62461bcd60e51b81528061389760048201613859565b0390fd5b6138aa6138b091939293610196565b92610196565b82039182116138bb57565b61254d565b6138cf6138d591939293610196565b92610196565b82018092116138e057565b61254d565b906138ef82610390565b811015613900576020809102010190565b610c70565b9061390e6136e6565b5061391960076111bf565b61392c613926600061181b565b91610196565b14613a745761393b60056137fb565b61398a61398361395561394e60076111bf565b84906146fd565b946139738161396c61396689610196565b91610196565b1115613872565b61397d6001613497565b9061389b565b8290612563565b906139968282906138c0565b6139b16139ab6139a660076111bf565b610196565b91610196565b11600014613a6557506139c460076111bf565b5b916139d96139d484849061389b565b6137c1565b93825b806139ef6139e987610196565b91610196565b1015613a3a57613a3590613a2e613a08600783906111ce565b5088613a1e613a18858a9061389b565b92611dd0565b613a2883836138e5565b526138e5565b5150611a32565b6139dc565b50925092613a62915091613a59613a4f6137e8565b93600085016137f5565b60208301611013565b90565b613a6f90826138c0565b6139c5565b9050613a88613a83600061181b565b6137c1565b613ab3613aaa6000613aa5613a9b6137e8565b94600086016137f5565b61181b565b60208301611013565b90565b600090565b90613acd613ac883610eab565b6107c8565b918252565b60005b828110613ae157505050565b602090613aec613700565b8184015201613ad5565b90613b1b613b0383613abb565b92602080613b118693610eab565b9201910390613ad2565b565b90565b613b34613b2f613b3992613b1d565b610199565b610196565b90565b90565b613b53613b4e613b5892613b3c565b610199565b610196565b90565b90565b613b72613b6d613b7792613b5b565b610199565b610196565b90565b634e487b7160e01b600052601260045260246000fd5b613b9c613ba291610196565b91610196565b908115613bad570690565b613b7a565b613bba613ab6565b50613bda613bca60c084016127e2565b613bd46000612256565b90614691565b613c026000840151613bfc613bf1608087016127e2565b600086015190614691565b9061408c565b613c0e600083016127e2565b613c2b613c25613c20600085016127e2565b610196565b91610196565b1415918215614058575b505061405057613c5a613c4a60e084016127e2565b613c546000612256565b90614691565b613c826020840151613c7c613c7160a087016127e2565b600086015190614691565b9061408c565b613c8e600083016127e2565b613cab613ca5613ca0600085016127e2565b610196565b91610196565b141591821561401c575b505061401457613cd1613cca60c084016127e2565b8490614691565b613d146040840151613d0e613ce8608087016127e2565b613d086020870151613d02613cfd600061181b565b6135d7565b90614754565b90614691565b9061408c565b613d20600083016127e2565b613d3d613d37613d32600085016127e2565b610196565b91610196565b1415918215613fe0575b5050613fd857613d63613d5c60e084016127e2565b8490614691565b613da66060840151613da0613d7a60a087016127e2565b613d9a6020870151613d94613d8f6001613497565b6135d7565b90614754565b90614691565b9061408c565b613db2600083016127e2565b613dcf613dc9613dc4600085016127e2565b610196565b91610196565b1415918215613fa4575b5050613f9c576020613e7b91613e21613dfa613df56007610be8565b613af6565b95613e1b8791600090613e15613e0f8361181b565b85612fb2565b5261181b565b90612fb2565b5150613e516000820151613e4b8791600190613e45613e3f83613497565b85612fb2565b52613497565b90612fb2565b51500151613e758491600290613e6f613e69836135bb565b85612fb2565b526135bb565b90612fb2565b5150613eab6000820151613ea58491600390613e9f613e9983613b20565b85612fb2565b52613b20565b90612fb2565b5150613edb6040820151613ed58491600490613ecf613ec983613b3f565b85612fb2565b52613b3f565b90612fb2565b5150613f0b6020820151613f058491600590613eff613ef9836137fb565b85612fb2565b526137fb565b90612fb2565b5150613f3b6060820151613f358491600690613f2f613f2983613b5e565b85612fb2565b52613b5e565b90612fb2565b5150613f5560a0613f4e608084016127e2565b92016127e2565b613f5d6117ba565b908115613f9757613f7a613f8d92613f8892613f939508946130c3565b613f826117ba565b90613b90565b610196565b91610196565b1490565b613b7a565b505050600090565b613fcf919250613fc46020613fbd81613fc994016127e2565b94016127e2565b610196565b91610196565b14153880613dd9565b505050600090565b61400b9192506140006020613ff98161400594016127e2565b94016127e2565b610196565b91610196565b14153880613d47565b505050600090565b61404791925061403c60206140358161404194016127e2565b94016127e2565b610196565b91610196565b14153880613cb5565b505050600090565b61408391925061407860206140718161407d94016127e2565b94016127e2565b610196565b91610196565b14153880613c35565b90614095613340565b506140a0600061181b565b506140ab600061181b565b506140b6600061181b565b506140c3600083016127e2565b6140e06140da6140d5600085016127e2565b610196565b91610196565b146000146141a5576140ff60206140f88185016127e2565b92016127e2565b614107611572565b9182156141a0570861412261411c600061181b565b91610196565b1460001461416357506000614160614157600061415261414961414361230c565b9561181b565b60008601611013565b61181b565b60208301611013565b90565b61419281614182602061417b600061419d96016127e2565b92016127e2565b61418c6001613497565b91615074565b90915b9190916152d3565b90565b613b7a565b816141fb916141c560206141be600061419d97016127e2565b93016127e2565b9060016141e060206141d9600085016127e2565b93016127e2565b926141f56141ef600193613497565b92613497565b94614879565b9091614195565b929161420c613ab6565b5061422c61421c606084016127e2565b6142266000612256565b90614691565b614254600084015161424e614243604087016127e2565b600089015190614691565b9061408c565b614260600083016127e2565b61427d614277614272600085016127e2565b610196565b91610196565b14159182156144ea575b50506144e1576143226142a661429f606085016127e2565b8590614691565b9161431c6020850151916143166142bf604088016127e2565b9161431060208b01519161430a6142f26142e16142dc6001613497565b6135d7565b926142ec6001613497565b9061389b565b6143046142ff600061181b565b6135d7565b90614691565b9061408c565b90614754565b90614691565b9061408c565b61432e600083016127e2565b61434b614345614340600085016127e2565b610196565b91610196565b14159182156144ad575b50506144a557614496614488614482614474604061449b9561440c60206143ad9a6143b36144a19b61438f61438a60056137fb565b613af6565b9d8e916000906143a76143a18361181b565b85612fb2565b5261181b565b90612fb2565b51506143e28c6143dc60008401516001906143d66143d083613497565b85612fb2565b52613497565b90612fb2565b515001516144068b916002906144006143fa836135bb565b85612fb2565b526135bb565b90612fb2565b515061443c60008201516144368b9160039061443061442a83613b20565b85612fb2565b52613b20565b90612fb2565b515061446c60208201516144668b9160049061446061445a83613b3f565b85612fb2565b52613b3f565b90612fb2565b5150016127e2565b61447c6117ba565b90613b90565b946130c3565b6144906117ba565b90613b90565b610196565b91610196565b1490565b505050600090565b6144d89192506144cd60206144c6816144d294016127e2565b94016127e2565b610196565b91610196565b14153880614355565b50505050600090565b61451591925061450a60206145038161450f94016127e2565b94016127e2565b610196565b91610196565b14153880614287565b606090565b9061452e9101610196565b90565b67ffffffffffffffff811161454f5761454b60209161028c565b0190565b610789565b9061456661456183614531565b6107c8565b918252565b369037565b9061459561457d83614554565b9260208061458b8693614531565b920191039061456b565b565b60016145a39103610196565b90565b90565b6145bd6145b86145c2926145a6565b610199565b610196565b90565b6145d16145d791610196565b91610196565b9081156145e2570490565b613b7a565b6145ef61451e565b5061460c6145fc8261547f565b6146066001613497565b90614523565b9061461682614570565b9161461f612611565b5060200182015b60011561468a5761463961466591614597565b916f181899199a1a9b1b9c1cb0b131b232b360811b600a82061a835361465f600a6145a9565b906145c5565b80614679614673600061181b565b91610196565b146146845790614626565b50505b90565b5050614687565b6146d8916146cc916146a1613340565b50906146bb60206146b4600084016127e2565b92016127e2565b906146c66001613497565b926156e1565b919091909190916152d3565b90565b6146e76146ed91610196565b91610196565b9081156146f8570490565b613b7a565b9061471c9061470a612611565b506147168382906146db565b92613b90565b61472f614729600061181b565b91610196565b1460001461473b575b90565b61474f906147496001613497565b906138c0565b614738565b61476961476f92614763613340565b506157f2565b9061408c565b90565b67ffffffffffffffff81116147875760200290565b610789565b61479861479d91614772565b6107c8565b90565b369037565b906147c36147b28361478c565b926147bd8491614772565b906147a0565b565b6147cf60046147a5565b90565b50600490565b906147e2826147d2565b8110156147f0576020020190565b610c70565b60007f557365206a6163446f75626c652066756e6374696f6e20696e73746561640000910152565b61482a601e602092610e23565b614833816147f5565b0190565b61484d906020810190600081830391015261481d565b90565b1561485757565b61485f610173565b62461bcd60e51b81528061487560048201614837565b0390fd5b929593909195614887612611565b50614890612611565b50614899612611565b50836148ae6148a8600061181b565b91610196565b148061503a575b61502c57806148cd6148c7600061181b565b91610196565b1480615011575b615005576148e06147c5565b9287886148eb611572565b90811561500057614910920961490b86614905600061181b565b906147d8565b611013565b8761492d61492886614922600061181b565b906147d8565b6127e2565b614935611572565b908115614ffb5761495a92096149558661494f6001613497565b906147d8565b611013565b8687614964611572565b908115614ff65761498992096149848661497e60026135bb565b906147d8565b611013565b866149a66149a18661499b60026135bb565b906147d8565b6127e2565b6149ae611572565b908115614ff1576149d392096149ce866149c86003613b20565b906147d8565b611013565b6149dd600461478c565b946149fa6149f5866149ef60026135bb565b906147d8565b6127e2565b614a02611572565b908115614fec57614a17920960008701611013565b614a33614a2e85614a286003613b20565b906147d8565b6127e2565b614a3b611572565b908115614fe757614a50920960208601611013565b90614a6d614a6884614a62600061181b565b906147d8565b6127e2565b90614a76611572565b928315614fe257614aa993614aa493614a93920960408701611013565b92614a9e6001613497565b906147d8565b6127e2565b614ab1611572565b908115614fdd57614ac6920960608301611013565b92614ae3614ade85614ad8600061181b565b906147d8565b6127e2565b614b10614b0a614b05614b0088614afa60026135bb565b906147d8565b6127e2565b610196565b91610196565b14158015614f87575b614b2290614850565b614b2a6147c5565b92614b47614b4286614b3c60026135bb565b906147d8565b6127e2565b614b74614b52611572565b614b6e614b6989614b63600061181b565b906147d8565b6127e2565b9061389b565b614b7c611572565b908115614f8257614ba19208614b9c86614b96600061181b565b906147d8565b611013565b614bbd614bb886614bb26003613b20565b906147d8565b6127e2565b614bea614bc8611572565b614be4614bdf89614bd96001613497565b906147d8565b6127e2565b9061389b565b614bf2611572565b908115614f7d57614c179208614c1286614c0c6001613497565b906147d8565b611013565b614c33614c2e85614c28600061181b565b906147d8565b6127e2565b614c4f614c4a86614c44600061181b565b906147d8565b6127e2565b614c57611572565b908115614f7857614c7c9209614c7786614c7160026135bb565b906147d8565b611013565b614c98614c9385614c8d60026135bb565b906147d8565b6127e2565b614cb4614caf86614ca9600061181b565b906147d8565b6127e2565b614cbc611572565b908115614f7357614ce19209614cdc86614cd66003613b20565b906147d8565b611013565b614cfd614cf885614cf26001613497565b906147d8565b6127e2565b614d19614d1486614d0e6001613497565b906147d8565b6127e2565b614d21611572565b918215614f6e5709614d56614d34611572565b614d50614d4b88614d456003613b20565b906147d8565b6127e2565b9061389b565b614d5e611572565b918215614f695708614d6e611572565b600290614d8d614d8889614d82600061181b565b906147d8565b6127e2565b614da9614da489614d9e60026135bb565b906147d8565b6127e2565b614db1611572565b918215614f645709614dc1611572565b908115614f5f57614dd4614ddb946135bb565b099061389b565b614de3611572565b918215614f5a570894614e08614e0386614dfd6001613497565b906147d8565b6127e2565b614e24614e1f83614e19600061181b565b906147d8565b6127e2565b614e40614e3b88614e3560026135bb565b906147d8565b6127e2565b614e48611572565b918215614f555709614e62614e5b611572565b899061389b565b614e6a611572565b918215614f505708614e7a611572565b918215614f4b570990614ea7614ea2614e91611572565b92614e9c6001613497565b906147d8565b6127e2565b90614ec4614ebf88614eb96003613b20565b906147d8565b6127e2565b614ecc611572565b908115614f4657614ede93099061389b565b90614ee7611572565b8015614f4157614f0c92614f07920895614f01600061181b565b906147d8565b6127e2565b9190614f16611572565b918215614f3c5709614f26611572565b918215614f37570992919291929190565b613b7a565b613b7a565b613b7a565b613b7a565b613b7a565b613b7a565b613b7a565b613b7a565b613b7a565b613b7a565b613b7a565b613b7a565b613b7a565b613b7a565b613b7a565b613b7a565b50614b22614fa7614fa286614f9c6001613497565b906147d8565b6127e2565b614fd4614fce614fc9614fc489614fbe6003613b20565b906147d8565b6127e2565b610196565b91610196565b14159050614b19565b613b7a565b613b7a565b613b7a565b613b7a565b613b7a565b613b7a565b613b7a565b613b7a565b50509250919291929190565b5081615026615020600061181b565b91610196565b146148d4565b925093945050919291929190565b508261504f615049600061181b565b91610196565b146148b5565b90565b61506c61506761507192615055565b610199565b610196565b90565b929061507e612611565b50615087612611565b50615090612611565b50826150a561509f600061181b565b91610196565b146152c95783846150b4611572565b9182156152c457099381826150c7611572565b9182156152bf57099084856150da611572565b9182156152ba570990600490836150ef611572565b9182156152b557096150ff611572565b9182156152b05761510f90613b3f565b099560039061511c611572565b9182156152ab5761512c90613b20565b0990615136611837565b9080615140611572565b9182156152a65709615150611572565b9182156152a15709615160611572565b91821561529c5708948586615173611572565b9182156152975709615183611572565b82908361518e611572565b908115615292576151a093089061389b565b6151a8611572565b91821561528d570895906151c46151bd611572565b889061389b565b6151cc611572565b91821561528857086151dc611572565b9182156152835709906151ed611572565b600891806151f9611572565b91821561527e5709615209611572565b9081156152795761521c61522394615058565b099061389b565b61522b611572565b91821561527457089260029190615240611572565b91821561526f5709615250611572565b91821561526a57615260906135bb565b0992919291929190565b613b7a565b613b7a565b613b7a565b613b7a565b613b7a565b613b7a565b613b7a565b613b7a565b613b7a565b613b7a565b613b7a565b613b7a565b613b7a565b613b7a565b613b7a565b613b7a565b613b7a565b613b7a565b613b7a565b9192919291929190565b90916152e7906152e1613340565b506158de565b9081826152f2611572565b91821561536357099081615304611572565b91821561535e5709929190615317611572565b9182156153595709615327611572565b90811561535457615351920961534861533e61230c565b9360008501611013565b60208301611013565b90565b613b7a565b613b7a565b613b7a565b613b7a565b90565b61537f61537a61538492615368565b610199565b610196565b90565b90565b61539e6153996153a392615387565b610199565b610196565b90565b90565b6153bd6153b86153c2926153a6565b610199565b610196565b90565b90565b6153dc6153d76153e1926153c5565b610199565b610196565b90565b90565b6153fb6153f6615400926153e4565b610199565b610196565b90565b90565b61541a61541561541f92615403565b610199565b610196565b90565b90565b61543961543461543e92615422565b610199565b610196565b90565b90565b61545861545361545d92615441565b610199565b610196565b90565b90565b61547761547261547c92615460565b610199565b610196565b90565b615487612611565b50615492600061181b565b90806154c16154bb7a184f03e93ff9f4daa797ed6e38ed64bf6a1f01000000000000000061536b565b91610196565b1015615699575b806154e96154e36d04ee2d6d415b85acef81000000006153a9565b91610196565b101561565e575b8061550a615504662386f26fc100006153e7565b91610196565b101561562a575b806155286155226305f5e100615425565b91610196565b10156155f9575b8061554461553e612710615444565b91610196565b10156155ca575b8061555f6155596064615463565b91610196565b101561559c575b615579615573600a6145a9565b91610196565b1015615583575b90565b615597906155916001613497565b90614523565b615580565b6155b36155c4916155ad6064615463565b906145c5565b916155be60026135bb565b90614523565b90615566565b6155e26155f3916155dc612710615444565b906145c5565b916155ed6004613b3f565b90614523565b9061554b565b6156136156249161560d6305f5e100615425565b906145c5565b9161561e6008615058565b90614523565b9061552f565b61564761565891615641662386f26fc100006153e7565b906145c5565b916156526010615406565b90614523565b90615511565b6156826156939161567c6d04ee2d6d415b85acef81000000006153a9565b906145c5565b9161568d60206153c8565b90614523565b906154f0565b6156ca6156db916156c47a184f03e93ff9f4daa797ed6e38ed64bf6a1f01000000000000000061536b565b906145c5565b916156d5604061538a565b90614523565b906154c8565b9291926156ec612611565b506156f5612611565b506156fe612611565b508061571361570d600061181b565b91610196565b146157e6579390615724600061181b565b9361572f600061181b565b9361573a6001613497565b965b8061575061574a600061181b565b91610196565b146157da57806157606001613497565b1661577461576e600061181b565b91610196565b036157ae575b9061579361579c939261578d60026135bb565b906146db565b93919091615074565b9591959490959295919594909461573c565b956157939561579c9392986157ca929190869085928c94614879565b989196909697919293505061577a565b50505050909291929190565b50929092919291929190565b6157fa613340565b5061585761583961582b615810600085016127e2565b93615825602061581e611572565b92016127e2565b9061389b565b615833611572565b90613b90565b61584e61584461230c565b9360008501611013565b60208301611013565b90565b60007f496e76616c6964206e756d626572000000000000000000000000000000000000910152565b61588f600e602092610e23565b6158988161585a565b0190565b6158b29060208101906000818303910152615882565b90565b156158bc57565b6158c4610173565b62461bcd60e51b8152806158da6004820161589c565b0390fd5b6158e6612611565b50806158fb6158f5600061181b565b91610196565b1415806159ed575b806159c5575b615912906158b5565b61591c600061181b565b6159266001613497565b9061592f611572565b91615938612611565b505b8361594e615948600061181b565b91610196565b146159be5761595e8385906146db565b819291615969611572565b8291615973611572565b9081156159b95761598593099061389b565b9161598e611572565b80156159b4576159ad936159a792089395809592612563565b9061389b565b929061593a565b613b7a565b613b7a565b5091505090565b506159126159d1611572565b6159e46159de600061181b565b91610196565b14159050615909565b5080615a08615a026159fd611572565b610196565b91610196565b141561590356fea2646970667358221220fc28cd4f42af827820340957df2383f9247abdd9c4787bc0de1efce4ec91f88564736f6c634300081c0033",
  "linkReferences": {},
  "deployedLinkReferences": {}
}