{
  "_format": "hh-sol-artifact-1",
  "contractName": "Election",
  "sourceName": "contracts/Election.sol",
  "abi": [
    {
      "inputs": [
        {
          "components": [
            {
              "components": [
                {
                  "internalType": "uint256",
                  "name": "x",
                  "type": "uint256"
                },
                {
                  "internalType": "uint256",
                  "name": "y",
                  "type": "uint256"
                }
              ],
              "internalType": "struct Ecc.EcPoint",
              "name": "publicKey",
              "type": "tuple"
            },
            {
              "components": [
                {
                  "internalType": "uint256",
                  "name": "c",
                  "type": "uint256"
                },
                {
                  "internalType": "uint256",
                  "name": "d",
                  "type": "uint256"
                }
              ],
              "internalType": "struct Zkp.KeyOwnershipProof",
              "name": "proof",
              "type": "tuple"
            }
          ],
          "internalType": "struct Election.Authority[]",
          "name": "_authorities",
          "type": "tuple[]"
        },
        {
          "internalType": "string[]",
          "name": "_candidates",
          "type": "string[]"
        }
      ],
      "stateMutability": "nonpayable",
      "type": "constructor"
    },
    {
      "anonymous": false,
      "inputs": [
        {
          "components": [
            {
              "components": [
                {
                  "components": [
                    {
                      "components": [
                        {
                          "internalType": "uint256",
                          "name": "x",
                          "type": "uint256"
                        },
                        {
                          "internalType": "uint256",
                          "name": "y",
                          "type": "uint256"
                        }
                      ],
                      "internalType": "struct Ecc.EcPoint",
                      "name": "a",
                      "type": "tuple"
                    },
                    {
                      "components": [
                        {
                          "internalType": "uint256",
                          "name": "x",
                          "type": "uint256"
                        },
                        {
                          "internalType": "uint256",
                          "name": "y",
                          "type": "uint256"
                        }
                      ],
                      "internalType": "struct Ecc.EcPoint",
                      "name": "b",
                      "type": "tuple"
                    }
                  ],
                  "internalType": "struct Ecc.ECElGamalCiphertext",
                  "name": "ciphertext",
                  "type": "tuple"
                },
                {
                  "components": [
                    {
                      "components": [
                        {
                          "internalType": "uint256",
                          "name": "x",
                          "type": "uint256"
                        },
                        {
                          "internalType": "uint256",
                          "name": "y",
                          "type": "uint256"
                        }
                      ],
                      "internalType": "struct Ecc.EcPoint",
                      "name": "a0_",
                      "type": "tuple"
                    },
                    {
                      "components": [
                        {
                          "internalType": "uint256",
                          "name": "x",
                          "type": "uint256"
                        },
                        {
                          "internalType": "uint256",
                          "name": "y",
                          "type": "uint256"
                        }
                      ],
                      "internalType": "struct Ecc.EcPoint",
                      "name": "a1_",
                      "type": "tuple"
                    },
                    {
                      "components": [
                        {
                          "internalType": "uint256",
                          "name": "x",
                          "type": "uint256"
                        },
                        {
                          "internalType": "uint256",
                          "name": "y",
                          "type": "uint256"
                        }
                      ],
                      "internalType": "struct Ecc.EcPoint",
                      "name": "b0_",
                      "type": "tuple"
                    },
                    {
                      "components": [
                        {
                          "internalType": "uint256",
                          "name": "x",
                          "type": "uint256"
                        },
                        {
                          "internalType": "uint256",
                          "name": "y",
                          "type": "uint256"
                        }
                      ],
                      "internalType": "struct Ecc.EcPoint",
                      "name": "b1_",
                      "type": "tuple"
                    },
                    {
                      "internalType": "uint256",
                      "name": "c0",
                      "type": "uint256"
                    },
                    {
                      "internalType": "uint256",
                      "name": "c1",
                      "type": "uint256"
                    },
                    {
                      "internalType": "uint256",
                      "name": "r0__",
                      "type": "uint256"
                    },
                    {
                      "internalType": "uint256",
                      "name": "r1__",
                      "type": "uint256"
                    }
                  ],
                  "internalType": "struct Zkp.WellFormedVoteProof",
                  "name": "wellFormedVoteProof",
                  "type": "tuple"
                }
              ],
              "internalType": "struct Election.Vote[]",
              "name": "votes",
              "type": "tuple[]"
            },
            {
              "components": [
                {
                  "components": [
                    {
                      "internalType": "uint256",
                      "name": "x",
                      "type": "uint256"
                    },
                    {
                      "internalType": "uint256",
                      "name": "y",
                      "type": "uint256"
                    }
                  ],
                  "internalType": "struct Ecc.EcPoint",
                  "name": "A_",
                  "type": "tuple"
                },
                {
                  "components": [
                    {
                      "internalType": "uint256",
                      "name": "x",
                      "type": "uint256"
                    },
                    {
                      "internalType": "uint256",
                      "name": "y",
                      "type": "uint256"
                    }
                  ],
                  "internalType": "struct Ecc.EcPoint",
                  "name": "B_",
                  "type": "tuple"
                },
                {
                  "internalType": "uint256",
                  "name": "c",
                  "type": "uint256"
                },
                {
                  "internalType": "uint256",
                  "name": "R__",
                  "type": "uint256"
                }
              ],
              "internalType": "struct Zkp.SingleVoteSumProof",
              "name": "singleVoteSumProof",
              "type": "tuple"
            }
          ],
          "indexed": false,
          "internalType": "struct Election.Ballot",
          "name": "_ballot",
          "type": "tuple"
        }
      ],
      "name": "BallotCast",
      "type": "event"
    },
    {
      "inputs": [],
      "name": "A",
      "outputs": [
        {
          "internalType": "uint256",
          "name": "",
          "type": "uint256"
        }
      ],
      "stateMutability": "view",
      "type": "function"
    },
    {
      "inputs": [],
      "name": "B",
      "outputs": [
        {
          "internalType": "uint256",
          "name": "",
          "type": "uint256"
        }
      ],
      "stateMutability": "view",
      "type": "function"
    },
    {
      "inputs": [],
      "name": "G",
      "outputs": [
        {
          "internalType": "uint256",
          "name": "x",
          "type": "uint256"
        },
        {
          "internalType": "uint256",
          "name": "y",
          "type": "uint256"
        }
      ],
      "stateMutability": "view",
      "type": "function"
    },
    {
      "inputs": [],
      "name": "GX",
      "outputs": [
        {
          "internalType": "uint256",
          "name": "",
          "type": "uint256"
        }
      ],
      "stateMutability": "view",
      "type": "function"
    },
    {
      "inputs": [],
      "name": "GY",
      "outputs": [
        {
          "internalType": "uint256",
          "name": "",
          "type": "uint256"
        }
      ],
      "stateMutability": "view",
      "type": "function"
    },
    {
      "inputs": [],
      "name": "N",
      "outputs": [
        {
          "internalType": "uint256",
          "name": "",
          "type": "uint256"
        }
      ],
      "stateMutability": "view",
      "type": "function"
    },
    {
      "inputs": [],
      "name": "P",
      "outputs": [
        {
          "internalType": "uint256",
          "name": "",
          "type": "uint256"
        }
      ],
      "stateMutability": "view",
      "type": "function"
    },
    {
      "inputs": [
        {
          "internalType": "uint256",
          "name": "",
          "type": "uint256"
        }
      ],
      "name": "authorities",
      "outputs": [
        {
          "components": [
            {
              "internalType": "uint256",
              "name": "x",
              "type": "uint256"
            },
            {
              "internalType": "uint256",
              "name": "y",
              "type": "uint256"
            }
          ],
          "internalType": "struct Ecc.EcPoint",
          "name": "publicKey",
          "type": "tuple"
        },
        {
          "components": [
            {
              "internalType": "uint256",
              "name": "c",
              "type": "uint256"
            },
            {
              "internalType": "uint256",
              "name": "d",
              "type": "uint256"
            }
          ],
          "internalType": "struct Zkp.KeyOwnershipProof",
          "name": "proof",
          "type": "tuple"
        }
      ],
      "stateMutability": "view",
      "type": "function"
    },
    {
      "inputs": [
        {
          "internalType": "uint256",
          "name": "",
          "type": "uint256"
        }
      ],
      "name": "ballots",
      "outputs": [
        {
          "components": [
            {
              "components": [
                {
                  "internalType": "uint256",
                  "name": "x",
                  "type": "uint256"
                },
                {
                  "internalType": "uint256",
                  "name": "y",
                  "type": "uint256"
                }
              ],
              "internalType": "struct Ecc.EcPoint",
              "name": "A_",
              "type": "tuple"
            },
            {
              "components": [
                {
                  "internalType": "uint256",
                  "name": "x",
                  "type": "uint256"
                },
                {
                  "internalType": "uint256",
                  "name": "y",
                  "type": "uint256"
                }
              ],
              "internalType": "struct Ecc.EcPoint",
              "name": "B_",
              "type": "tuple"
            },
            {
              "internalType": "uint256",
              "name": "c",
              "type": "uint256"
            },
            {
              "internalType": "uint256",
              "name": "R__",
              "type": "uint256"
            }
          ],
          "internalType": "struct Zkp.SingleVoteSumProof",
          "name": "singleVoteSumProof",
          "type": "tuple"
        }
      ],
      "stateMutability": "view",
      "type": "function"
    },
    {
      "inputs": [
        {
          "internalType": "uint256",
          "name": "",
          "type": "uint256"
        }
      ],
      "name": "candidates",
      "outputs": [
        {
          "internalType": "string",
          "name": "",
          "type": "string"
        }
      ],
      "stateMutability": "view",
      "type": "function"
    },
    {
      "inputs": [],
      "name": "electionPublicKey",
      "outputs": [
        {
          "internalType": "uint256",
          "name": "x",
          "type": "uint256"
        },
        {
          "internalType": "uint256",
          "name": "y",
          "type": "uint256"
        }
      ],
      "stateMutability": "view",
      "type": "function"
    },
    {
      "inputs": [
        {
          "internalType": "uint256",
          "name": "v",
          "type": "uint256"
        }
      ],
      "name": "encodeVote",
      "outputs": [
        {
          "components": [
            {
              "internalType": "uint256",
              "name": "x",
              "type": "uint256"
            },
            {
              "internalType": "uint256",
              "name": "y",
              "type": "uint256"
            }
          ],
          "internalType": "struct Ecc.EcPoint",
          "name": "",
          "type": "tuple"
        }
      ],
      "stateMutability": "view",
      "type": "function"
    },
    {
      "inputs": [],
      "name": "getAuthorities",
      "outputs": [
        {
          "components": [
            {
              "components": [
                {
                  "internalType": "uint256",
                  "name": "x",
                  "type": "uint256"
                },
                {
                  "internalType": "uint256",
                  "name": "y",
                  "type": "uint256"
                }
              ],
              "internalType": "struct Ecc.EcPoint",
              "name": "publicKey",
              "type": "tuple"
            },
            {
              "components": [
                {
                  "internalType": "uint256",
                  "name": "c",
                  "type": "uint256"
                },
                {
                  "internalType": "uint256",
                  "name": "d",
                  "type": "uint256"
                }
              ],
              "internalType": "struct Zkp.KeyOwnershipProof",
              "name": "proof",
              "type": "tuple"
            }
          ],
          "internalType": "struct Election.Authority[]",
          "name": "",
          "type": "tuple[]"
        }
      ],
      "stateMutability": "view",
      "type": "function"
    },
    {
      "inputs": [
        {
          "internalType": "uint256",
          "name": "page",
          "type": "uint256"
        }
      ],
      "name": "getBallots",
      "outputs": [
        {
          "components": [
            {
              "components": [
                {
                  "components": [
                    {
                      "components": [
                        {
                          "components": [
                            {
                              "internalType": "uint256",
                              "name": "x",
                              "type": "uint256"
                            },
                            {
                              "internalType": "uint256",
                              "name": "y",
                              "type": "uint256"
                            }
                          ],
                          "internalType": "struct Ecc.EcPoint",
                          "name": "a",
                          "type": "tuple"
                        },
                        {
                          "components": [
                            {
                              "internalType": "uint256",
                              "name": "x",
                              "type": "uint256"
                            },
                            {
                              "internalType": "uint256",
                              "name": "y",
                              "type": "uint256"
                            }
                          ],
                          "internalType": "struct Ecc.EcPoint",
                          "name": "b",
                          "type": "tuple"
                        }
                      ],
                      "internalType": "struct Ecc.ECElGamalCiphertext",
                      "name": "ciphertext",
                      "type": "tuple"
                    },
                    {
                      "components": [
                        {
                          "components": [
                            {
                              "internalType": "uint256",
                              "name": "x",
                              "type": "uint256"
                            },
                            {
                              "internalType": "uint256",
                              "name": "y",
                              "type": "uint256"
                            }
                          ],
                          "internalType": "struct Ecc.EcPoint",
                          "name": "a0_",
                          "type": "tuple"
                        },
                        {
                          "components": [
                            {
                              "internalType": "uint256",
                              "name": "x",
                              "type": "uint256"
                            },
                            {
                              "internalType": "uint256",
                              "name": "y",
                              "type": "uint256"
                            }
                          ],
                          "internalType": "struct Ecc.EcPoint",
                          "name": "a1_",
                          "type": "tuple"
                        },
                        {
                          "components": [
                            {
                              "internalType": "uint256",
                              "name": "x",
                              "type": "uint256"
                            },
                            {
                              "internalType": "uint256",
                              "name": "y",
                              "type": "uint256"
                            }
                          ],
                          "internalType": "struct Ecc.EcPoint",
                          "name": "b0_",
                          "type": "tuple"
                        },
                        {
                          "components": [
                            {
                              "internalType": "uint256",
                              "name": "x",
                              "type": "uint256"
                            },
                            {
                              "internalType": "uint256",
                              "name": "y",
                              "type": "uint256"
                            }
                          ],
                          "internalType": "struct Ecc.EcPoint",
                          "name": "b1_",
                          "type": "tuple"
                        },
                        {
                          "internalType": "uint256",
                          "name": "c0",
                          "type": "uint256"
                        },
                        {
                          "internalType": "uint256",
                          "name": "c1",
                          "type": "uint256"
                        },
                        {
                          "internalType": "uint256",
                          "name": "r0__",
                          "type": "uint256"
                        },
                        {
                          "internalType": "uint256",
                          "name": "r1__",
                          "type": "uint256"
                        }
                      ],
                      "internalType": "struct Zkp.WellFormedVoteProof",
                      "name": "wellFormedVoteProof",
                      "type": "tuple"
                    }
                  ],
                  "internalType": "struct Election.Vote[]",
                  "name": "votes",
                  "type": "tuple[]"
                },
                {
                  "components": [
                    {
                      "components": [
                        {
                          "internalType": "uint256",
                          "name": "x",
                          "type": "uint256"
                        },
                        {
                          "internalType": "uint256",
                          "name": "y",
                          "type": "uint256"
                        }
                      ],
                      "internalType": "struct Ecc.EcPoint",
                      "name": "A_",
                      "type": "tuple"
                    },
                    {
                      "components": [
                        {
                          "internalType": "uint256",
                          "name": "x",
                          "type": "uint256"
                        },
                        {
                          "internalType": "uint256",
                          "name": "y",
                          "type": "uint256"
                        }
                      ],
                      "internalType": "struct Ecc.EcPoint",
                      "name": "B_",
                      "type": "tuple"
                    },
                    {
                      "internalType": "uint256",
                      "name": "c",
                      "type": "uint256"
                    },
                    {
                      "internalType": "uint256",
                      "name": "R__",
                      "type": "uint256"
                    }
                  ],
                  "internalType": "struct Zkp.SingleVoteSumProof",
                  "name": "singleVoteSumProof",
                  "type": "tuple"
                }
              ],
              "internalType": "struct Election.Ballot[]",
              "name": "ballots",
              "type": "tuple[]"
            },
            {
              "internalType": "uint256",
              "name": "totalPage",
              "type": "uint256"
            }
          ],
          "internalType": "struct Election.PaginatedBallot",
          "name": "",
          "type": "tuple"
        }
      ],
      "stateMutability": "view",
      "type": "function"
    },
    {
      "inputs": [],
      "name": "getCandidates",
      "outputs": [
        {
          "internalType": "string[]",
          "name": "",
          "type": "string[]"
        }
      ],
      "stateMutability": "view",
      "type": "function"
    },
    {
      "inputs": [],
      "name": "getECCParams",
      "outputs": [
        {
          "components": [
            {
              "internalType": "uint256",
              "name": "gx",
              "type": "uint256"
            },
            {
              "internalType": "uint256",
              "name": "gy",
              "type": "uint256"
            },
            {
              "internalType": "uint256",
              "name": "a",
              "type": "uint256"
            },
            {
              "internalType": "uint256",
              "name": "b",
              "type": "uint256"
            },
            {
              "internalType": "uint256",
              "name": "p",
              "type": "uint256"
            },
            {
              "internalType": "uint256",
              "name": "n",
              "type": "uint256"
            }
          ],
          "internalType": "struct Ecc.EccParams",
          "name": "",
          "type": "tuple"
        }
      ],
      "stateMutability": "pure",
      "type": "function"
    },
    {
      "inputs": [
        {
          "components": [
            {
              "internalType": "uint256",
              "name": "x",
              "type": "uint256"
            },
            {
              "internalType": "uint256",
              "name": "y",
              "type": "uint256"
            }
          ],
          "internalType": "struct Ecc.EcPoint[]",
          "name": "points",
          "type": "tuple[]"
        }
      ],
      "name": "hashMultiplePointsToScalar",
      "outputs": [
        {
          "internalType": "uint256",
          "name": "",
          "type": "uint256"
        }
      ],
      "stateMutability": "pure",
      "type": "function"
    },
    {
      "inputs": [
        {
          "internalType": "uint256",
          "name": "x",
          "type": "uint256"
        },
        {
          "internalType": "uint256",
          "name": "y",
          "type": "uint256"
        }
      ],
      "name": "newEcPoint",
      "outputs": [
        {
          "components": [
            {
              "internalType": "uint256",
              "name": "x",
              "type": "uint256"
            },
            {
              "internalType": "uint256",
              "name": "y",
              "type": "uint256"
            }
          ],
          "internalType": "struct Ecc.EcPoint",
          "name": "",
          "type": "tuple"
        }
      ],
      "stateMutability": "pure",
      "type": "function"
    },
    {
      "inputs": [],
      "name": "status",
      "outputs": [
        {
          "internalType": "enum Election.ElectionStatus",
          "name": "",
          "type": "uint8"
        }
      ],
      "stateMutability": "view",
      "type": "function"
    },
    {
      "inputs": [
        {
          "components": [
            {
              "components": [
                {
                  "components": [
                    {
                      "components": [
                        {
                          "internalType": "uint256",
                          "name": "x",
                          "type": "uint256"
                        },
                        {
                          "internalType": "uint256",
                          "name": "y",
                          "type": "uint256"
                        }
                      ],
                      "internalType": "struct Ecc.EcPoint",
                      "name": "a",
                      "type": "tuple"
                    },
                    {
                      "components": [
                        {
                          "internalType": "uint256",
                          "name": "x",
                          "type": "uint256"
                        },
                        {
                          "internalType": "uint256",
                          "name": "y",
                          "type": "uint256"
                        }
                      ],
                      "internalType": "struct Ecc.EcPoint",
                      "name": "b",
                      "type": "tuple"
                    }
                  ],
                  "internalType": "struct Ecc.ECElGamalCiphertext",
                  "name": "ciphertext",
                  "type": "tuple"
                },
                {
                  "components": [
                    {
                      "components": [
                        {
                          "internalType": "uint256",
                          "name": "x",
                          "type": "uint256"
                        },
                        {
                          "internalType": "uint256",
                          "name": "y",
                          "type": "uint256"
                        }
                      ],
                      "internalType": "struct Ecc.EcPoint",
                      "name": "a0_",
                      "type": "tuple"
                    },
                    {
                      "components": [
                        {
                          "internalType": "uint256",
                          "name": "x",
                          "type": "uint256"
                        },
                        {
                          "internalType": "uint256",
                          "name": "y",
                          "type": "uint256"
                        }
                      ],
                      "internalType": "struct Ecc.EcPoint",
                      "name": "a1_",
                      "type": "tuple"
                    },
                    {
                      "components": [
                        {
                          "internalType": "uint256",
                          "name": "x",
                          "type": "uint256"
                        },
                        {
                          "internalType": "uint256",
                          "name": "y",
                          "type": "uint256"
                        }
                      ],
                      "internalType": "struct Ecc.EcPoint",
                      "name": "b0_",
                      "type": "tuple"
                    },
                    {
                      "components": [
                        {
                          "internalType": "uint256",
                          "name": "x",
                          "type": "uint256"
                        },
                        {
                          "internalType": "uint256",
                          "name": "y",
                          "type": "uint256"
                        }
                      ],
                      "internalType": "struct Ecc.EcPoint",
                      "name": "b1_",
                      "type": "tuple"
                    },
                    {
                      "internalType": "uint256",
                      "name": "c0",
                      "type": "uint256"
                    },
                    {
                      "internalType": "uint256",
                      "name": "c1",
                      "type": "uint256"
                    },
                    {
                      "internalType": "uint256",
                      "name": "r0__",
                      "type": "uint256"
                    },
                    {
                      "internalType": "uint256",
                      "name": "r1__",
                      "type": "uint256"
                    }
                  ],
                  "internalType": "struct Zkp.WellFormedVoteProof",
                  "name": "wellFormedVoteProof",
                  "type": "tuple"
                }
              ],
              "internalType": "struct Election.Vote[]",
              "name": "votes",
              "type": "tuple[]"
            },
            {
              "components": [
                {
                  "components": [
                    {
                      "internalType": "uint256",
                      "name": "x",
                      "type": "uint256"
                    },
                    {
                      "internalType": "uint256",
                      "name": "y",
                      "type": "uint256"
                    }
                  ],
                  "internalType": "struct Ecc.EcPoint",
                  "name": "A_",
                  "type": "tuple"
                },
                {
                  "components": [
                    {
                      "internalType": "uint256",
                      "name": "x",
                      "type": "uint256"
                    },
                    {
                      "internalType": "uint256",
                      "name": "y",
                      "type": "uint256"
                    }
                  ],
                  "internalType": "struct Ecc.EcPoint",
                  "name": "B_",
                  "type": "tuple"
                },
                {
                  "internalType": "uint256",
                  "name": "c",
                  "type": "uint256"
                },
                {
                  "internalType": "uint256",
                  "name": "R__",
                  "type": "uint256"
                }
              ],
              "internalType": "struct Zkp.SingleVoteSumProof",
              "name": "singleVoteSumProof",
              "type": "tuple"
            }
          ],
          "internalType": "struct Election.Ballot",
          "name": "_ballot",
          "type": "tuple"
        }
      ],
      "name": "submitBallot",
      "outputs": [],
      "stateMutability": "payable",
      "type": "function"
    }
  ],
  "bytecode": "0x6080604052346100305761001a6100146103e0565b90611173565b610022610035565b6153096131b4823961530990f35b61003b565b60405190565b600080fd5b601f801991011690565b634e487b7160e01b600052604160045260246000fd5b9061006a90610040565b810190811060018060401b0382111761008257604052565b61004a565b9061009a610093610035565b9283610060565b565b600080fd5b600080fd5b600080fd5b60018060401b0381116100c15760208091020190565b61004a565b600080fd5b600080fd5b90565b6100dc816100d0565b036100e357565b600080fd5b905051906100f5826100d3565b565b91906040838203126101335761012c906101116040610087565b9361011f82600083016100e8565b60008601526020016100e8565b6020830152565b6100cb565b91906040838203126101745761016d906101526040610087565b9361016082600083016100e8565b60008601526020016100e8565b6020830152565b6100cb565b91906080838203126101b5576101ae906101936040610087565b936101a182600083016100f7565b6000860152604001610138565b6020830152565b6100cb565b909291926101cf6101ca826100ab565b610087565b93818552608060208601920283019281841161020e57915b8383106101f45750505050565b60206080916102038486610179565b8152019201916101e7565b6100c6565b9080601f830112156102315781602061022e935191016101ba565b90565b6100a6565b60018060401b03811161024c5760208091020190565b61004a565b600080fd5b60018060401b0381116102725761026e602091610040565b0190565b61004a565b60005b83811061028b575050906000910152565b80602091830151818501520161027a565b909291926102b16102ac82610256565b610087565b938185526020850190828401116102cd576102cb92610277565b565b610251565b9080601f830112156102f0578160206102ed9351910161029c565b90565b6100a6565b92919061030961030482610236565b610087565b938185526020808601920281019183831161035e5781905b83821061032f575050505050565b815160018060401b0381116103595760209161034e87849387016102d2565b815201910190610321565b6100a6565b6100c6565b9080601f830112156103815781602061037e935191016102f5565b90565b6100a6565b9190916040818403126103db57600081015160018060401b0381116103d657836103b1918301610213565b92602082015160018060401b0381116103d1576103ce9201610363565b90565b6100a1565b6100a1565b61009c565b6103fe6184bd803803806103f381610087565b928339810190610386565b9091565b60001b90565b9061041460ff91610402565b9181191691161790565b634e487b7160e01b600052602160045260246000fd5b6004111561043e57565b61041e565b9061044d82610434565b565b61045890610443565b90565b90565b9061047361046e61047a9261044f565b61045b565b8254610408565b9055565b60001c90565b60ff1690565b61049661049b9161047e565b610484565b90565b6104a8905461048a565b90565b60209181520190565b60007f456c656374696f6e20616c726561647920737461727465640000000000000000910152565b6104e960186020926104ab565b6104f2816104b4565b0190565b61050c90602081019060008183039101526104dc565b90565b1561051657565b61051e610035565b62461bcd60e51b815280610534600482016104f6565b0390fd5b5190565b90565b90565b61055661055161055b9261053c565b61053f565b6100d0565b90565b60207f6972656400000000000000000000000000000000000000000000000000000000917f4174206c656173742074776f2063616e6469646174657320617265207265717560008201520152565b6105b960246040926104ab565b6105c28161055e565b0190565b6105dc90602081019060008183039101526105ac565b90565b156105e657565b6105ee610035565b62461bcd60e51b815280610604600482016105c6565b0390fd5b5190565b90565b61062361061e6106289261060c565b61053f565b6100d0565b90565b60207f6564000000000000000000000000000000000000000000000000000000000000917f4174206c65617374206f6e6520617574686f726974792069732072657175697260008201520152565b61068660226040926104ab565b61068f8161062b565b0190565b6106a99060208101906000818303910152610679565b90565b156106b357565b6106bb610035565b62461bcd60e51b8152806106d160048201610693565b0390fd5b60016106e191016100d0565b90565b634e487b7160e01b600052601160045260246000fd5b61070961070f919392936100d0565b926100d0565b820180921161071a57565b6106e4565b634e487b7160e01b600052603260045260246000fd5b9061073f82610608565b811015610750576020809102010190565b61071f565b61075f90516100d0565b90565b60007f4475706c696361746520617574686f72697479207075626c6963206b65790000910152565b610797601e6020926104ab565b6107a081610762565b0190565b6107ba906020810190600081830391015261078a565b90565b156107c457565b6107cc610035565b62461bcd60e51b8152806107e2600482016107a4565b0390fd5b60007f4475706c696361746520617574686f726974792070726f6f6600000000000000910152565b61081b60196020926104ab565b610824816107e6565b0190565b61083e906020810190600081830391015261080e565b90565b1561084857565b610850610035565b62461bcd60e51b81528061086660048201610828565b0390fd5b60007f496e76616c6964207075626c6963206b65790000000000000000000000000000910152565b61089f60126020926104ab565b6108a88161086a565b0190565b6108c29060208101906000818303910152610892565b90565b156108cc57565b6108d4610035565b62461bcd60e51b8152806108ea600482016108ac565b0390fd5b60007f496e76616c6964206b65792070726f6f66000000000000000000000000000000910152565b61092360116020926104ab565b61092c816108ee565b0190565b6109469060208101906000818303910152610916565b90565b1561095057565b610958610035565b62461bcd60e51b81528061096e60048201610930565b0390fd5b90565b600052602060002090565b5490565b61098d81610980565b8210156109a85761099f600491610975565b91020190600090565b61071f565b634e487b7160e01b600052600060045260246000fd5b5190565b906109d460001991610402565b9181191691161790565b6109f26109ed6109f7926100d0565b61053f565b6100d0565b90565b90565b90610a12610a0d610a19926109de565b6109fa565b82546109c7565b9055565b90610a4a60206001610a5094610a4260008201610a3c60008801610755565b906109fd565b019201610755565b906109fd565b565b90610a5c91610a1d565b565b5190565b90610a8f60206001610a9594610a8760008201610a8160008801610755565b906109fd565b019201610755565b906109fd565b565b90610aa191610a62565b565b90610ad060206002610ad694610ac860008201610ac2600088016109c3565b90610a52565b019201610a5e565b90610a97565b565b9190610ae957610ae791610aa3565b565b6109ad565b1b90565b9081549168010000000000000000831015610b225782610b1a916001610b2095018155610984565b90610ad8565b565b61004a565b5490565b600052602060002090565b610b3f81610b27565b821015610b5a57610b51600491610b2b565b91020190600090565b61071f565b90565b610b6e610b739161047e565b610b5f565b90565b610b809054610b62565b90565b90808203610b90575b5050565b610bbb60018084610bb36000610bc19701610bad60008801610b76565b906109fd565b019201610b76565b906109fd565b3880610b8c565b90610bd291610b83565b565b90610bde906100d0565b9052565b610bec6040610087565b90565b90610c28610c1f6001610c00610be2565b94610c19610c1060008301610b76565b60008801610bd4565b01610b76565b60208401610bd4565b565b610c3390610bef565b90565b60200190565b5490565b610c4f610c55919392936100d0565b926100d0565b91610c618382026100d0565b928184041490151715610c7057565b6106e4565b600190818003010490565b600052602060002090565b634e487b7160e01b600052602260045260246000fd5b9060016002830492168015610cc1575b6020831014610cbc57565b610c8b565b91607f1691610cb1565b600052602060002090565b1c90565b90610cee9060001990602003600802610cd6565b8154169055565b91906008610d11910291610d0b60001984610aee565b92610aee565b9181191691161790565b9190610d31610d2c610d39936109de565b6109fa565b908354610cf5565b9055565b600090565b610d5491610d4e610d3d565b91610d1b565b565b5b818110610d62575050565b80610d706000600193610d42565b01610d57565b90610d879060001990600802610cd6565b191690565b81610d9691610d76565b906002021790565b90600091610db6610dae82610ccb565b928354610d8c565b905555565b601f602091010490565b91929060208210600014610e1f57601f8411600114610def57610de9929350610d8c565b90555b5b565b5090610e15610e1a936001610e0c610e0685610ccb565b92610dbb565b82019101610d56565b610d9e565b610dec565b50610e568293610e30600194610ccb565b610e4f610e3c85610dbb565b820192601f861680610e61575b50610dbb565b0190610d56565b600202179055610ded565b610e6d90888603610cda565b38610e49565b929091680100000000000000008211610ed557602011600014610ec65760208110600014610eaa57610ea491610d8c565b90555b5b565b60019160ff1916610eba84610ccb565b55600202019055610ea7565b60019150600202019055610ea8565b61004a565b908154610ee681610ca1565b90818311610f0f575b818310610efd575b50505050565b610f0693610dc5565b38808080610ef7565b610f1b83838387610e73565b610eef565b6000610f2b91610eda565b565b90600003610f4057610f3e90610f20565b565b6109ad565b5b818110610f51575050565b80610f5f6000600193610f2d565b01610f46565b9091828110610f74575b505050565b610f92610f8c610f86610f9d95610c75565b92610c75565b92610c80565b918201910190610f45565b388080610f6f565b90680100000000000000008111610fce5781610fc3610fcc93610c3c565b90828155610f65565b565b61004a565b5190565b5190565b9190601f8111610feb575b505050565b610ff761101c93610ccb565b90602061100384610dbb565b83019310611024575b61101590610dbb565b0190610d56565b388080610fe6565b91506110158192905061100c565b9061103c81610fd7565b9060018060401b0382116110fc5761105e826110588554610ca1565b85610fdb565b602090601f83116001146110935791809161108293600092611087575b5050610d8c565b90555b565b9091500151388061107b565b601f198316916110a285610ccb565b9260005b8181106110e4575091600293918560019694106110ca575b50505002019055611085565b6110da910151601f841690610d76565b90553880806110be565b919360206001819287870151815501950192016110a6565b61004a565b9061110b91611032565b565b61113261112c61111c84610538565b936111278585610fa5565b610c36565b91610c80565b6000915b8383106111435750505050565b600160208261115b6111558495610fd3565b86611101565b01920192019190611136565b906111719161110d565b565b9061117c611580565b6111886000600361045e565b6111ae611195600361049e565b6111a86111a26000610443565b91610443565b1461050f565b6111d36111ba82610538565b6111cd6111c76001610542565b916100d0565b116105df565b6111f86111df83610608565b6111f26111ec600061060f565b916100d0565b116106ac565b611202600061060f565b925b8361121f61121961121486610608565b6100d0565b916100d0565b10156113d057611239846112336001610542565b906106fa565b5b8061125561124f61124a87610608565b6100d0565b916100d0565b10156113bf5761131490611279600080611270888a90610735565b51015101610755565b6112a461129e6112996000806112908b8890610735565b51015101610755565b6100d0565b916100d0565b1415801561136b575b6112b6906107bd565b6112d1600060206112c8888a90610735565b51015101610755565b6112fd6112f76112f2600060206112e98b8890610735565b51015101610755565b6100d0565b916100d0565b14158015611319575b61130f90610841565b6106d5565b61123a565b5061130f61133760208061132e898b90610735565b51015101610755565b61136261135c61135760208061134e8c8990610735565b51015101610755565b6100d0565b916100d0565b14159050611306565b506112b661138a60206000611381898b90610735565b51015101610755565b6113b66113b06113ab602060006113a28c8990610735565b51015101610755565b6100d0565b916100d0565b141590506112ad565b50926113ca906106d5565b92611204565b909192506113de600061060f565b5b806113fa6113f46113ef87610608565b6100d0565b916100d0565b10156114d7576114979061141e600080611415888590610735565b51015101610755565b61143161142b600061060f565b916100d0565b14158061149c575b611442906108c5565b61147361146e6000611455888590610735565b5101516020611465898690610735565b5101519061176f565b610949565b6114926114806004610972565b61148b878490610735565b5190610af2565b6106d5565b6113df565b506114426114bb602060006114b2898690610735565b51015101610755565b6114ce6114c8600061060f565b916100d0565b14159050611439565b5091506114f460006114eb60048290610b36565b50016006610bc8565b6114fe6001610542565b5b8061151b6115156115106004610b27565b6100d0565b916100d0565b1015611566576115619061155c611555600661154f611549600061154160048890610b36565b500192610c2a565b91610c2a565b90611899565b6006610a52565b6106d5565b6114ff565b50611572906002611167565b61157e6001600361045e565b565b61158861158a565b565b611592611637565b565b90565b6115ab6115a66115b092611594565b61053f565b6100d0565b90565b6115dc7f79be667ef9dcbbac55a06295ce870b07029bfcdb2dce28d959f2815b16f81798611597565b90565b90565b6115f66115f16115fb926115df565b61053f565b6100d0565b90565b6116277f483ada7726a3c4655da4fbfc0e1108a8fd17b448a68554199c47d08ffb10d4b86115e2565b90565b6116346040610087565b90565b6116726116426115b3565b61166b61164d6115fe565b61166261165861162a565b9360008501610bd4565b60208301610bd4565b6000610a52565b565b600090565b90565b61169061168b61169592611679565b61053f565b6100d0565b90565b60018060401b0381116116ae5760208091020190565b61004a565b906116c56116c083611698565b610087565b918252565b600090565b6116d7610be2565b90602080836116e46116ca565b8152016116ef6116ca565b81525050565b6116fd6116cf565b90565b60005b82811061170f57505050565b60209061171a6116f5565b8184015201611703565b90611749611731836116b3565b9260208061173f8693611698565b9201910390611700565b565b5190565b906117598261174b565b81101561176a576020809102010190565b61071f565b9061183d611838611832600061184394611787611674565b5061182a6117c76117ac61179d60208501610755565b6117a686610c2a565b90611a0f565b6117c16117ba868601610755565b8b90611a0f565b90611a59565b6118026117dc6117d7600261167c565b611724565b996117fc8b9187906117f66117f08361060f565b8561174f565b5261060f565b9061174f565b5150611824899160019061181e61181883610542565b8561174f565b52610542565b9061174f565b515001610755565b93611bec565b6100d0565b916100d0565b1490565b61184f6116cf565b90565b90565b61186961186461186e92611852565b61053f565b6100d0565b90565b6118806401000003d019611855565b90565b634e487b7160e01b600052601260045260246000fd5b906118a2611847565b506118ad600061060f565b506118b8600061060f565b506118c3600061060f565b506118d060008301610755565b6118ed6118e76118e260008501610755565b6100d0565b916100d0565b146000146119b25761190c6020611905818501610755565b9201610755565b611914611871565b9182156119ad570861192f611929600061060f565b916100d0565b146000146119705750600061196d611964600061195f61195661195061162a565b9561060f565b60008601610bd4565b61060f565b60208301610bd4565b90565b61199f8161198f602061198860006119aa9601610755565b9201610755565b6119996001610542565b91612684565b90915b9190916128e3565b90565b611883565b81611a08916119d260206119cb60006119aa9701610755565b9301610755565b9060016119ed60206119e660008501610755565b9301610755565b92611a026119fc600193610542565b92610542565b94611e5d565b90916119a2565b611a5691611a4a91611a1f611847565b5090611a396020611a3260008401610755565b9201610755565b90611a446001610542565b9261299a565b919091909190916128e3565b90565b611a6e611a7492611a68611847565b50612acd565b90611899565b90565b60007f4e6f20706f696e74732070726f76696465640000000000000000000000000000910152565b611aac60126020926104ab565b611ab581611a77565b0190565b611acf9060208101906000818303910152611a9f565b90565b15611ad957565b611ae1610035565b62461bcd60e51b815280611af760048201611ab9565b0390fd5b905090565b611b25611b1c92602092611b1381610fd7565b94858093611afb565b93849101610277565b0190565b60007f2c00000000000000000000000000000000000000000000000000000000000000910152565b611b5d60018092611afb565b611b6681611b29565b0190565b611b7b611b8091611b869493611b00565b611b51565b90611b00565b90565b5190565b905090565b611bb7611bae92602092611ba581611b89565b94858093611b8d565b93849101610277565b0190565b611bc491611b92565b90565b611bcf610035565b3d6000823e3d90fd5b611be4611be99161047e565b6109de565b90565b90611bf5610d3d565b50611c1b611c028361174b565b611c15611c0f600061060f565b916100d0565b11611ad2565b611c2f82611c29600061060f565b9061174f565b51611c3a6001610542565b905b81611c57611c51611c4c8761174b565b6100d0565b916100d0565b1015611c8257611c76611c7c91611c6f86859061174f565b5190611899565b916106d5565b90611c3c565b602092935060009150611cee90611cdd611cb8611cb386611cac611ca7888701610755565b612bdb565b9401610755565b612bdb565b91611ccf611cc4610035565b938492888401611b6a565b868201810382520382610060565b611ce5610035565b91829182611bbb565b039060025afa15611d0f57611d0c611d07600051610402565b611bd8565b90565b611bc7565b60018060401b038111611d275760200290565b61004a565b611d38611d3d91611d14565b610087565b90565b369037565b90611d63611d5283611d2c565b92611d5d8491611d14565b90611d40565b565b611d6f6004611d45565b90565b50600490565b90611d8282611d72565b811015611d90576020020190565b61071f565b90565b611dac611da7611db192611d95565b61053f565b6100d0565b90565b60007f557365206a6163446f75626c652066756e6374696f6e20696e73746561640000910152565b611de9601e6020926104ab565b611df281611db4565b0190565b611e0c9060208101906000818303910152611ddc565b90565b15611e1657565b611e1e610035565b62461bcd60e51b815280611e3460048201611df6565b0390fd5b611e47611e4d919392936100d0565b926100d0565b8203918211611e5857565b6106e4565b929593909195611e6b610d3d565b50611e74610d3d565b50611e7d610d3d565b5083611e92611e8c600061060f565b916100d0565b148061261e575b6126105780611eb1611eab600061060f565b916100d0565b14806125f5575b6125e957611ec4611d65565b928788611ecf611871565b9081156125e457611ef49209611eef86611ee9600061060f565b90611d78565b610bd4565b87611f11611f0c86611f06600061060f565b90611d78565b610755565b611f19611871565b9081156125df57611f3e9209611f3986611f336001610542565b90611d78565b610bd4565b8687611f48611871565b9081156125da57611f6d9209611f6886611f62600261167c565b90611d78565b610bd4565b86611f8a611f8586611f7f600261167c565b90611d78565b610755565b611f92611871565b9081156125d557611fb79209611fb286611fac6003611d98565b90611d78565b610bd4565b611fc16004611d2c565b94611fde611fd986611fd3600261167c565b90611d78565b610755565b611fe6611871565b9081156125d057611ffb920960008701610bd4565b6120176120128561200c6003611d98565b90611d78565b610755565b61201f611871565b9081156125cb57612034920960208601610bd4565b9061205161204c84612046600061060f565b90611d78565b610755565b9061205a611871565b9283156125c65761208d9361208893612077920960408701610bd4565b926120826001610542565b90611d78565b610755565b612095611871565b9081156125c1576120aa920960608301610bd4565b926120c76120c2856120bc600061060f565b90611d78565b610755565b6120f46120ee6120e96120e4886120de600261167c565b90611d78565b610755565b6100d0565b916100d0565b1415801561256b575b61210690611e0f565b61210e611d65565b9261212b61212686612120600261167c565b90611d78565b610755565b612158612136611871565b61215261214d89612147600061060f565b90611d78565b610755565b90611e38565b612160611871565b9081156125665761218592086121808661217a600061060f565b90611d78565b610bd4565b6121a161219c866121966003611d98565b90611d78565b610755565b6121ce6121ac611871565b6121c86121c3896121bd6001610542565b90611d78565b610755565b90611e38565b6121d6611871565b908115612561576121fb92086121f6866121f06001610542565b90611d78565b610bd4565b6122176122128561220c600061060f565b90611d78565b610755565b61223361222e86612228600061060f565b90611d78565b610755565b61223b611871565b90811561255c57612260920961225b86612255600261167c565b90611d78565b610bd4565b61227c61227785612271600261167c565b90611d78565b610755565b6122986122938661228d600061060f565b90611d78565b610755565b6122a0611871565b908115612557576122c592096122c0866122ba6003611d98565b90611d78565b610bd4565b6122e16122dc856122d66001610542565b90611d78565b610755565b6122fd6122f8866122f26001610542565b90611d78565b610755565b612305611871565b918215612552570961233a612318611871565b61233461232f886123296003611d98565b90611d78565b610755565b90611e38565b612342611871565b91821561254d5708612352611871565b60029061237161236c89612366600061060f565b90611d78565b610755565b61238d61238889612382600261167c565b90611d78565b610755565b612395611871565b91821561254857096123a5611871565b908115612543576123b86123bf9461167c565b0990611e38565b6123c7611871565b91821561253e5708946123ec6123e7866123e16001610542565b90611d78565b610755565b612408612403836123fd600061060f565b90611d78565b610755565b61242461241f88612419600261167c565b90611d78565b610755565b61242c611871565b918215612539570961244661243f611871565b8990611e38565b61244e611871565b918215612534570861245e611871565b91821561252f57099061248b612486612475611871565b926124806001610542565b90611d78565b610755565b906124a86124a38861249d6003611d98565b90611d78565b610755565b6124b0611871565b90811561252a576124c2930990611e38565b906124cb611871565b8015612525576124f0926124eb9208956124e5600061060f565b90611d78565b610755565b91906124fa611871565b918215612520570961250a611871565b91821561251b570992919291929190565b611883565b611883565b611883565b611883565b611883565b611883565b611883565b611883565b611883565b611883565b611883565b611883565b611883565b611883565b611883565b611883565b5061210661258b612586866125806001610542565b90611d78565b610755565b6125b86125b26125ad6125a8896125a26003611d98565b90611d78565b610755565b6100d0565b916100d0565b141590506120fd565b611883565b611883565b611883565b611883565b611883565b611883565b611883565b611883565b50509250919291929190565b508161260a612604600061060f565b916100d0565b14611eb8565b925093945050919291929190565b508261263361262d600061060f565b916100d0565b14611e99565b90565b61265061264b61265592612639565b61053f565b6100d0565b90565b612662600061060f565b90565b90565b61267c61267761268192612665565b61053f565b6100d0565b90565b929061268e610d3d565b50612697610d3d565b506126a0610d3d565b50826126b56126af600061060f565b916100d0565b146128d95783846126c4611871565b9182156128d457099381826126d7611871565b9182156128cf57099084856126ea611871565b9182156128ca570990600490836126ff611871565b9182156128c5570961270f611871565b9182156128c05761271f9061263c565b099560039061272c611871565b9182156128bb5761273c90611d98565b0990612746612658565b9080612750611871565b9182156128b65709612760611871565b9182156128b15709612770611871565b9182156128ac5708948586612783611871565b9182156128a75709612793611871565b82908361279e611871565b9081156128a2576127b0930890611e38565b6127b8611871565b91821561289d570895906127d46127cd611871565b8890611e38565b6127dc611871565b91821561289857086127ec611871565b9182156128935709906127fd611871565b60089180612809611871565b91821561288e5709612819611871565b9081156128895761282c61283394612668565b0990611e38565b61283b611871565b91821561288457089260029190612850611871565b91821561287f5709612860611871565b91821561287a576128709061167c565b0992919291929190565b611883565b611883565b611883565b611883565b611883565b611883565b611883565b611883565b611883565b611883565b611883565b611883565b611883565b611883565b611883565b611883565b611883565b611883565b611883565b9192919291929190565b90916128f7906128f1611847565b50612d09565b908182612902611871565b91821561297357099081612914611871565b91821561296e5709929190612927611871565b9182156129695709612937611871565b90811561296457612961920961295861294e61162a565b9360008501610bd4565b60208301610bd4565b90565b611883565b611883565b611883565b611883565b61298461298a916100d0565b916100d0565b908115612995570490565b611883565b9291926129a5610d3d565b506129ae610d3d565b506129b7610d3d565b50806129cc6129c6600061060f565b916100d0565b14612a9f5793906129dd600061060f565b936129e8600061060f565b936129f36001610542565b965b80612a09612a03600061060f565b916100d0565b14612a935780612a196001610542565b16612a2d612a27600061060f565b916100d0565b03612a67575b90612a4c612a559392612a46600261167c565b90612978565b93919091612684565b959195949095929591959490946129f5565b95612a4c95612a55939298612a83929190869085928c94611e5d565b9891969096979192935050612a33565b50505050909291929190565b50929092919291929190565b612ab7612abd916100d0565b916100d0565b908115612ac8570690565b611883565b612ad5611847565b50612b32612b14612b06612aeb60008501610755565b93612b006020612af9611871565b9201610755565b90611e38565b612b0e611871565b90612aab565b612b29612b1f61162a565b9360008501610bd4565b60208301610bd4565b90565b606090565b90612b4591016100d0565b90565b90612b5a612b5583610256565b610087565b918252565b369037565b90612b89612b7183612b48565b92602080612b7f8693610256565b9201910390612b5f565b565b6001612b9791036100d0565b90565b90565b612bb1612bac612bb692612b9a565b61053f565b6100d0565b90565b612bc5612bcb916100d0565b916100d0565b908115612bd6570490565b611883565b612be3612b35565b50612c00612bf082612f51565b612bfa6001610542565b90612b3a565b90612c0a82612b64565b91612c13610d3d565b5060200182015b600115612c7e57612c2d612c5991612b8b565b916f181899199a1a9b1b9c1cb0b131b232b360811b600a82061a8353612c53600a612b9d565b90612bb9565b80612c6d612c67600061060f565b916100d0565b14612c785790612c1a565b50505b90565b5050612c7b565b60007f496e76616c6964206e756d626572000000000000000000000000000000000000910152565b612cba600e6020926104ab565b612cc381612c85565b0190565b612cdd9060208101906000818303910152612cad565b90565b15612ce757565b612cef610035565b62461bcd60e51b815280612d0560048201612cc7565b0390fd5b612d11610d3d565b5080612d26612d20600061060f565b916100d0565b141580612e18575b80612df0575b612d3d90612ce0565b612d47600061060f565b612d516001610542565b90612d5a611871565b91612d63610d3d565b505b83612d79612d73600061060f565b916100d0565b14612de957612d89838590612978565b819291612d94611871565b8291612d9e611871565b908115612de457612db0930990611e38565b91612db9611871565b8015612ddf57612dd893612dd292089395809592610c40565b90611e38565b9290612d65565b611883565b611883565b5091505090565b50612d3d612dfc611871565b612e0f612e09600061060f565b916100d0565b14159050612d34565b5080612e33612e2d612e28611871565b6100d0565b916100d0565b1415612d2e565b90565b612e51612e4c612e5692612e3a565b61053f565b6100d0565b90565b90565b612e70612e6b612e7592612e59565b61053f565b6100d0565b90565b90565b612e8f612e8a612e9492612e78565b61053f565b6100d0565b90565b90565b612eae612ea9612eb392612e97565b61053f565b6100d0565b90565b90565b612ecd612ec8612ed292612eb6565b61053f565b6100d0565b90565b90565b612eec612ee7612ef192612ed5565b61053f565b6100d0565b90565b90565b612f0b612f06612f1092612ef4565b61053f565b6100d0565b90565b90565b612f2a612f25612f2f92612f13565b61053f565b6100d0565b90565b90565b612f49612f44612f4e92612f32565b61053f565b6100d0565b90565b612f59610d3d565b50612f64600061060f565b9080612f93612f8d7a184f03e93ff9f4daa797ed6e38ed64bf6a1f010000000000000000612e3d565b916100d0565b101561316b575b80612fbb612fb56d04ee2d6d415b85acef8100000000612e7b565b916100d0565b1015613130575b80612fdc612fd6662386f26fc10000612eb9565b916100d0565b10156130fc575b80612ffa612ff46305f5e100612ef7565b916100d0565b10156130cb575b80613016613010612710612f16565b916100d0565b101561309c575b8061303161302b6064612f35565b916100d0565b101561306e575b61304b613045600a612b9d565b916100d0565b1015613055575b90565b613069906130636001610542565b90612b3a565b613052565b6130856130969161307f6064612f35565b90612bb9565b91613090600261167c565b90612b3a565b90613038565b6130b46130c5916130ae612710612f16565b90612bb9565b916130bf600461263c565b90612b3a565b9061301d565b6130e56130f6916130df6305f5e100612ef7565b90612bb9565b916130f06008612668565b90612b3a565b90613001565b61311961312a91613113662386f26fc10000612eb9565b90612bb9565b916131246010612ed8565b90612b3a565b90612fe3565b6131546131659161314e6d04ee2d6d415b85acef8100000000612e7b565b90612bb9565b9161315f6020612e9a565b90612b3a565b90612fc2565b61319c6131ad916131967a184f03e93ff9f4daa797ed6e38ed64bf6a1f010000000000000000612e3d565b90612bb9565b916131a76040612e5c565b90612b3a565b90612f9a56fe60806040526004361015610013575b61178c565b61001e60003561015d565b806303a507be1461015857806306a49fce146101535780630dd3849c1461014e578063200d2ed2146101495780632f5bb3361461014457806332e7c5bf1461013f5780633477ee2e1461013a578063477decc014610135578063494503d4146101305780635c632b381461012b5780636b7a524f146101265780636fecb623146101215780637a308a4c1461011c5780638b8fbd9214610117578063b3bf549514610112578063c21b48651461010d578063c392650514610108578063c9e525df14610103578063f446c1d0146100fe5763fb7344d00361000e57611757565b611471565b611405565b611388565b611353565b61123c565b6111c3565b611152565b6110c6565b611073565b610fba565b610e19565b610c53565b610b4f565b6108f5565b610895565b6104c2565b6103ec565b61034b565b610202565b60e01c90565b60405190565b600080fd5b600080fd5b600091031261017e57565b61016e565b90565b90565b90565b6101a061019b6101a592610183565b610189565b610186565b90565b6101d17f79be667ef9dcbbac55a06295ce870b07029bfcdb2dce28d959f2815b16f8179861018c565b90565b6101dc6101a8565b90565b6101e890610186565b9052565b9190610200906000602085019401906101df565b565b3461023257610212366004610173565b61022e61021d6101d4565b610225610163565b918291826101ec565b0390f35b610169565b5190565b60209181520190565b60200190565b5190565b60209181520190565b60005b83811061026b575050906000910152565b80602091830151818501520161025a565b601f801991011690565b6102a56102ae6020936102b39361029c8161024a565b9384809361024e565b95869101610257565b61027c565b0190565b906102c191610286565b90565b60200190565b906102de6102d783610237565b809261023b565b90816102ef60208302840194610244565b926000915b83831061030357505050505090565b9091929394602061032561031f838560019503875289516102b7565b976102c4565b93019301919392906102f4565b61034891602082019160008184039101526102ca565b90565b3461037b5761035b366004610173565b610377610366611831565b61036e610163565b91829182610332565b0390f35b610169565b60001c90565b90565b61039561039a91610380565b610386565b90565b6103a79054610389565b90565b6006906103c560016103be6000850161039d565b930161039d565b90565b9160206103ea9294936103e3604082019660008301906101df565b01906101df565b565b3461041d576103fc366004610173565b6104046103aa565b90610419610410610163565b928392836103c8565b0390f35b610169565b1c90565b60ff1690565b61043c9060086104419302610422565b610426565b90565b9061044f915461042c565b90565b61045f6003600090610444565b90565b634e487b7160e01b600052602160045260246000fd5b6004111561048257565b610462565b9061049182610478565b565b61049c90610487565b90565b6104a890610493565b9052565b91906104c09060006020850194019061049f565b565b346104f2576104d2366004610173565b6104ee6104dd610452565b6104e5610163565b918291826104ac565b0390f35b610169565b600080fd5b600080fd5b634e487b7160e01b600052604160045260246000fd5b906105219061027c565b810190811067ffffffffffffffff82111761053b57604052565b610501565b9061055361054c610163565b9283610517565b565b600080fd5b600080fd5b67ffffffffffffffff81116105775760208091020190565b610501565b600080fd5b61058a81610186565b0361059157565b600080fd5b905035906105a382610581565b565b91906040838203126105e1576105da906105bf6040610540565b936105cd8260008301610596565b6000860152602001610596565b6020830152565b6104fc565b91906080838203126106225761061b906106006040610540565b9361060e82600083016105a5565b60008601526040016105a5565b6020830152565b6104fc565b9190610180838203126106d5576106ce90610643610100610540565b9361065182600083016105a5565b600086015261066382604083016105a5565b602086015261067582608083016105a5565b60408601526106878260c083016105a5565b606086015261069a826101008301610596565b60808601526106ad826101208301610596565b60a08601526106c0826101408301610596565b60c086015261016001610596565b60e0830152565b6104fc565b91906102008382031261071757610710906106f56040610540565b9361070382600083016105e6565b6000860152608001610627565b6020830152565b6104fc565b9092919261073161072c8261055f565b610540565b9381855261020060208601920283019281841161077257915b8383106107575750505050565b60206102009161076784866106da565b81520192019161074a565b61057c565b9080601f83011215610795578160206107929335910161071c565b90565b61055a565b919060c0838203126107fa576107f3906107b46080610540565b936107c282600083016105a5565b60008601526107d482604083016105a5565b60208601526107e68260808301610596565b604086015260a001610596565b6060830152565b6104fc565b91909160e081840312610854576108166040610540565b9260008201359167ffffffffffffffff831161084f5761083b82610848948301610777565b600086015260200161079a565b6020830152565b610555565b6104fc565b9060208282031261088a57600082013567ffffffffffffffff81116108855761088292016107ff565b90565b6104f7565b61016e565b60000190565b6108a86108a3366004610859565b6121db565b6108b0610163565b806108ba8161088f565b0390f35b90565b6108d56108d06108da926108be565b610189565b610186565b90565b6108e760076108c1565b90565b6108f26108dd565b90565b3461092557610905366004610173565b6109216109106108ea565b610918610163565b918291826101ec565b0390f35b610169565b906020828203126109445761094191600001610596565b90565b61016e565b634e487b7160e01b600052603260045260246000fd5b5490565b600052602060002090565b6109778161095f565b82101561099257610989600191610963565b91020190600090565b610949565b634e487b7160e01b600052600060045260246000fd5b634e487b7160e01b600052602260045260246000fd5b90600160028304921680156109e3575b60208310146109de57565b6109ad565b91607f16916109d3565b600052602060002090565b9060009291805490610a13610a0c836109c3565b809461024e565b91600181169081600014610a6c5750600114610a2f575b505050565b610a3c91929394506109ed565b916000925b818410610a545750500190388080610a2a565b60018160209295939554848601520191019290610a41565b92949550505060ff1916825215156020020190388080610a2a565b90610a91916109f8565b90565b90610ab4610aad92610aa4610163565b93848092610a87565b0383610517565b565b90600010610aca57610ac790610a94565b90565b610997565b6002610ada8161095f565b821015610af757610af491610aee9161096e565b90610ab6565b90565b600080fd5b60209181520190565b610b24610b2d602093610b3293610b1b8161024a565b93848093610afc565b95869101610257565b61027c565b0190565b610b4c9160208201916000818403910152610b05565b90565b34610b7f57610b7b610b6a610b6536600461092a565b610acf565b610b72610163565b91829182610b36565b0390f35b610169565b67ffffffffffffffff8111610b9c5760208091020190565b610501565b90929192610bb6610bb182610b84565b610540565b938185526040602086019202830192818411610bf557915b838310610bdb5750505050565b6020604091610bea84866105a5565b815201920191610bce565b61057c565b9080601f83011215610c1857816020610c1593359101610ba1565b90565b61055a565b90602082820312610c4e57600082013567ffffffffffffffff8111610c4957610c469201610bfa565b90565b6104f7565b61016e565b34610c8357610c7f610c6e610c69366004610c1d565b612578565b610c76610163565b918291826101ec565b0390f35b610169565b5490565b600052602060002090565b610ca081610c88565b821015610cbb57610cb2600491610c8c565b91020190600090565b610949565b90610cca90610186565b9052565b610cd86040610540565b90565b90610d14610d0b6001610cec610cce565b94610d05610cfc6000830161039d565b60008801610cc0565b0161039d565b60208401610cc0565b565b610d206040610540565b90565b90610d5c610d536001610d34610d16565b94610d4d610d446000830161039d565b60008801610cc0565b0161039d565b60208401610cc0565b565b600490610d6a82610c88565b811015610d9757610d7a91610c97565b5090610d946002610d8d60008501610cdb565b9301610d23565b90565b600080fd5b610da590610186565b9052565b90602080610dcd93610dc360008201516000860190610d9c565b0151910190610d9c565b565b90602080610df393610de960008201516000860190610d9c565b0151910190610d9c565b565b916040610e17929493610e1060808201966000830190610da9565b0190610dcf565b565b34610e4a57610e31610e2c36600461092a565b610d5e565b90610e46610e3d610163565b92839283610df5565b0390f35b610169565b5490565b600052602060002090565b610e6781610e4f565b821015610e8257610e79600791610e53565b91020190600090565b610949565b52565b610e946080610540565b90565b90610f00610ef76005610ea8610e8a565b94610ec1610eb860008301610cdb565b60008801610e87565b610ed9610ed060028301610cdb565b60208801610e87565b610ef1610ee86004830161039d565b60408801610cc0565b0161039d565b60608401610cc0565b565b600590610f0e82610e4f565b811015610f2e57610f24600191610f2b93610e5e565b5001610e97565b90565b600080fd5b90602080610f5793610f4d60008201516000860190610d9c565b0151910190610d9c565b565b9060a06060610fa293610f7460008201516000860190610f33565b610f8660208201516040860190610f33565b610f9860408201516080860190610d9c565b0151910190610d9c565b565b9190610fb890600060c08501940190610f59565b565b34610fea57610fe6610fd5610fd036600461092a565b610f02565b610fdd610163565b91829182610fa4565b0390f35b610169565b9060a08061105b9361100960008201516000860190610d9c565b61101b60208201516020860190610d9c565b61102d60408201516040860190610d9c565b61103f60608201516060860190610d9c565b61105160808201516080860190610d9c565b0151910190610d9c565b565b919061107190600060c08501940190610fef565b565b346110a357611083366004610173565b61109f61108e612720565b611096610163565b9182918261105d565b0390f35b610169565b6000906110c360016110bc6000850161039d565b930161039d565b90565b346110f7576110d6366004610173565b6110de6110a8565b906110f36110ea610163565b928392836103c8565b0390f35b610169565b90565b61111361110e611118926110fc565b610189565b610186565b90565b6111447f483ada7726a3c4655da4fbfc0e1108a8fd17b448a68554199c47d08ffb10d4b86110ff565b90565b61114f61111b565b90565b3461118257611162366004610173565b61117e61116d611147565b611175610163565b918291826101ec565b0390f35b610169565b90565b61119e6111996111a392611187565b610189565b610186565b90565b6111b56401000003d01961118a565b90565b6111c06111a6565b90565b346111f3576111d3366004610173565b6111ef6111de6111b8565b6111e6610163565b918291826101ec565b0390f35b610169565b9190604083820312611221578061121561121e9260008601610596565b93602001610596565b90565b61016e565b919061123a90600060408501940190610da9565b565b3461126d576112696112586112523660046111f8565b906127ed565b611260610163565b91829182611226565b0390f35b610169565b5190565b60209181520190565b60200190565b906020806112a99361129f60008201516000860190610d9c565b0151910190610d9c565b565b90604060206112d0936112c660008201516000860190610f33565b0151910190611285565b565b906112df816080936112ab565b0190565b60200190565b906113066113006112f984611272565b8093611276565b9261127f565b9060005b8181106113175750505090565b90919261133061132a60019286516112d2565b946112e3565b910191909161130a565b61135091602082019160008184039101526112e9565b90565b3461138357611363366004610173565b61137f61136e612908565b611376610163565b9182918261133a565b0390f35b610169565b346113b8576113b46113a361139e36600461092a565b612a42565b6113ab610163565b91829182611226565b0390f35b610169565b90565b6113d46113cf6113d9926113bd565b610189565b610186565b90565b6113f770014551231950b75fc4402da1732fc9bebe196113c0565b90565b6114026113dc565b90565b3461143557611415366004610173565b6114316114206113fa565b611428610163565b918291826101ec565b0390f35b610169565b90565b61145161144c6114569261143a565b610189565b610186565b90565b611463600061143d565b90565b61146e611459565b90565b346114a157611481366004610173565b61149d61148c611466565b611494610163565b918291826101ec565b0390f35b610169565b5190565b60209181520190565b60200190565b5190565b60209181520190565b60200190565b90604060206114f1936114e760008201516000860190610f33565b0151910190610f33565b565b9061016060e06115889361150f60008201516000860190610f33565b61152160208201516040860190610f33565b61153360408201516080860190610f33565b611545606082015160c0860190610f33565b6115586080820151610100860190610d9c565b61156b60a0820151610120860190610d9c565b61157e60c0820151610140860190610d9c565b0151910190610d9c565b565b90608060206115af936115a5600082015160008601906114cc565b01519101906114f3565b565b906115bf816102009361158a565b0190565b60200190565b906115e66115e06115d9846114b9565b80936114bd565b926114c6565b9060005b8181106115f75750505090565b90919261161061160a60019286516115b1565b946115c3565b91019190916115ea565b9060a060606116639361163560008201516000860190610f33565b61164760208201516040860190610f33565b61165960408201516080860190610d9c565b0151910190610d9c565b565b906116919060208061168660e08401600087015185820360008701526115c9565b94015191019061161a565b90565b9061169e91611665565b90565b60200190565b906116bb6116b4836114a6565b80926114aa565b90816116cc602083028401946114b3565b926000915b8383106116e057505050505090565b909192939460206117026116fc83856001950387528951611694565b976116a1565b93019301919392906116d1565b9061173b9060208061173060408401600087015185820360008701526116a7565b940151910190610d9c565b90565b611754916020820191600081840391015261170f565b90565b346117875761178361177261176d36600461092a565b613090565b61177a610163565b9182918261173e565b0390f35b610169565b600080fd5b606090565b67ffffffffffffffff81116117ae5760208091020190565b610501565b906117c56117c083611796565b610540565b918252565b6117d390610a94565b90565b906117e08261095f565b6117e9816117b3565b926117f76020850191610963565b6000915b8383106118085750505050565b600160208192611817856117ca565b8152019201920191906117fb565b61182e906117d6565b90565b611839611791565b506118446002611825565b90565b61185361185891610380565b610426565b90565b6118659054611847565b90565b60007f456c656374696f6e206973206e6f7420696e20766f74696e6720737461746500910152565b61189d601f602092610afc565b6118a681611868565b0190565b6118c09060208101906000818303910152611890565b90565b156118ca57565b6118d2610163565b62461bcd60e51b8152806118e8600482016118aa565b0390fd5b60007f496e76616c6964206e756d626572206f6620766f746573000000000000000000910152565b6119216017602092610afc565b61192a816118ec565b0190565b6119449060208101906000818303910152611914565b90565b1561194e57565b611956610163565b62461bcd60e51b81528061196c6004820161192e565b0390fd5b600161197c9101610186565b90565b90611989826114b9565b81101561199a576020809102010190565b610949565b6119a890610cdb565b90565b60207f6564000000000000000000000000000000000000000000000000000000000000917f566f74652063697068657274657874206973206e6f742077656c6c2d666f726d60008201520152565b611a066022604092610afc565b611a0f816119ab565b0190565b611a2990602081019060008183039101526119f9565b90565b15611a3357565b611a3b610163565b62461bcd60e51b815280611a5160048201611a13565b0390fd5b90565b611a6c611a67611a7192611a55565b610189565b610186565b90565b60607f6461746500000000000000000000000000000000000000000000000000000000917f566f74652073756d206973206e6f7420657175616c20746f206f6e652c206d6560008201527f616e696e6720612062616c6c6f74206973206361737420666f72206d6f72652060208201527f7468616e206f6e652063616e646964617465206f72207a65726f2063616e646960408201520152565b611b1b6064608092610afc565b611b2481611a74565b0190565b611b3e9060208101906000818303910152611b0e565b90565b15611b4857565b611b50610163565b62461bcd60e51b815280611b6660048201611b28565b0390fd5b90565b600052602060002090565b5490565b611b8581611b78565b821015611ba057611b97600791611b6d565b91020190600090565b610949565b5190565b5490565b634e487b7160e01b600052601160045260246000fd5b611bd2611bd891939293610186565b92610186565b91611be4838202610186565b928184041490151715611bf357565b611bad565b611c03906010611bc3565b90565b600052602060002090565b1b90565b91906008611c31910291611c2b60001984611c11565b92611c11565b9181191691161790565b611c4f611c4a611c5492610186565b610189565b610186565b90565b90565b9190611c70611c6b611c7893611c3b565b611c57565b908354611c15565b9055565b600090565b611c9391611c8d611c7c565b91611c5a565b565b60006001611caf92611ca983808301611c81565b01611c81565b565b90600003611cc457611cc290611c95565b565b610997565b60006002611ce392611cdd83808301611cb1565b01611cb1565b565b90600003611cf857611cf690611cc9565b565b610997565b6000600b611d6592611d1183808301611cb1565b611d1e8360028301611cb1565b611d2b8360048301611cb1565b611d388360068301611cb1565b611d458360088301611c81565b611d528360098301611c81565b611d5f83600a8301611c81565b01611c81565b565b90600003611d7a57611d7890611cfd565b565b610997565b60006004611d9992611d9383808301611ce5565b01611d67565b565b90600003611dae57611dac90611d7f565b565b610997565b5b818110611dbf575050565b80611dcd6000601093611d9b565b01611db4565b9091828110611de2575b505050565b611e00611dfa611df4611e0b95611bf8565b92611bf8565b92611c06565b918201910190611db3565b388080611ddd565b90680100000000000000008111611e3c5781611e31611e3a93611ba9565b90828155611dd3565b565b610501565b5190565b5190565b5190565b611e579051610186565b90565b60001b90565b90611e6d60001991611e5a565b9181191691161790565b90611e8c611e87611e9392611c3b565b611c57565b8254611e60565b9055565b90611ec460206001611eca94611ebc60008201611eb660008801611e4d565b90611e77565b019201611e4d565b90611e77565b565b90611ed691611e97565b565b90611f0560206002611f0b94611efd60008201611ef760008801611e49565b90611ecc565b019201611e49565b90611ecc565b565b90611f1791611ed8565b565b5190565b90611fe060e0600b611fe694611f4260008201611f3c60008801611e49565b90611ecc565b611f5b60028201611f5560208801611e49565b90611ecc565b611f7460048201611f6e60408801611e49565b90611ecc565b611f8d60068201611f8760608801611e49565b90611ecc565b611fa660088201611fa060808801611e4d565b90611e77565b611fbf60098201611fb960a08801611e4d565b90611e77565b611fd8600a8201611fd260c08801611e4d565b90611e77565b019201611e4d565b90611e77565b565b90611ff291611f1d565b565b9061202160206004612027946120196000820161201360008801611e45565b90611f0d565b019201611f19565b90611fe8565b565b9061203391611ff4565b565b61205a612054612044846114b9565b9361204f8585611e13565b6114c6565b91611c06565b6000915b83831061206b5750505050565b601060208261208461207e600195611e41565b86612029565b0192019201919061205e565b9061209a91612035565b565b5190565b906120ff60606005612105946120c5600082016120bf60008801611e49565b90611ecc565b6120de600282016120d860208801611e49565b90611ecc565b6120f7600482016120f160408801611e4d565b90611e77565b019201611e4d565b90611e77565b565b90612111916120a0565b565b9061214060206001612146946121386000820161213260008801611ba5565b90612090565b01920161209c565b90612107565b565b91906121595761215791612113565b565b610997565b908154916801000000000000000083101561218e578261218691600161218c95018155611b7c565b90612148565b565b610501565b906121bf906020806121b460e08401600087015185820360008701526115c9565b94015191019061161a565b90565b6121d89160208201916000818403910152612193565b90565b906122026121e9600361185b565b6121fc6121f66001610487565b91610487565b146118c3565b61223361221260008401516114b9565b61222d612227612222600261095f565b610186565b91610186565b14611947565b61223d600061143d565b5b8061225d61225761225260008701516114b9565b610186565b91610186565b10156122b3576122ae906122a96122a4600061227d81880151859061197f565b51015160206122916000890151869061197f565b51015161229e600661199f565b9161337f565b611a2c565b611970565b61223e565b5060006122cc818401516122c68361143d565b9061197f565b5101516122d96001611a58565b5b806122f96122f36122ee60008801516114b9565b610186565b91610186565b10156123605761235b90612327600084015160008061231c818a0151869061197f565b510151015190613859565b6000840152612351602084015160206000612346818a0151869061197f565b510151015190613859565b6020840152611970565b6122da565b5061238b61239091939293602084015161237a600261095f565b90612385600661199f565b926139cf565b611b41565b6123a461239d6005611b6a565b829061215e565b6123da7fba16a8d8d863266327cf6d4345ec4d10b149a7399218fd928e46c8e38e2613ad916123d1610163565b918291826121c2565b0390a1565b5190565b60007f4e6f20706f696e74732070726f76696465640000000000000000000000000000910152565b6124186012602092610afc565b612421816123e3565b0190565b61243b906020810190600081830391015261240b565b90565b1561244557565b61244d610163565b62461bcd60e51b81528061246360048201612425565b0390fd5b90612471826123df565b811015612482576020809102010190565b610949565b905090565b6124b16124a89260209261249f8161024a565b94858093612487565b93849101610257565b0190565b60007f2c00000000000000000000000000000000000000000000000000000000000000910152565b6124e960018092612487565b6124f2816124b5565b0190565b61250761250c91612512949361248c565b6124dd565b9061248c565b90565b5190565b905090565b61254361253a9260209261253181612515565b94858093612519565b93849101610257565b0190565b6125509161251e565b90565b61255b610163565b3d6000823e3d90fd5b61257061257591610380565b611c3b565b90565b90612581611c7c565b506125a761258e836123df565b6125a161259b600061143d565b91610186565b1161243e565b6125bb826125b5600061143d565b90612467565b516125c66001611a58565b905b816125e36125dd6125d8876123df565b610186565b91610186565b101561260e57612602612608916125fb868590612467565b5190613859565b91611970565b906125c8565b60209293506000915061267a9061266961264461263f86612638612633888701611e4d565b613d7a565b9401611e4d565b613d7a565b9161265b612650610163565b9384928884016124f6565b868201810382520382610517565b612671610163565b91829182612547565b039060025afa1561269b57612698612693600051611e5a565b612564565b90565b612553565b6126aa60c0610540565b90565b600090565b6126ba6126a0565b9060208080808080876126cb6126ad565b8152016126d66126ad565b8152016126e16126ad565b8152016126ec6126ad565b8152016126f76126ad565b8152016127026126ad565b81525050565b6127106126b2565b90565b61271d60c0610540565b90565b612728612708565b506127316101a8565b6127ac61273c61111b565b6127a3612747611459565b61279a6127526108dd565b61279161275d6111a6565b936127886127696113dc565b9761277f612775612713565b9b60008d01610cc0565b60208b01610cc0565b60408901610cc0565b60608701610cc0565b60808501610cc0565b60a08301610cc0565b90565b6127b7610cce565b90602080836127c46126ad565b8152016127cf6126ad565b81525050565b6127dd6127af565b90565b6127ea6040610540565b90565b612819906127f96127d5565b50916128106128066127e0565b9360008501610cc0565b60208301610cc0565b90565b606090565b67ffffffffffffffff81116128395760208091020190565b610501565b9061285061284b83612821565b610540565b918252565b52565b6128626040610540565b90565b9061289e6128956002612876612858565b9461288f61288660008301610cdb565b60008801610e87565b01610d23565b60208401612855565b565b6128a990612865565b90565b906128b682610c88565b6128bf8161283e565b926128cd6020850191610c8c565b6000915b8383106128de5750505050565b600460206001926128ee856128a0565b8152019201920191906128d1565b612905906128ac565b90565b61291061281c565b5061291b60046128fc565b90565b60207f2031000000000000000000000000000000000000000000000000000000000000917f496e76616c696420766f74652c2063616e206f6e6c7920636173742030206f7260008201520152565b6129796022604092610afc565b6129828161291e565b0190565b61299c906020810190600081830391015261296c565b90565b156129a657565b6129ae610163565b62461bcd60e51b8152806129c460048201612986565b0390fd5b60007f496e76616c696420766f74650000000000000000000000000000000000000000910152565b6129fd600c602092610afc565b612a06816129c8565b0190565b612a2090602081019060008183039101526129f0565b90565b90565b612a3a612a35612a3f92612a23565b610189565b610186565b90565b612a4a6127d5565b5080612a5f612a59600061143d565b91610186565b148015612af9575b612a709061299f565b80612a84612a7e600061143d565b91610186565b14600014612a9a5750612a97600061199f565b90565b612aad612aa76001611a58565b91610186565b14600014612ad757612ad46002612ace612ac8600092612a26565b9161199f565b90613e24565b90565b612adf610163565b62461bcd60e51b815280612af560048201612a0a565b0390fd5b50612a7081612b11612b0b6001611a58565b91610186565b149050612a67565b612b236040610540565b90565b606090565b612b33612b19565b9060208083612b40612b26565b815201612b4b6126ad565b81525050565b612b59612b2b565b90565b67ffffffffffffffff8111612b7a57612b7660209161027c565b0190565b610501565b90612b91612b8c83612b5c565b610540565b918252565b60007f203e3e206e6f2062616c6c6f7473000000000000000000000000000000000000910152565b612bc8600e612b7f565b90612bd560208301612b96565b565b612bdf612bbe565b90565b67ffffffffffffffff8111612bfa5760208091020190565b610501565b90612c11612c0c83612be2565b610540565b918252565b612c206040610540565b90565b606090565b612c306127af565b90565b612c3b610e8a565b90602080808085612c4a612c28565b815201612c55612c28565b815201612c606126ad565b815201612c6b6126ad565b81525050565b612c79612c33565b90565b612c84612c16565b9060208083612c91612c23565b815201612c9c612c71565b81525050565b612caa612c7c565b90565b60005b828110612cbc57505050565b602090612cc7612ca2565b8184015201612cb0565b90612cf6612cde83612bff565b92602080612cec8693612be2565b9201910390612cad565b565b612d026040610540565b90565b52565b90565b612d1f612d1a612d2492612d08565b610189565b610186565b90565b60007f50616765206f7574206f662072616e6765000000000000000000000000000000910152565b612d5c6011602092610afc565b612d6581612d27565b0190565b612d7f9060208101906000818303910152612d4f565b90565b15612d8957565b612d91610163565b62461bcd60e51b815280612da760048201612d69565b0390fd5b612dba612dc091939293610186565b92610186565b8203918211612dcb57565b611bad565b612ddf612de591939293610186565b92610186565b8201809211612df057565b611bad565b60007f203e3e0000000000000000000000000000000000000000000000000000000000910152565b612e276003612b7f565b90612e3460208301612df5565b565b612e3e612e1d565b90565b90612e4b826114a6565b811015612e5c576020809102010190565b610949565b90612e73612e6e8361055f565b610540565b918252565b612e826040610540565b90565b90612ebe612eb56002612e96612e78565b94612eaf612ea660008301610cdb565b60008801610e87565b01610cdb565b60208401610e87565b565b52565b612ece610100610540565b90565b90612f9a612f91600b612ee2612ec3565b94612efb612ef260008301610cdb565b60008801610e87565b612f13612f0a60028301610cdb565b60208801610e87565b612f2b612f2260048301610cdb565b60408801610e87565b612f43612f3a60068301610cdb565b60608801610e87565b612f5b612f526008830161039d565b60808801610cc0565b612f73612f6a6009830161039d565b60a08801610cc0565b612f8b612f82600a830161039d565b60c08801610cc0565b0161039d565b60e08401610cc0565b565b52565b612fa96040610540565b90565b90612fe5612fdc6004612fbd612f9f565b94612fd6612fcd60008301612e85565b60008801612ec0565b01612ed1565b60208401612f9c565b565b612ff090612fac565b90565b90612ffd82611ba9565b61300681612e61565b926130146020850191611c06565b6000915b8383106130255750505050565b6010602060019261303585612fe7565b815201920192019190613018565b52565b52565b90613082613079600161305a612c16565b9461307361306a60008301612ff3565b60008801613043565b01610e97565b60208401613046565b565b61308d90613049565b90565b90613099612b51565b506130a46005610e4f565b6130b76130b1600061143d565b91610186565b14613212576130c66032612d0b565b61311561310e6130e06130d96005610e4f565b8490613ed1565b946130fe816130f76130f189610186565b91610186565b1115612d82565b6131086001611a58565b90612dab565b8290611bc3565b90613121828290612dd0565b61313c6131366131316005610e4f565b610186565b91610186565b11600014613203575061314f6005610e4f565b5b9161316482849061315f612e36565b613f5e565b613177613172848490612dab565b612cd1565b93825b8061318d61318787610186565b91610186565b10156131d8576131d3906131cc6131a660058390610e5e565b50886131bc6131b6858a90612dab565b92613084565b6131c68383612e41565b52612e41565b5150611970565b61317a565b509250926132009150916131f76131ed612cf8565b9360008501612d05565b60208301610cc0565b90565b61320d9082612dd0565b613150565b905061322461321f612bd7565b613e6e565b613236613231600061143d565b612cd1565b6132616132586000613253613249612cf8565b9460008601612d05565b61143d565b60208301610cc0565b90565b600090565b9061327b61327683610b84565b610540565b918252565b60005b82811061328f57505050565b60209061329a612c28565b8184015201613283565b906132c96132b183613269565b926020806132bf8693610b84565b9201910390613280565b565b90565b6132e26132dd6132e7926132cb565b610189565b610186565b90565b90565b6133016132fc613306926132ea565b610189565b610186565b90565b90565b61332061331b61332592613309565b610189565b610186565b90565b90565b61333f61333a61334492613328565b610189565b610186565b90565b634e487b7160e01b600052601260045260246000fd5b61336961336f91610186565b91610186565b90811561337a570690565b613347565b613387613264565b506133a761339760c08401611e4d565b6133a1600061199f565b90613e24565b6133cf60008401516133c96133be60808701611e4d565b600086015190613e24565b90613859565b6133db60008301611e4d565b6133f86133f26133ed60008501611e4d565b610186565b91610186565b1415918215613825575b505061381d5761342761341760e08401611e4d565b613421600061199f565b90613e24565b61344f602084015161344961343e60a08701611e4d565b600086015190613e24565b90613859565b61345b60008301611e4d565b61347861347261346d60008501611e4d565b610186565b91610186565b14159182156137e9575b50506137e15761349e61349760c08401611e4d565b8490613e24565b6134e160408401516134db6134b560808701611e4d565b6134d560208701516134cf6134ca600061143d565b612a42565b90613fa3565b90613e24565b90613859565b6134ed60008301611e4d565b61350a6135046134ff60008501611e4d565b610186565b91610186565b14159182156137ad575b50506137a55761353061352960e08401611e4d565b8490613e24565b613573606084015161356d61354760a08701611e4d565b613567602087015161356161355c6001611a58565b612a42565b90613fa3565b90613e24565b90613859565b61357f60008301611e4d565b61359c61359661359160008501611e4d565b610186565b91610186565b1415918215613771575b5050613769576020613648916135ee6135c76135c260076108c1565b6132a4565b956135e887916000906135e26135dc8361143d565b85612467565b5261143d565b90612467565b515061361e6000820151613618879160019061361261360c83611a58565b85612467565b52611a58565b90612467565b51500151613642849160029061363c61363683612a26565b85612467565b52612a26565b90612467565b51506136786000820151613672849160039061366c613666836132ce565b85612467565b526132ce565b90612467565b51506136a860408201516136a2849160049061369c613696836132ed565b85612467565b526132ed565b90612467565b51506136d860208201516136d284916005906136cc6136c68361330c565b85612467565b5261330c565b90612467565b5150613708606082015161370284916006906136fc6136f68361332b565b85612467565b5261332b565b90612467565b515061372260a061371b60808401611e4d565b9201611e4d565b61372a6113dc565b9081156137645761374761375a9261375592613760950894612578565b61374f6113dc565b9061335d565b610186565b91610186565b1490565b613347565b505050600090565b61379c919250613791602061378a816137969401611e4d565b9401611e4d565b610186565b91610186565b141538806135a6565b505050600090565b6137d89192506137cd60206137c6816137d29401611e4d565b9401611e4d565b610186565b91610186565b14153880613514565b505050600090565b61381491925061380960206138028161380e9401611e4d565b9401611e4d565b610186565b91610186565b14153880613482565b505050600090565b613850919250613845602061383e8161384a9401611e4d565b9401611e4d565b610186565b91610186565b14153880613402565b906138626127d5565b5061386d600061143d565b50613878600061143d565b50613883600061143d565b5061389060008301611e4d565b6138ad6138a76138a260008501611e4d565b610186565b91610186565b14600014613972576138cc60206138c5818501611e4d565b9201611e4d565b6138d46111a6565b91821561396d57086138ef6138e9600061143d565b91610186565b146000146139305750600061392d613924600061391f6139166139106127e0565b9561143d565b60008601610cc0565b61143d565b60208301610cc0565b90565b61395f8161394f6020613948600061396a9601611e4d565b9201611e4d565b6139596001611a58565b916148c3565b90915b919091614b22565b90565b613347565b816139c891613992602061398b600061396a9701611e4d565b9301611e4d565b9060016139ad60206139a660008501611e4d565b9301611e4d565b926139c26139bc600193611a58565b92611a58565b946140c8565b9091613962565b92916139d9613264565b506139f96139e960608401611e4d565b6139f3600061199f565b90613e24565b613a216000840151613a1b613a1060408701611e4d565b600089015190613e24565b90613859565b613a2d60008301611e4d565b613a4a613a44613a3f60008501611e4d565b610186565b91610186565b1415918215613cb7575b5050613cae57613aef613a73613a6c60608501611e4d565b8590613e24565b91613ae9602085015191613ae3613a8c60408801611e4d565b91613add60208b015191613ad7613abf613aae613aa96001611a58565b612a42565b92613ab96001611a58565b90612dab565b613ad1613acc600061143d565b612a42565b90613e24565b90613859565b90613fa3565b90613e24565b90613859565b613afb60008301611e4d565b613b18613b12613b0d60008501611e4d565b610186565b91610186565b1415918215613c7a575b5050613c7257613c63613c55613c4f613c416040613c6895613bd96020613b7a9a613b80613c6e9b613b5c613b57600561330c565b6132a4565b9d8e91600090613b74613b6e8361143d565b85612467565b5261143d565b90612467565b5150613baf8c613ba96000840151600190613ba3613b9d83611a58565b85612467565b52611a58565b90612467565b51500151613bd38b91600290613bcd613bc783612a26565b85612467565b52612a26565b90612467565b5150613c096000820151613c038b91600390613bfd613bf7836132ce565b85612467565b526132ce565b90612467565b5150613c396020820151613c338b91600490613c2d613c27836132ed565b85612467565b526132ed565b90612467565b515001611e4d565b613c496113dc565b9061335d565b94612578565b613c5d6113dc565b9061335d565b610186565b91610186565b1490565b505050600090565b613ca5919250613c9a6020613c9381613c9f9401611e4d565b9401611e4d565b610186565b91610186565b14153880613b22565b50505050600090565b613ce2919250613cd76020613cd081613cdc9401611e4d565b9401611e4d565b610186565b91610186565b14153880613a54565b606090565b90613cfb9101610186565b90565b369037565b90613d28613d1083612b7f565b92602080613d1e8693612b5c565b9201910390613cfe565b565b6001613d369103610186565b90565b90565b613d50613d4b613d5592613d39565b610189565b610186565b90565b613d64613d6a91610186565b91610186565b908115613d75570490565b613347565b613d82613ceb565b50613d9f613d8f82614cce565b613d996001611a58565b90613cf0565b90613da982613d03565b91613db2611c7c565b5060200182015b600115613e1d57613dcc613df891613d2a565b916f181899199a1a9b1b9c1cb0b131b232b360811b600a82061a8353613df2600a613d3c565b90613d58565b80613e0c613e06600061143d565b91610186565b14613e175790613db9565b50505b90565b5050613e1a565b613e6b91613e5f91613e346127d5565b5090613e4e6020613e4760008401611e4d565b9201611e4d565b90613e596001611a58565b92614f30565b91909190919091614b22565b90565b613e99613ea8613ead92613e80610163565b92839160046020840163104c13eb60e21b815201610b36565b60208201810382520382610517565b615041565b565b613ebb613ec191610186565b91610186565b908115613ecc570490565b613347565b90613ef090613ede611c7c565b50613eea838290613eaf565b9261335d565b613f03613efd600061143d565b91610186565b14600014613f0f575b90565b613f2390613f1d6001611a58565b90612dd0565b613f0c565b604090613f55613f4a613f5c9597969460608401908482036000860152610b05565b9660208301906101df565b01906101df565b565b613fa19291613f8d613f9c929193613f74610163565b94859360046020860163ca47c4eb60e01b815201613f28565b60208201810382520382610517565b615041565b565b613fb8613fbe92613fb26127d5565b50615056565b90613859565b90565b67ffffffffffffffff8111613fd65760200290565b610501565b613fe7613fec91613fc1565b610540565b90565b369037565b9061401261400183613fdb565b9261400c8491613fc1565b90613fef565b565b61401e6004613ff4565b90565b50600490565b9061403182614021565b81101561403f576020020190565b610949565b60007f557365206a6163446f75626c652066756e6374696f6e20696e73746561640000910152565b614079601e602092610afc565b61408281614044565b0190565b61409c906020810190600081830391015261406c565b90565b156140a657565b6140ae610163565b62461bcd60e51b8152806140c460048201614086565b0390fd5b9295939091956140d6611c7c565b506140df611c7c565b506140e8611c7c565b50836140fd6140f7600061143d565b91610186565b1480614889575b61487b578061411c614116600061143d565b91610186565b1480614860575b6148545761412f614014565b92878861413a6111a6565b90811561484f5761415f920961415a86614154600061143d565b90614027565b610cc0565b8761417c61417786614171600061143d565b90614027565b611e4d565b6141846111a6565b90811561484a576141a992096141a48661419e6001611a58565b90614027565b610cc0565b86876141b36111a6565b908115614845576141d892096141d3866141cd6002612a26565b90614027565b610cc0565b866141f56141f0866141ea6002612a26565b90614027565b611e4d565b6141fd6111a6565b90811561484057614222920961421d8661421760036132ce565b90614027565b610cc0565b61422c6004613fdb565b946142496142448661423e6002612a26565b90614027565b611e4d565b6142516111a6565b90811561483b57614266920960008701610cc0565b61428261427d8561427760036132ce565b90614027565b611e4d565b61428a6111a6565b9081156148365761429f920960208601610cc0565b906142bc6142b7846142b1600061143d565b90614027565b611e4d565b906142c56111a6565b928315614831576142f8936142f3936142e2920960408701610cc0565b926142ed6001611a58565b90614027565b611e4d565b6143006111a6565b90811561482c57614315920960608301610cc0565b9261433261432d85614327600061143d565b90614027565b611e4d565b61435f61435961435461434f886143496002612a26565b90614027565b611e4d565b610186565b91610186565b141580156147d6575b6143719061409f565b614379614014565b926143966143918661438b6002612a26565b90614027565b611e4d565b6143c36143a16111a6565b6143bd6143b8896143b2600061143d565b90614027565b611e4d565b90612dab565b6143cb6111a6565b9081156147d1576143f092086143eb866143e5600061143d565b90614027565b610cc0565b61440c6144078661440160036132ce565b90614027565b611e4d565b6144396144176111a6565b61443361442e896144286001611a58565b90614027565b611e4d565b90612dab565b6144416111a6565b9081156147cc5761446692086144618661445b6001611a58565b90614027565b610cc0565b61448261447d85614477600061143d565b90614027565b611e4d565b61449e61449986614493600061143d565b90614027565b611e4d565b6144a66111a6565b9081156147c7576144cb92096144c6866144c06002612a26565b90614027565b610cc0565b6144e76144e2856144dc6002612a26565b90614027565b611e4d565b6145036144fe866144f8600061143d565b90614027565b611e4d565b61450b6111a6565b9081156147c257614530920961452b8661452560036132ce565b90614027565b610cc0565b61454c614547856145416001611a58565b90614027565b611e4d565b6145686145638661455d6001611a58565b90614027565b611e4d565b6145706111a6565b9182156147bd57096145a56145836111a6565b61459f61459a8861459460036132ce565b90614027565b611e4d565b90612dab565b6145ad6111a6565b9182156147b857086145bd6111a6565b6002906145dc6145d7896145d1600061143d565b90614027565b611e4d565b6145f86145f3896145ed6002612a26565b90614027565b611e4d565b6146006111a6565b9182156147b357096146106111a6565b9081156147ae5761462361462a94612a26565b0990612dab565b6146326111a6565b9182156147a95708946146576146528661464c6001611a58565b90614027565b611e4d565b61467361466e83614668600061143d565b90614027565b611e4d565b61468f61468a886146846002612a26565b90614027565b611e4d565b6146976111a6565b9182156147a457096146b16146aa6111a6565b8990612dab565b6146b96111a6565b91821561479f57086146c96111a6565b91821561479a5709906146f66146f16146e06111a6565b926146eb6001611a58565b90614027565b611e4d565b9061471361470e8861470860036132ce565b90614027565b611e4d565b61471b6111a6565b9081156147955761472d930990612dab565b906147366111a6565b80156147905761475b92614756920895614750600061143d565b90614027565b611e4d565b91906147656111a6565b91821561478b57096147756111a6565b918215614786570992919291929190565b613347565b613347565b613347565b613347565b613347565b613347565b613347565b613347565b613347565b613347565b613347565b613347565b613347565b613347565b613347565b613347565b506143716147f66147f1866147eb6001611a58565b90614027565b611e4d565b61482361481d6148186148138961480d60036132ce565b90614027565b611e4d565b610186565b91610186565b14159050614368565b613347565b613347565b613347565b613347565b613347565b613347565b613347565b613347565b50509250919291929190565b508161487561486f600061143d565b91610186565b14614123565b925093945050919291929190565b508261489e614898600061143d565b91610186565b14614104565b90565b6148bb6148b66148c0926148a4565b610189565b610186565b90565b92906148cd611c7c565b506148d6611c7c565b506148df611c7c565b50826148f46148ee600061143d565b91610186565b14614b185783846149036111a6565b918215614b1357099381826149166111a6565b918215614b0e57099084856149296111a6565b918215614b095709906004908361493e6111a6565b918215614b04570961494e6111a6565b918215614aff5761495e906132ed565b099560039061496b6111a6565b918215614afa5761497b906132ce565b0990614985611459565b908061498f6111a6565b918215614af5570961499f6111a6565b918215614af057096149af6111a6565b918215614aeb57089485866149c26111a6565b918215614ae657096149d26111a6565b8290836149dd6111a6565b908115614ae1576149ef930890612dab565b6149f76111a6565b918215614adc57089590614a13614a0c6111a6565b8890612dab565b614a1b6111a6565b918215614ad75708614a2b6111a6565b918215614ad2570990614a3c6111a6565b60089180614a486111a6565b918215614acd5709614a586111a6565b908115614ac857614a6b614a72946148a7565b0990612dab565b614a7a6111a6565b918215614ac357089260029190614a8f6111a6565b918215614abe5709614a9f6111a6565b918215614ab957614aaf90612a26565b0992919291929190565b613347565b613347565b613347565b613347565b613347565b613347565b613347565b613347565b613347565b613347565b613347565b613347565b613347565b613347565b613347565b613347565b613347565b613347565b613347565b9192919291929190565b9091614b3690614b306127d5565b50615142565b908182614b416111a6565b918215614bb257099081614b536111a6565b918215614bad5709929190614b666111a6565b918215614ba85709614b766111a6565b908115614ba357614ba09209614b97614b8d6127e0565b9360008501610cc0565b60208301610cc0565b90565b613347565b613347565b613347565b613347565b90565b614bce614bc9614bd392614bb7565b610189565b610186565b90565b90565b614bed614be8614bf292614bd6565b610189565b610186565b90565b90565b614c0c614c07614c1192614bf5565b610189565b610186565b90565b90565b614c2b614c26614c3092614c14565b610189565b610186565b90565b90565b614c4a614c45614c4f92614c33565b610189565b610186565b90565b90565b614c69614c64614c6e92614c52565b610189565b610186565b90565b90565b614c88614c83614c8d92614c71565b610189565b610186565b90565b90565b614ca7614ca2614cac92614c90565b610189565b610186565b90565b90565b614cc6614cc1614ccb92614caf565b610189565b610186565b90565b614cd6611c7c565b50614ce1600061143d565b9080614d10614d0a7a184f03e93ff9f4daa797ed6e38ed64bf6a1f010000000000000000614bba565b91610186565b1015614ee8575b80614d38614d326d04ee2d6d415b85acef8100000000614bf8565b91610186565b1015614ead575b80614d59614d53662386f26fc10000614c36565b91610186565b1015614e79575b80614d77614d716305f5e100614c74565b91610186565b1015614e48575b80614d93614d8d612710614c93565b91610186565b1015614e19575b80614dae614da86064614cb2565b91610186565b1015614deb575b614dc8614dc2600a613d3c565b91610186565b1015614dd2575b90565b614de690614de06001611a58565b90613cf0565b614dcf565b614e02614e1391614dfc6064614cb2565b90613d58565b91614e0d6002612a26565b90613cf0565b90614db5565b614e31614e4291614e2b612710614c93565b90613d58565b91614e3c60046132ed565b90613cf0565b90614d9a565b614e62614e7391614e5c6305f5e100614c74565b90613d58565b91614e6d60086148a7565b90613cf0565b90614d7e565b614e96614ea791614e90662386f26fc10000614c36565b90613d58565b91614ea16010614c55565b90613cf0565b90614d60565b614ed1614ee291614ecb6d04ee2d6d415b85acef8100000000614bf8565b90613d58565b91614edc6020614c17565b90613cf0565b90614d3f565b614f19614f2a91614f137a184f03e93ff9f4daa797ed6e38ed64bf6a1f010000000000000000614bba565b90613d58565b91614f246040614bd9565b90613cf0565b90614d17565b929192614f3b611c7c565b50614f44611c7c565b50614f4d611c7c565b5080614f62614f5c600061143d565b91610186565b14615035579390614f73600061143d565b93614f7e600061143d565b93614f896001611a58565b965b80614f9f614f99600061143d565b91610186565b146150295780614faf6001611a58565b16614fc3614fbd600061143d565b91610186565b03614ffd575b90614fe2614feb9392614fdc6002612a26565b90613eaf565b939190916148c3565b95919594909592959195949094614f8b565b95614fe295614feb939298615019929190869085928c946140c8565b9891969096979192935050614fc9565b50505050909291929190565b50929092919291929190565b6150549061504f600161529f565b6152c1565b565b61505e6127d5565b506150bb61509d61508f61507460008501611e4d565b9361508960206150826111a6565b9201611e4d565b90612dab565b6150976111a6565b9061335d565b6150b26150a86127e0565b9360008501610cc0565b60208301610cc0565b90565b60007f496e76616c6964206e756d626572000000000000000000000000000000000000910152565b6150f3600e602092610afc565b6150fc816150be565b0190565b61511690602081019060008183039101526150e6565b90565b1561512057565b615128610163565b62461bcd60e51b81528061513e60048201615100565b0390fd5b61514a611c7c565b508061515f615159600061143d565b91610186565b141580615251575b80615229575b61517690615119565b615180600061143d565b61518a6001611a58565b906151936111a6565b9161519c611c7c565b505b836151b26151ac600061143d565b91610186565b14615222576151c2838590613eaf565b8192916151cd6111a6565b82916151d76111a6565b90811561521d576151e9930990612dab565b916151f26111a6565b8015615218576152119361520b92089395809592611bc3565b90612dab565b929061519e565b613347565b613347565b5091505090565b506151766152356111a6565b615248615242600061143d565b91610186565b1415905061516d565b508061526c6152666152616111a6565b610186565b91610186565b1415615167565b6a636f6e736f6c652e6c6f6790565b6000809161528e615273565b602082519201905afa50565b600090565b6152a761529a565b5090565b634e487b7160e01b600052605160045260246000fd5b6001036152ab576152d190615282565b56fea2646970667358221220c39fb0d0571dcc92cdca051019c1c5c5e4e7e3caaf7be8a24297667dc49b4a7e64736f6c634300081c0033",
  "linkReferences": {},
  "deployedLinkReferences": {}
}