{
  "_format": "hh-sol-artifact-1",
  "contractName": "Election",
  "sourceName": "contracts/Election.sol",
  "abi": [
    {
      "inputs": [
        {
          "components": [
            {
              "internalType": "address",
              "name": "owner",
              "type": "address"
            },
            {
              "components": [
                {
                  "internalType": "uint256",
                  "name": "x",
                  "type": "uint256"
                },
                {
                  "internalType": "uint256",
                  "name": "y",
                  "type": "uint256"
                }
              ],
              "internalType": "struct Ecc.EcPoint",
              "name": "publicKey",
              "type": "tuple"
            },
            {
              "components": [
                {
                  "internalType": "uint256",
                  "name": "c",
                  "type": "uint256"
                },
                {
                  "internalType": "uint256",
                  "name": "d",
                  "type": "uint256"
                }
              ],
              "internalType": "struct Zkp.KeyOwnershipProof",
              "name": "proof",
              "type": "tuple"
            }
          ],
          "internalType": "struct Election.Key[]",
          "name": "_authorityKeys",
          "type": "tuple[]"
        },
        {
          "internalType": "string[]",
          "name": "_candidates",
          "type": "string[]"
        },
        {
          "internalType": "address[]",
          "name": "_whitelistedAddresses",
          "type": "address[]"
        }
      ],
      "stateMutability": "nonpayable",
      "type": "constructor"
    },
    {
      "anonymous": false,
      "inputs": [
        {
          "components": [
            {
              "internalType": "address",
              "name": "from",
              "type": "address"
            },
            {
              "components": [
                {
                  "components": [
                    {
                      "components": [
                        {
                          "internalType": "uint256",
                          "name": "x",
                          "type": "uint256"
                        },
                        {
                          "internalType": "uint256",
                          "name": "y",
                          "type": "uint256"
                        }
                      ],
                      "internalType": "struct Ecc.EcPoint",
                      "name": "a",
                      "type": "tuple"
                    },
                    {
                      "components": [
                        {
                          "internalType": "uint256",
                          "name": "x",
                          "type": "uint256"
                        },
                        {
                          "internalType": "uint256",
                          "name": "y",
                          "type": "uint256"
                        }
                      ],
                      "internalType": "struct Ecc.EcPoint",
                      "name": "b",
                      "type": "tuple"
                    }
                  ],
                  "internalType": "struct Ecc.ECElGamalCiphertext",
                  "name": "ciphertext",
                  "type": "tuple"
                },
                {
                  "components": [
                    {
                      "components": [
                        {
                          "internalType": "uint256",
                          "name": "x",
                          "type": "uint256"
                        },
                        {
                          "internalType": "uint256",
                          "name": "y",
                          "type": "uint256"
                        }
                      ],
                      "internalType": "struct Ecc.EcPoint",
                      "name": "a0_",
                      "type": "tuple"
                    },
                    {
                      "components": [
                        {
                          "internalType": "uint256",
                          "name": "x",
                          "type": "uint256"
                        },
                        {
                          "internalType": "uint256",
                          "name": "y",
                          "type": "uint256"
                        }
                      ],
                      "internalType": "struct Ecc.EcPoint",
                      "name": "a1_",
                      "type": "tuple"
                    },
                    {
                      "components": [
                        {
                          "internalType": "uint256",
                          "name": "x",
                          "type": "uint256"
                        },
                        {
                          "internalType": "uint256",
                          "name": "y",
                          "type": "uint256"
                        }
                      ],
                      "internalType": "struct Ecc.EcPoint",
                      "name": "b0_",
                      "type": "tuple"
                    },
                    {
                      "components": [
                        {
                          "internalType": "uint256",
                          "name": "x",
                          "type": "uint256"
                        },
                        {
                          "internalType": "uint256",
                          "name": "y",
                          "type": "uint256"
                        }
                      ],
                      "internalType": "struct Ecc.EcPoint",
                      "name": "b1_",
                      "type": "tuple"
                    },
                    {
                      "internalType": "uint256",
                      "name": "c0",
                      "type": "uint256"
                    },
                    {
                      "internalType": "uint256",
                      "name": "c1",
                      "type": "uint256"
                    },
                    {
                      "internalType": "uint256",
                      "name": "r0__",
                      "type": "uint256"
                    },
                    {
                      "internalType": "uint256",
                      "name": "r1__",
                      "type": "uint256"
                    }
                  ],
                  "internalType": "struct Zkp.WellFormedVoteProof",
                  "name": "wellFormedVoteProof",
                  "type": "tuple"
                }
              ],
              "internalType": "struct Election.Vote[]",
              "name": "votes",
              "type": "tuple[]"
            },
            {
              "components": [
                {
                  "components": [
                    {
                      "internalType": "uint256",
                      "name": "x",
                      "type": "uint256"
                    },
                    {
                      "internalType": "uint256",
                      "name": "y",
                      "type": "uint256"
                    }
                  ],
                  "internalType": "struct Ecc.EcPoint",
                  "name": "A_",
                  "type": "tuple"
                },
                {
                  "components": [
                    {
                      "internalType": "uint256",
                      "name": "x",
                      "type": "uint256"
                    },
                    {
                      "internalType": "uint256",
                      "name": "y",
                      "type": "uint256"
                    }
                  ],
                  "internalType": "struct Ecc.EcPoint",
                  "name": "B_",
                  "type": "tuple"
                },
                {
                  "internalType": "uint256",
                  "name": "c",
                  "type": "uint256"
                },
                {
                  "internalType": "uint256",
                  "name": "R__",
                  "type": "uint256"
                }
              ],
              "internalType": "struct Zkp.SingleVoteSumProof",
              "name": "singleVoteSumProof",
              "type": "tuple"
            }
          ],
          "indexed": false,
          "internalType": "struct Election.Ballot",
          "name": "_ballot",
          "type": "tuple"
        }
      ],
      "name": "BallotCast",
      "type": "event"
    },
    {
      "inputs": [],
      "name": "A",
      "outputs": [
        {
          "internalType": "uint256",
          "name": "",
          "type": "uint256"
        }
      ],
      "stateMutability": "view",
      "type": "function"
    },
    {
      "inputs": [],
      "name": "B",
      "outputs": [
        {
          "internalType": "uint256",
          "name": "",
          "type": "uint256"
        }
      ],
      "stateMutability": "view",
      "type": "function"
    },
    {
      "inputs": [],
      "name": "G",
      "outputs": [
        {
          "internalType": "uint256",
          "name": "x",
          "type": "uint256"
        },
        {
          "internalType": "uint256",
          "name": "y",
          "type": "uint256"
        }
      ],
      "stateMutability": "view",
      "type": "function"
    },
    {
      "inputs": [],
      "name": "GX",
      "outputs": [
        {
          "internalType": "uint256",
          "name": "",
          "type": "uint256"
        }
      ],
      "stateMutability": "view",
      "type": "function"
    },
    {
      "inputs": [],
      "name": "GY",
      "outputs": [
        {
          "internalType": "uint256",
          "name": "",
          "type": "uint256"
        }
      ],
      "stateMutability": "view",
      "type": "function"
    },
    {
      "inputs": [],
      "name": "N",
      "outputs": [
        {
          "internalType": "uint256",
          "name": "",
          "type": "uint256"
        }
      ],
      "stateMutability": "view",
      "type": "function"
    },
    {
      "inputs": [],
      "name": "P",
      "outputs": [
        {
          "internalType": "uint256",
          "name": "",
          "type": "uint256"
        }
      ],
      "stateMutability": "view",
      "type": "function"
    },
    {
      "inputs": [
        {
          "internalType": "uint256",
          "name": "",
          "type": "uint256"
        }
      ],
      "name": "authorities",
      "outputs": [
        {
          "internalType": "address",
          "name": "owner",
          "type": "address"
        },
        {
          "components": [
            {
              "internalType": "uint256",
              "name": "x",
              "type": "uint256"
            },
            {
              "internalType": "uint256",
              "name": "y",
              "type": "uint256"
            }
          ],
          "internalType": "struct Ecc.EcPoint",
          "name": "publicKey",
          "type": "tuple"
        },
        {
          "components": [
            {
              "internalType": "uint256",
              "name": "c",
              "type": "uint256"
            },
            {
              "internalType": "uint256",
              "name": "d",
              "type": "uint256"
            }
          ],
          "internalType": "struct Zkp.KeyOwnershipProof",
          "name": "proof",
          "type": "tuple"
        }
      ],
      "stateMutability": "view",
      "type": "function"
    },
    {
      "inputs": [
        {
          "internalType": "uint256",
          "name": "",
          "type": "uint256"
        }
      ],
      "name": "candidates",
      "outputs": [
        {
          "internalType": "string",
          "name": "",
          "type": "string"
        }
      ],
      "stateMutability": "view",
      "type": "function"
    },
    {
      "inputs": [],
      "name": "electionPublicKey",
      "outputs": [
        {
          "internalType": "uint256",
          "name": "x",
          "type": "uint256"
        },
        {
          "internalType": "uint256",
          "name": "y",
          "type": "uint256"
        }
      ],
      "stateMutability": "view",
      "type": "function"
    },
    {
      "inputs": [
        {
          "internalType": "uint256",
          "name": "v",
          "type": "uint256"
        }
      ],
      "name": "encodeVote",
      "outputs": [
        {
          "components": [
            {
              "internalType": "uint256",
              "name": "x",
              "type": "uint256"
            },
            {
              "internalType": "uint256",
              "name": "y",
              "type": "uint256"
            }
          ],
          "internalType": "struct Ecc.EcPoint",
          "name": "",
          "type": "tuple"
        }
      ],
      "stateMutability": "view",
      "type": "function"
    },
    {
      "inputs": [],
      "name": "getAuthorities",
      "outputs": [
        {
          "components": [
            {
              "internalType": "address",
              "name": "owner",
              "type": "address"
            },
            {
              "components": [
                {
                  "internalType": "uint256",
                  "name": "x",
                  "type": "uint256"
                },
                {
                  "internalType": "uint256",
                  "name": "y",
                  "type": "uint256"
                }
              ],
              "internalType": "struct Ecc.EcPoint",
              "name": "publicKey",
              "type": "tuple"
            },
            {
              "components": [
                {
                  "internalType": "uint256",
                  "name": "c",
                  "type": "uint256"
                },
                {
                  "internalType": "uint256",
                  "name": "d",
                  "type": "uint256"
                }
              ],
              "internalType": "struct Zkp.KeyOwnershipProof",
              "name": "proof",
              "type": "tuple"
            }
          ],
          "internalType": "struct Election.Key[]",
          "name": "",
          "type": "tuple[]"
        }
      ],
      "stateMutability": "view",
      "type": "function"
    },
    {
      "inputs": [
        {
          "internalType": "uint256",
          "name": "page",
          "type": "uint256"
        }
      ],
      "name": "getBallots",
      "outputs": [
        {
          "components": [
            {
              "components": [
                {
                  "internalType": "address",
                  "name": "from",
                  "type": "address"
                },
                {
                  "components": [
                    {
                      "components": [
                        {
                          "components": [
                            {
                              "internalType": "uint256",
                              "name": "x",
                              "type": "uint256"
                            },
                            {
                              "internalType": "uint256",
                              "name": "y",
                              "type": "uint256"
                            }
                          ],
                          "internalType": "struct Ecc.EcPoint",
                          "name": "a",
                          "type": "tuple"
                        },
                        {
                          "components": [
                            {
                              "internalType": "uint256",
                              "name": "x",
                              "type": "uint256"
                            },
                            {
                              "internalType": "uint256",
                              "name": "y",
                              "type": "uint256"
                            }
                          ],
                          "internalType": "struct Ecc.EcPoint",
                          "name": "b",
                          "type": "tuple"
                        }
                      ],
                      "internalType": "struct Ecc.ECElGamalCiphertext",
                      "name": "ciphertext",
                      "type": "tuple"
                    },
                    {
                      "components": [
                        {
                          "components": [
                            {
                              "internalType": "uint256",
                              "name": "x",
                              "type": "uint256"
                            },
                            {
                              "internalType": "uint256",
                              "name": "y",
                              "type": "uint256"
                            }
                          ],
                          "internalType": "struct Ecc.EcPoint",
                          "name": "a0_",
                          "type": "tuple"
                        },
                        {
                          "components": [
                            {
                              "internalType": "uint256",
                              "name": "x",
                              "type": "uint256"
                            },
                            {
                              "internalType": "uint256",
                              "name": "y",
                              "type": "uint256"
                            }
                          ],
                          "internalType": "struct Ecc.EcPoint",
                          "name": "a1_",
                          "type": "tuple"
                        },
                        {
                          "components": [
                            {
                              "internalType": "uint256",
                              "name": "x",
                              "type": "uint256"
                            },
                            {
                              "internalType": "uint256",
                              "name": "y",
                              "type": "uint256"
                            }
                          ],
                          "internalType": "struct Ecc.EcPoint",
                          "name": "b0_",
                          "type": "tuple"
                        },
                        {
                          "components": [
                            {
                              "internalType": "uint256",
                              "name": "x",
                              "type": "uint256"
                            },
                            {
                              "internalType": "uint256",
                              "name": "y",
                              "type": "uint256"
                            }
                          ],
                          "internalType": "struct Ecc.EcPoint",
                          "name": "b1_",
                          "type": "tuple"
                        },
                        {
                          "internalType": "uint256",
                          "name": "c0",
                          "type": "uint256"
                        },
                        {
                          "internalType": "uint256",
                          "name": "c1",
                          "type": "uint256"
                        },
                        {
                          "internalType": "uint256",
                          "name": "r0__",
                          "type": "uint256"
                        },
                        {
                          "internalType": "uint256",
                          "name": "r1__",
                          "type": "uint256"
                        }
                      ],
                      "internalType": "struct Zkp.WellFormedVoteProof",
                      "name": "wellFormedVoteProof",
                      "type": "tuple"
                    }
                  ],
                  "internalType": "struct Election.Vote[]",
                  "name": "votes",
                  "type": "tuple[]"
                },
                {
                  "components": [
                    {
                      "components": [
                        {
                          "internalType": "uint256",
                          "name": "x",
                          "type": "uint256"
                        },
                        {
                          "internalType": "uint256",
                          "name": "y",
                          "type": "uint256"
                        }
                      ],
                      "internalType": "struct Ecc.EcPoint",
                      "name": "A_",
                      "type": "tuple"
                    },
                    {
                      "components": [
                        {
                          "internalType": "uint256",
                          "name": "x",
                          "type": "uint256"
                        },
                        {
                          "internalType": "uint256",
                          "name": "y",
                          "type": "uint256"
                        }
                      ],
                      "internalType": "struct Ecc.EcPoint",
                      "name": "B_",
                      "type": "tuple"
                    },
                    {
                      "internalType": "uint256",
                      "name": "c",
                      "type": "uint256"
                    },
                    {
                      "internalType": "uint256",
                      "name": "R__",
                      "type": "uint256"
                    }
                  ],
                  "internalType": "struct Zkp.SingleVoteSumProof",
                  "name": "singleVoteSumProof",
                  "type": "tuple"
                }
              ],
              "internalType": "struct Election.Ballot[]",
              "name": "ballots",
              "type": "tuple[]"
            },
            {
              "internalType": "uint256",
              "name": "totalPage",
              "type": "uint256"
            }
          ],
          "internalType": "struct Election.PaginatedBallot",
          "name": "",
          "type": "tuple"
        }
      ],
      "stateMutability": "view",
      "type": "function"
    },
    {
      "inputs": [],
      "name": "getCandidates",
      "outputs": [
        {
          "internalType": "string[]",
          "name": "",
          "type": "string[]"
        }
      ],
      "stateMutability": "view",
      "type": "function"
    },
    {
      "inputs": [],
      "name": "getECCParams",
      "outputs": [
        {
          "components": [
            {
              "internalType": "uint256",
              "name": "gx",
              "type": "uint256"
            },
            {
              "internalType": "uint256",
              "name": "gy",
              "type": "uint256"
            },
            {
              "internalType": "uint256",
              "name": "a",
              "type": "uint256"
            },
            {
              "internalType": "uint256",
              "name": "b",
              "type": "uint256"
            },
            {
              "internalType": "uint256",
              "name": "p",
              "type": "uint256"
            },
            {
              "internalType": "uint256",
              "name": "n",
              "type": "uint256"
            }
          ],
          "internalType": "struct Ecc.EccParams",
          "name": "",
          "type": "tuple"
        }
      ],
      "stateMutability": "pure",
      "type": "function"
    },
    {
      "inputs": [
        {
          "components": [
            {
              "internalType": "uint256",
              "name": "x",
              "type": "uint256"
            },
            {
              "internalType": "uint256",
              "name": "y",
              "type": "uint256"
            }
          ],
          "internalType": "struct Ecc.EcPoint[]",
          "name": "points",
          "type": "tuple[]"
        }
      ],
      "name": "hashMultiplePointsToScalar",
      "outputs": [
        {
          "internalType": "uint256",
          "name": "",
          "type": "uint256"
        }
      ],
      "stateMutability": "pure",
      "type": "function"
    },
    {
      "inputs": [
        {
          "internalType": "uint256",
          "name": "x",
          "type": "uint256"
        },
        {
          "internalType": "uint256",
          "name": "y",
          "type": "uint256"
        }
      ],
      "name": "newEcPoint",
      "outputs": [
        {
          "components": [
            {
              "internalType": "uint256",
              "name": "x",
              "type": "uint256"
            },
            {
              "internalType": "uint256",
              "name": "y",
              "type": "uint256"
            }
          ],
          "internalType": "struct Ecc.EcPoint",
          "name": "",
          "type": "tuple"
        }
      ],
      "stateMutability": "pure",
      "type": "function"
    },
    {
      "inputs": [],
      "name": "status",
      "outputs": [
        {
          "internalType": "enum Election.ElectionStatus",
          "name": "",
          "type": "uint8"
        }
      ],
      "stateMutability": "view",
      "type": "function"
    },
    {
      "inputs": [
        {
          "components": [
            {
              "components": [
                {
                  "components": [
                    {
                      "components": [
                        {
                          "internalType": "uint256",
                          "name": "x",
                          "type": "uint256"
                        },
                        {
                          "internalType": "uint256",
                          "name": "y",
                          "type": "uint256"
                        }
                      ],
                      "internalType": "struct Ecc.EcPoint",
                      "name": "a",
                      "type": "tuple"
                    },
                    {
                      "components": [
                        {
                          "internalType": "uint256",
                          "name": "x",
                          "type": "uint256"
                        },
                        {
                          "internalType": "uint256",
                          "name": "y",
                          "type": "uint256"
                        }
                      ],
                      "internalType": "struct Ecc.EcPoint",
                      "name": "b",
                      "type": "tuple"
                    }
                  ],
                  "internalType": "struct Ecc.ECElGamalCiphertext",
                  "name": "ciphertext",
                  "type": "tuple"
                },
                {
                  "components": [
                    {
                      "components": [
                        {
                          "internalType": "uint256",
                          "name": "x",
                          "type": "uint256"
                        },
                        {
                          "internalType": "uint256",
                          "name": "y",
                          "type": "uint256"
                        }
                      ],
                      "internalType": "struct Ecc.EcPoint",
                      "name": "a0_",
                      "type": "tuple"
                    },
                    {
                      "components": [
                        {
                          "internalType": "uint256",
                          "name": "x",
                          "type": "uint256"
                        },
                        {
                          "internalType": "uint256",
                          "name": "y",
                          "type": "uint256"
                        }
                      ],
                      "internalType": "struct Ecc.EcPoint",
                      "name": "a1_",
                      "type": "tuple"
                    },
                    {
                      "components": [
                        {
                          "internalType": "uint256",
                          "name": "x",
                          "type": "uint256"
                        },
                        {
                          "internalType": "uint256",
                          "name": "y",
                          "type": "uint256"
                        }
                      ],
                      "internalType": "struct Ecc.EcPoint",
                      "name": "b0_",
                      "type": "tuple"
                    },
                    {
                      "components": [
                        {
                          "internalType": "uint256",
                          "name": "x",
                          "type": "uint256"
                        },
                        {
                          "internalType": "uint256",
                          "name": "y",
                          "type": "uint256"
                        }
                      ],
                      "internalType": "struct Ecc.EcPoint",
                      "name": "b1_",
                      "type": "tuple"
                    },
                    {
                      "internalType": "uint256",
                      "name": "c0",
                      "type": "uint256"
                    },
                    {
                      "internalType": "uint256",
                      "name": "c1",
                      "type": "uint256"
                    },
                    {
                      "internalType": "uint256",
                      "name": "r0__",
                      "type": "uint256"
                    },
                    {
                      "internalType": "uint256",
                      "name": "r1__",
                      "type": "uint256"
                    }
                  ],
                  "internalType": "struct Zkp.WellFormedVoteProof",
                  "name": "wellFormedVoteProof",
                  "type": "tuple"
                }
              ],
              "internalType": "struct Election.Vote[]",
              "name": "votes",
              "type": "tuple[]"
            },
            {
              "components": [
                {
                  "components": [
                    {
                      "internalType": "uint256",
                      "name": "x",
                      "type": "uint256"
                    },
                    {
                      "internalType": "uint256",
                      "name": "y",
                      "type": "uint256"
                    }
                  ],
                  "internalType": "struct Ecc.EcPoint",
                  "name": "A_",
                  "type": "tuple"
                },
                {
                  "components": [
                    {
                      "internalType": "uint256",
                      "name": "x",
                      "type": "uint256"
                    },
                    {
                      "internalType": "uint256",
                      "name": "y",
                      "type": "uint256"
                    }
                  ],
                  "internalType": "struct Ecc.EcPoint",
                  "name": "B_",
                  "type": "tuple"
                },
                {
                  "internalType": "uint256",
                  "name": "c",
                  "type": "uint256"
                },
                {
                  "internalType": "uint256",
                  "name": "R__",
                  "type": "uint256"
                }
              ],
              "internalType": "struct Zkp.SingleVoteSumProof",
              "name": "singleVoteSumProof",
              "type": "tuple"
            }
          ],
          "internalType": "struct Election.BallotInput",
          "name": "_ballot",
          "type": "tuple"
        }
      ],
      "name": "submitBallot",
      "outputs": [],
      "stateMutability": "payable",
      "type": "function"
    }
  ],
  "bytecode": "0x6080604052346100305761001a6100146104e4565b916112f7565b610022610035565b6155e16133a682396155e190f35b61003b565b60405190565b600080fd5b601f801991011690565b634e487b7160e01b600052604160045260246000fd5b9061006a90610040565b810190811060018060401b0382111761008257604052565b61004a565b9061009a610093610035565b9283610060565b565b600080fd5b600080fd5b600080fd5b60018060401b0381116100c15760208091020190565b61004a565b600080fd5b600080fd5b60018060a01b031690565b6100e4906100d0565b90565b6100f0816100db565b036100f757565b600080fd5b90505190610109826100e7565b565b90565b6101178161010b565b0361011e57565b600080fd5b905051906101308261010e565b565b919060408382031261016e576101679061014c6040610087565b9361015a8260008301610123565b6000860152602001610123565b6020830152565b6100cb565b91906040838203126101af576101a89061018d6040610087565b9361019b8260008301610123565b6000860152602001610123565b6020830152565b6100cb565b919060a083820312610202576101fb906101ce6060610087565b936101dc82600083016100fc565b60008601526101ee8260208301610132565b6020860152606001610173565b6040830152565b6100cb565b9092919261021c610217826100ab565b610087565b9381855260a060208601920283019281841161025b57915b8383106102415750505050565b602060a09161025084866101b4565b815201920191610234565b6100c6565b9080601f8301121561027e5781602061027b93519101610207565b90565b6100a6565b60018060401b0381116102995760208091020190565b61004a565b600080fd5b60018060401b0381116102bf576102bb602091610040565b0190565b61004a565b60005b8381106102d8575050906000910152565b8060209183015181850152016102c7565b909291926102fe6102f9826102a3565b610087565b9381855260208501908284011161031a57610318926102c4565b565b61029e565b9080601f8301121561033d5781602061033a935191016102e9565b90565b6100a6565b92919061035661035182610283565b610087565b93818552602080860192028101918383116103ab5781905b83821061037c575050505050565b815160018060401b0381116103a65760209161039b878493870161031f565b81520191019061036e565b6100a6565b6100c6565b9080601f830112156103ce578160206103cb93519101610342565b90565b6100a6565b60018060401b0381116103e95760208091020190565b61004a565b909291926104036103fe826103d3565b610087565b938185526020808601920283019281841161044057915b8383106104275750505050565b6020809161043584866100fc565b81520192019161041a565b6100c6565b9080601f8301121561046357816020610460935191016103ee565b90565b6100a6565b916060838303126104df57600083015160018060401b0381116104da5782610491918501610260565b92602081015160018060401b0381116104d557836104b09183016103b0565b92604082015160018060401b0381116104d0576104cd9201610445565b90565b6100a1565b6100a1565b6100a1565b61009c565b610502618987803803806104f781610087565b928339810190610468565b909192565b60001b90565b9061051960ff91610507565b9181191691161790565b634e487b7160e01b600052602160045260246000fd5b6004111561054357565b610523565b9061055282610539565b565b61055d90610548565b90565b90565b9061057861057361057f92610554565b610560565b825461050d565b9055565b60001c90565b60ff1690565b61059b6105a091610583565b610589565b90565b6105ad905461058f565b90565b60209181520190565b60007f456c656374696f6e20616c726561647920737461727465640000000000000000910152565b6105ee60186020926105b0565b6105f7816105b9565b0190565b61061190602081019060008183039101526105e1565b90565b1561061b57565b610623610035565b62461bcd60e51b815280610639600482016105fb565b0390fd5b5190565b90565b90565b61065b61065661066092610641565b610644565b61010b565b90565b60207f6972656400000000000000000000000000000000000000000000000000000000917f4174206c656173742074776f2063616e6469646174657320617265207265717560008201520152565b6106be60246040926105b0565b6106c781610663565b0190565b6106e190602081019060008183039101526106b1565b90565b156106eb57565b6106f3610035565b62461bcd60e51b815280610709600482016106cb565b0390fd5b5190565b90565b61072861072361072d92610711565b610644565b61010b565b90565b60207f6564000000000000000000000000000000000000000000000000000000000000917f4174206c65617374206f6e6520617574686f726974792069732072657175697260008201520152565b61078b60226040926105b0565b61079481610730565b0190565b6107ae906020810190600081830391015261077e565b90565b156107b857565b6107c0610035565b62461bcd60e51b8152806107d660048201610798565b0390fd5b60016107e6910161010b565b90565b634e487b7160e01b600052601160045260246000fd5b61080e6108149193929361010b565b9261010b565b820180921161081f57565b6107e9565b634e487b7160e01b600052603260045260246000fd5b906108448261070d565b811015610855576020809102010190565b610824565b610864905161010b565b90565b60007f4475706c696361746520617574686f72697479207075626c6963206b65790000910152565b61089c601e6020926105b0565b6108a581610867565b0190565b6108bf906020810190600081830391015261088f565b90565b156108c957565b6108d1610035565b62461bcd60e51b8152806108e7600482016108a9565b0390fd5b60007f4475706c696361746520617574686f726974792070726f6f6600000000000000910152565b61092060196020926105b0565b610929816108eb565b0190565b6109439060208101906000818303910152610913565b90565b1561094d57565b610955610035565b62461bcd60e51b81528061096b6004820161092d565b0390fd5b5190565b9061097d8261096f565b81101561098e576020809102010190565b610824565b61099d90516100db565b90565b6109b46109af6109b9926100d0565b610644565b6100d0565b90565b6109c5906109a0565b90565b6109d1906109bc565b90565b906109de906109c8565b600052602052604060002090565b151590565b6109fa906109ec565b90565b90565b90610a15610a10610a1c926109f1565b6109fd565b825461050d565b9055565b60007f496e76616c6964207075626c6963206b65790000000000000000000000000000910152565b610a5560126020926105b0565b610a5e81610a20565b0190565b610a789060208101906000818303910152610a48565b90565b15610a8257565b610a8a610035565b62461bcd60e51b815280610aa060048201610a62565b0390fd5b60007f496e76616c6964206b65792070726f6f66000000000000000000000000000000910152565b610ad960116020926105b0565b610ae281610aa4565b0190565b610afc9060208101906000818303910152610acc565b90565b15610b0657565b610b0e610035565b62461bcd60e51b815280610b2460048201610ae6565b0390fd5b90565b600052602060002090565b5490565b610b4381610b36565b821015610b5e57610b55600591610b2b565b91020190600090565b610824565b634e487b7160e01b600052600060045260246000fd5b90610b8a60018060a01b0391610507565b9181191691161790565b90565b90610bac610ba7610bb3926109c8565b610b94565b8254610b79565b9055565b5190565b90610bc860001991610507565b9181191691161790565b610be6610be1610beb9261010b565b610644565b61010b565b90565b90565b90610c06610c01610c0d92610bd2565b610bee565b8254610bbb565b9055565b90610c3e60206001610c4494610c3660008201610c306000880161085a565b90610bf1565b01920161085a565b90610bf1565b565b90610c5091610c11565b565b5190565b90610c8360206001610c8994610c7b60008201610c756000880161085a565b90610bf1565b01920161085a565b90610bf1565b565b90610c9591610c56565b565b90610cdd60406003610ce394610cbc60008201610cb660008801610993565b90610b97565b610cd560018201610ccf60208801610bb7565b90610c46565b019201610c52565b90610c8b565b565b9190610cf657610cf491610c97565b565b610b63565b1b90565b9081549168010000000000000000831015610d2f5782610d27916001610d2d95018155610b3a565b90610ce5565b565b61004a565b90565b610d43610d4891610583565b610d34565b90565b610d559054610d37565b90565b90610d629061010b565b9052565b610d706040610087565b90565b90610dac610da36001610d84610d66565b94610d9d610d9460008301610d4b565b60008801610d58565b01610d4b565b60208401610d58565b565b610db790610d73565b90565b60200190565b5490565b610dd3610dd99193929361010b565b9261010b565b91610de583820261010b565b928184041490151715610df457565b6107e9565b600190818003010490565b600052602060002090565b634e487b7160e01b600052602260045260246000fd5b9060016002830492168015610e45575b6020831014610e4057565b610e0f565b91607f1691610e35565b600052602060002090565b1c90565b90610e729060001990602003600802610e5a565b8154169055565b91906008610e95910291610e8f60001984610cfb565b92610cfb565b9181191691161790565b9190610eb5610eb0610ebd93610bd2565b610bee565b908354610e79565b9055565b600090565b610ed891610ed2610ec1565b91610e9f565b565b5b818110610ee6575050565b80610ef46000600193610ec6565b01610edb565b90610f0b9060001990600802610e5a565b191690565b81610f1a91610efa565b906002021790565b90600091610f3a610f3282610e4f565b928354610f10565b905555565b601f602091010490565b91929060208210600014610fa357601f8411600114610f7357610f6d929350610f10565b90555b5b565b5090610f99610f9e936001610f90610f8a85610e4f565b92610f3f565b82019101610eda565b610f22565b610f70565b50610fda8293610fb4600194610e4f565b610fd3610fc085610f3f565b820192601f861680610fe5575b50610f3f565b0190610eda565b600202179055610f71565b610ff190888603610e5e565b38610fcd565b9290916801000000000000000082116110595760201160001461104a576020811060001461102e5761102891610f10565b90555b5b565b60019160ff191661103e84610e4f565b5560020201905561102b565b6001915060020201905561102c565b61004a565b90815461106a81610e25565b90818311611093575b818310611081575b50505050565b61108a93610f49565b3880808061107b565b61109f83838387610ff7565b611073565b60006110af9161105e565b565b906000036110c4576110c2906110a4565b565b610b63565b5b8181106110d5575050565b806110e360006001936110b1565b016110ca565b90918281106110f8575b505050565b61111661111061110a61112195610df9565b92610df9565b92610e04565b9182019101906110c9565b3880806110f3565b90680100000000000000008111611152578161114761115093610dc0565b908281556110e9565b565b61004a565b5190565b5190565b9190601f811161116f575b505050565b61117b6111a093610e4f565b90602061118784610f3f565b830193106111a8575b61119990610f3f565b0190610eda565b38808061116a565b915061119981929050611190565b906111c08161115b565b9060018060401b038211611280576111e2826111dc8554610e25565b8561115f565b602090601f8311600114611217579180916112069360009261120b575b5050610f10565b90555b565b909150015138806111ff565b601f1983169161122685610e4f565b9260005b8181106112685750916002939185600196941061124e575b50505002019055611209565b61125e910151601f841690610efa565b9055388080611242565b9193602060018192878701518155019501920161122a565b61004a565b9061128f916111b6565b565b6112b66112b06112a08461063d565b936112ab8585611129565b610dba565b91610e04565b6000915b8383106112c75750505050565b60016020826112df6112d98495611157565b86611285565b019201920191906112ba565b906112f591611291565b565b9192611301611772565b61130d60006003610563565b61133361131a60036105a3565b61132d6113276000610548565b91610548565b14610614565b61135861133f8361063d565b61135261134c6001610647565b9161010b565b116106e4565b61137d6113648461070d565b6113776113716000610714565b9161010b565b116107b1565b6113876000610714565b935b846113a461139e6113998761070d565b61010b565b9161010b565b101561155b576113be856113b86001610647565b906107ff565b5b806113da6113d46113cf8861070d565b61010b565b9161010b565b10156115465761149b906113ff600060206113f6898b9061083a565b5101510161085a565b61142b611425611420600060206114178c889061083a565b5101510161085a565b61010b565b9161010b565b141580156114f4575b61143d906108c2565b6114586000604061144f898b9061083a565b5101510161085a565b61148461147e611479600060406114708c889061083a565b5101510161085a565b61010b565b9161010b565b141580156114a0575b61149690610946565b6107da565b6113bf565b506114966114bf602060406114b68a8c9061083a565b5101510161085a565b6114eb6114e56114e0602060406114d78d899061083a565b5101510161085a565b61010b565b9161010b565b1415905061148d565b5061143d6115126020806115098a8c9061083a565b5101510161085a565b61153d6115376115326020806115298d899061083a565b5101510161085a565b61010b565b9161010b565b14159050611434565b50919093611553906107da565b939091611389565b935091909161156a6000610714565b5b8061158661158061157b8861096f565b61010b565b9161010b565b10156115c2576115bd906115b860016115b360086115ad6115a88b8790610973565b610993565b906109d4565b610a00565b6107da565b61156b565b50919092506115d16000610714565b5b806115ed6115e76115e28761070d565b61010b565b9161010b565b10156116ca5761168b906116126000602061160988859061083a565b5101510161085a565b61162561161f6000610714565b9161010b565b141580611690575b61163690610a7b565b611667611662602061164988859061083a565b510151604061165989869061083a565b51015190611961565b610aff565b6116866116746006610b28565b61167f87849061083a565b5190610cff565b6107da565b6115d2565b506116366116ae6020806116a589869061083a565b5101510161085a565b6116c16116bb6000610714565b9161010b565b1415905061162d565b50906116ef60206116e5856116df6000610714565b9061083a565b5101516004610c46565b6116f96001610647565b5b8061171561170f61170a8761070d565b61010b565b9161010b565b1015611756576117519061174c611745600461174060206117378a879061083a565b51015191610dae565b611a8b565b6004610c46565b6107da565b6116fa565b5091506117649060026112eb565b61177060016003610563565b565b61177a61177c565b565b611784611829565b565b90565b61179d6117986117a292611786565b610644565b61010b565b90565b6117ce7f79be667ef9dcbbac55a06295ce870b07029bfcdb2dce28d959f2815b16f81798611789565b90565b90565b6117e86117e36117ed926117d1565b610644565b61010b565b90565b6118197f483ada7726a3c4655da4fbfc0e1108a8fd17b448a68554199c47d08ffb10d4b86117d4565b90565b6118266040610087565b90565b6118646118346117a5565b61185d61183f6117f0565b61185461184a61181c565b9360008501610d58565b60208301610d58565b6000610c46565b565b600090565b90565b61188261187d6118879261186b565b610644565b61010b565b90565b60018060401b0381116118a05760208091020190565b61004a565b906118b76118b28361188a565b610087565b918252565b600090565b6118c9610d66565b90602080836118d66118bc565b8152016118e16118bc565b81525050565b6118ef6118c1565b90565b60005b82811061190157505050565b60209061190c6118e7565b81840152016118f5565b9061193b611923836118a5565b92602080611931869361188a565b92019103906118f2565b565b5190565b9061194b8261193d565b81101561195c576020809102010190565b610824565b90611a2f611a2a611a246000611a3594611979611866565b50611a1c6119b961199e61198f6020850161085a565b61199886610dae565b90611c01565b6119b36119ac86860161085a565b8b90611c01565b90611c4b565b6119f46119ce6119c9600261186e565b611916565b996119ee8b9187906119e86119e283610714565b85611941565b52610714565b90611941565b5150611a168991600190611a10611a0a83610647565b85611941565b52610647565b90611941565b51500161085a565b93611dde565b61010b565b9161010b565b1490565b611a416118c1565b90565b90565b611a5b611a56611a6092611a44565b610644565b61010b565b90565b611a726401000003d019611a47565b90565b634e487b7160e01b600052601260045260246000fd5b90611a94611a39565b50611a9f6000610714565b50611aaa6000610714565b50611ab56000610714565b50611ac26000830161085a565b611adf611ad9611ad46000850161085a565b61010b565b9161010b565b14600014611ba457611afe6020611af781850161085a565b920161085a565b611b06611a63565b918215611b9f5708611b21611b1b6000610714565b9161010b565b14600014611b6257506000611b5f611b566000611b51611b48611b4261181c565b95610714565b60008601610d58565b610714565b60208301610d58565b90565b611b9181611b816020611b7a6000611b9c960161085a565b920161085a565b611b8b6001610647565b91612876565b90915b919091612ad5565b90565b611a75565b81611bfa91611bc46020611bbd6000611b9c970161085a565b930161085a565b906001611bdf6020611bd86000850161085a565b930161085a565b92611bf4611bee600193610647565b92610647565b9461204f565b9091611b94565b611c4891611c3c91611c11611a39565b5090611c2b6020611c246000840161085a565b920161085a565b90611c366001610647565b92612b8c565b91909190919091612ad5565b90565b611c60611c6692611c5a611a39565b50612cbf565b90611a8b565b90565b60007f4e6f20706f696e74732070726f76696465640000000000000000000000000000910152565b611c9e60126020926105b0565b611ca781611c69565b0190565b611cc19060208101906000818303910152611c91565b90565b15611ccb57565b611cd3610035565b62461bcd60e51b815280611ce960048201611cab565b0390fd5b905090565b611d17611d0e92602092611d058161115b565b94858093611ced565b938491016102c4565b0190565b60007f2c00000000000000000000000000000000000000000000000000000000000000910152565b611d4f60018092611ced565b611d5881611d1b565b0190565b611d6d611d7291611d789493611cf2565b611d43565b90611cf2565b90565b5190565b905090565b611da9611da092602092611d9781611d7b565b94858093611d7f565b938491016102c4565b0190565b611db691611d84565b90565b611dc1610035565b3d6000823e3d90fd5b611dd6611ddb91610583565b610bd2565b90565b90611de7610ec1565b50611e0d611df48361193d565b611e07611e016000610714565b9161010b565b11611cc4565b611e2182611e1b6000610714565b90611941565b51611e2c6001610647565b905b81611e49611e43611e3e8761193d565b61010b565b9161010b565b1015611e7457611e68611e6e91611e61868590611941565b5190611a8b565b916107da565b90611e2e565b602092935060009150611ee090611ecf611eaa611ea586611e9e611e9988870161085a565b612dcd565b940161085a565b612dcd565b91611ec1611eb6610035565b938492888401611d5c565b868201810382520382610060565b611ed7610035565b91829182611dad565b039060025afa15611f0157611efe611ef9600051610507565b611dca565b90565b611db9565b60018060401b038111611f195760200290565b61004a565b611f2a611f2f91611f06565b610087565b90565b369037565b90611f55611f4483611f1e565b92611f4f8491611f06565b90611f32565b565b611f616004611f37565b90565b50600490565b90611f7482611f64565b811015611f82576020020190565b610824565b90565b611f9e611f99611fa392611f87565b610644565b61010b565b90565b60007f557365206a6163446f75626c652066756e6374696f6e20696e73746561640000910152565b611fdb601e6020926105b0565b611fe481611fa6565b0190565b611ffe9060208101906000818303910152611fce565b90565b1561200857565b612010610035565b62461bcd60e51b81528061202660048201611fe8565b0390fd5b61203961203f9193929361010b565b9261010b565b820391821161204a57565b6107e9565b92959390919561205d610ec1565b50612066610ec1565b5061206f610ec1565b508361208461207e6000610714565b9161010b565b1480612810575b61280257806120a361209d6000610714565b9161010b565b14806127e7575b6127db576120b6611f57565b9287886120c1611a63565b9081156127d6576120e692096120e1866120db6000610714565b90611f6a565b610d58565b876121036120fe866120f86000610714565b90611f6a565b61085a565b61210b611a63565b9081156127d157612130920961212b866121256001610647565b90611f6a565b610d58565b868761213a611a63565b9081156127cc5761215f920961215a86612154600261186e565b90611f6a565b610d58565b8661217c61217786612171600261186e565b90611f6a565b61085a565b612184611a63565b9081156127c7576121a992096121a48661219e6003611f8a565b90611f6a565b610d58565b6121b36004611f1e565b946121d06121cb866121c5600261186e565b90611f6a565b61085a565b6121d8611a63565b9081156127c2576121ed920960008701610d58565b612209612204856121fe6003611f8a565b90611f6a565b61085a565b612211611a63565b9081156127bd57612226920960208601610d58565b9061224361223e846122386000610714565b90611f6a565b61085a565b9061224c611a63565b9283156127b85761227f9361227a93612269920960408701610d58565b926122746001610647565b90611f6a565b61085a565b612287611a63565b9081156127b35761229c920960608301610d58565b926122b96122b4856122ae6000610714565b90611f6a565b61085a565b6122e66122e06122db6122d6886122d0600261186e565b90611f6a565b61085a565b61010b565b9161010b565b1415801561275d575b6122f890612001565b612300611f57565b9261231d61231886612312600261186e565b90611f6a565b61085a565b61234a612328611a63565b61234461233f896123396000610714565b90611f6a565b61085a565b9061202a565b612352611a63565b9081156127585761237792086123728661236c6000610714565b90611f6a565b610d58565b61239361238e866123886003611f8a565b90611f6a565b61085a565b6123c061239e611a63565b6123ba6123b5896123af6001610647565b90611f6a565b61085a565b9061202a565b6123c8611a63565b908115612753576123ed92086123e8866123e26001610647565b90611f6a565b610d58565b612409612404856123fe6000610714565b90611f6a565b61085a565b6124256124208661241a6000610714565b90611f6a565b61085a565b61242d611a63565b90811561274e57612452920961244d86612447600261186e565b90611f6a565b610d58565b61246e61246985612463600261186e565b90611f6a565b61085a565b61248a6124858661247f6000610714565b90611f6a565b61085a565b612492611a63565b908115612749576124b792096124b2866124ac6003611f8a565b90611f6a565b610d58565b6124d36124ce856124c86001610647565b90611f6a565b61085a565b6124ef6124ea866124e46001610647565b90611f6a565b61085a565b6124f7611a63565b918215612744570961252c61250a611a63565b6125266125218861251b6003611f8a565b90611f6a565b61085a565b9061202a565b612534611a63565b91821561273f5708612544611a63565b60029061256361255e896125586000610714565b90611f6a565b61085a565b61257f61257a89612574600261186e565b90611f6a565b61085a565b612587611a63565b91821561273a5709612597611a63565b908115612735576125aa6125b19461186e565b099061202a565b6125b9611a63565b9182156127305708946125de6125d9866125d36001610647565b90611f6a565b61085a565b6125fa6125f5836125ef6000610714565b90611f6a565b61085a565b6126166126118861260b600261186e565b90611f6a565b61085a565b61261e611a63565b91821561272b5709612638612631611a63565b899061202a565b612640611a63565b9182156127265708612650611a63565b91821561272157099061267d612678612667611a63565b926126726001610647565b90611f6a565b61085a565b9061269a6126958861268f6003611f8a565b90611f6a565b61085a565b6126a2611a63565b90811561271c576126b493099061202a565b906126bd611a63565b8015612717576126e2926126dd9208956126d76000610714565b90611f6a565b61085a565b91906126ec611a63565b91821561271257096126fc611a63565b91821561270d570992919291929190565b611a75565b611a75565b611a75565b611a75565b611a75565b611a75565b611a75565b611a75565b611a75565b611a75565b611a75565b611a75565b611a75565b611a75565b611a75565b611a75565b506122f861277d612778866127726001610647565b90611f6a565b61085a565b6127aa6127a461279f61279a896127946003611f8a565b90611f6a565b61085a565b61010b565b9161010b565b141590506122ef565b611a75565b611a75565b611a75565b611a75565b611a75565b611a75565b611a75565b611a75565b50509250919291929190565b50816127fc6127f66000610714565b9161010b565b146120aa565b925093945050919291929190565b508261282561281f6000610714565b9161010b565b1461208b565b90565b61284261283d6128479261282b565b610644565b61010b565b90565b6128546000610714565b90565b90565b61286e61286961287392612857565b610644565b61010b565b90565b9290612880610ec1565b50612889610ec1565b50612892610ec1565b50826128a76128a16000610714565b9161010b565b14612acb5783846128b6611a63565b918215612ac657099381826128c9611a63565b918215612ac157099084856128dc611a63565b918215612abc570990600490836128f1611a63565b918215612ab75709612901611a63565b918215612ab2576129119061282e565b099560039061291e611a63565b918215612aad5761292e90611f8a565b099061293861284a565b9080612942611a63565b918215612aa85709612952611a63565b918215612aa35709612962611a63565b918215612a9e5708948586612975611a63565b918215612a995709612985611a63565b829083612990611a63565b908115612a94576129a293089061202a565b6129aa611a63565b918215612a8f570895906129c66129bf611a63565b889061202a565b6129ce611a63565b918215612a8a57086129de611a63565b918215612a855709906129ef611a63565b600891806129fb611a63565b918215612a805709612a0b611a63565b908115612a7b57612a1e612a259461285a565b099061202a565b612a2d611a63565b918215612a7657089260029190612a42611a63565b918215612a715709612a52611a63565b918215612a6c57612a629061186e565b0992919291929190565b611a75565b611a75565b611a75565b611a75565b611a75565b611a75565b611a75565b611a75565b611a75565b611a75565b611a75565b611a75565b611a75565b611a75565b611a75565b611a75565b611a75565b611a75565b611a75565b9192919291929190565b9091612ae990612ae3611a39565b50612efb565b908182612af4611a63565b918215612b6557099081612b06611a63565b918215612b605709929190612b19611a63565b918215612b5b5709612b29611a63565b908115612b5657612b539209612b4a612b4061181c565b9360008501610d58565b60208301610d58565b90565b611a75565b611a75565b611a75565b611a75565b612b76612b7c9161010b565b9161010b565b908115612b87570490565b611a75565b929192612b97610ec1565b50612ba0610ec1565b50612ba9610ec1565b5080612bbe612bb86000610714565b9161010b565b14612c91579390612bcf6000610714565b93612bda6000610714565b93612be56001610647565b965b80612bfb612bf56000610714565b9161010b565b14612c855780612c0b6001610647565b16612c1f612c196000610714565b9161010b565b03612c59575b90612c3e612c479392612c38600261186e565b90612b6a565b93919091612876565b95919594909592959195949094612be7565b95612c3e95612c47939298612c75929190869085928c9461204f565b9891969096979192935050612c25565b50505050909291929190565b50929092919291929190565b612ca9612caf9161010b565b9161010b565b908115612cba570690565b611a75565b612cc7611a39565b50612d24612d06612cf8612cdd6000850161085a565b93612cf26020612ceb611a63565b920161085a565b9061202a565b612d00611a63565b90612c9d565b612d1b612d1161181c565b9360008501610d58565b60208301610d58565b90565b606090565b90612d37910161010b565b90565b90612d4c612d47836102a3565b610087565b918252565b369037565b90612d7b612d6383612d3a565b92602080612d7186936102a3565b9201910390612d51565b565b6001612d89910361010b565b90565b90565b612da3612d9e612da892612d8c565b610644565b61010b565b90565b612db7612dbd9161010b565b9161010b565b908115612dc8570490565b611a75565b612dd5612d27565b50612df2612de282613143565b612dec6001610647565b90612d2c565b90612dfc82612d56565b91612e05610ec1565b5060200182015b600115612e7057612e1f612e4b91612d7d565b916f181899199a1a9b1b9c1cb0b131b232b360811b600a82061a8353612e45600a612d8f565b90612dab565b80612e5f612e596000610714565b9161010b565b14612e6a5790612e0c565b50505b90565b5050612e6d565b60007f496e76616c6964206e756d626572000000000000000000000000000000000000910152565b612eac600e6020926105b0565b612eb581612e77565b0190565b612ecf9060208101906000818303910152612e9f565b90565b15612ed957565b612ee1610035565b62461bcd60e51b815280612ef760048201612eb9565b0390fd5b612f03610ec1565b5080612f18612f126000610714565b9161010b565b14158061300a575b80612fe2575b612f2f90612ed2565b612f396000610714565b612f436001610647565b90612f4c611a63565b91612f55610ec1565b505b83612f6b612f656000610714565b9161010b565b14612fdb57612f7b838590612b6a565b819291612f86611a63565b8291612f90611a63565b908115612fd657612fa293099061202a565b91612fab611a63565b8015612fd157612fca93612fc492089395809592610dc4565b9061202a565b9290612f57565b611a75565b611a75565b5091505090565b50612f2f612fee611a63565b613001612ffb6000610714565b9161010b565b14159050612f26565b508061302561301f61301a611a63565b61010b565b9161010b565b1415612f20565b90565b61304361303e6130489261302c565b610644565b61010b565b90565b90565b61306261305d6130679261304b565b610644565b61010b565b90565b90565b61308161307c6130869261306a565b610644565b61010b565b90565b90565b6130a061309b6130a592613089565b610644565b61010b565b90565b90565b6130bf6130ba6130c4926130a8565b610644565b61010b565b90565b90565b6130de6130d96130e3926130c7565b610644565b61010b565b90565b90565b6130fd6130f8613102926130e6565b610644565b61010b565b90565b90565b61311c61311761312192613105565b610644565b61010b565b90565b90565b61313b61313661314092613124565b610644565b61010b565b90565b61314b610ec1565b506131566000610714565b908061318561317f7a184f03e93ff9f4daa797ed6e38ed64bf6a1f01000000000000000061302f565b9161010b565b101561335d575b806131ad6131a76d04ee2d6d415b85acef810000000061306d565b9161010b565b1015613322575b806131ce6131c8662386f26fc100006130ab565b9161010b565b10156132ee575b806131ec6131e66305f5e1006130e9565b9161010b565b10156132bd575b80613208613202612710613108565b9161010b565b101561328e575b8061322361321d6064613127565b9161010b565b1015613260575b61323d613237600a612d8f565b9161010b565b1015613247575b90565b61325b906132556001610647565b90612d2c565b613244565b613277613288916132716064613127565b90612dab565b91613282600261186e565b90612d2c565b9061322a565b6132a66132b7916132a0612710613108565b90612dab565b916132b1600461282e565b90612d2c565b9061320f565b6132d76132e8916132d16305f5e1006130e9565b90612dab565b916132e2600861285a565b90612d2c565b906131f3565b61330b61331c91613305662386f26fc100006130ab565b90612dab565b9161331660106130ca565b90612d2c565b906131d5565b613346613357916133406d04ee2d6d415b85acef810000000061306d565b90612dab565b91613351602061308c565b90612d2c565b906131b4565b61338e61339f916133887a184f03e93ff9f4daa797ed6e38ed64bf6a1f01000000000000000061302f565b90612dab565b91613399604061304e565b90612d2c565b9061318c56fe60806040526004361015610013575b6116a1565b61001e60003561014d565b806303a507be1461014857806306a49fce146101435780630dd3849c1461013e578063200d2ed2146101395780632f5bb3361461013457806332e7c5bf1461012f5780633477ee2e1461012a578063477decc014610125578063494503d4146101205780636b7a524f1461011b5780636fecb623146101165780637a308a4c146101115780638b8fbd921461010c578063b3bf549514610107578063c21b486514610102578063c3926505146100fd578063c9e525df146100f8578063f446c1d0146100f35763fb7344d00361000e5761166c565b611373565b611307565b61128a565b611255565b6110f9565b611080565b61100f565b610f83565b610f30565b610e74565b610c43565b610b3f565b6108e5565b610885565b6104b2565b6103dc565b61033b565b6101f2565b60e01c90565b60405190565b600080fd5b600080fd5b600091031261016e57565b61015e565b90565b90565b90565b61019061018b61019592610173565b610179565b610176565b90565b6101c17f79be667ef9dcbbac55a06295ce870b07029bfcdb2dce28d959f2815b16f8179861017c565b90565b6101cc610198565b90565b6101d890610176565b9052565b91906101f0906000602085019401906101cf565b565b3461022257610202366004610163565b61021e61020d6101c4565b610215610153565b918291826101dc565b0390f35b610159565b5190565b60209181520190565b60200190565b5190565b60209181520190565b60005b83811061025b575050906000910152565b80602091830151818501520161024a565b601f801991011690565b61029561029e6020936102a39361028c8161023a565b9384809361023e565b95869101610247565b61026c565b0190565b906102b191610276565b90565b60200190565b906102ce6102c783610227565b809261022b565b90816102df60208302840194610234565b926000915b8383106102f357505050505090565b9091929394602061031561030f838560019503875289516102a7565b976102b4565b93019301919392906102e4565b61033891602082019160008184039101526102ba565b90565b3461036b5761034b366004610163565b610367610356611746565b61035e610153565b91829182610322565b0390f35b610159565b60001c90565b90565b61038561038a91610370565b610376565b90565b6103979054610379565b90565b6004906103b560016103ae6000850161038d565b930161038d565b90565b9160206103da9294936103d3604082019660008301906101cf565b01906101cf565b565b3461040d576103ec366004610163565b6103f461039a565b90610409610400610153565b928392836103b8565b0390f35b610159565b1c90565b60ff1690565b61042c9060086104319302610412565b610416565b90565b9061043f915461041c565b90565b61044f6003600090610434565b90565b634e487b7160e01b600052602160045260246000fd5b6004111561047257565b610452565b9061048182610468565b565b61048c90610477565b90565b61049890610483565b9052565b91906104b09060006020850194019061048f565b565b346104e2576104c2366004610163565b6104de6104cd610442565b6104d5610153565b9182918261049c565b0390f35b610159565b600080fd5b600080fd5b634e487b7160e01b600052604160045260246000fd5b906105119061026c565b810190811067ffffffffffffffff82111761052b57604052565b6104f1565b9061054361053c610153565b9283610507565b565b600080fd5b600080fd5b67ffffffffffffffff81116105675760208091020190565b6104f1565b600080fd5b61057a81610176565b0361058157565b600080fd5b9050359061059382610571565b565b91906040838203126105d1576105ca906105af6040610530565b936105bd8260008301610586565b6000860152602001610586565b6020830152565b6104ec565b91906080838203126106125761060b906105f06040610530565b936105fe8260008301610595565b6000860152604001610595565b6020830152565b6104ec565b9190610180838203126106c5576106be90610633610100610530565b936106418260008301610595565b60008601526106538260408301610595565b60208601526106658260808301610595565b60408601526106778260c08301610595565b606086015261068a826101008301610586565b608086015261069d826101208301610586565b60a08601526106b0826101408301610586565b60c086015261016001610586565b60e0830152565b6104ec565b91906102008382031261070757610700906106e56040610530565b936106f382600083016105d6565b6000860152608001610617565b6020830152565b6104ec565b9092919261072161071c8261054f565b610530565b9381855261020060208601920283019281841161076257915b8383106107475750505050565b60206102009161075784866106ca565b81520192019161073a565b61056c565b9080601f83011215610785578160206107829335910161070c565b90565b61054a565b919060c0838203126107ea576107e3906107a46080610530565b936107b28260008301610595565b60008601526107c48260408301610595565b60208601526107d68260808301610586565b604086015260a001610586565b6060830152565b6104ec565b91909160e081840312610844576108066040610530565b9260008201359167ffffffffffffffff831161083f5761082b82610838948301610767565b600086015260200161078a565b6020830152565b610545565b6104ec565b9060208282031261087a57600082013567ffffffffffffffff81116108755761087292016107ef565b90565b6104e7565b61015e565b60000190565b610898610893366004610849565b6123e5565b6108a0610153565b806108aa8161087f565b0390f35b90565b6108c56108c06108ca926108ae565b610179565b610176565b90565b6108d760076108b1565b90565b6108e26108cd565b90565b34610915576108f5366004610163565b6109116109006108da565b610908610153565b918291826101dc565b0390f35b610159565b906020828203126109345761093191600001610586565b90565b61015e565b634e487b7160e01b600052603260045260246000fd5b5490565b600052602060002090565b6109678161094f565b82101561098257610979600191610953565b91020190600090565b610939565b634e487b7160e01b600052600060045260246000fd5b634e487b7160e01b600052602260045260246000fd5b90600160028304921680156109d3575b60208310146109ce57565b61099d565b91607f16916109c3565b600052602060002090565b9060009291805490610a036109fc836109b3565b809461023e565b91600181169081600014610a5c5750600114610a1f575b505050565b610a2c91929394506109dd565b916000925b818410610a445750500190388080610a1a565b60018160209295939554848601520191019290610a31565b92949550505060ff1916825215156020020190388080610a1a565b90610a81916109e8565b90565b90610aa4610a9d92610a94610153565b93848092610a77565b0383610507565b565b90600010610aba57610ab790610a84565b90565b610987565b6002610aca8161094f565b821015610ae757610ae491610ade9161095e565b90610aa6565b90565b600080fd5b60209181520190565b610b14610b1d602093610b2293610b0b8161023a565b93848093610aec565b95869101610247565b61026c565b0190565b610b3c9160208201916000818403910152610af5565b90565b34610b6f57610b6b610b5a610b5536600461091a565b610abf565b610b62610153565b91829182610b26565b0390f35b610159565b67ffffffffffffffff8111610b8c5760208091020190565b6104f1565b90929192610ba6610ba182610b74565b610530565b938185526040602086019202830192818411610be557915b838310610bcb5750505050565b6020604091610bda8486610595565b815201920191610bbe565b61056c565b9080601f83011215610c0857816020610c0593359101610b91565b90565b61054a565b90602082820312610c3e57600082013567ffffffffffffffff8111610c3957610c369201610bea565b90565b6104e7565b61015e565b34610c7357610c6f610c5e610c59366004610c0d565b612813565b610c66610153565b918291826101dc565b0390f35b610159565b5490565b600052602060002090565b610c9081610c78565b821015610cab57610ca2600591610c7c565b91020190600090565b610939565b60018060a01b031690565b610cc7610ccc91610370565b610cb0565b90565b610cd99054610cbb565b90565b90610ce690610176565b9052565b610cf46040610530565b90565b90610d30610d276001610d08610cea565b94610d21610d186000830161038d565b60008801610cdc565b0161038d565b60208401610cdc565b565b610d3c6040610530565b90565b90610d78610d6f6001610d50610d32565b94610d69610d606000830161038d565b60008801610cdc565b0161038d565b60208401610cdc565b565b600690610d8682610c78565b811015610dbf57610d9691610c87565b50610da360008201610ccf565b91610dbc6003610db560018501610cf7565b9301610d3f565b90565b600080fd5b60018060a01b031690565b610dd890610dc4565b90565b610de490610dcf565b9052565b610df190610176565b9052565b90602080610e1993610e0f60008201516000860190610de8565b0151910190610de8565b565b90602080610e3f93610e3560008201516000860190610de8565b0151910190610de8565b565b606090610e6b610e729496959396610e6160a08401986000850190610ddb565b6020830190610df5565b0190610e1b565b565b34610ea757610ea3610e8f610e8a36600461091a565b610d7a565b610e9a939193610153565b93849384610e41565b0390f35b610159565b9060a080610f1893610ec660008201516000860190610de8565b610ed860208201516020860190610de8565b610eea60408201516040860190610de8565b610efc60608201516060860190610de8565b610f0e60808201516080860190610de8565b0151910190610de8565b565b9190610f2e90600060c08501940190610eac565b565b34610f6057610f40366004610163565b610f5c610f4b6129bb565b610f53610153565b91829182610f1a565b0390f35b610159565b600090610f806001610f796000850161038d565b930161038d565b90565b34610fb457610f93366004610163565b610f9b610f65565b90610fb0610fa7610153565b928392836103b8565b0390f35b610159565b90565b610fd0610fcb610fd592610fb9565b610179565b610176565b90565b6110017f483ada7726a3c4655da4fbfc0e1108a8fd17b448a68554199c47d08ffb10d4b8610fbc565b90565b61100c610fd8565b90565b3461103f5761101f366004610163565b61103b61102a611004565b611032610153565b918291826101dc565b0390f35b610159565b90565b61105b61105661106092611044565b610179565b610176565b90565b6110726401000003d019611047565b90565b61107d611063565b90565b346110b057611090366004610163565b6110ac61109b611075565b6110a3610153565b918291826101dc565b0390f35b610159565b91906040838203126110de57806110d26110db9260008601610586565b93602001610586565b90565b61015e565b91906110f790600060408501940190610df5565b565b3461112a5761112661111561110f3660046110b5565b90612a88565b61111d610153565b918291826110e3565b0390f35b610159565b5190565b60209181520190565b60200190565b61114b90610dcf565b9052565b906020806111739361116960008201516000860190610de8565b0151910190610de8565b565b906020806111999361118f60008201516000860190610de8565b0151910190610de8565b565b90606060406111d2936111b660008201516000860190611142565b6111c86020820151602086019061114f565b0151910190611175565b565b906111e18160a09361119b565b0190565b60200190565b906112086112026111fb8461112f565b8093611133565b9261113c565b9060005b8181106112195750505090565b90919261123261122c60019286516111d4565b946111e5565b910191909161120c565b61125291602082019160008184039101526111eb565b90565b3461128557611265366004610163565b611281611270612bbe565b611278610153565b9182918261123c565b0390f35b610159565b346112ba576112b66112a56112a036600461091a565b612cf8565b6112ad610153565b918291826110e3565b0390f35b610159565b90565b6112d66112d16112db926112bf565b610179565b610176565b90565b6112f970014551231950b75fc4402da1732fc9bebe196112c2565b90565b6113046112de565b90565b3461133757611317366004610163565b6113336113226112fc565b61132a610153565b918291826101dc565b0390f35b610159565b90565b61135361134e6113589261133c565b610179565b610176565b90565b611365600061133f565b90565b61137061135b565b90565b346113a357611383366004610163565b61139f61138e611368565b611396610153565b918291826101dc565b0390f35b610159565b5190565b60209181520190565b60200190565b5190565b60209181520190565b60200190565b90604060206113f3936113e96000820151600086019061114f565b015191019061114f565b565b9061016060e061148a936114116000820151600086019061114f565b6114236020820151604086019061114f565b6114356040820151608086019061114f565b611447606082015160c086019061114f565b61145a6080820151610100860190610de8565b61146d60a0820151610120860190610de8565b61148060c0820151610140860190610de8565b0151910190610de8565b565b90608060206114b1936114a7600082015160008601906113ce565b01519101906113f5565b565b906114c1816102009361148c565b0190565b60200190565b906114e86114e26114db846113bb565b80936113bf565b926113c8565b9060005b8181106114f95750505090565b90919261151261150c60019286516114b3565b946114c5565b91019190916114ec565b9060a06060611565936115376000820151600086019061114f565b6115496020820151604086019061114f565b61155b60408201516080860190610de8565b0151910190610de8565b565b906115a69060408061159b610100840161158960008801516000870190611142565b602087015185820360208701526114cb565b94015191019061151c565b90565b906115b391611567565b90565b60200190565b906115d06115c9836113a8565b80926113ac565b90816115e1602083028401946113b5565b926000915b8383106115f557505050505090565b90919293946020611617611611838560019503875289516115a9565b976115b6565b93019301919392906115e6565b906116509060208061164560408401600087015185820360008701526115bc565b940151910190610de8565b90565b6116699160208201916000818403910152611624565b90565b3461169c5761169861168761168236600461091a565b6133cd565b61168f610153565b91829182611653565b0390f35b610159565b600080fd5b606090565b67ffffffffffffffff81116116c35760208091020190565b6104f1565b906116da6116d5836116ab565b610530565b918252565b6116e890610a84565b90565b906116f58261094f565b6116fe816116c8565b9261170c6020850191610953565b6000915b83831061171d5750505050565b60016020819261172c856116df565b815201920192019190611710565b611743906116eb565b90565b61174e6116a6565b50611759600261173a565b90565b61177061176b61177592610dc4565b610179565b610dc4565b90565b6117819061175c565b90565b61178d90611778565b90565b9061179a90611784565b600052602052604060002090565b60ff1690565b6117ba6117bf91610370565b6117a8565b90565b6117cc90546117ae565b90565b60407f7920666f7220667572746865722064657461696c000000000000000000000000917f5468697320766f746572206973206e6f7420656c696769626c652c20706c656160008201527f736520636f6e73756c742074686520656c656374696f6e20617574686f72697460208201520152565b6118506054606092610aec565b611859816117cf565b0190565b6118739060208101906000818303910152611843565b90565b1561187d57565b611885610153565b62461bcd60e51b81528061189b6004820161185d565b0390fd5b151590565b60207f6572732063616e206f6e6c7920766f7465206f6e636500000000000000000000917f5468697320766f7465722068617320766f746564206265666f72652c20766f7460008201520152565b6118ff6036604092610aec565b611908816118a4565b0190565b61192290602081019060008183039101526118f2565b90565b1561192c57565b611934610153565b62461bcd60e51b81528061194a6004820161190c565b0390fd5b61195a61195f91610370565b610416565b90565b61196c905461194e565b90565b60007f456c656374696f6e206973206e6f7420696e20766f74696e6720737461746500910152565b6119a4601f602092610aec565b6119ad8161196f565b0190565b6119c79060208101906000818303910152611997565b90565b156119d157565b6119d9610153565b62461bcd60e51b8152806119ef600482016119b1565b0390fd5b60207f6d6174636820746865206e756d626572206f662063616e646964617465730000917f496e76616c6964206e756d626572206f6620766f7465732c2073686f756c642060008201520152565b611a4e603e604092610aec565b611a57816119f3565b0190565b611a719060208101906000818303910152611a41565b90565b15611a7b57565b611a83610153565b62461bcd60e51b815280611a9960048201611a5b565b0390fd5b6001611aa99101610176565b90565b90611ab6826113bb565b811015611ac7576020809102010190565b610939565b611ad590610cf7565b90565b60207f6564000000000000000000000000000000000000000000000000000000000000917f566f74652063697068657274657874206973206e6f742077656c6c2d666f726d60008201520152565b611b336022604092610aec565b611b3c81611ad8565b0190565b611b569060208101906000818303910152611b26565b90565b15611b6057565b611b68610153565b62461bcd60e51b815280611b7e60048201611b40565b0390fd5b90565b611b99611b94611b9e92611b82565b610179565b610176565b90565b60607f6461746500000000000000000000000000000000000000000000000000000000917f566f74652073756d206973206e6f7420657175616c20746f206f6e652c206d6560008201527f616e696e6720612062616c6c6f74206973206361737420666f72206d6f72652060208201527f7468616e206f6e652063616e646964617465206f72207a65726f2063616e646960408201520152565b611c486064608092610aec565b611c5181611ba1565b0190565b611c6b9060208101906000818303910152611c3b565b90565b15611c7557565b611c7d610153565b62461bcd60e51b815280611c9360048201611c55565b0390fd5b611ca16060610530565b90565b90611cae90610dcf565b9052565b52565b52565b90565b600052602060002090565b5490565b611cd381611cc6565b821015611cee57611ce5600891611cbb565b91020190600090565b610939565b611cfd9051610dcf565b90565b60001b90565b90611d1760018060a01b0391611d00565b9181191691161790565b90565b90611d39611d34611d4092611784565b611d21565b8254611d06565b9055565b5190565b5490565b634e487b7160e01b600052601160045260246000fd5b611d71611d7791939293610176565b92610176565b91611d83838202610176565b928184041490151715611d9257565b611d4c565b611da2906010611d62565b90565b600052602060002090565b1b90565b91906008611dd0910291611dca60001984611db0565b92611db0565b9181191691161790565b611dee611de9611df392610176565b610179565b610176565b90565b90565b9190611e0f611e0a611e1793611dda565b611df6565b908354611db4565b9055565b600090565b611e3291611e2c611e1b565b91611df9565b565b60006001611e4e92611e4883808301611e20565b01611e20565b565b90600003611e6357611e6190611e34565b565b610987565b60006002611e8292611e7c83808301611e50565b01611e50565b565b90600003611e9757611e9590611e68565b565b610987565b6000600b611f0492611eb083808301611e50565b611ebd8360028301611e50565b611eca8360048301611e50565b611ed78360068301611e50565b611ee48360088301611e20565b611ef18360098301611e20565b611efe83600a8301611e20565b01611e20565b565b90600003611f1957611f1790611e9c565b565b610987565b60006004611f3892611f3283808301611e84565b01611f06565b565b90600003611f4d57611f4b90611f1e565b565b610987565b5b818110611f5e575050565b80611f6c6000601093611f3a565b01611f53565b9091828110611f81575b505050565b611f9f611f99611f93611faa95611d97565b92611d97565b92611da5565b918201910190611f52565b388080611f7c565b90680100000000000000008111611fdb5781611fd0611fd993611d48565b90828155611f72565b565b6104f1565b5190565b5190565b5190565b611ff69051610176565b90565b9061200660001991611d00565b9181191691161790565b9061202561202061202c92611dda565b611df6565b8254611ff9565b9055565b9061205d60206001612063946120556000820161204f60008801611fec565b90612010565b019201611fec565b90612010565b565b9061206f91612030565b565b9061209e602060026120a4946120966000820161209060008801611fe8565b90612065565b019201611fe8565b90612065565b565b906120b091612071565b565b5190565b9061217960e0600b61217f946120db600082016120d560008801611fe8565b90612065565b6120f4600282016120ee60208801611fe8565b90612065565b61210d6004820161210760408801611fe8565b90612065565b6121266006820161212060608801611fe8565b90612065565b61213f6008820161213960808801611fec565b90612010565b6121586009820161215260a08801611fec565b90612010565b612171600a820161216b60c08801611fec565b90612010565b019201611fec565b90612010565b565b9061218b916120b6565b565b906121ba602060046121c0946121b2600082016121ac60008801611fe4565b906120a6565b0192016120b2565b90612181565b565b906121cc9161218d565b565b6121f36121ed6121dd846113bb565b936121e88585611fb2565b6113c8565b91611da5565b6000915b8383106122045750505050565b601060208261221d612217600195611fe0565b866121c2565b019201920191906121f7565b90612233916121ce565b565b5190565b906122986060600561229e9461225e6000820161225860008801611fe8565b90612065565b6122776002820161227160208801611fe8565b90612065565b6122906004820161228a60408801611fec565b90612010565b019201611fec565b90612010565b565b906122aa91612239565b565b906122f2604060026122f8946122d1600082016122cb60008801611cf3565b90611d24565b6122ea600182016122e460208801611d44565b90612229565b019201612235565b906122a0565b565b919061230b57612309916122ac565b565b610987565b9081549168010000000000000000831015612340578261233891600161233e95018155611cca565b906122fa565b565b6104f1565b9061235160ff91611d00565b9181191691161790565b6123649061189f565b90565b90565b9061237f61237a6123869261235b565b612367565b8254612345565b9055565b906123c9906040806123be61010084016123ac60008801516000870190611142565b602087015185820360208701526114cb565b94015191019061151c565b90565b6123e2916020820191600081840391015261238a565b90565b906124026123fd6123f860083390611790565b6117c2565b611876565b61242761242261241c61241760093390611790565b6117c2565b1561189f565b611925565b61244d6124346003611962565b6124476124416001610477565b91610477565b146119ca565b61247e61245d60008401516113bb565b61247861247261246d600261094f565b610176565b91610176565b14611a74565b612488600061133f565b5b806124a86124a261249d60008701516113bb565b610176565b91610176565b10156124fe576124f9906124f46124ef60006124c8818801518590611aac565b51015160206124dc60008901518690611aac565b5101516124e96004611acc565b916136aa565b611b59565b611a9d565b612489565b506000612517818401516125118361133f565b90611aac565b5101516125246001611b85565b5b8061254461253e61253960008801516113bb565b610176565b91610176565b10156125ab576125a6906125726000840151600080612567818a01518690611aac565b510151015190613b84565b600084015261259c602084015160206000612591818a01518690611aac565b510151015190613b84565b6020840152611a9d565b612525565b506125d66125db9193929360208401516125c5600261094f565b906125d06004611acc565b92613cfa565b611c6e565b612615339161260c60206000830151920151916126036125f9611c97565b9560008701611ca4565b60208501611cb2565b60408301611cb5565b6126296126226007611cb8565b8290612310565b61263f600161263a60093390611790565b61236a565b6126757f9fa7b96c93da79a8f3157d252f8f6d80dffd40993e53a8a4db2ef4db6acddd5b9161266c610153565b918291826123cc565b0390a1565b5190565b60007f4e6f20706f696e74732070726f76696465640000000000000000000000000000910152565b6126b36012602092610aec565b6126bc8161267e565b0190565b6126d690602081019060008183039101526126a6565b90565b156126e057565b6126e8610153565b62461bcd60e51b8152806126fe600482016126c0565b0390fd5b9061270c8261267a565b81101561271d576020809102010190565b610939565b905090565b61274c6127439260209261273a8161023a565b94858093612722565b93849101610247565b0190565b60007f2c00000000000000000000000000000000000000000000000000000000000000910152565b61278460018092612722565b61278d81612750565b0190565b6127a26127a7916127ad9493612727565b612778565b90612727565b90565b5190565b905090565b6127de6127d5926020926127cc816127b0565b948580936127b4565b93849101610247565b0190565b6127eb916127b9565b90565b6127f6610153565b3d6000823e3d90fd5b61280b61281091610370565b611dda565b90565b9061281c611e1b565b506128426128298361267a565b61283c612836600061133f565b91610176565b116126d9565b61285682612850600061133f565b90612702565b516128616001611b85565b905b8161287e6128786128738761267a565b610176565b91610176565b10156128a95761289d6128a391612896868590612702565b5190613b84565b91611a9d565b90612863565b602092935060009150612915906129046128df6128da866128d36128ce888701611fec565b6140a5565b9401611fec565b6140a5565b916128f66128eb610153565b938492888401612791565b868201810382520382610507565b61290c610153565b918291826127e2565b039060025afa156129365761293361292e600051611d00565b6127ff565b90565b6127ee565b61294560c0610530565b90565b600090565b61295561293b565b906020808080808087612966612948565b815201612971612948565b81520161297c612948565b815201612987612948565b815201612992612948565b81520161299d612948565b81525050565b6129ab61294d565b90565b6129b860c0610530565b90565b6129c36129a3565b506129cc610198565b612a476129d7610fd8565b612a3e6129e261135b565b612a356129ed6108cd565b612a2c6129f8611063565b93612a23612a046112de565b97612a1a612a106129ae565b9b60008d01610cdc565b60208b01610cdc565b60408901610cdc565b60608701610cdc565b60808501610cdc565b60a08301610cdc565b90565b612a52610cea565b9060208083612a5f612948565b815201612a6a612948565b81525050565b612a78612a4a565b90565b612a856040610530565b90565b612ab490612a94612a70565b5091612aab612aa1612a7b565b9360008501610cdc565b60208301610cdc565b90565b606090565b67ffffffffffffffff8111612ad45760208091020190565b6104f1565b90612aeb612ae683612abc565b610530565b918252565b52565b52565b612b006060610530565b90565b90612b54612b4b6003612b14612af6565b94612b2d612b2460008301610ccf565b60008801611ca4565b612b45612b3c60018301610cf7565b60208801612af0565b01610d3f565b60408401612af3565b565b612b5f90612b03565b90565b90612b6c82610c78565b612b7581612ad9565b92612b836020850191610c7c565b6000915b838310612b945750505050565b60056020600192612ba485612b56565b815201920192019190612b87565b612bbb90612b62565b90565b612bc6612ab7565b50612bd16006612bb2565b90565b60207f2031000000000000000000000000000000000000000000000000000000000000917f496e76616c696420766f74652c2063616e206f6e6c7920636173742030206f7260008201520152565b612c2f6022604092610aec565b612c3881612bd4565b0190565b612c529060208101906000818303910152612c22565b90565b15612c5c57565b612c64610153565b62461bcd60e51b815280612c7a60048201612c3c565b0390fd5b60007f496e76616c696420766f74650000000000000000000000000000000000000000910152565b612cb3600c602092610aec565b612cbc81612c7e565b0190565b612cd69060208101906000818303910152612ca6565b90565b90565b612cf0612ceb612cf592612cd9565b610179565b610176565b90565b612d00612a70565b5080612d15612d0f600061133f565b91610176565b148015612daf575b612d2690612c55565b80612d3a612d34600061133f565b91610176565b14600014612d505750612d4d6000611acc565b90565b612d63612d5d6001611b85565b91610176565b14600014612d8d57612d8a6002612d84612d7e600092612cdc565b91611acc565b9061414f565b90565b612d95610153565b62461bcd60e51b815280612dab60048201612cc0565b0390fd5b50612d2681612dc7612dc16001611b85565b91610176565b149050612d1d565b612dd96040610530565b90565b606090565b612de9612dcf565b9060208083612df6612ddc565b815201612e01612948565b81525050565b612e0f612de1565b90565b67ffffffffffffffff8111612e3057612e2c60209161026c565b0190565b6104f1565b90612e47612e4283612e12565b610530565b918252565b60007f203e3e0000000000000000000000000000000000000000000000000000000000910152565b612e7e6003612e35565b90612e8b60208301612e4c565b565b612e95612e74565b90565b5490565b67ffffffffffffffff8111612eb45760208091020190565b6104f1565b90612ecb612ec683612e9c565b610530565b918252565b612eda6060610530565b90565b600090565b606090565b612ef16080610530565b90565b612efc612a4a565b90565b612f07612ee7565b90602080808085612f16612ef4565b815201612f21612ef4565b815201612f2c612948565b815201612f37612948565b81525050565b612f45612eff565b90565b612f50612ed0565b906020808084612f5e612edd565b815201612f69612ee2565b815201612f74612f3d565b81525050565b612f82612f48565b90565b60005b828110612f9457505050565b602090612f9f612f7a565b8184015201612f88565b90612fce612fb683612eb9565b92602080612fc48693612e9c565b9201910390612f85565b565b612fda6040610530565b90565b52565b90565b612ff7612ff2612ffc92612fe0565b610179565b610176565b90565b60007f50616765206f7574206f662072616e6765000000000000000000000000000000910152565b6130346011602092610aec565b61303d81612fff565b0190565b6130579060208101906000818303910152613027565b90565b1561306157565b613069610153565b62461bcd60e51b81528061307f60048201613041565b0390fd5b61309261309891939293610176565b92610176565b82039182116130a357565b611d4c565b6130b76130bd91939293610176565b92610176565b82018092116130c857565b611d4c565b600052602060002090565b6130e181612e98565b8210156130fc576130f36008916130cd565b91020190600090565b610939565b9061310b826113a8565b81101561311c576020809102010190565b610939565b9061313361312e8361054f565b610530565b918252565b6131426040610530565b90565b9061317e6131756002613156613138565b9461316f61316660008301610cf7565b60008801612af0565b01610cf7565b60208401612af0565b565b52565b61318e610100610530565b90565b9061325a613251600b6131a2613183565b946131bb6131b260008301610cf7565b60008801612af0565b6131d36131ca60028301610cf7565b60208801612af0565b6131eb6131e260048301610cf7565b60408801612af0565b6132036131fa60068301610cf7565b60608801612af0565b61321b6132126008830161038d565b60808801610cdc565b61323361322a6009830161038d565b60a08801610cdc565b61324b613242600a830161038d565b60c08801610cdc565b0161038d565b60e08401610cdc565b565b52565b6132696040610530565b90565b906132a561329c600461327d61325f565b9461329661328d60008301613145565b60008801613180565b01613191565b6020840161325c565b565b6132b09061326c565b90565b906132bd82611d48565b6132c681613121565b926132d46020850191611da5565b6000915b8383106132e55750505050565b601060206001926132f5856132a7565b8152019201920191906132d8565b9061336c6133636005613314612ee7565b9461332d61332460008301610cf7565b60008801612af0565b61334561333c60028301610cf7565b60208801612af0565b61335d6133546004830161038d565b60408801610cdc565b0161038d565b60608401610cdc565b565b906133bf6133b6600261337f612ed0565b9461339861338f60008301610ccf565b60008801611ca4565b6133b06133a7600183016132b3565b60208801611cb2565b01613303565b60408401611cb5565b565b6133ca9061336e565b90565b906133d6612e07565b506133e8336133e3612e8d565b6141c0565b6133f26007612e98565b6134056133ff600061133f565b91610176565b1461354d576134146032612fe3565b61346361345c61342e6134276007612e98565b8490614224565b9461344c8161344561343f89610176565b91610176565b111561305a565b6134566001611b85565b90613083565b8290611d62565b9061346f8282906130a8565b61348a61348461347f6007612e98565b610176565b91610176565b1160001461353e575061349d6007612e98565b5b916134b26134ad848490613083565b612fa9565b93825b806134c86134c287610176565b91610176565b10156135135761350e906135076134e1600783906130d8565b50886134f76134f1858a90613083565b926133c1565b6135018383613101565b52613101565b5150611a9d565b6134b5565b5092509261353b915091613532613528612fd0565b9360008501612fdd565b60208301610cdc565b90565b61354890826130a8565b61349e565b905061356161355c600061133f565b612fa9565b61358c613583600061357e613574612fd0565b9460008601612fdd565b61133f565b60208301610cdc565b90565b600090565b906135a66135a183610b74565b610530565b918252565b60005b8281106135ba57505050565b6020906135c5612ef4565b81840152016135ae565b906135f46135dc83613594565b926020806135ea8693610b74565b92019103906135ab565b565b90565b61360d613608613612926135f6565b610179565b610176565b90565b90565b61362c61362761363192613615565b610179565b610176565b90565b90565b61364b61364661365092613634565b610179565b610176565b90565b90565b61366a61366561366f92613653565b610179565b610176565b90565b634e487b7160e01b600052601260045260246000fd5b61369461369a91610176565b91610176565b9081156136a5570690565b613672565b6136b261358f565b506136d26136c260c08401611fec565b6136cc6000611acc565b9061414f565b6136fa60008401516136f46136e960808701611fec565b60008601519061414f565b90613b84565b61370660008301611fec565b61372361371d61371860008501611fec565b610176565b91610176565b1415918215613b50575b5050613b485761375261374260e08401611fec565b61374c6000611acc565b9061414f565b61377a602084015161377461376960a08701611fec565b60008601519061414f565b90613b84565b61378660008301611fec565b6137a361379d61379860008501611fec565b610176565b91610176565b1415918215613b14575b5050613b0c576137c96137c260c08401611fec565b849061414f565b61380c60408401516138066137e060808701611fec565b61380060208701516137fa6137f5600061133f565b612cf8565b9061427b565b9061414f565b90613b84565b61381860008301611fec565b61383561382f61382a60008501611fec565b610176565b91610176565b1415918215613ad8575b5050613ad05761385b61385460e08401611fec565b849061414f565b61389e606084015161389861387260a08701611fec565b613892602087015161388c6138876001611b85565b612cf8565b9061427b565b9061414f565b90613b84565b6138aa60008301611fec565b6138c76138c16138bc60008501611fec565b610176565b91610176565b1415918215613a9c575b5050613a94576020613973916139196138f26138ed60076108b1565b6135cf565b95613913879160009061390d6139078361133f565b85612702565b5261133f565b90612702565b51506139496000820151613943879160019061393d61393783611b85565b85612702565b52611b85565b90612702565b5150015161396d849160029061396761396183612cdc565b85612702565b52612cdc565b90612702565b51506139a3600082015161399d8491600390613997613991836135f9565b85612702565b526135f9565b90612702565b51506139d360408201516139cd84916004906139c76139c183613618565b85612702565b52613618565b90612702565b5150613a0360208201516139fd84916005906139f76139f183613637565b85612702565b52613637565b90612702565b5150613a336060820151613a2d8491600690613a27613a2183613656565b85612702565b52613656565b90612702565b5150613a4d60a0613a4660808401611fec565b9201611fec565b613a556112de565b908115613a8f57613a72613a8592613a8092613a8b950894612813565b613a7a6112de565b90613688565b610176565b91610176565b1490565b613672565b505050600090565b613ac7919250613abc6020613ab581613ac19401611fec565b9401611fec565b610176565b91610176565b141538806138d1565b505050600090565b613b03919250613af86020613af181613afd9401611fec565b9401611fec565b610176565b91610176565b1415388061383f565b505050600090565b613b3f919250613b346020613b2d81613b399401611fec565b9401611fec565b610176565b91610176565b141538806137ad565b505050600090565b613b7b919250613b706020613b6981613b759401611fec565b9401611fec565b610176565b91610176565b1415388061372d565b90613b8d612a70565b50613b98600061133f565b50613ba3600061133f565b50613bae600061133f565b50613bbb60008301611fec565b613bd8613bd2613bcd60008501611fec565b610176565b91610176565b14600014613c9d57613bf76020613bf0818501611fec565b9201611fec565b613bff611063565b918215613c985708613c1a613c14600061133f565b91610176565b14600014613c5b57506000613c58613c4f6000613c4a613c41613c3b612a7b565b9561133f565b60008601610cdc565b61133f565b60208301610cdc565b90565b613c8a81613c7a6020613c736000613c959601611fec565b9201611fec565b613c846001611b85565b91614b9b565b90915b919091614dfa565b90565b613672565b81613cf391613cbd6020613cb66000613c959701611fec565b9301611fec565b906001613cd86020613cd160008501611fec565b9301611fec565b92613ced613ce7600193611b85565b92611b85565b946143a0565b9091613c8d565b9291613d0461358f565b50613d24613d1460608401611fec565b613d1e6000611acc565b9061414f565b613d4c6000840151613d46613d3b60408701611fec565b60008901519061414f565b90613b84565b613d5860008301611fec565b613d75613d6f613d6a60008501611fec565b610176565b91610176565b1415918215613fe2575b5050613fd957613e1a613d9e613d9760608501611fec565b859061414f565b91613e14602085015191613e0e613db760408801611fec565b91613e0860208b015191613e02613dea613dd9613dd46001611b85565b612cf8565b92613de46001611b85565b90613083565b613dfc613df7600061133f565b612cf8565b9061414f565b90613b84565b9061427b565b9061414f565b90613b84565b613e2660008301611fec565b613e43613e3d613e3860008501611fec565b610176565b91610176565b1415918215613fa5575b5050613f9d57613f8e613f80613f7a613f6c6040613f9395613f046020613ea59a613eab613f999b613e87613e826005613637565b6135cf565b9d8e91600090613e9f613e998361133f565b85612702565b5261133f565b90612702565b5150613eda8c613ed46000840151600190613ece613ec883611b85565b85612702565b52611b85565b90612702565b51500151613efe8b91600290613ef8613ef283612cdc565b85612702565b52612cdc565b90612702565b5150613f346000820151613f2e8b91600390613f28613f22836135f9565b85612702565b526135f9565b90612702565b5150613f646020820151613f5e8b91600490613f58613f5283613618565b85612702565b52613618565b90612702565b515001611fec565b613f746112de565b90613688565b94612813565b613f886112de565b90613688565b610176565b91610176565b1490565b505050600090565b613fd0919250613fc56020613fbe81613fca9401611fec565b9401611fec565b610176565b91610176565b14153880613e4d565b50505050600090565b61400d9192506140026020613ffb816140079401611fec565b9401611fec565b610176565b91610176565b14153880613d7f565b606090565b906140269101610176565b90565b369037565b9061405361403b83612e35565b926020806140498693612e12565b9201910390614029565b565b60016140619103610176565b90565b90565b61407b61407661408092614064565b610179565b610176565b90565b61408f61409591610176565b91610176565b9081156140a0570490565b613672565b6140ad614016565b506140ca6140ba82614fa6565b6140c46001611b85565b9061401b565b906140d48261402e565b916140dd611e1b565b5060200182015b600115614148576140f761412391614055565b916f181899199a1a9b1b9c1cb0b131b232b360811b600a82061a835361411d600a614067565b90614083565b80614137614131600061133f565b91610176565b1461414257906140e4565b50505b90565b5050614145565b6141969161418a9161415f612a70565b5090614179602061417260008401611fec565b9201611fec565b906141846001611b85565b92615208565b91909190919091614dfa565b90565b929160206141b66141be9360408701908782036000890152610af5565b940190610ddb565b565b906141fb614200926141ec6141d3610153565b93849260046020850163319af33360e01b815201614199565b60208201810382520382610507565b615319565b565b61420e61421491610176565b91610176565b90811561421f570490565b613672565b9061424390614231611e1b565b5061423d838290614202565b92613688565b614256614250600061133f565b91610176565b14600014614262575b90565b614276906142706001611b85565b906130a8565b61425f565b6142906142969261428a612a70565b5061532e565b90613b84565b90565b67ffffffffffffffff81116142ae5760200290565b6104f1565b6142bf6142c491614299565b610530565b90565b369037565b906142ea6142d9836142b3565b926142e48491614299565b906142c7565b565b6142f660046142cc565b90565b50600490565b90614309826142f9565b811015614317576020020190565b610939565b60007f557365206a6163446f75626c652066756e6374696f6e20696e73746561640000910152565b614351601e602092610aec565b61435a8161431c565b0190565b6143749060208101906000818303910152614344565b90565b1561437e57565b614386610153565b62461bcd60e51b81528061439c6004820161435e565b0390fd5b9295939091956143ae611e1b565b506143b7611e1b565b506143c0611e1b565b50836143d56143cf600061133f565b91610176565b1480614b61575b614b5357806143f46143ee600061133f565b91610176565b1480614b38575b614b2c576144076142ec565b928788614412611063565b908115614b275761443792096144328661442c600061133f565b906142ff565b610cdc565b8761445461444f86614449600061133f565b906142ff565b611fec565b61445c611063565b908115614b2257614481920961447c866144766001611b85565b906142ff565b610cdc565b868761448b611063565b908115614b1d576144b092096144ab866144a56002612cdc565b906142ff565b610cdc565b866144cd6144c8866144c26002612cdc565b906142ff565b611fec565b6144d5611063565b908115614b18576144fa92096144f5866144ef60036135f9565b906142ff565b610cdc565b61450460046142b3565b9461452161451c866145166002612cdc565b906142ff565b611fec565b614529611063565b908115614b135761453e920960008701610cdc565b61455a6145558561454f60036135f9565b906142ff565b611fec565b614562611063565b908115614b0e57614577920960208601610cdc565b9061459461458f84614589600061133f565b906142ff565b611fec565b9061459d611063565b928315614b09576145d0936145cb936145ba920960408701610cdc565b926145c56001611b85565b906142ff565b611fec565b6145d8611063565b908115614b04576145ed920960608301610cdc565b9261460a614605856145ff600061133f565b906142ff565b611fec565b61463761463161462c614627886146216002612cdc565b906142ff565b611fec565b610176565b91610176565b14158015614aae575b61464990614377565b6146516142ec565b9261466e614669866146636002612cdc565b906142ff565b611fec565b61469b614679611063565b6146956146908961468a600061133f565b906142ff565b611fec565b90613083565b6146a3611063565b908115614aa9576146c892086146c3866146bd600061133f565b906142ff565b610cdc565b6146e46146df866146d960036135f9565b906142ff565b611fec565b6147116146ef611063565b61470b614706896147006001611b85565b906142ff565b611fec565b90613083565b614719611063565b908115614aa45761473e9208614739866147336001611b85565b906142ff565b610cdc565b61475a6147558561474f600061133f565b906142ff565b611fec565b6147766147718661476b600061133f565b906142ff565b611fec565b61477e611063565b908115614a9f576147a3920961479e866147986002612cdc565b906142ff565b610cdc565b6147bf6147ba856147b46002612cdc565b906142ff565b611fec565b6147db6147d6866147d0600061133f565b906142ff565b611fec565b6147e3611063565b908115614a9a576148089209614803866147fd60036135f9565b906142ff565b610cdc565b61482461481f856148196001611b85565b906142ff565b611fec565b61484061483b866148356001611b85565b906142ff565b611fec565b614848611063565b918215614a95570961487d61485b611063565b6148776148728861486c60036135f9565b906142ff565b611fec565b90613083565b614885611063565b918215614a905708614895611063565b6002906148b46148af896148a9600061133f565b906142ff565b611fec565b6148d06148cb896148c56002612cdc565b906142ff565b611fec565b6148d8611063565b918215614a8b57096148e8611063565b908115614a86576148fb61490294612cdc565b0990613083565b61490a611063565b918215614a8157089461492f61492a866149246001611b85565b906142ff565b611fec565b61494b61494683614940600061133f565b906142ff565b611fec565b6149676149628861495c6002612cdc565b906142ff565b611fec565b61496f611063565b918215614a7c5709614989614982611063565b8990613083565b614991611063565b918215614a7757086149a1611063565b918215614a725709906149ce6149c96149b8611063565b926149c36001611b85565b906142ff565b611fec565b906149eb6149e6886149e060036135f9565b906142ff565b611fec565b6149f3611063565b908115614a6d57614a05930990613083565b90614a0e611063565b8015614a6857614a3392614a2e920895614a28600061133f565b906142ff565b611fec565b9190614a3d611063565b918215614a635709614a4d611063565b918215614a5e570992919291929190565b613672565b613672565b613672565b613672565b613672565b613672565b613672565b613672565b613672565b613672565b613672565b613672565b613672565b613672565b613672565b613672565b50614649614ace614ac986614ac36001611b85565b906142ff565b611fec565b614afb614af5614af0614aeb89614ae560036135f9565b906142ff565b611fec565b610176565b91610176565b14159050614640565b613672565b613672565b613672565b613672565b613672565b613672565b613672565b613672565b50509250919291929190565b5081614b4d614b47600061133f565b91610176565b146143fb565b925093945050919291929190565b5082614b76614b70600061133f565b91610176565b146143dc565b90565b614b93614b8e614b9892614b7c565b610179565b610176565b90565b9290614ba5611e1b565b50614bae611e1b565b50614bb7611e1b565b5082614bcc614bc6600061133f565b91610176565b14614df0578384614bdb611063565b918215614deb5709938182614bee611063565b918215614de65709908485614c01611063565b918215614de157099060049083614c16611063565b918215614ddc5709614c26611063565b918215614dd757614c3690613618565b0995600390614c43611063565b918215614dd257614c53906135f9565b0990614c5d61135b565b9080614c67611063565b918215614dcd5709614c77611063565b918215614dc85709614c87611063565b918215614dc35708948586614c9a611063565b918215614dbe5709614caa611063565b829083614cb5611063565b908115614db957614cc7930890613083565b614ccf611063565b918215614db457089590614ceb614ce4611063565b8890613083565b614cf3611063565b918215614daf5708614d03611063565b918215614daa570990614d14611063565b60089180614d20611063565b918215614da55709614d30611063565b908115614da057614d43614d4a94614b7f565b0990613083565b614d52611063565b918215614d9b57089260029190614d67611063565b918215614d965709614d77611063565b918215614d9157614d8790612cdc565b0992919291929190565b613672565b613672565b613672565b613672565b613672565b613672565b613672565b613672565b613672565b613672565b613672565b613672565b613672565b613672565b613672565b613672565b613672565b613672565b613672565b9192919291929190565b9091614e0e90614e08612a70565b5061541a565b908182614e19611063565b918215614e8a57099081614e2b611063565b918215614e855709929190614e3e611063565b918215614e805709614e4e611063565b908115614e7b57614e789209614e6f614e65612a7b565b9360008501610cdc565b60208301610cdc565b90565b613672565b613672565b613672565b613672565b90565b614ea6614ea1614eab92614e8f565b610179565b610176565b90565b90565b614ec5614ec0614eca92614eae565b610179565b610176565b90565b90565b614ee4614edf614ee992614ecd565b610179565b610176565b90565b90565b614f03614efe614f0892614eec565b610179565b610176565b90565b90565b614f22614f1d614f2792614f0b565b610179565b610176565b90565b90565b614f41614f3c614f4692614f2a565b610179565b610176565b90565b90565b614f60614f5b614f6592614f49565b610179565b610176565b90565b90565b614f7f614f7a614f8492614f68565b610179565b610176565b90565b90565b614f9e614f99614fa392614f87565b610179565b610176565b90565b614fae611e1b565b50614fb9600061133f565b9080614fe8614fe27a184f03e93ff9f4daa797ed6e38ed64bf6a1f010000000000000000614e92565b91610176565b10156151c0575b8061501061500a6d04ee2d6d415b85acef8100000000614ed0565b91610176565b1015615185575b8061503161502b662386f26fc10000614f0e565b91610176565b1015615151575b8061504f6150496305f5e100614f4c565b91610176565b1015615120575b8061506b615065612710614f6b565b91610176565b10156150f1575b806150866150806064614f8a565b91610176565b10156150c3575b6150a061509a600a614067565b91610176565b10156150aa575b90565b6150be906150b86001611b85565b9061401b565b6150a7565b6150da6150eb916150d46064614f8a565b90614083565b916150e56002612cdc565b9061401b565b9061508d565b61510961511a91615103612710614f6b565b90614083565b916151146004613618565b9061401b565b90615072565b61513a61514b916151346305f5e100614f4c565b90614083565b916151456008614b7f565b9061401b565b90615056565b61516e61517f91615168662386f26fc10000614f0e565b90614083565b916151796010614f2d565b9061401b565b90615038565b6151a96151ba916151a36d04ee2d6d415b85acef8100000000614ed0565b90614083565b916151b46020614eef565b9061401b565b90615017565b6151f1615202916151eb7a184f03e93ff9f4daa797ed6e38ed64bf6a1f010000000000000000614e92565b90614083565b916151fc6040614eb1565b9061401b565b90614fef565b929192615213611e1b565b5061521c611e1b565b50615225611e1b565b508061523a615234600061133f565b91610176565b1461530d57939061524b600061133f565b93615256600061133f565b936152616001611b85565b965b80615277615271600061133f565b91610176565b1461530157806152876001611b85565b1661529b615295600061133f565b91610176565b036152d5575b906152ba6152c393926152b46002612cdc565b90614202565b93919091614b9b565b95919594909592959195949094615263565b956152ba956152c39392986152f1929190869085928c946143a0565b98919690969791929350506152a1565b50505050909291929190565b50929092919291929190565b61532c906153276001615577565b615599565b565b615336612a70565b5061539361537561536761534c60008501611fec565b93615361602061535a611063565b9201611fec565b90613083565b61536f611063565b90613688565b61538a615380612a7b565b9360008501610cdc565b60208301610cdc565b90565b60007f496e76616c6964206e756d626572000000000000000000000000000000000000910152565b6153cb600e602092610aec565b6153d481615396565b0190565b6153ee90602081019060008183039101526153be565b90565b156153f857565b615400610153565b62461bcd60e51b815280615416600482016153d8565b0390fd5b615422611e1b565b5080615437615431600061133f565b91610176565b141580615529575b80615501575b61544e906153f1565b615458600061133f565b6154626001611b85565b9061546b611063565b91615474611e1b565b505b8361548a615484600061133f565b91610176565b146154fa5761549a838590614202565b8192916154a5611063565b82916154af611063565b9081156154f5576154c1930990613083565b916154ca611063565b80156154f0576154e9936154e392089395809592611d62565b90613083565b9290615476565b613672565b613672565b5091505090565b5061544e61550d611063565b61552061551a600061133f565b91610176565b14159050615445565b508061554461553e615539611063565b610176565b91610176565b141561543f565b6a636f6e736f6c652e6c6f6790565b6000809161556661554b565b602082519201905afa50565b600090565b61557f615572565b5090565b634e487b7160e01b600052605160045260246000fd5b600103615583576155a99061555a565b56fea264697066735822122010abc2edf1ef0420d15455b8500db4345f4007aeda3a38d6a9ab98397a401b8764736f6c634300081c0033",
  "linkReferences": {},
  "deployedLinkReferences": {}
}