{"contracts/Election.sol":{"Election":{"abi":[{"inputs":[{"components":[{"components":[{"internalType":"uint256","name":"x","type":"uint256"},{"internalType":"uint256","name":"y","type":"uint256"}],"internalType":"struct Ecc.EcPoint","name":"publicKey","type":"tuple"},{"components":[{"internalType":"uint256","name":"c","type":"uint256"},{"internalType":"uint256","name":"d","type":"uint256"}],"internalType":"struct Zkp.KeyOwnershipProof","name":"proof","type":"tuple"}],"internalType":"struct Election.Authority[]","name":"_authorities","type":"tuple[]"},{"internalType":"string[]","name":"_candidates","type":"string[]"}],"stateMutability":"nonpayable","type":"constructor"},{"inputs":[],"name":"A","outputs":[{"internalType":"uint256","name":"","type":"uint256"}],"stateMutability":"view","type":"function"},{"inputs":[],"name":"B","outputs":[{"internalType":"uint256","name":"","type":"uint256"}],"stateMutability":"view","type":"function"},{"inputs":[],"name":"GX","outputs":[{"internalType":"uint256","name":"","type":"uint256"}],"stateMutability":"view","type":"function"},{"inputs":[],"name":"GY","outputs":[{"internalType":"uint256","name":"","type":"uint256"}],"stateMutability":"view","type":"function"},{"inputs":[],"name":"N","outputs":[{"internalType":"uint256","name":"","type":"uint256"}],"stateMutability":"view","type":"function"},{"inputs":[],"name":"P","outputs":[{"internalType":"uint256","name":"","type":"uint256"}],"stateMutability":"view","type":"function"},{"inputs":[{"internalType":"uint256","name":"","type":"uint256"}],"name":"authorities","outputs":[{"components":[{"internalType":"uint256","name":"x","type":"uint256"},{"internalType":"uint256","name":"y","type":"uint256"}],"internalType":"struct Ecc.EcPoint","name":"publicKey","type":"tuple"},{"components":[{"internalType":"uint256","name":"c","type":"uint256"},{"internalType":"uint256","name":"d","type":"uint256"}],"internalType":"struct Zkp.KeyOwnershipProof","name":"proof","type":"tuple"}],"stateMutability":"view","type":"function"},{"inputs":[{"internalType":"uint256","name":"","type":"uint256"}],"name":"candidates","outputs":[{"internalType":"string","name":"","type":"string"}],"stateMutability":"view","type":"function"},{"inputs":[],"name":"electionPublicKey","outputs":[{"internalType":"uint256","name":"","type":"uint256"}],"stateMutability":"view","type":"function"},{"inputs":[],"name":"getAuthorityList","outputs":[{"components":[{"components":[{"internalType":"uint256","name":"x","type":"uint256"},{"internalType":"uint256","name":"y","type":"uint256"}],"internalType":"struct Ecc.EcPoint","name":"publicKey","type":"tuple"},{"components":[{"internalType":"uint256","name":"c","type":"uint256"},{"internalType":"uint256","name":"d","type":"uint256"}],"internalType":"struct Zkp.KeyOwnershipProof","name":"proof","type":"tuple"}],"internalType":"struct Election.Authority[]","name":"","type":"tuple[]"}],"stateMutability":"view","type":"function"},{"inputs":[],"name":"getCandidates","outputs":[{"internalType":"string[]","name":"","type":"string[]"}],"stateMutability":"view","type":"function"},{"inputs":[],"name":"getECCParams","outputs":[{"components":[{"internalType":"uint256","name":"gx","type":"uint256"},{"internalType":"uint256","name":"gy","type":"uint256"},{"internalType":"uint256","name":"a","type":"uint256"},{"internalType":"uint256","name":"b","type":"uint256"},{"internalType":"uint256","name":"p","type":"uint256"},{"internalType":"uint256","name":"n","type":"uint256"}],"internalType":"struct Ecc.EccParams","name":"","type":"tuple"}],"stateMutability":"pure","type":"function"},{"inputs":[{"components":[{"internalType":"uint256","name":"x","type":"uint256"},{"internalType":"uint256","name":"y","type":"uint256"}],"internalType":"struct Ecc.EcPoint[]","name":"points","type":"tuple[]"}],"name":"hashMultiplePointsToScalar","outputs":[{"internalType":"uint256","name":"","type":"uint256"}],"stateMutability":"pure","type":"function"},{"inputs":[{"internalType":"uint256","name":"x","type":"uint256"},{"internalType":"uint256","name":"y","type":"uint256"}],"name":"newEcPoint","outputs":[{"components":[{"internalType":"uint256","name":"x","type":"uint256"},{"internalType":"uint256","name":"y","type":"uint256"}],"internalType":"struct Ecc.EcPoint","name":"","type":"tuple"}],"stateMutability":"pure","type":"function"},{"inputs":[{"internalType":"uint256","name":"_pkx","type":"uint256"},{"internalType":"uint256","name":"_pky","type":"uint256"},{"internalType":"uint256","name":"_c","type":"uint256"},{"internalType":"uint256","name":"_d","type":"uint256"}],"name":"registerAuthority","outputs":[],"stateMutability":"nonpayable","type":"function"},{"inputs":[],"name":"status","outputs":[{"internalType":"enum Election.ElectionStatus","name":"","type":"uint8"}],"stateMutability":"view","type":"function"}],"evm":{"bytecode":{"linkReferences":{},"object":"60806040526000600160006101000a81548160ff0219169083600381111561002a57610029611ec0565b5b021790555034801561003b57600080fd5b50604051615fa8380380615fa8833981810160405281019061005d9190612338565b60018151116100a1576040517f08c379a000000000000000000000000000000000000000000000000000000000815260040161009890612433565b60405180910390fd5b60008251116100e5576040517f08c379a00000000000000000000000000000000000000000000000000000000081526004016100dc906124c5565b60405180910390fd5b60005b82518110156102d35760006001826101009190612514565b90505b83518110156102c55783818151811061011f5761011e612548565b5b6020026020010151600001516000015184838151811061014257610141612548565b5b602002602001015160000151600001511415806101a3575083818151811061016d5761016c612548565b5b602002602001015160000151602001518483815181106101905761018f612548565b5b6020026020010151600001516020015114155b6101e2576040517f08c379a00000000000000000000000000000000000000000000000000000000081526004016101d9906125c3565b60405180910390fd5b8381815181106101f5576101f4612548565b5b6020026020010151602001516000015184838151811061021857610217612548565b5b60200260200101516020015160000151141580610279575083818151811061024357610242612548565b5b6020026020010151602001516020015184838151811061026657610265612548565b5b6020026020010151602001516020015114155b6102b8576040517f08c379a00000000000000000000000000000000000000000000000000000000081526004016102af9061262f565b60405180910390fd5b8080600101915050610103565b5080806001019150506100e8565b5060005b82518110156104935760008382815181106102f5576102f4612548565b5b60200260200101516000015160000151141580156103365750600083828151811061032357610322612548565b5b6020026020010151600001516020015114155b610375576040517f08c379a000000000000000000000000000000000000000000000000000000000815260040161036c9061269b565b60405180910390fd5b6103c183828151811061038b5761038a612548565b5b6020026020010151600001518483815181106103aa576103a9612548565b5b6020026020010151602001516104dd60201b60201c565b610400576040517f08c379a00000000000000000000000000000000000000000000000000000000081526004016103f790612707565b60405180910390fd5b600283828151811061041557610414612548565b5b602002602001015190806001815401808255809150506001900390600052602060002090600402016000909190919091506000820151816000016000820151816000015560208201518160010155505060208201518160020160008201518160000155602082015181600101555050505080806001019150506102d7565b5080600090805190602001906104aa929190611daa565b506000600160006101000a81548160ff021916908360038111156104d1576104d0611ec0565b5b02179055505050612dd3565b60008061053583602001517f79be667ef9dcbbac55a06295ce870b07029bfcdb2dce28d959f2815b16f817987f483ada7726a3c4655da4fbfc0e1108a8fd17b448a68554199c47d08ffb10d4b861062660201b60201c565b9050600061055684600001518660000151876020015161062660201b60201c565b9050600061056a838361066960201b60201c565b90506000600267ffffffffffffffff81111561058957610588611f19565b5b6040519080825280602002602001820160405280156105c257816020015b6105af611e03565b8152602001906001900390816105a75790505b50905086816000815181106105da576105d9612548565b5b602002602001018190525081816001815181106105fa576105f9612548565b5b60200260200101819052506106148161069d60201b60201c565b86600001511494505050505092915050565b61062e611e03565b600080600061064687878760016107ec60201b60201c565b92509250925061065d83838361089260201b60201c565b93505050509392505050565b610671611e03565b6000610682836109a260201b60201c565b90506106948482610a2460201b60201c565b91505092915050565b6000808251116106e2576040517f08c379a00000000000000000000000000000000000000000000000000000000081526004016106d990612773565b60405180910390fd5b6000826000815181106106f8576106f7612548565b5b602002602001015190506000600190505b835181101561074b5761073c8285838151811061072957610728612548565b5b6020026020010151610a2460201b60201c565b91508080600101915050610709565b5060026107618260000151610b1d60201b60201c565b6107748360200151610b1d60201b60201c565b604051602001610785929190612826565b6040516020818303038152906040526040516107a1919061289c565b602060405180830381855afa1580156107be573d6000803e3d6000fd5b5050506040513d601f19601f820116820180604052508101906107e191906128e9565b60001c915050919050565b600080600080870361080657858585925092509250610888565b60008790506000806000600190505b6000841461087a57600060018516146108495761083c8383838d8d8d610bf160201b60201c565b8093508194508295505050505b6002846108569190612945565b93506108698a8a8a61162f60201b60201c565b809a50819b50829c50505050610815565b828282965096509650505050505b9450945094915050565b61089a611e03565b60006108ab83611aac60201b60201c565b905060007ffffffffffffffffffffffffffffffffffffffffffffffffffffffffefffffc2f806108de576108dd612916565b5b828309905060007ffffffffffffffffffffffffffffffffffffffffffffffffffffffffefffffc2f8061091457610913612916565b5b828809905060007ffffffffffffffffffffffffffffffffffffffffffffffffffffffffefffffc2f8061094a57610949612916565b5b7ffffffffffffffffffffffffffffffffffffffffffffffffffffffffefffffc2f8061097957610978612916565b5b848609880990506040518060400160405280838152602001828152509450505050509392505050565b6109aa611e03565b6040518060400160405280836000015181526020017ffffffffffffffffffffffffffffffffffffffffffffffffffffffffefffffc2f84602001517ffffffffffffffffffffffffffffffffffffffffffffffffffffffffefffffc2f610a109190612976565b610a1a91906129aa565b8152509050919050565b610a2c611e03565b60008060008460000151866000015103610acd5760007ffffffffffffffffffffffffffffffffffffffffffffffffffffffffefffffc2f80610a7157610a70612916565b5b866020015188602001510803610aa25760405180604001604052806000815260200160008152509350505050610b17565b610abc86600001518760200151600161162f60201b60201c565b809350819450829550505050610b00565b610af3866000015187602001516001886000015189602001516001610bf160201b60201c565b8093508194508295505050505b610b1183838361089260201b60201c565b93505050505b92915050565b606060006001610b3284611c5760201b60201c565b01905060008167ffffffffffffffff811115610b5157610b50611f19565b5b6040519080825280601f01601f191660200182016040528015610b835781602001600182028036833780820191505090505b509050600082602001820190505b600115610be6578080600190039150507f3031323334353637383961626364656600000000000000000000000000000000600a86061a8153600a8581610bda57610bd9612916565b5b04945060008503610b91575b819350505050919050565b60008060008089148015610c055750600088145b15610c1857858585925092509250611623565b600086148015610c285750600085145b15610c3b57888888925092509250611623565b610c43611e1d565b7ffffffffffffffffffffffffffffffffffffffffffffffffffffffffefffffc2f80610c7257610c71612916565b5b88890981600060048110610c8957610c88612548565b5b6020020181815250507ffffffffffffffffffffffffffffffffffffffffffffffffffffffffefffffc2f80610cc157610cc0612916565b5b81600060048110610cd557610cd4612548565b5b6020020151890981600160048110610cf057610cef612548565b5b6020020181815250507ffffffffffffffffffffffffffffffffffffffffffffffffffffffffefffffc2f80610d2857610d27612916565b5b85860981600260048110610d3f57610d3e612548565b5b6020020181815250507ffffffffffffffffffffffffffffffffffffffffffffffffffffffffefffffc2f80610d7757610d76612916565b5b81600260048110610d8b57610d8a612548565b5b6020020151860981600360048110610da657610da5612548565b5b60200201818152505060405180608001604052807ffffffffffffffffffffffffffffffffffffffffffffffffffffffffefffffc2f80610de957610de8612916565b5b83600260048110610dfd57610dfc612548565b5b60200201518d0981526020017ffffffffffffffffffffffffffffffffffffffffffffffffffffffffefffffc2f80610e3857610e37612916565b5b83600360048110610e4c57610e4b612548565b5b60200201518c0981526020017ffffffffffffffffffffffffffffffffffffffffffffffffffffffffefffffc2f80610e8757610e86612916565b5b83600060048110610e9b57610e9a612548565b5b60200201518a0981526020017ffffffffffffffffffffffffffffffffffffffffffffffffffffffffefffffc2f80610ed657610ed5612916565b5b83600160048110610eea57610ee9612548565b5b60200201518909815250905080600260048110610f0a57610f09612548565b5b602002015181600060048110610f2357610f22612548565b5b6020020151141580610f65575080600360048110610f4457610f43612548565b5b602002015181600160048110610f5d57610f5c612548565b5b602002015114155b610fa4576040517f08c379a0000000000000000000000000000000000000000000000000000000008152600401610f9b90612a27565b60405180910390fd5b610fac611e1d565b7ffffffffffffffffffffffffffffffffffffffffffffffffffffffffefffffc2f80610fdb57610fda612916565b5b82600060048110610fef57610fee612548565b5b60200201517ffffffffffffffffffffffffffffffffffffffffffffffffffffffffefffffc2f61101f9190612976565b8360026004811061103357611032612548565b5b6020020151088160006004811061104d5761104c612548565b5b6020020181815250507ffffffffffffffffffffffffffffffffffffffffffffffffffffffffefffffc2f8061108557611084612916565b5b8260016004811061109957611098612548565b5b60200201517ffffffffffffffffffffffffffffffffffffffffffffffffffffffffefffffc2f6110c99190612976565b836003600481106110dd576110dc612548565b5b602002015108816001600481106110f7576110f6612548565b5b6020020181815250507ffffffffffffffffffffffffffffffffffffffffffffffffffffffffefffffc2f8061112f5761112e612916565b5b8160006004811061114357611142612548565b5b60200201518260006004811061115c5761115b612548565b5b6020020151098160026004811061117657611175612548565b5b6020020181815250507ffffffffffffffffffffffffffffffffffffffffffffffffffffffffefffffc2f806111ae576111ad612916565b5b816000600481106111c2576111c1612548565b5b6020020151826002600481106111db576111da612548565b5b602002015109816003600481106111f5576111f4612548565b5b60200201818152505060007ffffffffffffffffffffffffffffffffffffffffffffffffffffffffefffffc2f8061122f5761122e612916565b5b8260036004811061124357611242612548565b5b60200201517ffffffffffffffffffffffffffffffffffffffffffffffffffffffffefffffc2f6112739190612976565b7ffffffffffffffffffffffffffffffffffffffffffffffffffffffffefffffc2f806112a2576112a1612916565b5b846001600481106112b6576112b5612548565b5b6020020151856001600481106112cf576112ce612548565b5b6020020151090890507ffffffffffffffffffffffffffffffffffffffffffffffffffffffffefffffc2f8061130757611306612916565b5b7ffffffffffffffffffffffffffffffffffffffffffffffffffffffffefffffc2f8061133657611335612916565b5b7ffffffffffffffffffffffffffffffffffffffffffffffffffffffffefffffc2f8061136557611364612916565b5b8460026004811061137957611378612548565b5b60200201518660006004811061139257611391612548565b5b6020020151096002097ffffffffffffffffffffffffffffffffffffffffffffffffffffffffefffffc2f6113c69190612976565b8208905060007ffffffffffffffffffffffffffffffffffffffffffffffffffffffffefffffc2f806113fb576113fa612916565b5b7ffffffffffffffffffffffffffffffffffffffffffffffffffffffffefffffc2f8061142a57611429612916565b5b837ffffffffffffffffffffffffffffffffffffffffffffffffffffffffefffffc2f6114569190612976565b7ffffffffffffffffffffffffffffffffffffffffffffffffffffffffefffffc2f8061148557611484612916565b5b8660026004811061149957611498612548565b5b6020020151886000600481106114b2576114b1612548565b5b60200201510908846001600481106114cd576114cc612548565b5b60200201510990507ffffffffffffffffffffffffffffffffffffffffffffffffffffffffefffffc2f8061150457611503612916565b5b7ffffffffffffffffffffffffffffffffffffffffffffffffffffffffefffffc2f8061153357611532612916565b5b8460036004811061154757611546612548565b5b6020020151866001600481106115605761155f612548565b5b6020020151097ffffffffffffffffffffffffffffffffffffffffffffffffffffffffefffffc2f6115919190612976565b8208905060007ffffffffffffffffffffffffffffffffffffffffffffffffffffffffefffffc2f806115c6576115c5612916565b5b7ffffffffffffffffffffffffffffffffffffffffffffffffffffffffefffffc2f806115f5576115f4612916565b5b8a8e098560006004811061160c5761160b612548565b5b602002015109905082828297509750975050505050505b96509650969350505050565b600080600080840361164957858585925092509250611aa3565b60007ffffffffffffffffffffffffffffffffffffffffffffffffffffffffefffffc2f8061167a57611679612916565b5b878809905060007ffffffffffffffffffffffffffffffffffffffffffffffffffffffffefffffc2f806116b0576116af612916565b5b878809905060007ffffffffffffffffffffffffffffffffffffffffffffffffffffffffefffffc2f806116e6576116e5612916565b5b878809905060007ffffffffffffffffffffffffffffffffffffffffffffffffffffffffefffffc2f8061171c5761171b612916565b5b7ffffffffffffffffffffffffffffffffffffffffffffffffffffffffefffffc2f8061174b5761174a612916565b5b848c09600409905060007ffffffffffffffffffffffffffffffffffffffffffffffffffffffffefffffc2f8061178457611783612916565b5b7ffffffffffffffffffffffffffffffffffffffffffffffffffffffffefffffc2f806117b3576117b2612916565b5b7ffffffffffffffffffffffffffffffffffffffffffffffffffffffffefffffc2f806117e2576117e1612916565b5b8586096000097ffffffffffffffffffffffffffffffffffffffffffffffffffffffffefffffc2f8061181757611816612916565b5b876003090890507ffffffffffffffffffffffffffffffffffffffffffffffffffffffffefffffc2f8061184d5761184c612916565b5b7ffffffffffffffffffffffffffffffffffffffffffffffffffffffffefffffc2f8061187c5761187b612916565b5b8384087ffffffffffffffffffffffffffffffffffffffffffffffffffffffffefffffc2f6118aa9190612976565b7ffffffffffffffffffffffffffffffffffffffffffffffffffffffffefffffc2f806118d9576118d8612916565b5b8384090894507ffffffffffffffffffffffffffffffffffffffffffffffffffffffffefffffc2f8061190e5761190d612916565b5b7ffffffffffffffffffffffffffffffffffffffffffffffffffffffffefffffc2f8061193d5761193c612916565b5b7ffffffffffffffffffffffffffffffffffffffffffffffffffffffffefffffc2f8061196c5761196b612916565b5b8687096008097ffffffffffffffffffffffffffffffffffffffffffffffffffffffffefffffc2f61199d9190612976565b7ffffffffffffffffffffffffffffffffffffffffffffffffffffffffefffffc2f806119cc576119cb612916565b5b7ffffffffffffffffffffffffffffffffffffffffffffffffffffffffefffffc2f806119fb576119fa612916565b5b887ffffffffffffffffffffffffffffffffffffffffffffffffffffffffefffffc2f611a279190612976565b860884090893507ffffffffffffffffffffffffffffffffffffffffffffffffffffffffefffffc2f80611a5d57611a5c612916565b5b7ffffffffffffffffffffffffffffffffffffffffffffffffffffffffefffffc2f80611a8c57611a8b612916565b5b8a8c09600209925084848497509750975050505050505b93509350939050565b6000808214158015611ade57507ffffffffffffffffffffffffffffffffffffffffffffffffffffffffefffffc2f8214155b8015611b0b575060007ffffffffffffffffffffffffffffffffffffffffffffffffffffffffefffffc2f14155b611b4a576040517f08c379a0000000000000000000000000000000000000000000000000000000008152600401611b4190612a93565b60405180910390fd5b6000806001905060007ffffffffffffffffffffffffffffffffffffffffffffffffffffffffefffffc2f905060005b60008614611c4b578582611b8d9190612945565b9050827ffffffffffffffffffffffffffffffffffffffffffffffffffffffffefffffc2f80611bbf57611bbe612916565b5b7ffffffffffffffffffffffffffffffffffffffffffffffffffffffffefffffc2f80611bee57611bed612916565b5b8584097ffffffffffffffffffffffffffffffffffffffffffffffffffffffffefffffc2f611c1c9190612976565b86088094508195505050858682611c339190612ab3565b83611c3e9190612976565b8097508193505050611b79565b83945050505050919050565b600080600090507a184f03e93ff9f4daa797ed6e38ed64bf6a1f0100000000000000008310611cb5577a184f03e93ff9f4daa797ed6e38ed64bf6a1f0100000000000000008381611cab57611caa612916565b5b0492506040810190505b6d04ee2d6d415b85acef81000000008310611cf2576d04ee2d6d415b85acef81000000008381611ce857611ce7612916565b5b0492506020810190505b662386f26fc100008310611d2157662386f26fc100008381611d1757611d16612916565b5b0492506010810190505b6305f5e1008310611d4a576305f5e1008381611d4057611d3f612916565b5b0492506008810190505b6127108310611d6f576127108381611d6557611d64612916565b5b0492506004810190505b60648310611d925760648381611d8857611d87612916565b5b0492506002810190505b600a8310611da1576001810190505b80915050919050565b828054828255906000526020600020908101928215611df2579160200282015b82811115611df1578251829081611de19190612d01565b5091602001919060010190611dca565b5b509050611dff9190611e3f565b5090565b604051806040016040528060008152602001600081525090565b6040518060800160405280600490602082028036833780820191505090505090565b5b80821115611e5f5760008181611e569190611e63565b50600101611e40565b5090565b508054611e6f90612b24565b6000825580601f10611e815750611ea0565b601f016020900490600052602060002090810190611e9f9190611ea3565b5b50565b5b80821115611ebc576000816000905550600101611ea4565b5090565b7f4e487b7100000000000000000000000000000000000000000000000000000000600052602160045260246000fd5b6000604051905090565b600080fd5b600080fd5b600080fd5b6000601f19601f8301169050919050565b7f4e487b7100000000000000000000000000000000000000000000000000000000600052604160045260246000fd5b611f5182611f08565b810181811067ffffffffffffffff82111715611f7057611f6f611f19565b5b80604052505050565b6000611f83611eef565b9050611f8f8282611f48565b919050565b600067ffffffffffffffff821115611faf57611fae611f19565b5b602082029050602081019050919050565b600080fd5b600080fd5b6000819050919050565b611fdd81611fca565b8114611fe857600080fd5b50565b600081519050611ffa81611fd4565b92915050565b60006040828403121561201657612015611fc5565b5b6120206040611f79565b9050600061203084828501611feb565b600083015250602061204484828501611feb565b60208301525092915050565b60006040828403121561206657612065611fc5565b5b6120706040611f79565b9050600061208084828501611feb565b600083015250602061209484828501611feb565b60208301525092915050565b6000608082840312156120b6576120b5611fc5565b5b6120c06040611f79565b905060006120d084828501612000565b60008301525060406120e484828501612050565b60208301525092915050565b60006121036120fe84611f94565b611f79565b9050808382526020820190506080840283018581111561212657612125611fc0565b5b835b8181101561214f578061213b88826120a0565b845260208401935050608081019050612128565b5050509392505050565b600082601f83011261216e5761216d611f03565b5b815161217e8482602086016120f0565b91505092915050565b600067ffffffffffffffff8211156121a2576121a1611f19565b5b602082029050602081019050919050565b600080fd5b600067ffffffffffffffff8211156121d3576121d2611f19565b5b6121dc82611f08565b9050602081019050919050565b60005b838110156122075780820151818401526020810190506121ec565b60008484015250505050565b6000612226612221846121b8565b611f79565b905082815260208101848484011115612242576122416121b3565b5b61224d8482856121e9565b509392505050565b600082601f83011261226a57612269611f03565b5b815161227a848260208601612213565b91505092915050565b600061229661229184612187565b611f79565b905080838252602082019050602084028301858111156122b9576122b8611fc0565b5b835b8181101561230057805167ffffffffffffffff8111156122de576122dd611f03565b5b8086016122eb8982612255565b855260208501945050506020810190506122bb565b5050509392505050565b600082601f83011261231f5761231e611f03565b5b815161232f848260208601612283565b91505092915050565b6000806040838503121561234f5761234e611ef9565b5b600083015167ffffffffffffffff81111561236d5761236c611efe565b5b61237985828601612159565b925050602083015167ffffffffffffffff81111561239a57612399611efe565b5b6123a68582860161230a565b9150509250929050565b600082825260208201905092915050565b7f4174206c656173742074776f2063616e6469646174657320617265207265717560008201527f6972656400000000000000000000000000000000000000000000000000000000602082015250565b600061241d6024836123b0565b9150612428826123c1565b604082019050919050565b6000602082019050818103600083015261244c81612410565b9050919050565b7f4174206c65617374206f6e6520617574686f726974792069732072657175697260008201527f6564000000000000000000000000000000000000000000000000000000000000602082015250565b60006124af6022836123b0565b91506124ba82612453565b604082019050919050565b600060208201905081810360008301526124de816124a2565b9050919050565b7f4e487b7100000000000000000000000000000000000000000000000000000000600052601160045260246000fd5b600061251f82611fca565b915061252a83611fca565b9250828201905080821115612542576125416124e5565b5b92915050565b7f4e487b7100000000000000000000000000000000000000000000000000000000600052603260045260246000fd5b7f4475706c696361746520617574686f72697479207075626c6963206b65790000600082015250565b60006125ad601e836123b0565b91506125b882612577565b602082019050919050565b600060208201905081810360008301526125dc816125a0565b9050919050565b7f4475706c696361746520617574686f726974792070726f6f6600000000000000600082015250565b60006126196019836123b0565b9150612624826125e3565b602082019050919050565b600060208201905081810360008301526126488161260c565b9050919050565b7f496e76616c6964207075626c6963206b65790000000000000000000000000000600082015250565b60006126856012836123b0565b91506126908261264f565b602082019050919050565b600060208201905081810360008301526126b481612678565b9050919050565b7f496e76616c6964206b65792070726f6f66000000000000000000000000000000600082015250565b60006126f16011836123b0565b91506126fc826126bb565b602082019050919050565b60006020820190508181036000830152612720816126e4565b9050919050565b7f4e6f20706f696e74732070726f76696465640000000000000000000000000000600082015250565b600061275d6012836123b0565b915061276882612727565b602082019050919050565b6000602082019050818103600083015261278c81612750565b9050919050565b600081519050919050565b600081905092915050565b60006127b482612793565b6127be818561279e565b93506127ce8185602086016121e9565b80840191505092915050565b7f2c00000000000000000000000000000000000000000000000000000000000000600082015250565b600061281060018361279e565b915061281b826127da565b600182019050919050565b600061283282856127a9565b915061283d82612803565b915061284982846127a9565b91508190509392505050565b600081519050919050565b600081905092915050565b600061287682612855565b6128808185612860565b93506128908185602086016121e9565b80840191505092915050565b60006128a8828461286b565b915081905092915050565b6000819050919050565b6128c6816128b3565b81146128d157600080fd5b50565b6000815190506128e3816128bd565b92915050565b6000602082840312156128ff576128fe611ef9565b5b600061290d848285016128d4565b91505092915050565b7f4e487b7100000000000000000000000000000000000000000000000000000000600052601260045260246000fd5b600061295082611fca565b915061295b83611fca565b92508261296b5761296a612916565b5b828204905092915050565b600061298182611fca565b915061298c83611fca565b92508282039050818111156129a4576129a36124e5565b5b92915050565b60006129b582611fca565b91506129c083611fca565b9250826129d0576129cf612916565b5b828206905092915050565b7f557365206a6163446f75626c652066756e6374696f6e20696e73746561640000600082015250565b6000612a11601e836123b0565b9150612a1c826129db565b602082019050919050565b60006020820190508181036000830152612a4081612a04565b9050919050565b7f496e76616c6964206e756d626572000000000000000000000000000000000000600082015250565b6000612a7d600e836123b0565b9150612a8882612a47565b602082019050919050565b60006020820190508181036000830152612aac81612a70565b9050919050565b6000612abe82611fca565b9150612ac983611fca565b9250828202612ad781611fca565b91508282048414831517612aee57612aed6124e5565b5b5092915050565b7f4e487b7100000000000000000000000000000000000000000000000000000000600052602260045260246000fd5b60006002820490506001821680612b3c57607f821691505b602082108103612b4f57612b4e612af5565b5b50919050565b60008190508160005260206000209050919050565b60006020601f8301049050919050565b600082821b905092915050565b600060088302612bb77fffffffffffffffffffffffffffffffffffffffffffffffffffffffffffffffff82612b7a565b612bc18683612b7a565b95508019841693508086168417925050509392505050565b6000819050919050565b6000612bfe612bf9612bf484611fca565b612bd9565b611fca565b9050919050565b6000819050919050565b612c1883612be3565b612c2c612c2482612c05565b848454612b87565b825550505050565b600090565b612c41612c34565b612c4c818484612c0f565b505050565b5b81811015612c7057612c65600082612c39565b600181019050612c52565b5050565b601f821115612cb557612c8681612b55565b612c8f84612b6a565b81016020851015612c9e578190505b612cb2612caa85612b6a565b830182612c51565b50505b505050565b600082821c905092915050565b6000612cd860001984600802612cba565b1980831691505092915050565b6000612cf18383612cc7565b9150826002028217905092915050565b612d0a82612793565b67ffffffffffffffff811115612d2357612d22611f19565b5b612d2d8254612b24565b612d38828285612c74565b600060209050601f831160018114612d6b5760008415612d59578287015190505b612d638582612ce5565b865550612dcb565b601f198416612d7986612b55565b60005b82811015612da157848901518255600182019150602085019450602081019050612d7c565b86831015612dbe5784890151612dba601f891682612cc7565b8355505b6001600288020188555050505b505050505050565b6131c680612de26000396000f3fe608060405234801561001057600080fd5b50600436106101005760003560e01c8063477decc0116100975780638b8fbd92116100665780638b8fbd92146102a2578063b3bf5495146102c0578063c9e525df146102f0578063f446c1d01461030e57610100565b8063477decc014610205578063494503d4146102355780636b7a524f146102665780637a308a4c1461028457610100565b806324128a30116100d357806324128a301461017d57806327b383b11461019957806332e7c5bf146101b75780633477ee2e146101d557610100565b806303a507be1461010557806306a49fce146101235780630dd3849c14610141578063200d2ed21461015f575b600080fd5b61010d61032c565b60405161011a9190612333565b60405180910390f35b61012b610350565b60405161013891906124a0565b60405180910390f35b610149610429565b6040516101569190612333565b60405180910390f35b61016761042f565b6040516101749190612539565b60405180910390f35b61019760048036038101906101929190612594565b610442565b005b6101a1610725565b6040516101ae9190612746565b60405180910390f35b6101bf6107d4565b6040516101cc9190612333565b60405180910390f35b6101ef60048036038101906101ea9190612768565b6107d9565b6040516101fc91906127df565b60405180910390f35b61021f600480360381019061021a919061299e565b610885565b60405161022c9190612333565b60405180910390f35b61024f600480360381019061024a9190612768565b6109c2565b60405161025d929190612a45565b60405180910390f35b61026e610a32565b60405161027b9190612ae9565b60405180910390f35b61028c610aee565b6040516102999190612333565b60405180910390f35b6102aa610b12565b6040516102b79190612333565b60405180910390f35b6102da60048036038101906102d59190612b04565b610b36565b6040516102e79190612b44565b60405180910390f35b6102f8610b5b565b6040516103059190612333565b60405180910390f35b610316610b7f565b6040516103239190612333565b60405180910390f35b7f79be667ef9dcbbac55a06295ce870b07029bfcdb2dce28d959f2815b16f8179881565b60606000805480602002602001604051908101604052809291908181526020016000905b8282101561042057838290600052602060002001805461039390612b8e565b80601f01602080910402602001604051908101604052809291908181526020018280546103bf90612b8e565b801561040c5780601f106103e15761010080835404028352916020019161040c565b820191906000526020600020905b8154815290600101906020018083116103ef57829003601f168201915b505050505081526020019060010190610374565b50505050905090565b60035481565b600160009054906101000a900460ff1681565b60006003811115610456576104556124c2565b5b600160009054906101000a900460ff166003811115610478576104776124c2565b5b146104b8576040517f08c379a00000000000000000000000000000000000000000000000000000000081526004016104af90612c0b565b60405180910390fd5b60006040518060400160405280868152602001858152509050600060405180604001604052808581526020018481525090506104f48282610b84565b610533576040517f08c379a000000000000000000000000000000000000000000000000000000000815260040161052a90612c77565b60405180910390fd5b60005b60028054905081101561069c5782600001516002828154811061055c5761055b612c97565b5b9060005260206000209060040201600001600001541415806105aa575082602001516002828154811061059257610591612c97565b5b90600052602060002090600402016000016001015414155b6105e9576040517f08c379a00000000000000000000000000000000000000000000000000000000081526004016105e090612d12565b60405180910390fd5b81600001516002828154811061060257610601612c97565b5b906000526020600020906004020160020160000154141580610650575081602001516002828154811061063857610637612c97565b5b90600052602060002090600402016002016001015414155b61068f576040517f08c379a000000000000000000000000000000000000000000000000000000000815260040161068690612d7e565b60405180910390fd5b8080600101915050610536565b506002604051806040016040528084815260200183815250908060018154018082558091505060019003906000526020600020906004020160009091909190915060008201518160000160008201518160000155602082015181600101555050602082015181600201600082015181600001556020820151816001015550505050505050505050565b60606002805480602002602001604051908101604052809291908181526020016000905b828210156107cb57838290600052602060002090600402016040518060400160405290816000820160405180604001604052908160008201548152602001600182015481525050815260200160028201604051806040016040529081600082015481526020016001820154815250508152505081526020019060010190610749565b50505050905090565b600781565b600081815481106107e957600080fd5b90600052602060002001600091509050805461080490612b8e565b80601f016020809104026020016040519081016040528092919081815260200182805461083090612b8e565b801561087d5780601f106108525761010080835404028352916020019161087d565b820191906000526020600020905b81548152906001019060200180831161086057829003601f168201915b505050505081565b6000808251116108ca576040517f08c379a00000000000000000000000000000000000000000000000000000000081526004016108c190612dea565b60405180910390fd5b6000826000815181106108e0576108df612c97565b5b602002602001015190506000600190505b835181101561092d5761091e8285838151811061091157610910612c97565b5b6020026020010151610cb5565b915080806001019150506108f1565b50600261093d8260000151610d9c565b61094a8360200151610d9c565b60405160200161095b929190612e92565b6040516020818303038152906040526040516109779190612f08565b602060405180830381855afa158015610994573d6000803e3d6000fd5b5050506040513d601f19601f820116820180604052508101906109b79190612f55565b60001c915050919050565b600281815481106109d257600080fd5b90600052602060002090600402016000915090508060000160405180604001604052908160008201548152602001600182015481525050908060020160405180604001604052908160008201548152602001600182015481525050905082565b610a3a6122a8565b6040518060c001604052807f79be667ef9dcbbac55a06295ce870b07029bfcdb2dce28d959f2815b16f8179881526020017f483ada7726a3c4655da4fbfc0e1108a8fd17b448a68554199c47d08ffb10d4b8815260200160008152602001600781526020017ffffffffffffffffffffffffffffffffffffffffffffffffffffffffefffffc2f81526020017ffffffffffffffffffffffffffffffffebaaedce6af48a03bbfd25e8cd0364141815250905090565b7f483ada7726a3c4655da4fbfc0e1108a8fd17b448a68554199c47d08ffb10d4b881565b7ffffffffffffffffffffffffffffffffffffffffffffffffffffffffefffffc2f81565b610b3e6122de565b604051806040016040528084815260200183815250905092915050565b7ffffffffffffffffffffffffffffffffebaaedce6af48a03bbfd25e8cd036414181565b600081565b600080610bd683602001517f79be667ef9dcbbac55a06295ce870b07029bfcdb2dce28d959f2815b16f817987f483ada7726a3c4655da4fbfc0e1108a8fd17b448a68554199c47d08ffb10d4b8610e6a565b90506000610bf1846000015186600001518760200151610e6a565b90506000610bff8383610ea1565b90506000600267ffffffffffffffff811115610c1e57610c1d612806565b5b604051908082528060200260200182016040528015610c5757816020015b610c446122de565b815260200190600190039081610c3c5790505b5090508681600081518110610c6f57610c6e612c97565b5b60200260200101819052508181600181518110610c8f57610c8e612c97565b5b6020026020010181905250610ca381610885565b86600001511494505050505092915050565b610cbd6122de565b60008060008460000151866000015103610d585760007ffffffffffffffffffffffffffffffffffffffffffffffffffffffffefffffc2f80610d0257610d01612f82565b5b866020015188602001510803610d335760405180604001604052806000815260200160008152509350505050610d96565b610d47866000015187602001516001610ec9565b809350819450829550505050610d85565b610d78866000015187602001516001886000015189602001516001611346565b8093508194508295505050505b610d90838383611d84565b93505050505b92915050565b606060006001610dab84611e8e565b01905060008167ffffffffffffffff811115610dca57610dc9612806565b5b6040519080825280601f01601f191660200182016040528015610dfc5781602001600182028036833780820191505090505b509050600082602001820190505b600115610e5f578080600190039150507f3031323334353637383961626364656600000000000000000000000000000000600a86061a8153600a8581610e5357610e52612f82565b5b04945060008503610e0a575b819350505050919050565b610e726122de565b6000806000610e848787876001611fe1565b925092509250610e95838383611d84565b93505050509392505050565b610ea96122de565b6000610eb48361207b565b9050610ec08482610cb5565b91505092915050565b6000806000808403610ee35785858592509250925061133d565b60007ffffffffffffffffffffffffffffffffffffffffffffffffffffffffefffffc2f80610f1457610f13612f82565b5b878809905060007ffffffffffffffffffffffffffffffffffffffffffffffffffffffffefffffc2f80610f4a57610f49612f82565b5b878809905060007ffffffffffffffffffffffffffffffffffffffffffffffffffffffffefffffc2f80610f8057610f7f612f82565b5b878809905060007ffffffffffffffffffffffffffffffffffffffffffffffffffffffffefffffc2f80610fb657610fb5612f82565b5b7ffffffffffffffffffffffffffffffffffffffffffffffffffffffffefffffc2f80610fe557610fe4612f82565b5b848c09600409905060007ffffffffffffffffffffffffffffffffffffffffffffffffffffffffefffffc2f8061101e5761101d612f82565b5b7ffffffffffffffffffffffffffffffffffffffffffffffffffffffffefffffc2f8061104d5761104c612f82565b5b7ffffffffffffffffffffffffffffffffffffffffffffffffffffffffefffffc2f8061107c5761107b612f82565b5b8586096000097ffffffffffffffffffffffffffffffffffffffffffffffffffffffffefffffc2f806110b1576110b0612f82565b5b876003090890507ffffffffffffffffffffffffffffffffffffffffffffffffffffffffefffffc2f806110e7576110e6612f82565b5b7ffffffffffffffffffffffffffffffffffffffffffffffffffffffffefffffc2f8061111657611115612f82565b5b8384087ffffffffffffffffffffffffffffffffffffffffffffffffffffffffefffffc2f6111449190612fe0565b7ffffffffffffffffffffffffffffffffffffffffffffffffffffffffefffffc2f8061117357611172612f82565b5b8384090894507ffffffffffffffffffffffffffffffffffffffffffffffffffffffffefffffc2f806111a8576111a7612f82565b5b7ffffffffffffffffffffffffffffffffffffffffffffffffffffffffefffffc2f806111d7576111d6612f82565b5b7ffffffffffffffffffffffffffffffffffffffffffffffffffffffffefffffc2f8061120657611205612f82565b5b8687096008097ffffffffffffffffffffffffffffffffffffffffffffffffffffffffefffffc2f6112379190612fe0565b7ffffffffffffffffffffffffffffffffffffffffffffffffffffffffefffffc2f8061126657611265612f82565b5b7ffffffffffffffffffffffffffffffffffffffffffffffffffffffffefffffc2f8061129557611294612f82565b5b887ffffffffffffffffffffffffffffffffffffffffffffffffffffffffefffffc2f6112c19190612fe0565b860884090893507ffffffffffffffffffffffffffffffffffffffffffffffffffffffffefffffc2f806112f7576112f6612f82565b5b7ffffffffffffffffffffffffffffffffffffffffffffffffffffffffefffffc2f8061132657611325612f82565b5b8a8c09600209925084848497509750975050505050505b93509350939050565b6000806000808914801561135a5750600088145b1561136d57858585925092509250611d78565b60008614801561137d5750600085145b1561139057888888925092509250611d78565b6113986122f8565b7ffffffffffffffffffffffffffffffffffffffffffffffffffffffffefffffc2f806113c7576113c6612f82565b5b888909816000600481106113de576113dd612c97565b5b6020020181815250507ffffffffffffffffffffffffffffffffffffffffffffffffffffffffefffffc2f8061141657611415612f82565b5b8160006004811061142a57611429612c97565b5b602002015189098160016004811061144557611444612c97565b5b6020020181815250507ffffffffffffffffffffffffffffffffffffffffffffffffffffffffefffffc2f8061147d5761147c612f82565b5b8586098160026004811061149457611493612c97565b5b6020020181815250507ffffffffffffffffffffffffffffffffffffffffffffffffffffffffefffffc2f806114cc576114cb612f82565b5b816002600481106114e0576114df612c97565b5b60200201518609816003600481106114fb576114fa612c97565b5b60200201818152505060405180608001604052807ffffffffffffffffffffffffffffffffffffffffffffffffffffffffefffffc2f8061153e5761153d612f82565b5b8360026004811061155257611551612c97565b5b60200201518d0981526020017ffffffffffffffffffffffffffffffffffffffffffffffffffffffffefffffc2f8061158d5761158c612f82565b5b836003600481106115a1576115a0612c97565b5b60200201518c0981526020017ffffffffffffffffffffffffffffffffffffffffffffffffffffffffefffffc2f806115dc576115db612f82565b5b836000600481106115f0576115ef612c97565b5b60200201518a0981526020017ffffffffffffffffffffffffffffffffffffffffffffffffffffffffefffffc2f8061162b5761162a612f82565b5b8360016004811061163f5761163e612c97565b5b6020020151890981525090508060026004811061165f5761165e612c97565b5b60200201518160006004811061167857611677612c97565b5b60200201511415806116ba57508060036004811061169957611698612c97565b5b6020020151816001600481106116b2576116b1612c97565b5b602002015114155b6116f9576040517f08c379a00000000000000000000000000000000000000000000000000000000081526004016116f090613060565b60405180910390fd5b6117016122f8565b7ffffffffffffffffffffffffffffffffffffffffffffffffffffffffefffffc2f806117305761172f612f82565b5b8260006004811061174457611743612c97565b5b60200201517ffffffffffffffffffffffffffffffffffffffffffffffffffffffffefffffc2f6117749190612fe0565b8360026004811061178857611787612c97565b5b602002015108816000600481106117a2576117a1612c97565b5b6020020181815250507ffffffffffffffffffffffffffffffffffffffffffffffffffffffffefffffc2f806117da576117d9612f82565b5b826001600481106117ee576117ed612c97565b5b60200201517ffffffffffffffffffffffffffffffffffffffffffffffffffffffffefffffc2f61181e9190612fe0565b8360036004811061183257611831612c97565b5b6020020151088160016004811061184c5761184b612c97565b5b6020020181815250507ffffffffffffffffffffffffffffffffffffffffffffffffffffffffefffffc2f8061188457611883612f82565b5b8160006004811061189857611897612c97565b5b6020020151826000600481106118b1576118b0612c97565b5b602002015109816002600481106118cb576118ca612c97565b5b6020020181815250507ffffffffffffffffffffffffffffffffffffffffffffffffffffffffefffffc2f8061190357611902612f82565b5b8160006004811061191757611916612c97565b5b6020020151826002600481106119305761192f612c97565b5b6020020151098160036004811061194a57611949612c97565b5b60200201818152505060007ffffffffffffffffffffffffffffffffffffffffffffffffffffffffefffffc2f8061198457611983612f82565b5b8260036004811061199857611997612c97565b5b60200201517ffffffffffffffffffffffffffffffffffffffffffffffffffffffffefffffc2f6119c89190612fe0565b7ffffffffffffffffffffffffffffffffffffffffffffffffffffffffefffffc2f806119f7576119f6612f82565b5b84600160048110611a0b57611a0a612c97565b5b602002015185600160048110611a2457611a23612c97565b5b6020020151090890507ffffffffffffffffffffffffffffffffffffffffffffffffffffffffefffffc2f80611a5c57611a5b612f82565b5b7ffffffffffffffffffffffffffffffffffffffffffffffffffffffffefffffc2f80611a8b57611a8a612f82565b5b7ffffffffffffffffffffffffffffffffffffffffffffffffffffffffefffffc2f80611aba57611ab9612f82565b5b84600260048110611ace57611acd612c97565b5b602002015186600060048110611ae757611ae6612c97565b5b6020020151096002097ffffffffffffffffffffffffffffffffffffffffffffffffffffffffefffffc2f611b1b9190612fe0565b8208905060007ffffffffffffffffffffffffffffffffffffffffffffffffffffffffefffffc2f80611b5057611b4f612f82565b5b7ffffffffffffffffffffffffffffffffffffffffffffffffffffffffefffffc2f80611b7f57611b7e612f82565b5b837ffffffffffffffffffffffffffffffffffffffffffffffffffffffffefffffc2f611bab9190612fe0565b7ffffffffffffffffffffffffffffffffffffffffffffffffffffffffefffffc2f80611bda57611bd9612f82565b5b86600260048110611bee57611bed612c97565b5b602002015188600060048110611c0757611c06612c97565b5b6020020151090884600160048110611c2257611c21612c97565b5b60200201510990507ffffffffffffffffffffffffffffffffffffffffffffffffffffffffefffffc2f80611c5957611c58612f82565b5b7ffffffffffffffffffffffffffffffffffffffffffffffffffffffffefffffc2f80611c8857611c87612f82565b5b84600360048110611c9c57611c9b612c97565b5b602002015186600160048110611cb557611cb4612c97565b5b6020020151097ffffffffffffffffffffffffffffffffffffffffffffffffffffffffefffffc2f611ce69190612fe0565b8208905060007ffffffffffffffffffffffffffffffffffffffffffffffffffffffffefffffc2f80611d1b57611d1a612f82565b5b7ffffffffffffffffffffffffffffffffffffffffffffffffffffffffefffffc2f80611d4a57611d49612f82565b5b8a8e0985600060048110611d6157611d60612c97565b5b602002015109905082828297509750975050505050505b96509650969350505050565b611d8c6122de565b6000611d97836120fd565b905060007ffffffffffffffffffffffffffffffffffffffffffffffffffffffffefffffc2f80611dca57611dc9612f82565b5b828309905060007ffffffffffffffffffffffffffffffffffffffffffffffffffffffffefffffc2f80611e0057611dff612f82565b5b828809905060007ffffffffffffffffffffffffffffffffffffffffffffffffffffffffefffffc2f80611e3657611e35612f82565b5b7ffffffffffffffffffffffffffffffffffffffffffffffffffffffffefffffc2f80611e6557611e64612f82565b5b848609880990506040518060400160405280838152602001828152509450505050509392505050565b600080600090507a184f03e93ff9f4daa797ed6e38ed64bf6a1f0100000000000000008310611eec577a184f03e93ff9f4daa797ed6e38ed64bf6a1f0100000000000000008381611ee257611ee1612f82565b5b0492506040810190505b6d04ee2d6d415b85acef81000000008310611f29576d04ee2d6d415b85acef81000000008381611f1f57611f1e612f82565b5b0492506020810190505b662386f26fc100008310611f5857662386f26fc100008381611f4e57611f4d612f82565b5b0492506010810190505b6305f5e1008310611f81576305f5e1008381611f7757611f76612f82565b5b0492506008810190505b6127108310611fa6576127108381611f9c57611f9b612f82565b5b0492506004810190505b60648310611fc95760648381611fbf57611fbe612f82565b5b0492506002810190505b600a8310611fd8576001810190505b80915050919050565b6000806000808703611ffb57858585925092509250612071565b60008790506000806000600190505b6000841461206357600060018516146120385761202b8383838d8d8d611346565b8093508194508295505050505b6002846120459190613080565b93506120528a8a8a610ec9565b809a50819b50829c5050505061200a565b828282965096509650505050505b9450945094915050565b6120836122de565b6040518060400160405280836000015181526020017ffffffffffffffffffffffffffffffffffffffffffffffffffffffffefffffc2f84602001517ffffffffffffffffffffffffffffffffffffffffffffffffffffffffefffffc2f6120e99190612fe0565b6120f391906130b1565b8152509050919050565b600080821415801561212f57507ffffffffffffffffffffffffffffffffffffffffffffffffffffffffefffffc2f8214155b801561215c575060007ffffffffffffffffffffffffffffffffffffffffffffffffffffffffefffffc2f14155b61219b576040517f08c379a00000000000000000000000000000000000000000000000000000000081526004016121929061312e565b60405180910390fd5b6000806001905060007ffffffffffffffffffffffffffffffffffffffffffffffffffffffffefffffc2f905060005b6000861461229c5785826121de9190613080565b9050827ffffffffffffffffffffffffffffffffffffffffffffffffffffffffefffffc2f806122105761220f612f82565b5b7ffffffffffffffffffffffffffffffffffffffffffffffffffffffffefffffc2f8061223f5761223e612f82565b5b8584097ffffffffffffffffffffffffffffffffffffffffffffffffffffffffefffffc2f61226d9190612fe0565b86088094508195505050858682612284919061314e565b8361228f9190612fe0565b80975081935050506121ca565b83945050505050919050565b6040518060c001604052806000815260200160008152602001600081526020016000815260200160008152602001600081525090565b604051806040016040528060008152602001600081525090565b6040518060800160405280600490602082028036833780820191505090505090565b6000819050919050565b61232d8161231a565b82525050565b60006020820190506123486000830184612324565b92915050565b600081519050919050565b600082825260208201905092915050565b6000819050602082019050919050565b600081519050919050565b600082825260208201905092915050565b60005b838110156123b4578082015181840152602081019050612399565b60008484015250505050565b6000601f19601f8301169050919050565b60006123dc8261237a565b6123e68185612385565b93506123f6818560208601612396565b6123ff816123c0565b840191505092915050565b600061241683836123d1565b905092915050565b6000602082019050919050565b60006124368261234e565b6124408185612359565b9350836020820285016124528561236a565b8060005b8581101561248e578484038952815161246f858261240a565b945061247a8361241e565b925060208a01995050600181019050612456565b50829750879550505050505092915050565b600060208201905081810360008301526124ba818461242b565b905092915050565b7f4e487b7100000000000000000000000000000000000000000000000000000000600052602160045260246000fd5b60048110612502576125016124c2565b5b50565b6000819050612513826124f1565b919050565b600061252382612505565b9050919050565b61253381612518565b82525050565b600060208201905061254e600083018461252a565b92915050565b6000604051905090565b600080fd5b600080fd5b6125718161231a565b811461257c57600080fd5b50565b60008135905061258e81612568565b92915050565b600080600080608085870312156125ae576125ad61255e565b5b60006125bc8782880161257f565b94505060206125cd8782880161257f565b93505060406125de8782880161257f565b92505060606125ef8782880161257f565b91505092959194509250565b600081519050919050565b600082825260208201905092915050565b6000819050602082019050919050565b6126308161231a565b82525050565b60408201600082015161264c6000850182612627565b50602082015161265f6020850182612627565b50505050565b60408201600082015161267b6000850182612627565b50602082015161268e6020850182612627565b50505050565b6080820160008201516126aa6000850182612636565b5060208201516126bd6040850182612665565b50505050565b60006126cf8383612694565b60808301905092915050565b6000602082019050919050565b60006126f3826125fb565b6126fd8185612606565b935061270883612617565b8060005b8381101561273957815161272088826126c3565b975061272b836126db565b92505060018101905061270c565b5085935050505092915050565b6000602082019050818103600083015261276081846126e8565b905092915050565b60006020828403121561277e5761277d61255e565b5b600061278c8482850161257f565b91505092915050565b600082825260208201905092915050565b60006127b18261237a565b6127bb8185612795565b93506127cb818560208601612396565b6127d4816123c0565b840191505092915050565b600060208201905081810360008301526127f981846127a6565b905092915050565b600080fd5b7f4e487b7100000000000000000000000000000000000000000000000000000000600052604160045260246000fd5b61283e826123c0565b810181811067ffffffffffffffff8211171561285d5761285c612806565b5b80604052505050565b6000612870612554565b905061287c8282612835565b919050565b600067ffffffffffffffff82111561289c5761289b612806565b5b602082029050602081019050919050565b600080fd5b600080fd5b6000604082840312156128cd576128cc6128b2565b5b6128d76040612866565b905060006128e78482850161257f565b60008301525060206128fb8482850161257f565b60208301525092915050565b600061291a61291584612881565b612866565b9050808382526020820190506040840283018581111561293d5761293c6128ad565b5b835b81811015612966578061295288826128b7565b84526020840193505060408101905061293f565b5050509392505050565b600082601f83011261298557612984612801565b5b8135612995848260208601612907565b91505092915050565b6000602082840312156129b4576129b361255e565b5b600082013567ffffffffffffffff8111156129d2576129d1612563565b5b6129de84828501612970565b91505092915050565b6040820160008201516129fd6000850182612627565b506020820151612a106020850182612627565b50505050565b604082016000820151612a2c6000850182612627565b506020820151612a3f6020850182612627565b50505050565b6000608082019050612a5a60008301856129e7565b612a676040830184612a16565b9392505050565b60c082016000820151612a846000850182612627565b506020820151612a976020850182612627565b506040820151612aaa6040850182612627565b506060820151612abd6060850182612627565b506080820151612ad06080850182612627565b5060a0820151612ae360a0850182612627565b50505050565b600060c082019050612afe6000830184612a6e565b92915050565b60008060408385031215612b1b57612b1a61255e565b5b6000612b298582860161257f565b9250506020612b3a8582860161257f565b9150509250929050565b6000604082019050612b5960008301846129e7565b92915050565b7f4e487b7100000000000000000000000000000000000000000000000000000000600052602260045260246000fd5b60006002820490506001821680612ba657607f821691505b602082108103612bb957612bb8612b5f565b5b50919050565b7f456c656374696f6e206973206e6f7420696e2073657475702070686173650000600082015250565b6000612bf5601e83612795565b9150612c0082612bbf565b602082019050919050565b60006020820190508181036000830152612c2481612be8565b9050919050565b7f496e76616c6964206b65792070726f6f66000000000000000000000000000000600082015250565b6000612c61601183612795565b9150612c6c82612c2b565b602082019050919050565b60006020820190508181036000830152612c9081612c54565b9050919050565b7f4e487b7100000000000000000000000000000000000000000000000000000000600052603260045260246000fd5b7f417574686f7269747920616c7265616479207265676973746572656400000000600082015250565b6000612cfc601c83612795565b9150612d0782612cc6565b602082019050919050565b60006020820190508181036000830152612d2b81612cef565b9050919050565b7f50726f6f6620616c726561647920726567697374657265640000000000000000600082015250565b6000612d68601883612795565b9150612d7382612d32565b602082019050919050565b60006020820190508181036000830152612d9781612d5b565b9050919050565b7f4e6f20706f696e74732070726f76696465640000000000000000000000000000600082015250565b6000612dd4601283612795565b9150612ddf82612d9e565b602082019050919050565b60006020820190508181036000830152612e0381612dc7565b9050919050565b600081905092915050565b6000612e208261237a565b612e2a8185612e0a565b9350612e3a818560208601612396565b80840191505092915050565b7f2c00000000000000000000000000000000000000000000000000000000000000600082015250565b6000612e7c600183612e0a565b9150612e8782612e46565b600182019050919050565b6000612e9e8285612e15565b9150612ea982612e6f565b9150612eb58284612e15565b91508190509392505050565b600081519050919050565b600081905092915050565b6000612ee282612ec1565b612eec8185612ecc565b9350612efc818560208601612396565b80840191505092915050565b6000612f148284612ed7565b915081905092915050565b6000819050919050565b612f3281612f1f565b8114612f3d57600080fd5b50565b600081519050612f4f81612f29565b92915050565b600060208284031215612f6b57612f6a61255e565b5b6000612f7984828501612f40565b91505092915050565b7f4e487b7100000000000000000000000000000000000000000000000000000000600052601260045260246000fd5b7f4e487b7100000000000000000000000000000000000000000000000000000000600052601160045260246000fd5b6000612feb8261231a565b9150612ff68361231a565b925082820390508181111561300e5761300d612fb1565b5b92915050565b7f557365206a6163446f75626c652066756e6374696f6e20696e73746561640000600082015250565b600061304a601e83612795565b915061305582613014565b602082019050919050565b600060208201905081810360008301526130798161303d565b9050919050565b600061308b8261231a565b91506130968361231a565b9250826130a6576130a5612f82565b5b828204905092915050565b60006130bc8261231a565b91506130c78361231a565b9250826130d7576130d6612f82565b5b828206905092915050565b7f496e76616c6964206e756d626572000000000000000000000000000000000000600082015250565b6000613118600e83612795565b9150613123826130e2565b602082019050919050565b600060208201905081810360008301526131478161310b565b9050919050565b60006131598261231a565b91506131648361231a565b92508282026131728161231a565b9150828204841483151761318957613188612fb1565b5b509291505056fea26469706673582212202a750b6ba0104b0dea899347267d72e9d2ee210b22d136169542ae1679e90e8d64736f6c634300081c0033","opcodes":"PUSH1 0x80 PUSH1 0x40 MSTORE PUSH1 0x0 PUSH1 0x1 PUSH1 0x0 PUSH2 0x100 EXP DUP2 SLOAD DUP2 PUSH1 0xFF MUL NOT AND SWAP1 DUP4 PUSH1 0x3 DUP2 GT ISZERO PUSH2 0x2A JUMPI PUSH2 0x29 PUSH2 0x1EC0 JUMP JUMPDEST JUMPDEST MUL OR SWAP1 SSTORE POP CALLVALUE DUP1 ISZERO PUSH2 0x3B JUMPI PUSH1 0x0 DUP1 REVERT JUMPDEST POP PUSH1 0x40 MLOAD PUSH2 0x5FA8 CODESIZE SUB DUP1 PUSH2 0x5FA8 DUP4 CODECOPY DUP2 DUP2 ADD PUSH1 0x40 MSTORE DUP2 ADD SWAP1 PUSH2 0x5D SWAP2 SWAP1 PUSH2 0x2338 JUMP JUMPDEST PUSH1 0x1 DUP2 MLOAD GT PUSH2 0xA1 JUMPI PUSH1 0x40 MLOAD PUSH32 0x8C379A000000000000000000000000000000000000000000000000000000000 DUP2 MSTORE PUSH1 0x4 ADD PUSH2 0x98 SWAP1 PUSH2 0x2433 JUMP JUMPDEST PUSH1 0x40 MLOAD DUP1 SWAP2 SUB SWAP1 REVERT JUMPDEST PUSH1 0x0 DUP3 MLOAD GT PUSH2 0xE5 JUMPI PUSH1 0x40 MLOAD PUSH32 0x8C379A000000000000000000000000000000000000000000000000000000000 DUP2 MSTORE PUSH1 0x4 ADD PUSH2 0xDC SWAP1 PUSH2 0x24C5 JUMP JUMPDEST PUSH1 0x40 MLOAD DUP1 SWAP2 SUB SWAP1 REVERT JUMPDEST PUSH1 0x0 JUMPDEST DUP3 MLOAD DUP2 LT ISZERO PUSH2 0x2D3 JUMPI PUSH1 0x0 PUSH1 0x1 DUP3 PUSH2 0x100 SWAP2 SWAP1 PUSH2 0x2514 JUMP JUMPDEST SWAP1 POP JUMPDEST DUP4 MLOAD DUP2 LT ISZERO PUSH2 0x2C5 JUMPI DUP4 DUP2 DUP2 MLOAD DUP2 LT PUSH2 0x11F JUMPI PUSH2 0x11E PUSH2 0x2548 JUMP JUMPDEST JUMPDEST PUSH1 0x20 MUL PUSH1 0x20 ADD ADD MLOAD PUSH1 0x0 ADD MLOAD PUSH1 0x0 ADD MLOAD DUP5 DUP4 DUP2 MLOAD DUP2 LT PUSH2 0x142 JUMPI PUSH2 0x141 PUSH2 0x2548 JUMP JUMPDEST JUMPDEST PUSH1 0x20 MUL PUSH1 0x20 ADD ADD MLOAD PUSH1 0x0 ADD MLOAD PUSH1 0x0 ADD MLOAD EQ ISZERO DUP1 PUSH2 0x1A3 JUMPI POP DUP4 DUP2 DUP2 MLOAD DUP2 LT PUSH2 0x16D JUMPI PUSH2 0x16C PUSH2 0x2548 JUMP JUMPDEST JUMPDEST PUSH1 0x20 MUL PUSH1 0x20 ADD ADD MLOAD PUSH1 0x0 ADD MLOAD PUSH1 0x20 ADD MLOAD DUP5 DUP4 DUP2 MLOAD DUP2 LT PUSH2 0x190 JUMPI PUSH2 0x18F PUSH2 0x2548 JUMP JUMPDEST JUMPDEST PUSH1 0x20 MUL PUSH1 0x20 ADD ADD MLOAD PUSH1 0x0 ADD MLOAD PUSH1 0x20 ADD MLOAD EQ ISZERO JUMPDEST PUSH2 0x1E2 JUMPI PUSH1 0x40 MLOAD PUSH32 0x8C379A000000000000000000000000000000000000000000000000000000000 DUP2 MSTORE PUSH1 0x4 ADD PUSH2 0x1D9 SWAP1 PUSH2 0x25C3 JUMP JUMPDEST PUSH1 0x40 MLOAD DUP1 SWAP2 SUB SWAP1 REVERT JUMPDEST DUP4 DUP2 DUP2 MLOAD DUP2 LT PUSH2 0x1F5 JUMPI PUSH2 0x1F4 PUSH2 0x2548 JUMP JUMPDEST JUMPDEST PUSH1 0x20 MUL PUSH1 0x20 ADD ADD MLOAD PUSH1 0x20 ADD MLOAD PUSH1 0x0 ADD MLOAD DUP5 DUP4 DUP2 MLOAD DUP2 LT PUSH2 0x218 JUMPI PUSH2 0x217 PUSH2 0x2548 JUMP JUMPDEST JUMPDEST PUSH1 0x20 MUL PUSH1 0x20 ADD ADD MLOAD PUSH1 0x20 ADD MLOAD PUSH1 0x0 ADD MLOAD EQ ISZERO DUP1 PUSH2 0x279 JUMPI POP DUP4 DUP2 DUP2 MLOAD DUP2 LT PUSH2 0x243 JUMPI PUSH2 0x242 PUSH2 0x2548 JUMP JUMPDEST JUMPDEST PUSH1 0x20 MUL PUSH1 0x20 ADD ADD MLOAD PUSH1 0x20 ADD MLOAD PUSH1 0x20 ADD MLOAD DUP5 DUP4 DUP2 MLOAD DUP2 LT PUSH2 0x266 JUMPI PUSH2 0x265 PUSH2 0x2548 JUMP JUMPDEST JUMPDEST PUSH1 0x20 MUL PUSH1 0x20 ADD ADD MLOAD PUSH1 0x20 ADD MLOAD PUSH1 0x20 ADD MLOAD EQ ISZERO JUMPDEST PUSH2 0x2B8 JUMPI PUSH1 0x40 MLOAD PUSH32 0x8C379A000000000000000000000000000000000000000000000000000000000 DUP2 MSTORE PUSH1 0x4 ADD PUSH2 0x2AF SWAP1 PUSH2 0x262F JUMP JUMPDEST PUSH1 0x40 MLOAD DUP1 SWAP2 SUB SWAP1 REVERT JUMPDEST DUP1 DUP1 PUSH1 0x1 ADD SWAP2 POP POP PUSH2 0x103 JUMP JUMPDEST POP DUP1 DUP1 PUSH1 0x1 ADD SWAP2 POP POP PUSH2 0xE8 JUMP JUMPDEST POP PUSH1 0x0 JUMPDEST DUP3 MLOAD DUP2 LT ISZERO PUSH2 0x493 JUMPI PUSH1 0x0 DUP4 DUP3 DUP2 MLOAD DUP2 LT PUSH2 0x2F5 JUMPI PUSH2 0x2F4 PUSH2 0x2548 JUMP JUMPDEST JUMPDEST PUSH1 0x20 MUL PUSH1 0x20 ADD ADD MLOAD PUSH1 0x0 ADD MLOAD PUSH1 0x0 ADD MLOAD EQ ISZERO DUP1 ISZERO PUSH2 0x336 JUMPI POP PUSH1 0x0 DUP4 DUP3 DUP2 MLOAD DUP2 LT PUSH2 0x323 JUMPI PUSH2 0x322 PUSH2 0x2548 JUMP JUMPDEST JUMPDEST PUSH1 0x20 MUL PUSH1 0x20 ADD ADD MLOAD PUSH1 0x0 ADD MLOAD PUSH1 0x20 ADD MLOAD EQ ISZERO JUMPDEST PUSH2 0x375 JUMPI PUSH1 0x40 MLOAD PUSH32 0x8C379A000000000000000000000000000000000000000000000000000000000 DUP2 MSTORE PUSH1 0x4 ADD PUSH2 0x36C SWAP1 PUSH2 0x269B JUMP JUMPDEST PUSH1 0x40 MLOAD DUP1 SWAP2 SUB SWAP1 REVERT JUMPDEST PUSH2 0x3C1 DUP4 DUP3 DUP2 MLOAD DUP2 LT PUSH2 0x38B JUMPI PUSH2 0x38A PUSH2 0x2548 JUMP JUMPDEST JUMPDEST PUSH1 0x20 MUL PUSH1 0x20 ADD ADD MLOAD PUSH1 0x0 ADD MLOAD DUP5 DUP4 DUP2 MLOAD DUP2 LT PUSH2 0x3AA JUMPI PUSH2 0x3A9 PUSH2 0x2548 JUMP JUMPDEST JUMPDEST PUSH1 0x20 MUL PUSH1 0x20 ADD ADD MLOAD PUSH1 0x20 ADD MLOAD PUSH2 0x4DD PUSH1 0x20 SHL PUSH1 0x20 SHR JUMP JUMPDEST PUSH2 0x400 JUMPI PUSH1 0x40 MLOAD PUSH32 0x8C379A000000000000000000000000000000000000000000000000000000000 DUP2 MSTORE PUSH1 0x4 ADD PUSH2 0x3F7 SWAP1 PUSH2 0x2707 JUMP JUMPDEST PUSH1 0x40 MLOAD DUP1 SWAP2 SUB SWAP1 REVERT JUMPDEST PUSH1 0x2 DUP4 DUP3 DUP2 MLOAD DUP2 LT PUSH2 0x415 JUMPI PUSH2 0x414 PUSH2 0x2548 JUMP JUMPDEST JUMPDEST PUSH1 0x20 MUL PUSH1 0x20 ADD ADD MLOAD SWAP1 DUP1 PUSH1 0x1 DUP2 SLOAD ADD DUP1 DUP3 SSTORE DUP1 SWAP2 POP POP PUSH1 0x1 SWAP1 SUB SWAP1 PUSH1 0x0 MSTORE PUSH1 0x20 PUSH1 0x0 KECCAK256 SWAP1 PUSH1 0x4 MUL ADD PUSH1 0x0 SWAP1 SWAP2 SWAP1 SWAP2 SWAP1 SWAP2 POP PUSH1 0x0 DUP3 ADD MLOAD DUP2 PUSH1 0x0 ADD PUSH1 0x0 DUP3 ADD MLOAD DUP2 PUSH1 0x0 ADD SSTORE PUSH1 0x20 DUP3 ADD MLOAD DUP2 PUSH1 0x1 ADD SSTORE POP POP PUSH1 0x20 DUP3 ADD MLOAD DUP2 PUSH1 0x2 ADD PUSH1 0x0 DUP3 ADD MLOAD DUP2 PUSH1 0x0 ADD SSTORE PUSH1 0x20 DUP3 ADD MLOAD DUP2 PUSH1 0x1 ADD SSTORE POP POP POP POP DUP1 DUP1 PUSH1 0x1 ADD SWAP2 POP POP PUSH2 0x2D7 JUMP JUMPDEST POP DUP1 PUSH1 0x0 SWAP1 DUP1 MLOAD SWAP1 PUSH1 0x20 ADD SWAP1 PUSH2 0x4AA SWAP3 SWAP2 SWAP1 PUSH2 0x1DAA JUMP JUMPDEST POP PUSH1 0x0 PUSH1 0x1 PUSH1 0x0 PUSH2 0x100 EXP DUP2 SLOAD DUP2 PUSH1 0xFF MUL NOT AND SWAP1 DUP4 PUSH1 0x3 DUP2 GT ISZERO PUSH2 0x4D1 JUMPI PUSH2 0x4D0 PUSH2 0x1EC0 JUMP JUMPDEST JUMPDEST MUL OR SWAP1 SSTORE POP POP POP PUSH2 0x2DD3 JUMP JUMPDEST PUSH1 0x0 DUP1 PUSH2 0x535 DUP4 PUSH1 0x20 ADD MLOAD PUSH32 0x79BE667EF9DCBBAC55A06295CE870B07029BFCDB2DCE28D959F2815B16F81798 PUSH32 0x483ADA7726A3C4655DA4FBFC0E1108A8FD17B448A68554199C47D08FFB10D4B8 PUSH2 0x626 PUSH1 0x20 SHL PUSH1 0x20 SHR JUMP JUMPDEST SWAP1 POP PUSH1 0x0 PUSH2 0x556 DUP5 PUSH1 0x0 ADD MLOAD DUP7 PUSH1 0x0 ADD MLOAD DUP8 PUSH1 0x20 ADD MLOAD PUSH2 0x626 PUSH1 0x20 SHL PUSH1 0x20 SHR JUMP JUMPDEST SWAP1 POP PUSH1 0x0 PUSH2 0x56A DUP4 DUP4 PUSH2 0x669 PUSH1 0x20 SHL PUSH1 0x20 SHR JUMP JUMPDEST SWAP1 POP PUSH1 0x0 PUSH1 0x2 PUSH8 0xFFFFFFFFFFFFFFFF DUP2 GT ISZERO PUSH2 0x589 JUMPI PUSH2 0x588 PUSH2 0x1F19 JUMP JUMPDEST JUMPDEST PUSH1 0x40 MLOAD SWAP1 DUP1 DUP3 MSTORE DUP1 PUSH1 0x20 MUL PUSH1 0x20 ADD DUP3 ADD PUSH1 0x40 MSTORE DUP1 ISZERO PUSH2 0x5C2 JUMPI DUP2 PUSH1 0x20 ADD JUMPDEST PUSH2 0x5AF PUSH2 0x1E03 JUMP JUMPDEST DUP2 MSTORE PUSH1 0x20 ADD SWAP1 PUSH1 0x1 SWAP1 SUB SWAP1 DUP2 PUSH2 0x5A7 JUMPI SWAP1 POP JUMPDEST POP SWAP1 POP DUP7 DUP2 PUSH1 0x0 DUP2 MLOAD DUP2 LT PUSH2 0x5DA JUMPI PUSH2 0x5D9 PUSH2 0x2548 JUMP JUMPDEST JUMPDEST PUSH1 0x20 MUL PUSH1 0x20 ADD ADD DUP2 SWAP1 MSTORE POP DUP2 DUP2 PUSH1 0x1 DUP2 MLOAD DUP2 LT PUSH2 0x5FA JUMPI PUSH2 0x5F9 PUSH2 0x2548 JUMP JUMPDEST JUMPDEST PUSH1 0x20 MUL PUSH1 0x20 ADD ADD DUP2 SWAP1 MSTORE POP PUSH2 0x614 DUP2 PUSH2 0x69D PUSH1 0x20 SHL PUSH1 0x20 SHR JUMP JUMPDEST DUP7 PUSH1 0x0 ADD MLOAD EQ SWAP5 POP POP POP POP POP SWAP3 SWAP2 POP POP JUMP JUMPDEST PUSH2 0x62E PUSH2 0x1E03 JUMP JUMPDEST PUSH1 0x0 DUP1 PUSH1 0x0 PUSH2 0x646 DUP8 DUP8 DUP8 PUSH1 0x1 PUSH2 0x7EC PUSH1 0x20 SHL PUSH1 0x20 SHR JUMP JUMPDEST SWAP3 POP SWAP3 POP SWAP3 POP PUSH2 0x65D DUP4 DUP4 DUP4 PUSH2 0x892 PUSH1 0x20 SHL PUSH1 0x20 SHR JUMP JUMPDEST SWAP4 POP POP POP POP SWAP4 SWAP3 POP POP POP JUMP JUMPDEST PUSH2 0x671 PUSH2 0x1E03 JUMP JUMPDEST PUSH1 0x0 PUSH2 0x682 DUP4 PUSH2 0x9A2 PUSH1 0x20 SHL PUSH1 0x20 SHR JUMP JUMPDEST SWAP1 POP PUSH2 0x694 DUP5 DUP3 PUSH2 0xA24 PUSH1 0x20 SHL PUSH1 0x20 SHR JUMP JUMPDEST SWAP2 POP POP SWAP3 SWAP2 POP POP JUMP JUMPDEST PUSH1 0x0 DUP1 DUP3 MLOAD GT PUSH2 0x6E2 JUMPI PUSH1 0x40 MLOAD PUSH32 0x8C379A000000000000000000000000000000000000000000000000000000000 DUP2 MSTORE PUSH1 0x4 ADD PUSH2 0x6D9 SWAP1 PUSH2 0x2773 JUMP JUMPDEST PUSH1 0x40 MLOAD DUP1 SWAP2 SUB SWAP1 REVERT JUMPDEST PUSH1 0x0 DUP3 PUSH1 0x0 DUP2 MLOAD DUP2 LT PUSH2 0x6F8 JUMPI PUSH2 0x6F7 PUSH2 0x2548 JUMP JUMPDEST JUMPDEST PUSH1 0x20 MUL PUSH1 0x20 ADD ADD MLOAD SWAP1 POP PUSH1 0x0 PUSH1 0x1 SWAP1 POP JUMPDEST DUP4 MLOAD DUP2 LT ISZERO PUSH2 0x74B JUMPI PUSH2 0x73C DUP3 DUP6 DUP4 DUP2 MLOAD DUP2 LT PUSH2 0x729 JUMPI PUSH2 0x728 PUSH2 0x2548 JUMP JUMPDEST JUMPDEST PUSH1 0x20 MUL PUSH1 0x20 ADD ADD MLOAD PUSH2 0xA24 PUSH1 0x20 SHL PUSH1 0x20 SHR JUMP JUMPDEST SWAP2 POP DUP1 DUP1 PUSH1 0x1 ADD SWAP2 POP POP PUSH2 0x709 JUMP JUMPDEST POP PUSH1 0x2 PUSH2 0x761 DUP3 PUSH1 0x0 ADD MLOAD PUSH2 0xB1D PUSH1 0x20 SHL PUSH1 0x20 SHR JUMP JUMPDEST PUSH2 0x774 DUP4 PUSH1 0x20 ADD MLOAD PUSH2 0xB1D PUSH1 0x20 SHL PUSH1 0x20 SHR JUMP JUMPDEST PUSH1 0x40 MLOAD PUSH1 0x20 ADD PUSH2 0x785 SWAP3 SWAP2 SWAP1 PUSH2 0x2826 JUMP JUMPDEST PUSH1 0x40 MLOAD PUSH1 0x20 DUP2 DUP4 SUB SUB DUP2 MSTORE SWAP1 PUSH1 0x40 MSTORE PUSH1 0x40 MLOAD PUSH2 0x7A1 SWAP2 SWAP1 PUSH2 0x289C JUMP JUMPDEST PUSH1 0x20 PUSH1 0x40 MLOAD DUP1 DUP4 SUB DUP2 DUP6 GAS STATICCALL ISZERO DUP1 ISZERO PUSH2 0x7BE JUMPI RETURNDATASIZE PUSH1 0x0 DUP1 RETURNDATACOPY RETURNDATASIZE PUSH1 0x0 REVERT JUMPDEST POP POP POP PUSH1 0x40 MLOAD RETURNDATASIZE PUSH1 0x1F NOT PUSH1 0x1F DUP3 ADD AND DUP3 ADD DUP1 PUSH1 0x40 MSTORE POP DUP2 ADD SWAP1 PUSH2 0x7E1 SWAP2 SWAP1 PUSH2 0x28E9 JUMP JUMPDEST PUSH1 0x0 SHR SWAP2 POP POP SWAP2 SWAP1 POP JUMP JUMPDEST PUSH1 0x0 DUP1 PUSH1 0x0 DUP1 DUP8 SUB PUSH2 0x806 JUMPI DUP6 DUP6 DUP6 SWAP3 POP SWAP3 POP SWAP3 POP PUSH2 0x888 JUMP JUMPDEST PUSH1 0x0 DUP8 SWAP1 POP PUSH1 0x0 DUP1 PUSH1 0x0 PUSH1 0x1 SWAP1 POP JUMPDEST PUSH1 0x0 DUP5 EQ PUSH2 0x87A JUMPI PUSH1 0x0 PUSH1 0x1 DUP6 AND EQ PUSH2 0x849 JUMPI PUSH2 0x83C DUP4 DUP4 DUP4 DUP14 DUP14 DUP14 PUSH2 0xBF1 PUSH1 0x20 SHL PUSH1 0x20 SHR JUMP JUMPDEST DUP1 SWAP4 POP DUP2 SWAP5 POP DUP3 SWAP6 POP POP POP POP JUMPDEST PUSH1 0x2 DUP5 PUSH2 0x856 SWAP2 SWAP1 PUSH2 0x2945 JUMP JUMPDEST SWAP4 POP PUSH2 0x869 DUP11 DUP11 DUP11 PUSH2 0x162F PUSH1 0x20 SHL PUSH1 0x20 SHR JUMP JUMPDEST DUP1 SWAP11 POP DUP2 SWAP12 POP DUP3 SWAP13 POP POP POP POP PUSH2 0x815 JUMP JUMPDEST DUP3 DUP3 DUP3 SWAP7 POP SWAP7 POP SWAP7 POP POP POP POP POP JUMPDEST SWAP5 POP SWAP5 POP SWAP5 SWAP2 POP POP JUMP JUMPDEST PUSH2 0x89A PUSH2 0x1E03 JUMP JUMPDEST PUSH1 0x0 PUSH2 0x8AB DUP4 PUSH2 0x1AAC PUSH1 0x20 SHL PUSH1 0x20 SHR JUMP JUMPDEST SWAP1 POP PUSH1 0x0 PUSH32 0xFFFFFFFFFFFFFFFFFFFFFFFFFFFFFFFFFFFFFFFFFFFFFFFFFFFFFFFEFFFFFC2F DUP1 PUSH2 0x8DE JUMPI PUSH2 0x8DD PUSH2 0x2916 JUMP JUMPDEST JUMPDEST DUP3 DUP4 MULMOD SWAP1 POP PUSH1 0x0 PUSH32 0xFFFFFFFFFFFFFFFFFFFFFFFFFFFFFFFFFFFFFFFFFFFFFFFFFFFFFFFEFFFFFC2F DUP1 PUSH2 0x914 JUMPI PUSH2 0x913 PUSH2 0x2916 JUMP JUMPDEST JUMPDEST DUP3 DUP9 MULMOD SWAP1 POP PUSH1 0x0 PUSH32 0xFFFFFFFFFFFFFFFFFFFFFFFFFFFFFFFFFFFFFFFFFFFFFFFFFFFFFFFEFFFFFC2F DUP1 PUSH2 0x94A JUMPI PUSH2 0x949 PUSH2 0x2916 JUMP JUMPDEST JUMPDEST PUSH32 0xFFFFFFFFFFFFFFFFFFFFFFFFFFFFFFFFFFFFFFFFFFFFFFFFFFFFFFFEFFFFFC2F DUP1 PUSH2 0x979 JUMPI PUSH2 0x978 PUSH2 0x2916 JUMP JUMPDEST JUMPDEST DUP5 DUP7 MULMOD DUP9 MULMOD SWAP1 POP PUSH1 0x40 MLOAD DUP1 PUSH1 0x40 ADD PUSH1 0x40 MSTORE DUP1 DUP4 DUP2 MSTORE PUSH1 0x20 ADD DUP3 DUP2 MSTORE POP SWAP5 POP POP POP POP POP SWAP4 SWAP3 POP POP POP JUMP JUMPDEST PUSH2 0x9AA PUSH2 0x1E03 JUMP JUMPDEST PUSH1 0x40 MLOAD DUP1 PUSH1 0x40 ADD PUSH1 0x40 MSTORE DUP1 DUP4 PUSH1 0x0 ADD MLOAD DUP2 MSTORE PUSH1 0x20 ADD PUSH32 0xFFFFFFFFFFFFFFFFFFFFFFFFFFFFFFFFFFFFFFFFFFFFFFFFFFFFFFFEFFFFFC2F DUP5 PUSH1 0x20 ADD MLOAD PUSH32 0xFFFFFFFFFFFFFFFFFFFFFFFFFFFFFFFFFFFFFFFFFFFFFFFFFFFFFFFEFFFFFC2F PUSH2 0xA10 SWAP2 SWAP1 PUSH2 0x2976 JUMP JUMPDEST PUSH2 0xA1A SWAP2 SWAP1 PUSH2 0x29AA JUMP JUMPDEST DUP2 MSTORE POP SWAP1 POP SWAP2 SWAP1 POP JUMP JUMPDEST PUSH2 0xA2C PUSH2 0x1E03 JUMP JUMPDEST PUSH1 0x0 DUP1 PUSH1 0x0 DUP5 PUSH1 0x0 ADD MLOAD DUP7 PUSH1 0x0 ADD MLOAD SUB PUSH2 0xACD JUMPI PUSH1 0x0 PUSH32 0xFFFFFFFFFFFFFFFFFFFFFFFFFFFFFFFFFFFFFFFFFFFFFFFFFFFFFFFEFFFFFC2F DUP1 PUSH2 0xA71 JUMPI PUSH2 0xA70 PUSH2 0x2916 JUMP JUMPDEST JUMPDEST DUP7 PUSH1 0x20 ADD MLOAD DUP9 PUSH1 0x20 ADD MLOAD ADDMOD SUB PUSH2 0xAA2 JUMPI PUSH1 0x40 MLOAD DUP1 PUSH1 0x40 ADD PUSH1 0x40 MSTORE DUP1 PUSH1 0x0 DUP2 MSTORE PUSH1 0x20 ADD PUSH1 0x0 DUP2 MSTORE POP SWAP4 POP POP POP POP PUSH2 0xB17 JUMP JUMPDEST PUSH2 0xABC DUP7 PUSH1 0x0 ADD MLOAD DUP8 PUSH1 0x20 ADD MLOAD PUSH1 0x1 PUSH2 0x162F PUSH1 0x20 SHL PUSH1 0x20 SHR JUMP JUMPDEST DUP1 SWAP4 POP DUP2 SWAP5 POP DUP3 SWAP6 POP POP POP POP PUSH2 0xB00 JUMP JUMPDEST PUSH2 0xAF3 DUP7 PUSH1 0x0 ADD MLOAD DUP8 PUSH1 0x20 ADD MLOAD PUSH1 0x1 DUP9 PUSH1 0x0 ADD MLOAD DUP10 PUSH1 0x20 ADD MLOAD PUSH1 0x1 PUSH2 0xBF1 PUSH1 0x20 SHL PUSH1 0x20 SHR JUMP JUMPDEST DUP1 SWAP4 POP DUP2 SWAP5 POP DUP3 SWAP6 POP POP POP POP JUMPDEST PUSH2 0xB11 DUP4 DUP4 DUP4 PUSH2 0x892 PUSH1 0x20 SHL PUSH1 0x20 SHR JUMP JUMPDEST SWAP4 POP POP POP POP JUMPDEST SWAP3 SWAP2 POP POP JUMP JUMPDEST PUSH1 0x60 PUSH1 0x0 PUSH1 0x1 PUSH2 0xB32 DUP5 PUSH2 0x1C57 PUSH1 0x20 SHL PUSH1 0x20 SHR JUMP JUMPDEST ADD SWAP1 POP PUSH1 0x0 DUP2 PUSH8 0xFFFFFFFFFFFFFFFF DUP2 GT ISZERO PUSH2 0xB51 JUMPI PUSH2 0xB50 PUSH2 0x1F19 JUMP JUMPDEST JUMPDEST PUSH1 0x40 MLOAD SWAP1 DUP1 DUP3 MSTORE DUP1 PUSH1 0x1F ADD PUSH1 0x1F NOT AND PUSH1 0x20 ADD DUP3 ADD PUSH1 0x40 MSTORE DUP1 ISZERO PUSH2 0xB83 JUMPI DUP2 PUSH1 0x20 ADD PUSH1 0x1 DUP3 MUL DUP1 CALLDATASIZE DUP4 CALLDATACOPY DUP1 DUP3 ADD SWAP2 POP POP SWAP1 POP JUMPDEST POP SWAP1 POP PUSH1 0x0 DUP3 PUSH1 0x20 ADD DUP3 ADD SWAP1 POP JUMPDEST PUSH1 0x1 ISZERO PUSH2 0xBE6 JUMPI DUP1 DUP1 PUSH1 0x1 SWAP1 SUB SWAP2 POP POP PUSH32 0x3031323334353637383961626364656600000000000000000000000000000000 PUSH1 0xA DUP7 MOD BYTE DUP2 MSTORE8 PUSH1 0xA DUP6 DUP2 PUSH2 0xBDA JUMPI PUSH2 0xBD9 PUSH2 0x2916 JUMP JUMPDEST JUMPDEST DIV SWAP5 POP PUSH1 0x0 DUP6 SUB PUSH2 0xB91 JUMPI JUMPDEST DUP2 SWAP4 POP POP POP POP SWAP2 SWAP1 POP JUMP JUMPDEST PUSH1 0x0 DUP1 PUSH1 0x0 DUP1 DUP10 EQ DUP1 ISZERO PUSH2 0xC05 JUMPI POP PUSH1 0x0 DUP9 EQ JUMPDEST ISZERO PUSH2 0xC18 JUMPI DUP6 DUP6 DUP6 SWAP3 POP SWAP3 POP SWAP3 POP PUSH2 0x1623 JUMP JUMPDEST PUSH1 0x0 DUP7 EQ DUP1 ISZERO PUSH2 0xC28 JUMPI POP PUSH1 0x0 DUP6 EQ JUMPDEST ISZERO PUSH2 0xC3B JUMPI DUP9 DUP9 DUP9 SWAP3 POP SWAP3 POP SWAP3 POP PUSH2 0x1623 JUMP JUMPDEST PUSH2 0xC43 PUSH2 0x1E1D JUMP JUMPDEST PUSH32 0xFFFFFFFFFFFFFFFFFFFFFFFFFFFFFFFFFFFFFFFFFFFFFFFFFFFFFFFEFFFFFC2F DUP1 PUSH2 0xC72 JUMPI PUSH2 0xC71 PUSH2 0x2916 JUMP JUMPDEST JUMPDEST DUP9 DUP10 MULMOD DUP2 PUSH1 0x0 PUSH1 0x4 DUP2 LT PUSH2 0xC89 JUMPI PUSH2 0xC88 PUSH2 0x2548 JUMP JUMPDEST JUMPDEST PUSH1 0x20 MUL ADD DUP2 DUP2 MSTORE POP POP PUSH32 0xFFFFFFFFFFFFFFFFFFFFFFFFFFFFFFFFFFFFFFFFFFFFFFFFFFFFFFFEFFFFFC2F DUP1 PUSH2 0xCC1 JUMPI PUSH2 0xCC0 PUSH2 0x2916 JUMP JUMPDEST JUMPDEST DUP2 PUSH1 0x0 PUSH1 0x4 DUP2 LT PUSH2 0xCD5 JUMPI PUSH2 0xCD4 PUSH2 0x2548 JUMP JUMPDEST JUMPDEST PUSH1 0x20 MUL ADD MLOAD DUP10 MULMOD DUP2 PUSH1 0x1 PUSH1 0x4 DUP2 LT PUSH2 0xCF0 JUMPI PUSH2 0xCEF PUSH2 0x2548 JUMP JUMPDEST JUMPDEST PUSH1 0x20 MUL ADD DUP2 DUP2 MSTORE POP POP PUSH32 0xFFFFFFFFFFFFFFFFFFFFFFFFFFFFFFFFFFFFFFFFFFFFFFFFFFFFFFFEFFFFFC2F DUP1 PUSH2 0xD28 JUMPI PUSH2 0xD27 PUSH2 0x2916 JUMP JUMPDEST JUMPDEST DUP6 DUP7 MULMOD DUP2 PUSH1 0x2 PUSH1 0x4 DUP2 LT PUSH2 0xD3F JUMPI PUSH2 0xD3E PUSH2 0x2548 JUMP JUMPDEST JUMPDEST PUSH1 0x20 MUL ADD DUP2 DUP2 MSTORE POP POP PUSH32 0xFFFFFFFFFFFFFFFFFFFFFFFFFFFFFFFFFFFFFFFFFFFFFFFFFFFFFFFEFFFFFC2F DUP1 PUSH2 0xD77 JUMPI PUSH2 0xD76 PUSH2 0x2916 JUMP JUMPDEST JUMPDEST DUP2 PUSH1 0x2 PUSH1 0x4 DUP2 LT PUSH2 0xD8B JUMPI PUSH2 0xD8A PUSH2 0x2548 JUMP JUMPDEST JUMPDEST PUSH1 0x20 MUL ADD MLOAD DUP7 MULMOD DUP2 PUSH1 0x3 PUSH1 0x4 DUP2 LT PUSH2 0xDA6 JUMPI PUSH2 0xDA5 PUSH2 0x2548 JUMP JUMPDEST JUMPDEST PUSH1 0x20 MUL ADD DUP2 DUP2 MSTORE POP POP PUSH1 0x40 MLOAD DUP1 PUSH1 0x80 ADD PUSH1 0x40 MSTORE DUP1 PUSH32 0xFFFFFFFFFFFFFFFFFFFFFFFFFFFFFFFFFFFFFFFFFFFFFFFFFFFFFFFEFFFFFC2F DUP1 PUSH2 0xDE9 JUMPI PUSH2 0xDE8 PUSH2 0x2916 JUMP JUMPDEST JUMPDEST DUP4 PUSH1 0x2 PUSH1 0x4 DUP2 LT PUSH2 0xDFD JUMPI PUSH2 0xDFC PUSH2 0x2548 JUMP JUMPDEST JUMPDEST PUSH1 0x20 MUL ADD MLOAD DUP14 MULMOD DUP2 MSTORE PUSH1 0x20 ADD PUSH32 0xFFFFFFFFFFFFFFFFFFFFFFFFFFFFFFFFFFFFFFFFFFFFFFFFFFFFFFFEFFFFFC2F DUP1 PUSH2 0xE38 JUMPI PUSH2 0xE37 PUSH2 0x2916 JUMP JUMPDEST JUMPDEST DUP4 PUSH1 0x3 PUSH1 0x4 DUP2 LT PUSH2 0xE4C JUMPI PUSH2 0xE4B PUSH2 0x2548 JUMP JUMPDEST JUMPDEST PUSH1 0x20 MUL ADD MLOAD DUP13 MULMOD DUP2 MSTORE PUSH1 0x20 ADD PUSH32 0xFFFFFFFFFFFFFFFFFFFFFFFFFFFFFFFFFFFFFFFFFFFFFFFFFFFFFFFEFFFFFC2F DUP1 PUSH2 0xE87 JUMPI PUSH2 0xE86 PUSH2 0x2916 JUMP JUMPDEST JUMPDEST DUP4 PUSH1 0x0 PUSH1 0x4 DUP2 LT PUSH2 0xE9B JUMPI PUSH2 0xE9A PUSH2 0x2548 JUMP JUMPDEST JUMPDEST PUSH1 0x20 MUL ADD MLOAD DUP11 MULMOD DUP2 MSTORE PUSH1 0x20 ADD PUSH32 0xFFFFFFFFFFFFFFFFFFFFFFFFFFFFFFFFFFFFFFFFFFFFFFFFFFFFFFFEFFFFFC2F DUP1 PUSH2 0xED6 JUMPI PUSH2 0xED5 PUSH2 0x2916 JUMP JUMPDEST JUMPDEST DUP4 PUSH1 0x1 PUSH1 0x4 DUP2 LT PUSH2 0xEEA JUMPI PUSH2 0xEE9 PUSH2 0x2548 JUMP JUMPDEST JUMPDEST PUSH1 0x20 MUL ADD MLOAD DUP10 MULMOD DUP2 MSTORE POP SWAP1 POP DUP1 PUSH1 0x2 PUSH1 0x4 DUP2 LT PUSH2 0xF0A JUMPI PUSH2 0xF09 PUSH2 0x2548 JUMP JUMPDEST JUMPDEST PUSH1 0x20 MUL ADD MLOAD DUP2 PUSH1 0x0 PUSH1 0x4 DUP2 LT PUSH2 0xF23 JUMPI PUSH2 0xF22 PUSH2 0x2548 JUMP JUMPDEST JUMPDEST PUSH1 0x20 MUL ADD MLOAD EQ ISZERO DUP1 PUSH2 0xF65 JUMPI POP DUP1 PUSH1 0x3 PUSH1 0x4 DUP2 LT PUSH2 0xF44 JUMPI PUSH2 0xF43 PUSH2 0x2548 JUMP JUMPDEST JUMPDEST PUSH1 0x20 MUL ADD MLOAD DUP2 PUSH1 0x1 PUSH1 0x4 DUP2 LT PUSH2 0xF5D JUMPI PUSH2 0xF5C PUSH2 0x2548 JUMP JUMPDEST JUMPDEST PUSH1 0x20 MUL ADD MLOAD EQ ISZERO JUMPDEST PUSH2 0xFA4 JUMPI PUSH1 0x40 MLOAD PUSH32 0x8C379A000000000000000000000000000000000000000000000000000000000 DUP2 MSTORE PUSH1 0x4 ADD PUSH2 0xF9B SWAP1 PUSH2 0x2A27 JUMP JUMPDEST PUSH1 0x40 MLOAD DUP1 SWAP2 SUB SWAP1 REVERT JUMPDEST PUSH2 0xFAC PUSH2 0x1E1D JUMP JUMPDEST PUSH32 0xFFFFFFFFFFFFFFFFFFFFFFFFFFFFFFFFFFFFFFFFFFFFFFFFFFFFFFFEFFFFFC2F DUP1 PUSH2 0xFDB JUMPI PUSH2 0xFDA PUSH2 0x2916 JUMP JUMPDEST JUMPDEST DUP3 PUSH1 0x0 PUSH1 0x4 DUP2 LT PUSH2 0xFEF JUMPI PUSH2 0xFEE PUSH2 0x2548 JUMP JUMPDEST JUMPDEST PUSH1 0x20 MUL ADD MLOAD PUSH32 0xFFFFFFFFFFFFFFFFFFFFFFFFFFFFFFFFFFFFFFFFFFFFFFFFFFFFFFFEFFFFFC2F PUSH2 0x101F SWAP2 SWAP1 PUSH2 0x2976 JUMP JUMPDEST DUP4 PUSH1 0x2 PUSH1 0x4 DUP2 LT PUSH2 0x1033 JUMPI PUSH2 0x1032 PUSH2 0x2548 JUMP JUMPDEST JUMPDEST PUSH1 0x20 MUL ADD MLOAD ADDMOD DUP2 PUSH1 0x0 PUSH1 0x4 DUP2 LT PUSH2 0x104D JUMPI PUSH2 0x104C PUSH2 0x2548 JUMP JUMPDEST JUMPDEST PUSH1 0x20 MUL ADD DUP2 DUP2 MSTORE POP POP PUSH32 0xFFFFFFFFFFFFFFFFFFFFFFFFFFFFFFFFFFFFFFFFFFFFFFFFFFFFFFFEFFFFFC2F DUP1 PUSH2 0x1085 JUMPI PUSH2 0x1084 PUSH2 0x2916 JUMP JUMPDEST JUMPDEST DUP3 PUSH1 0x1 PUSH1 0x4 DUP2 LT PUSH2 0x1099 JUMPI PUSH2 0x1098 PUSH2 0x2548 JUMP JUMPDEST JUMPDEST PUSH1 0x20 MUL ADD MLOAD PUSH32 0xFFFFFFFFFFFFFFFFFFFFFFFFFFFFFFFFFFFFFFFFFFFFFFFFFFFFFFFEFFFFFC2F PUSH2 0x10C9 SWAP2 SWAP1 PUSH2 0x2976 JUMP JUMPDEST DUP4 PUSH1 0x3 PUSH1 0x4 DUP2 LT PUSH2 0x10DD JUMPI PUSH2 0x10DC PUSH2 0x2548 JUMP JUMPDEST JUMPDEST PUSH1 0x20 MUL ADD MLOAD ADDMOD DUP2 PUSH1 0x1 PUSH1 0x4 DUP2 LT PUSH2 0x10F7 JUMPI PUSH2 0x10F6 PUSH2 0x2548 JUMP JUMPDEST JUMPDEST PUSH1 0x20 MUL ADD DUP2 DUP2 MSTORE POP POP PUSH32 0xFFFFFFFFFFFFFFFFFFFFFFFFFFFFFFFFFFFFFFFFFFFFFFFFFFFFFFFEFFFFFC2F DUP1 PUSH2 0x112F JUMPI PUSH2 0x112E PUSH2 0x2916 JUMP JUMPDEST JUMPDEST DUP2 PUSH1 0x0 PUSH1 0x4 DUP2 LT PUSH2 0x1143 JUMPI PUSH2 0x1142 PUSH2 0x2548 JUMP JUMPDEST JUMPDEST PUSH1 0x20 MUL ADD MLOAD DUP3 PUSH1 0x0 PUSH1 0x4 DUP2 LT PUSH2 0x115C JUMPI PUSH2 0x115B PUSH2 0x2548 JUMP JUMPDEST JUMPDEST PUSH1 0x20 MUL ADD MLOAD MULMOD DUP2 PUSH1 0x2 PUSH1 0x4 DUP2 LT PUSH2 0x1176 JUMPI PUSH2 0x1175 PUSH2 0x2548 JUMP JUMPDEST JUMPDEST PUSH1 0x20 MUL ADD DUP2 DUP2 MSTORE POP POP PUSH32 0xFFFFFFFFFFFFFFFFFFFFFFFFFFFFFFFFFFFFFFFFFFFFFFFFFFFFFFFEFFFFFC2F DUP1 PUSH2 0x11AE JUMPI PUSH2 0x11AD PUSH2 0x2916 JUMP JUMPDEST JUMPDEST DUP2 PUSH1 0x0 PUSH1 0x4 DUP2 LT PUSH2 0x11C2 JUMPI PUSH2 0x11C1 PUSH2 0x2548 JUMP JUMPDEST JUMPDEST PUSH1 0x20 MUL ADD MLOAD DUP3 PUSH1 0x2 PUSH1 0x4 DUP2 LT PUSH2 0x11DB JUMPI PUSH2 0x11DA PUSH2 0x2548 JUMP JUMPDEST JUMPDEST PUSH1 0x20 MUL ADD MLOAD MULMOD DUP2 PUSH1 0x3 PUSH1 0x4 DUP2 LT PUSH2 0x11F5 JUMPI PUSH2 0x11F4 PUSH2 0x2548 JUMP JUMPDEST JUMPDEST PUSH1 0x20 MUL ADD DUP2 DUP2 MSTORE POP POP PUSH1 0x0 PUSH32 0xFFFFFFFFFFFFFFFFFFFFFFFFFFFFFFFFFFFFFFFFFFFFFFFFFFFFFFFEFFFFFC2F DUP1 PUSH2 0x122F JUMPI PUSH2 0x122E PUSH2 0x2916 JUMP JUMPDEST JUMPDEST DUP3 PUSH1 0x3 PUSH1 0x4 DUP2 LT PUSH2 0x1243 JUMPI PUSH2 0x1242 PUSH2 0x2548 JUMP JUMPDEST JUMPDEST PUSH1 0x20 MUL ADD MLOAD PUSH32 0xFFFFFFFFFFFFFFFFFFFFFFFFFFFFFFFFFFFFFFFFFFFFFFFFFFFFFFFEFFFFFC2F PUSH2 0x1273 SWAP2 SWAP1 PUSH2 0x2976 JUMP JUMPDEST PUSH32 0xFFFFFFFFFFFFFFFFFFFFFFFFFFFFFFFFFFFFFFFFFFFFFFFFFFFFFFFEFFFFFC2F DUP1 PUSH2 0x12A2 JUMPI PUSH2 0x12A1 PUSH2 0x2916 JUMP JUMPDEST JUMPDEST DUP5 PUSH1 0x1 PUSH1 0x4 DUP2 LT PUSH2 0x12B6 JUMPI PUSH2 0x12B5 PUSH2 0x2548 JUMP JUMPDEST JUMPDEST PUSH1 0x20 MUL ADD MLOAD DUP6 PUSH1 0x1 PUSH1 0x4 DUP2 LT PUSH2 0x12CF JUMPI PUSH2 0x12CE PUSH2 0x2548 JUMP JUMPDEST JUMPDEST PUSH1 0x20 MUL ADD MLOAD MULMOD ADDMOD SWAP1 POP PUSH32 0xFFFFFFFFFFFFFFFFFFFFFFFFFFFFFFFFFFFFFFFFFFFFFFFFFFFFFFFEFFFFFC2F DUP1 PUSH2 0x1307 JUMPI PUSH2 0x1306 PUSH2 0x2916 JUMP JUMPDEST JUMPDEST PUSH32 0xFFFFFFFFFFFFFFFFFFFFFFFFFFFFFFFFFFFFFFFFFFFFFFFFFFFFFFFEFFFFFC2F DUP1 PUSH2 0x1336 JUMPI PUSH2 0x1335 PUSH2 0x2916 JUMP JUMPDEST JUMPDEST PUSH32 0xFFFFFFFFFFFFFFFFFFFFFFFFFFFFFFFFFFFFFFFFFFFFFFFFFFFFFFFEFFFFFC2F DUP1 PUSH2 0x1365 JUMPI PUSH2 0x1364 PUSH2 0x2916 JUMP JUMPDEST JUMPDEST DUP5 PUSH1 0x2 PUSH1 0x4 DUP2 LT PUSH2 0x1379 JUMPI PUSH2 0x1378 PUSH2 0x2548 JUMP JUMPDEST JUMPDEST PUSH1 0x20 MUL ADD MLOAD DUP7 PUSH1 0x0 PUSH1 0x4 DUP2 LT PUSH2 0x1392 JUMPI PUSH2 0x1391 PUSH2 0x2548 JUMP JUMPDEST JUMPDEST PUSH1 0x20 MUL ADD MLOAD MULMOD PUSH1 0x2 MULMOD PUSH32 0xFFFFFFFFFFFFFFFFFFFFFFFFFFFFFFFFFFFFFFFFFFFFFFFFFFFFFFFEFFFFFC2F PUSH2 0x13C6 SWAP2 SWAP1 PUSH2 0x2976 JUMP JUMPDEST DUP3 ADDMOD SWAP1 POP PUSH1 0x0 PUSH32 0xFFFFFFFFFFFFFFFFFFFFFFFFFFFFFFFFFFFFFFFFFFFFFFFFFFFFFFFEFFFFFC2F DUP1 PUSH2 0x13FB JUMPI PUSH2 0x13FA PUSH2 0x2916 JUMP JUMPDEST JUMPDEST PUSH32 0xFFFFFFFFFFFFFFFFFFFFFFFFFFFFFFFFFFFFFFFFFFFFFFFFFFFFFFFEFFFFFC2F DUP1 PUSH2 0x142A JUMPI PUSH2 0x1429 PUSH2 0x2916 JUMP JUMPDEST JUMPDEST DUP4 PUSH32 0xFFFFFFFFFFFFFFFFFFFFFFFFFFFFFFFFFFFFFFFFFFFFFFFFFFFFFFFEFFFFFC2F PUSH2 0x1456 SWAP2 SWAP1 PUSH2 0x2976 JUMP JUMPDEST PUSH32 0xFFFFFFFFFFFFFFFFFFFFFFFFFFFFFFFFFFFFFFFFFFFFFFFFFFFFFFFEFFFFFC2F DUP1 PUSH2 0x1485 JUMPI PUSH2 0x1484 PUSH2 0x2916 JUMP JUMPDEST JUMPDEST DUP7 PUSH1 0x2 PUSH1 0x4 DUP2 LT PUSH2 0x1499 JUMPI PUSH2 0x1498 PUSH2 0x2548 JUMP JUMPDEST JUMPDEST PUSH1 0x20 MUL ADD MLOAD DUP9 PUSH1 0x0 PUSH1 0x4 DUP2 LT PUSH2 0x14B2 JUMPI PUSH2 0x14B1 PUSH2 0x2548 JUMP JUMPDEST JUMPDEST PUSH1 0x20 MUL ADD MLOAD MULMOD ADDMOD DUP5 PUSH1 0x1 PUSH1 0x4 DUP2 LT PUSH2 0x14CD JUMPI PUSH2 0x14CC PUSH2 0x2548 JUMP JUMPDEST JUMPDEST PUSH1 0x20 MUL ADD MLOAD MULMOD SWAP1 POP PUSH32 0xFFFFFFFFFFFFFFFFFFFFFFFFFFFFFFFFFFFFFFFFFFFFFFFFFFFFFFFEFFFFFC2F DUP1 PUSH2 0x1504 JUMPI PUSH2 0x1503 PUSH2 0x2916 JUMP JUMPDEST JUMPDEST PUSH32 0xFFFFFFFFFFFFFFFFFFFFFFFFFFFFFFFFFFFFFFFFFFFFFFFFFFFFFFFEFFFFFC2F DUP1 PUSH2 0x1533 JUMPI PUSH2 0x1532 PUSH2 0x2916 JUMP JUMPDEST JUMPDEST DUP5 PUSH1 0x3 PUSH1 0x4 DUP2 LT PUSH2 0x1547 JUMPI PUSH2 0x1546 PUSH2 0x2548 JUMP JUMPDEST JUMPDEST PUSH1 0x20 MUL ADD MLOAD DUP7 PUSH1 0x1 PUSH1 0x4 DUP2 LT PUSH2 0x1560 JUMPI PUSH2 0x155F PUSH2 0x2548 JUMP JUMPDEST JUMPDEST PUSH1 0x20 MUL ADD MLOAD MULMOD PUSH32 0xFFFFFFFFFFFFFFFFFFFFFFFFFFFFFFFFFFFFFFFFFFFFFFFFFFFFFFFEFFFFFC2F PUSH2 0x1591 SWAP2 SWAP1 PUSH2 0x2976 JUMP JUMPDEST DUP3 ADDMOD SWAP1 POP PUSH1 0x0 PUSH32 0xFFFFFFFFFFFFFFFFFFFFFFFFFFFFFFFFFFFFFFFFFFFFFFFFFFFFFFFEFFFFFC2F DUP1 PUSH2 0x15C6 JUMPI PUSH2 0x15C5 PUSH2 0x2916 JUMP JUMPDEST JUMPDEST PUSH32 0xFFFFFFFFFFFFFFFFFFFFFFFFFFFFFFFFFFFFFFFFFFFFFFFFFFFFFFFEFFFFFC2F DUP1 PUSH2 0x15F5 JUMPI PUSH2 0x15F4 PUSH2 0x2916 JUMP JUMPDEST JUMPDEST DUP11 DUP15 MULMOD DUP6 PUSH1 0x0 PUSH1 0x4 DUP2 LT PUSH2 0x160C JUMPI PUSH2 0x160B PUSH2 0x2548 JUMP JUMPDEST JUMPDEST PUSH1 0x20 MUL ADD MLOAD MULMOD SWAP1 POP DUP3 DUP3 DUP3 SWAP8 POP SWAP8 POP SWAP8 POP POP POP POP POP POP JUMPDEST SWAP7 POP SWAP7 POP SWAP7 SWAP4 POP POP POP POP JUMP JUMPDEST PUSH1 0x0 DUP1 PUSH1 0x0 DUP1 DUP5 SUB PUSH2 0x1649 JUMPI DUP6 DUP6 DUP6 SWAP3 POP SWAP3 POP SWAP3 POP PUSH2 0x1AA3 JUMP JUMPDEST PUSH1 0x0 PUSH32 0xFFFFFFFFFFFFFFFFFFFFFFFFFFFFFFFFFFFFFFFFFFFFFFFFFFFFFFFEFFFFFC2F DUP1 PUSH2 0x167A JUMPI PUSH2 0x1679 PUSH2 0x2916 JUMP JUMPDEST JUMPDEST DUP8 DUP9 MULMOD SWAP1 POP PUSH1 0x0 PUSH32 0xFFFFFFFFFFFFFFFFFFFFFFFFFFFFFFFFFFFFFFFFFFFFFFFFFFFFFFFEFFFFFC2F DUP1 PUSH2 0x16B0 JUMPI PUSH2 0x16AF PUSH2 0x2916 JUMP JUMPDEST JUMPDEST DUP8 DUP9 MULMOD SWAP1 POP PUSH1 0x0 PUSH32 0xFFFFFFFFFFFFFFFFFFFFFFFFFFFFFFFFFFFFFFFFFFFFFFFFFFFFFFFEFFFFFC2F DUP1 PUSH2 0x16E6 JUMPI PUSH2 0x16E5 PUSH2 0x2916 JUMP JUMPDEST JUMPDEST DUP8 DUP9 MULMOD SWAP1 POP PUSH1 0x0 PUSH32 0xFFFFFFFFFFFFFFFFFFFFFFFFFFFFFFFFFFFFFFFFFFFFFFFFFFFFFFFEFFFFFC2F DUP1 PUSH2 0x171C JUMPI PUSH2 0x171B PUSH2 0x2916 JUMP JUMPDEST JUMPDEST PUSH32 0xFFFFFFFFFFFFFFFFFFFFFFFFFFFFFFFFFFFFFFFFFFFFFFFFFFFFFFFEFFFFFC2F DUP1 PUSH2 0x174B JUMPI PUSH2 0x174A PUSH2 0x2916 JUMP JUMPDEST JUMPDEST DUP5 DUP13 MULMOD PUSH1 0x4 MULMOD SWAP1 POP PUSH1 0x0 PUSH32 0xFFFFFFFFFFFFFFFFFFFFFFFFFFFFFFFFFFFFFFFFFFFFFFFFFFFFFFFEFFFFFC2F DUP1 PUSH2 0x1784 JUMPI PUSH2 0x1783 PUSH2 0x2916 JUMP JUMPDEST JUMPDEST PUSH32 0xFFFFFFFFFFFFFFFFFFFFFFFFFFFFFFFFFFFFFFFFFFFFFFFFFFFFFFFEFFFFFC2F DUP1 PUSH2 0x17B3 JUMPI PUSH2 0x17B2 PUSH2 0x2916 JUMP JUMPDEST JUMPDEST PUSH32 0xFFFFFFFFFFFFFFFFFFFFFFFFFFFFFFFFFFFFFFFFFFFFFFFFFFFFFFFEFFFFFC2F DUP1 PUSH2 0x17E2 JUMPI PUSH2 0x17E1 PUSH2 0x2916 JUMP JUMPDEST JUMPDEST DUP6 DUP7 MULMOD PUSH1 0x0 MULMOD PUSH32 0xFFFFFFFFFFFFFFFFFFFFFFFFFFFFFFFFFFFFFFFFFFFFFFFFFFFFFFFEFFFFFC2F DUP1 PUSH2 0x1817 JUMPI PUSH2 0x1816 PUSH2 0x2916 JUMP JUMPDEST JUMPDEST DUP8 PUSH1 0x3 MULMOD ADDMOD SWAP1 POP PUSH32 0xFFFFFFFFFFFFFFFFFFFFFFFFFFFFFFFFFFFFFFFFFFFFFFFFFFFFFFFEFFFFFC2F DUP1 PUSH2 0x184D JUMPI PUSH2 0x184C PUSH2 0x2916 JUMP JUMPDEST JUMPDEST PUSH32 0xFFFFFFFFFFFFFFFFFFFFFFFFFFFFFFFFFFFFFFFFFFFFFFFFFFFFFFFEFFFFFC2F DUP1 PUSH2 0x187C JUMPI PUSH2 0x187B PUSH2 0x2916 JUMP JUMPDEST JUMPDEST DUP4 DUP5 ADDMOD PUSH32 0xFFFFFFFFFFFFFFFFFFFFFFFFFFFFFFFFFFFFFFFFFFFFFFFFFFFFFFFEFFFFFC2F PUSH2 0x18AA SWAP2 SWAP1 PUSH2 0x2976 JUMP JUMPDEST PUSH32 0xFFFFFFFFFFFFFFFFFFFFFFFFFFFFFFFFFFFFFFFFFFFFFFFFFFFFFFFEFFFFFC2F DUP1 PUSH2 0x18D9 JUMPI PUSH2 0x18D8 PUSH2 0x2916 JUMP JUMPDEST JUMPDEST DUP4 DUP5 MULMOD ADDMOD SWAP5 POP PUSH32 0xFFFFFFFFFFFFFFFFFFFFFFFFFFFFFFFFFFFFFFFFFFFFFFFFFFFFFFFEFFFFFC2F DUP1 PUSH2 0x190E JUMPI PUSH2 0x190D PUSH2 0x2916 JUMP JUMPDEST JUMPDEST PUSH32 0xFFFFFFFFFFFFFFFFFFFFFFFFFFFFFFFFFFFFFFFFFFFFFFFFFFFFFFFEFFFFFC2F DUP1 PUSH2 0x193D JUMPI PUSH2 0x193C PUSH2 0x2916 JUMP JUMPDEST JUMPDEST PUSH32 0xFFFFFFFFFFFFFFFFFFFFFFFFFFFFFFFFFFFFFFFFFFFFFFFFFFFFFFFEFFFFFC2F DUP1 PUSH2 0x196C JUMPI PUSH2 0x196B PUSH2 0x2916 JUMP JUMPDEST JUMPDEST DUP7 DUP8 MULMOD PUSH1 0x8 MULMOD PUSH32 0xFFFFFFFFFFFFFFFFFFFFFFFFFFFFFFFFFFFFFFFFFFFFFFFFFFFFFFFEFFFFFC2F PUSH2 0x199D SWAP2 SWAP1 PUSH2 0x2976 JUMP JUMPDEST PUSH32 0xFFFFFFFFFFFFFFFFFFFFFFFFFFFFFFFFFFFFFFFFFFFFFFFFFFFFFFFEFFFFFC2F DUP1 PUSH2 0x19CC JUMPI PUSH2 0x19CB PUSH2 0x2916 JUMP JUMPDEST JUMPDEST PUSH32 0xFFFFFFFFFFFFFFFFFFFFFFFFFFFFFFFFFFFFFFFFFFFFFFFFFFFFFFFEFFFFFC2F DUP1 PUSH2 0x19FB JUMPI PUSH2 0x19FA PUSH2 0x2916 JUMP JUMPDEST JUMPDEST DUP9 PUSH32 0xFFFFFFFFFFFFFFFFFFFFFFFFFFFFFFFFFFFFFFFFFFFFFFFFFFFFFFFEFFFFFC2F PUSH2 0x1A27 SWAP2 SWAP1 PUSH2 0x2976 JUMP JUMPDEST DUP7 ADDMOD DUP5 MULMOD ADDMOD SWAP4 POP PUSH32 0xFFFFFFFFFFFFFFFFFFFFFFFFFFFFFFFFFFFFFFFFFFFFFFFFFFFFFFFEFFFFFC2F DUP1 PUSH2 0x1A5D JUMPI PUSH2 0x1A5C PUSH2 0x2916 JUMP JUMPDEST JUMPDEST PUSH32 0xFFFFFFFFFFFFFFFFFFFFFFFFFFFFFFFFFFFFFFFFFFFFFFFFFFFFFFFEFFFFFC2F DUP1 PUSH2 0x1A8C JUMPI PUSH2 0x1A8B PUSH2 0x2916 JUMP JUMPDEST JUMPDEST DUP11 DUP13 MULMOD PUSH1 0x2 MULMOD SWAP3 POP DUP5 DUP5 DUP5 SWAP8 POP SWAP8 POP SWAP8 POP POP POP POP POP POP JUMPDEST SWAP4 POP SWAP4 POP SWAP4 SWAP1 POP JUMP JUMPDEST PUSH1 0x0 DUP1 DUP3 EQ ISZERO DUP1 ISZERO PUSH2 0x1ADE JUMPI POP PUSH32 0xFFFFFFFFFFFFFFFFFFFFFFFFFFFFFFFFFFFFFFFFFFFFFFFFFFFFFFFEFFFFFC2F DUP3 EQ ISZERO JUMPDEST DUP1 ISZERO PUSH2 0x1B0B JUMPI POP PUSH1 0x0 PUSH32 0xFFFFFFFFFFFFFFFFFFFFFFFFFFFFFFFFFFFFFFFFFFFFFFFFFFFFFFFEFFFFFC2F EQ ISZERO JUMPDEST PUSH2 0x1B4A JUMPI PUSH1 0x40 MLOAD PUSH32 0x8C379A000000000000000000000000000000000000000000000000000000000 DUP2 MSTORE PUSH1 0x4 ADD PUSH2 0x1B41 SWAP1 PUSH2 0x2A93 JUMP JUMPDEST PUSH1 0x40 MLOAD DUP1 SWAP2 SUB SWAP1 REVERT JUMPDEST PUSH1 0x0 DUP1 PUSH1 0x1 SWAP1 POP PUSH1 0x0 PUSH32 0xFFFFFFFFFFFFFFFFFFFFFFFFFFFFFFFFFFFFFFFFFFFFFFFFFFFFFFFEFFFFFC2F SWAP1 POP PUSH1 0x0 JUMPDEST PUSH1 0x0 DUP7 EQ PUSH2 0x1C4B JUMPI DUP6 DUP3 PUSH2 0x1B8D SWAP2 SWAP1 PUSH2 0x2945 JUMP JUMPDEST SWAP1 POP DUP3 PUSH32 0xFFFFFFFFFFFFFFFFFFFFFFFFFFFFFFFFFFFFFFFFFFFFFFFFFFFFFFFEFFFFFC2F DUP1 PUSH2 0x1BBF JUMPI PUSH2 0x1BBE PUSH2 0x2916 JUMP JUMPDEST JUMPDEST PUSH32 0xFFFFFFFFFFFFFFFFFFFFFFFFFFFFFFFFFFFFFFFFFFFFFFFFFFFFFFFEFFFFFC2F DUP1 PUSH2 0x1BEE JUMPI PUSH2 0x1BED PUSH2 0x2916 JUMP JUMPDEST JUMPDEST DUP6 DUP5 MULMOD PUSH32 0xFFFFFFFFFFFFFFFFFFFFFFFFFFFFFFFFFFFFFFFFFFFFFFFFFFFFFFFEFFFFFC2F PUSH2 0x1C1C SWAP2 SWAP1 PUSH2 0x2976 JUMP JUMPDEST DUP7 ADDMOD DUP1 SWAP5 POP DUP2 SWAP6 POP POP POP DUP6 DUP7 DUP3 PUSH2 0x1C33 SWAP2 SWAP1 PUSH2 0x2AB3 JUMP JUMPDEST DUP4 PUSH2 0x1C3E SWAP2 SWAP1 PUSH2 0x2976 JUMP JUMPDEST DUP1 SWAP8 POP DUP2 SWAP4 POP POP POP PUSH2 0x1B79 JUMP JUMPDEST DUP4 SWAP5 POP POP POP POP POP SWAP2 SWAP1 POP JUMP JUMPDEST PUSH1 0x0 DUP1 PUSH1 0x0 SWAP1 POP PUSH27 0x184F03E93FF9F4DAA797ED6E38ED64BF6A1F010000000000000000 DUP4 LT PUSH2 0x1CB5 JUMPI PUSH27 0x184F03E93FF9F4DAA797ED6E38ED64BF6A1F010000000000000000 DUP4 DUP2 PUSH2 0x1CAB JUMPI PUSH2 0x1CAA PUSH2 0x2916 JUMP JUMPDEST JUMPDEST DIV SWAP3 POP PUSH1 0x40 DUP2 ADD SWAP1 POP JUMPDEST PUSH14 0x4EE2D6D415B85ACEF8100000000 DUP4 LT PUSH2 0x1CF2 JUMPI PUSH14 0x4EE2D6D415B85ACEF8100000000 DUP4 DUP2 PUSH2 0x1CE8 JUMPI PUSH2 0x1CE7 PUSH2 0x2916 JUMP JUMPDEST JUMPDEST DIV SWAP3 POP PUSH1 0x20 DUP2 ADD SWAP1 POP JUMPDEST PUSH7 0x2386F26FC10000 DUP4 LT PUSH2 0x1D21 JUMPI PUSH7 0x2386F26FC10000 DUP4 DUP2 PUSH2 0x1D17 JUMPI PUSH2 0x1D16 PUSH2 0x2916 JUMP JUMPDEST JUMPDEST DIV SWAP3 POP PUSH1 0x10 DUP2 ADD SWAP1 POP JUMPDEST PUSH4 0x5F5E100 DUP4 LT PUSH2 0x1D4A JUMPI PUSH4 0x5F5E100 DUP4 DUP2 PUSH2 0x1D40 JUMPI PUSH2 0x1D3F PUSH2 0x2916 JUMP JUMPDEST JUMPDEST DIV SWAP3 POP PUSH1 0x8 DUP2 ADD SWAP1 POP JUMPDEST PUSH2 0x2710 DUP4 LT PUSH2 0x1D6F JUMPI PUSH2 0x2710 DUP4 DUP2 PUSH2 0x1D65 JUMPI PUSH2 0x1D64 PUSH2 0x2916 JUMP JUMPDEST JUMPDEST DIV SWAP3 POP PUSH1 0x4 DUP2 ADD SWAP1 POP JUMPDEST PUSH1 0x64 DUP4 LT PUSH2 0x1D92 JUMPI PUSH1 0x64 DUP4 DUP2 PUSH2 0x1D88 JUMPI PUSH2 0x1D87 PUSH2 0x2916 JUMP JUMPDEST JUMPDEST DIV SWAP3 POP PUSH1 0x2 DUP2 ADD SWAP1 POP JUMPDEST PUSH1 0xA DUP4 LT PUSH2 0x1DA1 JUMPI PUSH1 0x1 DUP2 ADD SWAP1 POP JUMPDEST DUP1 SWAP2 POP POP SWAP2 SWAP1 POP JUMP JUMPDEST DUP3 DUP1 SLOAD DUP3 DUP3 SSTORE SWAP1 PUSH1 0x0 MSTORE PUSH1 0x20 PUSH1 0x0 KECCAK256 SWAP1 DUP2 ADD SWAP3 DUP3 ISZERO PUSH2 0x1DF2 JUMPI SWAP2 PUSH1 0x20 MUL DUP3 ADD JUMPDEST DUP3 DUP2 GT ISZERO PUSH2 0x1DF1 JUMPI DUP3 MLOAD DUP3 SWAP1 DUP2 PUSH2 0x1DE1 SWAP2 SWAP1 PUSH2 0x2D01 JUMP JUMPDEST POP SWAP2 PUSH1 0x20 ADD SWAP2 SWAP1 PUSH1 0x1 ADD SWAP1 PUSH2 0x1DCA JUMP JUMPDEST JUMPDEST POP SWAP1 POP PUSH2 0x1DFF SWAP2 SWAP1 PUSH2 0x1E3F JUMP JUMPDEST POP SWAP1 JUMP JUMPDEST PUSH1 0x40 MLOAD DUP1 PUSH1 0x40 ADD PUSH1 0x40 MSTORE DUP1 PUSH1 0x0 DUP2 MSTORE PUSH1 0x20 ADD PUSH1 0x0 DUP2 MSTORE POP SWAP1 JUMP JUMPDEST PUSH1 0x40 MLOAD DUP1 PUSH1 0x80 ADD PUSH1 0x40 MSTORE DUP1 PUSH1 0x4 SWAP1 PUSH1 0x20 DUP3 MUL DUP1 CALLDATASIZE DUP4 CALLDATACOPY DUP1 DUP3 ADD SWAP2 POP POP SWAP1 POP POP SWAP1 JUMP JUMPDEST JUMPDEST DUP1 DUP3 GT ISZERO PUSH2 0x1E5F JUMPI PUSH1 0x0 DUP2 DUP2 PUSH2 0x1E56 SWAP2 SWAP1 PUSH2 0x1E63 JUMP JUMPDEST POP PUSH1 0x1 ADD PUSH2 0x1E40 JUMP JUMPDEST POP SWAP1 JUMP JUMPDEST POP DUP1 SLOAD PUSH2 0x1E6F SWAP1 PUSH2 0x2B24 JUMP JUMPDEST PUSH1 0x0 DUP3 SSTORE DUP1 PUSH1 0x1F LT PUSH2 0x1E81 JUMPI POP PUSH2 0x1EA0 JUMP JUMPDEST PUSH1 0x1F ADD PUSH1 0x20 SWAP1 DIV SWAP1 PUSH1 0x0 MSTORE PUSH1 0x20 PUSH1 0x0 KECCAK256 SWAP1 DUP2 ADD SWAP1 PUSH2 0x1E9F SWAP2 SWAP1 PUSH2 0x1EA3 JUMP JUMPDEST JUMPDEST POP JUMP JUMPDEST JUMPDEST DUP1 DUP3 GT ISZERO PUSH2 0x1EBC JUMPI PUSH1 0x0 DUP2 PUSH1 0x0 SWAP1 SSTORE POP PUSH1 0x1 ADD PUSH2 0x1EA4 JUMP JUMPDEST POP SWAP1 JUMP JUMPDEST PUSH32 0x4E487B7100000000000000000000000000000000000000000000000000000000 PUSH1 0x0 MSTORE PUSH1 0x21 PUSH1 0x4 MSTORE PUSH1 0x24 PUSH1 0x0 REVERT JUMPDEST PUSH1 0x0 PUSH1 0x40 MLOAD SWAP1 POP SWAP1 JUMP JUMPDEST PUSH1 0x0 DUP1 REVERT JUMPDEST PUSH1 0x0 DUP1 REVERT JUMPDEST PUSH1 0x0 DUP1 REVERT JUMPDEST PUSH1 0x0 PUSH1 0x1F NOT PUSH1 0x1F DUP4 ADD AND SWAP1 POP SWAP2 SWAP1 POP JUMP JUMPDEST PUSH32 0x4E487B7100000000000000000000000000000000000000000000000000000000 PUSH1 0x0 MSTORE PUSH1 0x41 PUSH1 0x4 MSTORE PUSH1 0x24 PUSH1 0x0 REVERT JUMPDEST PUSH2 0x1F51 DUP3 PUSH2 0x1F08 JUMP JUMPDEST DUP2 ADD DUP2 DUP2 LT PUSH8 0xFFFFFFFFFFFFFFFF DUP3 GT OR ISZERO PUSH2 0x1F70 JUMPI PUSH2 0x1F6F PUSH2 0x1F19 JUMP JUMPDEST JUMPDEST DUP1 PUSH1 0x40 MSTORE POP POP POP JUMP JUMPDEST PUSH1 0x0 PUSH2 0x1F83 PUSH2 0x1EEF JUMP JUMPDEST SWAP1 POP PUSH2 0x1F8F DUP3 DUP3 PUSH2 0x1F48 JUMP JUMPDEST SWAP2 SWAP1 POP JUMP JUMPDEST PUSH1 0x0 PUSH8 0xFFFFFFFFFFFFFFFF DUP3 GT ISZERO PUSH2 0x1FAF JUMPI PUSH2 0x1FAE PUSH2 0x1F19 JUMP JUMPDEST JUMPDEST PUSH1 0x20 DUP3 MUL SWAP1 POP PUSH1 0x20 DUP2 ADD SWAP1 POP SWAP2 SWAP1 POP JUMP JUMPDEST PUSH1 0x0 DUP1 REVERT JUMPDEST PUSH1 0x0 DUP1 REVERT JUMPDEST PUSH1 0x0 DUP2 SWAP1 POP SWAP2 SWAP1 POP JUMP JUMPDEST PUSH2 0x1FDD DUP2 PUSH2 0x1FCA JUMP JUMPDEST DUP2 EQ PUSH2 0x1FE8 JUMPI PUSH1 0x0 DUP1 REVERT JUMPDEST POP JUMP JUMPDEST PUSH1 0x0 DUP2 MLOAD SWAP1 POP PUSH2 0x1FFA DUP2 PUSH2 0x1FD4 JUMP JUMPDEST SWAP3 SWAP2 POP POP JUMP JUMPDEST PUSH1 0x0 PUSH1 0x40 DUP3 DUP5 SUB SLT ISZERO PUSH2 0x2016 JUMPI PUSH2 0x2015 PUSH2 0x1FC5 JUMP JUMPDEST JUMPDEST PUSH2 0x2020 PUSH1 0x40 PUSH2 0x1F79 JUMP JUMPDEST SWAP1 POP PUSH1 0x0 PUSH2 0x2030 DUP5 DUP3 DUP6 ADD PUSH2 0x1FEB JUMP JUMPDEST PUSH1 0x0 DUP4 ADD MSTORE POP PUSH1 0x20 PUSH2 0x2044 DUP5 DUP3 DUP6 ADD PUSH2 0x1FEB JUMP JUMPDEST PUSH1 0x20 DUP4 ADD MSTORE POP SWAP3 SWAP2 POP POP JUMP JUMPDEST PUSH1 0x0 PUSH1 0x40 DUP3 DUP5 SUB SLT ISZERO PUSH2 0x2066 JUMPI PUSH2 0x2065 PUSH2 0x1FC5 JUMP JUMPDEST JUMPDEST PUSH2 0x2070 PUSH1 0x40 PUSH2 0x1F79 JUMP JUMPDEST SWAP1 POP PUSH1 0x0 PUSH2 0x2080 DUP5 DUP3 DUP6 ADD PUSH2 0x1FEB JUMP JUMPDEST PUSH1 0x0 DUP4 ADD MSTORE POP PUSH1 0x20 PUSH2 0x2094 DUP5 DUP3 DUP6 ADD PUSH2 0x1FEB JUMP JUMPDEST PUSH1 0x20 DUP4 ADD MSTORE POP SWAP3 SWAP2 POP POP JUMP JUMPDEST PUSH1 0x0 PUSH1 0x80 DUP3 DUP5 SUB SLT ISZERO PUSH2 0x20B6 JUMPI PUSH2 0x20B5 PUSH2 0x1FC5 JUMP JUMPDEST JUMPDEST PUSH2 0x20C0 PUSH1 0x40 PUSH2 0x1F79 JUMP JUMPDEST SWAP1 POP PUSH1 0x0 PUSH2 0x20D0 DUP5 DUP3 DUP6 ADD PUSH2 0x2000 JUMP JUMPDEST PUSH1 0x0 DUP4 ADD MSTORE POP PUSH1 0x40 PUSH2 0x20E4 DUP5 DUP3 DUP6 ADD PUSH2 0x2050 JUMP JUMPDEST PUSH1 0x20 DUP4 ADD MSTORE POP SWAP3 SWAP2 POP POP JUMP JUMPDEST PUSH1 0x0 PUSH2 0x2103 PUSH2 0x20FE DUP5 PUSH2 0x1F94 JUMP JUMPDEST PUSH2 0x1F79 JUMP JUMPDEST SWAP1 POP DUP1 DUP4 DUP3 MSTORE PUSH1 0x20 DUP3 ADD SWAP1 POP PUSH1 0x80 DUP5 MUL DUP4 ADD DUP6 DUP2 GT ISZERO PUSH2 0x2126 JUMPI PUSH2 0x2125 PUSH2 0x1FC0 JUMP JUMPDEST JUMPDEST DUP4 JUMPDEST DUP2 DUP2 LT ISZERO PUSH2 0x214F JUMPI DUP1 PUSH2 0x213B DUP9 DUP3 PUSH2 0x20A0 JUMP JUMPDEST DUP5 MSTORE PUSH1 0x20 DUP5 ADD SWAP4 POP POP PUSH1 0x80 DUP2 ADD SWAP1 POP PUSH2 0x2128 JUMP JUMPDEST POP POP POP SWAP4 SWAP3 POP POP POP JUMP JUMPDEST PUSH1 0x0 DUP3 PUSH1 0x1F DUP4 ADD SLT PUSH2 0x216E JUMPI PUSH2 0x216D PUSH2 0x1F03 JUMP JUMPDEST JUMPDEST DUP2 MLOAD PUSH2 0x217E DUP5 DUP3 PUSH1 0x20 DUP7 ADD PUSH2 0x20F0 JUMP JUMPDEST SWAP2 POP POP SWAP3 SWAP2 POP POP JUMP JUMPDEST PUSH1 0x0 PUSH8 0xFFFFFFFFFFFFFFFF DUP3 GT ISZERO PUSH2 0x21A2 JUMPI PUSH2 0x21A1 PUSH2 0x1F19 JUMP JUMPDEST JUMPDEST PUSH1 0x20 DUP3 MUL SWAP1 POP PUSH1 0x20 DUP2 ADD SWAP1 POP SWAP2 SWAP1 POP JUMP JUMPDEST PUSH1 0x0 DUP1 REVERT JUMPDEST PUSH1 0x0 PUSH8 0xFFFFFFFFFFFFFFFF DUP3 GT ISZERO PUSH2 0x21D3 JUMPI PUSH2 0x21D2 PUSH2 0x1F19 JUMP JUMPDEST JUMPDEST PUSH2 0x21DC DUP3 PUSH2 0x1F08 JUMP JUMPDEST SWAP1 POP PUSH1 0x20 DUP2 ADD SWAP1 POP SWAP2 SWAP1 POP JUMP JUMPDEST PUSH1 0x0 JUMPDEST DUP4 DUP2 LT ISZERO PUSH2 0x2207 JUMPI DUP1 DUP3 ADD MLOAD DUP2 DUP5 ADD MSTORE PUSH1 0x20 DUP2 ADD SWAP1 POP PUSH2 0x21EC JUMP JUMPDEST PUSH1 0x0 DUP5 DUP5 ADD MSTORE POP POP POP POP JUMP JUMPDEST PUSH1 0x0 PUSH2 0x2226 PUSH2 0x2221 DUP5 PUSH2 0x21B8 JUMP JUMPDEST PUSH2 0x1F79 JUMP JUMPDEST SWAP1 POP DUP3 DUP2 MSTORE PUSH1 0x20 DUP2 ADD DUP5 DUP5 DUP5 ADD GT ISZERO PUSH2 0x2242 JUMPI PUSH2 0x2241 PUSH2 0x21B3 JUMP JUMPDEST JUMPDEST PUSH2 0x224D DUP5 DUP3 DUP6 PUSH2 0x21E9 JUMP JUMPDEST POP SWAP4 SWAP3 POP POP POP JUMP JUMPDEST PUSH1 0x0 DUP3 PUSH1 0x1F DUP4 ADD SLT PUSH2 0x226A JUMPI PUSH2 0x2269 PUSH2 0x1F03 JUMP JUMPDEST JUMPDEST DUP2 MLOAD PUSH2 0x227A DUP5 DUP3 PUSH1 0x20 DUP7 ADD PUSH2 0x2213 JUMP JUMPDEST SWAP2 POP POP SWAP3 SWAP2 POP POP JUMP JUMPDEST PUSH1 0x0 PUSH2 0x2296 PUSH2 0x2291 DUP5 PUSH2 0x2187 JUMP JUMPDEST PUSH2 0x1F79 JUMP JUMPDEST SWAP1 POP DUP1 DUP4 DUP3 MSTORE PUSH1 0x20 DUP3 ADD SWAP1 POP PUSH1 0x20 DUP5 MUL DUP4 ADD DUP6 DUP2 GT ISZERO PUSH2 0x22B9 JUMPI PUSH2 0x22B8 PUSH2 0x1FC0 JUMP JUMPDEST JUMPDEST DUP4 JUMPDEST DUP2 DUP2 LT ISZERO PUSH2 0x2300 JUMPI DUP1 MLOAD PUSH8 0xFFFFFFFFFFFFFFFF DUP2 GT ISZERO PUSH2 0x22DE JUMPI PUSH2 0x22DD PUSH2 0x1F03 JUMP JUMPDEST JUMPDEST DUP1 DUP7 ADD PUSH2 0x22EB DUP10 DUP3 PUSH2 0x2255 JUMP JUMPDEST DUP6 MSTORE PUSH1 0x20 DUP6 ADD SWAP5 POP POP POP PUSH1 0x20 DUP2 ADD SWAP1 POP PUSH2 0x22BB JUMP JUMPDEST POP POP POP SWAP4 SWAP3 POP POP POP JUMP JUMPDEST PUSH1 0x0 DUP3 PUSH1 0x1F DUP4 ADD SLT PUSH2 0x231F JUMPI PUSH2 0x231E PUSH2 0x1F03 JUMP JUMPDEST JUMPDEST DUP2 MLOAD PUSH2 0x232F DUP5 DUP3 PUSH1 0x20 DUP7 ADD PUSH2 0x2283 JUMP JUMPDEST SWAP2 POP POP SWAP3 SWAP2 POP POP JUMP JUMPDEST PUSH1 0x0 DUP1 PUSH1 0x40 DUP4 DUP6 SUB SLT ISZERO PUSH2 0x234F JUMPI PUSH2 0x234E PUSH2 0x1EF9 JUMP JUMPDEST JUMPDEST PUSH1 0x0 DUP4 ADD MLOAD PUSH8 0xFFFFFFFFFFFFFFFF DUP2 GT ISZERO PUSH2 0x236D JUMPI PUSH2 0x236C PUSH2 0x1EFE JUMP JUMPDEST JUMPDEST PUSH2 0x2379 DUP6 DUP3 DUP7 ADD PUSH2 0x2159 JUMP JUMPDEST SWAP3 POP POP PUSH1 0x20 DUP4 ADD MLOAD PUSH8 0xFFFFFFFFFFFFFFFF DUP2 GT ISZERO PUSH2 0x239A JUMPI PUSH2 0x2399 PUSH2 0x1EFE JUMP JUMPDEST JUMPDEST PUSH2 0x23A6 DUP6 DUP3 DUP7 ADD PUSH2 0x230A JUMP JUMPDEST SWAP2 POP POP SWAP3 POP SWAP3 SWAP1 POP JUMP JUMPDEST PUSH1 0x0 DUP3 DUP3 MSTORE PUSH1 0x20 DUP3 ADD SWAP1 POP SWAP3 SWAP2 POP POP JUMP JUMPDEST PUSH32 0x4174206C656173742074776F2063616E64696461746573206172652072657175 PUSH1 0x0 DUP3 ADD MSTORE PUSH32 0x6972656400000000000000000000000000000000000000000000000000000000 PUSH1 0x20 DUP3 ADD MSTORE POP JUMP JUMPDEST PUSH1 0x0 PUSH2 0x241D PUSH1 0x24 DUP4 PUSH2 0x23B0 JUMP JUMPDEST SWAP2 POP PUSH2 0x2428 DUP3 PUSH2 0x23C1 JUMP JUMPDEST PUSH1 0x40 DUP3 ADD SWAP1 POP SWAP2 SWAP1 POP JUMP JUMPDEST PUSH1 0x0 PUSH1 0x20 DUP3 ADD SWAP1 POP DUP2 DUP2 SUB PUSH1 0x0 DUP4 ADD MSTORE PUSH2 0x244C DUP2 PUSH2 0x2410 JUMP JUMPDEST SWAP1 POP SWAP2 SWAP1 POP JUMP JUMPDEST PUSH32 0x4174206C65617374206F6E6520617574686F7269747920697320726571756972 PUSH1 0x0 DUP3 ADD MSTORE PUSH32 0x6564000000000000000000000000000000000000000000000000000000000000 PUSH1 0x20 DUP3 ADD MSTORE POP JUMP JUMPDEST PUSH1 0x0 PUSH2 0x24AF PUSH1 0x22 DUP4 PUSH2 0x23B0 JUMP JUMPDEST SWAP2 POP PUSH2 0x24BA DUP3 PUSH2 0x2453 JUMP JUMPDEST PUSH1 0x40 DUP3 ADD SWAP1 POP SWAP2 SWAP1 POP JUMP JUMPDEST PUSH1 0x0 PUSH1 0x20 DUP3 ADD SWAP1 POP DUP2 DUP2 SUB PUSH1 0x0 DUP4 ADD MSTORE PUSH2 0x24DE DUP2 PUSH2 0x24A2 JUMP JUMPDEST SWAP1 POP SWAP2 SWAP1 POP JUMP JUMPDEST PUSH32 0x4E487B7100000000000000000000000000000000000000000000000000000000 PUSH1 0x0 MSTORE PUSH1 0x11 PUSH1 0x4 MSTORE PUSH1 0x24 PUSH1 0x0 REVERT JUMPDEST PUSH1 0x0 PUSH2 0x251F DUP3 PUSH2 0x1FCA JUMP JUMPDEST SWAP2 POP PUSH2 0x252A DUP4 PUSH2 0x1FCA JUMP JUMPDEST SWAP3 POP DUP3 DUP3 ADD SWAP1 POP DUP1 DUP3 GT ISZERO PUSH2 0x2542 JUMPI PUSH2 0x2541 PUSH2 0x24E5 JUMP JUMPDEST JUMPDEST SWAP3 SWAP2 POP POP JUMP JUMPDEST PUSH32 0x4E487B7100000000000000000000000000000000000000000000000000000000 PUSH1 0x0 MSTORE PUSH1 0x32 PUSH1 0x4 MSTORE PUSH1 0x24 PUSH1 0x0 REVERT JUMPDEST PUSH32 0x4475706C696361746520617574686F72697479207075626C6963206B65790000 PUSH1 0x0 DUP3 ADD MSTORE POP JUMP JUMPDEST PUSH1 0x0 PUSH2 0x25AD PUSH1 0x1E DUP4 PUSH2 0x23B0 JUMP JUMPDEST SWAP2 POP PUSH2 0x25B8 DUP3 PUSH2 0x2577 JUMP JUMPDEST PUSH1 0x20 DUP3 ADD SWAP1 POP SWAP2 SWAP1 POP JUMP JUMPDEST PUSH1 0x0 PUSH1 0x20 DUP3 ADD SWAP1 POP DUP2 DUP2 SUB PUSH1 0x0 DUP4 ADD MSTORE PUSH2 0x25DC DUP2 PUSH2 0x25A0 JUMP JUMPDEST SWAP1 POP SWAP2 SWAP1 POP JUMP JUMPDEST PUSH32 0x4475706C696361746520617574686F726974792070726F6F6600000000000000 PUSH1 0x0 DUP3 ADD MSTORE POP JUMP JUMPDEST PUSH1 0x0 PUSH2 0x2619 PUSH1 0x19 DUP4 PUSH2 0x23B0 JUMP JUMPDEST SWAP2 POP PUSH2 0x2624 DUP3 PUSH2 0x25E3 JUMP JUMPDEST PUSH1 0x20 DUP3 ADD SWAP1 POP SWAP2 SWAP1 POP JUMP JUMPDEST PUSH1 0x0 PUSH1 0x20 DUP3 ADD SWAP1 POP DUP2 DUP2 SUB PUSH1 0x0 DUP4 ADD MSTORE PUSH2 0x2648 DUP2 PUSH2 0x260C JUMP JUMPDEST SWAP1 POP SWAP2 SWAP1 POP JUMP JUMPDEST PUSH32 0x496E76616C6964207075626C6963206B65790000000000000000000000000000 PUSH1 0x0 DUP3 ADD MSTORE POP JUMP JUMPDEST PUSH1 0x0 PUSH2 0x2685 PUSH1 0x12 DUP4 PUSH2 0x23B0 JUMP JUMPDEST SWAP2 POP PUSH2 0x2690 DUP3 PUSH2 0x264F JUMP JUMPDEST PUSH1 0x20 DUP3 ADD SWAP1 POP SWAP2 SWAP1 POP JUMP JUMPDEST PUSH1 0x0 PUSH1 0x20 DUP3 ADD SWAP1 POP DUP2 DUP2 SUB PUSH1 0x0 DUP4 ADD MSTORE PUSH2 0x26B4 DUP2 PUSH2 0x2678 JUMP JUMPDEST SWAP1 POP SWAP2 SWAP1 POP JUMP JUMPDEST PUSH32 0x496E76616C6964206B65792070726F6F66000000000000000000000000000000 PUSH1 0x0 DUP3 ADD MSTORE POP JUMP JUMPDEST PUSH1 0x0 PUSH2 0x26F1 PUSH1 0x11 DUP4 PUSH2 0x23B0 JUMP JUMPDEST SWAP2 POP PUSH2 0x26FC DUP3 PUSH2 0x26BB JUMP JUMPDEST PUSH1 0x20 DUP3 ADD SWAP1 POP SWAP2 SWAP1 POP JUMP JUMPDEST PUSH1 0x0 PUSH1 0x20 DUP3 ADD SWAP1 POP DUP2 DUP2 SUB PUSH1 0x0 DUP4 ADD MSTORE PUSH2 0x2720 DUP2 PUSH2 0x26E4 JUMP JUMPDEST SWAP1 POP SWAP2 SWAP1 POP JUMP JUMPDEST PUSH32 0x4E6F20706F696E74732070726F76696465640000000000000000000000000000 PUSH1 0x0 DUP3 ADD MSTORE POP JUMP JUMPDEST PUSH1 0x0 PUSH2 0x275D PUSH1 0x12 DUP4 PUSH2 0x23B0 JUMP JUMPDEST SWAP2 POP PUSH2 0x2768 DUP3 PUSH2 0x2727 JUMP JUMPDEST PUSH1 0x20 DUP3 ADD SWAP1 POP SWAP2 SWAP1 POP JUMP JUMPDEST PUSH1 0x0 PUSH1 0x20 DUP3 ADD SWAP1 POP DUP2 DUP2 SUB PUSH1 0x0 DUP4 ADD MSTORE PUSH2 0x278C DUP2 PUSH2 0x2750 JUMP JUMPDEST SWAP1 POP SWAP2 SWAP1 POP JUMP JUMPDEST PUSH1 0x0 DUP2 MLOAD SWAP1 POP SWAP2 SWAP1 POP JUMP JUMPDEST PUSH1 0x0 DUP2 SWAP1 POP SWAP3 SWAP2 POP POP JUMP JUMPDEST PUSH1 0x0 PUSH2 0x27B4 DUP3 PUSH2 0x2793 JUMP JUMPDEST PUSH2 0x27BE DUP2 DUP6 PUSH2 0x279E JUMP JUMPDEST SWAP4 POP PUSH2 0x27CE DUP2 DUP6 PUSH1 0x20 DUP7 ADD PUSH2 0x21E9 JUMP JUMPDEST DUP1 DUP5 ADD SWAP2 POP POP SWAP3 SWAP2 POP POP JUMP JUMPDEST PUSH32 0x2C00000000000000000000000000000000000000000000000000000000000000 PUSH1 0x0 DUP3 ADD MSTORE POP JUMP JUMPDEST PUSH1 0x0 PUSH2 0x2810 PUSH1 0x1 DUP4 PUSH2 0x279E JUMP JUMPDEST SWAP2 POP PUSH2 0x281B DUP3 PUSH2 0x27DA JUMP JUMPDEST PUSH1 0x1 DUP3 ADD SWAP1 POP SWAP2 SWAP1 POP JUMP JUMPDEST PUSH1 0x0 PUSH2 0x2832 DUP3 DUP6 PUSH2 0x27A9 JUMP JUMPDEST SWAP2 POP PUSH2 0x283D DUP3 PUSH2 0x2803 JUMP JUMPDEST SWAP2 POP PUSH2 0x2849 DUP3 DUP5 PUSH2 0x27A9 JUMP JUMPDEST SWAP2 POP DUP2 SWAP1 POP SWAP4 SWAP3 POP POP POP JUMP JUMPDEST PUSH1 0x0 DUP2 MLOAD SWAP1 POP SWAP2 SWAP1 POP JUMP JUMPDEST PUSH1 0x0 DUP2 SWAP1 POP SWAP3 SWAP2 POP POP JUMP JUMPDEST PUSH1 0x0 PUSH2 0x2876 DUP3 PUSH2 0x2855 JUMP JUMPDEST PUSH2 0x2880 DUP2 DUP6 PUSH2 0x2860 JUMP JUMPDEST SWAP4 POP PUSH2 0x2890 DUP2 DUP6 PUSH1 0x20 DUP7 ADD PUSH2 0x21E9 JUMP JUMPDEST DUP1 DUP5 ADD SWAP2 POP POP SWAP3 SWAP2 POP POP JUMP JUMPDEST PUSH1 0x0 PUSH2 0x28A8 DUP3 DUP5 PUSH2 0x286B JUMP JUMPDEST SWAP2 POP DUP2 SWAP1 POP SWAP3 SWAP2 POP POP JUMP JUMPDEST PUSH1 0x0 DUP2 SWAP1 POP SWAP2 SWAP1 POP JUMP JUMPDEST PUSH2 0x28C6 DUP2 PUSH2 0x28B3 JUMP JUMPDEST DUP2 EQ PUSH2 0x28D1 JUMPI PUSH1 0x0 DUP1 REVERT JUMPDEST POP JUMP JUMPDEST PUSH1 0x0 DUP2 MLOAD SWAP1 POP PUSH2 0x28E3 DUP2 PUSH2 0x28BD JUMP JUMPDEST SWAP3 SWAP2 POP POP JUMP JUMPDEST PUSH1 0x0 PUSH1 0x20 DUP3 DUP5 SUB SLT ISZERO PUSH2 0x28FF JUMPI PUSH2 0x28FE PUSH2 0x1EF9 JUMP JUMPDEST JUMPDEST PUSH1 0x0 PUSH2 0x290D DUP5 DUP3 DUP6 ADD PUSH2 0x28D4 JUMP JUMPDEST SWAP2 POP POP SWAP3 SWAP2 POP POP JUMP JUMPDEST PUSH32 0x4E487B7100000000000000000000000000000000000000000000000000000000 PUSH1 0x0 MSTORE PUSH1 0x12 PUSH1 0x4 MSTORE PUSH1 0x24 PUSH1 0x0 REVERT JUMPDEST PUSH1 0x0 PUSH2 0x2950 DUP3 PUSH2 0x1FCA JUMP JUMPDEST SWAP2 POP PUSH2 0x295B DUP4 PUSH2 0x1FCA JUMP JUMPDEST SWAP3 POP DUP3 PUSH2 0x296B JUMPI PUSH2 0x296A PUSH2 0x2916 JUMP JUMPDEST JUMPDEST DUP3 DUP3 DIV SWAP1 POP SWAP3 SWAP2 POP POP JUMP JUMPDEST PUSH1 0x0 PUSH2 0x2981 DUP3 PUSH2 0x1FCA JUMP JUMPDEST SWAP2 POP PUSH2 0x298C DUP4 PUSH2 0x1FCA JUMP JUMPDEST SWAP3 POP DUP3 DUP3 SUB SWAP1 POP DUP2 DUP2 GT ISZERO PUSH2 0x29A4 JUMPI PUSH2 0x29A3 PUSH2 0x24E5 JUMP JUMPDEST JUMPDEST SWAP3 SWAP2 POP POP JUMP JUMPDEST PUSH1 0x0 PUSH2 0x29B5 DUP3 PUSH2 0x1FCA JUMP JUMPDEST SWAP2 POP PUSH2 0x29C0 DUP4 PUSH2 0x1FCA JUMP JUMPDEST SWAP3 POP DUP3 PUSH2 0x29D0 JUMPI PUSH2 0x29CF PUSH2 0x2916 JUMP JUMPDEST JUMPDEST DUP3 DUP3 MOD SWAP1 POP SWAP3 SWAP2 POP POP JUMP JUMPDEST PUSH32 0x557365206A6163446F75626C652066756E6374696F6E20696E73746561640000 PUSH1 0x0 DUP3 ADD MSTORE POP JUMP JUMPDEST PUSH1 0x0 PUSH2 0x2A11 PUSH1 0x1E DUP4 PUSH2 0x23B0 JUMP JUMPDEST SWAP2 POP PUSH2 0x2A1C DUP3 PUSH2 0x29DB JUMP JUMPDEST PUSH1 0x20 DUP3 ADD SWAP1 POP SWAP2 SWAP1 POP JUMP JUMPDEST PUSH1 0x0 PUSH1 0x20 DUP3 ADD SWAP1 POP DUP2 DUP2 SUB PUSH1 0x0 DUP4 ADD MSTORE PUSH2 0x2A40 DUP2 PUSH2 0x2A04 JUMP JUMPDEST SWAP1 POP SWAP2 SWAP1 POP JUMP JUMPDEST PUSH32 0x496E76616C6964206E756D626572000000000000000000000000000000000000 PUSH1 0x0 DUP3 ADD MSTORE POP JUMP JUMPDEST PUSH1 0x0 PUSH2 0x2A7D PUSH1 0xE DUP4 PUSH2 0x23B0 JUMP JUMPDEST SWAP2 POP PUSH2 0x2A88 DUP3 PUSH2 0x2A47 JUMP JUMPDEST PUSH1 0x20 DUP3 ADD SWAP1 POP SWAP2 SWAP1 POP JUMP JUMPDEST PUSH1 0x0 PUSH1 0x20 DUP3 ADD SWAP1 POP DUP2 DUP2 SUB PUSH1 0x0 DUP4 ADD MSTORE PUSH2 0x2AAC DUP2 PUSH2 0x2A70 JUMP JUMPDEST SWAP1 POP SWAP2 SWAP1 POP JUMP JUMPDEST PUSH1 0x0 PUSH2 0x2ABE DUP3 PUSH2 0x1FCA JUMP JUMPDEST SWAP2 POP PUSH2 0x2AC9 DUP4 PUSH2 0x1FCA JUMP JUMPDEST SWAP3 POP DUP3 DUP3 MUL PUSH2 0x2AD7 DUP2 PUSH2 0x1FCA JUMP JUMPDEST SWAP2 POP DUP3 DUP3 DIV DUP5 EQ DUP4 ISZERO OR PUSH2 0x2AEE JUMPI PUSH2 0x2AED PUSH2 0x24E5 JUMP JUMPDEST JUMPDEST POP SWAP3 SWAP2 POP POP JUMP JUMPDEST PUSH32 0x4E487B7100000000000000000000000000000000000000000000000000000000 PUSH1 0x0 MSTORE PUSH1 0x22 PUSH1 0x4 MSTORE PUSH1 0x24 PUSH1 0x0 REVERT JUMPDEST PUSH1 0x0 PUSH1 0x2 DUP3 DIV SWAP1 POP PUSH1 0x1 DUP3 AND DUP1 PUSH2 0x2B3C JUMPI PUSH1 0x7F DUP3 AND SWAP2 POP JUMPDEST PUSH1 0x20 DUP3 LT DUP2 SUB PUSH2 0x2B4F JUMPI PUSH2 0x2B4E PUSH2 0x2AF5 JUMP JUMPDEST JUMPDEST POP SWAP2 SWAP1 POP JUMP JUMPDEST PUSH1 0x0 DUP2 SWAP1 POP DUP2 PUSH1 0x0 MSTORE PUSH1 0x20 PUSH1 0x0 KECCAK256 SWAP1 POP SWAP2 SWAP1 POP JUMP JUMPDEST PUSH1 0x0 PUSH1 0x20 PUSH1 0x1F DUP4 ADD DIV SWAP1 POP SWAP2 SWAP1 POP JUMP JUMPDEST PUSH1 0x0 DUP3 DUP3 SHL SWAP1 POP SWAP3 SWAP2 POP POP JUMP JUMPDEST PUSH1 0x0 PUSH1 0x8 DUP4 MUL PUSH2 0x2BB7 PUSH32 0xFFFFFFFFFFFFFFFFFFFFFFFFFFFFFFFFFFFFFFFFFFFFFFFFFFFFFFFFFFFFFFFF DUP3 PUSH2 0x2B7A JUMP JUMPDEST PUSH2 0x2BC1 DUP7 DUP4 PUSH2 0x2B7A JUMP JUMPDEST SWAP6 POP DUP1 NOT DUP5 AND SWAP4 POP DUP1 DUP7 AND DUP5 OR SWAP3 POP POP POP SWAP4 SWAP3 POP POP POP JUMP JUMPDEST PUSH1 0x0 DUP2 SWAP1 POP SWAP2 SWAP1 POP JUMP JUMPDEST PUSH1 0x0 PUSH2 0x2BFE PUSH2 0x2BF9 PUSH2 0x2BF4 DUP5 PUSH2 0x1FCA JUMP JUMPDEST PUSH2 0x2BD9 JUMP JUMPDEST PUSH2 0x1FCA JUMP JUMPDEST SWAP1 POP SWAP2 SWAP1 POP JUMP JUMPDEST PUSH1 0x0 DUP2 SWAP1 POP SWAP2 SWAP1 POP JUMP JUMPDEST PUSH2 0x2C18 DUP4 PUSH2 0x2BE3 JUMP JUMPDEST PUSH2 0x2C2C PUSH2 0x2C24 DUP3 PUSH2 0x2C05 JUMP JUMPDEST DUP5 DUP5 SLOAD PUSH2 0x2B87 JUMP JUMPDEST DUP3 SSTORE POP POP POP POP JUMP JUMPDEST PUSH1 0x0 SWAP1 JUMP JUMPDEST PUSH2 0x2C41 PUSH2 0x2C34 JUMP JUMPDEST PUSH2 0x2C4C DUP2 DUP5 DUP5 PUSH2 0x2C0F JUMP JUMPDEST POP POP POP JUMP JUMPDEST JUMPDEST DUP2 DUP2 LT ISZERO PUSH2 0x2C70 JUMPI PUSH2 0x2C65 PUSH1 0x0 DUP3 PUSH2 0x2C39 JUMP JUMPDEST PUSH1 0x1 DUP2 ADD SWAP1 POP PUSH2 0x2C52 JUMP JUMPDEST POP POP JUMP JUMPDEST PUSH1 0x1F DUP3 GT ISZERO PUSH2 0x2CB5 JUMPI PUSH2 0x2C86 DUP2 PUSH2 0x2B55 JUMP JUMPDEST PUSH2 0x2C8F DUP5 PUSH2 0x2B6A JUMP JUMPDEST DUP2 ADD PUSH1 0x20 DUP6 LT ISZERO PUSH2 0x2C9E JUMPI DUP2 SWAP1 POP JUMPDEST PUSH2 0x2CB2 PUSH2 0x2CAA DUP6 PUSH2 0x2B6A JUMP JUMPDEST DUP4 ADD DUP3 PUSH2 0x2C51 JUMP JUMPDEST POP POP JUMPDEST POP POP POP JUMP JUMPDEST PUSH1 0x0 DUP3 DUP3 SHR SWAP1 POP SWAP3 SWAP2 POP POP JUMP JUMPDEST PUSH1 0x0 PUSH2 0x2CD8 PUSH1 0x0 NOT DUP5 PUSH1 0x8 MUL PUSH2 0x2CBA JUMP JUMPDEST NOT DUP1 DUP4 AND SWAP2 POP POP SWAP3 SWAP2 POP POP JUMP JUMPDEST PUSH1 0x0 PUSH2 0x2CF1 DUP4 DUP4 PUSH2 0x2CC7 JUMP JUMPDEST SWAP2 POP DUP3 PUSH1 0x2 MUL DUP3 OR SWAP1 POP SWAP3 SWAP2 POP POP JUMP JUMPDEST PUSH2 0x2D0A DUP3 PUSH2 0x2793 JUMP JUMPDEST PUSH8 0xFFFFFFFFFFFFFFFF DUP2 GT ISZERO PUSH2 0x2D23 JUMPI PUSH2 0x2D22 PUSH2 0x1F19 JUMP JUMPDEST JUMPDEST PUSH2 0x2D2D DUP3 SLOAD PUSH2 0x2B24 JUMP JUMPDEST PUSH2 0x2D38 DUP3 DUP3 DUP6 PUSH2 0x2C74 JUMP JUMPDEST PUSH1 0x0 PUSH1 0x20 SWAP1 POP PUSH1 0x1F DUP4 GT PUSH1 0x1 DUP2 EQ PUSH2 0x2D6B JUMPI PUSH1 0x0 DUP5 ISZERO PUSH2 0x2D59 JUMPI DUP3 DUP8 ADD MLOAD SWAP1 POP JUMPDEST PUSH2 0x2D63 DUP6 DUP3 PUSH2 0x2CE5 JUMP JUMPDEST DUP7 SSTORE POP PUSH2 0x2DCB JUMP JUMPDEST PUSH1 0x1F NOT DUP5 AND PUSH2 0x2D79 DUP7 PUSH2 0x2B55 JUMP JUMPDEST PUSH1 0x0 JUMPDEST DUP3 DUP2 LT ISZERO PUSH2 0x2DA1 JUMPI DUP5 DUP10 ADD MLOAD DUP3 SSTORE PUSH1 0x1 DUP3 ADD SWAP2 POP PUSH1 0x20 DUP6 ADD SWAP5 POP PUSH1 0x20 DUP2 ADD SWAP1 POP PUSH2 0x2D7C JUMP JUMPDEST DUP7 DUP4 LT ISZERO PUSH2 0x2DBE JUMPI DUP5 DUP10 ADD MLOAD PUSH2 0x2DBA PUSH1 0x1F DUP10 AND DUP3 PUSH2 0x2CC7 JUMP JUMPDEST DUP4 SSTORE POP JUMPDEST PUSH1 0x1 PUSH1 0x2 DUP9 MUL ADD DUP9 SSTORE POP POP POP JUMPDEST POP POP POP POP POP POP JUMP JUMPDEST PUSH2 0x31C6 DUP1 PUSH2 0x2DE2 PUSH1 0x0 CODECOPY PUSH1 0x0 RETURN INVALID PUSH1 0x80 PUSH1 0x40 MSTORE CALLVALUE DUP1 ISZERO PUSH2 0x10 JUMPI PUSH1 0x0 DUP1 REVERT JUMPDEST POP PUSH1 0x4 CALLDATASIZE LT PUSH2 0x100 JUMPI PUSH1 0x0 CALLDATALOAD PUSH1 0xE0 SHR DUP1 PUSH4 0x477DECC0 GT PUSH2 0x97 JUMPI DUP1 PUSH4 0x8B8FBD92 GT PUSH2 0x66 JUMPI DUP1 PUSH4 0x8B8FBD92 EQ PUSH2 0x2A2 JUMPI DUP1 PUSH4 0xB3BF5495 EQ PUSH2 0x2C0 JUMPI DUP1 PUSH4 0xC9E525DF EQ PUSH2 0x2F0 JUMPI DUP1 PUSH4 0xF446C1D0 EQ PUSH2 0x30E JUMPI PUSH2 0x100 JUMP JUMPDEST DUP1 PUSH4 0x477DECC0 EQ PUSH2 0x205 JUMPI DUP1 PUSH4 0x494503D4 EQ PUSH2 0x235 JUMPI DUP1 PUSH4 0x6B7A524F EQ PUSH2 0x266 JUMPI DUP1 PUSH4 0x7A308A4C EQ PUSH2 0x284 JUMPI PUSH2 0x100 JUMP JUMPDEST DUP1 PUSH4 0x24128A30 GT PUSH2 0xD3 JUMPI DUP1 PUSH4 0x24128A30 EQ PUSH2 0x17D JUMPI DUP1 PUSH4 0x27B383B1 EQ PUSH2 0x199 JUMPI DUP1 PUSH4 0x32E7C5BF EQ PUSH2 0x1B7 JUMPI DUP1 PUSH4 0x3477EE2E EQ PUSH2 0x1D5 JUMPI PUSH2 0x100 JUMP JUMPDEST DUP1 PUSH4 0x3A507BE EQ PUSH2 0x105 JUMPI DUP1 PUSH4 0x6A49FCE EQ PUSH2 0x123 JUMPI DUP1 PUSH4 0xDD3849C EQ PUSH2 0x141 JUMPI DUP1 PUSH4 0x200D2ED2 EQ PUSH2 0x15F JUMPI JUMPDEST PUSH1 0x0 DUP1 REVERT JUMPDEST PUSH2 0x10D PUSH2 0x32C JUMP JUMPDEST PUSH1 0x40 MLOAD PUSH2 0x11A SWAP2 SWAP1 PUSH2 0x2333 JUMP JUMPDEST PUSH1 0x40 MLOAD DUP1 SWAP2 SUB SWAP1 RETURN JUMPDEST PUSH2 0x12B PUSH2 0x350 JUMP JUMPDEST PUSH1 0x40 MLOAD PUSH2 0x138 SWAP2 SWAP1 PUSH2 0x24A0 JUMP JUMPDEST PUSH1 0x40 MLOAD DUP1 SWAP2 SUB SWAP1 RETURN JUMPDEST PUSH2 0x149 PUSH2 0x429 JUMP JUMPDEST PUSH1 0x40 MLOAD PUSH2 0x156 SWAP2 SWAP1 PUSH2 0x2333 JUMP JUMPDEST PUSH1 0x40 MLOAD DUP1 SWAP2 SUB SWAP1 RETURN JUMPDEST PUSH2 0x167 PUSH2 0x42F JUMP JUMPDEST PUSH1 0x40 MLOAD PUSH2 0x174 SWAP2 SWAP1 PUSH2 0x2539 JUMP JUMPDEST PUSH1 0x40 MLOAD DUP1 SWAP2 SUB SWAP1 RETURN JUMPDEST PUSH2 0x197 PUSH1 0x4 DUP1 CALLDATASIZE SUB DUP2 ADD SWAP1 PUSH2 0x192 SWAP2 SWAP1 PUSH2 0x2594 JUMP JUMPDEST PUSH2 0x442 JUMP JUMPDEST STOP JUMPDEST PUSH2 0x1A1 PUSH2 0x725 JUMP JUMPDEST PUSH1 0x40 MLOAD PUSH2 0x1AE SWAP2 SWAP1 PUSH2 0x2746 JUMP JUMPDEST PUSH1 0x40 MLOAD DUP1 SWAP2 SUB SWAP1 RETURN JUMPDEST PUSH2 0x1BF PUSH2 0x7D4 JUMP JUMPDEST PUSH1 0x40 MLOAD PUSH2 0x1CC SWAP2 SWAP1 PUSH2 0x2333 JUMP JUMPDEST PUSH1 0x40 MLOAD DUP1 SWAP2 SUB SWAP1 RETURN JUMPDEST PUSH2 0x1EF PUSH1 0x4 DUP1 CALLDATASIZE SUB DUP2 ADD SWAP1 PUSH2 0x1EA SWAP2 SWAP1 PUSH2 0x2768 JUMP JUMPDEST PUSH2 0x7D9 JUMP JUMPDEST PUSH1 0x40 MLOAD PUSH2 0x1FC SWAP2 SWAP1 PUSH2 0x27DF JUMP JUMPDEST PUSH1 0x40 MLOAD DUP1 SWAP2 SUB SWAP1 RETURN JUMPDEST PUSH2 0x21F PUSH1 0x4 DUP1 CALLDATASIZE SUB DUP2 ADD SWAP1 PUSH2 0x21A SWAP2 SWAP1 PUSH2 0x299E JUMP JUMPDEST PUSH2 0x885 JUMP JUMPDEST PUSH1 0x40 MLOAD PUSH2 0x22C SWAP2 SWAP1 PUSH2 0x2333 JUMP JUMPDEST PUSH1 0x40 MLOAD DUP1 SWAP2 SUB SWAP1 RETURN JUMPDEST PUSH2 0x24F PUSH1 0x4 DUP1 CALLDATASIZE SUB DUP2 ADD SWAP1 PUSH2 0x24A SWAP2 SWAP1 PUSH2 0x2768 JUMP JUMPDEST PUSH2 0x9C2 JUMP JUMPDEST PUSH1 0x40 MLOAD PUSH2 0x25D SWAP3 SWAP2 SWAP1 PUSH2 0x2A45 JUMP JUMPDEST PUSH1 0x40 MLOAD DUP1 SWAP2 SUB SWAP1 RETURN JUMPDEST PUSH2 0x26E PUSH2 0xA32 JUMP JUMPDEST PUSH1 0x40 MLOAD PUSH2 0x27B SWAP2 SWAP1 PUSH2 0x2AE9 JUMP JUMPDEST PUSH1 0x40 MLOAD DUP1 SWAP2 SUB SWAP1 RETURN JUMPDEST PUSH2 0x28C PUSH2 0xAEE JUMP JUMPDEST PUSH1 0x40 MLOAD PUSH2 0x299 SWAP2 SWAP1 PUSH2 0x2333 JUMP JUMPDEST PUSH1 0x40 MLOAD DUP1 SWAP2 SUB SWAP1 RETURN JUMPDEST PUSH2 0x2AA PUSH2 0xB12 JUMP JUMPDEST PUSH1 0x40 MLOAD PUSH2 0x2B7 SWAP2 SWAP1 PUSH2 0x2333 JUMP JUMPDEST PUSH1 0x40 MLOAD DUP1 SWAP2 SUB SWAP1 RETURN JUMPDEST PUSH2 0x2DA PUSH1 0x4 DUP1 CALLDATASIZE SUB DUP2 ADD SWAP1 PUSH2 0x2D5 SWAP2 SWAP1 PUSH2 0x2B04 JUMP JUMPDEST PUSH2 0xB36 JUMP JUMPDEST PUSH1 0x40 MLOAD PUSH2 0x2E7 SWAP2 SWAP1 PUSH2 0x2B44 JUMP JUMPDEST PUSH1 0x40 MLOAD DUP1 SWAP2 SUB SWAP1 RETURN JUMPDEST PUSH2 0x2F8 PUSH2 0xB5B JUMP JUMPDEST PUSH1 0x40 MLOAD PUSH2 0x305 SWAP2 SWAP1 PUSH2 0x2333 JUMP JUMPDEST PUSH1 0x40 MLOAD DUP1 SWAP2 SUB SWAP1 RETURN JUMPDEST PUSH2 0x316 PUSH2 0xB7F JUMP JUMPDEST PUSH1 0x40 MLOAD PUSH2 0x323 SWAP2 SWAP1 PUSH2 0x2333 JUMP JUMPDEST PUSH1 0x40 MLOAD DUP1 SWAP2 SUB SWAP1 RETURN JUMPDEST PUSH32 0x79BE667EF9DCBBAC55A06295CE870B07029BFCDB2DCE28D959F2815B16F81798 DUP2 JUMP JUMPDEST PUSH1 0x60 PUSH1 0x0 DUP1 SLOAD DUP1 PUSH1 0x20 MUL PUSH1 0x20 ADD PUSH1 0x40 MLOAD SWAP1 DUP2 ADD PUSH1 0x40 MSTORE DUP1 SWAP3 SWAP2 SWAP1 DUP2 DUP2 MSTORE PUSH1 0x20 ADD PUSH1 0x0 SWAP1 JUMPDEST DUP3 DUP3 LT ISZERO PUSH2 0x420 JUMPI DUP4 DUP3 SWAP1 PUSH1 0x0 MSTORE PUSH1 0x20 PUSH1 0x0 KECCAK256 ADD DUP1 SLOAD PUSH2 0x393 SWAP1 PUSH2 0x2B8E JUMP JUMPDEST DUP1 PUSH1 0x1F ADD PUSH1 0x20 DUP1 SWAP2 DIV MUL PUSH1 0x20 ADD PUSH1 0x40 MLOAD SWAP1 DUP2 ADD PUSH1 0x40 MSTORE DUP1 SWAP3 SWAP2 SWAP1 DUP2 DUP2 MSTORE PUSH1 0x20 ADD DUP3 DUP1 SLOAD PUSH2 0x3BF SWAP1 PUSH2 0x2B8E JUMP JUMPDEST DUP1 ISZERO PUSH2 0x40C JUMPI DUP1 PUSH1 0x1F LT PUSH2 0x3E1 JUMPI PUSH2 0x100 DUP1 DUP4 SLOAD DIV MUL DUP4 MSTORE SWAP2 PUSH1 0x20 ADD SWAP2 PUSH2 0x40C JUMP JUMPDEST DUP3 ADD SWAP2 SWAP1 PUSH1 0x0 MSTORE PUSH1 0x20 PUSH1 0x0 KECCAK256 SWAP1 JUMPDEST DUP2 SLOAD DUP2 MSTORE SWAP1 PUSH1 0x1 ADD SWAP1 PUSH1 0x20 ADD DUP1 DUP4 GT PUSH2 0x3EF JUMPI DUP3 SWAP1 SUB PUSH1 0x1F AND DUP3 ADD SWAP2 JUMPDEST POP POP POP POP POP DUP2 MSTORE PUSH1 0x20 ADD SWAP1 PUSH1 0x1 ADD SWAP1 PUSH2 0x374 JUMP JUMPDEST POP POP POP POP SWAP1 POP SWAP1 JUMP JUMPDEST PUSH1 0x3 SLOAD DUP2 JUMP JUMPDEST PUSH1 0x1 PUSH1 0x0 SWAP1 SLOAD SWAP1 PUSH2 0x100 EXP SWAP1 DIV PUSH1 0xFF AND DUP2 JUMP JUMPDEST PUSH1 0x0 PUSH1 0x3 DUP2 GT ISZERO PUSH2 0x456 JUMPI PUSH2 0x455 PUSH2 0x24C2 JUMP JUMPDEST JUMPDEST PUSH1 0x1 PUSH1 0x0 SWAP1 SLOAD SWAP1 PUSH2 0x100 EXP SWAP1 DIV PUSH1 0xFF AND PUSH1 0x3 DUP2 GT ISZERO PUSH2 0x478 JUMPI PUSH2 0x477 PUSH2 0x24C2 JUMP JUMPDEST JUMPDEST EQ PUSH2 0x4B8 JUMPI PUSH1 0x40 MLOAD PUSH32 0x8C379A000000000000000000000000000000000000000000000000000000000 DUP2 MSTORE PUSH1 0x4 ADD PUSH2 0x4AF SWAP1 PUSH2 0x2C0B JUMP JUMPDEST PUSH1 0x40 MLOAD DUP1 SWAP2 SUB SWAP1 REVERT JUMPDEST PUSH1 0x0 PUSH1 0x40 MLOAD DUP1 PUSH1 0x40 ADD PUSH1 0x40 MSTORE DUP1 DUP7 DUP2 MSTORE PUSH1 0x20 ADD DUP6 DUP2 MSTORE POP SWAP1 POP PUSH1 0x0 PUSH1 0x40 MLOAD DUP1 PUSH1 0x40 ADD PUSH1 0x40 MSTORE DUP1 DUP6 DUP2 MSTORE PUSH1 0x20 ADD DUP5 DUP2 MSTORE POP SWAP1 POP PUSH2 0x4F4 DUP3 DUP3 PUSH2 0xB84 JUMP JUMPDEST PUSH2 0x533 JUMPI PUSH1 0x40 MLOAD PUSH32 0x8C379A000000000000000000000000000000000000000000000000000000000 DUP2 MSTORE PUSH1 0x4 ADD PUSH2 0x52A SWAP1 PUSH2 0x2C77 JUMP JUMPDEST PUSH1 0x40 MLOAD DUP1 SWAP2 SUB SWAP1 REVERT JUMPDEST PUSH1 0x0 JUMPDEST PUSH1 0x2 DUP1 SLOAD SWAP1 POP DUP2 LT ISZERO PUSH2 0x69C JUMPI DUP3 PUSH1 0x0 ADD MLOAD PUSH1 0x2 DUP3 DUP2 SLOAD DUP2 LT PUSH2 0x55C JUMPI PUSH2 0x55B PUSH2 0x2C97 JUMP JUMPDEST JUMPDEST SWAP1 PUSH1 0x0 MSTORE PUSH1 0x20 PUSH1 0x0 KECCAK256 SWAP1 PUSH1 0x4 MUL ADD PUSH1 0x0 ADD PUSH1 0x0 ADD SLOAD EQ ISZERO DUP1 PUSH2 0x5AA JUMPI POP DUP3 PUSH1 0x20 ADD MLOAD PUSH1 0x2 DUP3 DUP2 SLOAD DUP2 LT PUSH2 0x592 JUMPI PUSH2 0x591 PUSH2 0x2C97 JUMP JUMPDEST JUMPDEST SWAP1 PUSH1 0x0 MSTORE PUSH1 0x20 PUSH1 0x0 KECCAK256 SWAP1 PUSH1 0x4 MUL ADD PUSH1 0x0 ADD PUSH1 0x1 ADD SLOAD EQ ISZERO JUMPDEST PUSH2 0x5E9 JUMPI PUSH1 0x40 MLOAD PUSH32 0x8C379A000000000000000000000000000000000000000000000000000000000 DUP2 MSTORE PUSH1 0x4 ADD PUSH2 0x5E0 SWAP1 PUSH2 0x2D12 JUMP JUMPDEST PUSH1 0x40 MLOAD DUP1 SWAP2 SUB SWAP1 REVERT JUMPDEST DUP2 PUSH1 0x0 ADD MLOAD PUSH1 0x2 DUP3 DUP2 SLOAD DUP2 LT PUSH2 0x602 JUMPI PUSH2 0x601 PUSH2 0x2C97 JUMP JUMPDEST JUMPDEST SWAP1 PUSH1 0x0 MSTORE PUSH1 0x20 PUSH1 0x0 KECCAK256 SWAP1 PUSH1 0x4 MUL ADD PUSH1 0x2 ADD PUSH1 0x0 ADD SLOAD EQ ISZERO DUP1 PUSH2 0x650 JUMPI POP DUP2 PUSH1 0x20 ADD MLOAD PUSH1 0x2 DUP3 DUP2 SLOAD DUP2 LT PUSH2 0x638 JUMPI PUSH2 0x637 PUSH2 0x2C97 JUMP JUMPDEST JUMPDEST SWAP1 PUSH1 0x0 MSTORE PUSH1 0x20 PUSH1 0x0 KECCAK256 SWAP1 PUSH1 0x4 MUL ADD PUSH1 0x2 ADD PUSH1 0x1 ADD SLOAD EQ ISZERO JUMPDEST PUSH2 0x68F JUMPI PUSH1 0x40 MLOAD PUSH32 0x8C379A000000000000000000000000000000000000000000000000000000000 DUP2 MSTORE PUSH1 0x4 ADD PUSH2 0x686 SWAP1 PUSH2 0x2D7E JUMP JUMPDEST PUSH1 0x40 MLOAD DUP1 SWAP2 SUB SWAP1 REVERT JUMPDEST DUP1 DUP1 PUSH1 0x1 ADD SWAP2 POP POP PUSH2 0x536 JUMP JUMPDEST POP PUSH1 0x2 PUSH1 0x40 MLOAD DUP1 PUSH1 0x40 ADD PUSH1 0x40 MSTORE DUP1 DUP5 DUP2 MSTORE PUSH1 0x20 ADD DUP4 DUP2 MSTORE POP SWAP1 DUP1 PUSH1 0x1 DUP2 SLOAD ADD DUP1 DUP3 SSTORE DUP1 SWAP2 POP POP PUSH1 0x1 SWAP1 SUB SWAP1 PUSH1 0x0 MSTORE PUSH1 0x20 PUSH1 0x0 KECCAK256 SWAP1 PUSH1 0x4 MUL ADD PUSH1 0x0 SWAP1 SWAP2 SWAP1 SWAP2 SWAP1 SWAP2 POP PUSH1 0x0 DUP3 ADD MLOAD DUP2 PUSH1 0x0 ADD PUSH1 0x0 DUP3 ADD MLOAD DUP2 PUSH1 0x0 ADD SSTORE PUSH1 0x20 DUP3 ADD MLOAD DUP2 PUSH1 0x1 ADD SSTORE POP POP PUSH1 0x20 DUP3 ADD MLOAD DUP2 PUSH1 0x2 ADD PUSH1 0x0 DUP3 ADD MLOAD DUP2 PUSH1 0x0 ADD SSTORE PUSH1 0x20 DUP3 ADD MLOAD DUP2 PUSH1 0x1 ADD SSTORE POP POP POP POP POP POP POP POP POP POP JUMP JUMPDEST PUSH1 0x60 PUSH1 0x2 DUP1 SLOAD DUP1 PUSH1 0x20 MUL PUSH1 0x20 ADD PUSH1 0x40 MLOAD SWAP1 DUP2 ADD PUSH1 0x40 MSTORE DUP1 SWAP3 SWAP2 SWAP1 DUP2 DUP2 MSTORE PUSH1 0x20 ADD PUSH1 0x0 SWAP1 JUMPDEST DUP3 DUP3 LT ISZERO PUSH2 0x7CB JUMPI DUP4 DUP3 SWAP1 PUSH1 0x0 MSTORE PUSH1 0x20 PUSH1 0x0 KECCAK256 SWAP1 PUSH1 0x4 MUL ADD PUSH1 0x40 MLOAD DUP1 PUSH1 0x40 ADD PUSH1 0x40 MSTORE SWAP1 DUP2 PUSH1 0x0 DUP3 ADD PUSH1 0x40 MLOAD DUP1 PUSH1 0x40 ADD PUSH1 0x40 MSTORE SWAP1 DUP2 PUSH1 0x0 DUP3 ADD SLOAD DUP2 MSTORE PUSH1 0x20 ADD PUSH1 0x1 DUP3 ADD SLOAD DUP2 MSTORE POP POP DUP2 MSTORE PUSH1 0x20 ADD PUSH1 0x2 DUP3 ADD PUSH1 0x40 MLOAD DUP1 PUSH1 0x40 ADD PUSH1 0x40 MSTORE SWAP1 DUP2 PUSH1 0x0 DUP3 ADD SLOAD DUP2 MSTORE PUSH1 0x20 ADD PUSH1 0x1 DUP3 ADD SLOAD DUP2 MSTORE POP POP DUP2 MSTORE POP POP DUP2 MSTORE PUSH1 0x20 ADD SWAP1 PUSH1 0x1 ADD SWAP1 PUSH2 0x749 JUMP JUMPDEST POP POP POP POP SWAP1 POP SWAP1 JUMP JUMPDEST PUSH1 0x7 DUP2 JUMP JUMPDEST PUSH1 0x0 DUP2 DUP2 SLOAD DUP2 LT PUSH2 0x7E9 JUMPI PUSH1 0x0 DUP1 REVERT JUMPDEST SWAP1 PUSH1 0x0 MSTORE PUSH1 0x20 PUSH1 0x0 KECCAK256 ADD PUSH1 0x0 SWAP2 POP SWAP1 POP DUP1 SLOAD PUSH2 0x804 SWAP1 PUSH2 0x2B8E JUMP JUMPDEST DUP1 PUSH1 0x1F ADD PUSH1 0x20 DUP1 SWAP2 DIV MUL PUSH1 0x20 ADD PUSH1 0x40 MLOAD SWAP1 DUP2 ADD PUSH1 0x40 MSTORE DUP1 SWAP3 SWAP2 SWAP1 DUP2 DUP2 MSTORE PUSH1 0x20 ADD DUP3 DUP1 SLOAD PUSH2 0x830 SWAP1 PUSH2 0x2B8E JUMP JUMPDEST DUP1 ISZERO PUSH2 0x87D JUMPI DUP1 PUSH1 0x1F LT PUSH2 0x852 JUMPI PUSH2 0x100 DUP1 DUP4 SLOAD DIV MUL DUP4 MSTORE SWAP2 PUSH1 0x20 ADD SWAP2 PUSH2 0x87D JUMP JUMPDEST DUP3 ADD SWAP2 SWAP1 PUSH1 0x0 MSTORE PUSH1 0x20 PUSH1 0x0 KECCAK256 SWAP1 JUMPDEST DUP2 SLOAD DUP2 MSTORE SWAP1 PUSH1 0x1 ADD SWAP1 PUSH1 0x20 ADD DUP1 DUP4 GT PUSH2 0x860 JUMPI DUP3 SWAP1 SUB PUSH1 0x1F AND DUP3 ADD SWAP2 JUMPDEST POP POP POP POP POP DUP2 JUMP JUMPDEST PUSH1 0x0 DUP1 DUP3 MLOAD GT PUSH2 0x8CA JUMPI PUSH1 0x40 MLOAD PUSH32 0x8C379A000000000000000000000000000000000000000000000000000000000 DUP2 MSTORE PUSH1 0x4 ADD PUSH2 0x8C1 SWAP1 PUSH2 0x2DEA JUMP JUMPDEST PUSH1 0x40 MLOAD DUP1 SWAP2 SUB SWAP1 REVERT JUMPDEST PUSH1 0x0 DUP3 PUSH1 0x0 DUP2 MLOAD DUP2 LT PUSH2 0x8E0 JUMPI PUSH2 0x8DF PUSH2 0x2C97 JUMP JUMPDEST JUMPDEST PUSH1 0x20 MUL PUSH1 0x20 ADD ADD MLOAD SWAP1 POP PUSH1 0x0 PUSH1 0x1 SWAP1 POP JUMPDEST DUP4 MLOAD DUP2 LT ISZERO PUSH2 0x92D JUMPI PUSH2 0x91E DUP3 DUP6 DUP4 DUP2 MLOAD DUP2 LT PUSH2 0x911 JUMPI PUSH2 0x910 PUSH2 0x2C97 JUMP JUMPDEST JUMPDEST PUSH1 0x20 MUL PUSH1 0x20 ADD ADD MLOAD PUSH2 0xCB5 JUMP JUMPDEST SWAP2 POP DUP1 DUP1 PUSH1 0x1 ADD SWAP2 POP POP PUSH2 0x8F1 JUMP JUMPDEST POP PUSH1 0x2 PUSH2 0x93D DUP3 PUSH1 0x0 ADD MLOAD PUSH2 0xD9C JUMP JUMPDEST PUSH2 0x94A DUP4 PUSH1 0x20 ADD MLOAD PUSH2 0xD9C JUMP JUMPDEST PUSH1 0x40 MLOAD PUSH1 0x20 ADD PUSH2 0x95B SWAP3 SWAP2 SWAP1 PUSH2 0x2E92 JUMP JUMPDEST PUSH1 0x40 MLOAD PUSH1 0x20 DUP2 DUP4 SUB SUB DUP2 MSTORE SWAP1 PUSH1 0x40 MSTORE PUSH1 0x40 MLOAD PUSH2 0x977 SWAP2 SWAP1 PUSH2 0x2F08 JUMP JUMPDEST PUSH1 0x20 PUSH1 0x40 MLOAD DUP1 DUP4 SUB DUP2 DUP6 GAS STATICCALL ISZERO DUP1 ISZERO PUSH2 0x994 JUMPI RETURNDATASIZE PUSH1 0x0 DUP1 RETURNDATACOPY RETURNDATASIZE PUSH1 0x0 REVERT JUMPDEST POP POP POP PUSH1 0x40 MLOAD RETURNDATASIZE PUSH1 0x1F NOT PUSH1 0x1F DUP3 ADD AND DUP3 ADD DUP1 PUSH1 0x40 MSTORE POP DUP2 ADD SWAP1 PUSH2 0x9B7 SWAP2 SWAP1 PUSH2 0x2F55 JUMP JUMPDEST PUSH1 0x0 SHR SWAP2 POP POP SWAP2 SWAP1 POP JUMP JUMPDEST PUSH1 0x2 DUP2 DUP2 SLOAD DUP2 LT PUSH2 0x9D2 JUMPI PUSH1 0x0 DUP1 REVERT JUMPDEST SWAP1 PUSH1 0x0 MSTORE PUSH1 0x20 PUSH1 0x0 KECCAK256 SWAP1 PUSH1 0x4 MUL ADD PUSH1 0x0 SWAP2 POP SWAP1 POP DUP1 PUSH1 0x0 ADD PUSH1 0x40 MLOAD DUP1 PUSH1 0x40 ADD PUSH1 0x40 MSTORE SWAP1 DUP2 PUSH1 0x0 DUP3 ADD SLOAD DUP2 MSTORE PUSH1 0x20 ADD PUSH1 0x1 DUP3 ADD SLOAD DUP2 MSTORE POP POP SWAP1 DUP1 PUSH1 0x2 ADD PUSH1 0x40 MLOAD DUP1 PUSH1 0x40 ADD PUSH1 0x40 MSTORE SWAP1 DUP2 PUSH1 0x0 DUP3 ADD SLOAD DUP2 MSTORE PUSH1 0x20 ADD PUSH1 0x1 DUP3 ADD SLOAD DUP2 MSTORE POP POP SWAP1 POP DUP3 JUMP JUMPDEST PUSH2 0xA3A PUSH2 0x22A8 JUMP JUMPDEST PUSH1 0x40 MLOAD DUP1 PUSH1 0xC0 ADD PUSH1 0x40 MSTORE DUP1 PUSH32 0x79BE667EF9DCBBAC55A06295CE870B07029BFCDB2DCE28D959F2815B16F81798 DUP2 MSTORE PUSH1 0x20 ADD PUSH32 0x483ADA7726A3C4655DA4FBFC0E1108A8FD17B448A68554199C47D08FFB10D4B8 DUP2 MSTORE PUSH1 0x20 ADD PUSH1 0x0 DUP2 MSTORE PUSH1 0x20 ADD PUSH1 0x7 DUP2 MSTORE PUSH1 0x20 ADD PUSH32 0xFFFFFFFFFFFFFFFFFFFFFFFFFFFFFFFFFFFFFFFFFFFFFFFFFFFFFFFEFFFFFC2F DUP2 MSTORE PUSH1 0x20 ADD PUSH32 0xFFFFFFFFFFFFFFFFFFFFFFFFFFFFFFFEBAAEDCE6AF48A03BBFD25E8CD0364141 DUP2 MSTORE POP SWAP1 POP SWAP1 JUMP JUMPDEST PUSH32 0x483ADA7726A3C4655DA4FBFC0E1108A8FD17B448A68554199C47D08FFB10D4B8 DUP2 JUMP JUMPDEST PUSH32 0xFFFFFFFFFFFFFFFFFFFFFFFFFFFFFFFFFFFFFFFFFFFFFFFFFFFFFFFEFFFFFC2F DUP2 JUMP JUMPDEST PUSH2 0xB3E PUSH2 0x22DE JUMP JUMPDEST PUSH1 0x40 MLOAD DUP1 PUSH1 0x40 ADD PUSH1 0x40 MSTORE DUP1 DUP5 DUP2 MSTORE PUSH1 0x20 ADD DUP4 DUP2 MSTORE POP SWAP1 POP SWAP3 SWAP2 POP POP JUMP JUMPDEST PUSH32 0xFFFFFFFFFFFFFFFFFFFFFFFFFFFFFFFEBAAEDCE6AF48A03BBFD25E8CD0364141 DUP2 JUMP JUMPDEST PUSH1 0x0 DUP2 JUMP JUMPDEST PUSH1 0x0 DUP1 PUSH2 0xBD6 DUP4 PUSH1 0x20 ADD MLOAD PUSH32 0x79BE667EF9DCBBAC55A06295CE870B07029BFCDB2DCE28D959F2815B16F81798 PUSH32 0x483ADA7726A3C4655DA4FBFC0E1108A8FD17B448A68554199C47D08FFB10D4B8 PUSH2 0xE6A JUMP JUMPDEST SWAP1 POP PUSH1 0x0 PUSH2 0xBF1 DUP5 PUSH1 0x0 ADD MLOAD DUP7 PUSH1 0x0 ADD MLOAD DUP8 PUSH1 0x20 ADD MLOAD PUSH2 0xE6A JUMP JUMPDEST SWAP1 POP PUSH1 0x0 PUSH2 0xBFF DUP4 DUP4 PUSH2 0xEA1 JUMP JUMPDEST SWAP1 POP PUSH1 0x0 PUSH1 0x2 PUSH8 0xFFFFFFFFFFFFFFFF DUP2 GT ISZERO PUSH2 0xC1E JUMPI PUSH2 0xC1D PUSH2 0x2806 JUMP JUMPDEST JUMPDEST PUSH1 0x40 MLOAD SWAP1 DUP1 DUP3 MSTORE DUP1 PUSH1 0x20 MUL PUSH1 0x20 ADD DUP3 ADD PUSH1 0x40 MSTORE DUP1 ISZERO PUSH2 0xC57 JUMPI DUP2 PUSH1 0x20 ADD JUMPDEST PUSH2 0xC44 PUSH2 0x22DE JUMP JUMPDEST DUP2 MSTORE PUSH1 0x20 ADD SWAP1 PUSH1 0x1 SWAP1 SUB SWAP1 DUP2 PUSH2 0xC3C JUMPI SWAP1 POP JUMPDEST POP SWAP1 POP DUP7 DUP2 PUSH1 0x0 DUP2 MLOAD DUP2 LT PUSH2 0xC6F JUMPI PUSH2 0xC6E PUSH2 0x2C97 JUMP JUMPDEST JUMPDEST PUSH1 0x20 MUL PUSH1 0x20 ADD ADD DUP2 SWAP1 MSTORE POP DUP2 DUP2 PUSH1 0x1 DUP2 MLOAD DUP2 LT PUSH2 0xC8F JUMPI PUSH2 0xC8E PUSH2 0x2C97 JUMP JUMPDEST JUMPDEST PUSH1 0x20 MUL PUSH1 0x20 ADD ADD DUP2 SWAP1 MSTORE POP PUSH2 0xCA3 DUP2 PUSH2 0x885 JUMP JUMPDEST DUP7 PUSH1 0x0 ADD MLOAD EQ SWAP5 POP POP POP POP POP SWAP3 SWAP2 POP POP JUMP JUMPDEST PUSH2 0xCBD PUSH2 0x22DE JUMP JUMPDEST PUSH1 0x0 DUP1 PUSH1 0x0 DUP5 PUSH1 0x0 ADD MLOAD DUP7 PUSH1 0x0 ADD MLOAD SUB PUSH2 0xD58 JUMPI PUSH1 0x0 PUSH32 0xFFFFFFFFFFFFFFFFFFFFFFFFFFFFFFFFFFFFFFFFFFFFFFFFFFFFFFFEFFFFFC2F DUP1 PUSH2 0xD02 JUMPI PUSH2 0xD01 PUSH2 0x2F82 JUMP JUMPDEST JUMPDEST DUP7 PUSH1 0x20 ADD MLOAD DUP9 PUSH1 0x20 ADD MLOAD ADDMOD SUB PUSH2 0xD33 JUMPI PUSH1 0x40 MLOAD DUP1 PUSH1 0x40 ADD PUSH1 0x40 MSTORE DUP1 PUSH1 0x0 DUP2 MSTORE PUSH1 0x20 ADD PUSH1 0x0 DUP2 MSTORE POP SWAP4 POP POP POP POP PUSH2 0xD96 JUMP JUMPDEST PUSH2 0xD47 DUP7 PUSH1 0x0 ADD MLOAD DUP8 PUSH1 0x20 ADD MLOAD PUSH1 0x1 PUSH2 0xEC9 JUMP JUMPDEST DUP1 SWAP4 POP DUP2 SWAP5 POP DUP3 SWAP6 POP POP POP POP PUSH2 0xD85 JUMP JUMPDEST PUSH2 0xD78 DUP7 PUSH1 0x0 ADD MLOAD DUP8 PUSH1 0x20 ADD MLOAD PUSH1 0x1 DUP9 PUSH1 0x0 ADD MLOAD DUP10 PUSH1 0x20 ADD MLOAD PUSH1 0x1 PUSH2 0x1346 JUMP JUMPDEST DUP1 SWAP4 POP DUP2 SWAP5 POP DUP3 SWAP6 POP POP POP POP JUMPDEST PUSH2 0xD90 DUP4 DUP4 DUP4 PUSH2 0x1D84 JUMP JUMPDEST SWAP4 POP POP POP POP JUMPDEST SWAP3 SWAP2 POP POP JUMP JUMPDEST PUSH1 0x60 PUSH1 0x0 PUSH1 0x1 PUSH2 0xDAB DUP5 PUSH2 0x1E8E JUMP JUMPDEST ADD SWAP1 POP PUSH1 0x0 DUP2 PUSH8 0xFFFFFFFFFFFFFFFF DUP2 GT ISZERO PUSH2 0xDCA JUMPI PUSH2 0xDC9 PUSH2 0x2806 JUMP JUMPDEST JUMPDEST PUSH1 0x40 MLOAD SWAP1 DUP1 DUP3 MSTORE DUP1 PUSH1 0x1F ADD PUSH1 0x1F NOT AND PUSH1 0x20 ADD DUP3 ADD PUSH1 0x40 MSTORE DUP1 ISZERO PUSH2 0xDFC JUMPI DUP2 PUSH1 0x20 ADD PUSH1 0x1 DUP3 MUL DUP1 CALLDATASIZE DUP4 CALLDATACOPY DUP1 DUP3 ADD SWAP2 POP POP SWAP1 POP JUMPDEST POP SWAP1 POP PUSH1 0x0 DUP3 PUSH1 0x20 ADD DUP3 ADD SWAP1 POP JUMPDEST PUSH1 0x1 ISZERO PUSH2 0xE5F JUMPI DUP1 DUP1 PUSH1 0x1 SWAP1 SUB SWAP2 POP POP PUSH32 0x3031323334353637383961626364656600000000000000000000000000000000 PUSH1 0xA DUP7 MOD BYTE DUP2 MSTORE8 PUSH1 0xA DUP6 DUP2 PUSH2 0xE53 JUMPI PUSH2 0xE52 PUSH2 0x2F82 JUMP JUMPDEST JUMPDEST DIV SWAP5 POP PUSH1 0x0 DUP6 SUB PUSH2 0xE0A JUMPI JUMPDEST DUP2 SWAP4 POP POP POP POP SWAP2 SWAP1 POP JUMP JUMPDEST PUSH2 0xE72 PUSH2 0x22DE JUMP JUMPDEST PUSH1 0x0 DUP1 PUSH1 0x0 PUSH2 0xE84 DUP8 DUP8 DUP8 PUSH1 0x1 PUSH2 0x1FE1 JUMP JUMPDEST SWAP3 POP SWAP3 POP SWAP3 POP PUSH2 0xE95 DUP4 DUP4 DUP4 PUSH2 0x1D84 JUMP JUMPDEST SWAP4 POP POP POP POP SWAP4 SWAP3 POP POP POP JUMP JUMPDEST PUSH2 0xEA9 PUSH2 0x22DE JUMP JUMPDEST PUSH1 0x0 PUSH2 0xEB4 DUP4 PUSH2 0x207B JUMP JUMPDEST SWAP1 POP PUSH2 0xEC0 DUP5 DUP3 PUSH2 0xCB5 JUMP JUMPDEST SWAP2 POP POP SWAP3 SWAP2 POP POP JUMP JUMPDEST PUSH1 0x0 DUP1 PUSH1 0x0 DUP1 DUP5 SUB PUSH2 0xEE3 JUMPI DUP6 DUP6 DUP6 SWAP3 POP SWAP3 POP SWAP3 POP PUSH2 0x133D JUMP JUMPDEST PUSH1 0x0 PUSH32 0xFFFFFFFFFFFFFFFFFFFFFFFFFFFFFFFFFFFFFFFFFFFFFFFFFFFFFFFEFFFFFC2F DUP1 PUSH2 0xF14 JUMPI PUSH2 0xF13 PUSH2 0x2F82 JUMP JUMPDEST JUMPDEST DUP8 DUP9 MULMOD SWAP1 POP PUSH1 0x0 PUSH32 0xFFFFFFFFFFFFFFFFFFFFFFFFFFFFFFFFFFFFFFFFFFFFFFFFFFFFFFFEFFFFFC2F DUP1 PUSH2 0xF4A JUMPI PUSH2 0xF49 PUSH2 0x2F82 JUMP JUMPDEST JUMPDEST DUP8 DUP9 MULMOD SWAP1 POP PUSH1 0x0 PUSH32 0xFFFFFFFFFFFFFFFFFFFFFFFFFFFFFFFFFFFFFFFFFFFFFFFFFFFFFFFEFFFFFC2F DUP1 PUSH2 0xF80 JUMPI PUSH2 0xF7F PUSH2 0x2F82 JUMP JUMPDEST JUMPDEST DUP8 DUP9 MULMOD SWAP1 POP PUSH1 0x0 PUSH32 0xFFFFFFFFFFFFFFFFFFFFFFFFFFFFFFFFFFFFFFFFFFFFFFFFFFFFFFFEFFFFFC2F DUP1 PUSH2 0xFB6 JUMPI PUSH2 0xFB5 PUSH2 0x2F82 JUMP JUMPDEST JUMPDEST PUSH32 0xFFFFFFFFFFFFFFFFFFFFFFFFFFFFFFFFFFFFFFFFFFFFFFFFFFFFFFFEFFFFFC2F DUP1 PUSH2 0xFE5 JUMPI PUSH2 0xFE4 PUSH2 0x2F82 JUMP JUMPDEST JUMPDEST DUP5 DUP13 MULMOD PUSH1 0x4 MULMOD SWAP1 POP PUSH1 0x0 PUSH32 0xFFFFFFFFFFFFFFFFFFFFFFFFFFFFFFFFFFFFFFFFFFFFFFFFFFFFFFFEFFFFFC2F DUP1 PUSH2 0x101E JUMPI PUSH2 0x101D PUSH2 0x2F82 JUMP JUMPDEST JUMPDEST PUSH32 0xFFFFFFFFFFFFFFFFFFFFFFFFFFFFFFFFFFFFFFFFFFFFFFFFFFFFFFFEFFFFFC2F DUP1 PUSH2 0x104D JUMPI PUSH2 0x104C PUSH2 0x2F82 JUMP JUMPDEST JUMPDEST PUSH32 0xFFFFFFFFFFFFFFFFFFFFFFFFFFFFFFFFFFFFFFFFFFFFFFFFFFFFFFFEFFFFFC2F DUP1 PUSH2 0x107C JUMPI PUSH2 0x107B PUSH2 0x2F82 JUMP JUMPDEST JUMPDEST DUP6 DUP7 MULMOD PUSH1 0x0 MULMOD PUSH32 0xFFFFFFFFFFFFFFFFFFFFFFFFFFFFFFFFFFFFFFFFFFFFFFFFFFFFFFFEFFFFFC2F DUP1 PUSH2 0x10B1 JUMPI PUSH2 0x10B0 PUSH2 0x2F82 JUMP JUMPDEST JUMPDEST DUP8 PUSH1 0x3 MULMOD ADDMOD SWAP1 POP PUSH32 0xFFFFFFFFFFFFFFFFFFFFFFFFFFFFFFFFFFFFFFFFFFFFFFFFFFFFFFFEFFFFFC2F DUP1 PUSH2 0x10E7 JUMPI PUSH2 0x10E6 PUSH2 0x2F82 JUMP JUMPDEST JUMPDEST PUSH32 0xFFFFFFFFFFFFFFFFFFFFFFFFFFFFFFFFFFFFFFFFFFFFFFFFFFFFFFFEFFFFFC2F DUP1 PUSH2 0x1116 JUMPI PUSH2 0x1115 PUSH2 0x2F82 JUMP JUMPDEST JUMPDEST DUP4 DUP5 ADDMOD PUSH32 0xFFFFFFFFFFFFFFFFFFFFFFFFFFFFFFFFFFFFFFFFFFFFFFFFFFFFFFFEFFFFFC2F PUSH2 0x1144 SWAP2 SWAP1 PUSH2 0x2FE0 JUMP JUMPDEST PUSH32 0xFFFFFFFFFFFFFFFFFFFFFFFFFFFFFFFFFFFFFFFFFFFFFFFFFFFFFFFEFFFFFC2F DUP1 PUSH2 0x1173 JUMPI PUSH2 0x1172 PUSH2 0x2F82 JUMP JUMPDEST JUMPDEST DUP4 DUP5 MULMOD ADDMOD SWAP5 POP PUSH32 0xFFFFFFFFFFFFFFFFFFFFFFFFFFFFFFFFFFFFFFFFFFFFFFFFFFFFFFFEFFFFFC2F DUP1 PUSH2 0x11A8 JUMPI PUSH2 0x11A7 PUSH2 0x2F82 JUMP JUMPDEST JUMPDEST PUSH32 0xFFFFFFFFFFFFFFFFFFFFFFFFFFFFFFFFFFFFFFFFFFFFFFFFFFFFFFFEFFFFFC2F DUP1 PUSH2 0x11D7 JUMPI PUSH2 0x11D6 PUSH2 0x2F82 JUMP JUMPDEST JUMPDEST PUSH32 0xFFFFFFFFFFFFFFFFFFFFFFFFFFFFFFFFFFFFFFFFFFFFFFFFFFFFFFFEFFFFFC2F DUP1 PUSH2 0x1206 JUMPI PUSH2 0x1205 PUSH2 0x2F82 JUMP JUMPDEST JUMPDEST DUP7 DUP8 MULMOD PUSH1 0x8 MULMOD PUSH32 0xFFFFFFFFFFFFFFFFFFFFFFFFFFFFFFFFFFFFFFFFFFFFFFFFFFFFFFFEFFFFFC2F PUSH2 0x1237 SWAP2 SWAP1 PUSH2 0x2FE0 JUMP JUMPDEST PUSH32 0xFFFFFFFFFFFFFFFFFFFFFFFFFFFFFFFFFFFFFFFFFFFFFFFFFFFFFFFEFFFFFC2F DUP1 PUSH2 0x1266 JUMPI PUSH2 0x1265 PUSH2 0x2F82 JUMP JUMPDEST JUMPDEST PUSH32 0xFFFFFFFFFFFFFFFFFFFFFFFFFFFFFFFFFFFFFFFFFFFFFFFFFFFFFFFEFFFFFC2F DUP1 PUSH2 0x1295 JUMPI PUSH2 0x1294 PUSH2 0x2F82 JUMP JUMPDEST JUMPDEST DUP9 PUSH32 0xFFFFFFFFFFFFFFFFFFFFFFFFFFFFFFFFFFFFFFFFFFFFFFFFFFFFFFFEFFFFFC2F PUSH2 0x12C1 SWAP2 SWAP1 PUSH2 0x2FE0 JUMP JUMPDEST DUP7 ADDMOD DUP5 MULMOD ADDMOD SWAP4 POP PUSH32 0xFFFFFFFFFFFFFFFFFFFFFFFFFFFFFFFFFFFFFFFFFFFFFFFFFFFFFFFEFFFFFC2F DUP1 PUSH2 0x12F7 JUMPI PUSH2 0x12F6 PUSH2 0x2F82 JUMP JUMPDEST JUMPDEST PUSH32 0xFFFFFFFFFFFFFFFFFFFFFFFFFFFFFFFFFFFFFFFFFFFFFFFFFFFFFFFEFFFFFC2F DUP1 PUSH2 0x1326 JUMPI PUSH2 0x1325 PUSH2 0x2F82 JUMP JUMPDEST JUMPDEST DUP11 DUP13 MULMOD PUSH1 0x2 MULMOD SWAP3 POP DUP5 DUP5 DUP5 SWAP8 POP SWAP8 POP SWAP8 POP POP POP POP POP POP JUMPDEST SWAP4 POP SWAP4 POP SWAP4 SWAP1 POP JUMP JUMPDEST PUSH1 0x0 DUP1 PUSH1 0x0 DUP1 DUP10 EQ DUP1 ISZERO PUSH2 0x135A JUMPI POP PUSH1 0x0 DUP9 EQ JUMPDEST ISZERO PUSH2 0x136D JUMPI DUP6 DUP6 DUP6 SWAP3 POP SWAP3 POP SWAP3 POP PUSH2 0x1D78 JUMP JUMPDEST PUSH1 0x0 DUP7 EQ DUP1 ISZERO PUSH2 0x137D JUMPI POP PUSH1 0x0 DUP6 EQ JUMPDEST ISZERO PUSH2 0x1390 JUMPI DUP9 DUP9 DUP9 SWAP3 POP SWAP3 POP SWAP3 POP PUSH2 0x1D78 JUMP JUMPDEST PUSH2 0x1398 PUSH2 0x22F8 JUMP JUMPDEST PUSH32 0xFFFFFFFFFFFFFFFFFFFFFFFFFFFFFFFFFFFFFFFFFFFFFFFFFFFFFFFEFFFFFC2F DUP1 PUSH2 0x13C7 JUMPI PUSH2 0x13C6 PUSH2 0x2F82 JUMP JUMPDEST JUMPDEST DUP9 DUP10 MULMOD DUP2 PUSH1 0x0 PUSH1 0x4 DUP2 LT PUSH2 0x13DE JUMPI PUSH2 0x13DD PUSH2 0x2C97 JUMP JUMPDEST JUMPDEST PUSH1 0x20 MUL ADD DUP2 DUP2 MSTORE POP POP PUSH32 0xFFFFFFFFFFFFFFFFFFFFFFFFFFFFFFFFFFFFFFFFFFFFFFFFFFFFFFFEFFFFFC2F DUP1 PUSH2 0x1416 JUMPI PUSH2 0x1415 PUSH2 0x2F82 JUMP JUMPDEST JUMPDEST DUP2 PUSH1 0x0 PUSH1 0x4 DUP2 LT PUSH2 0x142A JUMPI PUSH2 0x1429 PUSH2 0x2C97 JUMP JUMPDEST JUMPDEST PUSH1 0x20 MUL ADD MLOAD DUP10 MULMOD DUP2 PUSH1 0x1 PUSH1 0x4 DUP2 LT PUSH2 0x1445 JUMPI PUSH2 0x1444 PUSH2 0x2C97 JUMP JUMPDEST JUMPDEST PUSH1 0x20 MUL ADD DUP2 DUP2 MSTORE POP POP PUSH32 0xFFFFFFFFFFFFFFFFFFFFFFFFFFFFFFFFFFFFFFFFFFFFFFFFFFFFFFFEFFFFFC2F DUP1 PUSH2 0x147D JUMPI PUSH2 0x147C PUSH2 0x2F82 JUMP JUMPDEST JUMPDEST DUP6 DUP7 MULMOD DUP2 PUSH1 0x2 PUSH1 0x4 DUP2 LT PUSH2 0x1494 JUMPI PUSH2 0x1493 PUSH2 0x2C97 JUMP JUMPDEST JUMPDEST PUSH1 0x20 MUL ADD DUP2 DUP2 MSTORE POP POP PUSH32 0xFFFFFFFFFFFFFFFFFFFFFFFFFFFFFFFFFFFFFFFFFFFFFFFFFFFFFFFEFFFFFC2F DUP1 PUSH2 0x14CC JUMPI PUSH2 0x14CB PUSH2 0x2F82 JUMP JUMPDEST JUMPDEST DUP2 PUSH1 0x2 PUSH1 0x4 DUP2 LT PUSH2 0x14E0 JUMPI PUSH2 0x14DF PUSH2 0x2C97 JUMP JUMPDEST JUMPDEST PUSH1 0x20 MUL ADD MLOAD DUP7 MULMOD DUP2 PUSH1 0x3 PUSH1 0x4 DUP2 LT PUSH2 0x14FB JUMPI PUSH2 0x14FA PUSH2 0x2C97 JUMP JUMPDEST JUMPDEST PUSH1 0x20 MUL ADD DUP2 DUP2 MSTORE POP POP PUSH1 0x40 MLOAD DUP1 PUSH1 0x80 ADD PUSH1 0x40 MSTORE DUP1 PUSH32 0xFFFFFFFFFFFFFFFFFFFFFFFFFFFFFFFFFFFFFFFFFFFFFFFFFFFFFFFEFFFFFC2F DUP1 PUSH2 0x153E JUMPI PUSH2 0x153D PUSH2 0x2F82 JUMP JUMPDEST JUMPDEST DUP4 PUSH1 0x2 PUSH1 0x4 DUP2 LT PUSH2 0x1552 JUMPI PUSH2 0x1551 PUSH2 0x2C97 JUMP JUMPDEST JUMPDEST PUSH1 0x20 MUL ADD MLOAD DUP14 MULMOD DUP2 MSTORE PUSH1 0x20 ADD PUSH32 0xFFFFFFFFFFFFFFFFFFFFFFFFFFFFFFFFFFFFFFFFFFFFFFFFFFFFFFFEFFFFFC2F DUP1 PUSH2 0x158D JUMPI PUSH2 0x158C PUSH2 0x2F82 JUMP JUMPDEST JUMPDEST DUP4 PUSH1 0x3 PUSH1 0x4 DUP2 LT PUSH2 0x15A1 JUMPI PUSH2 0x15A0 PUSH2 0x2C97 JUMP JUMPDEST JUMPDEST PUSH1 0x20 MUL ADD MLOAD DUP13 MULMOD DUP2 MSTORE PUSH1 0x20 ADD PUSH32 0xFFFFFFFFFFFFFFFFFFFFFFFFFFFFFFFFFFFFFFFFFFFFFFFFFFFFFFFEFFFFFC2F DUP1 PUSH2 0x15DC JUMPI PUSH2 0x15DB PUSH2 0x2F82 JUMP JUMPDEST JUMPDEST DUP4 PUSH1 0x0 PUSH1 0x4 DUP2 LT PUSH2 0x15F0 JUMPI PUSH2 0x15EF PUSH2 0x2C97 JUMP JUMPDEST JUMPDEST PUSH1 0x20 MUL ADD MLOAD DUP11 MULMOD DUP2 MSTORE PUSH1 0x20 ADD PUSH32 0xFFFFFFFFFFFFFFFFFFFFFFFFFFFFFFFFFFFFFFFFFFFFFFFFFFFFFFFEFFFFFC2F DUP1 PUSH2 0x162B JUMPI PUSH2 0x162A PUSH2 0x2F82 JUMP JUMPDEST JUMPDEST DUP4 PUSH1 0x1 PUSH1 0x4 DUP2 LT PUSH2 0x163F JUMPI PUSH2 0x163E PUSH2 0x2C97 JUMP JUMPDEST JUMPDEST PUSH1 0x20 MUL ADD MLOAD DUP10 MULMOD DUP2 MSTORE POP SWAP1 POP DUP1 PUSH1 0x2 PUSH1 0x4 DUP2 LT PUSH2 0x165F JUMPI PUSH2 0x165E PUSH2 0x2C97 JUMP JUMPDEST JUMPDEST PUSH1 0x20 MUL ADD MLOAD DUP2 PUSH1 0x0 PUSH1 0x4 DUP2 LT PUSH2 0x1678 JUMPI PUSH2 0x1677 PUSH2 0x2C97 JUMP JUMPDEST JUMPDEST PUSH1 0x20 MUL ADD MLOAD EQ ISZERO DUP1 PUSH2 0x16BA JUMPI POP DUP1 PUSH1 0x3 PUSH1 0x4 DUP2 LT PUSH2 0x1699 JUMPI PUSH2 0x1698 PUSH2 0x2C97 JUMP JUMPDEST JUMPDEST PUSH1 0x20 MUL ADD MLOAD DUP2 PUSH1 0x1 PUSH1 0x4 DUP2 LT PUSH2 0x16B2 JUMPI PUSH2 0x16B1 PUSH2 0x2C97 JUMP JUMPDEST JUMPDEST PUSH1 0x20 MUL ADD MLOAD EQ ISZERO JUMPDEST PUSH2 0x16F9 JUMPI PUSH1 0x40 MLOAD PUSH32 0x8C379A000000000000000000000000000000000000000000000000000000000 DUP2 MSTORE PUSH1 0x4 ADD PUSH2 0x16F0 SWAP1 PUSH2 0x3060 JUMP JUMPDEST PUSH1 0x40 MLOAD DUP1 SWAP2 SUB SWAP1 REVERT JUMPDEST PUSH2 0x1701 PUSH2 0x22F8 JUMP JUMPDEST PUSH32 0xFFFFFFFFFFFFFFFFFFFFFFFFFFFFFFFFFFFFFFFFFFFFFFFFFFFFFFFEFFFFFC2F DUP1 PUSH2 0x1730 JUMPI PUSH2 0x172F PUSH2 0x2F82 JUMP JUMPDEST JUMPDEST DUP3 PUSH1 0x0 PUSH1 0x4 DUP2 LT PUSH2 0x1744 JUMPI PUSH2 0x1743 PUSH2 0x2C97 JUMP JUMPDEST JUMPDEST PUSH1 0x20 MUL ADD MLOAD PUSH32 0xFFFFFFFFFFFFFFFFFFFFFFFFFFFFFFFFFFFFFFFFFFFFFFFFFFFFFFFEFFFFFC2F PUSH2 0x1774 SWAP2 SWAP1 PUSH2 0x2FE0 JUMP JUMPDEST DUP4 PUSH1 0x2 PUSH1 0x4 DUP2 LT PUSH2 0x1788 JUMPI PUSH2 0x1787 PUSH2 0x2C97 JUMP JUMPDEST JUMPDEST PUSH1 0x20 MUL ADD MLOAD ADDMOD DUP2 PUSH1 0x0 PUSH1 0x4 DUP2 LT PUSH2 0x17A2 JUMPI PUSH2 0x17A1 PUSH2 0x2C97 JUMP JUMPDEST JUMPDEST PUSH1 0x20 MUL ADD DUP2 DUP2 MSTORE POP POP PUSH32 0xFFFFFFFFFFFFFFFFFFFFFFFFFFFFFFFFFFFFFFFFFFFFFFFFFFFFFFFEFFFFFC2F DUP1 PUSH2 0x17DA JUMPI PUSH2 0x17D9 PUSH2 0x2F82 JUMP JUMPDEST JUMPDEST DUP3 PUSH1 0x1 PUSH1 0x4 DUP2 LT PUSH2 0x17EE JUMPI PUSH2 0x17ED PUSH2 0x2C97 JUMP JUMPDEST JUMPDEST PUSH1 0x20 MUL ADD MLOAD PUSH32 0xFFFFFFFFFFFFFFFFFFFFFFFFFFFFFFFFFFFFFFFFFFFFFFFFFFFFFFFEFFFFFC2F PUSH2 0x181E SWAP2 SWAP1 PUSH2 0x2FE0 JUMP JUMPDEST DUP4 PUSH1 0x3 PUSH1 0x4 DUP2 LT PUSH2 0x1832 JUMPI PUSH2 0x1831 PUSH2 0x2C97 JUMP JUMPDEST JUMPDEST PUSH1 0x20 MUL ADD MLOAD ADDMOD DUP2 PUSH1 0x1 PUSH1 0x4 DUP2 LT PUSH2 0x184C JUMPI PUSH2 0x184B PUSH2 0x2C97 JUMP JUMPDEST JUMPDEST PUSH1 0x20 MUL ADD DUP2 DUP2 MSTORE POP POP PUSH32 0xFFFFFFFFFFFFFFFFFFFFFFFFFFFFFFFFFFFFFFFFFFFFFFFFFFFFFFFEFFFFFC2F DUP1 PUSH2 0x1884 JUMPI PUSH2 0x1883 PUSH2 0x2F82 JUMP JUMPDEST JUMPDEST DUP2 PUSH1 0x0 PUSH1 0x4 DUP2 LT PUSH2 0x1898 JUMPI PUSH2 0x1897 PUSH2 0x2C97 JUMP JUMPDEST JUMPDEST PUSH1 0x20 MUL ADD MLOAD DUP3 PUSH1 0x0 PUSH1 0x4 DUP2 LT PUSH2 0x18B1 JUMPI PUSH2 0x18B0 PUSH2 0x2C97 JUMP JUMPDEST JUMPDEST PUSH1 0x20 MUL ADD MLOAD MULMOD DUP2 PUSH1 0x2 PUSH1 0x4 DUP2 LT PUSH2 0x18CB JUMPI PUSH2 0x18CA PUSH2 0x2C97 JUMP JUMPDEST JUMPDEST PUSH1 0x20 MUL ADD DUP2 DUP2 MSTORE POP POP PUSH32 0xFFFFFFFFFFFFFFFFFFFFFFFFFFFFFFFFFFFFFFFFFFFFFFFFFFFFFFFEFFFFFC2F DUP1 PUSH2 0x1903 JUMPI PUSH2 0x1902 PUSH2 0x2F82 JUMP JUMPDEST JUMPDEST DUP2 PUSH1 0x0 PUSH1 0x4 DUP2 LT PUSH2 0x1917 JUMPI PUSH2 0x1916 PUSH2 0x2C97 JUMP JUMPDEST JUMPDEST PUSH1 0x20 MUL ADD MLOAD DUP3 PUSH1 0x2 PUSH1 0x4 DUP2 LT PUSH2 0x1930 JUMPI PUSH2 0x192F PUSH2 0x2C97 JUMP JUMPDEST JUMPDEST PUSH1 0x20 MUL ADD MLOAD MULMOD DUP2 PUSH1 0x3 PUSH1 0x4 DUP2 LT PUSH2 0x194A JUMPI PUSH2 0x1949 PUSH2 0x2C97 JUMP JUMPDEST JUMPDEST PUSH1 0x20 MUL ADD DUP2 DUP2 MSTORE POP POP PUSH1 0x0 PUSH32 0xFFFFFFFFFFFFFFFFFFFFFFFFFFFFFFFFFFFFFFFFFFFFFFFFFFFFFFFEFFFFFC2F DUP1 PUSH2 0x1984 JUMPI PUSH2 0x1983 PUSH2 0x2F82 JUMP JUMPDEST JUMPDEST DUP3 PUSH1 0x3 PUSH1 0x4 DUP2 LT PUSH2 0x1998 JUMPI PUSH2 0x1997 PUSH2 0x2C97 JUMP JUMPDEST JUMPDEST PUSH1 0x20 MUL ADD MLOAD PUSH32 0xFFFFFFFFFFFFFFFFFFFFFFFFFFFFFFFFFFFFFFFFFFFFFFFFFFFFFFFEFFFFFC2F PUSH2 0x19C8 SWAP2 SWAP1 PUSH2 0x2FE0 JUMP JUMPDEST PUSH32 0xFFFFFFFFFFFFFFFFFFFFFFFFFFFFFFFFFFFFFFFFFFFFFFFFFFFFFFFEFFFFFC2F DUP1 PUSH2 0x19F7 JUMPI PUSH2 0x19F6 PUSH2 0x2F82 JUMP JUMPDEST JUMPDEST DUP5 PUSH1 0x1 PUSH1 0x4 DUP2 LT PUSH2 0x1A0B JUMPI PUSH2 0x1A0A PUSH2 0x2C97 JUMP JUMPDEST JUMPDEST PUSH1 0x20 MUL ADD MLOAD DUP6 PUSH1 0x1 PUSH1 0x4 DUP2 LT PUSH2 0x1A24 JUMPI PUSH2 0x1A23 PUSH2 0x2C97 JUMP JUMPDEST JUMPDEST PUSH1 0x20 MUL ADD MLOAD MULMOD ADDMOD SWAP1 POP PUSH32 0xFFFFFFFFFFFFFFFFFFFFFFFFFFFFFFFFFFFFFFFFFFFFFFFFFFFFFFFEFFFFFC2F DUP1 PUSH2 0x1A5C JUMPI PUSH2 0x1A5B PUSH2 0x2F82 JUMP JUMPDEST JUMPDEST PUSH32 0xFFFFFFFFFFFFFFFFFFFFFFFFFFFFFFFFFFFFFFFFFFFFFFFFFFFFFFFEFFFFFC2F DUP1 PUSH2 0x1A8B JUMPI PUSH2 0x1A8A PUSH2 0x2F82 JUMP JUMPDEST JUMPDEST PUSH32 0xFFFFFFFFFFFFFFFFFFFFFFFFFFFFFFFFFFFFFFFFFFFFFFFFFFFFFFFEFFFFFC2F DUP1 PUSH2 0x1ABA JUMPI PUSH2 0x1AB9 PUSH2 0x2F82 JUMP JUMPDEST JUMPDEST DUP5 PUSH1 0x2 PUSH1 0x4 DUP2 LT PUSH2 0x1ACE JUMPI PUSH2 0x1ACD PUSH2 0x2C97 JUMP JUMPDEST JUMPDEST PUSH1 0x20 MUL ADD MLOAD DUP7 PUSH1 0x0 PUSH1 0x4 DUP2 LT PUSH2 0x1AE7 JUMPI PUSH2 0x1AE6 PUSH2 0x2C97 JUMP JUMPDEST JUMPDEST PUSH1 0x20 MUL ADD MLOAD MULMOD PUSH1 0x2 MULMOD PUSH32 0xFFFFFFFFFFFFFFFFFFFFFFFFFFFFFFFFFFFFFFFFFFFFFFFFFFFFFFFEFFFFFC2F PUSH2 0x1B1B SWAP2 SWAP1 PUSH2 0x2FE0 JUMP JUMPDEST DUP3 ADDMOD SWAP1 POP PUSH1 0x0 PUSH32 0xFFFFFFFFFFFFFFFFFFFFFFFFFFFFFFFFFFFFFFFFFFFFFFFFFFFFFFFEFFFFFC2F DUP1 PUSH2 0x1B50 JUMPI PUSH2 0x1B4F PUSH2 0x2F82 JUMP JUMPDEST JUMPDEST PUSH32 0xFFFFFFFFFFFFFFFFFFFFFFFFFFFFFFFFFFFFFFFFFFFFFFFFFFFFFFFEFFFFFC2F DUP1 PUSH2 0x1B7F JUMPI PUSH2 0x1B7E PUSH2 0x2F82 JUMP JUMPDEST JUMPDEST DUP4 PUSH32 0xFFFFFFFFFFFFFFFFFFFFFFFFFFFFFFFFFFFFFFFFFFFFFFFFFFFFFFFEFFFFFC2F PUSH2 0x1BAB SWAP2 SWAP1 PUSH2 0x2FE0 JUMP JUMPDEST PUSH32 0xFFFFFFFFFFFFFFFFFFFFFFFFFFFFFFFFFFFFFFFFFFFFFFFFFFFFFFFEFFFFFC2F DUP1 PUSH2 0x1BDA JUMPI PUSH2 0x1BD9 PUSH2 0x2F82 JUMP JUMPDEST JUMPDEST DUP7 PUSH1 0x2 PUSH1 0x4 DUP2 LT PUSH2 0x1BEE JUMPI PUSH2 0x1BED PUSH2 0x2C97 JUMP JUMPDEST JUMPDEST PUSH1 0x20 MUL ADD MLOAD DUP9 PUSH1 0x0 PUSH1 0x4 DUP2 LT PUSH2 0x1C07 JUMPI PUSH2 0x1C06 PUSH2 0x2C97 JUMP JUMPDEST JUMPDEST PUSH1 0x20 MUL ADD MLOAD MULMOD ADDMOD DUP5 PUSH1 0x1 PUSH1 0x4 DUP2 LT PUSH2 0x1C22 JUMPI PUSH2 0x1C21 PUSH2 0x2C97 JUMP JUMPDEST JUMPDEST PUSH1 0x20 MUL ADD MLOAD MULMOD SWAP1 POP PUSH32 0xFFFFFFFFFFFFFFFFFFFFFFFFFFFFFFFFFFFFFFFFFFFFFFFFFFFFFFFEFFFFFC2F DUP1 PUSH2 0x1C59 JUMPI PUSH2 0x1C58 PUSH2 0x2F82 JUMP JUMPDEST JUMPDEST PUSH32 0xFFFFFFFFFFFFFFFFFFFFFFFFFFFFFFFFFFFFFFFFFFFFFFFFFFFFFFFEFFFFFC2F DUP1 PUSH2 0x1C88 JUMPI PUSH2 0x1C87 PUSH2 0x2F82 JUMP JUMPDEST JUMPDEST DUP5 PUSH1 0x3 PUSH1 0x4 DUP2 LT PUSH2 0x1C9C JUMPI PUSH2 0x1C9B PUSH2 0x2C97 JUMP JUMPDEST JUMPDEST PUSH1 0x20 MUL ADD MLOAD DUP7 PUSH1 0x1 PUSH1 0x4 DUP2 LT PUSH2 0x1CB5 JUMPI PUSH2 0x1CB4 PUSH2 0x2C97 JUMP JUMPDEST JUMPDEST PUSH1 0x20 MUL ADD MLOAD MULMOD PUSH32 0xFFFFFFFFFFFFFFFFFFFFFFFFFFFFFFFFFFFFFFFFFFFFFFFFFFFFFFFEFFFFFC2F PUSH2 0x1CE6 SWAP2 SWAP1 PUSH2 0x2FE0 JUMP JUMPDEST DUP3 ADDMOD SWAP1 POP PUSH1 0x0 PUSH32 0xFFFFFFFFFFFFFFFFFFFFFFFFFFFFFFFFFFFFFFFFFFFFFFFFFFFFFFFEFFFFFC2F DUP1 PUSH2 0x1D1B JUMPI PUSH2 0x1D1A PUSH2 0x2F82 JUMP JUMPDEST JUMPDEST PUSH32 0xFFFFFFFFFFFFFFFFFFFFFFFFFFFFFFFFFFFFFFFFFFFFFFFFFFFFFFFEFFFFFC2F DUP1 PUSH2 0x1D4A JUMPI PUSH2 0x1D49 PUSH2 0x2F82 JUMP JUMPDEST JUMPDEST DUP11 DUP15 MULMOD DUP6 PUSH1 0x0 PUSH1 0x4 DUP2 LT PUSH2 0x1D61 JUMPI PUSH2 0x1D60 PUSH2 0x2C97 JUMP JUMPDEST JUMPDEST PUSH1 0x20 MUL ADD MLOAD MULMOD SWAP1 POP DUP3 DUP3 DUP3 SWAP8 POP SWAP8 POP SWAP8 POP POP POP POP POP POP JUMPDEST SWAP7 POP SWAP7 POP SWAP7 SWAP4 POP POP POP POP JUMP JUMPDEST PUSH2 0x1D8C PUSH2 0x22DE JUMP JUMPDEST PUSH1 0x0 PUSH2 0x1D97 DUP4 PUSH2 0x20FD JUMP JUMPDEST SWAP1 POP PUSH1 0x0 PUSH32 0xFFFFFFFFFFFFFFFFFFFFFFFFFFFFFFFFFFFFFFFFFFFFFFFFFFFFFFFEFFFFFC2F DUP1 PUSH2 0x1DCA JUMPI PUSH2 0x1DC9 PUSH2 0x2F82 JUMP JUMPDEST JUMPDEST DUP3 DUP4 MULMOD SWAP1 POP PUSH1 0x0 PUSH32 0xFFFFFFFFFFFFFFFFFFFFFFFFFFFFFFFFFFFFFFFFFFFFFFFFFFFFFFFEFFFFFC2F DUP1 PUSH2 0x1E00 JUMPI PUSH2 0x1DFF PUSH2 0x2F82 JUMP JUMPDEST JUMPDEST DUP3 DUP9 MULMOD SWAP1 POP PUSH1 0x0 PUSH32 0xFFFFFFFFFFFFFFFFFFFFFFFFFFFFFFFFFFFFFFFFFFFFFFFFFFFFFFFEFFFFFC2F DUP1 PUSH2 0x1E36 JUMPI PUSH2 0x1E35 PUSH2 0x2F82 JUMP JUMPDEST JUMPDEST PUSH32 0xFFFFFFFFFFFFFFFFFFFFFFFFFFFFFFFFFFFFFFFFFFFFFFFFFFFFFFFEFFFFFC2F DUP1 PUSH2 0x1E65 JUMPI PUSH2 0x1E64 PUSH2 0x2F82 JUMP JUMPDEST JUMPDEST DUP5 DUP7 MULMOD DUP9 MULMOD SWAP1 POP PUSH1 0x40 MLOAD DUP1 PUSH1 0x40 ADD PUSH1 0x40 MSTORE DUP1 DUP4 DUP2 MSTORE PUSH1 0x20 ADD DUP3 DUP2 MSTORE POP SWAP5 POP POP POP POP POP SWAP4 SWAP3 POP POP POP JUMP JUMPDEST PUSH1 0x0 DUP1 PUSH1 0x0 SWAP1 POP PUSH27 0x184F03E93FF9F4DAA797ED6E38ED64BF6A1F010000000000000000 DUP4 LT PUSH2 0x1EEC JUMPI PUSH27 0x184F03E93FF9F4DAA797ED6E38ED64BF6A1F010000000000000000 DUP4 DUP2 PUSH2 0x1EE2 JUMPI PUSH2 0x1EE1 PUSH2 0x2F82 JUMP JUMPDEST JUMPDEST DIV SWAP3 POP PUSH1 0x40 DUP2 ADD SWAP1 POP JUMPDEST PUSH14 0x4EE2D6D415B85ACEF8100000000 DUP4 LT PUSH2 0x1F29 JUMPI PUSH14 0x4EE2D6D415B85ACEF8100000000 DUP4 DUP2 PUSH2 0x1F1F JUMPI PUSH2 0x1F1E PUSH2 0x2F82 JUMP JUMPDEST JUMPDEST DIV SWAP3 POP PUSH1 0x20 DUP2 ADD SWAP1 POP JUMPDEST PUSH7 0x2386F26FC10000 DUP4 LT PUSH2 0x1F58 JUMPI PUSH7 0x2386F26FC10000 DUP4 DUP2 PUSH2 0x1F4E JUMPI PUSH2 0x1F4D PUSH2 0x2F82 JUMP JUMPDEST JUMPDEST DIV SWAP3 POP PUSH1 0x10 DUP2 ADD SWAP1 POP JUMPDEST PUSH4 0x5F5E100 DUP4 LT PUSH2 0x1F81 JUMPI PUSH4 0x5F5E100 DUP4 DUP2 PUSH2 0x1F77 JUMPI PUSH2 0x1F76 PUSH2 0x2F82 JUMP JUMPDEST JUMPDEST DIV SWAP3 POP PUSH1 0x8 DUP2 ADD SWAP1 POP JUMPDEST PUSH2 0x2710 DUP4 LT PUSH2 0x1FA6 JUMPI PUSH2 0x2710 DUP4 DUP2 PUSH2 0x1F9C JUMPI PUSH2 0x1F9B PUSH2 0x2F82 JUMP JUMPDEST JUMPDEST DIV SWAP3 POP PUSH1 0x4 DUP2 ADD SWAP1 POP JUMPDEST PUSH1 0x64 DUP4 LT PUSH2 0x1FC9 JUMPI PUSH1 0x64 DUP4 DUP2 PUSH2 0x1FBF JUMPI PUSH2 0x1FBE PUSH2 0x2F82 JUMP JUMPDEST JUMPDEST DIV SWAP3 POP PUSH1 0x2 DUP2 ADD SWAP1 POP JUMPDEST PUSH1 0xA DUP4 LT PUSH2 0x1FD8 JUMPI PUSH1 0x1 DUP2 ADD SWAP1 POP JUMPDEST DUP1 SWAP2 POP POP SWAP2 SWAP1 POP JUMP JUMPDEST PUSH1 0x0 DUP1 PUSH1 0x0 DUP1 DUP8 SUB PUSH2 0x1FFB JUMPI DUP6 DUP6 DUP6 SWAP3 POP SWAP3 POP SWAP3 POP PUSH2 0x2071 JUMP JUMPDEST PUSH1 0x0 DUP8 SWAP1 POP PUSH1 0x0 DUP1 PUSH1 0x0 PUSH1 0x1 SWAP1 POP JUMPDEST PUSH1 0x0 DUP5 EQ PUSH2 0x2063 JUMPI PUSH1 0x0 PUSH1 0x1 DUP6 AND EQ PUSH2 0x2038 JUMPI PUSH2 0x202B DUP4 DUP4 DUP4 DUP14 DUP14 DUP14 PUSH2 0x1346 JUMP JUMPDEST DUP1 SWAP4 POP DUP2 SWAP5 POP DUP3 SWAP6 POP POP POP POP JUMPDEST PUSH1 0x2 DUP5 PUSH2 0x2045 SWAP2 SWAP1 PUSH2 0x3080 JUMP JUMPDEST SWAP4 POP PUSH2 0x2052 DUP11 DUP11 DUP11 PUSH2 0xEC9 JUMP JUMPDEST DUP1 SWAP11 POP DUP2 SWAP12 POP DUP3 SWAP13 POP POP POP POP PUSH2 0x200A JUMP JUMPDEST DUP3 DUP3 DUP3 SWAP7 POP SWAP7 POP SWAP7 POP POP POP POP POP JUMPDEST SWAP5 POP SWAP5 POP SWAP5 SWAP2 POP POP JUMP JUMPDEST PUSH2 0x2083 PUSH2 0x22DE JUMP JUMPDEST PUSH1 0x40 MLOAD DUP1 PUSH1 0x40 ADD PUSH1 0x40 MSTORE DUP1 DUP4 PUSH1 0x0 ADD MLOAD DUP2 MSTORE PUSH1 0x20 ADD PUSH32 0xFFFFFFFFFFFFFFFFFFFFFFFFFFFFFFFFFFFFFFFFFFFFFFFFFFFFFFFEFFFFFC2F DUP5 PUSH1 0x20 ADD MLOAD PUSH32 0xFFFFFFFFFFFFFFFFFFFFFFFFFFFFFFFFFFFFFFFFFFFFFFFFFFFFFFFEFFFFFC2F PUSH2 0x20E9 SWAP2 SWAP1 PUSH2 0x2FE0 JUMP JUMPDEST PUSH2 0x20F3 SWAP2 SWAP1 PUSH2 0x30B1 JUMP JUMPDEST DUP2 MSTORE POP SWAP1 POP SWAP2 SWAP1 POP JUMP JUMPDEST PUSH1 0x0 DUP1 DUP3 EQ ISZERO DUP1 ISZERO PUSH2 0x212F JUMPI POP PUSH32 0xFFFFFFFFFFFFFFFFFFFFFFFFFFFFFFFFFFFFFFFFFFFFFFFFFFFFFFFEFFFFFC2F DUP3 EQ ISZERO JUMPDEST DUP1 ISZERO PUSH2 0x215C JUMPI POP PUSH1 0x0 PUSH32 0xFFFFFFFFFFFFFFFFFFFFFFFFFFFFFFFFFFFFFFFFFFFFFFFFFFFFFFFEFFFFFC2F EQ ISZERO JUMPDEST PUSH2 0x219B JUMPI PUSH1 0x40 MLOAD PUSH32 0x8C379A000000000000000000000000000000000000000000000000000000000 DUP2 MSTORE PUSH1 0x4 ADD PUSH2 0x2192 SWAP1 PUSH2 0x312E JUMP JUMPDEST PUSH1 0x40 MLOAD DUP1 SWAP2 SUB SWAP1 REVERT JUMPDEST PUSH1 0x0 DUP1 PUSH1 0x1 SWAP1 POP PUSH1 0x0 PUSH32 0xFFFFFFFFFFFFFFFFFFFFFFFFFFFFFFFFFFFFFFFFFFFFFFFFFFFFFFFEFFFFFC2F SWAP1 POP PUSH1 0x0 JUMPDEST PUSH1 0x0 DUP7 EQ PUSH2 0x229C JUMPI DUP6 DUP3 PUSH2 0x21DE SWAP2 SWAP1 PUSH2 0x3080 JUMP JUMPDEST SWAP1 POP DUP3 PUSH32 0xFFFFFFFFFFFFFFFFFFFFFFFFFFFFFFFFFFFFFFFFFFFFFFFFFFFFFFFEFFFFFC2F DUP1 PUSH2 0x2210 JUMPI PUSH2 0x220F PUSH2 0x2F82 JUMP JUMPDEST JUMPDEST PUSH32 0xFFFFFFFFFFFFFFFFFFFFFFFFFFFFFFFFFFFFFFFFFFFFFFFFFFFFFFFEFFFFFC2F DUP1 PUSH2 0x223F JUMPI PUSH2 0x223E PUSH2 0x2F82 JUMP JUMPDEST JUMPDEST DUP6 DUP5 MULMOD PUSH32 0xFFFFFFFFFFFFFFFFFFFFFFFFFFFFFFFFFFFFFFFFFFFFFFFFFFFFFFFEFFFFFC2F PUSH2 0x226D SWAP2 SWAP1 PUSH2 0x2FE0 JUMP JUMPDEST DUP7 ADDMOD DUP1 SWAP5 POP DUP2 SWAP6 POP POP POP DUP6 DUP7 DUP3 PUSH2 0x2284 SWAP2 SWAP1 PUSH2 0x314E JUMP JUMPDEST DUP4 PUSH2 0x228F SWAP2 SWAP1 PUSH2 0x2FE0 JUMP JUMPDEST DUP1 SWAP8 POP DUP2 SWAP4 POP POP POP PUSH2 0x21CA JUMP JUMPDEST DUP4 SWAP5 POP POP POP POP POP SWAP2 SWAP1 POP JUMP JUMPDEST PUSH1 0x40 MLOAD DUP1 PUSH1 0xC0 ADD PUSH1 0x40 MSTORE DUP1 PUSH1 0x0 DUP2 MSTORE PUSH1 0x20 ADD PUSH1 0x0 DUP2 MSTORE PUSH1 0x20 ADD PUSH1 0x0 DUP2 MSTORE PUSH1 0x20 ADD PUSH1 0x0 DUP2 MSTORE PUSH1 0x20 ADD PUSH1 0x0 DUP2 MSTORE PUSH1 0x20 ADD PUSH1 0x0 DUP2 MSTORE POP SWAP1 JUMP JUMPDEST PUSH1 0x40 MLOAD DUP1 PUSH1 0x40 ADD PUSH1 0x40 MSTORE DUP1 PUSH1 0x0 DUP2 MSTORE PUSH1 0x20 ADD PUSH1 0x0 DUP2 MSTORE POP SWAP1 JUMP JUMPDEST PUSH1 0x40 MLOAD DUP1 PUSH1 0x80 ADD PUSH1 0x40 MSTORE DUP1 PUSH1 0x4 SWAP1 PUSH1 0x20 DUP3 MUL DUP1 CALLDATASIZE DUP4 CALLDATACOPY DUP1 DUP3 ADD SWAP2 POP POP SWAP1 POP POP SWAP1 JUMP JUMPDEST PUSH1 0x0 DUP2 SWAP1 POP SWAP2 SWAP1 POP JUMP JUMPDEST PUSH2 0x232D DUP2 PUSH2 0x231A JUMP JUMPDEST DUP3 MSTORE POP POP JUMP JUMPDEST PUSH1 0x0 PUSH1 0x20 DUP3 ADD SWAP1 POP PUSH2 0x2348 PUSH1 0x0 DUP4 ADD DUP5 PUSH2 0x2324 JUMP JUMPDEST SWAP3 SWAP2 POP POP JUMP JUMPDEST PUSH1 0x0 DUP2 MLOAD SWAP1 POP SWAP2 SWAP1 POP JUMP JUMPDEST PUSH1 0x0 DUP3 DUP3 MSTORE PUSH1 0x20 DUP3 ADD SWAP1 POP SWAP3 SWAP2 POP POP JUMP JUMPDEST PUSH1 0x0 DUP2 SWAP1 POP PUSH1 0x20 DUP3 ADD SWAP1 POP SWAP2 SWAP1 POP JUMP JUMPDEST PUSH1 0x0 DUP2 MLOAD SWAP1 POP SWAP2 SWAP1 POP JUMP JUMPDEST PUSH1 0x0 DUP3 DUP3 MSTORE PUSH1 0x20 DUP3 ADD SWAP1 POP SWAP3 SWAP2 POP POP JUMP JUMPDEST PUSH1 0x0 JUMPDEST DUP4 DUP2 LT ISZERO PUSH2 0x23B4 JUMPI DUP1 DUP3 ADD MLOAD DUP2 DUP5 ADD MSTORE PUSH1 0x20 DUP2 ADD SWAP1 POP PUSH2 0x2399 JUMP JUMPDEST PUSH1 0x0 DUP5 DUP5 ADD MSTORE POP POP POP POP JUMP JUMPDEST PUSH1 0x0 PUSH1 0x1F NOT PUSH1 0x1F DUP4 ADD AND SWAP1 POP SWAP2 SWAP1 POP JUMP JUMPDEST PUSH1 0x0 PUSH2 0x23DC DUP3 PUSH2 0x237A JUMP JUMPDEST PUSH2 0x23E6 DUP2 DUP6 PUSH2 0x2385 JUMP JUMPDEST SWAP4 POP PUSH2 0x23F6 DUP2 DUP6 PUSH1 0x20 DUP7 ADD PUSH2 0x2396 JUMP JUMPDEST PUSH2 0x23FF DUP2 PUSH2 0x23C0 JUMP JUMPDEST DUP5 ADD SWAP2 POP POP SWAP3 SWAP2 POP POP JUMP JUMPDEST PUSH1 0x0 PUSH2 0x2416 DUP4 DUP4 PUSH2 0x23D1 JUMP JUMPDEST SWAP1 POP SWAP3 SWAP2 POP POP JUMP JUMPDEST PUSH1 0x0 PUSH1 0x20 DUP3 ADD SWAP1 POP SWAP2 SWAP1 POP JUMP JUMPDEST PUSH1 0x0 PUSH2 0x2436 DUP3 PUSH2 0x234E JUMP JUMPDEST PUSH2 0x2440 DUP2 DUP6 PUSH2 0x2359 JUMP JUMPDEST SWAP4 POP DUP4 PUSH1 0x20 DUP3 MUL DUP6 ADD PUSH2 0x2452 DUP6 PUSH2 0x236A JUMP JUMPDEST DUP1 PUSH1 0x0 JUMPDEST DUP6 DUP2 LT ISZERO PUSH2 0x248E JUMPI DUP5 DUP5 SUB DUP10 MSTORE DUP2 MLOAD PUSH2 0x246F DUP6 DUP3 PUSH2 0x240A JUMP JUMPDEST SWAP5 POP PUSH2 0x247A DUP4 PUSH2 0x241E JUMP JUMPDEST SWAP3 POP PUSH1 0x20 DUP11 ADD SWAP10 POP POP PUSH1 0x1 DUP2 ADD SWAP1 POP PUSH2 0x2456 JUMP JUMPDEST POP DUP3 SWAP8 POP DUP8 SWAP6 POP POP POP POP POP POP SWAP3 SWAP2 POP POP JUMP JUMPDEST PUSH1 0x0 PUSH1 0x20 DUP3 ADD SWAP1 POP DUP2 DUP2 SUB PUSH1 0x0 DUP4 ADD MSTORE PUSH2 0x24BA DUP2 DUP5 PUSH2 0x242B JUMP JUMPDEST SWAP1 POP SWAP3 SWAP2 POP POP JUMP JUMPDEST PUSH32 0x4E487B7100000000000000000000000000000000000000000000000000000000 PUSH1 0x0 MSTORE PUSH1 0x21 PUSH1 0x4 MSTORE PUSH1 0x24 PUSH1 0x0 REVERT JUMPDEST PUSH1 0x4 DUP2 LT PUSH2 0x2502 JUMPI PUSH2 0x2501 PUSH2 0x24C2 JUMP JUMPDEST JUMPDEST POP JUMP JUMPDEST PUSH1 0x0 DUP2 SWAP1 POP PUSH2 0x2513 DUP3 PUSH2 0x24F1 JUMP JUMPDEST SWAP2 SWAP1 POP JUMP JUMPDEST PUSH1 0x0 PUSH2 0x2523 DUP3 PUSH2 0x2505 JUMP JUMPDEST SWAP1 POP SWAP2 SWAP1 POP JUMP JUMPDEST PUSH2 0x2533 DUP2 PUSH2 0x2518 JUMP JUMPDEST DUP3 MSTORE POP POP JUMP JUMPDEST PUSH1 0x0 PUSH1 0x20 DUP3 ADD SWAP1 POP PUSH2 0x254E PUSH1 0x0 DUP4 ADD DUP5 PUSH2 0x252A JUMP JUMPDEST SWAP3 SWAP2 POP POP JUMP JUMPDEST PUSH1 0x0 PUSH1 0x40 MLOAD SWAP1 POP SWAP1 JUMP JUMPDEST PUSH1 0x0 DUP1 REVERT JUMPDEST PUSH1 0x0 DUP1 REVERT JUMPDEST PUSH2 0x2571 DUP2 PUSH2 0x231A JUMP JUMPDEST DUP2 EQ PUSH2 0x257C JUMPI PUSH1 0x0 DUP1 REVERT JUMPDEST POP JUMP JUMPDEST PUSH1 0x0 DUP2 CALLDATALOAD SWAP1 POP PUSH2 0x258E DUP2 PUSH2 0x2568 JUMP JUMPDEST SWAP3 SWAP2 POP POP JUMP JUMPDEST PUSH1 0x0 DUP1 PUSH1 0x0 DUP1 PUSH1 0x80 DUP6 DUP8 SUB SLT ISZERO PUSH2 0x25AE JUMPI PUSH2 0x25AD PUSH2 0x255E JUMP JUMPDEST JUMPDEST PUSH1 0x0 PUSH2 0x25BC DUP8 DUP3 DUP9 ADD PUSH2 0x257F JUMP JUMPDEST SWAP5 POP POP PUSH1 0x20 PUSH2 0x25CD DUP8 DUP3 DUP9 ADD PUSH2 0x257F JUMP JUMPDEST SWAP4 POP POP PUSH1 0x40 PUSH2 0x25DE DUP8 DUP3 DUP9 ADD PUSH2 0x257F JUMP JUMPDEST SWAP3 POP POP PUSH1 0x60 PUSH2 0x25EF DUP8 DUP3 DUP9 ADD PUSH2 0x257F JUMP JUMPDEST SWAP2 POP POP SWAP3 SWAP6 SWAP2 SWAP5 POP SWAP3 POP JUMP JUMPDEST PUSH1 0x0 DUP2 MLOAD SWAP1 POP SWAP2 SWAP1 POP JUMP JUMPDEST PUSH1 0x0 DUP3 DUP3 MSTORE PUSH1 0x20 DUP3 ADD SWAP1 POP SWAP3 SWAP2 POP POP JUMP JUMPDEST PUSH1 0x0 DUP2 SWAP1 POP PUSH1 0x20 DUP3 ADD SWAP1 POP SWAP2 SWAP1 POP JUMP JUMPDEST PUSH2 0x2630 DUP2 PUSH2 0x231A JUMP JUMPDEST DUP3 MSTORE POP POP JUMP JUMPDEST PUSH1 0x40 DUP3 ADD PUSH1 0x0 DUP3 ADD MLOAD PUSH2 0x264C PUSH1 0x0 DUP6 ADD DUP3 PUSH2 0x2627 JUMP JUMPDEST POP PUSH1 0x20 DUP3 ADD MLOAD PUSH2 0x265F PUSH1 0x20 DUP6 ADD DUP3 PUSH2 0x2627 JUMP JUMPDEST POP POP POP POP JUMP JUMPDEST PUSH1 0x40 DUP3 ADD PUSH1 0x0 DUP3 ADD MLOAD PUSH2 0x267B PUSH1 0x0 DUP6 ADD DUP3 PUSH2 0x2627 JUMP JUMPDEST POP PUSH1 0x20 DUP3 ADD MLOAD PUSH2 0x268E PUSH1 0x20 DUP6 ADD DUP3 PUSH2 0x2627 JUMP JUMPDEST POP POP POP POP JUMP JUMPDEST PUSH1 0x80 DUP3 ADD PUSH1 0x0 DUP3 ADD MLOAD PUSH2 0x26AA PUSH1 0x0 DUP6 ADD DUP3 PUSH2 0x2636 JUMP JUMPDEST POP PUSH1 0x20 DUP3 ADD MLOAD PUSH2 0x26BD PUSH1 0x40 DUP6 ADD DUP3 PUSH2 0x2665 JUMP JUMPDEST POP POP POP POP JUMP JUMPDEST PUSH1 0x0 PUSH2 0x26CF DUP4 DUP4 PUSH2 0x2694 JUMP JUMPDEST PUSH1 0x80 DUP4 ADD SWAP1 POP SWAP3 SWAP2 POP POP JUMP JUMPDEST PUSH1 0x0 PUSH1 0x20 DUP3 ADD SWAP1 POP SWAP2 SWAP1 POP JUMP JUMPDEST PUSH1 0x0 PUSH2 0x26F3 DUP3 PUSH2 0x25FB JUMP JUMPDEST PUSH2 0x26FD DUP2 DUP6 PUSH2 0x2606 JUMP JUMPDEST SWAP4 POP PUSH2 0x2708 DUP4 PUSH2 0x2617 JUMP JUMPDEST DUP1 PUSH1 0x0 JUMPDEST DUP4 DUP2 LT ISZERO PUSH2 0x2739 JUMPI DUP2 MLOAD PUSH2 0x2720 DUP9 DUP3 PUSH2 0x26C3 JUMP JUMPDEST SWAP8 POP PUSH2 0x272B DUP4 PUSH2 0x26DB JUMP JUMPDEST SWAP3 POP POP PUSH1 0x1 DUP2 ADD SWAP1 POP PUSH2 0x270C JUMP JUMPDEST POP DUP6 SWAP4 POP POP POP POP SWAP3 SWAP2 POP POP JUMP JUMPDEST PUSH1 0x0 PUSH1 0x20 DUP3 ADD SWAP1 POP DUP2 DUP2 SUB PUSH1 0x0 DUP4 ADD MSTORE PUSH2 0x2760 DUP2 DUP5 PUSH2 0x26E8 JUMP JUMPDEST SWAP1 POP SWAP3 SWAP2 POP POP JUMP JUMPDEST PUSH1 0x0 PUSH1 0x20 DUP3 DUP5 SUB SLT ISZERO PUSH2 0x277E JUMPI PUSH2 0x277D PUSH2 0x255E JUMP JUMPDEST JUMPDEST PUSH1 0x0 PUSH2 0x278C DUP5 DUP3 DUP6 ADD PUSH2 0x257F JUMP JUMPDEST SWAP2 POP POP SWAP3 SWAP2 POP POP JUMP JUMPDEST PUSH1 0x0 DUP3 DUP3 MSTORE PUSH1 0x20 DUP3 ADD SWAP1 POP SWAP3 SWAP2 POP POP JUMP JUMPDEST PUSH1 0x0 PUSH2 0x27B1 DUP3 PUSH2 0x237A JUMP JUMPDEST PUSH2 0x27BB DUP2 DUP6 PUSH2 0x2795 JUMP JUMPDEST SWAP4 POP PUSH2 0x27CB DUP2 DUP6 PUSH1 0x20 DUP7 ADD PUSH2 0x2396 JUMP JUMPDEST PUSH2 0x27D4 DUP2 PUSH2 0x23C0 JUMP JUMPDEST DUP5 ADD SWAP2 POP POP SWAP3 SWAP2 POP POP JUMP JUMPDEST PUSH1 0x0 PUSH1 0x20 DUP3 ADD SWAP1 POP DUP2 DUP2 SUB PUSH1 0x0 DUP4 ADD MSTORE PUSH2 0x27F9 DUP2 DUP5 PUSH2 0x27A6 JUMP JUMPDEST SWAP1 POP SWAP3 SWAP2 POP POP JUMP JUMPDEST PUSH1 0x0 DUP1 REVERT JUMPDEST PUSH32 0x4E487B7100000000000000000000000000000000000000000000000000000000 PUSH1 0x0 MSTORE PUSH1 0x41 PUSH1 0x4 MSTORE PUSH1 0x24 PUSH1 0x0 REVERT JUMPDEST PUSH2 0x283E DUP3 PUSH2 0x23C0 JUMP JUMPDEST DUP2 ADD DUP2 DUP2 LT PUSH8 0xFFFFFFFFFFFFFFFF DUP3 GT OR ISZERO PUSH2 0x285D JUMPI PUSH2 0x285C PUSH2 0x2806 JUMP JUMPDEST JUMPDEST DUP1 PUSH1 0x40 MSTORE POP POP POP JUMP JUMPDEST PUSH1 0x0 PUSH2 0x2870 PUSH2 0x2554 JUMP JUMPDEST SWAP1 POP PUSH2 0x287C DUP3 DUP3 PUSH2 0x2835 JUMP JUMPDEST SWAP2 SWAP1 POP JUMP JUMPDEST PUSH1 0x0 PUSH8 0xFFFFFFFFFFFFFFFF DUP3 GT ISZERO PUSH2 0x289C JUMPI PUSH2 0x289B PUSH2 0x2806 JUMP JUMPDEST JUMPDEST PUSH1 0x20 DUP3 MUL SWAP1 POP PUSH1 0x20 DUP2 ADD SWAP1 POP SWAP2 SWAP1 POP JUMP JUMPDEST PUSH1 0x0 DUP1 REVERT JUMPDEST PUSH1 0x0 DUP1 REVERT JUMPDEST PUSH1 0x0 PUSH1 0x40 DUP3 DUP5 SUB SLT ISZERO PUSH2 0x28CD JUMPI PUSH2 0x28CC PUSH2 0x28B2 JUMP JUMPDEST JUMPDEST PUSH2 0x28D7 PUSH1 0x40 PUSH2 0x2866 JUMP JUMPDEST SWAP1 POP PUSH1 0x0 PUSH2 0x28E7 DUP5 DUP3 DUP6 ADD PUSH2 0x257F JUMP JUMPDEST PUSH1 0x0 DUP4 ADD MSTORE POP PUSH1 0x20 PUSH2 0x28FB DUP5 DUP3 DUP6 ADD PUSH2 0x257F JUMP JUMPDEST PUSH1 0x20 DUP4 ADD MSTORE POP SWAP3 SWAP2 POP POP JUMP JUMPDEST PUSH1 0x0 PUSH2 0x291A PUSH2 0x2915 DUP5 PUSH2 0x2881 JUMP JUMPDEST PUSH2 0x2866 JUMP JUMPDEST SWAP1 POP DUP1 DUP4 DUP3 MSTORE PUSH1 0x20 DUP3 ADD SWAP1 POP PUSH1 0x40 DUP5 MUL DUP4 ADD DUP6 DUP2 GT ISZERO PUSH2 0x293D JUMPI PUSH2 0x293C PUSH2 0x28AD JUMP JUMPDEST JUMPDEST DUP4 JUMPDEST DUP2 DUP2 LT ISZERO PUSH2 0x2966 JUMPI DUP1 PUSH2 0x2952 DUP9 DUP3 PUSH2 0x28B7 JUMP JUMPDEST DUP5 MSTORE PUSH1 0x20 DUP5 ADD SWAP4 POP POP PUSH1 0x40 DUP2 ADD SWAP1 POP PUSH2 0x293F JUMP JUMPDEST POP POP POP SWAP4 SWAP3 POP POP POP JUMP JUMPDEST PUSH1 0x0 DUP3 PUSH1 0x1F DUP4 ADD SLT PUSH2 0x2985 JUMPI PUSH2 0x2984 PUSH2 0x2801 JUMP JUMPDEST JUMPDEST DUP2 CALLDATALOAD PUSH2 0x2995 DUP5 DUP3 PUSH1 0x20 DUP7 ADD PUSH2 0x2907 JUMP JUMPDEST SWAP2 POP POP SWAP3 SWAP2 POP POP JUMP JUMPDEST PUSH1 0x0 PUSH1 0x20 DUP3 DUP5 SUB SLT ISZERO PUSH2 0x29B4 JUMPI PUSH2 0x29B3 PUSH2 0x255E JUMP JUMPDEST JUMPDEST PUSH1 0x0 DUP3 ADD CALLDATALOAD PUSH8 0xFFFFFFFFFFFFFFFF DUP2 GT ISZERO PUSH2 0x29D2 JUMPI PUSH2 0x29D1 PUSH2 0x2563 JUMP JUMPDEST JUMPDEST PUSH2 0x29DE DUP5 DUP3 DUP6 ADD PUSH2 0x2970 JUMP JUMPDEST SWAP2 POP POP SWAP3 SWAP2 POP POP JUMP JUMPDEST PUSH1 0x40 DUP3 ADD PUSH1 0x0 DUP3 ADD MLOAD PUSH2 0x29FD PUSH1 0x0 DUP6 ADD DUP3 PUSH2 0x2627 JUMP JUMPDEST POP PUSH1 0x20 DUP3 ADD MLOAD PUSH2 0x2A10 PUSH1 0x20 DUP6 ADD DUP3 PUSH2 0x2627 JUMP JUMPDEST POP POP POP POP JUMP JUMPDEST PUSH1 0x40 DUP3 ADD PUSH1 0x0 DUP3 ADD MLOAD PUSH2 0x2A2C PUSH1 0x0 DUP6 ADD DUP3 PUSH2 0x2627 JUMP JUMPDEST POP PUSH1 0x20 DUP3 ADD MLOAD PUSH2 0x2A3F PUSH1 0x20 DUP6 ADD DUP3 PUSH2 0x2627 JUMP JUMPDEST POP POP POP POP JUMP JUMPDEST PUSH1 0x0 PUSH1 0x80 DUP3 ADD SWAP1 POP PUSH2 0x2A5A PUSH1 0x0 DUP4 ADD DUP6 PUSH2 0x29E7 JUMP JUMPDEST PUSH2 0x2A67 PUSH1 0x40 DUP4 ADD DUP5 PUSH2 0x2A16 JUMP JUMPDEST SWAP4 SWAP3 POP POP POP JUMP JUMPDEST PUSH1 0xC0 DUP3 ADD PUSH1 0x0 DUP3 ADD MLOAD PUSH2 0x2A84 PUSH1 0x0 DUP6 ADD DUP3 PUSH2 0x2627 JUMP JUMPDEST POP PUSH1 0x20 DUP3 ADD MLOAD PUSH2 0x2A97 PUSH1 0x20 DUP6 ADD DUP3 PUSH2 0x2627 JUMP JUMPDEST POP PUSH1 0x40 DUP3 ADD MLOAD PUSH2 0x2AAA PUSH1 0x40 DUP6 ADD DUP3 PUSH2 0x2627 JUMP JUMPDEST POP PUSH1 0x60 DUP3 ADD MLOAD PUSH2 0x2ABD PUSH1 0x60 DUP6 ADD DUP3 PUSH2 0x2627 JUMP JUMPDEST POP PUSH1 0x80 DUP3 ADD MLOAD PUSH2 0x2AD0 PUSH1 0x80 DUP6 ADD DUP3 PUSH2 0x2627 JUMP JUMPDEST POP PUSH1 0xA0 DUP3 ADD MLOAD PUSH2 0x2AE3 PUSH1 0xA0 DUP6 ADD DUP3 PUSH2 0x2627 JUMP JUMPDEST POP POP POP POP JUMP JUMPDEST PUSH1 0x0 PUSH1 0xC0 DUP3 ADD SWAP1 POP PUSH2 0x2AFE PUSH1 0x0 DUP4 ADD DUP5 PUSH2 0x2A6E JUMP JUMPDEST SWAP3 SWAP2 POP POP JUMP JUMPDEST PUSH1 0x0 DUP1 PUSH1 0x40 DUP4 DUP6 SUB SLT ISZERO PUSH2 0x2B1B JUMPI PUSH2 0x2B1A PUSH2 0x255E JUMP JUMPDEST JUMPDEST PUSH1 0x0 PUSH2 0x2B29 DUP6 DUP3 DUP7 ADD PUSH2 0x257F JUMP JUMPDEST SWAP3 POP POP PUSH1 0x20 PUSH2 0x2B3A DUP6 DUP3 DUP7 ADD PUSH2 0x257F JUMP JUMPDEST SWAP2 POP POP SWAP3 POP SWAP3 SWAP1 POP JUMP JUMPDEST PUSH1 0x0 PUSH1 0x40 DUP3 ADD SWAP1 POP PUSH2 0x2B59 PUSH1 0x0 DUP4 ADD DUP5 PUSH2 0x29E7 JUMP JUMPDEST SWAP3 SWAP2 POP POP JUMP JUMPDEST PUSH32 0x4E487B7100000000000000000000000000000000000000000000000000000000 PUSH1 0x0 MSTORE PUSH1 0x22 PUSH1 0x4 MSTORE PUSH1 0x24 PUSH1 0x0 REVERT JUMPDEST PUSH1 0x0 PUSH1 0x2 DUP3 DIV SWAP1 POP PUSH1 0x1 DUP3 AND DUP1 PUSH2 0x2BA6 JUMPI PUSH1 0x7F DUP3 AND SWAP2 POP JUMPDEST PUSH1 0x20 DUP3 LT DUP2 SUB PUSH2 0x2BB9 JUMPI PUSH2 0x2BB8 PUSH2 0x2B5F JUMP JUMPDEST JUMPDEST POP SWAP2 SWAP1 POP JUMP JUMPDEST PUSH32 0x456C656374696F6E206973206E6F7420696E2073657475702070686173650000 PUSH1 0x0 DUP3 ADD MSTORE POP JUMP JUMPDEST PUSH1 0x0 PUSH2 0x2BF5 PUSH1 0x1E DUP4 PUSH2 0x2795 JUMP JUMPDEST SWAP2 POP PUSH2 0x2C00 DUP3 PUSH2 0x2BBF JUMP JUMPDEST PUSH1 0x20 DUP3 ADD SWAP1 POP SWAP2 SWAP1 POP JUMP JUMPDEST PUSH1 0x0 PUSH1 0x20 DUP3 ADD SWAP1 POP DUP2 DUP2 SUB PUSH1 0x0 DUP4 ADD MSTORE PUSH2 0x2C24 DUP2 PUSH2 0x2BE8 JUMP JUMPDEST SWAP1 POP SWAP2 SWAP1 POP JUMP JUMPDEST PUSH32 0x496E76616C6964206B65792070726F6F66000000000000000000000000000000 PUSH1 0x0 DUP3 ADD MSTORE POP JUMP JUMPDEST PUSH1 0x0 PUSH2 0x2C61 PUSH1 0x11 DUP4 PUSH2 0x2795 JUMP JUMPDEST SWAP2 POP PUSH2 0x2C6C DUP3 PUSH2 0x2C2B JUMP JUMPDEST PUSH1 0x20 DUP3 ADD SWAP1 POP SWAP2 SWAP1 POP JUMP JUMPDEST PUSH1 0x0 PUSH1 0x20 DUP3 ADD SWAP1 POP DUP2 DUP2 SUB PUSH1 0x0 DUP4 ADD MSTORE PUSH2 0x2C90 DUP2 PUSH2 0x2C54 JUMP JUMPDEST SWAP1 POP SWAP2 SWAP1 POP JUMP JUMPDEST PUSH32 0x4E487B7100000000000000000000000000000000000000000000000000000000 PUSH1 0x0 MSTORE PUSH1 0x32 PUSH1 0x4 MSTORE PUSH1 0x24 PUSH1 0x0 REVERT JUMPDEST PUSH32 0x417574686F7269747920616C7265616479207265676973746572656400000000 PUSH1 0x0 DUP3 ADD MSTORE POP JUMP JUMPDEST PUSH1 0x0 PUSH2 0x2CFC PUSH1 0x1C DUP4 PUSH2 0x2795 JUMP JUMPDEST SWAP2 POP PUSH2 0x2D07 DUP3 PUSH2 0x2CC6 JUMP JUMPDEST PUSH1 0x20 DUP3 ADD SWAP1 POP SWAP2 SWAP1 POP JUMP JUMPDEST PUSH1 0x0 PUSH1 0x20 DUP3 ADD SWAP1 POP DUP2 DUP2 SUB PUSH1 0x0 DUP4 ADD MSTORE PUSH2 0x2D2B DUP2 PUSH2 0x2CEF JUMP JUMPDEST SWAP1 POP SWAP2 SWAP1 POP JUMP JUMPDEST PUSH32 0x50726F6F6620616C726561647920726567697374657265640000000000000000 PUSH1 0x0 DUP3 ADD MSTORE POP JUMP JUMPDEST PUSH1 0x0 PUSH2 0x2D68 PUSH1 0x18 DUP4 PUSH2 0x2795 JUMP JUMPDEST SWAP2 POP PUSH2 0x2D73 DUP3 PUSH2 0x2D32 JUMP JUMPDEST PUSH1 0x20 DUP3 ADD SWAP1 POP SWAP2 SWAP1 POP JUMP JUMPDEST PUSH1 0x0 PUSH1 0x20 DUP3 ADD SWAP1 POP DUP2 DUP2 SUB PUSH1 0x0 DUP4 ADD MSTORE PUSH2 0x2D97 DUP2 PUSH2 0x2D5B JUMP JUMPDEST SWAP1 POP SWAP2 SWAP1 POP JUMP JUMPDEST PUSH32 0x4E6F20706F696E74732070726F76696465640000000000000000000000000000 PUSH1 0x0 DUP3 ADD MSTORE POP JUMP JUMPDEST PUSH1 0x0 PUSH2 0x2DD4 PUSH1 0x12 DUP4 PUSH2 0x2795 JUMP JUMPDEST SWAP2 POP PUSH2 0x2DDF DUP3 PUSH2 0x2D9E JUMP JUMPDEST PUSH1 0x20 DUP3 ADD SWAP1 POP SWAP2 SWAP1 POP JUMP JUMPDEST PUSH1 0x0 PUSH1 0x20 DUP3 ADD SWAP1 POP DUP2 DUP2 SUB PUSH1 0x0 DUP4 ADD MSTORE PUSH2 0x2E03 DUP2 PUSH2 0x2DC7 JUMP JUMPDEST SWAP1 POP SWAP2 SWAP1 POP JUMP JUMPDEST PUSH1 0x0 DUP2 SWAP1 POP SWAP3 SWAP2 POP POP JUMP JUMPDEST PUSH1 0x0 PUSH2 0x2E20 DUP3 PUSH2 0x237A JUMP JUMPDEST PUSH2 0x2E2A DUP2 DUP6 PUSH2 0x2E0A JUMP JUMPDEST SWAP4 POP PUSH2 0x2E3A DUP2 DUP6 PUSH1 0x20 DUP7 ADD PUSH2 0x2396 JUMP JUMPDEST DUP1 DUP5 ADD SWAP2 POP POP SWAP3 SWAP2 POP POP JUMP JUMPDEST PUSH32 0x2C00000000000000000000000000000000000000000000000000000000000000 PUSH1 0x0 DUP3 ADD MSTORE POP JUMP JUMPDEST PUSH1 0x0 PUSH2 0x2E7C PUSH1 0x1 DUP4 PUSH2 0x2E0A JUMP JUMPDEST SWAP2 POP PUSH2 0x2E87 DUP3 PUSH2 0x2E46 JUMP JUMPDEST PUSH1 0x1 DUP3 ADD SWAP1 POP SWAP2 SWAP1 POP JUMP JUMPDEST PUSH1 0x0 PUSH2 0x2E9E DUP3 DUP6 PUSH2 0x2E15 JUMP JUMPDEST SWAP2 POP PUSH2 0x2EA9 DUP3 PUSH2 0x2E6F JUMP JUMPDEST SWAP2 POP PUSH2 0x2EB5 DUP3 DUP5 PUSH2 0x2E15 JUMP JUMPDEST SWAP2 POP DUP2 SWAP1 POP SWAP4 SWAP3 POP POP POP JUMP JUMPDEST PUSH1 0x0 DUP2 MLOAD SWAP1 POP SWAP2 SWAP1 POP JUMP JUMPDEST PUSH1 0x0 DUP2 SWAP1 POP SWAP3 SWAP2 POP POP JUMP JUMPDEST PUSH1 0x0 PUSH2 0x2EE2 DUP3 PUSH2 0x2EC1 JUMP JUMPDEST PUSH2 0x2EEC DUP2 DUP6 PUSH2 0x2ECC JUMP JUMPDEST SWAP4 POP PUSH2 0x2EFC DUP2 DUP6 PUSH1 0x20 DUP7 ADD PUSH2 0x2396 JUMP JUMPDEST DUP1 DUP5 ADD SWAP2 POP POP SWAP3 SWAP2 POP POP JUMP JUMPDEST PUSH1 0x0 PUSH2 0x2F14 DUP3 DUP5 PUSH2 0x2ED7 JUMP JUMPDEST SWAP2 POP DUP2 SWAP1 POP SWAP3 SWAP2 POP POP JUMP JUMPDEST PUSH1 0x0 DUP2 SWAP1 POP SWAP2 SWAP1 POP JUMP JUMPDEST PUSH2 0x2F32 DUP2 PUSH2 0x2F1F JUMP JUMPDEST DUP2 EQ PUSH2 0x2F3D JUMPI PUSH1 0x0 DUP1 REVERT JUMPDEST POP JUMP JUMPDEST PUSH1 0x0 DUP2 MLOAD SWAP1 POP PUSH2 0x2F4F DUP2 PUSH2 0x2F29 JUMP JUMPDEST SWAP3 SWAP2 POP POP JUMP JUMPDEST PUSH1 0x0 PUSH1 0x20 DUP3 DUP5 SUB SLT ISZERO PUSH2 0x2F6B JUMPI PUSH2 0x2F6A PUSH2 0x255E JUMP JUMPDEST JUMPDEST PUSH1 0x0 PUSH2 0x2F79 DUP5 DUP3 DUP6 ADD PUSH2 0x2F40 JUMP JUMPDEST SWAP2 POP POP SWAP3 SWAP2 POP POP JUMP JUMPDEST PUSH32 0x4E487B7100000000000000000000000000000000000000000000000000000000 PUSH1 0x0 MSTORE PUSH1 0x12 PUSH1 0x4 MSTORE PUSH1 0x24 PUSH1 0x0 REVERT JUMPDEST PUSH32 0x4E487B7100000000000000000000000000000000000000000000000000000000 PUSH1 0x0 MSTORE PUSH1 0x11 PUSH1 0x4 MSTORE PUSH1 0x24 PUSH1 0x0 REVERT JUMPDEST PUSH1 0x0 PUSH2 0x2FEB DUP3 PUSH2 0x231A JUMP JUMPDEST SWAP2 POP PUSH2 0x2FF6 DUP4 PUSH2 0x231A JUMP JUMPDEST SWAP3 POP DUP3 DUP3 SUB SWAP1 POP DUP2 DUP2 GT ISZERO PUSH2 0x300E JUMPI PUSH2 0x300D PUSH2 0x2FB1 JUMP JUMPDEST JUMPDEST SWAP3 SWAP2 POP POP JUMP JUMPDEST PUSH32 0x557365206A6163446F75626C652066756E6374696F6E20696E73746561640000 PUSH1 0x0 DUP3 ADD MSTORE POP JUMP JUMPDEST PUSH1 0x0 PUSH2 0x304A PUSH1 0x1E DUP4 PUSH2 0x2795 JUMP JUMPDEST SWAP2 POP PUSH2 0x3055 DUP3 PUSH2 0x3014 JUMP JUMPDEST PUSH1 0x20 DUP3 ADD SWAP1 POP SWAP2 SWAP1 POP JUMP JUMPDEST PUSH1 0x0 PUSH1 0x20 DUP3 ADD SWAP1 POP DUP2 DUP2 SUB PUSH1 0x0 DUP4 ADD MSTORE PUSH2 0x3079 DUP2 PUSH2 0x303D JUMP JUMPDEST SWAP1 POP SWAP2 SWAP1 POP JUMP JUMPDEST PUSH1 0x0 PUSH2 0x308B DUP3 PUSH2 0x231A JUMP JUMPDEST SWAP2 POP PUSH2 0x3096 DUP4 PUSH2 0x231A JUMP JUMPDEST SWAP3 POP DUP3 PUSH2 0x30A6 JUMPI PUSH2 0x30A5 PUSH2 0x2F82 JUMP JUMPDEST JUMPDEST DUP3 DUP3 DIV SWAP1 POP SWAP3 SWAP2 POP POP JUMP JUMPDEST PUSH1 0x0 PUSH2 0x30BC DUP3 PUSH2 0x231A JUMP JUMPDEST SWAP2 POP PUSH2 0x30C7 DUP4 PUSH2 0x231A JUMP JUMPDEST SWAP3 POP DUP3 PUSH2 0x30D7 JUMPI PUSH2 0x30D6 PUSH2 0x2F82 JUMP JUMPDEST JUMPDEST DUP3 DUP3 MOD SWAP1 POP SWAP3 SWAP2 POP POP JUMP JUMPDEST PUSH32 0x496E76616C6964206E756D626572000000000000000000000000000000000000 PUSH1 0x0 DUP3 ADD MSTORE POP JUMP JUMPDEST PUSH1 0x0 PUSH2 0x3118 PUSH1 0xE DUP4 PUSH2 0x2795 JUMP JUMPDEST SWAP2 POP PUSH2 0x3123 DUP3 PUSH2 0x30E2 JUMP JUMPDEST PUSH1 0x20 DUP3 ADD SWAP1 POP SWAP2 SWAP1 POP JUMP JUMPDEST PUSH1 0x0 PUSH1 0x20 DUP3 ADD SWAP1 POP DUP2 DUP2 SUB PUSH1 0x0 DUP4 ADD MSTORE PUSH2 0x3147 DUP2 PUSH2 0x310B JUMP JUMPDEST SWAP1 POP SWAP2 SWAP1 POP JUMP JUMPDEST PUSH1 0x0 PUSH2 0x3159 DUP3 PUSH2 0x231A JUMP JUMPDEST SWAP2 POP PUSH2 0x3164 DUP4 PUSH2 0x231A JUMP JUMPDEST SWAP3 POP DUP3 DUP3 MUL PUSH2 0x3172 DUP2 PUSH2 0x231A JUMP JUMPDEST SWAP2 POP DUP3 DUP3 DIV DUP5 EQ DUP4 ISZERO OR PUSH2 0x3189 JUMPI PUSH2 0x3188 PUSH2 0x2FB1 JUMP JUMPDEST JUMPDEST POP SWAP3 SWAP2 POP POP JUMP INVALID LOG2 PUSH5 0x6970667358 0x22 SLT KECCAK256 0x2A PUSH22 0xB6BA0104B0DEA899347267D72E9D2EE210B22D13616 SWAP6 TIMESTAMP 0xAE AND PUSH26 0xE90E8D64736F6C634300081C0033000000000000000000000000 "},"methodIdentifiers":{"A()":"f446c1d0","B()":"32e7c5bf","GX()":"03a507be","GY()":"7a308a4c","N()":"c9e525df","P()":"8b8fbd92","authorities(uint256)":"494503d4","candidates(uint256)":"3477ee2e","electionPublicKey()":"0dd3849c","getAuthorityList()":"27b383b1","getCandidates()":"06a49fce","getECCParams()":"6b7a524f","hashMultiplePointsToScalar((uint256,uint256)[])":"477decc0","newEcPoint(uint256,uint256)":"b3bf5495","registerAuthority(uint256,uint256,uint256,uint256)":"24128a30","status()":"200d2ed2"}}}}}