{"contracts/Ecc.sol":{"Ecc":{"abi":[{"inputs":[],"name":"A","outputs":[{"internalType":"uint256","name":"","type":"uint256"}],"stateMutability":"view","type":"function"},{"inputs":[],"name":"B","outputs":[{"internalType":"uint256","name":"","type":"uint256"}],"stateMutability":"view","type":"function"},{"inputs":[],"name":"GX","outputs":[{"internalType":"uint256","name":"","type":"uint256"}],"stateMutability":"view","type":"function"},{"inputs":[],"name":"GY","outputs":[{"internalType":"uint256","name":"","type":"uint256"}],"stateMutability":"view","type":"function"},{"inputs":[],"name":"N","outputs":[{"internalType":"uint256","name":"","type":"uint256"}],"stateMutability":"view","type":"function"},{"inputs":[],"name":"P","outputs":[{"internalType":"uint256","name":"","type":"uint256"}],"stateMutability":"view","type":"function"},{"inputs":[],"name":"getECCParams","outputs":[{"components":[{"internalType":"uint256","name":"gx","type":"uint256"},{"internalType":"uint256","name":"gy","type":"uint256"},{"internalType":"uint256","name":"a","type":"uint256"},{"internalType":"uint256","name":"b","type":"uint256"},{"internalType":"uint256","name":"p","type":"uint256"},{"internalType":"uint256","name":"n","type":"uint256"}],"internalType":"struct Ecc.EccParams","name":"","type":"tuple"}],"stateMutability":"pure","type":"function"},{"inputs":[{"components":[{"internalType":"uint256","name":"x","type":"uint256"},{"internalType":"uint256","name":"y","type":"uint256"}],"internalType":"struct Ecc.EcPoint[]","name":"points","type":"tuple[]"}],"name":"hashMultiplePointsToScalar","outputs":[{"internalType":"uint256","name":"","type":"uint256"}],"stateMutability":"pure","type":"function"},{"inputs":[{"internalType":"uint256","name":"x","type":"uint256"},{"internalType":"uint256","name":"y","type":"uint256"}],"name":"newEcPoint","outputs":[{"components":[{"internalType":"uint256","name":"x","type":"uint256"},{"internalType":"uint256","name":"y","type":"uint256"}],"internalType":"struct Ecc.EcPoint","name":"","type":"tuple"}],"stateMutability":"pure","type":"function"}],"evm":{"bytecode":{"linkReferences":{},"object":"6080604052348015600f57600080fd5b506121728061001f6000396000f3fe608060405234801561001057600080fd5b50600436106100935760003560e01c80637a308a4c116100665780637a308a4c146101225780638b8fbd9214610140578063b3bf54951461015e578063c9e525df1461018e578063f446c1d0146101ac57610093565b806303a507be1461009857806332e7c5bf146100b6578063477decc0146100d45780636b7a524f14610104575b600080fd5b6100a06101ca565b6040516100ad9190611985565b60405180910390f35b6100be6101ee565b6040516100cb9190611985565b60405180910390f35b6100ee60048036038101906100e99190611b8e565b6101f3565b6040516100fb9190611985565b60405180910390f35b61010c610330565b6040516101199190611c61565b60405180910390f35b61012a6103ec565b6040516101379190611985565b60405180910390f35b610148610410565b6040516101559190611985565b60405180910390f35b61017860048036038101906101739190611c7c565b610434565b6040516101859190611ceb565b60405180910390f35b610196610459565b6040516101a39190611985565b60405180910390f35b6101b461047d565b6040516101c19190611985565b60405180910390f35b7f79be667ef9dcbbac55a06295ce870b07029bfcdb2dce28d959f2815b16f8179881565b600781565b600080825111610238576040517f08c379a000000000000000000000000000000000000000000000000000000000815260040161022f90611d63565b60405180910390fd5b60008260008151811061024e5761024d611d83565b5b602002602001015190506000600190505b835181101561029b5761028c8285838151811061027f5761027e611d83565b5b6020026020010151610482565b9150808060010191505061025f565b5060026102ab8260000151610569565b6102b88360200151610569565b6040516020016102c9929190611e6f565b6040516020818303038152906040526040516102e59190611ee5565b602060405180830381855afa158015610302573d6000803e3d6000fd5b5050506040513d601f19601f820116820180604052508101906103259190611f32565b60001c915050919050565b6103386118fa565b6040518060c001604052807f79be667ef9dcbbac55a06295ce870b07029bfcdb2dce28d959f2815b16f8179881526020017f483ada7726a3c4655da4fbfc0e1108a8fd17b448a68554199c47d08ffb10d4b8815260200160008152602001600781526020017ffffffffffffffffffffffffffffffffffffffffffffffffffffffffefffffc2f81526020017ffffffffffffffffffffffffffffffffebaaedce6af48a03bbfd25e8cd0364141815250905090565b7f483ada7726a3c4655da4fbfc0e1108a8fd17b448a68554199c47d08ffb10d4b881565b7ffffffffffffffffffffffffffffffffffffffffffffffffffffffffefffffc2f81565b61043c611930565b604051806040016040528084815260200183815250905092915050565b7ffffffffffffffffffffffffffffffffebaaedce6af48a03bbfd25e8cd036414181565b600081565b61048a611930565b600080600084600001518660000151036105255760007ffffffffffffffffffffffffffffffffffffffffffffffffffffffffefffffc2f806104cf576104ce611f5f565b5b8660200151886020015108036105005760405180604001604052806000815260200160008152509350505050610563565b610514866000015187602001516001610637565b809350819450829550505050610552565b610545866000015187602001516001886000015189602001516001610ab4565b8093508194508295505050505b61055d8383836114f2565b93505050505b92915050565b606060006001610578846115fc565b01905060008167ffffffffffffffff811115610597576105966119ca565b5b6040519080825280601f01601f1916602001820160405280156105c95781602001600182028036833780820191505090505b509050600082602001820190505b60011561062c578080600190039150507f3031323334353637383961626364656600000000000000000000000000000000600a86061a8153600a85816106205761061f611f5f565b5b049450600085036105d7575b819350505050919050565b600080600080840361065157858585925092509250610aab565b60007ffffffffffffffffffffffffffffffffffffffffffffffffffffffffefffffc2f8061068257610681611f5f565b5b878809905060007ffffffffffffffffffffffffffffffffffffffffffffffffffffffffefffffc2f806106b8576106b7611f5f565b5b878809905060007ffffffffffffffffffffffffffffffffffffffffffffffffffffffffefffffc2f806106ee576106ed611f5f565b5b878809905060007ffffffffffffffffffffffffffffffffffffffffffffffffffffffffefffffc2f8061072457610723611f5f565b5b7ffffffffffffffffffffffffffffffffffffffffffffffffffffffffefffffc2f8061075357610752611f5f565b5b848c09600409905060007ffffffffffffffffffffffffffffffffffffffffffffffffffffffffefffffc2f8061078c5761078b611f5f565b5b7ffffffffffffffffffffffffffffffffffffffffffffffffffffffffefffffc2f806107bb576107ba611f5f565b5b7ffffffffffffffffffffffffffffffffffffffffffffffffffffffffefffffc2f806107ea576107e9611f5f565b5b8586096000097ffffffffffffffffffffffffffffffffffffffffffffffffffffffffefffffc2f8061081f5761081e611f5f565b5b876003090890507ffffffffffffffffffffffffffffffffffffffffffffffffffffffffefffffc2f8061085557610854611f5f565b5b7ffffffffffffffffffffffffffffffffffffffffffffffffffffffffefffffc2f8061088457610883611f5f565b5b8384087ffffffffffffffffffffffffffffffffffffffffffffffffffffffffefffffc2f6108b29190611fbd565b7ffffffffffffffffffffffffffffffffffffffffffffffffffffffffefffffc2f806108e1576108e0611f5f565b5b8384090894507ffffffffffffffffffffffffffffffffffffffffffffffffffffffffefffffc2f8061091657610915611f5f565b5b7ffffffffffffffffffffffffffffffffffffffffffffffffffffffffefffffc2f8061094557610944611f5f565b5b7ffffffffffffffffffffffffffffffffffffffffffffffffffffffffefffffc2f8061097457610973611f5f565b5b8687096008097ffffffffffffffffffffffffffffffffffffffffffffffffffffffffefffffc2f6109a59190611fbd565b7ffffffffffffffffffffffffffffffffffffffffffffffffffffffffefffffc2f806109d4576109d3611f5f565b5b7ffffffffffffffffffffffffffffffffffffffffffffffffffffffffefffffc2f80610a0357610a02611f5f565b5b887ffffffffffffffffffffffffffffffffffffffffffffffffffffffffefffffc2f610a2f9190611fbd565b860884090893507ffffffffffffffffffffffffffffffffffffffffffffffffffffffffefffffc2f80610a6557610a64611f5f565b5b7ffffffffffffffffffffffffffffffffffffffffffffffffffffffffefffffc2f80610a9457610a93611f5f565b5b8a8c09600209925084848497509750975050505050505b93509350939050565b60008060008089148015610ac85750600088145b15610adb578585859250925092506114e6565b600086148015610aeb5750600085145b15610afe578888889250925092506114e6565b610b0661194a565b7ffffffffffffffffffffffffffffffffffffffffffffffffffffffffefffffc2f80610b3557610b34611f5f565b5b88890981600060048110610b4c57610b4b611d83565b5b6020020181815250507ffffffffffffffffffffffffffffffffffffffffffffffffffffffffefffffc2f80610b8457610b83611f5f565b5b81600060048110610b9857610b97611d83565b5b6020020151890981600160048110610bb357610bb2611d83565b5b6020020181815250507ffffffffffffffffffffffffffffffffffffffffffffffffffffffffefffffc2f80610beb57610bea611f5f565b5b85860981600260048110610c0257610c01611d83565b5b6020020181815250507ffffffffffffffffffffffffffffffffffffffffffffffffffffffffefffffc2f80610c3a57610c39611f5f565b5b81600260048110610c4e57610c4d611d83565b5b6020020151860981600360048110610c6957610c68611d83565b5b60200201818152505060405180608001604052807ffffffffffffffffffffffffffffffffffffffffffffffffffffffffefffffc2f80610cac57610cab611f5f565b5b83600260048110610cc057610cbf611d83565b5b60200201518d0981526020017ffffffffffffffffffffffffffffffffffffffffffffffffffffffffefffffc2f80610cfb57610cfa611f5f565b5b83600360048110610d0f57610d0e611d83565b5b60200201518c0981526020017ffffffffffffffffffffffffffffffffffffffffffffffffffffffffefffffc2f80610d4a57610d49611f5f565b5b83600060048110610d5e57610d5d611d83565b5b60200201518a0981526020017ffffffffffffffffffffffffffffffffffffffffffffffffffffffffefffffc2f80610d9957610d98611f5f565b5b83600160048110610dad57610dac611d83565b5b60200201518909815250905080600260048110610dcd57610dcc611d83565b5b602002015181600060048110610de657610de5611d83565b5b6020020151141580610e28575080600360048110610e0757610e06611d83565b5b602002015181600160048110610e2057610e1f611d83565b5b602002015114155b610e67576040517f08c379a0000000000000000000000000000000000000000000000000000000008152600401610e5e9061203d565b60405180910390fd5b610e6f61194a565b7ffffffffffffffffffffffffffffffffffffffffffffffffffffffffefffffc2f80610e9e57610e9d611f5f565b5b82600060048110610eb257610eb1611d83565b5b60200201517ffffffffffffffffffffffffffffffffffffffffffffffffffffffffefffffc2f610ee29190611fbd565b83600260048110610ef657610ef5611d83565b5b60200201510881600060048110610f1057610f0f611d83565b5b6020020181815250507ffffffffffffffffffffffffffffffffffffffffffffffffffffffffefffffc2f80610f4857610f47611f5f565b5b82600160048110610f5c57610f5b611d83565b5b60200201517ffffffffffffffffffffffffffffffffffffffffffffffffffffffffefffffc2f610f8c9190611fbd565b83600360048110610fa057610f9f611d83565b5b60200201510881600160048110610fba57610fb9611d83565b5b6020020181815250507ffffffffffffffffffffffffffffffffffffffffffffffffffffffffefffffc2f80610ff257610ff1611f5f565b5b8160006004811061100657611005611d83565b5b60200201518260006004811061101f5761101e611d83565b5b6020020151098160026004811061103957611038611d83565b5b6020020181815250507ffffffffffffffffffffffffffffffffffffffffffffffffffffffffefffffc2f8061107157611070611f5f565b5b8160006004811061108557611084611d83565b5b60200201518260026004811061109e5761109d611d83565b5b602002015109816003600481106110b8576110b7611d83565b5b60200201818152505060007ffffffffffffffffffffffffffffffffffffffffffffffffffffffffefffffc2f806110f2576110f1611f5f565b5b8260036004811061110657611105611d83565b5b60200201517ffffffffffffffffffffffffffffffffffffffffffffffffffffffffefffffc2f6111369190611fbd565b7ffffffffffffffffffffffffffffffffffffffffffffffffffffffffefffffc2f8061116557611164611f5f565b5b8460016004811061117957611178611d83565b5b60200201518560016004811061119257611191611d83565b5b6020020151090890507ffffffffffffffffffffffffffffffffffffffffffffffffffffffffefffffc2f806111ca576111c9611f5f565b5b7ffffffffffffffffffffffffffffffffffffffffffffffffffffffffefffffc2f806111f9576111f8611f5f565b5b7ffffffffffffffffffffffffffffffffffffffffffffffffffffffffefffffc2f8061122857611227611f5f565b5b8460026004811061123c5761123b611d83565b5b60200201518660006004811061125557611254611d83565b5b6020020151096002097ffffffffffffffffffffffffffffffffffffffffffffffffffffffffefffffc2f6112899190611fbd565b8208905060007ffffffffffffffffffffffffffffffffffffffffffffffffffffffffefffffc2f806112be576112bd611f5f565b5b7ffffffffffffffffffffffffffffffffffffffffffffffffffffffffefffffc2f806112ed576112ec611f5f565b5b837ffffffffffffffffffffffffffffffffffffffffffffffffffffffffefffffc2f6113199190611fbd565b7ffffffffffffffffffffffffffffffffffffffffffffffffffffffffefffffc2f8061134857611347611f5f565b5b8660026004811061135c5761135b611d83565b5b60200201518860006004811061137557611374611d83565b5b60200201510908846001600481106113905761138f611d83565b5b60200201510990507ffffffffffffffffffffffffffffffffffffffffffffffffffffffffefffffc2f806113c7576113c6611f5f565b5b7ffffffffffffffffffffffffffffffffffffffffffffffffffffffffefffffc2f806113f6576113f5611f5f565b5b8460036004811061140a57611409611d83565b5b60200201518660016004811061142357611422611d83565b5b6020020151097ffffffffffffffffffffffffffffffffffffffffffffffffffffffffefffffc2f6114549190611fbd565b8208905060007ffffffffffffffffffffffffffffffffffffffffffffffffffffffffefffffc2f8061148957611488611f5f565b5b7ffffffffffffffffffffffffffffffffffffffffffffffffffffffffefffffc2f806114b8576114b7611f5f565b5b8a8e09856000600481106114cf576114ce611d83565b5b602002015109905082828297509750975050505050505b96509650969350505050565b6114fa611930565b60006115058361174f565b905060007ffffffffffffffffffffffffffffffffffffffffffffffffffffffffefffffc2f8061153857611537611f5f565b5b828309905060007ffffffffffffffffffffffffffffffffffffffffffffffffffffffffefffffc2f8061156e5761156d611f5f565b5b828809905060007ffffffffffffffffffffffffffffffffffffffffffffffffffffffffefffffc2f806115a4576115a3611f5f565b5b7ffffffffffffffffffffffffffffffffffffffffffffffffffffffffefffffc2f806115d3576115d2611f5f565b5b848609880990506040518060400160405280838152602001828152509450505050509392505050565b600080600090507a184f03e93ff9f4daa797ed6e38ed64bf6a1f010000000000000000831061165a577a184f03e93ff9f4daa797ed6e38ed64bf6a1f01000000000000000083816116505761164f611f5f565b5b0492506040810190505b6d04ee2d6d415b85acef81000000008310611697576d04ee2d6d415b85acef8100000000838161168d5761168c611f5f565b5b0492506020810190505b662386f26fc1000083106116c657662386f26fc1000083816116bc576116bb611f5f565b5b0492506010810190505b6305f5e10083106116ef576305f5e10083816116e5576116e4611f5f565b5b0492506008810190505b612710831061171457612710838161170a57611709611f5f565b5b0492506004810190505b60648310611737576064838161172d5761172c611f5f565b5b0492506002810190505b600a8310611746576001810190505b80915050919050565b600080821415801561178157507ffffffffffffffffffffffffffffffffffffffffffffffffffffffffefffffc2f8214155b80156117ae575060007ffffffffffffffffffffffffffffffffffffffffffffffffffffffffefffffc2f14155b6117ed576040517f08c379a00000000000000000000000000000000000000000000000000000000081526004016117e4906120a9565b60405180910390fd5b6000806001905060007ffffffffffffffffffffffffffffffffffffffffffffffffffffffffefffffc2f905060005b600086146118ee57858261183091906120c9565b9050827ffffffffffffffffffffffffffffffffffffffffffffffffffffffffefffffc2f8061186257611861611f5f565b5b7ffffffffffffffffffffffffffffffffffffffffffffffffffffffffefffffc2f8061189157611890611f5f565b5b8584097ffffffffffffffffffffffffffffffffffffffffffffffffffffffffefffffc2f6118bf9190611fbd565b860880945081955050508586826118d691906120fa565b836118e19190611fbd565b809750819350505061181c565b83945050505050919050565b6040518060c001604052806000815260200160008152602001600081526020016000815260200160008152602001600081525090565b604051806040016040528060008152602001600081525090565b6040518060800160405280600490602082028036833780820191505090505090565b6000819050919050565b61197f8161196c565b82525050565b600060208201905061199a6000830184611976565b92915050565b6000604051905090565b600080fd5b600080fd5b600080fd5b6000601f19601f8301169050919050565b7f4e487b7100000000000000000000000000000000000000000000000000000000600052604160045260246000fd5b611a02826119b9565b810181811067ffffffffffffffff82111715611a2157611a206119ca565b5b80604052505050565b6000611a346119a0565b9050611a4082826119f9565b919050565b600067ffffffffffffffff821115611a6057611a5f6119ca565b5b602082029050602081019050919050565b600080fd5b600080fd5b611a848161196c565b8114611a8f57600080fd5b50565b600081359050611aa181611a7b565b92915050565b600060408284031215611abd57611abc611a76565b5b611ac76040611a2a565b90506000611ad784828501611a92565b6000830152506020611aeb84828501611a92565b60208301525092915050565b6000611b0a611b0584611a45565b611a2a565b90508083825260208201905060408402830185811115611b2d57611b2c611a71565b5b835b81811015611b565780611b428882611aa7565b845260208401935050604081019050611b2f565b5050509392505050565b600082601f830112611b7557611b746119b4565b5b8135611b85848260208601611af7565b91505092915050565b600060208284031215611ba457611ba36119aa565b5b600082013567ffffffffffffffff811115611bc257611bc16119af565b5b611bce84828501611b60565b91505092915050565b611be08161196c565b82525050565b60c082016000820151611bfc6000850182611bd7565b506020820151611c0f6020850182611bd7565b506040820151611c226040850182611bd7565b506060820151611c356060850182611bd7565b506080820151611c486080850182611bd7565b5060a0820151611c5b60a0850182611bd7565b50505050565b600060c082019050611c766000830184611be6565b92915050565b60008060408385031215611c9357611c926119aa565b5b6000611ca185828601611a92565b9250506020611cb285828601611a92565b9150509250929050565b604082016000820151611cd26000850182611bd7565b506020820151611ce56020850182611bd7565b50505050565b6000604082019050611d006000830184611cbc565b92915050565b600082825260208201905092915050565b7f4e6f20706f696e74732070726f76696465640000000000000000000000000000600082015250565b6000611d4d601283611d06565b9150611d5882611d17565b602082019050919050565b60006020820190508181036000830152611d7c81611d40565b9050919050565b7f4e487b7100000000000000000000000000000000000000000000000000000000600052603260045260246000fd5b600081519050919050565b600081905092915050565b60005b83811015611de6578082015181840152602081019050611dcb565b60008484015250505050565b6000611dfd82611db2565b611e078185611dbd565b9350611e17818560208601611dc8565b80840191505092915050565b7f2c00000000000000000000000000000000000000000000000000000000000000600082015250565b6000611e59600183611dbd565b9150611e6482611e23565b600182019050919050565b6000611e7b8285611df2565b9150611e8682611e4c565b9150611e928284611df2565b91508190509392505050565b600081519050919050565b600081905092915050565b6000611ebf82611e9e565b611ec98185611ea9565b9350611ed9818560208601611dc8565b80840191505092915050565b6000611ef18284611eb4565b915081905092915050565b6000819050919050565b611f0f81611efc565b8114611f1a57600080fd5b50565b600081519050611f2c81611f06565b92915050565b600060208284031215611f4857611f476119aa565b5b6000611f5684828501611f1d565b91505092915050565b7f4e487b7100000000000000000000000000000000000000000000000000000000600052601260045260246000fd5b7f4e487b7100000000000000000000000000000000000000000000000000000000600052601160045260246000fd5b6000611fc88261196c565b9150611fd38361196c565b9250828203905081811115611feb57611fea611f8e565b5b92915050565b7f557365206a6163446f75626c652066756e6374696f6e20696e73746561640000600082015250565b6000612027601e83611d06565b915061203282611ff1565b602082019050919050565b600060208201905081810360008301526120568161201a565b9050919050565b7f496e76616c6964206e756d626572000000000000000000000000000000000000600082015250565b6000612093600e83611d06565b915061209e8261205d565b602082019050919050565b600060208201905081810360008301526120c281612086565b9050919050565b60006120d48261196c565b91506120df8361196c565b9250826120ef576120ee611f5f565b5b828204905092915050565b60006121058261196c565b91506121108361196c565b925082820261211e8161196c565b9150828204841483151761213557612134611f8e565b5b509291505056fea2646970667358221220c6b48de71099381cfe61a6677a71c2c8e2666850048ea3bcc2c29573630603bb64736f6c634300081c0033","opcodes":"PUSH1 0x80 PUSH1 0x40 MSTORE CALLVALUE DUP1 ISZERO PUSH1 0xF JUMPI PUSH1 0x0 DUP1 REVERT JUMPDEST POP PUSH2 0x2172 DUP1 PUSH2 0x1F PUSH1 0x0 CODECOPY PUSH1 0x0 RETURN INVALID PUSH1 0x80 PUSH1 0x40 MSTORE CALLVALUE DUP1 ISZERO PUSH2 0x10 JUMPI PUSH1 0x0 DUP1 REVERT JUMPDEST POP PUSH1 0x4 CALLDATASIZE LT PUSH2 0x93 JUMPI PUSH1 0x0 CALLDATALOAD PUSH1 0xE0 SHR DUP1 PUSH4 0x7A308A4C GT PUSH2 0x66 JUMPI DUP1 PUSH4 0x7A308A4C EQ PUSH2 0x122 JUMPI DUP1 PUSH4 0x8B8FBD92 EQ PUSH2 0x140 JUMPI DUP1 PUSH4 0xB3BF5495 EQ PUSH2 0x15E JUMPI DUP1 PUSH4 0xC9E525DF EQ PUSH2 0x18E JUMPI DUP1 PUSH4 0xF446C1D0 EQ PUSH2 0x1AC JUMPI PUSH2 0x93 JUMP JUMPDEST DUP1 PUSH4 0x3A507BE EQ PUSH2 0x98 JUMPI DUP1 PUSH4 0x32E7C5BF EQ PUSH2 0xB6 JUMPI DUP1 PUSH4 0x477DECC0 EQ PUSH2 0xD4 JUMPI DUP1 PUSH4 0x6B7A524F EQ PUSH2 0x104 JUMPI JUMPDEST PUSH1 0x0 DUP1 REVERT JUMPDEST PUSH2 0xA0 PUSH2 0x1CA JUMP JUMPDEST PUSH1 0x40 MLOAD PUSH2 0xAD SWAP2 SWAP1 PUSH2 0x1985 JUMP JUMPDEST PUSH1 0x40 MLOAD DUP1 SWAP2 SUB SWAP1 RETURN JUMPDEST PUSH2 0xBE PUSH2 0x1EE JUMP JUMPDEST PUSH1 0x40 MLOAD PUSH2 0xCB SWAP2 SWAP1 PUSH2 0x1985 JUMP JUMPDEST PUSH1 0x40 MLOAD DUP1 SWAP2 SUB SWAP1 RETURN JUMPDEST PUSH2 0xEE PUSH1 0x4 DUP1 CALLDATASIZE SUB DUP2 ADD SWAP1 PUSH2 0xE9 SWAP2 SWAP1 PUSH2 0x1B8E JUMP JUMPDEST PUSH2 0x1F3 JUMP JUMPDEST PUSH1 0x40 MLOAD PUSH2 0xFB SWAP2 SWAP1 PUSH2 0x1985 JUMP JUMPDEST PUSH1 0x40 MLOAD DUP1 SWAP2 SUB SWAP1 RETURN JUMPDEST PUSH2 0x10C PUSH2 0x330 JUMP JUMPDEST PUSH1 0x40 MLOAD PUSH2 0x119 SWAP2 SWAP1 PUSH2 0x1C61 JUMP JUMPDEST PUSH1 0x40 MLOAD DUP1 SWAP2 SUB SWAP1 RETURN JUMPDEST PUSH2 0x12A PUSH2 0x3EC JUMP JUMPDEST PUSH1 0x40 MLOAD PUSH2 0x137 SWAP2 SWAP1 PUSH2 0x1985 JUMP JUMPDEST PUSH1 0x40 MLOAD DUP1 SWAP2 SUB SWAP1 RETURN JUMPDEST PUSH2 0x148 PUSH2 0x410 JUMP JUMPDEST PUSH1 0x40 MLOAD PUSH2 0x155 SWAP2 SWAP1 PUSH2 0x1985 JUMP JUMPDEST PUSH1 0x40 MLOAD DUP1 SWAP2 SUB SWAP1 RETURN JUMPDEST PUSH2 0x178 PUSH1 0x4 DUP1 CALLDATASIZE SUB DUP2 ADD SWAP1 PUSH2 0x173 SWAP2 SWAP1 PUSH2 0x1C7C JUMP JUMPDEST PUSH2 0x434 JUMP JUMPDEST PUSH1 0x40 MLOAD PUSH2 0x185 SWAP2 SWAP1 PUSH2 0x1CEB JUMP JUMPDEST PUSH1 0x40 MLOAD DUP1 SWAP2 SUB SWAP1 RETURN JUMPDEST PUSH2 0x196 PUSH2 0x459 JUMP JUMPDEST PUSH1 0x40 MLOAD PUSH2 0x1A3 SWAP2 SWAP1 PUSH2 0x1985 JUMP JUMPDEST PUSH1 0x40 MLOAD DUP1 SWAP2 SUB SWAP1 RETURN JUMPDEST PUSH2 0x1B4 PUSH2 0x47D JUMP JUMPDEST PUSH1 0x40 MLOAD PUSH2 0x1C1 SWAP2 SWAP1 PUSH2 0x1985 JUMP JUMPDEST PUSH1 0x40 MLOAD DUP1 SWAP2 SUB SWAP1 RETURN JUMPDEST PUSH32 0x79BE667EF9DCBBAC55A06295CE870B07029BFCDB2DCE28D959F2815B16F81798 DUP2 JUMP JUMPDEST PUSH1 0x7 DUP2 JUMP JUMPDEST PUSH1 0x0 DUP1 DUP3 MLOAD GT PUSH2 0x238 JUMPI PUSH1 0x40 MLOAD PUSH32 0x8C379A000000000000000000000000000000000000000000000000000000000 DUP2 MSTORE PUSH1 0x4 ADD PUSH2 0x22F SWAP1 PUSH2 0x1D63 JUMP JUMPDEST PUSH1 0x40 MLOAD DUP1 SWAP2 SUB SWAP1 REVERT JUMPDEST PUSH1 0x0 DUP3 PUSH1 0x0 DUP2 MLOAD DUP2 LT PUSH2 0x24E JUMPI PUSH2 0x24D PUSH2 0x1D83 JUMP JUMPDEST JUMPDEST PUSH1 0x20 MUL PUSH1 0x20 ADD ADD MLOAD SWAP1 POP PUSH1 0x0 PUSH1 0x1 SWAP1 POP JUMPDEST DUP4 MLOAD DUP2 LT ISZERO PUSH2 0x29B JUMPI PUSH2 0x28C DUP3 DUP6 DUP4 DUP2 MLOAD DUP2 LT PUSH2 0x27F JUMPI PUSH2 0x27E PUSH2 0x1D83 JUMP JUMPDEST JUMPDEST PUSH1 0x20 MUL PUSH1 0x20 ADD ADD MLOAD PUSH2 0x482 JUMP JUMPDEST SWAP2 POP DUP1 DUP1 PUSH1 0x1 ADD SWAP2 POP POP PUSH2 0x25F JUMP JUMPDEST POP PUSH1 0x2 PUSH2 0x2AB DUP3 PUSH1 0x0 ADD MLOAD PUSH2 0x569 JUMP JUMPDEST PUSH2 0x2B8 DUP4 PUSH1 0x20 ADD MLOAD PUSH2 0x569 JUMP JUMPDEST PUSH1 0x40 MLOAD PUSH1 0x20 ADD PUSH2 0x2C9 SWAP3 SWAP2 SWAP1 PUSH2 0x1E6F JUMP JUMPDEST PUSH1 0x40 MLOAD PUSH1 0x20 DUP2 DUP4 SUB SUB DUP2 MSTORE SWAP1 PUSH1 0x40 MSTORE PUSH1 0x40 MLOAD PUSH2 0x2E5 SWAP2 SWAP1 PUSH2 0x1EE5 JUMP JUMPDEST PUSH1 0x20 PUSH1 0x40 MLOAD DUP1 DUP4 SUB DUP2 DUP6 GAS STATICCALL ISZERO DUP1 ISZERO PUSH2 0x302 JUMPI RETURNDATASIZE PUSH1 0x0 DUP1 RETURNDATACOPY RETURNDATASIZE PUSH1 0x0 REVERT JUMPDEST POP POP POP PUSH1 0x40 MLOAD RETURNDATASIZE PUSH1 0x1F NOT PUSH1 0x1F DUP3 ADD AND DUP3 ADD DUP1 PUSH1 0x40 MSTORE POP DUP2 ADD SWAP1 PUSH2 0x325 SWAP2 SWAP1 PUSH2 0x1F32 JUMP JUMPDEST PUSH1 0x0 SHR SWAP2 POP POP SWAP2 SWAP1 POP JUMP JUMPDEST PUSH2 0x338 PUSH2 0x18FA JUMP JUMPDEST PUSH1 0x40 MLOAD DUP1 PUSH1 0xC0 ADD PUSH1 0x40 MSTORE DUP1 PUSH32 0x79BE667EF9DCBBAC55A06295CE870B07029BFCDB2DCE28D959F2815B16F81798 DUP2 MSTORE PUSH1 0x20 ADD PUSH32 0x483ADA7726A3C4655DA4FBFC0E1108A8FD17B448A68554199C47D08FFB10D4B8 DUP2 MSTORE PUSH1 0x20 ADD PUSH1 0x0 DUP2 MSTORE PUSH1 0x20 ADD PUSH1 0x7 DUP2 MSTORE PUSH1 0x20 ADD PUSH32 0xFFFFFFFFFFFFFFFFFFFFFFFFFFFFFFFFFFFFFFFFFFFFFFFFFFFFFFFEFFFFFC2F DUP2 MSTORE PUSH1 0x20 ADD PUSH32 0xFFFFFFFFFFFFFFFFFFFFFFFFFFFFFFFEBAAEDCE6AF48A03BBFD25E8CD0364141 DUP2 MSTORE POP SWAP1 POP SWAP1 JUMP JUMPDEST PUSH32 0x483ADA7726A3C4655DA4FBFC0E1108A8FD17B448A68554199C47D08FFB10D4B8 DUP2 JUMP JUMPDEST PUSH32 0xFFFFFFFFFFFFFFFFFFFFFFFFFFFFFFFFFFFFFFFFFFFFFFFFFFFFFFFEFFFFFC2F DUP2 JUMP JUMPDEST PUSH2 0x43C PUSH2 0x1930 JUMP JUMPDEST PUSH1 0x40 MLOAD DUP1 PUSH1 0x40 ADD PUSH1 0x40 MSTORE DUP1 DUP5 DUP2 MSTORE PUSH1 0x20 ADD DUP4 DUP2 MSTORE POP SWAP1 POP SWAP3 SWAP2 POP POP JUMP JUMPDEST PUSH32 0xFFFFFFFFFFFFFFFFFFFFFFFFFFFFFFFEBAAEDCE6AF48A03BBFD25E8CD0364141 DUP2 JUMP JUMPDEST PUSH1 0x0 DUP2 JUMP JUMPDEST PUSH2 0x48A PUSH2 0x1930 JUMP JUMPDEST PUSH1 0x0 DUP1 PUSH1 0x0 DUP5 PUSH1 0x0 ADD MLOAD DUP7 PUSH1 0x0 ADD MLOAD SUB PUSH2 0x525 JUMPI PUSH1 0x0 PUSH32 0xFFFFFFFFFFFFFFFFFFFFFFFFFFFFFFFFFFFFFFFFFFFFFFFFFFFFFFFEFFFFFC2F DUP1 PUSH2 0x4CF JUMPI PUSH2 0x4CE PUSH2 0x1F5F JUMP JUMPDEST JUMPDEST DUP7 PUSH1 0x20 ADD MLOAD DUP9 PUSH1 0x20 ADD MLOAD ADDMOD SUB PUSH2 0x500 JUMPI PUSH1 0x40 MLOAD DUP1 PUSH1 0x40 ADD PUSH1 0x40 MSTORE DUP1 PUSH1 0x0 DUP2 MSTORE PUSH1 0x20 ADD PUSH1 0x0 DUP2 MSTORE POP SWAP4 POP POP POP POP PUSH2 0x563 JUMP JUMPDEST PUSH2 0x514 DUP7 PUSH1 0x0 ADD MLOAD DUP8 PUSH1 0x20 ADD MLOAD PUSH1 0x1 PUSH2 0x637 JUMP JUMPDEST DUP1 SWAP4 POP DUP2 SWAP5 POP DUP3 SWAP6 POP POP POP POP PUSH2 0x552 JUMP JUMPDEST PUSH2 0x545 DUP7 PUSH1 0x0 ADD MLOAD DUP8 PUSH1 0x20 ADD MLOAD PUSH1 0x1 DUP9 PUSH1 0x0 ADD MLOAD DUP10 PUSH1 0x20 ADD MLOAD PUSH1 0x1 PUSH2 0xAB4 JUMP JUMPDEST DUP1 SWAP4 POP DUP2 SWAP5 POP DUP3 SWAP6 POP POP POP POP JUMPDEST PUSH2 0x55D DUP4 DUP4 DUP4 PUSH2 0x14F2 JUMP JUMPDEST SWAP4 POP POP POP POP JUMPDEST SWAP3 SWAP2 POP POP JUMP JUMPDEST PUSH1 0x60 PUSH1 0x0 PUSH1 0x1 PUSH2 0x578 DUP5 PUSH2 0x15FC JUMP JUMPDEST ADD SWAP1 POP PUSH1 0x0 DUP2 PUSH8 0xFFFFFFFFFFFFFFFF DUP2 GT ISZERO PUSH2 0x597 JUMPI PUSH2 0x596 PUSH2 0x19CA JUMP JUMPDEST JUMPDEST PUSH1 0x40 MLOAD SWAP1 DUP1 DUP3 MSTORE DUP1 PUSH1 0x1F ADD PUSH1 0x1F NOT AND PUSH1 0x20 ADD DUP3 ADD PUSH1 0x40 MSTORE DUP1 ISZERO PUSH2 0x5C9 JUMPI DUP2 PUSH1 0x20 ADD PUSH1 0x1 DUP3 MUL DUP1 CALLDATASIZE DUP4 CALLDATACOPY DUP1 DUP3 ADD SWAP2 POP POP SWAP1 POP JUMPDEST POP SWAP1 POP PUSH1 0x0 DUP3 PUSH1 0x20 ADD DUP3 ADD SWAP1 POP JUMPDEST PUSH1 0x1 ISZERO PUSH2 0x62C JUMPI DUP1 DUP1 PUSH1 0x1 SWAP1 SUB SWAP2 POP POP PUSH32 0x3031323334353637383961626364656600000000000000000000000000000000 PUSH1 0xA DUP7 MOD BYTE DUP2 MSTORE8 PUSH1 0xA DUP6 DUP2 PUSH2 0x620 JUMPI PUSH2 0x61F PUSH2 0x1F5F JUMP JUMPDEST JUMPDEST DIV SWAP5 POP PUSH1 0x0 DUP6 SUB PUSH2 0x5D7 JUMPI JUMPDEST DUP2 SWAP4 POP POP POP POP SWAP2 SWAP1 POP JUMP JUMPDEST PUSH1 0x0 DUP1 PUSH1 0x0 DUP1 DUP5 SUB PUSH2 0x651 JUMPI DUP6 DUP6 DUP6 SWAP3 POP SWAP3 POP SWAP3 POP PUSH2 0xAAB JUMP JUMPDEST PUSH1 0x0 PUSH32 0xFFFFFFFFFFFFFFFFFFFFFFFFFFFFFFFFFFFFFFFFFFFFFFFFFFFFFFFEFFFFFC2F DUP1 PUSH2 0x682 JUMPI PUSH2 0x681 PUSH2 0x1F5F JUMP JUMPDEST JUMPDEST DUP8 DUP9 MULMOD SWAP1 POP PUSH1 0x0 PUSH32 0xFFFFFFFFFFFFFFFFFFFFFFFFFFFFFFFFFFFFFFFFFFFFFFFFFFFFFFFEFFFFFC2F DUP1 PUSH2 0x6B8 JUMPI PUSH2 0x6B7 PUSH2 0x1F5F JUMP JUMPDEST JUMPDEST DUP8 DUP9 MULMOD SWAP1 POP PUSH1 0x0 PUSH32 0xFFFFFFFFFFFFFFFFFFFFFFFFFFFFFFFFFFFFFFFFFFFFFFFFFFFFFFFEFFFFFC2F DUP1 PUSH2 0x6EE JUMPI PUSH2 0x6ED PUSH2 0x1F5F JUMP JUMPDEST JUMPDEST DUP8 DUP9 MULMOD SWAP1 POP PUSH1 0x0 PUSH32 0xFFFFFFFFFFFFFFFFFFFFFFFFFFFFFFFFFFFFFFFFFFFFFFFFFFFFFFFEFFFFFC2F DUP1 PUSH2 0x724 JUMPI PUSH2 0x723 PUSH2 0x1F5F JUMP JUMPDEST JUMPDEST PUSH32 0xFFFFFFFFFFFFFFFFFFFFFFFFFFFFFFFFFFFFFFFFFFFFFFFFFFFFFFFEFFFFFC2F DUP1 PUSH2 0x753 JUMPI PUSH2 0x752 PUSH2 0x1F5F JUMP JUMPDEST JUMPDEST DUP5 DUP13 MULMOD PUSH1 0x4 MULMOD SWAP1 POP PUSH1 0x0 PUSH32 0xFFFFFFFFFFFFFFFFFFFFFFFFFFFFFFFFFFFFFFFFFFFFFFFFFFFFFFFEFFFFFC2F DUP1 PUSH2 0x78C JUMPI PUSH2 0x78B PUSH2 0x1F5F JUMP JUMPDEST JUMPDEST PUSH32 0xFFFFFFFFFFFFFFFFFFFFFFFFFFFFFFFFFFFFFFFFFFFFFFFFFFFFFFFEFFFFFC2F DUP1 PUSH2 0x7BB JUMPI PUSH2 0x7BA PUSH2 0x1F5F JUMP JUMPDEST JUMPDEST PUSH32 0xFFFFFFFFFFFFFFFFFFFFFFFFFFFFFFFFFFFFFFFFFFFFFFFFFFFFFFFEFFFFFC2F DUP1 PUSH2 0x7EA JUMPI PUSH2 0x7E9 PUSH2 0x1F5F JUMP JUMPDEST JUMPDEST DUP6 DUP7 MULMOD PUSH1 0x0 MULMOD PUSH32 0xFFFFFFFFFFFFFFFFFFFFFFFFFFFFFFFFFFFFFFFFFFFFFFFFFFFFFFFEFFFFFC2F DUP1 PUSH2 0x81F JUMPI PUSH2 0x81E PUSH2 0x1F5F JUMP JUMPDEST JUMPDEST DUP8 PUSH1 0x3 MULMOD ADDMOD SWAP1 POP PUSH32 0xFFFFFFFFFFFFFFFFFFFFFFFFFFFFFFFFFFFFFFFFFFFFFFFFFFFFFFFEFFFFFC2F DUP1 PUSH2 0x855 JUMPI PUSH2 0x854 PUSH2 0x1F5F JUMP JUMPDEST JUMPDEST PUSH32 0xFFFFFFFFFFFFFFFFFFFFFFFFFFFFFFFFFFFFFFFFFFFFFFFFFFFFFFFEFFFFFC2F DUP1 PUSH2 0x884 JUMPI PUSH2 0x883 PUSH2 0x1F5F JUMP JUMPDEST JUMPDEST DUP4 DUP5 ADDMOD PUSH32 0xFFFFFFFFFFFFFFFFFFFFFFFFFFFFFFFFFFFFFFFFFFFFFFFFFFFFFFFEFFFFFC2F PUSH2 0x8B2 SWAP2 SWAP1 PUSH2 0x1FBD JUMP JUMPDEST PUSH32 0xFFFFFFFFFFFFFFFFFFFFFFFFFFFFFFFFFFFFFFFFFFFFFFFFFFFFFFFEFFFFFC2F DUP1 PUSH2 0x8E1 JUMPI PUSH2 0x8E0 PUSH2 0x1F5F JUMP JUMPDEST JUMPDEST DUP4 DUP5 MULMOD ADDMOD SWAP5 POP PUSH32 0xFFFFFFFFFFFFFFFFFFFFFFFFFFFFFFFFFFFFFFFFFFFFFFFFFFFFFFFEFFFFFC2F DUP1 PUSH2 0x916 JUMPI PUSH2 0x915 PUSH2 0x1F5F JUMP JUMPDEST JUMPDEST PUSH32 0xFFFFFFFFFFFFFFFFFFFFFFFFFFFFFFFFFFFFFFFFFFFFFFFFFFFFFFFEFFFFFC2F DUP1 PUSH2 0x945 JUMPI PUSH2 0x944 PUSH2 0x1F5F JUMP JUMPDEST JUMPDEST PUSH32 0xFFFFFFFFFFFFFFFFFFFFFFFFFFFFFFFFFFFFFFFFFFFFFFFFFFFFFFFEFFFFFC2F DUP1 PUSH2 0x974 JUMPI PUSH2 0x973 PUSH2 0x1F5F JUMP JUMPDEST JUMPDEST DUP7 DUP8 MULMOD PUSH1 0x8 MULMOD PUSH32 0xFFFFFFFFFFFFFFFFFFFFFFFFFFFFFFFFFFFFFFFFFFFFFFFFFFFFFFFEFFFFFC2F PUSH2 0x9A5 SWAP2 SWAP1 PUSH2 0x1FBD JUMP JUMPDEST PUSH32 0xFFFFFFFFFFFFFFFFFFFFFFFFFFFFFFFFFFFFFFFFFFFFFFFFFFFFFFFEFFFFFC2F DUP1 PUSH2 0x9D4 JUMPI PUSH2 0x9D3 PUSH2 0x1F5F JUMP JUMPDEST JUMPDEST PUSH32 0xFFFFFFFFFFFFFFFFFFFFFFFFFFFFFFFFFFFFFFFFFFFFFFFFFFFFFFFEFFFFFC2F DUP1 PUSH2 0xA03 JUMPI PUSH2 0xA02 PUSH2 0x1F5F JUMP JUMPDEST JUMPDEST DUP9 PUSH32 0xFFFFFFFFFFFFFFFFFFFFFFFFFFFFFFFFFFFFFFFFFFFFFFFFFFFFFFFEFFFFFC2F PUSH2 0xA2F SWAP2 SWAP1 PUSH2 0x1FBD JUMP JUMPDEST DUP7 ADDMOD DUP5 MULMOD ADDMOD SWAP4 POP PUSH32 0xFFFFFFFFFFFFFFFFFFFFFFFFFFFFFFFFFFFFFFFFFFFFFFFFFFFFFFFEFFFFFC2F DUP1 PUSH2 0xA65 JUMPI PUSH2 0xA64 PUSH2 0x1F5F JUMP JUMPDEST JUMPDEST PUSH32 0xFFFFFFFFFFFFFFFFFFFFFFFFFFFFFFFFFFFFFFFFFFFFFFFFFFFFFFFEFFFFFC2F DUP1 PUSH2 0xA94 JUMPI PUSH2 0xA93 PUSH2 0x1F5F JUMP JUMPDEST JUMPDEST DUP11 DUP13 MULMOD PUSH1 0x2 MULMOD SWAP3 POP DUP5 DUP5 DUP5 SWAP8 POP SWAP8 POP SWAP8 POP POP POP POP POP POP JUMPDEST SWAP4 POP SWAP4 POP SWAP4 SWAP1 POP JUMP JUMPDEST PUSH1 0x0 DUP1 PUSH1 0x0 DUP1 DUP10 EQ DUP1 ISZERO PUSH2 0xAC8 JUMPI POP PUSH1 0x0 DUP9 EQ JUMPDEST ISZERO PUSH2 0xADB JUMPI DUP6 DUP6 DUP6 SWAP3 POP SWAP3 POP SWAP3 POP PUSH2 0x14E6 JUMP JUMPDEST PUSH1 0x0 DUP7 EQ DUP1 ISZERO PUSH2 0xAEB JUMPI POP PUSH1 0x0 DUP6 EQ JUMPDEST ISZERO PUSH2 0xAFE JUMPI DUP9 DUP9 DUP9 SWAP3 POP SWAP3 POP SWAP3 POP PUSH2 0x14E6 JUMP JUMPDEST PUSH2 0xB06 PUSH2 0x194A JUMP JUMPDEST PUSH32 0xFFFFFFFFFFFFFFFFFFFFFFFFFFFFFFFFFFFFFFFFFFFFFFFFFFFFFFFEFFFFFC2F DUP1 PUSH2 0xB35 JUMPI PUSH2 0xB34 PUSH2 0x1F5F JUMP JUMPDEST JUMPDEST DUP9 DUP10 MULMOD DUP2 PUSH1 0x0 PUSH1 0x4 DUP2 LT PUSH2 0xB4C JUMPI PUSH2 0xB4B PUSH2 0x1D83 JUMP JUMPDEST JUMPDEST PUSH1 0x20 MUL ADD DUP2 DUP2 MSTORE POP POP PUSH32 0xFFFFFFFFFFFFFFFFFFFFFFFFFFFFFFFFFFFFFFFFFFFFFFFFFFFFFFFEFFFFFC2F DUP1 PUSH2 0xB84 JUMPI PUSH2 0xB83 PUSH2 0x1F5F JUMP JUMPDEST JUMPDEST DUP2 PUSH1 0x0 PUSH1 0x4 DUP2 LT PUSH2 0xB98 JUMPI PUSH2 0xB97 PUSH2 0x1D83 JUMP JUMPDEST JUMPDEST PUSH1 0x20 MUL ADD MLOAD DUP10 MULMOD DUP2 PUSH1 0x1 PUSH1 0x4 DUP2 LT PUSH2 0xBB3 JUMPI PUSH2 0xBB2 PUSH2 0x1D83 JUMP JUMPDEST JUMPDEST PUSH1 0x20 MUL ADD DUP2 DUP2 MSTORE POP POP PUSH32 0xFFFFFFFFFFFFFFFFFFFFFFFFFFFFFFFFFFFFFFFFFFFFFFFFFFFFFFFEFFFFFC2F DUP1 PUSH2 0xBEB JUMPI PUSH2 0xBEA PUSH2 0x1F5F JUMP JUMPDEST JUMPDEST DUP6 DUP7 MULMOD DUP2 PUSH1 0x2 PUSH1 0x4 DUP2 LT PUSH2 0xC02 JUMPI PUSH2 0xC01 PUSH2 0x1D83 JUMP JUMPDEST JUMPDEST PUSH1 0x20 MUL ADD DUP2 DUP2 MSTORE POP POP PUSH32 0xFFFFFFFFFFFFFFFFFFFFFFFFFFFFFFFFFFFFFFFFFFFFFFFFFFFFFFFEFFFFFC2F DUP1 PUSH2 0xC3A JUMPI PUSH2 0xC39 PUSH2 0x1F5F JUMP JUMPDEST JUMPDEST DUP2 PUSH1 0x2 PUSH1 0x4 DUP2 LT PUSH2 0xC4E JUMPI PUSH2 0xC4D PUSH2 0x1D83 JUMP JUMPDEST JUMPDEST PUSH1 0x20 MUL ADD MLOAD DUP7 MULMOD DUP2 PUSH1 0x3 PUSH1 0x4 DUP2 LT PUSH2 0xC69 JUMPI PUSH2 0xC68 PUSH2 0x1D83 JUMP JUMPDEST JUMPDEST PUSH1 0x20 MUL ADD DUP2 DUP2 MSTORE POP POP PUSH1 0x40 MLOAD DUP1 PUSH1 0x80 ADD PUSH1 0x40 MSTORE DUP1 PUSH32 0xFFFFFFFFFFFFFFFFFFFFFFFFFFFFFFFFFFFFFFFFFFFFFFFFFFFFFFFEFFFFFC2F DUP1 PUSH2 0xCAC JUMPI PUSH2 0xCAB PUSH2 0x1F5F JUMP JUMPDEST JUMPDEST DUP4 PUSH1 0x2 PUSH1 0x4 DUP2 LT PUSH2 0xCC0 JUMPI PUSH2 0xCBF PUSH2 0x1D83 JUMP JUMPDEST JUMPDEST PUSH1 0x20 MUL ADD MLOAD DUP14 MULMOD DUP2 MSTORE PUSH1 0x20 ADD PUSH32 0xFFFFFFFFFFFFFFFFFFFFFFFFFFFFFFFFFFFFFFFFFFFFFFFFFFFFFFFEFFFFFC2F DUP1 PUSH2 0xCFB JUMPI PUSH2 0xCFA PUSH2 0x1F5F JUMP JUMPDEST JUMPDEST DUP4 PUSH1 0x3 PUSH1 0x4 DUP2 LT PUSH2 0xD0F JUMPI PUSH2 0xD0E PUSH2 0x1D83 JUMP JUMPDEST JUMPDEST PUSH1 0x20 MUL ADD MLOAD DUP13 MULMOD DUP2 MSTORE PUSH1 0x20 ADD PUSH32 0xFFFFFFFFFFFFFFFFFFFFFFFFFFFFFFFFFFFFFFFFFFFFFFFFFFFFFFFEFFFFFC2F DUP1 PUSH2 0xD4A JUMPI PUSH2 0xD49 PUSH2 0x1F5F JUMP JUMPDEST JUMPDEST DUP4 PUSH1 0x0 PUSH1 0x4 DUP2 LT PUSH2 0xD5E JUMPI PUSH2 0xD5D PUSH2 0x1D83 JUMP JUMPDEST JUMPDEST PUSH1 0x20 MUL ADD MLOAD DUP11 MULMOD DUP2 MSTORE PUSH1 0x20 ADD PUSH32 0xFFFFFFFFFFFFFFFFFFFFFFFFFFFFFFFFFFFFFFFFFFFFFFFFFFFFFFFEFFFFFC2F DUP1 PUSH2 0xD99 JUMPI PUSH2 0xD98 PUSH2 0x1F5F JUMP JUMPDEST JUMPDEST DUP4 PUSH1 0x1 PUSH1 0x4 DUP2 LT PUSH2 0xDAD JUMPI PUSH2 0xDAC PUSH2 0x1D83 JUMP JUMPDEST JUMPDEST PUSH1 0x20 MUL ADD MLOAD DUP10 MULMOD DUP2 MSTORE POP SWAP1 POP DUP1 PUSH1 0x2 PUSH1 0x4 DUP2 LT PUSH2 0xDCD JUMPI PUSH2 0xDCC PUSH2 0x1D83 JUMP JUMPDEST JUMPDEST PUSH1 0x20 MUL ADD MLOAD DUP2 PUSH1 0x0 PUSH1 0x4 DUP2 LT PUSH2 0xDE6 JUMPI PUSH2 0xDE5 PUSH2 0x1D83 JUMP JUMPDEST JUMPDEST PUSH1 0x20 MUL ADD MLOAD EQ ISZERO DUP1 PUSH2 0xE28 JUMPI POP DUP1 PUSH1 0x3 PUSH1 0x4 DUP2 LT PUSH2 0xE07 JUMPI PUSH2 0xE06 PUSH2 0x1D83 JUMP JUMPDEST JUMPDEST PUSH1 0x20 MUL ADD MLOAD DUP2 PUSH1 0x1 PUSH1 0x4 DUP2 LT PUSH2 0xE20 JUMPI PUSH2 0xE1F PUSH2 0x1D83 JUMP JUMPDEST JUMPDEST PUSH1 0x20 MUL ADD MLOAD EQ ISZERO JUMPDEST PUSH2 0xE67 JUMPI PUSH1 0x40 MLOAD PUSH32 0x8C379A000000000000000000000000000000000000000000000000000000000 DUP2 MSTORE PUSH1 0x4 ADD PUSH2 0xE5E SWAP1 PUSH2 0x203D JUMP JUMPDEST PUSH1 0x40 MLOAD DUP1 SWAP2 SUB SWAP1 REVERT JUMPDEST PUSH2 0xE6F PUSH2 0x194A JUMP JUMPDEST PUSH32 0xFFFFFFFFFFFFFFFFFFFFFFFFFFFFFFFFFFFFFFFFFFFFFFFFFFFFFFFEFFFFFC2F DUP1 PUSH2 0xE9E JUMPI PUSH2 0xE9D PUSH2 0x1F5F JUMP JUMPDEST JUMPDEST DUP3 PUSH1 0x0 PUSH1 0x4 DUP2 LT PUSH2 0xEB2 JUMPI PUSH2 0xEB1 PUSH2 0x1D83 JUMP JUMPDEST JUMPDEST PUSH1 0x20 MUL ADD MLOAD PUSH32 0xFFFFFFFFFFFFFFFFFFFFFFFFFFFFFFFFFFFFFFFFFFFFFFFFFFFFFFFEFFFFFC2F PUSH2 0xEE2 SWAP2 SWAP1 PUSH2 0x1FBD JUMP JUMPDEST DUP4 PUSH1 0x2 PUSH1 0x4 DUP2 LT PUSH2 0xEF6 JUMPI PUSH2 0xEF5 PUSH2 0x1D83 JUMP JUMPDEST JUMPDEST PUSH1 0x20 MUL ADD MLOAD ADDMOD DUP2 PUSH1 0x0 PUSH1 0x4 DUP2 LT PUSH2 0xF10 JUMPI PUSH2 0xF0F PUSH2 0x1D83 JUMP JUMPDEST JUMPDEST PUSH1 0x20 MUL ADD DUP2 DUP2 MSTORE POP POP PUSH32 0xFFFFFFFFFFFFFFFFFFFFFFFFFFFFFFFFFFFFFFFFFFFFFFFFFFFFFFFEFFFFFC2F DUP1 PUSH2 0xF48 JUMPI PUSH2 0xF47 PUSH2 0x1F5F JUMP JUMPDEST JUMPDEST DUP3 PUSH1 0x1 PUSH1 0x4 DUP2 LT PUSH2 0xF5C JUMPI PUSH2 0xF5B PUSH2 0x1D83 JUMP JUMPDEST JUMPDEST PUSH1 0x20 MUL ADD MLOAD PUSH32 0xFFFFFFFFFFFFFFFFFFFFFFFFFFFFFFFFFFFFFFFFFFFFFFFFFFFFFFFEFFFFFC2F PUSH2 0xF8C SWAP2 SWAP1 PUSH2 0x1FBD JUMP JUMPDEST DUP4 PUSH1 0x3 PUSH1 0x4 DUP2 LT PUSH2 0xFA0 JUMPI PUSH2 0xF9F PUSH2 0x1D83 JUMP JUMPDEST JUMPDEST PUSH1 0x20 MUL ADD MLOAD ADDMOD DUP2 PUSH1 0x1 PUSH1 0x4 DUP2 LT PUSH2 0xFBA JUMPI PUSH2 0xFB9 PUSH2 0x1D83 JUMP JUMPDEST JUMPDEST PUSH1 0x20 MUL ADD DUP2 DUP2 MSTORE POP POP PUSH32 0xFFFFFFFFFFFFFFFFFFFFFFFFFFFFFFFFFFFFFFFFFFFFFFFFFFFFFFFEFFFFFC2F DUP1 PUSH2 0xFF2 JUMPI PUSH2 0xFF1 PUSH2 0x1F5F JUMP JUMPDEST JUMPDEST DUP2 PUSH1 0x0 PUSH1 0x4 DUP2 LT PUSH2 0x1006 JUMPI PUSH2 0x1005 PUSH2 0x1D83 JUMP JUMPDEST JUMPDEST PUSH1 0x20 MUL ADD MLOAD DUP3 PUSH1 0x0 PUSH1 0x4 DUP2 LT PUSH2 0x101F JUMPI PUSH2 0x101E PUSH2 0x1D83 JUMP JUMPDEST JUMPDEST PUSH1 0x20 MUL ADD MLOAD MULMOD DUP2 PUSH1 0x2 PUSH1 0x4 DUP2 LT PUSH2 0x1039 JUMPI PUSH2 0x1038 PUSH2 0x1D83 JUMP JUMPDEST JUMPDEST PUSH1 0x20 MUL ADD DUP2 DUP2 MSTORE POP POP PUSH32 0xFFFFFFFFFFFFFFFFFFFFFFFFFFFFFFFFFFFFFFFFFFFFFFFFFFFFFFFEFFFFFC2F DUP1 PUSH2 0x1071 JUMPI PUSH2 0x1070 PUSH2 0x1F5F JUMP JUMPDEST JUMPDEST DUP2 PUSH1 0x0 PUSH1 0x4 DUP2 LT PUSH2 0x1085 JUMPI PUSH2 0x1084 PUSH2 0x1D83 JUMP JUMPDEST JUMPDEST PUSH1 0x20 MUL ADD MLOAD DUP3 PUSH1 0x2 PUSH1 0x4 DUP2 LT PUSH2 0x109E JUMPI PUSH2 0x109D PUSH2 0x1D83 JUMP JUMPDEST JUMPDEST PUSH1 0x20 MUL ADD MLOAD MULMOD DUP2 PUSH1 0x3 PUSH1 0x4 DUP2 LT PUSH2 0x10B8 JUMPI PUSH2 0x10B7 PUSH2 0x1D83 JUMP JUMPDEST JUMPDEST PUSH1 0x20 MUL ADD DUP2 DUP2 MSTORE POP POP PUSH1 0x0 PUSH32 0xFFFFFFFFFFFFFFFFFFFFFFFFFFFFFFFFFFFFFFFFFFFFFFFFFFFFFFFEFFFFFC2F DUP1 PUSH2 0x10F2 JUMPI PUSH2 0x10F1 PUSH2 0x1F5F JUMP JUMPDEST JUMPDEST DUP3 PUSH1 0x3 PUSH1 0x4 DUP2 LT PUSH2 0x1106 JUMPI PUSH2 0x1105 PUSH2 0x1D83 JUMP JUMPDEST JUMPDEST PUSH1 0x20 MUL ADD MLOAD PUSH32 0xFFFFFFFFFFFFFFFFFFFFFFFFFFFFFFFFFFFFFFFFFFFFFFFFFFFFFFFEFFFFFC2F PUSH2 0x1136 SWAP2 SWAP1 PUSH2 0x1FBD JUMP JUMPDEST PUSH32 0xFFFFFFFFFFFFFFFFFFFFFFFFFFFFFFFFFFFFFFFFFFFFFFFFFFFFFFFEFFFFFC2F DUP1 PUSH2 0x1165 JUMPI PUSH2 0x1164 PUSH2 0x1F5F JUMP JUMPDEST JUMPDEST DUP5 PUSH1 0x1 PUSH1 0x4 DUP2 LT PUSH2 0x1179 JUMPI PUSH2 0x1178 PUSH2 0x1D83 JUMP JUMPDEST JUMPDEST PUSH1 0x20 MUL ADD MLOAD DUP6 PUSH1 0x1 PUSH1 0x4 DUP2 LT PUSH2 0x1192 JUMPI PUSH2 0x1191 PUSH2 0x1D83 JUMP JUMPDEST JUMPDEST PUSH1 0x20 MUL ADD MLOAD MULMOD ADDMOD SWAP1 POP PUSH32 0xFFFFFFFFFFFFFFFFFFFFFFFFFFFFFFFFFFFFFFFFFFFFFFFFFFFFFFFEFFFFFC2F DUP1 PUSH2 0x11CA JUMPI PUSH2 0x11C9 PUSH2 0x1F5F JUMP JUMPDEST JUMPDEST PUSH32 0xFFFFFFFFFFFFFFFFFFFFFFFFFFFFFFFFFFFFFFFFFFFFFFFFFFFFFFFEFFFFFC2F DUP1 PUSH2 0x11F9 JUMPI PUSH2 0x11F8 PUSH2 0x1F5F JUMP JUMPDEST JUMPDEST PUSH32 0xFFFFFFFFFFFFFFFFFFFFFFFFFFFFFFFFFFFFFFFFFFFFFFFFFFFFFFFEFFFFFC2F DUP1 PUSH2 0x1228 JUMPI PUSH2 0x1227 PUSH2 0x1F5F JUMP JUMPDEST JUMPDEST DUP5 PUSH1 0x2 PUSH1 0x4 DUP2 LT PUSH2 0x123C JUMPI PUSH2 0x123B PUSH2 0x1D83 JUMP JUMPDEST JUMPDEST PUSH1 0x20 MUL ADD MLOAD DUP7 PUSH1 0x0 PUSH1 0x4 DUP2 LT PUSH2 0x1255 JUMPI PUSH2 0x1254 PUSH2 0x1D83 JUMP JUMPDEST JUMPDEST PUSH1 0x20 MUL ADD MLOAD MULMOD PUSH1 0x2 MULMOD PUSH32 0xFFFFFFFFFFFFFFFFFFFFFFFFFFFFFFFFFFFFFFFFFFFFFFFFFFFFFFFEFFFFFC2F PUSH2 0x1289 SWAP2 SWAP1 PUSH2 0x1FBD JUMP JUMPDEST DUP3 ADDMOD SWAP1 POP PUSH1 0x0 PUSH32 0xFFFFFFFFFFFFFFFFFFFFFFFFFFFFFFFFFFFFFFFFFFFFFFFFFFFFFFFEFFFFFC2F DUP1 PUSH2 0x12BE JUMPI PUSH2 0x12BD PUSH2 0x1F5F JUMP JUMPDEST JUMPDEST PUSH32 0xFFFFFFFFFFFFFFFFFFFFFFFFFFFFFFFFFFFFFFFFFFFFFFFFFFFFFFFEFFFFFC2F DUP1 PUSH2 0x12ED JUMPI PUSH2 0x12EC PUSH2 0x1F5F JUMP JUMPDEST JUMPDEST DUP4 PUSH32 0xFFFFFFFFFFFFFFFFFFFFFFFFFFFFFFFFFFFFFFFFFFFFFFFFFFFFFFFEFFFFFC2F PUSH2 0x1319 SWAP2 SWAP1 PUSH2 0x1FBD JUMP JUMPDEST PUSH32 0xFFFFFFFFFFFFFFFFFFFFFFFFFFFFFFFFFFFFFFFFFFFFFFFFFFFFFFFEFFFFFC2F DUP1 PUSH2 0x1348 JUMPI PUSH2 0x1347 PUSH2 0x1F5F JUMP JUMPDEST JUMPDEST DUP7 PUSH1 0x2 PUSH1 0x4 DUP2 LT PUSH2 0x135C JUMPI PUSH2 0x135B PUSH2 0x1D83 JUMP JUMPDEST JUMPDEST PUSH1 0x20 MUL ADD MLOAD DUP9 PUSH1 0x0 PUSH1 0x4 DUP2 LT PUSH2 0x1375 JUMPI PUSH2 0x1374 PUSH2 0x1D83 JUMP JUMPDEST JUMPDEST PUSH1 0x20 MUL ADD MLOAD MULMOD ADDMOD DUP5 PUSH1 0x1 PUSH1 0x4 DUP2 LT PUSH2 0x1390 JUMPI PUSH2 0x138F PUSH2 0x1D83 JUMP JUMPDEST JUMPDEST PUSH1 0x20 MUL ADD MLOAD MULMOD SWAP1 POP PUSH32 0xFFFFFFFFFFFFFFFFFFFFFFFFFFFFFFFFFFFFFFFFFFFFFFFFFFFFFFFEFFFFFC2F DUP1 PUSH2 0x13C7 JUMPI PUSH2 0x13C6 PUSH2 0x1F5F JUMP JUMPDEST JUMPDEST PUSH32 0xFFFFFFFFFFFFFFFFFFFFFFFFFFFFFFFFFFFFFFFFFFFFFFFFFFFFFFFEFFFFFC2F DUP1 PUSH2 0x13F6 JUMPI PUSH2 0x13F5 PUSH2 0x1F5F JUMP JUMPDEST JUMPDEST DUP5 PUSH1 0x3 PUSH1 0x4 DUP2 LT PUSH2 0x140A JUMPI PUSH2 0x1409 PUSH2 0x1D83 JUMP JUMPDEST JUMPDEST PUSH1 0x20 MUL ADD MLOAD DUP7 PUSH1 0x1 PUSH1 0x4 DUP2 LT PUSH2 0x1423 JUMPI PUSH2 0x1422 PUSH2 0x1D83 JUMP JUMPDEST JUMPDEST PUSH1 0x20 MUL ADD MLOAD MULMOD PUSH32 0xFFFFFFFFFFFFFFFFFFFFFFFFFFFFFFFFFFFFFFFFFFFFFFFFFFFFFFFEFFFFFC2F PUSH2 0x1454 SWAP2 SWAP1 PUSH2 0x1FBD JUMP JUMPDEST DUP3 ADDMOD SWAP1 POP PUSH1 0x0 PUSH32 0xFFFFFFFFFFFFFFFFFFFFFFFFFFFFFFFFFFFFFFFFFFFFFFFFFFFFFFFEFFFFFC2F DUP1 PUSH2 0x1489 JUMPI PUSH2 0x1488 PUSH2 0x1F5F JUMP JUMPDEST JUMPDEST PUSH32 0xFFFFFFFFFFFFFFFFFFFFFFFFFFFFFFFFFFFFFFFFFFFFFFFFFFFFFFFEFFFFFC2F DUP1 PUSH2 0x14B8 JUMPI PUSH2 0x14B7 PUSH2 0x1F5F JUMP JUMPDEST JUMPDEST DUP11 DUP15 MULMOD DUP6 PUSH1 0x0 PUSH1 0x4 DUP2 LT PUSH2 0x14CF JUMPI PUSH2 0x14CE PUSH2 0x1D83 JUMP JUMPDEST JUMPDEST PUSH1 0x20 MUL ADD MLOAD MULMOD SWAP1 POP DUP3 DUP3 DUP3 SWAP8 POP SWAP8 POP SWAP8 POP POP POP POP POP POP JUMPDEST SWAP7 POP SWAP7 POP SWAP7 SWAP4 POP POP POP POP JUMP JUMPDEST PUSH2 0x14FA PUSH2 0x1930 JUMP JUMPDEST PUSH1 0x0 PUSH2 0x1505 DUP4 PUSH2 0x174F JUMP JUMPDEST SWAP1 POP PUSH1 0x0 PUSH32 0xFFFFFFFFFFFFFFFFFFFFFFFFFFFFFFFFFFFFFFFFFFFFFFFFFFFFFFFEFFFFFC2F DUP1 PUSH2 0x1538 JUMPI PUSH2 0x1537 PUSH2 0x1F5F JUMP JUMPDEST JUMPDEST DUP3 DUP4 MULMOD SWAP1 POP PUSH1 0x0 PUSH32 0xFFFFFFFFFFFFFFFFFFFFFFFFFFFFFFFFFFFFFFFFFFFFFFFFFFFFFFFEFFFFFC2F DUP1 PUSH2 0x156E JUMPI PUSH2 0x156D PUSH2 0x1F5F JUMP JUMPDEST JUMPDEST DUP3 DUP9 MULMOD SWAP1 POP PUSH1 0x0 PUSH32 0xFFFFFFFFFFFFFFFFFFFFFFFFFFFFFFFFFFFFFFFFFFFFFFFFFFFFFFFEFFFFFC2F DUP1 PUSH2 0x15A4 JUMPI PUSH2 0x15A3 PUSH2 0x1F5F JUMP JUMPDEST JUMPDEST PUSH32 0xFFFFFFFFFFFFFFFFFFFFFFFFFFFFFFFFFFFFFFFFFFFFFFFFFFFFFFFEFFFFFC2F DUP1 PUSH2 0x15D3 JUMPI PUSH2 0x15D2 PUSH2 0x1F5F JUMP JUMPDEST JUMPDEST DUP5 DUP7 MULMOD DUP9 MULMOD SWAP1 POP PUSH1 0x40 MLOAD DUP1 PUSH1 0x40 ADD PUSH1 0x40 MSTORE DUP1 DUP4 DUP2 MSTORE PUSH1 0x20 ADD DUP3 DUP2 MSTORE POP SWAP5 POP POP POP POP POP SWAP4 SWAP3 POP POP POP JUMP JUMPDEST PUSH1 0x0 DUP1 PUSH1 0x0 SWAP1 POP PUSH27 0x184F03E93FF9F4DAA797ED6E38ED64BF6A1F010000000000000000 DUP4 LT PUSH2 0x165A JUMPI PUSH27 0x184F03E93FF9F4DAA797ED6E38ED64BF6A1F010000000000000000 DUP4 DUP2 PUSH2 0x1650 JUMPI PUSH2 0x164F PUSH2 0x1F5F JUMP JUMPDEST JUMPDEST DIV SWAP3 POP PUSH1 0x40 DUP2 ADD SWAP1 POP JUMPDEST PUSH14 0x4EE2D6D415B85ACEF8100000000 DUP4 LT PUSH2 0x1697 JUMPI PUSH14 0x4EE2D6D415B85ACEF8100000000 DUP4 DUP2 PUSH2 0x168D JUMPI PUSH2 0x168C PUSH2 0x1F5F JUMP JUMPDEST JUMPDEST DIV SWAP3 POP PUSH1 0x20 DUP2 ADD SWAP1 POP JUMPDEST PUSH7 0x2386F26FC10000 DUP4 LT PUSH2 0x16C6 JUMPI PUSH7 0x2386F26FC10000 DUP4 DUP2 PUSH2 0x16BC JUMPI PUSH2 0x16BB PUSH2 0x1F5F JUMP JUMPDEST JUMPDEST DIV SWAP3 POP PUSH1 0x10 DUP2 ADD SWAP1 POP JUMPDEST PUSH4 0x5F5E100 DUP4 LT PUSH2 0x16EF JUMPI PUSH4 0x5F5E100 DUP4 DUP2 PUSH2 0x16E5 JUMPI PUSH2 0x16E4 PUSH2 0x1F5F JUMP JUMPDEST JUMPDEST DIV SWAP3 POP PUSH1 0x8 DUP2 ADD SWAP1 POP JUMPDEST PUSH2 0x2710 DUP4 LT PUSH2 0x1714 JUMPI PUSH2 0x2710 DUP4 DUP2 PUSH2 0x170A JUMPI PUSH2 0x1709 PUSH2 0x1F5F JUMP JUMPDEST JUMPDEST DIV SWAP3 POP PUSH1 0x4 DUP2 ADD SWAP1 POP JUMPDEST PUSH1 0x64 DUP4 LT PUSH2 0x1737 JUMPI PUSH1 0x64 DUP4 DUP2 PUSH2 0x172D JUMPI PUSH2 0x172C PUSH2 0x1F5F JUMP JUMPDEST JUMPDEST DIV SWAP3 POP PUSH1 0x2 DUP2 ADD SWAP1 POP JUMPDEST PUSH1 0xA DUP4 LT PUSH2 0x1746 JUMPI PUSH1 0x1 DUP2 ADD SWAP1 POP JUMPDEST DUP1 SWAP2 POP POP SWAP2 SWAP1 POP JUMP JUMPDEST PUSH1 0x0 DUP1 DUP3 EQ ISZERO DUP1 ISZERO PUSH2 0x1781 JUMPI POP PUSH32 0xFFFFFFFFFFFFFFFFFFFFFFFFFFFFFFFFFFFFFFFFFFFFFFFFFFFFFFFEFFFFFC2F DUP3 EQ ISZERO JUMPDEST DUP1 ISZERO PUSH2 0x17AE JUMPI POP PUSH1 0x0 PUSH32 0xFFFFFFFFFFFFFFFFFFFFFFFFFFFFFFFFFFFFFFFFFFFFFFFFFFFFFFFEFFFFFC2F EQ ISZERO JUMPDEST PUSH2 0x17ED JUMPI PUSH1 0x40 MLOAD PUSH32 0x8C379A000000000000000000000000000000000000000000000000000000000 DUP2 MSTORE PUSH1 0x4 ADD PUSH2 0x17E4 SWAP1 PUSH2 0x20A9 JUMP JUMPDEST PUSH1 0x40 MLOAD DUP1 SWAP2 SUB SWAP1 REVERT JUMPDEST PUSH1 0x0 DUP1 PUSH1 0x1 SWAP1 POP PUSH1 0x0 PUSH32 0xFFFFFFFFFFFFFFFFFFFFFFFFFFFFFFFFFFFFFFFFFFFFFFFFFFFFFFFEFFFFFC2F SWAP1 POP PUSH1 0x0 JUMPDEST PUSH1 0x0 DUP7 EQ PUSH2 0x18EE JUMPI DUP6 DUP3 PUSH2 0x1830 SWAP2 SWAP1 PUSH2 0x20C9 JUMP JUMPDEST SWAP1 POP DUP3 PUSH32 0xFFFFFFFFFFFFFFFFFFFFFFFFFFFFFFFFFFFFFFFFFFFFFFFFFFFFFFFEFFFFFC2F DUP1 PUSH2 0x1862 JUMPI PUSH2 0x1861 PUSH2 0x1F5F JUMP JUMPDEST JUMPDEST PUSH32 0xFFFFFFFFFFFFFFFFFFFFFFFFFFFFFFFFFFFFFFFFFFFFFFFFFFFFFFFEFFFFFC2F DUP1 PUSH2 0x1891 JUMPI PUSH2 0x1890 PUSH2 0x1F5F JUMP JUMPDEST JUMPDEST DUP6 DUP5 MULMOD PUSH32 0xFFFFFFFFFFFFFFFFFFFFFFFFFFFFFFFFFFFFFFFFFFFFFFFFFFFFFFFEFFFFFC2F PUSH2 0x18BF SWAP2 SWAP1 PUSH2 0x1FBD JUMP JUMPDEST DUP7 ADDMOD DUP1 SWAP5 POP DUP2 SWAP6 POP POP POP DUP6 DUP7 DUP3 PUSH2 0x18D6 SWAP2 SWAP1 PUSH2 0x20FA JUMP JUMPDEST DUP4 PUSH2 0x18E1 SWAP2 SWAP1 PUSH2 0x1FBD JUMP JUMPDEST DUP1 SWAP8 POP DUP2 SWAP4 POP POP POP PUSH2 0x181C JUMP JUMPDEST DUP4 SWAP5 POP POP POP POP POP SWAP2 SWAP1 POP JUMP JUMPDEST PUSH1 0x40 MLOAD DUP1 PUSH1 0xC0 ADD PUSH1 0x40 MSTORE DUP1 PUSH1 0x0 DUP2 MSTORE PUSH1 0x20 ADD PUSH1 0x0 DUP2 MSTORE PUSH1 0x20 ADD PUSH1 0x0 DUP2 MSTORE PUSH1 0x20 ADD PUSH1 0x0 DUP2 MSTORE PUSH1 0x20 ADD PUSH1 0x0 DUP2 MSTORE PUSH1 0x20 ADD PUSH1 0x0 DUP2 MSTORE POP SWAP1 JUMP JUMPDEST PUSH1 0x40 MLOAD DUP1 PUSH1 0x40 ADD PUSH1 0x40 MSTORE DUP1 PUSH1 0x0 DUP2 MSTORE PUSH1 0x20 ADD PUSH1 0x0 DUP2 MSTORE POP SWAP1 JUMP JUMPDEST PUSH1 0x40 MLOAD DUP1 PUSH1 0x80 ADD PUSH1 0x40 MSTORE DUP1 PUSH1 0x4 SWAP1 PUSH1 0x20 DUP3 MUL DUP1 CALLDATASIZE DUP4 CALLDATACOPY DUP1 DUP3 ADD SWAP2 POP POP SWAP1 POP POP SWAP1 JUMP JUMPDEST PUSH1 0x0 DUP2 SWAP1 POP SWAP2 SWAP1 POP JUMP JUMPDEST PUSH2 0x197F DUP2 PUSH2 0x196C JUMP JUMPDEST DUP3 MSTORE POP POP JUMP JUMPDEST PUSH1 0x0 PUSH1 0x20 DUP3 ADD SWAP1 POP PUSH2 0x199A PUSH1 0x0 DUP4 ADD DUP5 PUSH2 0x1976 JUMP JUMPDEST SWAP3 SWAP2 POP POP JUMP JUMPDEST PUSH1 0x0 PUSH1 0x40 MLOAD SWAP1 POP SWAP1 JUMP JUMPDEST PUSH1 0x0 DUP1 REVERT JUMPDEST PUSH1 0x0 DUP1 REVERT JUMPDEST PUSH1 0x0 DUP1 REVERT JUMPDEST PUSH1 0x0 PUSH1 0x1F NOT PUSH1 0x1F DUP4 ADD AND SWAP1 POP SWAP2 SWAP1 POP JUMP JUMPDEST PUSH32 0x4E487B7100000000000000000000000000000000000000000000000000000000 PUSH1 0x0 MSTORE PUSH1 0x41 PUSH1 0x4 MSTORE PUSH1 0x24 PUSH1 0x0 REVERT JUMPDEST PUSH2 0x1A02 DUP3 PUSH2 0x19B9 JUMP JUMPDEST DUP2 ADD DUP2 DUP2 LT PUSH8 0xFFFFFFFFFFFFFFFF DUP3 GT OR ISZERO PUSH2 0x1A21 JUMPI PUSH2 0x1A20 PUSH2 0x19CA JUMP JUMPDEST JUMPDEST DUP1 PUSH1 0x40 MSTORE POP POP POP JUMP JUMPDEST PUSH1 0x0 PUSH2 0x1A34 PUSH2 0x19A0 JUMP JUMPDEST SWAP1 POP PUSH2 0x1A40 DUP3 DUP3 PUSH2 0x19F9 JUMP JUMPDEST SWAP2 SWAP1 POP JUMP JUMPDEST PUSH1 0x0 PUSH8 0xFFFFFFFFFFFFFFFF DUP3 GT ISZERO PUSH2 0x1A60 JUMPI PUSH2 0x1A5F PUSH2 0x19CA JUMP JUMPDEST JUMPDEST PUSH1 0x20 DUP3 MUL SWAP1 POP PUSH1 0x20 DUP2 ADD SWAP1 POP SWAP2 SWAP1 POP JUMP JUMPDEST PUSH1 0x0 DUP1 REVERT JUMPDEST PUSH1 0x0 DUP1 REVERT JUMPDEST PUSH2 0x1A84 DUP2 PUSH2 0x196C JUMP JUMPDEST DUP2 EQ PUSH2 0x1A8F JUMPI PUSH1 0x0 DUP1 REVERT JUMPDEST POP JUMP JUMPDEST PUSH1 0x0 DUP2 CALLDATALOAD SWAP1 POP PUSH2 0x1AA1 DUP2 PUSH2 0x1A7B JUMP JUMPDEST SWAP3 SWAP2 POP POP JUMP JUMPDEST PUSH1 0x0 PUSH1 0x40 DUP3 DUP5 SUB SLT ISZERO PUSH2 0x1ABD JUMPI PUSH2 0x1ABC PUSH2 0x1A76 JUMP JUMPDEST JUMPDEST PUSH2 0x1AC7 PUSH1 0x40 PUSH2 0x1A2A JUMP JUMPDEST SWAP1 POP PUSH1 0x0 PUSH2 0x1AD7 DUP5 DUP3 DUP6 ADD PUSH2 0x1A92 JUMP JUMPDEST PUSH1 0x0 DUP4 ADD MSTORE POP PUSH1 0x20 PUSH2 0x1AEB DUP5 DUP3 DUP6 ADD PUSH2 0x1A92 JUMP JUMPDEST PUSH1 0x20 DUP4 ADD MSTORE POP SWAP3 SWAP2 POP POP JUMP JUMPDEST PUSH1 0x0 PUSH2 0x1B0A PUSH2 0x1B05 DUP5 PUSH2 0x1A45 JUMP JUMPDEST PUSH2 0x1A2A JUMP JUMPDEST SWAP1 POP DUP1 DUP4 DUP3 MSTORE PUSH1 0x20 DUP3 ADD SWAP1 POP PUSH1 0x40 DUP5 MUL DUP4 ADD DUP6 DUP2 GT ISZERO PUSH2 0x1B2D JUMPI PUSH2 0x1B2C PUSH2 0x1A71 JUMP JUMPDEST JUMPDEST DUP4 JUMPDEST DUP2 DUP2 LT ISZERO PUSH2 0x1B56 JUMPI DUP1 PUSH2 0x1B42 DUP9 DUP3 PUSH2 0x1AA7 JUMP JUMPDEST DUP5 MSTORE PUSH1 0x20 DUP5 ADD SWAP4 POP POP PUSH1 0x40 DUP2 ADD SWAP1 POP PUSH2 0x1B2F JUMP JUMPDEST POP POP POP SWAP4 SWAP3 POP POP POP JUMP JUMPDEST PUSH1 0x0 DUP3 PUSH1 0x1F DUP4 ADD SLT PUSH2 0x1B75 JUMPI PUSH2 0x1B74 PUSH2 0x19B4 JUMP JUMPDEST JUMPDEST DUP2 CALLDATALOAD PUSH2 0x1B85 DUP5 DUP3 PUSH1 0x20 DUP7 ADD PUSH2 0x1AF7 JUMP JUMPDEST SWAP2 POP POP SWAP3 SWAP2 POP POP JUMP JUMPDEST PUSH1 0x0 PUSH1 0x20 DUP3 DUP5 SUB SLT ISZERO PUSH2 0x1BA4 JUMPI PUSH2 0x1BA3 PUSH2 0x19AA JUMP JUMPDEST JUMPDEST PUSH1 0x0 DUP3 ADD CALLDATALOAD PUSH8 0xFFFFFFFFFFFFFFFF DUP2 GT ISZERO PUSH2 0x1BC2 JUMPI PUSH2 0x1BC1 PUSH2 0x19AF JUMP JUMPDEST JUMPDEST PUSH2 0x1BCE DUP5 DUP3 DUP6 ADD PUSH2 0x1B60 JUMP JUMPDEST SWAP2 POP POP SWAP3 SWAP2 POP POP JUMP JUMPDEST PUSH2 0x1BE0 DUP2 PUSH2 0x196C JUMP JUMPDEST DUP3 MSTORE POP POP JUMP JUMPDEST PUSH1 0xC0 DUP3 ADD PUSH1 0x0 DUP3 ADD MLOAD PUSH2 0x1BFC PUSH1 0x0 DUP6 ADD DUP3 PUSH2 0x1BD7 JUMP JUMPDEST POP PUSH1 0x20 DUP3 ADD MLOAD PUSH2 0x1C0F PUSH1 0x20 DUP6 ADD DUP3 PUSH2 0x1BD7 JUMP JUMPDEST POP PUSH1 0x40 DUP3 ADD MLOAD PUSH2 0x1C22 PUSH1 0x40 DUP6 ADD DUP3 PUSH2 0x1BD7 JUMP JUMPDEST POP PUSH1 0x60 DUP3 ADD MLOAD PUSH2 0x1C35 PUSH1 0x60 DUP6 ADD DUP3 PUSH2 0x1BD7 JUMP JUMPDEST POP PUSH1 0x80 DUP3 ADD MLOAD PUSH2 0x1C48 PUSH1 0x80 DUP6 ADD DUP3 PUSH2 0x1BD7 JUMP JUMPDEST POP PUSH1 0xA0 DUP3 ADD MLOAD PUSH2 0x1C5B PUSH1 0xA0 DUP6 ADD DUP3 PUSH2 0x1BD7 JUMP JUMPDEST POP POP POP POP JUMP JUMPDEST PUSH1 0x0 PUSH1 0xC0 DUP3 ADD SWAP1 POP PUSH2 0x1C76 PUSH1 0x0 DUP4 ADD DUP5 PUSH2 0x1BE6 JUMP JUMPDEST SWAP3 SWAP2 POP POP JUMP JUMPDEST PUSH1 0x0 DUP1 PUSH1 0x40 DUP4 DUP6 SUB SLT ISZERO PUSH2 0x1C93 JUMPI PUSH2 0x1C92 PUSH2 0x19AA JUMP JUMPDEST JUMPDEST PUSH1 0x0 PUSH2 0x1CA1 DUP6 DUP3 DUP7 ADD PUSH2 0x1A92 JUMP JUMPDEST SWAP3 POP POP PUSH1 0x20 PUSH2 0x1CB2 DUP6 DUP3 DUP7 ADD PUSH2 0x1A92 JUMP JUMPDEST SWAP2 POP POP SWAP3 POP SWAP3 SWAP1 POP JUMP JUMPDEST PUSH1 0x40 DUP3 ADD PUSH1 0x0 DUP3 ADD MLOAD PUSH2 0x1CD2 PUSH1 0x0 DUP6 ADD DUP3 PUSH2 0x1BD7 JUMP JUMPDEST POP PUSH1 0x20 DUP3 ADD MLOAD PUSH2 0x1CE5 PUSH1 0x20 DUP6 ADD DUP3 PUSH2 0x1BD7 JUMP JUMPDEST POP POP POP POP JUMP JUMPDEST PUSH1 0x0 PUSH1 0x40 DUP3 ADD SWAP1 POP PUSH2 0x1D00 PUSH1 0x0 DUP4 ADD DUP5 PUSH2 0x1CBC JUMP JUMPDEST SWAP3 SWAP2 POP POP JUMP JUMPDEST PUSH1 0x0 DUP3 DUP3 MSTORE PUSH1 0x20 DUP3 ADD SWAP1 POP SWAP3 SWAP2 POP POP JUMP JUMPDEST PUSH32 0x4E6F20706F696E74732070726F76696465640000000000000000000000000000 PUSH1 0x0 DUP3 ADD MSTORE POP JUMP JUMPDEST PUSH1 0x0 PUSH2 0x1D4D PUSH1 0x12 DUP4 PUSH2 0x1D06 JUMP JUMPDEST SWAP2 POP PUSH2 0x1D58 DUP3 PUSH2 0x1D17 JUMP JUMPDEST PUSH1 0x20 DUP3 ADD SWAP1 POP SWAP2 SWAP1 POP JUMP JUMPDEST PUSH1 0x0 PUSH1 0x20 DUP3 ADD SWAP1 POP DUP2 DUP2 SUB PUSH1 0x0 DUP4 ADD MSTORE PUSH2 0x1D7C DUP2 PUSH2 0x1D40 JUMP JUMPDEST SWAP1 POP SWAP2 SWAP1 POP JUMP JUMPDEST PUSH32 0x4E487B7100000000000000000000000000000000000000000000000000000000 PUSH1 0x0 MSTORE PUSH1 0x32 PUSH1 0x4 MSTORE PUSH1 0x24 PUSH1 0x0 REVERT JUMPDEST PUSH1 0x0 DUP2 MLOAD SWAP1 POP SWAP2 SWAP1 POP JUMP JUMPDEST PUSH1 0x0 DUP2 SWAP1 POP SWAP3 SWAP2 POP POP JUMP JUMPDEST PUSH1 0x0 JUMPDEST DUP4 DUP2 LT ISZERO PUSH2 0x1DE6 JUMPI DUP1 DUP3 ADD MLOAD DUP2 DUP5 ADD MSTORE PUSH1 0x20 DUP2 ADD SWAP1 POP PUSH2 0x1DCB JUMP JUMPDEST PUSH1 0x0 DUP5 DUP5 ADD MSTORE POP POP POP POP JUMP JUMPDEST PUSH1 0x0 PUSH2 0x1DFD DUP3 PUSH2 0x1DB2 JUMP JUMPDEST PUSH2 0x1E07 DUP2 DUP6 PUSH2 0x1DBD JUMP JUMPDEST SWAP4 POP PUSH2 0x1E17 DUP2 DUP6 PUSH1 0x20 DUP7 ADD PUSH2 0x1DC8 JUMP JUMPDEST DUP1 DUP5 ADD SWAP2 POP POP SWAP3 SWAP2 POP POP JUMP JUMPDEST PUSH32 0x2C00000000000000000000000000000000000000000000000000000000000000 PUSH1 0x0 DUP3 ADD MSTORE POP JUMP JUMPDEST PUSH1 0x0 PUSH2 0x1E59 PUSH1 0x1 DUP4 PUSH2 0x1DBD JUMP JUMPDEST SWAP2 POP PUSH2 0x1E64 DUP3 PUSH2 0x1E23 JUMP JUMPDEST PUSH1 0x1 DUP3 ADD SWAP1 POP SWAP2 SWAP1 POP JUMP JUMPDEST PUSH1 0x0 PUSH2 0x1E7B DUP3 DUP6 PUSH2 0x1DF2 JUMP JUMPDEST SWAP2 POP PUSH2 0x1E86 DUP3 PUSH2 0x1E4C JUMP JUMPDEST SWAP2 POP PUSH2 0x1E92 DUP3 DUP5 PUSH2 0x1DF2 JUMP JUMPDEST SWAP2 POP DUP2 SWAP1 POP SWAP4 SWAP3 POP POP POP JUMP JUMPDEST PUSH1 0x0 DUP2 MLOAD SWAP1 POP SWAP2 SWAP1 POP JUMP JUMPDEST PUSH1 0x0 DUP2 SWAP1 POP SWAP3 SWAP2 POP POP JUMP JUMPDEST PUSH1 0x0 PUSH2 0x1EBF DUP3 PUSH2 0x1E9E JUMP JUMPDEST PUSH2 0x1EC9 DUP2 DUP6 PUSH2 0x1EA9 JUMP JUMPDEST SWAP4 POP PUSH2 0x1ED9 DUP2 DUP6 PUSH1 0x20 DUP7 ADD PUSH2 0x1DC8 JUMP JUMPDEST DUP1 DUP5 ADD SWAP2 POP POP SWAP3 SWAP2 POP POP JUMP JUMPDEST PUSH1 0x0 PUSH2 0x1EF1 DUP3 DUP5 PUSH2 0x1EB4 JUMP JUMPDEST SWAP2 POP DUP2 SWAP1 POP SWAP3 SWAP2 POP POP JUMP JUMPDEST PUSH1 0x0 DUP2 SWAP1 POP SWAP2 SWAP1 POP JUMP JUMPDEST PUSH2 0x1F0F DUP2 PUSH2 0x1EFC JUMP JUMPDEST DUP2 EQ PUSH2 0x1F1A JUMPI PUSH1 0x0 DUP1 REVERT JUMPDEST POP JUMP JUMPDEST PUSH1 0x0 DUP2 MLOAD SWAP1 POP PUSH2 0x1F2C DUP2 PUSH2 0x1F06 JUMP JUMPDEST SWAP3 SWAP2 POP POP JUMP JUMPDEST PUSH1 0x0 PUSH1 0x20 DUP3 DUP5 SUB SLT ISZERO PUSH2 0x1F48 JUMPI PUSH2 0x1F47 PUSH2 0x19AA JUMP JUMPDEST JUMPDEST PUSH1 0x0 PUSH2 0x1F56 DUP5 DUP3 DUP6 ADD PUSH2 0x1F1D JUMP JUMPDEST SWAP2 POP POP SWAP3 SWAP2 POP POP JUMP JUMPDEST PUSH32 0x4E487B7100000000000000000000000000000000000000000000000000000000 PUSH1 0x0 MSTORE PUSH1 0x12 PUSH1 0x4 MSTORE PUSH1 0x24 PUSH1 0x0 REVERT JUMPDEST PUSH32 0x4E487B7100000000000000000000000000000000000000000000000000000000 PUSH1 0x0 MSTORE PUSH1 0x11 PUSH1 0x4 MSTORE PUSH1 0x24 PUSH1 0x0 REVERT JUMPDEST PUSH1 0x0 PUSH2 0x1FC8 DUP3 PUSH2 0x196C JUMP JUMPDEST SWAP2 POP PUSH2 0x1FD3 DUP4 PUSH2 0x196C JUMP JUMPDEST SWAP3 POP DUP3 DUP3 SUB SWAP1 POP DUP2 DUP2 GT ISZERO PUSH2 0x1FEB JUMPI PUSH2 0x1FEA PUSH2 0x1F8E JUMP JUMPDEST JUMPDEST SWAP3 SWAP2 POP POP JUMP JUMPDEST PUSH32 0x557365206A6163446F75626C652066756E6374696F6E20696E73746561640000 PUSH1 0x0 DUP3 ADD MSTORE POP JUMP JUMPDEST PUSH1 0x0 PUSH2 0x2027 PUSH1 0x1E DUP4 PUSH2 0x1D06 JUMP JUMPDEST SWAP2 POP PUSH2 0x2032 DUP3 PUSH2 0x1FF1 JUMP JUMPDEST PUSH1 0x20 DUP3 ADD SWAP1 POP SWAP2 SWAP1 POP JUMP JUMPDEST PUSH1 0x0 PUSH1 0x20 DUP3 ADD SWAP1 POP DUP2 DUP2 SUB PUSH1 0x0 DUP4 ADD MSTORE PUSH2 0x2056 DUP2 PUSH2 0x201A JUMP JUMPDEST SWAP1 POP SWAP2 SWAP1 POP JUMP JUMPDEST PUSH32 0x496E76616C6964206E756D626572000000000000000000000000000000000000 PUSH1 0x0 DUP3 ADD MSTORE POP JUMP JUMPDEST PUSH1 0x0 PUSH2 0x2093 PUSH1 0xE DUP4 PUSH2 0x1D06 JUMP JUMPDEST SWAP2 POP PUSH2 0x209E DUP3 PUSH2 0x205D JUMP JUMPDEST PUSH1 0x20 DUP3 ADD SWAP1 POP SWAP2 SWAP1 POP JUMP JUMPDEST PUSH1 0x0 PUSH1 0x20 DUP3 ADD SWAP1 POP DUP2 DUP2 SUB PUSH1 0x0 DUP4 ADD MSTORE PUSH2 0x20C2 DUP2 PUSH2 0x2086 JUMP JUMPDEST SWAP1 POP SWAP2 SWAP1 POP JUMP JUMPDEST PUSH1 0x0 PUSH2 0x20D4 DUP3 PUSH2 0x196C JUMP JUMPDEST SWAP2 POP PUSH2 0x20DF DUP4 PUSH2 0x196C JUMP JUMPDEST SWAP3 POP DUP3 PUSH2 0x20EF JUMPI PUSH2 0x20EE PUSH2 0x1F5F JUMP JUMPDEST JUMPDEST DUP3 DUP3 DIV SWAP1 POP SWAP3 SWAP2 POP POP JUMP JUMPDEST PUSH1 0x0 PUSH2 0x2105 DUP3 PUSH2 0x196C JUMP JUMPDEST SWAP2 POP PUSH2 0x2110 DUP4 PUSH2 0x196C JUMP JUMPDEST SWAP3 POP DUP3 DUP3 MUL PUSH2 0x211E DUP2 PUSH2 0x196C JUMP JUMPDEST SWAP2 POP DUP3 DUP3 DIV DUP5 EQ DUP4 ISZERO OR PUSH2 0x2135 JUMPI PUSH2 0x2134 PUSH2 0x1F8E JUMP JUMPDEST JUMPDEST POP SWAP3 SWAP2 POP POP JUMP INVALID LOG2 PUSH5 0x6970667358 0x22 SLT KECCAK256 0xC6 0xB4 DUP14 0xE7 LT SWAP10 CODESIZE SHR INVALID PUSH2 0xA667 PUSH27 0x71C2C8E2666850048EA3BCC2C29573630603BB64736F6C63430008 SHR STOP CALLER "},"methodIdentifiers":{"A()":"f446c1d0","B()":"32e7c5bf","GX()":"03a507be","GY()":"7a308a4c","N()":"c9e525df","P()":"8b8fbd92","getECCParams()":"6b7a524f","hashMultiplePointsToScalar((uint256,uint256)[])":"477decc0","newEcPoint(uint256,uint256)":"b3bf5495"}}}}}