{"contracts/Election.sol":{"Election":{"abi":[{"anonymous":false,"inputs":[{"indexed":false,"internalType":"uint256","name":"pkx","type":"uint256"},{"indexed":false,"internalType":"uint256","name":"pky","type":"uint256"},{"indexed":false,"internalType":"uint256","name":"c","type":"uint256"},{"indexed":false,"internalType":"uint256","name":"d","type":"uint256"}],"name":"AuthorityRegistered","type":"event"},{"anonymous":false,"inputs":[{"indexed":false,"internalType":"string[]","name":"candidates","type":"string[]"}],"name":"CandidatesSet","type":"event"},{"inputs":[],"name":"A","outputs":[{"internalType":"uint256","name":"","type":"uint256"}],"stateMutability":"view","type":"function"},{"inputs":[],"name":"B","outputs":[{"internalType":"uint256","name":"","type":"uint256"}],"stateMutability":"view","type":"function"},{"inputs":[],"name":"GX","outputs":[{"internalType":"uint256","name":"","type":"uint256"}],"stateMutability":"view","type":"function"},{"inputs":[],"name":"GY","outputs":[{"internalType":"uint256","name":"","type":"uint256"}],"stateMutability":"view","type":"function"},{"inputs":[],"name":"N","outputs":[{"internalType":"uint256","name":"","type":"uint256"}],"stateMutability":"view","type":"function"},{"inputs":[],"name":"P","outputs":[{"internalType":"uint256","name":"","type":"uint256"}],"stateMutability":"view","type":"function"},{"inputs":[{"internalType":"uint256","name":"","type":"uint256"}],"name":"authorities","outputs":[{"components":[{"internalType":"uint256","name":"x","type":"uint256"},{"internalType":"uint256","name":"y","type":"uint256"}],"internalType":"struct Ecc.EcPoint","name":"publicKey","type":"tuple"},{"components":[{"internalType":"uint256","name":"c","type":"uint256"},{"internalType":"uint256","name":"d","type":"uint256"}],"internalType":"struct Zkp.KeyOwnershipProof","name":"proof","type":"tuple"}],"stateMutability":"view","type":"function"},{"inputs":[{"internalType":"uint256","name":"","type":"uint256"}],"name":"candidates","outputs":[{"internalType":"string","name":"","type":"string"}],"stateMutability":"view","type":"function"},{"inputs":[],"name":"electionPublicKey","outputs":[{"internalType":"uint256","name":"","type":"uint256"}],"stateMutability":"view","type":"function"},{"inputs":[],"name":"getAuthorityList","outputs":[{"components":[{"components":[{"internalType":"uint256","name":"x","type":"uint256"},{"internalType":"uint256","name":"y","type":"uint256"}],"internalType":"struct Ecc.EcPoint","name":"publicKey","type":"tuple"},{"components":[{"internalType":"uint256","name":"c","type":"uint256"},{"internalType":"uint256","name":"d","type":"uint256"}],"internalType":"struct Zkp.KeyOwnershipProof","name":"proof","type":"tuple"}],"internalType":"struct Election.Authority[]","name":"","type":"tuple[]"}],"stateMutability":"view","type":"function"},{"inputs":[],"name":"getCandidates","outputs":[{"internalType":"string[]","name":"","type":"string[]"}],"stateMutability":"view","type":"function"},{"inputs":[],"name":"getECCParams","outputs":[{"components":[{"internalType":"uint256","name":"gx","type":"uint256"},{"internalType":"uint256","name":"gy","type":"uint256"},{"internalType":"uint256","name":"a","type":"uint256"},{"internalType":"uint256","name":"b","type":"uint256"},{"internalType":"uint256","name":"p","type":"uint256"},{"internalType":"uint256","name":"n","type":"uint256"}],"internalType":"struct Ecc.EccParams","name":"","type":"tuple"}],"stateMutability":"pure","type":"function"},{"inputs":[{"components":[{"internalType":"uint256","name":"x","type":"uint256"},{"internalType":"uint256","name":"y","type":"uint256"}],"internalType":"struct Ecc.EcPoint[]","name":"points","type":"tuple[]"}],"name":"hashMultiplePointsToScalar","outputs":[{"internalType":"uint256","name":"","type":"uint256"}],"stateMutability":"pure","type":"function"},{"inputs":[{"internalType":"uint256","name":"x","type":"uint256"},{"internalType":"uint256","name":"y","type":"uint256"}],"name":"newEcPoint","outputs":[{"components":[{"internalType":"uint256","name":"x","type":"uint256"},{"internalType":"uint256","name":"y","type":"uint256"}],"internalType":"struct Ecc.EcPoint","name":"","type":"tuple"}],"stateMutability":"pure","type":"function"},{"inputs":[{"internalType":"uint256","name":"_pkx","type":"uint256"},{"internalType":"uint256","name":"_pky","type":"uint256"},{"internalType":"uint256","name":"_c","type":"uint256"},{"internalType":"uint256","name":"_d","type":"uint256"}],"name":"registerAuthority","outputs":[],"stateMutability":"nonpayable","type":"function"},{"inputs":[{"internalType":"string[]","name":"_candidates","type":"string[]"}],"name":"setCandidates","outputs":[],"stateMutability":"nonpayable","type":"function"},{"inputs":[],"name":"status","outputs":[{"internalType":"enum Election.ElectionStatus","name":"","type":"uint8"}],"stateMutability":"view","type":"function"}],"evm":{"bytecode":{"linkReferences":{},"object":"60806040526000600160006101000a81548160ff021916908360048111156027576026603c565b5b0217905550348015603757600080fd5b50606b565b7f4e487b7100000000000000000000000000000000000000000000000000000000600052602160045260246000fd5b6138ea8061007a6000396000f3fe608060405234801561001057600080fd5b506004361061010b5760003560e01c80633477ee2e116100a25780637a308a4c116100715780637a308a4c146102ab5780638b8fbd92146102c9578063b3bf5495146102e7578063c9e525df14610317578063f446c1d0146103355761010b565b80633477ee2e146101fc578063477decc01461022c578063494503d41461025c5780636b7a524f1461028d5761010b565b8063200d2ed2116100de578063200d2ed21461018657806324128a30146101a457806327b383b1146101c057806332e7c5bf146101de5761010b565b806303a507be1461011057806306a49fce1461012e5780630dd3849c1461014c57806314e745d91461016a575b600080fd5b610118610353565b60405161012591906124be565b60405180910390f35b610136610377565b604051610143919061262b565b60405180910390f35b610154610450565b60405161016191906124be565b60405180910390f35b610184600480360381019061017f919061287c565b610456565b005b61018e61058b565b60405161019b919061293c565b60405180910390f35b6101be60048036038101906101b99190612983565b61059e565b005b6101c86108ce565b6040516101d59190612b35565b60405180910390f35b6101e661097d565b6040516101f391906124be565b60405180910390f35b61021660048036038101906102119190612b57565b610982565b6040516102239190612bce565b60405180910390f35b61024660048036038101906102419190612d08565b610a2e565b60405161025391906124be565b60405180910390f35b61027660048036038101906102719190612b57565b610b5b565b604051610284929190612daf565b60405180910390f35b610295610bcb565b6040516102a29190612e53565b60405180910390f35b6102b3610c87565b6040516102c091906124be565b60405180910390f35b6102d1610cab565b6040516102de91906124be565b60405180910390f35b61030160048036038101906102fc9190612e6e565b610ccf565b60405161030e9190612eae565b60405180910390f35b61031f610cf4565b60405161032c91906124be565b60405180910390f35b61033d610d18565b60405161034a91906124be565b60405180910390f35b7f79be667ef9dcbbac55a06295ce870b07029bfcdb2dce28d959f2815b16f8179881565b60606000805480602002602001604051908101604052809291908181526020016000905b828210156104475783829060005260206000200180546103ba90612ef8565b80601f01602080910402602001604051908101604052809291908181526020018280546103e690612ef8565b80156104335780601f1061040857610100808354040283529160200191610433565b820191906000526020600020905b81548152906001019060200180831161041657829003601f168201915b50505050508152602001906001019061039b565b50505050905090565b60035481565b6000600481111561046a576104696128c5565b5b600160009054906101000a900460ff16600481111561048c5761048b6128c5565b5b146104cc576040517f08c379a00000000000000000000000000000000000000000000000000000000081526004016104c390612f75565b60405180910390fd5b6001815111610510576040517f08c379a000000000000000000000000000000000000000000000000000000000815260040161050790613007565b60405180910390fd5b806000908051906020019061052692919061234f565b5060018060006101000a81548160ff0219169083600481111561054c5761054b6128c5565b5b02179055507fa952e3c6144635fac7ea60dc1b7ae16dd42aa94e258f879c17e7705c3bfa1b4181604051610580919061262b565b60405180910390a150565b600160009054906101000a900460ff1681565b600060048111156105b2576105b16128c5565b5b600160009054906101000a900460ff1660048111156105d4576105d36128c5565b5b14610614576040517f08c379a000000000000000000000000000000000000000000000000000000000815260040161060b90612f75565b60405180910390fd5b60006040518060400160405280868152602001858152509050600060405180604001604052808581526020018481525090506106508282610d1d565b61068f576040517f08c379a000000000000000000000000000000000000000000000000000000000815260040161068690613073565b60405180910390fd5b60005b6002805490508110156107f8578260000151600282815481106106b8576106b7613093565b5b90600052602060002090600402016000016000015414158061070657508260200151600282815481106106ee576106ed613093565b5b90600052602060002090600402016000016001015414155b610745576040517f08c379a000000000000000000000000000000000000000000000000000000000815260040161073c9061310e565b60405180910390fd5b81600001516002828154811061075e5761075d613093565b5b9060005260206000209060040201600201600001541415806107ac575081602001516002828154811061079457610793613093565b5b90600052602060002090600402016002016001015414155b6107eb576040517f08c379a00000000000000000000000000000000000000000000000000000000081526004016107e29061317a565b60405180910390fd5b8080600101915050610692565b5060026040518060400160405280848152602001838152509080600181540180825580915050600190039060005260206000209060040201600090919091909150600082015181600001600082015181600001556020820151816001015550506020820151816002016000820151816000015560208201518160010155505050507f1d6f49e3aaad34da407e317ce8124ab45cee55ade6a05228c4ba85c9e40807c682600001518360200151836000015184602001516040516108be949392919061319a565b60405180910390a1505050505050565b60606002805480602002602001604051908101604052809291908181526020016000905b82821015610974578382906000526020600020906004020160405180604001604052908160008201604051806040016040529081600082015481526020016001820154815250508152602001600282016040518060400160405290816000820154815260200160018201548152505081525050815260200190600101906108f2565b50505050905090565b600781565b6000818154811061099257600080fd5b9060005260206000200160009150905080546109ad90612ef8565b80601f01602080910402602001604051908101604052809291908181526020018280546109d990612ef8565b8015610a265780601f106109fb57610100808354040283529160200191610a26565b820191906000526020600020905b815481529060010190602001808311610a0957829003601f168201915b505050505081565b600080825111610a73576040517f08c379a0000000000000000000000000000000000000000000000000000000008152600401610a6a9061322b565b60405180910390fd5b600082600081518110610a8957610a88613093565b5b602002602001015190506000600190505b8351811015610ad657610ac782858381518110610aba57610ab9613093565b5b6020026020010151610e98565b91508080600101915050610a9a565b50600281600001518260200151604051602001610af49291906132c3565b604051602081830303815290604052604051610b109190613341565b602060405180830381855afa158015610b2d573d6000803e3d6000fd5b5050506040513d601f19601f82011682018060405250810190610b50919061338e565b60001c915050919050565b60028181548110610b6b57600080fd5b90600052602060002090600402016000915090508060000160405180604001604052908160008201548152602001600182015481525050908060020160405180604001604052908160008201548152602001600182015481525050905082565b610bd36123a8565b6040518060c001604052807f79be667ef9dcbbac55a06295ce870b07029bfcdb2dce28d959f2815b16f8179881526020017f483ada7726a3c4655da4fbfc0e1108a8fd17b448a68554199c47d08ffb10d4b8815260200160008152602001600781526020017ffffffffffffffffffffffffffffffffffffffffffffffffffffffffefffffc2f81526020017ffffffffffffffffffffffffffffffffebaaedce6af48a03bbfd25e8cd0364141815250905090565b7f483ada7726a3c4655da4fbfc0e1108a8fd17b448a68554199c47d08ffb10d4b881565b7ffffffffffffffffffffffffffffffffffffffffffffffffffffffffefffffc2f81565b610cd76123de565b604051806040016040528084815260200183815250905092915050565b7ffffffffffffffffffffffffffffffffebaaedce6af48a03bbfd25e8cd036414181565b600081565b600080610d6f83602001517f79be667ef9dcbbac55a06295ce870b07029bfcdb2dce28d959f2815b16f817987f483ada7726a3c4655da4fbfc0e1108a8fd17b448a68554199c47d08ffb10d4b8610f7f565b90506000610d8a846000015186600001518760200151610f7f565b90506000610d988383610fb6565b90506000600267ffffffffffffffff811115610db757610db6612666565b5b604051908082528060200260200182016040528015610df057816020015b610ddd6123de565b815260200190600190039081610dd55790505b5090508681600081518110610e0857610e07613093565b5b60200260200101819052508181600181518110610e2857610e27613093565b5b60200260200101819052506000610e3e82610a2e565b9050610e846040518060400160405280600381526020017f203e3e0000000000000000000000000000000000000000000000000000000000815250886000015183610fde565b808760000151149550505050505092915050565b610ea06123de565b60008060008460000151866000015103610f3b5760007ffffffffffffffffffffffffffffffffffffffffffffffffffffffffefffffc2f80610ee557610ee46133bb565b5b866020015188602001510803610f165760405180604001604052806000815260200160008152509350505050610f79565b610f2a86600001518760200151600161107d565b809350819450829550505050610f68565b610f5b8660000151876020015160018860000151896020015160016114fa565b8093508194508295505050505b610f73838383611f38565b93505050505b92915050565b610f876123de565b6000806000610f998787876001612042565b925092509250610faa838383611f38565b93505050509392505050565b610fbe6123de565b6000610fc9836120dc565b9050610fd58482610e98565b91505092915050565b611078838383604051602401610ff6939291906133ea565b6040516020818303038152906040527fca47c4eb000000000000000000000000000000000000000000000000000000007bffffffffffffffffffffffffffffffffffffffffffffffffffffffff19166020820180517bffffffffffffffffffffffffffffffffffffffffffffffffffffffff838183161783525050505061215e565b505050565b6000806000808403611097578585859250925092506114f1565b60007ffffffffffffffffffffffffffffffffffffffffffffffffffffffffefffffc2f806110c8576110c76133bb565b5b878809905060007ffffffffffffffffffffffffffffffffffffffffffffffffffffffffefffffc2f806110fe576110fd6133bb565b5b878809905060007ffffffffffffffffffffffffffffffffffffffffffffffffffffffffefffffc2f80611134576111336133bb565b5b878809905060007ffffffffffffffffffffffffffffffffffffffffffffffffffffffffefffffc2f8061116a576111696133bb565b5b7ffffffffffffffffffffffffffffffffffffffffffffffffffffffffefffffc2f80611199576111986133bb565b5b848c09600409905060007ffffffffffffffffffffffffffffffffffffffffffffffffffffffffefffffc2f806111d2576111d16133bb565b5b7ffffffffffffffffffffffffffffffffffffffffffffffffffffffffefffffc2f80611201576112006133bb565b5b7ffffffffffffffffffffffffffffffffffffffffffffffffffffffffefffffc2f806112305761122f6133bb565b5b8586096000097ffffffffffffffffffffffffffffffffffffffffffffffffffffffffefffffc2f80611265576112646133bb565b5b876003090890507ffffffffffffffffffffffffffffffffffffffffffffffffffffffffefffffc2f8061129b5761129a6133bb565b5b7ffffffffffffffffffffffffffffffffffffffffffffffffffffffffefffffc2f806112ca576112c96133bb565b5b8384087ffffffffffffffffffffffffffffffffffffffffffffffffffffffffefffffc2f6112f89190613457565b7ffffffffffffffffffffffffffffffffffffffffffffffffffffffffefffffc2f80611327576113266133bb565b5b8384090894507ffffffffffffffffffffffffffffffffffffffffffffffffffffffffefffffc2f8061135c5761135b6133bb565b5b7ffffffffffffffffffffffffffffffffffffffffffffffffffffffffefffffc2f8061138b5761138a6133bb565b5b7ffffffffffffffffffffffffffffffffffffffffffffffffffffffffefffffc2f806113ba576113b96133bb565b5b8687096008097ffffffffffffffffffffffffffffffffffffffffffffffffffffffffefffffc2f6113eb9190613457565b7ffffffffffffffffffffffffffffffffffffffffffffffffffffffffefffffc2f8061141a576114196133bb565b5b7ffffffffffffffffffffffffffffffffffffffffffffffffffffffffefffffc2f80611449576114486133bb565b5b887ffffffffffffffffffffffffffffffffffffffffffffffffffffffffefffffc2f6114759190613457565b860884090893507ffffffffffffffffffffffffffffffffffffffffffffffffffffffffefffffc2f806114ab576114aa6133bb565b5b7ffffffffffffffffffffffffffffffffffffffffffffffffffffffffefffffc2f806114da576114d96133bb565b5b8a8c09600209925084848497509750975050505050505b93509350939050565b6000806000808914801561150e5750600088145b1561152157858585925092509250611f2c565b6000861480156115315750600085145b1561154457888888925092509250611f2c565b61154c6123f8565b7ffffffffffffffffffffffffffffffffffffffffffffffffffffffffefffffc2f8061157b5761157a6133bb565b5b8889098160006004811061159257611591613093565b5b6020020181815250507ffffffffffffffffffffffffffffffffffffffffffffffffffffffffefffffc2f806115ca576115c96133bb565b5b816000600481106115de576115dd613093565b5b60200201518909816001600481106115f9576115f8613093565b5b6020020181815250507ffffffffffffffffffffffffffffffffffffffffffffffffffffffffefffffc2f80611631576116306133bb565b5b8586098160026004811061164857611647613093565b5b6020020181815250507ffffffffffffffffffffffffffffffffffffffffffffffffffffffffefffffc2f806116805761167f6133bb565b5b8160026004811061169457611693613093565b5b60200201518609816003600481106116af576116ae613093565b5b60200201818152505060405180608001604052807ffffffffffffffffffffffffffffffffffffffffffffffffffffffffefffffc2f806116f2576116f16133bb565b5b8360026004811061170657611705613093565b5b60200201518d0981526020017ffffffffffffffffffffffffffffffffffffffffffffffffffffffffefffffc2f80611741576117406133bb565b5b8360036004811061175557611754613093565b5b60200201518c0981526020017ffffffffffffffffffffffffffffffffffffffffffffffffffffffffefffffc2f806117905761178f6133bb565b5b836000600481106117a4576117a3613093565b5b60200201518a0981526020017ffffffffffffffffffffffffffffffffffffffffffffffffffffffffefffffc2f806117df576117de6133bb565b5b836001600481106117f3576117f2613093565b5b6020020151890981525090508060026004811061181357611812613093565b5b60200201518160006004811061182c5761182b613093565b5b602002015114158061186e57508060036004811061184d5761184c613093565b5b60200201518160016004811061186657611865613093565b5b602002015114155b6118ad576040517f08c379a00000000000000000000000000000000000000000000000000000000081526004016118a4906134d7565b60405180910390fd5b6118b56123f8565b7ffffffffffffffffffffffffffffffffffffffffffffffffffffffffefffffc2f806118e4576118e36133bb565b5b826000600481106118f8576118f7613093565b5b60200201517ffffffffffffffffffffffffffffffffffffffffffffffffffffffffefffffc2f6119289190613457565b8360026004811061193c5761193b613093565b5b6020020151088160006004811061195657611955613093565b5b6020020181815250507ffffffffffffffffffffffffffffffffffffffffffffffffffffffffefffffc2f8061198e5761198d6133bb565b5b826001600481106119a2576119a1613093565b5b60200201517ffffffffffffffffffffffffffffffffffffffffffffffffffffffffefffffc2f6119d29190613457565b836003600481106119e6576119e5613093565b5b60200201510881600160048110611a00576119ff613093565b5b6020020181815250507ffffffffffffffffffffffffffffffffffffffffffffffffffffffffefffffc2f80611a3857611a376133bb565b5b81600060048110611a4c57611a4b613093565b5b602002015182600060048110611a6557611a64613093565b5b60200201510981600260048110611a7f57611a7e613093565b5b6020020181815250507ffffffffffffffffffffffffffffffffffffffffffffffffffffffffefffffc2f80611ab757611ab66133bb565b5b81600060048110611acb57611aca613093565b5b602002015182600260048110611ae457611ae3613093565b5b60200201510981600360048110611afe57611afd613093565b5b60200201818152505060007ffffffffffffffffffffffffffffffffffffffffffffffffffffffffefffffc2f80611b3857611b376133bb565b5b82600360048110611b4c57611b4b613093565b5b60200201517ffffffffffffffffffffffffffffffffffffffffffffffffffffffffefffffc2f611b7c9190613457565b7ffffffffffffffffffffffffffffffffffffffffffffffffffffffffefffffc2f80611bab57611baa6133bb565b5b84600160048110611bbf57611bbe613093565b5b602002015185600160048110611bd857611bd7613093565b5b6020020151090890507ffffffffffffffffffffffffffffffffffffffffffffffffffffffffefffffc2f80611c1057611c0f6133bb565b5b7ffffffffffffffffffffffffffffffffffffffffffffffffffffffffefffffc2f80611c3f57611c3e6133bb565b5b7ffffffffffffffffffffffffffffffffffffffffffffffffffffffffefffffc2f80611c6e57611c6d6133bb565b5b84600260048110611c8257611c81613093565b5b602002015186600060048110611c9b57611c9a613093565b5b6020020151096002097ffffffffffffffffffffffffffffffffffffffffffffffffffffffffefffffc2f611ccf9190613457565b8208905060007ffffffffffffffffffffffffffffffffffffffffffffffffffffffffefffffc2f80611d0457611d036133bb565b5b7ffffffffffffffffffffffffffffffffffffffffffffffffffffffffefffffc2f80611d3357611d326133bb565b5b837ffffffffffffffffffffffffffffffffffffffffffffffffffffffffefffffc2f611d5f9190613457565b7ffffffffffffffffffffffffffffffffffffffffffffffffffffffffefffffc2f80611d8e57611d8d6133bb565b5b86600260048110611da257611da1613093565b5b602002015188600060048110611dbb57611dba613093565b5b6020020151090884600160048110611dd657611dd5613093565b5b60200201510990507ffffffffffffffffffffffffffffffffffffffffffffffffffffffffefffffc2f80611e0d57611e0c6133bb565b5b7ffffffffffffffffffffffffffffffffffffffffffffffffffffffffefffffc2f80611e3c57611e3b6133bb565b5b84600360048110611e5057611e4f613093565b5b602002015186600160048110611e6957611e68613093565b5b6020020151097ffffffffffffffffffffffffffffffffffffffffffffffffffffffffefffffc2f611e9a9190613457565b8208905060007ffffffffffffffffffffffffffffffffffffffffffffffffffffffffefffffc2f80611ecf57611ece6133bb565b5b7ffffffffffffffffffffffffffffffffffffffffffffffffffffffffefffffc2f80611efe57611efd6133bb565b5b8a8e0985600060048110611f1557611f14613093565b5b602002015109905082828297509750975050505050505b96509650969350505050565b611f406123de565b6000611f4b83612178565b905060007ffffffffffffffffffffffffffffffffffffffffffffffffffffffffefffffc2f80611f7e57611f7d6133bb565b5b828309905060007ffffffffffffffffffffffffffffffffffffffffffffffffffffffffefffffc2f80611fb457611fb36133bb565b5b828809905060007ffffffffffffffffffffffffffffffffffffffffffffffffffffffffefffffc2f80611fea57611fe96133bb565b5b7ffffffffffffffffffffffffffffffffffffffffffffffffffffffffefffffc2f80612019576120186133bb565b5b848609880990506040518060400160405280838152602001828152509450505050509392505050565b600080600080870361205c578585859250925092506120d2565b60008790506000806000600190505b600084146120c457600060018516146120995761208c8383838d8d8d6114fa565b8093508194508295505050505b6002846120a691906134f7565b93506120b38a8a8a61107d565b809a50819b50829c5050505061206b565b828282965096509650505050505b9450945094915050565b6120e46123de565b6040518060400160405280836000015181526020017ffffffffffffffffffffffffffffffffffffffffffffffffffffffffefffffc2f84602001517ffffffffffffffffffffffffffffffffffffffffffffffffffffffffefffffc2f61214a9190613457565b6121549190613528565b8152509050919050565b6121758161216d612323612344565b63ffffffff16565b50565b60008082141580156121aa57507ffffffffffffffffffffffffffffffffffffffffffffffffffffffffefffffc2f8214155b80156121d7575060007ffffffffffffffffffffffffffffffffffffffffffffffffffffffffefffffc2f14155b612216576040517f08c379a000000000000000000000000000000000000000000000000000000000815260040161220d906135a5565b60405180910390fd5b6000806001905060007ffffffffffffffffffffffffffffffffffffffffffffffffffffffffefffffc2f905060005b6000861461231757858261225991906134f7565b9050827ffffffffffffffffffffffffffffffffffffffffffffffffffffffffefffffc2f8061228b5761228a6133bb565b5b7ffffffffffffffffffffffffffffffffffffffffffffffffffffffffefffffc2f806122ba576122b96133bb565b5b8584097ffffffffffffffffffffffffffffffffffffffffffffffffffffffffefffffc2f6122e89190613457565b860880945081955050508586826122ff91906135c5565b8361230a9190613457565b8097508193505050612245565b83945050505050919050565b60006a636f6e736f6c652e6c6f679050600080835160208501845afa505050565b61241a819050919050565b828054828255906000526020600020908101928215612397579160200282015b8281111561239657825182908161238691906137b3565b509160200191906001019061236f565b5b5090506123a49190612424565b5090565b6040518060c001604052806000815260200160008152602001600081526020016000815260200160008152602001600081525090565b604051806040016040528060008152602001600081525090565b6040518060800160405280600490602082028036833780820191505090505090565b612422613885565b565b5b80821115612444576000818161243b9190612448565b50600101612425565b5090565b50805461245490612ef8565b6000825580601f106124665750612485565b601f0160209004906000526020600020908101906124849190612488565b5b50565b5b808211156124a1576000816000905550600101612489565b5090565b6000819050919050565b6124b8816124a5565b82525050565b60006020820190506124d360008301846124af565b92915050565b600081519050919050565b600082825260208201905092915050565b6000819050602082019050919050565b600081519050919050565b600082825260208201905092915050565b60005b8381101561253f578082015181840152602081019050612524565b60008484015250505050565b6000601f19601f8301169050919050565b600061256782612505565b6125718185612510565b9350612581818560208601612521565b61258a8161254b565b840191505092915050565b60006125a1838361255c565b905092915050565b6000602082019050919050565b60006125c1826124d9565b6125cb81856124e4565b9350836020820285016125dd856124f5565b8060005b8581101561261957848403895281516125fa8582612595565b9450612605836125a9565b925060208a019950506001810190506125e1565b50829750879550505050505092915050565b6000602082019050818103600083015261264581846125b6565b905092915050565b6000604051905090565b600080fd5b600080fd5b600080fd5b7f4e487b7100000000000000000000000000000000000000000000000000000000600052604160045260246000fd5b61269e8261254b565b810181811067ffffffffffffffff821117156126bd576126bc612666565b5b80604052505050565b60006126d061264d565b90506126dc8282612695565b919050565b600067ffffffffffffffff8211156126fc576126fb612666565b5b602082029050602081019050919050565b600080fd5b600080fd5b600067ffffffffffffffff82111561273257612731612666565b5b61273b8261254b565b9050602081019050919050565b82818337600083830152505050565b600061276a61276584612717565b6126c6565b90508281526020810184848401111561278657612785612712565b5b612791848285612748565b509392505050565b600082601f8301126127ae576127ad612661565b5b81356127be848260208601612757565b91505092915050565b60006127da6127d5846126e1565b6126c6565b905080838252602082019050602084028301858111156127fd576127fc61270d565b5b835b8181101561284457803567ffffffffffffffff81111561282257612821612661565b5b80860161282f8982612799565b855260208501945050506020810190506127ff565b5050509392505050565b600082601f83011261286357612862612661565b5b81356128738482602086016127c7565b91505092915050565b60006020828403121561289257612891612657565b5b600082013567ffffffffffffffff8111156128b0576128af61265c565b5b6128bc8482850161284e565b91505092915050565b7f4e487b7100000000000000000000000000000000000000000000000000000000600052602160045260246000fd5b60058110612905576129046128c5565b5b50565b6000819050612916826128f4565b919050565b600061292682612908565b9050919050565b6129368161291b565b82525050565b6000602082019050612951600083018461292d565b92915050565b612960816124a5565b811461296b57600080fd5b50565b60008135905061297d81612957565b92915050565b6000806000806080858703121561299d5761299c612657565b5b60006129ab8782880161296e565b94505060206129bc8782880161296e565b93505060406129cd8782880161296e565b92505060606129de8782880161296e565b91505092959194509250565b600081519050919050565b600082825260208201905092915050565b6000819050602082019050919050565b612a1f816124a5565b82525050565b604082016000820151612a3b6000850182612a16565b506020820151612a4e6020850182612a16565b50505050565b604082016000820151612a6a6000850182612a16565b506020820151612a7d6020850182612a16565b50505050565b608082016000820151612a996000850182612a25565b506020820151612aac6040850182612a54565b50505050565b6000612abe8383612a83565b60808301905092915050565b6000602082019050919050565b6000612ae2826129ea565b612aec81856129f5565b9350612af783612a06565b8060005b83811015612b28578151612b0f8882612ab2565b9750612b1a83612aca565b925050600181019050612afb565b5085935050505092915050565b60006020820190508181036000830152612b4f8184612ad7565b905092915050565b600060208284031215612b6d57612b6c612657565b5b6000612b7b8482850161296e565b91505092915050565b600082825260208201905092915050565b6000612ba082612505565b612baa8185612b84565b9350612bba818560208601612521565b612bc38161254b565b840191505092915050565b60006020820190508181036000830152612be88184612b95565b905092915050565b600067ffffffffffffffff821115612c0b57612c0a612666565b5b602082029050602081019050919050565b600080fd5b600060408284031215612c3757612c36612c1c565b5b612c4160406126c6565b90506000612c518482850161296e565b6000830152506020612c658482850161296e565b60208301525092915050565b6000612c84612c7f84612bf0565b6126c6565b90508083825260208201905060408402830185811115612ca757612ca661270d565b5b835b81811015612cd05780612cbc8882612c21565b845260208401935050604081019050612ca9565b5050509392505050565b600082601f830112612cef57612cee612661565b5b8135612cff848260208601612c71565b91505092915050565b600060208284031215612d1e57612d1d612657565b5b600082013567ffffffffffffffff811115612d3c57612d3b61265c565b5b612d4884828501612cda565b91505092915050565b604082016000820151612d676000850182612a16565b506020820151612d7a6020850182612a16565b50505050565b604082016000820151612d966000850182612a16565b506020820151612da96020850182612a16565b50505050565b6000608082019050612dc46000830185612d51565b612dd16040830184612d80565b9392505050565b60c082016000820151612dee6000850182612a16565b506020820151612e016020850182612a16565b506040820151612e146040850182612a16565b506060820151612e276060850182612a16565b506080820151612e3a6080850182612a16565b5060a0820151612e4d60a0850182612a16565b50505050565b600060c082019050612e686000830184612dd8565b92915050565b60008060408385031215612e8557612e84612657565b5b6000612e938582860161296e565b9250506020612ea48582860161296e565b9150509250929050565b6000604082019050612ec36000830184612d51565b92915050565b7f4e487b7100000000000000000000000000000000000000000000000000000000600052602260045260246000fd5b60006002820490506001821680612f1057607f821691505b602082108103612f2357612f22612ec9565b5b50919050565b7f456c656374696f6e206973206e6f7420696e2073657475702070686173650000600082015250565b6000612f5f601e83612b84565b9150612f6a82612f29565b602082019050919050565b60006020820190508181036000830152612f8e81612f52565b9050919050565b7f4174206c656173742074776f2063616e6469646174657320617265207265717560008201527f6972656400000000000000000000000000000000000000000000000000000000602082015250565b6000612ff1602483612b84565b9150612ffc82612f95565b604082019050919050565b6000602082019050818103600083015261302081612fe4565b9050919050565b7f496e76616c6964206b65792070726f6f66000000000000000000000000000000600082015250565b600061305d601183612b84565b915061306882613027565b602082019050919050565b6000602082019050818103600083015261308c81613050565b9050919050565b7f4e487b7100000000000000000000000000000000000000000000000000000000600052603260045260246000fd5b7f417574686f7269747920616c7265616479207265676973746572656400000000600082015250565b60006130f8601c83612b84565b9150613103826130c2565b602082019050919050565b60006020820190508181036000830152613127816130eb565b9050919050565b7f50726f6f6620616c726561647920726567697374657265640000000000000000600082015250565b6000613164601883612b84565b915061316f8261312e565b602082019050919050565b6000602082019050818103600083015261319381613157565b9050919050565b60006080820190506131af60008301876124af565b6131bc60208301866124af565b6131c960408301856124af565b6131d660608301846124af565b95945050505050565b7f4e6f20706f696e74732070726f76696465640000000000000000000000000000600082015250565b6000613215601283612b84565b9150613220826131df565b602082019050919050565b6000602082019050818103600083015261324481613208565b9050919050565b6000819050919050565b613266613261826124a5565b61324b565b82525050565b600081905092915050565b7f2c00000000000000000000000000000000000000000000000000000000000000600082015250565b60006132ad60018361326c565b91506132b882613277565b600182019050919050565b60006132cf8285613255565b6020820191506132de826132a0565b91506132ea8284613255565b6020820191508190509392505050565b600081519050919050565b600081905092915050565b600061331b826132fa565b6133258185613305565b9350613335818560208601612521565b80840191505092915050565b600061334d8284613310565b915081905092915050565b6000819050919050565b61336b81613358565b811461337657600080fd5b50565b60008151905061338881613362565b92915050565b6000602082840312156133a4576133a3612657565b5b60006133b284828501613379565b91505092915050565b7f4e487b7100000000000000000000000000000000000000000000000000000000600052601260045260246000fd5b600060608201905081810360008301526134048186612b95565b905061341360208301856124af565b61342060408301846124af565b949350505050565b7f4e487b7100000000000000000000000000000000000000000000000000000000600052601160045260246000fd5b6000613462826124a5565b915061346d836124a5565b925082820390508181111561348557613484613428565b5b92915050565b7f557365206a6163446f75626c652066756e6374696f6e20696e73746561640000600082015250565b60006134c1601e83612b84565b91506134cc8261348b565b602082019050919050565b600060208201905081810360008301526134f0816134b4565b9050919050565b6000613502826124a5565b915061350d836124a5565b92508261351d5761351c6133bb565b5b828204905092915050565b6000613533826124a5565b915061353e836124a5565b92508261354e5761354d6133bb565b5b828206905092915050565b7f496e76616c6964206e756d626572000000000000000000000000000000000000600082015250565b600061358f600e83612b84565b915061359a82613559565b602082019050919050565b600060208201905081810360008301526135be81613582565b9050919050565b60006135d0826124a5565b91506135db836124a5565b92508282026135e9816124a5565b91508282048414831517613600576135ff613428565b5b5092915050565b60008190508160005260206000209050919050565b60006020601f8301049050919050565b600082821b905092915050565b6000600883026136697fffffffffffffffffffffffffffffffffffffffffffffffffffffffffffffffff8261362c565b613673868361362c565b95508019841693508086168417925050509392505050565b6000819050919050565b60006136b06136ab6136a6846124a5565b61368b565b6124a5565b9050919050565b6000819050919050565b6136ca83613695565b6136de6136d6826136b7565b848454613639565b825550505050565b600090565b6136f36136e6565b6136fe8184846136c1565b505050565b5b81811015613722576137176000826136eb565b600181019050613704565b5050565b601f8211156137675761373881613607565b6137418461361c565b81016020851015613750578190505b61376461375c8561361c565b830182613703565b50505b505050565b600082821c905092915050565b600061378a6000198460080261376c565b1980831691505092915050565b60006137a38383613779565b9150826002028217905092915050565b6137bc82612505565b67ffffffffffffffff8111156137d5576137d4612666565b5b6137df8254612ef8565b6137ea828285613726565b600060209050601f83116001811461381d576000841561380b578287015190505b6138158582613797565b86555061387d565b601f19841661382b86613607565b60005b828110156138535784890151825560018201915060208501945060208101905061382e565b86831015613870578489015161386c601f891682613779565b8355505b6001600288020188555050505b505050505050565b7f4e487b7100000000000000000000000000000000000000000000000000000000600052605160045260246000fdfea2646970667358221220dcdb3d84aa9bbee664aa29cbaa7c75d32ffa4b4e432107b17f184cf2b1c689cb64736f6c634300081c0033","opcodes":"PUSH1 0x80 PUSH1 0x40 MSTORE PUSH1 0x0 PUSH1 0x1 PUSH1 0x0 PUSH2 0x100 EXP DUP2 SLOAD DUP2 PUSH1 0xFF MUL NOT AND SWAP1 DUP4 PUSH1 0x4 DUP2 GT ISZERO PUSH1 0x27 JUMPI PUSH1 0x26 PUSH1 0x3C JUMP JUMPDEST JUMPDEST MUL OR SWAP1 SSTORE POP CALLVALUE DUP1 ISZERO PUSH1 0x37 JUMPI PUSH1 0x0 DUP1 REVERT JUMPDEST POP PUSH1 0x6B JUMP JUMPDEST PUSH32 0x4E487B7100000000000000000000000000000000000000000000000000000000 PUSH1 0x0 MSTORE PUSH1 0x21 PUSH1 0x4 MSTORE PUSH1 0x24 PUSH1 0x0 REVERT JUMPDEST PUSH2 0x38EA DUP1 PUSH2 0x7A PUSH1 0x0 CODECOPY PUSH1 0x0 RETURN INVALID PUSH1 0x80 PUSH1 0x40 MSTORE CALLVALUE DUP1 ISZERO PUSH2 0x10 JUMPI PUSH1 0x0 DUP1 REVERT JUMPDEST POP PUSH1 0x4 CALLDATASIZE LT PUSH2 0x10B JUMPI PUSH1 0x0 CALLDATALOAD PUSH1 0xE0 SHR DUP1 PUSH4 0x3477EE2E GT PUSH2 0xA2 JUMPI DUP1 PUSH4 0x7A308A4C GT PUSH2 0x71 JUMPI DUP1 PUSH4 0x7A308A4C EQ PUSH2 0x2AB JUMPI DUP1 PUSH4 0x8B8FBD92 EQ PUSH2 0x2C9 JUMPI DUP1 PUSH4 0xB3BF5495 EQ PUSH2 0x2E7 JUMPI DUP1 PUSH4 0xC9E525DF EQ PUSH2 0x317 JUMPI DUP1 PUSH4 0xF446C1D0 EQ PUSH2 0x335 JUMPI PUSH2 0x10B JUMP JUMPDEST DUP1 PUSH4 0x3477EE2E EQ PUSH2 0x1FC JUMPI DUP1 PUSH4 0x477DECC0 EQ PUSH2 0x22C JUMPI DUP1 PUSH4 0x494503D4 EQ PUSH2 0x25C JUMPI DUP1 PUSH4 0x6B7A524F EQ PUSH2 0x28D JUMPI PUSH2 0x10B JUMP JUMPDEST DUP1 PUSH4 0x200D2ED2 GT PUSH2 0xDE JUMPI DUP1 PUSH4 0x200D2ED2 EQ PUSH2 0x186 JUMPI DUP1 PUSH4 0x24128A30 EQ PUSH2 0x1A4 JUMPI DUP1 PUSH4 0x27B383B1 EQ PUSH2 0x1C0 JUMPI DUP1 PUSH4 0x32E7C5BF EQ PUSH2 0x1DE JUMPI PUSH2 0x10B JUMP JUMPDEST DUP1 PUSH4 0x3A507BE EQ PUSH2 0x110 JUMPI DUP1 PUSH4 0x6A49FCE EQ PUSH2 0x12E JUMPI DUP1 PUSH4 0xDD3849C EQ PUSH2 0x14C JUMPI DUP1 PUSH4 0x14E745D9 EQ PUSH2 0x16A JUMPI JUMPDEST PUSH1 0x0 DUP1 REVERT JUMPDEST PUSH2 0x118 PUSH2 0x353 JUMP JUMPDEST PUSH1 0x40 MLOAD PUSH2 0x125 SWAP2 SWAP1 PUSH2 0x24BE JUMP JUMPDEST PUSH1 0x40 MLOAD DUP1 SWAP2 SUB SWAP1 RETURN JUMPDEST PUSH2 0x136 PUSH2 0x377 JUMP JUMPDEST PUSH1 0x40 MLOAD PUSH2 0x143 SWAP2 SWAP1 PUSH2 0x262B JUMP JUMPDEST PUSH1 0x40 MLOAD DUP1 SWAP2 SUB SWAP1 RETURN JUMPDEST PUSH2 0x154 PUSH2 0x450 JUMP JUMPDEST PUSH1 0x40 MLOAD PUSH2 0x161 SWAP2 SWAP1 PUSH2 0x24BE JUMP JUMPDEST PUSH1 0x40 MLOAD DUP1 SWAP2 SUB SWAP1 RETURN JUMPDEST PUSH2 0x184 PUSH1 0x4 DUP1 CALLDATASIZE SUB DUP2 ADD SWAP1 PUSH2 0x17F SWAP2 SWAP1 PUSH2 0x287C JUMP JUMPDEST PUSH2 0x456 JUMP JUMPDEST STOP JUMPDEST PUSH2 0x18E PUSH2 0x58B JUMP JUMPDEST PUSH1 0x40 MLOAD PUSH2 0x19B SWAP2 SWAP1 PUSH2 0x293C JUMP JUMPDEST PUSH1 0x40 MLOAD DUP1 SWAP2 SUB SWAP1 RETURN JUMPDEST PUSH2 0x1BE PUSH1 0x4 DUP1 CALLDATASIZE SUB DUP2 ADD SWAP1 PUSH2 0x1B9 SWAP2 SWAP1 PUSH2 0x2983 JUMP JUMPDEST PUSH2 0x59E JUMP JUMPDEST STOP JUMPDEST PUSH2 0x1C8 PUSH2 0x8CE JUMP JUMPDEST PUSH1 0x40 MLOAD PUSH2 0x1D5 SWAP2 SWAP1 PUSH2 0x2B35 JUMP JUMPDEST PUSH1 0x40 MLOAD DUP1 SWAP2 SUB SWAP1 RETURN JUMPDEST PUSH2 0x1E6 PUSH2 0x97D JUMP JUMPDEST PUSH1 0x40 MLOAD PUSH2 0x1F3 SWAP2 SWAP1 PUSH2 0x24BE JUMP JUMPDEST PUSH1 0x40 MLOAD DUP1 SWAP2 SUB SWAP1 RETURN JUMPDEST PUSH2 0x216 PUSH1 0x4 DUP1 CALLDATASIZE SUB DUP2 ADD SWAP1 PUSH2 0x211 SWAP2 SWAP1 PUSH2 0x2B57 JUMP JUMPDEST PUSH2 0x982 JUMP JUMPDEST PUSH1 0x40 MLOAD PUSH2 0x223 SWAP2 SWAP1 PUSH2 0x2BCE JUMP JUMPDEST PUSH1 0x40 MLOAD DUP1 SWAP2 SUB SWAP1 RETURN JUMPDEST PUSH2 0x246 PUSH1 0x4 DUP1 CALLDATASIZE SUB DUP2 ADD SWAP1 PUSH2 0x241 SWAP2 SWAP1 PUSH2 0x2D08 JUMP JUMPDEST PUSH2 0xA2E JUMP JUMPDEST PUSH1 0x40 MLOAD PUSH2 0x253 SWAP2 SWAP1 PUSH2 0x24BE JUMP JUMPDEST PUSH1 0x40 MLOAD DUP1 SWAP2 SUB SWAP1 RETURN JUMPDEST PUSH2 0x276 PUSH1 0x4 DUP1 CALLDATASIZE SUB DUP2 ADD SWAP1 PUSH2 0x271 SWAP2 SWAP1 PUSH2 0x2B57 JUMP JUMPDEST PUSH2 0xB5B JUMP JUMPDEST PUSH1 0x40 MLOAD PUSH2 0x284 SWAP3 SWAP2 SWAP1 PUSH2 0x2DAF JUMP JUMPDEST PUSH1 0x40 MLOAD DUP1 SWAP2 SUB SWAP1 RETURN JUMPDEST PUSH2 0x295 PUSH2 0xBCB JUMP JUMPDEST PUSH1 0x40 MLOAD PUSH2 0x2A2 SWAP2 SWAP1 PUSH2 0x2E53 JUMP JUMPDEST PUSH1 0x40 MLOAD DUP1 SWAP2 SUB SWAP1 RETURN JUMPDEST PUSH2 0x2B3 PUSH2 0xC87 JUMP JUMPDEST PUSH1 0x40 MLOAD PUSH2 0x2C0 SWAP2 SWAP1 PUSH2 0x24BE JUMP JUMPDEST PUSH1 0x40 MLOAD DUP1 SWAP2 SUB SWAP1 RETURN JUMPDEST PUSH2 0x2D1 PUSH2 0xCAB JUMP JUMPDEST PUSH1 0x40 MLOAD PUSH2 0x2DE SWAP2 SWAP1 PUSH2 0x24BE JUMP JUMPDEST PUSH1 0x40 MLOAD DUP1 SWAP2 SUB SWAP1 RETURN JUMPDEST PUSH2 0x301 PUSH1 0x4 DUP1 CALLDATASIZE SUB DUP2 ADD SWAP1 PUSH2 0x2FC SWAP2 SWAP1 PUSH2 0x2E6E JUMP JUMPDEST PUSH2 0xCCF JUMP JUMPDEST PUSH1 0x40 MLOAD PUSH2 0x30E SWAP2 SWAP1 PUSH2 0x2EAE JUMP JUMPDEST PUSH1 0x40 MLOAD DUP1 SWAP2 SUB SWAP1 RETURN JUMPDEST PUSH2 0x31F PUSH2 0xCF4 JUMP JUMPDEST PUSH1 0x40 MLOAD PUSH2 0x32C SWAP2 SWAP1 PUSH2 0x24BE JUMP JUMPDEST PUSH1 0x40 MLOAD DUP1 SWAP2 SUB SWAP1 RETURN JUMPDEST PUSH2 0x33D PUSH2 0xD18 JUMP JUMPDEST PUSH1 0x40 MLOAD PUSH2 0x34A SWAP2 SWAP1 PUSH2 0x24BE JUMP JUMPDEST PUSH1 0x40 MLOAD DUP1 SWAP2 SUB SWAP1 RETURN JUMPDEST PUSH32 0x79BE667EF9DCBBAC55A06295CE870B07029BFCDB2DCE28D959F2815B16F81798 DUP2 JUMP JUMPDEST PUSH1 0x60 PUSH1 0x0 DUP1 SLOAD DUP1 PUSH1 0x20 MUL PUSH1 0x20 ADD PUSH1 0x40 MLOAD SWAP1 DUP2 ADD PUSH1 0x40 MSTORE DUP1 SWAP3 SWAP2 SWAP1 DUP2 DUP2 MSTORE PUSH1 0x20 ADD PUSH1 0x0 SWAP1 JUMPDEST DUP3 DUP3 LT ISZERO PUSH2 0x447 JUMPI DUP4 DUP3 SWAP1 PUSH1 0x0 MSTORE PUSH1 0x20 PUSH1 0x0 KECCAK256 ADD DUP1 SLOAD PUSH2 0x3BA SWAP1 PUSH2 0x2EF8 JUMP JUMPDEST DUP1 PUSH1 0x1F ADD PUSH1 0x20 DUP1 SWAP2 DIV MUL PUSH1 0x20 ADD PUSH1 0x40 MLOAD SWAP1 DUP2 ADD PUSH1 0x40 MSTORE DUP1 SWAP3 SWAP2 SWAP1 DUP2 DUP2 MSTORE PUSH1 0x20 ADD DUP3 DUP1 SLOAD PUSH2 0x3E6 SWAP1 PUSH2 0x2EF8 JUMP JUMPDEST DUP1 ISZERO PUSH2 0x433 JUMPI DUP1 PUSH1 0x1F LT PUSH2 0x408 JUMPI PUSH2 0x100 DUP1 DUP4 SLOAD DIV MUL DUP4 MSTORE SWAP2 PUSH1 0x20 ADD SWAP2 PUSH2 0x433 JUMP JUMPDEST DUP3 ADD SWAP2 SWAP1 PUSH1 0x0 MSTORE PUSH1 0x20 PUSH1 0x0 KECCAK256 SWAP1 JUMPDEST DUP2 SLOAD DUP2 MSTORE SWAP1 PUSH1 0x1 ADD SWAP1 PUSH1 0x20 ADD DUP1 DUP4 GT PUSH2 0x416 JUMPI DUP3 SWAP1 SUB PUSH1 0x1F AND DUP3 ADD SWAP2 JUMPDEST POP POP POP POP POP DUP2 MSTORE PUSH1 0x20 ADD SWAP1 PUSH1 0x1 ADD SWAP1 PUSH2 0x39B JUMP JUMPDEST POP POP POP POP SWAP1 POP SWAP1 JUMP JUMPDEST PUSH1 0x3 SLOAD DUP2 JUMP JUMPDEST PUSH1 0x0 PUSH1 0x4 DUP2 GT ISZERO PUSH2 0x46A JUMPI PUSH2 0x469 PUSH2 0x28C5 JUMP JUMPDEST JUMPDEST PUSH1 0x1 PUSH1 0x0 SWAP1 SLOAD SWAP1 PUSH2 0x100 EXP SWAP1 DIV PUSH1 0xFF AND PUSH1 0x4 DUP2 GT ISZERO PUSH2 0x48C JUMPI PUSH2 0x48B PUSH2 0x28C5 JUMP JUMPDEST JUMPDEST EQ PUSH2 0x4CC JUMPI PUSH1 0x40 MLOAD PUSH32 0x8C379A000000000000000000000000000000000000000000000000000000000 DUP2 MSTORE PUSH1 0x4 ADD PUSH2 0x4C3 SWAP1 PUSH2 0x2F75 JUMP JUMPDEST PUSH1 0x40 MLOAD DUP1 SWAP2 SUB SWAP1 REVERT JUMPDEST PUSH1 0x1 DUP2 MLOAD GT PUSH2 0x510 JUMPI PUSH1 0x40 MLOAD PUSH32 0x8C379A000000000000000000000000000000000000000000000000000000000 DUP2 MSTORE PUSH1 0x4 ADD PUSH2 0x507 SWAP1 PUSH2 0x3007 JUMP JUMPDEST PUSH1 0x40 MLOAD DUP1 SWAP2 SUB SWAP1 REVERT JUMPDEST DUP1 PUSH1 0x0 SWAP1 DUP1 MLOAD SWAP1 PUSH1 0x20 ADD SWAP1 PUSH2 0x526 SWAP3 SWAP2 SWAP1 PUSH2 0x234F JUMP JUMPDEST POP PUSH1 0x1 DUP1 PUSH1 0x0 PUSH2 0x100 EXP DUP2 SLOAD DUP2 PUSH1 0xFF MUL NOT AND SWAP1 DUP4 PUSH1 0x4 DUP2 GT ISZERO PUSH2 0x54C JUMPI PUSH2 0x54B PUSH2 0x28C5 JUMP JUMPDEST JUMPDEST MUL OR SWAP1 SSTORE POP PUSH32 0xA952E3C6144635FAC7EA60DC1B7AE16DD42AA94E258F879C17E7705C3BFA1B41 DUP2 PUSH1 0x40 MLOAD PUSH2 0x580 SWAP2 SWAP1 PUSH2 0x262B JUMP JUMPDEST PUSH1 0x40 MLOAD DUP1 SWAP2 SUB SWAP1 LOG1 POP JUMP JUMPDEST PUSH1 0x1 PUSH1 0x0 SWAP1 SLOAD SWAP1 PUSH2 0x100 EXP SWAP1 DIV PUSH1 0xFF AND DUP2 JUMP JUMPDEST PUSH1 0x0 PUSH1 0x4 DUP2 GT ISZERO PUSH2 0x5B2 JUMPI PUSH2 0x5B1 PUSH2 0x28C5 JUMP JUMPDEST JUMPDEST PUSH1 0x1 PUSH1 0x0 SWAP1 SLOAD SWAP1 PUSH2 0x100 EXP SWAP1 DIV PUSH1 0xFF AND PUSH1 0x4 DUP2 GT ISZERO PUSH2 0x5D4 JUMPI PUSH2 0x5D3 PUSH2 0x28C5 JUMP JUMPDEST JUMPDEST EQ PUSH2 0x614 JUMPI PUSH1 0x40 MLOAD PUSH32 0x8C379A000000000000000000000000000000000000000000000000000000000 DUP2 MSTORE PUSH1 0x4 ADD PUSH2 0x60B SWAP1 PUSH2 0x2F75 JUMP JUMPDEST PUSH1 0x40 MLOAD DUP1 SWAP2 SUB SWAP1 REVERT JUMPDEST PUSH1 0x0 PUSH1 0x40 MLOAD DUP1 PUSH1 0x40 ADD PUSH1 0x40 MSTORE DUP1 DUP7 DUP2 MSTORE PUSH1 0x20 ADD DUP6 DUP2 MSTORE POP SWAP1 POP PUSH1 0x0 PUSH1 0x40 MLOAD DUP1 PUSH1 0x40 ADD PUSH1 0x40 MSTORE DUP1 DUP6 DUP2 MSTORE PUSH1 0x20 ADD DUP5 DUP2 MSTORE POP SWAP1 POP PUSH2 0x650 DUP3 DUP3 PUSH2 0xD1D JUMP JUMPDEST PUSH2 0x68F JUMPI PUSH1 0x40 MLOAD PUSH32 0x8C379A000000000000000000000000000000000000000000000000000000000 DUP2 MSTORE PUSH1 0x4 ADD PUSH2 0x686 SWAP1 PUSH2 0x3073 JUMP JUMPDEST PUSH1 0x40 MLOAD DUP1 SWAP2 SUB SWAP1 REVERT JUMPDEST PUSH1 0x0 JUMPDEST PUSH1 0x2 DUP1 SLOAD SWAP1 POP DUP2 LT ISZERO PUSH2 0x7F8 JUMPI DUP3 PUSH1 0x0 ADD MLOAD PUSH1 0x2 DUP3 DUP2 SLOAD DUP2 LT PUSH2 0x6B8 JUMPI PUSH2 0x6B7 PUSH2 0x3093 JUMP JUMPDEST JUMPDEST SWAP1 PUSH1 0x0 MSTORE PUSH1 0x20 PUSH1 0x0 KECCAK256 SWAP1 PUSH1 0x4 MUL ADD PUSH1 0x0 ADD PUSH1 0x0 ADD SLOAD EQ ISZERO DUP1 PUSH2 0x706 JUMPI POP DUP3 PUSH1 0x20 ADD MLOAD PUSH1 0x2 DUP3 DUP2 SLOAD DUP2 LT PUSH2 0x6EE JUMPI PUSH2 0x6ED PUSH2 0x3093 JUMP JUMPDEST JUMPDEST SWAP1 PUSH1 0x0 MSTORE PUSH1 0x20 PUSH1 0x0 KECCAK256 SWAP1 PUSH1 0x4 MUL ADD PUSH1 0x0 ADD PUSH1 0x1 ADD SLOAD EQ ISZERO JUMPDEST PUSH2 0x745 JUMPI PUSH1 0x40 MLOAD PUSH32 0x8C379A000000000000000000000000000000000000000000000000000000000 DUP2 MSTORE PUSH1 0x4 ADD PUSH2 0x73C SWAP1 PUSH2 0x310E JUMP JUMPDEST PUSH1 0x40 MLOAD DUP1 SWAP2 SUB SWAP1 REVERT JUMPDEST DUP2 PUSH1 0x0 ADD MLOAD PUSH1 0x2 DUP3 DUP2 SLOAD DUP2 LT PUSH2 0x75E JUMPI PUSH2 0x75D PUSH2 0x3093 JUMP JUMPDEST JUMPDEST SWAP1 PUSH1 0x0 MSTORE PUSH1 0x20 PUSH1 0x0 KECCAK256 SWAP1 PUSH1 0x4 MUL ADD PUSH1 0x2 ADD PUSH1 0x0 ADD SLOAD EQ ISZERO DUP1 PUSH2 0x7AC JUMPI POP DUP2 PUSH1 0x20 ADD MLOAD PUSH1 0x2 DUP3 DUP2 SLOAD DUP2 LT PUSH2 0x794 JUMPI PUSH2 0x793 PUSH2 0x3093 JUMP JUMPDEST JUMPDEST SWAP1 PUSH1 0x0 MSTORE PUSH1 0x20 PUSH1 0x0 KECCAK256 SWAP1 PUSH1 0x4 MUL ADD PUSH1 0x2 ADD PUSH1 0x1 ADD SLOAD EQ ISZERO JUMPDEST PUSH2 0x7EB JUMPI PUSH1 0x40 MLOAD PUSH32 0x8C379A000000000000000000000000000000000000000000000000000000000 DUP2 MSTORE PUSH1 0x4 ADD PUSH2 0x7E2 SWAP1 PUSH2 0x317A JUMP JUMPDEST PUSH1 0x40 MLOAD DUP1 SWAP2 SUB SWAP1 REVERT JUMPDEST DUP1 DUP1 PUSH1 0x1 ADD SWAP2 POP POP PUSH2 0x692 JUMP JUMPDEST POP PUSH1 0x2 PUSH1 0x40 MLOAD DUP1 PUSH1 0x40 ADD PUSH1 0x40 MSTORE DUP1 DUP5 DUP2 MSTORE PUSH1 0x20 ADD DUP4 DUP2 MSTORE POP SWAP1 DUP1 PUSH1 0x1 DUP2 SLOAD ADD DUP1 DUP3 SSTORE DUP1 SWAP2 POP POP PUSH1 0x1 SWAP1 SUB SWAP1 PUSH1 0x0 MSTORE PUSH1 0x20 PUSH1 0x0 KECCAK256 SWAP1 PUSH1 0x4 MUL ADD PUSH1 0x0 SWAP1 SWAP2 SWAP1 SWAP2 SWAP1 SWAP2 POP PUSH1 0x0 DUP3 ADD MLOAD DUP2 PUSH1 0x0 ADD PUSH1 0x0 DUP3 ADD MLOAD DUP2 PUSH1 0x0 ADD SSTORE PUSH1 0x20 DUP3 ADD MLOAD DUP2 PUSH1 0x1 ADD SSTORE POP POP PUSH1 0x20 DUP3 ADD MLOAD DUP2 PUSH1 0x2 ADD PUSH1 0x0 DUP3 ADD MLOAD DUP2 PUSH1 0x0 ADD SSTORE PUSH1 0x20 DUP3 ADD MLOAD DUP2 PUSH1 0x1 ADD SSTORE POP POP POP POP PUSH32 0x1D6F49E3AAAD34DA407E317CE8124AB45CEE55ADE6A05228C4BA85C9E40807C6 DUP3 PUSH1 0x0 ADD MLOAD DUP4 PUSH1 0x20 ADD MLOAD DUP4 PUSH1 0x0 ADD MLOAD DUP5 PUSH1 0x20 ADD MLOAD PUSH1 0x40 MLOAD PUSH2 0x8BE SWAP5 SWAP4 SWAP3 SWAP2 SWAP1 PUSH2 0x319A JUMP JUMPDEST PUSH1 0x40 MLOAD DUP1 SWAP2 SUB SWAP1 LOG1 POP POP POP POP POP POP JUMP JUMPDEST PUSH1 0x60 PUSH1 0x2 DUP1 SLOAD DUP1 PUSH1 0x20 MUL PUSH1 0x20 ADD PUSH1 0x40 MLOAD SWAP1 DUP2 ADD PUSH1 0x40 MSTORE DUP1 SWAP3 SWAP2 SWAP1 DUP2 DUP2 MSTORE PUSH1 0x20 ADD PUSH1 0x0 SWAP1 JUMPDEST DUP3 DUP3 LT ISZERO PUSH2 0x974 JUMPI DUP4 DUP3 SWAP1 PUSH1 0x0 MSTORE PUSH1 0x20 PUSH1 0x0 KECCAK256 SWAP1 PUSH1 0x4 MUL ADD PUSH1 0x40 MLOAD DUP1 PUSH1 0x40 ADD PUSH1 0x40 MSTORE SWAP1 DUP2 PUSH1 0x0 DUP3 ADD PUSH1 0x40 MLOAD DUP1 PUSH1 0x40 ADD PUSH1 0x40 MSTORE SWAP1 DUP2 PUSH1 0x0 DUP3 ADD SLOAD DUP2 MSTORE PUSH1 0x20 ADD PUSH1 0x1 DUP3 ADD SLOAD DUP2 MSTORE POP POP DUP2 MSTORE PUSH1 0x20 ADD PUSH1 0x2 DUP3 ADD PUSH1 0x40 MLOAD DUP1 PUSH1 0x40 ADD PUSH1 0x40 MSTORE SWAP1 DUP2 PUSH1 0x0 DUP3 ADD SLOAD DUP2 MSTORE PUSH1 0x20 ADD PUSH1 0x1 DUP3 ADD SLOAD DUP2 MSTORE POP POP DUP2 MSTORE POP POP DUP2 MSTORE PUSH1 0x20 ADD SWAP1 PUSH1 0x1 ADD SWAP1 PUSH2 0x8F2 JUMP JUMPDEST POP POP POP POP SWAP1 POP SWAP1 JUMP JUMPDEST PUSH1 0x7 DUP2 JUMP JUMPDEST PUSH1 0x0 DUP2 DUP2 SLOAD DUP2 LT PUSH2 0x992 JUMPI PUSH1 0x0 DUP1 REVERT JUMPDEST SWAP1 PUSH1 0x0 MSTORE PUSH1 0x20 PUSH1 0x0 KECCAK256 ADD PUSH1 0x0 SWAP2 POP SWAP1 POP DUP1 SLOAD PUSH2 0x9AD SWAP1 PUSH2 0x2EF8 JUMP JUMPDEST DUP1 PUSH1 0x1F ADD PUSH1 0x20 DUP1 SWAP2 DIV MUL PUSH1 0x20 ADD PUSH1 0x40 MLOAD SWAP1 DUP2 ADD PUSH1 0x40 MSTORE DUP1 SWAP3 SWAP2 SWAP1 DUP2 DUP2 MSTORE PUSH1 0x20 ADD DUP3 DUP1 SLOAD PUSH2 0x9D9 SWAP1 PUSH2 0x2EF8 JUMP JUMPDEST DUP1 ISZERO PUSH2 0xA26 JUMPI DUP1 PUSH1 0x1F LT PUSH2 0x9FB JUMPI PUSH2 0x100 DUP1 DUP4 SLOAD DIV MUL DUP4 MSTORE SWAP2 PUSH1 0x20 ADD SWAP2 PUSH2 0xA26 JUMP JUMPDEST DUP3 ADD SWAP2 SWAP1 PUSH1 0x0 MSTORE PUSH1 0x20 PUSH1 0x0 KECCAK256 SWAP1 JUMPDEST DUP2 SLOAD DUP2 MSTORE SWAP1 PUSH1 0x1 ADD SWAP1 PUSH1 0x20 ADD DUP1 DUP4 GT PUSH2 0xA09 JUMPI DUP3 SWAP1 SUB PUSH1 0x1F AND DUP3 ADD SWAP2 JUMPDEST POP POP POP POP POP DUP2 JUMP JUMPDEST PUSH1 0x0 DUP1 DUP3 MLOAD GT PUSH2 0xA73 JUMPI PUSH1 0x40 MLOAD PUSH32 0x8C379A000000000000000000000000000000000000000000000000000000000 DUP2 MSTORE PUSH1 0x4 ADD PUSH2 0xA6A SWAP1 PUSH2 0x322B JUMP JUMPDEST PUSH1 0x40 MLOAD DUP1 SWAP2 SUB SWAP1 REVERT JUMPDEST PUSH1 0x0 DUP3 PUSH1 0x0 DUP2 MLOAD DUP2 LT PUSH2 0xA89 JUMPI PUSH2 0xA88 PUSH2 0x3093 JUMP JUMPDEST JUMPDEST PUSH1 0x20 MUL PUSH1 0x20 ADD ADD MLOAD SWAP1 POP PUSH1 0x0 PUSH1 0x1 SWAP1 POP JUMPDEST DUP4 MLOAD DUP2 LT ISZERO PUSH2 0xAD6 JUMPI PUSH2 0xAC7 DUP3 DUP6 DUP4 DUP2 MLOAD DUP2 LT PUSH2 0xABA JUMPI PUSH2 0xAB9 PUSH2 0x3093 JUMP JUMPDEST JUMPDEST PUSH1 0x20 MUL PUSH1 0x20 ADD ADD MLOAD PUSH2 0xE98 JUMP JUMPDEST SWAP2 POP DUP1 DUP1 PUSH1 0x1 ADD SWAP2 POP POP PUSH2 0xA9A JUMP JUMPDEST POP PUSH1 0x2 DUP2 PUSH1 0x0 ADD MLOAD DUP3 PUSH1 0x20 ADD MLOAD PUSH1 0x40 MLOAD PUSH1 0x20 ADD PUSH2 0xAF4 SWAP3 SWAP2 SWAP1 PUSH2 0x32C3 JUMP JUMPDEST PUSH1 0x40 MLOAD PUSH1 0x20 DUP2 DUP4 SUB SUB DUP2 MSTORE SWAP1 PUSH1 0x40 MSTORE PUSH1 0x40 MLOAD PUSH2 0xB10 SWAP2 SWAP1 PUSH2 0x3341 JUMP JUMPDEST PUSH1 0x20 PUSH1 0x40 MLOAD DUP1 DUP4 SUB DUP2 DUP6 GAS STATICCALL ISZERO DUP1 ISZERO PUSH2 0xB2D JUMPI RETURNDATASIZE PUSH1 0x0 DUP1 RETURNDATACOPY RETURNDATASIZE PUSH1 0x0 REVERT JUMPDEST POP POP POP PUSH1 0x40 MLOAD RETURNDATASIZE PUSH1 0x1F NOT PUSH1 0x1F DUP3 ADD AND DUP3 ADD DUP1 PUSH1 0x40 MSTORE POP DUP2 ADD SWAP1 PUSH2 0xB50 SWAP2 SWAP1 PUSH2 0x338E JUMP JUMPDEST PUSH1 0x0 SHR SWAP2 POP POP SWAP2 SWAP1 POP JUMP JUMPDEST PUSH1 0x2 DUP2 DUP2 SLOAD DUP2 LT PUSH2 0xB6B JUMPI PUSH1 0x0 DUP1 REVERT JUMPDEST SWAP1 PUSH1 0x0 MSTORE PUSH1 0x20 PUSH1 0x0 KECCAK256 SWAP1 PUSH1 0x4 MUL ADD PUSH1 0x0 SWAP2 POP SWAP1 POP DUP1 PUSH1 0x0 ADD PUSH1 0x40 MLOAD DUP1 PUSH1 0x40 ADD PUSH1 0x40 MSTORE SWAP1 DUP2 PUSH1 0x0 DUP3 ADD SLOAD DUP2 MSTORE PUSH1 0x20 ADD PUSH1 0x1 DUP3 ADD SLOAD DUP2 MSTORE POP POP SWAP1 DUP1 PUSH1 0x2 ADD PUSH1 0x40 MLOAD DUP1 PUSH1 0x40 ADD PUSH1 0x40 MSTORE SWAP1 DUP2 PUSH1 0x0 DUP3 ADD SLOAD DUP2 MSTORE PUSH1 0x20 ADD PUSH1 0x1 DUP3 ADD SLOAD DUP2 MSTORE POP POP SWAP1 POP DUP3 JUMP JUMPDEST PUSH2 0xBD3 PUSH2 0x23A8 JUMP JUMPDEST PUSH1 0x40 MLOAD DUP1 PUSH1 0xC0 ADD PUSH1 0x40 MSTORE DUP1 PUSH32 0x79BE667EF9DCBBAC55A06295CE870B07029BFCDB2DCE28D959F2815B16F81798 DUP2 MSTORE PUSH1 0x20 ADD PUSH32 0x483ADA7726A3C4655DA4FBFC0E1108A8FD17B448A68554199C47D08FFB10D4B8 DUP2 MSTORE PUSH1 0x20 ADD PUSH1 0x0 DUP2 MSTORE PUSH1 0x20 ADD PUSH1 0x7 DUP2 MSTORE PUSH1 0x20 ADD PUSH32 0xFFFFFFFFFFFFFFFFFFFFFFFFFFFFFFFFFFFFFFFFFFFFFFFFFFFFFFFEFFFFFC2F DUP2 MSTORE PUSH1 0x20 ADD PUSH32 0xFFFFFFFFFFFFFFFFFFFFFFFFFFFFFFFEBAAEDCE6AF48A03BBFD25E8CD0364141 DUP2 MSTORE POP SWAP1 POP SWAP1 JUMP JUMPDEST PUSH32 0x483ADA7726A3C4655DA4FBFC0E1108A8FD17B448A68554199C47D08FFB10D4B8 DUP2 JUMP JUMPDEST PUSH32 0xFFFFFFFFFFFFFFFFFFFFFFFFFFFFFFFFFFFFFFFFFFFFFFFFFFFFFFFEFFFFFC2F DUP2 JUMP JUMPDEST PUSH2 0xCD7 PUSH2 0x23DE JUMP JUMPDEST PUSH1 0x40 MLOAD DUP1 PUSH1 0x40 ADD PUSH1 0x40 MSTORE DUP1 DUP5 DUP2 MSTORE PUSH1 0x20 ADD DUP4 DUP2 MSTORE POP SWAP1 POP SWAP3 SWAP2 POP POP JUMP JUMPDEST PUSH32 0xFFFFFFFFFFFFFFFFFFFFFFFFFFFFFFFEBAAEDCE6AF48A03BBFD25E8CD0364141 DUP2 JUMP JUMPDEST PUSH1 0x0 DUP2 JUMP JUMPDEST PUSH1 0x0 DUP1 PUSH2 0xD6F DUP4 PUSH1 0x20 ADD MLOAD PUSH32 0x79BE667EF9DCBBAC55A06295CE870B07029BFCDB2DCE28D959F2815B16F81798 PUSH32 0x483ADA7726A3C4655DA4FBFC0E1108A8FD17B448A68554199C47D08FFB10D4B8 PUSH2 0xF7F JUMP JUMPDEST SWAP1 POP PUSH1 0x0 PUSH2 0xD8A DUP5 PUSH1 0x0 ADD MLOAD DUP7 PUSH1 0x0 ADD MLOAD DUP8 PUSH1 0x20 ADD MLOAD PUSH2 0xF7F JUMP JUMPDEST SWAP1 POP PUSH1 0x0 PUSH2 0xD98 DUP4 DUP4 PUSH2 0xFB6 JUMP JUMPDEST SWAP1 POP PUSH1 0x0 PUSH1 0x2 PUSH8 0xFFFFFFFFFFFFFFFF DUP2 GT ISZERO PUSH2 0xDB7 JUMPI PUSH2 0xDB6 PUSH2 0x2666 JUMP JUMPDEST JUMPDEST PUSH1 0x40 MLOAD SWAP1 DUP1 DUP3 MSTORE DUP1 PUSH1 0x20 MUL PUSH1 0x20 ADD DUP3 ADD PUSH1 0x40 MSTORE DUP1 ISZERO PUSH2 0xDF0 JUMPI DUP2 PUSH1 0x20 ADD JUMPDEST PUSH2 0xDDD PUSH2 0x23DE JUMP JUMPDEST DUP2 MSTORE PUSH1 0x20 ADD SWAP1 PUSH1 0x1 SWAP1 SUB SWAP1 DUP2 PUSH2 0xDD5 JUMPI SWAP1 POP JUMPDEST POP SWAP1 POP DUP7 DUP2 PUSH1 0x0 DUP2 MLOAD DUP2 LT PUSH2 0xE08 JUMPI PUSH2 0xE07 PUSH2 0x3093 JUMP JUMPDEST JUMPDEST PUSH1 0x20 MUL PUSH1 0x20 ADD ADD DUP2 SWAP1 MSTORE POP DUP2 DUP2 PUSH1 0x1 DUP2 MLOAD DUP2 LT PUSH2 0xE28 JUMPI PUSH2 0xE27 PUSH2 0x3093 JUMP JUMPDEST JUMPDEST PUSH1 0x20 MUL PUSH1 0x20 ADD ADD DUP2 SWAP1 MSTORE POP PUSH1 0x0 PUSH2 0xE3E DUP3 PUSH2 0xA2E JUMP JUMPDEST SWAP1 POP PUSH2 0xE84 PUSH1 0x40 MLOAD DUP1 PUSH1 0x40 ADD PUSH1 0x40 MSTORE DUP1 PUSH1 0x3 DUP2 MSTORE PUSH1 0x20 ADD PUSH32 0x203E3E0000000000000000000000000000000000000000000000000000000000 DUP2 MSTORE POP DUP9 PUSH1 0x0 ADD MLOAD DUP4 PUSH2 0xFDE JUMP JUMPDEST DUP1 DUP8 PUSH1 0x0 ADD MLOAD EQ SWAP6 POP POP POP POP POP POP SWAP3 SWAP2 POP POP JUMP JUMPDEST PUSH2 0xEA0 PUSH2 0x23DE JUMP JUMPDEST PUSH1 0x0 DUP1 PUSH1 0x0 DUP5 PUSH1 0x0 ADD MLOAD DUP7 PUSH1 0x0 ADD MLOAD SUB PUSH2 0xF3B JUMPI PUSH1 0x0 PUSH32 0xFFFFFFFFFFFFFFFFFFFFFFFFFFFFFFFFFFFFFFFFFFFFFFFFFFFFFFFEFFFFFC2F DUP1 PUSH2 0xEE5 JUMPI PUSH2 0xEE4 PUSH2 0x33BB JUMP JUMPDEST JUMPDEST DUP7 PUSH1 0x20 ADD MLOAD DUP9 PUSH1 0x20 ADD MLOAD ADDMOD SUB PUSH2 0xF16 JUMPI PUSH1 0x40 MLOAD DUP1 PUSH1 0x40 ADD PUSH1 0x40 MSTORE DUP1 PUSH1 0x0 DUP2 MSTORE PUSH1 0x20 ADD PUSH1 0x0 DUP2 MSTORE POP SWAP4 POP POP POP POP PUSH2 0xF79 JUMP JUMPDEST PUSH2 0xF2A DUP7 PUSH1 0x0 ADD MLOAD DUP8 PUSH1 0x20 ADD MLOAD PUSH1 0x1 PUSH2 0x107D JUMP JUMPDEST DUP1 SWAP4 POP DUP2 SWAP5 POP DUP3 SWAP6 POP POP POP POP PUSH2 0xF68 JUMP JUMPDEST PUSH2 0xF5B DUP7 PUSH1 0x0 ADD MLOAD DUP8 PUSH1 0x20 ADD MLOAD PUSH1 0x1 DUP9 PUSH1 0x0 ADD MLOAD DUP10 PUSH1 0x20 ADD MLOAD PUSH1 0x1 PUSH2 0x14FA JUMP JUMPDEST DUP1 SWAP4 POP DUP2 SWAP5 POP DUP3 SWAP6 POP POP POP POP JUMPDEST PUSH2 0xF73 DUP4 DUP4 DUP4 PUSH2 0x1F38 JUMP JUMPDEST SWAP4 POP POP POP POP JUMPDEST SWAP3 SWAP2 POP POP JUMP JUMPDEST PUSH2 0xF87 PUSH2 0x23DE JUMP JUMPDEST PUSH1 0x0 DUP1 PUSH1 0x0 PUSH2 0xF99 DUP8 DUP8 DUP8 PUSH1 0x1 PUSH2 0x2042 JUMP JUMPDEST SWAP3 POP SWAP3 POP SWAP3 POP PUSH2 0xFAA DUP4 DUP4 DUP4 PUSH2 0x1F38 JUMP JUMPDEST SWAP4 POP POP POP POP SWAP4 SWAP3 POP POP POP JUMP JUMPDEST PUSH2 0xFBE PUSH2 0x23DE JUMP JUMPDEST PUSH1 0x0 PUSH2 0xFC9 DUP4 PUSH2 0x20DC JUMP JUMPDEST SWAP1 POP PUSH2 0xFD5 DUP5 DUP3 PUSH2 0xE98 JUMP JUMPDEST SWAP2 POP POP SWAP3 SWAP2 POP POP JUMP JUMPDEST PUSH2 0x1078 DUP4 DUP4 DUP4 PUSH1 0x40 MLOAD PUSH1 0x24 ADD PUSH2 0xFF6 SWAP4 SWAP3 SWAP2 SWAP1 PUSH2 0x33EA JUMP JUMPDEST PUSH1 0x40 MLOAD PUSH1 0x20 DUP2 DUP4 SUB SUB DUP2 MSTORE SWAP1 PUSH1 0x40 MSTORE PUSH32 0xCA47C4EB00000000000000000000000000000000000000000000000000000000 PUSH28 0xFFFFFFFFFFFFFFFFFFFFFFFFFFFFFFFFFFFFFFFFFFFFFFFFFFFFFFFF NOT AND PUSH1 0x20 DUP3 ADD DUP1 MLOAD PUSH28 0xFFFFFFFFFFFFFFFFFFFFFFFFFFFFFFFFFFFFFFFFFFFFFFFFFFFFFFFF DUP4 DUP2 DUP4 AND OR DUP4 MSTORE POP POP POP POP PUSH2 0x215E JUMP JUMPDEST POP POP POP JUMP JUMPDEST PUSH1 0x0 DUP1 PUSH1 0x0 DUP1 DUP5 SUB PUSH2 0x1097 JUMPI DUP6 DUP6 DUP6 SWAP3 POP SWAP3 POP SWAP3 POP PUSH2 0x14F1 JUMP JUMPDEST PUSH1 0x0 PUSH32 0xFFFFFFFFFFFFFFFFFFFFFFFFFFFFFFFFFFFFFFFFFFFFFFFFFFFFFFFEFFFFFC2F DUP1 PUSH2 0x10C8 JUMPI PUSH2 0x10C7 PUSH2 0x33BB JUMP JUMPDEST JUMPDEST DUP8 DUP9 MULMOD SWAP1 POP PUSH1 0x0 PUSH32 0xFFFFFFFFFFFFFFFFFFFFFFFFFFFFFFFFFFFFFFFFFFFFFFFFFFFFFFFEFFFFFC2F DUP1 PUSH2 0x10FE JUMPI PUSH2 0x10FD PUSH2 0x33BB JUMP JUMPDEST JUMPDEST DUP8 DUP9 MULMOD SWAP1 POP PUSH1 0x0 PUSH32 0xFFFFFFFFFFFFFFFFFFFFFFFFFFFFFFFFFFFFFFFFFFFFFFFFFFFFFFFEFFFFFC2F DUP1 PUSH2 0x1134 JUMPI PUSH2 0x1133 PUSH2 0x33BB JUMP JUMPDEST JUMPDEST DUP8 DUP9 MULMOD SWAP1 POP PUSH1 0x0 PUSH32 0xFFFFFFFFFFFFFFFFFFFFFFFFFFFFFFFFFFFFFFFFFFFFFFFFFFFFFFFEFFFFFC2F DUP1 PUSH2 0x116A JUMPI PUSH2 0x1169 PUSH2 0x33BB JUMP JUMPDEST JUMPDEST PUSH32 0xFFFFFFFFFFFFFFFFFFFFFFFFFFFFFFFFFFFFFFFFFFFFFFFFFFFFFFFEFFFFFC2F DUP1 PUSH2 0x1199 JUMPI PUSH2 0x1198 PUSH2 0x33BB JUMP JUMPDEST JUMPDEST DUP5 DUP13 MULMOD PUSH1 0x4 MULMOD SWAP1 POP PUSH1 0x0 PUSH32 0xFFFFFFFFFFFFFFFFFFFFFFFFFFFFFFFFFFFFFFFFFFFFFFFFFFFFFFFEFFFFFC2F DUP1 PUSH2 0x11D2 JUMPI PUSH2 0x11D1 PUSH2 0x33BB JUMP JUMPDEST JUMPDEST PUSH32 0xFFFFFFFFFFFFFFFFFFFFFFFFFFFFFFFFFFFFFFFFFFFFFFFFFFFFFFFEFFFFFC2F DUP1 PUSH2 0x1201 JUMPI PUSH2 0x1200 PUSH2 0x33BB JUMP JUMPDEST JUMPDEST PUSH32 0xFFFFFFFFFFFFFFFFFFFFFFFFFFFFFFFFFFFFFFFFFFFFFFFFFFFFFFFEFFFFFC2F DUP1 PUSH2 0x1230 JUMPI PUSH2 0x122F PUSH2 0x33BB JUMP JUMPDEST JUMPDEST DUP6 DUP7 MULMOD PUSH1 0x0 MULMOD PUSH32 0xFFFFFFFFFFFFFFFFFFFFFFFFFFFFFFFFFFFFFFFFFFFFFFFFFFFFFFFEFFFFFC2F DUP1 PUSH2 0x1265 JUMPI PUSH2 0x1264 PUSH2 0x33BB JUMP JUMPDEST JUMPDEST DUP8 PUSH1 0x3 MULMOD ADDMOD SWAP1 POP PUSH32 0xFFFFFFFFFFFFFFFFFFFFFFFFFFFFFFFFFFFFFFFFFFFFFFFFFFFFFFFEFFFFFC2F DUP1 PUSH2 0x129B JUMPI PUSH2 0x129A PUSH2 0x33BB JUMP JUMPDEST JUMPDEST PUSH32 0xFFFFFFFFFFFFFFFFFFFFFFFFFFFFFFFFFFFFFFFFFFFFFFFFFFFFFFFEFFFFFC2F DUP1 PUSH2 0x12CA JUMPI PUSH2 0x12C9 PUSH2 0x33BB JUMP JUMPDEST JUMPDEST DUP4 DUP5 ADDMOD PUSH32 0xFFFFFFFFFFFFFFFFFFFFFFFFFFFFFFFFFFFFFFFFFFFFFFFFFFFFFFFEFFFFFC2F PUSH2 0x12F8 SWAP2 SWAP1 PUSH2 0x3457 JUMP JUMPDEST PUSH32 0xFFFFFFFFFFFFFFFFFFFFFFFFFFFFFFFFFFFFFFFFFFFFFFFFFFFFFFFEFFFFFC2F DUP1 PUSH2 0x1327 JUMPI PUSH2 0x1326 PUSH2 0x33BB JUMP JUMPDEST JUMPDEST DUP4 DUP5 MULMOD ADDMOD SWAP5 POP PUSH32 0xFFFFFFFFFFFFFFFFFFFFFFFFFFFFFFFFFFFFFFFFFFFFFFFFFFFFFFFEFFFFFC2F DUP1 PUSH2 0x135C JUMPI PUSH2 0x135B PUSH2 0x33BB JUMP JUMPDEST JUMPDEST PUSH32 0xFFFFFFFFFFFFFFFFFFFFFFFFFFFFFFFFFFFFFFFFFFFFFFFFFFFFFFFEFFFFFC2F DUP1 PUSH2 0x138B JUMPI PUSH2 0x138A PUSH2 0x33BB JUMP JUMPDEST JUMPDEST PUSH32 0xFFFFFFFFFFFFFFFFFFFFFFFFFFFFFFFFFFFFFFFFFFFFFFFFFFFFFFFEFFFFFC2F DUP1 PUSH2 0x13BA JUMPI PUSH2 0x13B9 PUSH2 0x33BB JUMP JUMPDEST JUMPDEST DUP7 DUP8 MULMOD PUSH1 0x8 MULMOD PUSH32 0xFFFFFFFFFFFFFFFFFFFFFFFFFFFFFFFFFFFFFFFFFFFFFFFFFFFFFFFEFFFFFC2F PUSH2 0x13EB SWAP2 SWAP1 PUSH2 0x3457 JUMP JUMPDEST PUSH32 0xFFFFFFFFFFFFFFFFFFFFFFFFFFFFFFFFFFFFFFFFFFFFFFFFFFFFFFFEFFFFFC2F DUP1 PUSH2 0x141A JUMPI PUSH2 0x1419 PUSH2 0x33BB JUMP JUMPDEST JUMPDEST PUSH32 0xFFFFFFFFFFFFFFFFFFFFFFFFFFFFFFFFFFFFFFFFFFFFFFFFFFFFFFFEFFFFFC2F DUP1 PUSH2 0x1449 JUMPI PUSH2 0x1448 PUSH2 0x33BB JUMP JUMPDEST JUMPDEST DUP9 PUSH32 0xFFFFFFFFFFFFFFFFFFFFFFFFFFFFFFFFFFFFFFFFFFFFFFFFFFFFFFFEFFFFFC2F PUSH2 0x1475 SWAP2 SWAP1 PUSH2 0x3457 JUMP JUMPDEST DUP7 ADDMOD DUP5 MULMOD ADDMOD SWAP4 POP PUSH32 0xFFFFFFFFFFFFFFFFFFFFFFFFFFFFFFFFFFFFFFFFFFFFFFFFFFFFFFFEFFFFFC2F DUP1 PUSH2 0x14AB JUMPI PUSH2 0x14AA PUSH2 0x33BB JUMP JUMPDEST JUMPDEST PUSH32 0xFFFFFFFFFFFFFFFFFFFFFFFFFFFFFFFFFFFFFFFFFFFFFFFFFFFFFFFEFFFFFC2F DUP1 PUSH2 0x14DA JUMPI PUSH2 0x14D9 PUSH2 0x33BB JUMP JUMPDEST JUMPDEST DUP11 DUP13 MULMOD PUSH1 0x2 MULMOD SWAP3 POP DUP5 DUP5 DUP5 SWAP8 POP SWAP8 POP SWAP8 POP POP POP POP POP POP JUMPDEST SWAP4 POP SWAP4 POP SWAP4 SWAP1 POP JUMP JUMPDEST PUSH1 0x0 DUP1 PUSH1 0x0 DUP1 DUP10 EQ DUP1 ISZERO PUSH2 0x150E JUMPI POP PUSH1 0x0 DUP9 EQ JUMPDEST ISZERO PUSH2 0x1521 JUMPI DUP6 DUP6 DUP6 SWAP3 POP SWAP3 POP SWAP3 POP PUSH2 0x1F2C JUMP JUMPDEST PUSH1 0x0 DUP7 EQ DUP1 ISZERO PUSH2 0x1531 JUMPI POP PUSH1 0x0 DUP6 EQ JUMPDEST ISZERO PUSH2 0x1544 JUMPI DUP9 DUP9 DUP9 SWAP3 POP SWAP3 POP SWAP3 POP PUSH2 0x1F2C JUMP JUMPDEST PUSH2 0x154C PUSH2 0x23F8 JUMP JUMPDEST PUSH32 0xFFFFFFFFFFFFFFFFFFFFFFFFFFFFFFFFFFFFFFFFFFFFFFFFFFFFFFFEFFFFFC2F DUP1 PUSH2 0x157B JUMPI PUSH2 0x157A PUSH2 0x33BB JUMP JUMPDEST JUMPDEST DUP9 DUP10 MULMOD DUP2 PUSH1 0x0 PUSH1 0x4 DUP2 LT PUSH2 0x1592 JUMPI PUSH2 0x1591 PUSH2 0x3093 JUMP JUMPDEST JUMPDEST PUSH1 0x20 MUL ADD DUP2 DUP2 MSTORE POP POP PUSH32 0xFFFFFFFFFFFFFFFFFFFFFFFFFFFFFFFFFFFFFFFFFFFFFFFFFFFFFFFEFFFFFC2F DUP1 PUSH2 0x15CA JUMPI PUSH2 0x15C9 PUSH2 0x33BB JUMP JUMPDEST JUMPDEST DUP2 PUSH1 0x0 PUSH1 0x4 DUP2 LT PUSH2 0x15DE JUMPI PUSH2 0x15DD PUSH2 0x3093 JUMP JUMPDEST JUMPDEST PUSH1 0x20 MUL ADD MLOAD DUP10 MULMOD DUP2 PUSH1 0x1 PUSH1 0x4 DUP2 LT PUSH2 0x15F9 JUMPI PUSH2 0x15F8 PUSH2 0x3093 JUMP JUMPDEST JUMPDEST PUSH1 0x20 MUL ADD DUP2 DUP2 MSTORE POP POP PUSH32 0xFFFFFFFFFFFFFFFFFFFFFFFFFFFFFFFFFFFFFFFFFFFFFFFFFFFFFFFEFFFFFC2F DUP1 PUSH2 0x1631 JUMPI PUSH2 0x1630 PUSH2 0x33BB JUMP JUMPDEST JUMPDEST DUP6 DUP7 MULMOD DUP2 PUSH1 0x2 PUSH1 0x4 DUP2 LT PUSH2 0x1648 JUMPI PUSH2 0x1647 PUSH2 0x3093 JUMP JUMPDEST JUMPDEST PUSH1 0x20 MUL ADD DUP2 DUP2 MSTORE POP POP PUSH32 0xFFFFFFFFFFFFFFFFFFFFFFFFFFFFFFFFFFFFFFFFFFFFFFFFFFFFFFFEFFFFFC2F DUP1 PUSH2 0x1680 JUMPI PUSH2 0x167F PUSH2 0x33BB JUMP JUMPDEST JUMPDEST DUP2 PUSH1 0x2 PUSH1 0x4 DUP2 LT PUSH2 0x1694 JUMPI PUSH2 0x1693 PUSH2 0x3093 JUMP JUMPDEST JUMPDEST PUSH1 0x20 MUL ADD MLOAD DUP7 MULMOD DUP2 PUSH1 0x3 PUSH1 0x4 DUP2 LT PUSH2 0x16AF JUMPI PUSH2 0x16AE PUSH2 0x3093 JUMP JUMPDEST JUMPDEST PUSH1 0x20 MUL ADD DUP2 DUP2 MSTORE POP POP PUSH1 0x40 MLOAD DUP1 PUSH1 0x80 ADD PUSH1 0x40 MSTORE DUP1 PUSH32 0xFFFFFFFFFFFFFFFFFFFFFFFFFFFFFFFFFFFFFFFFFFFFFFFFFFFFFFFEFFFFFC2F DUP1 PUSH2 0x16F2 JUMPI PUSH2 0x16F1 PUSH2 0x33BB JUMP JUMPDEST JUMPDEST DUP4 PUSH1 0x2 PUSH1 0x4 DUP2 LT PUSH2 0x1706 JUMPI PUSH2 0x1705 PUSH2 0x3093 JUMP JUMPDEST JUMPDEST PUSH1 0x20 MUL ADD MLOAD DUP14 MULMOD DUP2 MSTORE PUSH1 0x20 ADD PUSH32 0xFFFFFFFFFFFFFFFFFFFFFFFFFFFFFFFFFFFFFFFFFFFFFFFFFFFFFFFEFFFFFC2F DUP1 PUSH2 0x1741 JUMPI PUSH2 0x1740 PUSH2 0x33BB JUMP JUMPDEST JUMPDEST DUP4 PUSH1 0x3 PUSH1 0x4 DUP2 LT PUSH2 0x1755 JUMPI PUSH2 0x1754 PUSH2 0x3093 JUMP JUMPDEST JUMPDEST PUSH1 0x20 MUL ADD MLOAD DUP13 MULMOD DUP2 MSTORE PUSH1 0x20 ADD PUSH32 0xFFFFFFFFFFFFFFFFFFFFFFFFFFFFFFFFFFFFFFFFFFFFFFFFFFFFFFFEFFFFFC2F DUP1 PUSH2 0x1790 JUMPI PUSH2 0x178F PUSH2 0x33BB JUMP JUMPDEST JUMPDEST DUP4 PUSH1 0x0 PUSH1 0x4 DUP2 LT PUSH2 0x17A4 JUMPI PUSH2 0x17A3 PUSH2 0x3093 JUMP JUMPDEST JUMPDEST PUSH1 0x20 MUL ADD MLOAD DUP11 MULMOD DUP2 MSTORE PUSH1 0x20 ADD PUSH32 0xFFFFFFFFFFFFFFFFFFFFFFFFFFFFFFFFFFFFFFFFFFFFFFFFFFFFFFFEFFFFFC2F DUP1 PUSH2 0x17DF JUMPI PUSH2 0x17DE PUSH2 0x33BB JUMP JUMPDEST JUMPDEST DUP4 PUSH1 0x1 PUSH1 0x4 DUP2 LT PUSH2 0x17F3 JUMPI PUSH2 0x17F2 PUSH2 0x3093 JUMP JUMPDEST JUMPDEST PUSH1 0x20 MUL ADD MLOAD DUP10 MULMOD DUP2 MSTORE POP SWAP1 POP DUP1 PUSH1 0x2 PUSH1 0x4 DUP2 LT PUSH2 0x1813 JUMPI PUSH2 0x1812 PUSH2 0x3093 JUMP JUMPDEST JUMPDEST PUSH1 0x20 MUL ADD MLOAD DUP2 PUSH1 0x0 PUSH1 0x4 DUP2 LT PUSH2 0x182C JUMPI PUSH2 0x182B PUSH2 0x3093 JUMP JUMPDEST JUMPDEST PUSH1 0x20 MUL ADD MLOAD EQ ISZERO DUP1 PUSH2 0x186E JUMPI POP DUP1 PUSH1 0x3 PUSH1 0x4 DUP2 LT PUSH2 0x184D JUMPI PUSH2 0x184C PUSH2 0x3093 JUMP JUMPDEST JUMPDEST PUSH1 0x20 MUL ADD MLOAD DUP2 PUSH1 0x1 PUSH1 0x4 DUP2 LT PUSH2 0x1866 JUMPI PUSH2 0x1865 PUSH2 0x3093 JUMP JUMPDEST JUMPDEST PUSH1 0x20 MUL ADD MLOAD EQ ISZERO JUMPDEST PUSH2 0x18AD JUMPI PUSH1 0x40 MLOAD PUSH32 0x8C379A000000000000000000000000000000000000000000000000000000000 DUP2 MSTORE PUSH1 0x4 ADD PUSH2 0x18A4 SWAP1 PUSH2 0x34D7 JUMP JUMPDEST PUSH1 0x40 MLOAD DUP1 SWAP2 SUB SWAP1 REVERT JUMPDEST PUSH2 0x18B5 PUSH2 0x23F8 JUMP JUMPDEST PUSH32 0xFFFFFFFFFFFFFFFFFFFFFFFFFFFFFFFFFFFFFFFFFFFFFFFFFFFFFFFEFFFFFC2F DUP1 PUSH2 0x18E4 JUMPI PUSH2 0x18E3 PUSH2 0x33BB JUMP JUMPDEST JUMPDEST DUP3 PUSH1 0x0 PUSH1 0x4 DUP2 LT PUSH2 0x18F8 JUMPI PUSH2 0x18F7 PUSH2 0x3093 JUMP JUMPDEST JUMPDEST PUSH1 0x20 MUL ADD MLOAD PUSH32 0xFFFFFFFFFFFFFFFFFFFFFFFFFFFFFFFFFFFFFFFFFFFFFFFFFFFFFFFEFFFFFC2F PUSH2 0x1928 SWAP2 SWAP1 PUSH2 0x3457 JUMP JUMPDEST DUP4 PUSH1 0x2 PUSH1 0x4 DUP2 LT PUSH2 0x193C JUMPI PUSH2 0x193B PUSH2 0x3093 JUMP JUMPDEST JUMPDEST PUSH1 0x20 MUL ADD MLOAD ADDMOD DUP2 PUSH1 0x0 PUSH1 0x4 DUP2 LT PUSH2 0x1956 JUMPI PUSH2 0x1955 PUSH2 0x3093 JUMP JUMPDEST JUMPDEST PUSH1 0x20 MUL ADD DUP2 DUP2 MSTORE POP POP PUSH32 0xFFFFFFFFFFFFFFFFFFFFFFFFFFFFFFFFFFFFFFFFFFFFFFFFFFFFFFFEFFFFFC2F DUP1 PUSH2 0x198E JUMPI PUSH2 0x198D PUSH2 0x33BB JUMP JUMPDEST JUMPDEST DUP3 PUSH1 0x1 PUSH1 0x4 DUP2 LT PUSH2 0x19A2 JUMPI PUSH2 0x19A1 PUSH2 0x3093 JUMP JUMPDEST JUMPDEST PUSH1 0x20 MUL ADD MLOAD PUSH32 0xFFFFFFFFFFFFFFFFFFFFFFFFFFFFFFFFFFFFFFFFFFFFFFFFFFFFFFFEFFFFFC2F PUSH2 0x19D2 SWAP2 SWAP1 PUSH2 0x3457 JUMP JUMPDEST DUP4 PUSH1 0x3 PUSH1 0x4 DUP2 LT PUSH2 0x19E6 JUMPI PUSH2 0x19E5 PUSH2 0x3093 JUMP JUMPDEST JUMPDEST PUSH1 0x20 MUL ADD MLOAD ADDMOD DUP2 PUSH1 0x1 PUSH1 0x4 DUP2 LT PUSH2 0x1A00 JUMPI PUSH2 0x19FF PUSH2 0x3093 JUMP JUMPDEST JUMPDEST PUSH1 0x20 MUL ADD DUP2 DUP2 MSTORE POP POP PUSH32 0xFFFFFFFFFFFFFFFFFFFFFFFFFFFFFFFFFFFFFFFFFFFFFFFFFFFFFFFEFFFFFC2F DUP1 PUSH2 0x1A38 JUMPI PUSH2 0x1A37 PUSH2 0x33BB JUMP JUMPDEST JUMPDEST DUP2 PUSH1 0x0 PUSH1 0x4 DUP2 LT PUSH2 0x1A4C JUMPI PUSH2 0x1A4B PUSH2 0x3093 JUMP JUMPDEST JUMPDEST PUSH1 0x20 MUL ADD MLOAD DUP3 PUSH1 0x0 PUSH1 0x4 DUP2 LT PUSH2 0x1A65 JUMPI PUSH2 0x1A64 PUSH2 0x3093 JUMP JUMPDEST JUMPDEST PUSH1 0x20 MUL ADD MLOAD MULMOD DUP2 PUSH1 0x2 PUSH1 0x4 DUP2 LT PUSH2 0x1A7F JUMPI PUSH2 0x1A7E PUSH2 0x3093 JUMP JUMPDEST JUMPDEST PUSH1 0x20 MUL ADD DUP2 DUP2 MSTORE POP POP PUSH32 0xFFFFFFFFFFFFFFFFFFFFFFFFFFFFFFFFFFFFFFFFFFFFFFFFFFFFFFFEFFFFFC2F DUP1 PUSH2 0x1AB7 JUMPI PUSH2 0x1AB6 PUSH2 0x33BB JUMP JUMPDEST JUMPDEST DUP2 PUSH1 0x0 PUSH1 0x4 DUP2 LT PUSH2 0x1ACB JUMPI PUSH2 0x1ACA PUSH2 0x3093 JUMP JUMPDEST JUMPDEST PUSH1 0x20 MUL ADD MLOAD DUP3 PUSH1 0x2 PUSH1 0x4 DUP2 LT PUSH2 0x1AE4 JUMPI PUSH2 0x1AE3 PUSH2 0x3093 JUMP JUMPDEST JUMPDEST PUSH1 0x20 MUL ADD MLOAD MULMOD DUP2 PUSH1 0x3 PUSH1 0x4 DUP2 LT PUSH2 0x1AFE JUMPI PUSH2 0x1AFD PUSH2 0x3093 JUMP JUMPDEST JUMPDEST PUSH1 0x20 MUL ADD DUP2 DUP2 MSTORE POP POP PUSH1 0x0 PUSH32 0xFFFFFFFFFFFFFFFFFFFFFFFFFFFFFFFFFFFFFFFFFFFFFFFFFFFFFFFEFFFFFC2F DUP1 PUSH2 0x1B38 JUMPI PUSH2 0x1B37 PUSH2 0x33BB JUMP JUMPDEST JUMPDEST DUP3 PUSH1 0x3 PUSH1 0x4 DUP2 LT PUSH2 0x1B4C JUMPI PUSH2 0x1B4B PUSH2 0x3093 JUMP JUMPDEST JUMPDEST PUSH1 0x20 MUL ADD MLOAD PUSH32 0xFFFFFFFFFFFFFFFFFFFFFFFFFFFFFFFFFFFFFFFFFFFFFFFFFFFFFFFEFFFFFC2F PUSH2 0x1B7C SWAP2 SWAP1 PUSH2 0x3457 JUMP JUMPDEST PUSH32 0xFFFFFFFFFFFFFFFFFFFFFFFFFFFFFFFFFFFFFFFFFFFFFFFFFFFFFFFEFFFFFC2F DUP1 PUSH2 0x1BAB JUMPI PUSH2 0x1BAA PUSH2 0x33BB JUMP JUMPDEST JUMPDEST DUP5 PUSH1 0x1 PUSH1 0x4 DUP2 LT PUSH2 0x1BBF JUMPI PUSH2 0x1BBE PUSH2 0x3093 JUMP JUMPDEST JUMPDEST PUSH1 0x20 MUL ADD MLOAD DUP6 PUSH1 0x1 PUSH1 0x4 DUP2 LT PUSH2 0x1BD8 JUMPI PUSH2 0x1BD7 PUSH2 0x3093 JUMP JUMPDEST JUMPDEST PUSH1 0x20 MUL ADD MLOAD MULMOD ADDMOD SWAP1 POP PUSH32 0xFFFFFFFFFFFFFFFFFFFFFFFFFFFFFFFFFFFFFFFFFFFFFFFFFFFFFFFEFFFFFC2F DUP1 PUSH2 0x1C10 JUMPI PUSH2 0x1C0F PUSH2 0x33BB JUMP JUMPDEST JUMPDEST PUSH32 0xFFFFFFFFFFFFFFFFFFFFFFFFFFFFFFFFFFFFFFFFFFFFFFFFFFFFFFFEFFFFFC2F DUP1 PUSH2 0x1C3F JUMPI PUSH2 0x1C3E PUSH2 0x33BB JUMP JUMPDEST JUMPDEST PUSH32 0xFFFFFFFFFFFFFFFFFFFFFFFFFFFFFFFFFFFFFFFFFFFFFFFFFFFFFFFEFFFFFC2F DUP1 PUSH2 0x1C6E JUMPI PUSH2 0x1C6D PUSH2 0x33BB JUMP JUMPDEST JUMPDEST DUP5 PUSH1 0x2 PUSH1 0x4 DUP2 LT PUSH2 0x1C82 JUMPI PUSH2 0x1C81 PUSH2 0x3093 JUMP JUMPDEST JUMPDEST PUSH1 0x20 MUL ADD MLOAD DUP7 PUSH1 0x0 PUSH1 0x4 DUP2 LT PUSH2 0x1C9B JUMPI PUSH2 0x1C9A PUSH2 0x3093 JUMP JUMPDEST JUMPDEST PUSH1 0x20 MUL ADD MLOAD MULMOD PUSH1 0x2 MULMOD PUSH32 0xFFFFFFFFFFFFFFFFFFFFFFFFFFFFFFFFFFFFFFFFFFFFFFFFFFFFFFFEFFFFFC2F PUSH2 0x1CCF SWAP2 SWAP1 PUSH2 0x3457 JUMP JUMPDEST DUP3 ADDMOD SWAP1 POP PUSH1 0x0 PUSH32 0xFFFFFFFFFFFFFFFFFFFFFFFFFFFFFFFFFFFFFFFFFFFFFFFFFFFFFFFEFFFFFC2F DUP1 PUSH2 0x1D04 JUMPI PUSH2 0x1D03 PUSH2 0x33BB JUMP JUMPDEST JUMPDEST PUSH32 0xFFFFFFFFFFFFFFFFFFFFFFFFFFFFFFFFFFFFFFFFFFFFFFFFFFFFFFFEFFFFFC2F DUP1 PUSH2 0x1D33 JUMPI PUSH2 0x1D32 PUSH2 0x33BB JUMP JUMPDEST JUMPDEST DUP4 PUSH32 0xFFFFFFFFFFFFFFFFFFFFFFFFFFFFFFFFFFFFFFFFFFFFFFFFFFFFFFFEFFFFFC2F PUSH2 0x1D5F SWAP2 SWAP1 PUSH2 0x3457 JUMP JUMPDEST PUSH32 0xFFFFFFFFFFFFFFFFFFFFFFFFFFFFFFFFFFFFFFFFFFFFFFFFFFFFFFFEFFFFFC2F DUP1 PUSH2 0x1D8E JUMPI PUSH2 0x1D8D PUSH2 0x33BB JUMP JUMPDEST JUMPDEST DUP7 PUSH1 0x2 PUSH1 0x4 DUP2 LT PUSH2 0x1DA2 JUMPI PUSH2 0x1DA1 PUSH2 0x3093 JUMP JUMPDEST JUMPDEST PUSH1 0x20 MUL ADD MLOAD DUP9 PUSH1 0x0 PUSH1 0x4 DUP2 LT PUSH2 0x1DBB JUMPI PUSH2 0x1DBA PUSH2 0x3093 JUMP JUMPDEST JUMPDEST PUSH1 0x20 MUL ADD MLOAD MULMOD ADDMOD DUP5 PUSH1 0x1 PUSH1 0x4 DUP2 LT PUSH2 0x1DD6 JUMPI PUSH2 0x1DD5 PUSH2 0x3093 JUMP JUMPDEST JUMPDEST PUSH1 0x20 MUL ADD MLOAD MULMOD SWAP1 POP PUSH32 0xFFFFFFFFFFFFFFFFFFFFFFFFFFFFFFFFFFFFFFFFFFFFFFFFFFFFFFFEFFFFFC2F DUP1 PUSH2 0x1E0D JUMPI PUSH2 0x1E0C PUSH2 0x33BB JUMP JUMPDEST JUMPDEST PUSH32 0xFFFFFFFFFFFFFFFFFFFFFFFFFFFFFFFFFFFFFFFFFFFFFFFFFFFFFFFEFFFFFC2F DUP1 PUSH2 0x1E3C JUMPI PUSH2 0x1E3B PUSH2 0x33BB JUMP JUMPDEST JUMPDEST DUP5 PUSH1 0x3 PUSH1 0x4 DUP2 LT PUSH2 0x1E50 JUMPI PUSH2 0x1E4F PUSH2 0x3093 JUMP JUMPDEST JUMPDEST PUSH1 0x20 MUL ADD MLOAD DUP7 PUSH1 0x1 PUSH1 0x4 DUP2 LT PUSH2 0x1E69 JUMPI PUSH2 0x1E68 PUSH2 0x3093 JUMP JUMPDEST JUMPDEST PUSH1 0x20 MUL ADD MLOAD MULMOD PUSH32 0xFFFFFFFFFFFFFFFFFFFFFFFFFFFFFFFFFFFFFFFFFFFFFFFFFFFFFFFEFFFFFC2F PUSH2 0x1E9A SWAP2 SWAP1 PUSH2 0x3457 JUMP JUMPDEST DUP3 ADDMOD SWAP1 POP PUSH1 0x0 PUSH32 0xFFFFFFFFFFFFFFFFFFFFFFFFFFFFFFFFFFFFFFFFFFFFFFFFFFFFFFFEFFFFFC2F DUP1 PUSH2 0x1ECF JUMPI PUSH2 0x1ECE PUSH2 0x33BB JUMP JUMPDEST JUMPDEST PUSH32 0xFFFFFFFFFFFFFFFFFFFFFFFFFFFFFFFFFFFFFFFFFFFFFFFFFFFFFFFEFFFFFC2F DUP1 PUSH2 0x1EFE JUMPI PUSH2 0x1EFD PUSH2 0x33BB JUMP JUMPDEST JUMPDEST DUP11 DUP15 MULMOD DUP6 PUSH1 0x0 PUSH1 0x4 DUP2 LT PUSH2 0x1F15 JUMPI PUSH2 0x1F14 PUSH2 0x3093 JUMP JUMPDEST JUMPDEST PUSH1 0x20 MUL ADD MLOAD MULMOD SWAP1 POP DUP3 DUP3 DUP3 SWAP8 POP SWAP8 POP SWAP8 POP POP POP POP POP POP JUMPDEST SWAP7 POP SWAP7 POP SWAP7 SWAP4 POP POP POP POP JUMP JUMPDEST PUSH2 0x1F40 PUSH2 0x23DE JUMP JUMPDEST PUSH1 0x0 PUSH2 0x1F4B DUP4 PUSH2 0x2178 JUMP JUMPDEST SWAP1 POP PUSH1 0x0 PUSH32 0xFFFFFFFFFFFFFFFFFFFFFFFFFFFFFFFFFFFFFFFFFFFFFFFFFFFFFFFEFFFFFC2F DUP1 PUSH2 0x1F7E JUMPI PUSH2 0x1F7D PUSH2 0x33BB JUMP JUMPDEST JUMPDEST DUP3 DUP4 MULMOD SWAP1 POP PUSH1 0x0 PUSH32 0xFFFFFFFFFFFFFFFFFFFFFFFFFFFFFFFFFFFFFFFFFFFFFFFFFFFFFFFEFFFFFC2F DUP1 PUSH2 0x1FB4 JUMPI PUSH2 0x1FB3 PUSH2 0x33BB JUMP JUMPDEST JUMPDEST DUP3 DUP9 MULMOD SWAP1 POP PUSH1 0x0 PUSH32 0xFFFFFFFFFFFFFFFFFFFFFFFFFFFFFFFFFFFFFFFFFFFFFFFFFFFFFFFEFFFFFC2F DUP1 PUSH2 0x1FEA JUMPI PUSH2 0x1FE9 PUSH2 0x33BB JUMP JUMPDEST JUMPDEST PUSH32 0xFFFFFFFFFFFFFFFFFFFFFFFFFFFFFFFFFFFFFFFFFFFFFFFFFFFFFFFEFFFFFC2F DUP1 PUSH2 0x2019 JUMPI PUSH2 0x2018 PUSH2 0x33BB JUMP JUMPDEST JUMPDEST DUP5 DUP7 MULMOD DUP9 MULMOD SWAP1 POP PUSH1 0x40 MLOAD DUP1 PUSH1 0x40 ADD PUSH1 0x40 MSTORE DUP1 DUP4 DUP2 MSTORE PUSH1 0x20 ADD DUP3 DUP2 MSTORE POP SWAP5 POP POP POP POP POP SWAP4 SWAP3 POP POP POP JUMP JUMPDEST PUSH1 0x0 DUP1 PUSH1 0x0 DUP1 DUP8 SUB PUSH2 0x205C JUMPI DUP6 DUP6 DUP6 SWAP3 POP SWAP3 POP SWAP3 POP PUSH2 0x20D2 JUMP JUMPDEST PUSH1 0x0 DUP8 SWAP1 POP PUSH1 0x0 DUP1 PUSH1 0x0 PUSH1 0x1 SWAP1 POP JUMPDEST PUSH1 0x0 DUP5 EQ PUSH2 0x20C4 JUMPI PUSH1 0x0 PUSH1 0x1 DUP6 AND EQ PUSH2 0x2099 JUMPI PUSH2 0x208C DUP4 DUP4 DUP4 DUP14 DUP14 DUP14 PUSH2 0x14FA JUMP JUMPDEST DUP1 SWAP4 POP DUP2 SWAP5 POP DUP3 SWAP6 POP POP POP POP JUMPDEST PUSH1 0x2 DUP5 PUSH2 0x20A6 SWAP2 SWAP1 PUSH2 0x34F7 JUMP JUMPDEST SWAP4 POP PUSH2 0x20B3 DUP11 DUP11 DUP11 PUSH2 0x107D JUMP JUMPDEST DUP1 SWAP11 POP DUP2 SWAP12 POP DUP3 SWAP13 POP POP POP POP PUSH2 0x206B JUMP JUMPDEST DUP3 DUP3 DUP3 SWAP7 POP SWAP7 POP SWAP7 POP POP POP POP POP JUMPDEST SWAP5 POP SWAP5 POP SWAP5 SWAP2 POP POP JUMP JUMPDEST PUSH2 0x20E4 PUSH2 0x23DE JUMP JUMPDEST PUSH1 0x40 MLOAD DUP1 PUSH1 0x40 ADD PUSH1 0x40 MSTORE DUP1 DUP4 PUSH1 0x0 ADD MLOAD DUP2 MSTORE PUSH1 0x20 ADD PUSH32 0xFFFFFFFFFFFFFFFFFFFFFFFFFFFFFFFFFFFFFFFFFFFFFFFFFFFFFFFEFFFFFC2F DUP5 PUSH1 0x20 ADD MLOAD PUSH32 0xFFFFFFFFFFFFFFFFFFFFFFFFFFFFFFFFFFFFFFFFFFFFFFFFFFFFFFFEFFFFFC2F PUSH2 0x214A SWAP2 SWAP1 PUSH2 0x3457 JUMP JUMPDEST PUSH2 0x2154 SWAP2 SWAP1 PUSH2 0x3528 JUMP JUMPDEST DUP2 MSTORE POP SWAP1 POP SWAP2 SWAP1 POP JUMP JUMPDEST PUSH2 0x2175 DUP2 PUSH2 0x216D PUSH2 0x2323 PUSH2 0x2344 JUMP JUMPDEST PUSH4 0xFFFFFFFF AND JUMP JUMPDEST POP JUMP JUMPDEST PUSH1 0x0 DUP1 DUP3 EQ ISZERO DUP1 ISZERO PUSH2 0x21AA JUMPI POP PUSH32 0xFFFFFFFFFFFFFFFFFFFFFFFFFFFFFFFFFFFFFFFFFFFFFFFFFFFFFFFEFFFFFC2F DUP3 EQ ISZERO JUMPDEST DUP1 ISZERO PUSH2 0x21D7 JUMPI POP PUSH1 0x0 PUSH32 0xFFFFFFFFFFFFFFFFFFFFFFFFFFFFFFFFFFFFFFFFFFFFFFFFFFFFFFFEFFFFFC2F EQ ISZERO JUMPDEST PUSH2 0x2216 JUMPI PUSH1 0x40 MLOAD PUSH32 0x8C379A000000000000000000000000000000000000000000000000000000000 DUP2 MSTORE PUSH1 0x4 ADD PUSH2 0x220D SWAP1 PUSH2 0x35A5 JUMP JUMPDEST PUSH1 0x40 MLOAD DUP1 SWAP2 SUB SWAP1 REVERT JUMPDEST PUSH1 0x0 DUP1 PUSH1 0x1 SWAP1 POP PUSH1 0x0 PUSH32 0xFFFFFFFFFFFFFFFFFFFFFFFFFFFFFFFFFFFFFFFFFFFFFFFFFFFFFFFEFFFFFC2F SWAP1 POP PUSH1 0x0 JUMPDEST PUSH1 0x0 DUP7 EQ PUSH2 0x2317 JUMPI DUP6 DUP3 PUSH2 0x2259 SWAP2 SWAP1 PUSH2 0x34F7 JUMP JUMPDEST SWAP1 POP DUP3 PUSH32 0xFFFFFFFFFFFFFFFFFFFFFFFFFFFFFFFFFFFFFFFFFFFFFFFFFFFFFFFEFFFFFC2F DUP1 PUSH2 0x228B JUMPI PUSH2 0x228A PUSH2 0x33BB JUMP JUMPDEST JUMPDEST PUSH32 0xFFFFFFFFFFFFFFFFFFFFFFFFFFFFFFFFFFFFFFFFFFFFFFFFFFFFFFFEFFFFFC2F DUP1 PUSH2 0x22BA JUMPI PUSH2 0x22B9 PUSH2 0x33BB JUMP JUMPDEST JUMPDEST DUP6 DUP5 MULMOD PUSH32 0xFFFFFFFFFFFFFFFFFFFFFFFFFFFFFFFFFFFFFFFFFFFFFFFFFFFFFFFEFFFFFC2F PUSH2 0x22E8 SWAP2 SWAP1 PUSH2 0x3457 JUMP JUMPDEST DUP7 ADDMOD DUP1 SWAP5 POP DUP2 SWAP6 POP POP POP DUP6 DUP7 DUP3 PUSH2 0x22FF SWAP2 SWAP1 PUSH2 0x35C5 JUMP JUMPDEST DUP4 PUSH2 0x230A SWAP2 SWAP1 PUSH2 0x3457 JUMP JUMPDEST DUP1 SWAP8 POP DUP2 SWAP4 POP POP POP PUSH2 0x2245 JUMP JUMPDEST DUP4 SWAP5 POP POP POP POP POP SWAP2 SWAP1 POP JUMP JUMPDEST PUSH1 0x0 PUSH11 0x636F6E736F6C652E6C6F67 SWAP1 POP PUSH1 0x0 DUP1 DUP4 MLOAD PUSH1 0x20 DUP6 ADD DUP5 GAS STATICCALL POP POP POP JUMP JUMPDEST PUSH2 0x241A DUP2 SWAP1 POP SWAP2 SWAP1 POP JUMP JUMPDEST DUP3 DUP1 SLOAD DUP3 DUP3 SSTORE SWAP1 PUSH1 0x0 MSTORE PUSH1 0x20 PUSH1 0x0 KECCAK256 SWAP1 DUP2 ADD SWAP3 DUP3 ISZERO PUSH2 0x2397 JUMPI SWAP2 PUSH1 0x20 MUL DUP3 ADD JUMPDEST DUP3 DUP2 GT ISZERO PUSH2 0x2396 JUMPI DUP3 MLOAD DUP3 SWAP1 DUP2 PUSH2 0x2386 SWAP2 SWAP1 PUSH2 0x37B3 JUMP JUMPDEST POP SWAP2 PUSH1 0x20 ADD SWAP2 SWAP1 PUSH1 0x1 ADD SWAP1 PUSH2 0x236F JUMP JUMPDEST JUMPDEST POP SWAP1 POP PUSH2 0x23A4 SWAP2 SWAP1 PUSH2 0x2424 JUMP JUMPDEST POP SWAP1 JUMP JUMPDEST PUSH1 0x40 MLOAD DUP1 PUSH1 0xC0 ADD PUSH1 0x40 MSTORE DUP1 PUSH1 0x0 DUP2 MSTORE PUSH1 0x20 ADD PUSH1 0x0 DUP2 MSTORE PUSH1 0x20 ADD PUSH1 0x0 DUP2 MSTORE PUSH1 0x20 ADD PUSH1 0x0 DUP2 MSTORE PUSH1 0x20 ADD PUSH1 0x0 DUP2 MSTORE PUSH1 0x20 ADD PUSH1 0x0 DUP2 MSTORE POP SWAP1 JUMP JUMPDEST PUSH1 0x40 MLOAD DUP1 PUSH1 0x40 ADD PUSH1 0x40 MSTORE DUP1 PUSH1 0x0 DUP2 MSTORE PUSH1 0x20 ADD PUSH1 0x0 DUP2 MSTORE POP SWAP1 JUMP JUMPDEST PUSH1 0x40 MLOAD DUP1 PUSH1 0x80 ADD PUSH1 0x40 MSTORE DUP1 PUSH1 0x4 SWAP1 PUSH1 0x20 DUP3 MUL DUP1 CALLDATASIZE DUP4 CALLDATACOPY DUP1 DUP3 ADD SWAP2 POP POP SWAP1 POP POP SWAP1 JUMP JUMPDEST PUSH2 0x2422 PUSH2 0x3885 JUMP JUMPDEST JUMP JUMPDEST JUMPDEST DUP1 DUP3 GT ISZERO PUSH2 0x2444 JUMPI PUSH1 0x0 DUP2 DUP2 PUSH2 0x243B SWAP2 SWAP1 PUSH2 0x2448 JUMP JUMPDEST POP PUSH1 0x1 ADD PUSH2 0x2425 JUMP JUMPDEST POP SWAP1 JUMP JUMPDEST POP DUP1 SLOAD PUSH2 0x2454 SWAP1 PUSH2 0x2EF8 JUMP JUMPDEST PUSH1 0x0 DUP3 SSTORE DUP1 PUSH1 0x1F LT PUSH2 0x2466 JUMPI POP PUSH2 0x2485 JUMP JUMPDEST PUSH1 0x1F ADD PUSH1 0x20 SWAP1 DIV SWAP1 PUSH1 0x0 MSTORE PUSH1 0x20 PUSH1 0x0 KECCAK256 SWAP1 DUP2 ADD SWAP1 PUSH2 0x2484 SWAP2 SWAP1 PUSH2 0x2488 JUMP JUMPDEST JUMPDEST POP JUMP JUMPDEST JUMPDEST DUP1 DUP3 GT ISZERO PUSH2 0x24A1 JUMPI PUSH1 0x0 DUP2 PUSH1 0x0 SWAP1 SSTORE POP PUSH1 0x1 ADD PUSH2 0x2489 JUMP JUMPDEST POP SWAP1 JUMP JUMPDEST PUSH1 0x0 DUP2 SWAP1 POP SWAP2 SWAP1 POP JUMP JUMPDEST PUSH2 0x24B8 DUP2 PUSH2 0x24A5 JUMP JUMPDEST DUP3 MSTORE POP POP JUMP JUMPDEST PUSH1 0x0 PUSH1 0x20 DUP3 ADD SWAP1 POP PUSH2 0x24D3 PUSH1 0x0 DUP4 ADD DUP5 PUSH2 0x24AF JUMP JUMPDEST SWAP3 SWAP2 POP POP JUMP JUMPDEST PUSH1 0x0 DUP2 MLOAD SWAP1 POP SWAP2 SWAP1 POP JUMP JUMPDEST PUSH1 0x0 DUP3 DUP3 MSTORE PUSH1 0x20 DUP3 ADD SWAP1 POP SWAP3 SWAP2 POP POP JUMP JUMPDEST PUSH1 0x0 DUP2 SWAP1 POP PUSH1 0x20 DUP3 ADD SWAP1 POP SWAP2 SWAP1 POP JUMP JUMPDEST PUSH1 0x0 DUP2 MLOAD SWAP1 POP SWAP2 SWAP1 POP JUMP JUMPDEST PUSH1 0x0 DUP3 DUP3 MSTORE PUSH1 0x20 DUP3 ADD SWAP1 POP SWAP3 SWAP2 POP POP JUMP JUMPDEST PUSH1 0x0 JUMPDEST DUP4 DUP2 LT ISZERO PUSH2 0x253F JUMPI DUP1 DUP3 ADD MLOAD DUP2 DUP5 ADD MSTORE PUSH1 0x20 DUP2 ADD SWAP1 POP PUSH2 0x2524 JUMP JUMPDEST PUSH1 0x0 DUP5 DUP5 ADD MSTORE POP POP POP POP JUMP JUMPDEST PUSH1 0x0 PUSH1 0x1F NOT PUSH1 0x1F DUP4 ADD AND SWAP1 POP SWAP2 SWAP1 POP JUMP JUMPDEST PUSH1 0x0 PUSH2 0x2567 DUP3 PUSH2 0x2505 JUMP JUMPDEST PUSH2 0x2571 DUP2 DUP6 PUSH2 0x2510 JUMP JUMPDEST SWAP4 POP PUSH2 0x2581 DUP2 DUP6 PUSH1 0x20 DUP7 ADD PUSH2 0x2521 JUMP JUMPDEST PUSH2 0x258A DUP2 PUSH2 0x254B JUMP JUMPDEST DUP5 ADD SWAP2 POP POP SWAP3 SWAP2 POP POP JUMP JUMPDEST PUSH1 0x0 PUSH2 0x25A1 DUP4 DUP4 PUSH2 0x255C JUMP JUMPDEST SWAP1 POP SWAP3 SWAP2 POP POP JUMP JUMPDEST PUSH1 0x0 PUSH1 0x20 DUP3 ADD SWAP1 POP SWAP2 SWAP1 POP JUMP JUMPDEST PUSH1 0x0 PUSH2 0x25C1 DUP3 PUSH2 0x24D9 JUMP JUMPDEST PUSH2 0x25CB DUP2 DUP6 PUSH2 0x24E4 JUMP JUMPDEST SWAP4 POP DUP4 PUSH1 0x20 DUP3 MUL DUP6 ADD PUSH2 0x25DD DUP6 PUSH2 0x24F5 JUMP JUMPDEST DUP1 PUSH1 0x0 JUMPDEST DUP6 DUP2 LT ISZERO PUSH2 0x2619 JUMPI DUP5 DUP5 SUB DUP10 MSTORE DUP2 MLOAD PUSH2 0x25FA DUP6 DUP3 PUSH2 0x2595 JUMP JUMPDEST SWAP5 POP PUSH2 0x2605 DUP4 PUSH2 0x25A9 JUMP JUMPDEST SWAP3 POP PUSH1 0x20 DUP11 ADD SWAP10 POP POP PUSH1 0x1 DUP2 ADD SWAP1 POP PUSH2 0x25E1 JUMP JUMPDEST POP DUP3 SWAP8 POP DUP8 SWAP6 POP POP POP POP POP POP SWAP3 SWAP2 POP POP JUMP JUMPDEST PUSH1 0x0 PUSH1 0x20 DUP3 ADD SWAP1 POP DUP2 DUP2 SUB PUSH1 0x0 DUP4 ADD MSTORE PUSH2 0x2645 DUP2 DUP5 PUSH2 0x25B6 JUMP JUMPDEST SWAP1 POP SWAP3 SWAP2 POP POP JUMP JUMPDEST PUSH1 0x0 PUSH1 0x40 MLOAD SWAP1 POP SWAP1 JUMP JUMPDEST PUSH1 0x0 DUP1 REVERT JUMPDEST PUSH1 0x0 DUP1 REVERT JUMPDEST PUSH1 0x0 DUP1 REVERT JUMPDEST PUSH32 0x4E487B7100000000000000000000000000000000000000000000000000000000 PUSH1 0x0 MSTORE PUSH1 0x41 PUSH1 0x4 MSTORE PUSH1 0x24 PUSH1 0x0 REVERT JUMPDEST PUSH2 0x269E DUP3 PUSH2 0x254B JUMP JUMPDEST DUP2 ADD DUP2 DUP2 LT PUSH8 0xFFFFFFFFFFFFFFFF DUP3 GT OR ISZERO PUSH2 0x26BD JUMPI PUSH2 0x26BC PUSH2 0x2666 JUMP JUMPDEST JUMPDEST DUP1 PUSH1 0x40 MSTORE POP POP POP JUMP JUMPDEST PUSH1 0x0 PUSH2 0x26D0 PUSH2 0x264D JUMP JUMPDEST SWAP1 POP PUSH2 0x26DC DUP3 DUP3 PUSH2 0x2695 JUMP JUMPDEST SWAP2 SWAP1 POP JUMP JUMPDEST PUSH1 0x0 PUSH8 0xFFFFFFFFFFFFFFFF DUP3 GT ISZERO PUSH2 0x26FC JUMPI PUSH2 0x26FB PUSH2 0x2666 JUMP JUMPDEST JUMPDEST PUSH1 0x20 DUP3 MUL SWAP1 POP PUSH1 0x20 DUP2 ADD SWAP1 POP SWAP2 SWAP1 POP JUMP JUMPDEST PUSH1 0x0 DUP1 REVERT JUMPDEST PUSH1 0x0 DUP1 REVERT JUMPDEST PUSH1 0x0 PUSH8 0xFFFFFFFFFFFFFFFF DUP3 GT ISZERO PUSH2 0x2732 JUMPI PUSH2 0x2731 PUSH2 0x2666 JUMP JUMPDEST JUMPDEST PUSH2 0x273B DUP3 PUSH2 0x254B JUMP JUMPDEST SWAP1 POP PUSH1 0x20 DUP2 ADD SWAP1 POP SWAP2 SWAP1 POP JUMP JUMPDEST DUP3 DUP2 DUP4 CALLDATACOPY PUSH1 0x0 DUP4 DUP4 ADD MSTORE POP POP POP JUMP JUMPDEST PUSH1 0x0 PUSH2 0x276A PUSH2 0x2765 DUP5 PUSH2 0x2717 JUMP JUMPDEST PUSH2 0x26C6 JUMP JUMPDEST SWAP1 POP DUP3 DUP2 MSTORE PUSH1 0x20 DUP2 ADD DUP5 DUP5 DUP5 ADD GT ISZERO PUSH2 0x2786 JUMPI PUSH2 0x2785 PUSH2 0x2712 JUMP JUMPDEST JUMPDEST PUSH2 0x2791 DUP5 DUP3 DUP6 PUSH2 0x2748 JUMP JUMPDEST POP SWAP4 SWAP3 POP POP POP JUMP JUMPDEST PUSH1 0x0 DUP3 PUSH1 0x1F DUP4 ADD SLT PUSH2 0x27AE JUMPI PUSH2 0x27AD PUSH2 0x2661 JUMP JUMPDEST JUMPDEST DUP2 CALLDATALOAD PUSH2 0x27BE DUP5 DUP3 PUSH1 0x20 DUP7 ADD PUSH2 0x2757 JUMP JUMPDEST SWAP2 POP POP SWAP3 SWAP2 POP POP JUMP JUMPDEST PUSH1 0x0 PUSH2 0x27DA PUSH2 0x27D5 DUP5 PUSH2 0x26E1 JUMP JUMPDEST PUSH2 0x26C6 JUMP JUMPDEST SWAP1 POP DUP1 DUP4 DUP3 MSTORE PUSH1 0x20 DUP3 ADD SWAP1 POP PUSH1 0x20 DUP5 MUL DUP4 ADD DUP6 DUP2 GT ISZERO PUSH2 0x27FD JUMPI PUSH2 0x27FC PUSH2 0x270D JUMP JUMPDEST JUMPDEST DUP4 JUMPDEST DUP2 DUP2 LT ISZERO PUSH2 0x2844 JUMPI DUP1 CALLDATALOAD PUSH8 0xFFFFFFFFFFFFFFFF DUP2 GT ISZERO PUSH2 0x2822 JUMPI PUSH2 0x2821 PUSH2 0x2661 JUMP JUMPDEST JUMPDEST DUP1 DUP7 ADD PUSH2 0x282F DUP10 DUP3 PUSH2 0x2799 JUMP JUMPDEST DUP6 MSTORE PUSH1 0x20 DUP6 ADD SWAP5 POP POP POP PUSH1 0x20 DUP2 ADD SWAP1 POP PUSH2 0x27FF JUMP JUMPDEST POP POP POP SWAP4 SWAP3 POP POP POP JUMP JUMPDEST PUSH1 0x0 DUP3 PUSH1 0x1F DUP4 ADD SLT PUSH2 0x2863 JUMPI PUSH2 0x2862 PUSH2 0x2661 JUMP JUMPDEST JUMPDEST DUP2 CALLDATALOAD PUSH2 0x2873 DUP5 DUP3 PUSH1 0x20 DUP7 ADD PUSH2 0x27C7 JUMP JUMPDEST SWAP2 POP POP SWAP3 SWAP2 POP POP JUMP JUMPDEST PUSH1 0x0 PUSH1 0x20 DUP3 DUP5 SUB SLT ISZERO PUSH2 0x2892 JUMPI PUSH2 0x2891 PUSH2 0x2657 JUMP JUMPDEST JUMPDEST PUSH1 0x0 DUP3 ADD CALLDATALOAD PUSH8 0xFFFFFFFFFFFFFFFF DUP2 GT ISZERO PUSH2 0x28B0 JUMPI PUSH2 0x28AF PUSH2 0x265C JUMP JUMPDEST JUMPDEST PUSH2 0x28BC DUP5 DUP3 DUP6 ADD PUSH2 0x284E JUMP JUMPDEST SWAP2 POP POP SWAP3 SWAP2 POP POP JUMP JUMPDEST PUSH32 0x4E487B7100000000000000000000000000000000000000000000000000000000 PUSH1 0x0 MSTORE PUSH1 0x21 PUSH1 0x4 MSTORE PUSH1 0x24 PUSH1 0x0 REVERT JUMPDEST PUSH1 0x5 DUP2 LT PUSH2 0x2905 JUMPI PUSH2 0x2904 PUSH2 0x28C5 JUMP JUMPDEST JUMPDEST POP JUMP JUMPDEST PUSH1 0x0 DUP2 SWAP1 POP PUSH2 0x2916 DUP3 PUSH2 0x28F4 JUMP JUMPDEST SWAP2 SWAP1 POP JUMP JUMPDEST PUSH1 0x0 PUSH2 0x2926 DUP3 PUSH2 0x2908 JUMP JUMPDEST SWAP1 POP SWAP2 SWAP1 POP JUMP JUMPDEST PUSH2 0x2936 DUP2 PUSH2 0x291B JUMP JUMPDEST DUP3 MSTORE POP POP JUMP JUMPDEST PUSH1 0x0 PUSH1 0x20 DUP3 ADD SWAP1 POP PUSH2 0x2951 PUSH1 0x0 DUP4 ADD DUP5 PUSH2 0x292D JUMP JUMPDEST SWAP3 SWAP2 POP POP JUMP JUMPDEST PUSH2 0x2960 DUP2 PUSH2 0x24A5 JUMP JUMPDEST DUP2 EQ PUSH2 0x296B JUMPI PUSH1 0x0 DUP1 REVERT JUMPDEST POP JUMP JUMPDEST PUSH1 0x0 DUP2 CALLDATALOAD SWAP1 POP PUSH2 0x297D DUP2 PUSH2 0x2957 JUMP JUMPDEST SWAP3 SWAP2 POP POP JUMP JUMPDEST PUSH1 0x0 DUP1 PUSH1 0x0 DUP1 PUSH1 0x80 DUP6 DUP8 SUB SLT ISZERO PUSH2 0x299D JUMPI PUSH2 0x299C PUSH2 0x2657 JUMP JUMPDEST JUMPDEST PUSH1 0x0 PUSH2 0x29AB DUP8 DUP3 DUP9 ADD PUSH2 0x296E JUMP JUMPDEST SWAP5 POP POP PUSH1 0x20 PUSH2 0x29BC DUP8 DUP3 DUP9 ADD PUSH2 0x296E JUMP JUMPDEST SWAP4 POP POP PUSH1 0x40 PUSH2 0x29CD DUP8 DUP3 DUP9 ADD PUSH2 0x296E JUMP JUMPDEST SWAP3 POP POP PUSH1 0x60 PUSH2 0x29DE DUP8 DUP3 DUP9 ADD PUSH2 0x296E JUMP JUMPDEST SWAP2 POP POP SWAP3 SWAP6 SWAP2 SWAP5 POP SWAP3 POP JUMP JUMPDEST PUSH1 0x0 DUP2 MLOAD SWAP1 POP SWAP2 SWAP1 POP JUMP JUMPDEST PUSH1 0x0 DUP3 DUP3 MSTORE PUSH1 0x20 DUP3 ADD SWAP1 POP SWAP3 SWAP2 POP POP JUMP JUMPDEST PUSH1 0x0 DUP2 SWAP1 POP PUSH1 0x20 DUP3 ADD SWAP1 POP SWAP2 SWAP1 POP JUMP JUMPDEST PUSH2 0x2A1F DUP2 PUSH2 0x24A5 JUMP JUMPDEST DUP3 MSTORE POP POP JUMP JUMPDEST PUSH1 0x40 DUP3 ADD PUSH1 0x0 DUP3 ADD MLOAD PUSH2 0x2A3B PUSH1 0x0 DUP6 ADD DUP3 PUSH2 0x2A16 JUMP JUMPDEST POP PUSH1 0x20 DUP3 ADD MLOAD PUSH2 0x2A4E PUSH1 0x20 DUP6 ADD DUP3 PUSH2 0x2A16 JUMP JUMPDEST POP POP POP POP JUMP JUMPDEST PUSH1 0x40 DUP3 ADD PUSH1 0x0 DUP3 ADD MLOAD PUSH2 0x2A6A PUSH1 0x0 DUP6 ADD DUP3 PUSH2 0x2A16 JUMP JUMPDEST POP PUSH1 0x20 DUP3 ADD MLOAD PUSH2 0x2A7D PUSH1 0x20 DUP6 ADD DUP3 PUSH2 0x2A16 JUMP JUMPDEST POP POP POP POP JUMP JUMPDEST PUSH1 0x80 DUP3 ADD PUSH1 0x0 DUP3 ADD MLOAD PUSH2 0x2A99 PUSH1 0x0 DUP6 ADD DUP3 PUSH2 0x2A25 JUMP JUMPDEST POP PUSH1 0x20 DUP3 ADD MLOAD PUSH2 0x2AAC PUSH1 0x40 DUP6 ADD DUP3 PUSH2 0x2A54 JUMP JUMPDEST POP POP POP POP JUMP JUMPDEST PUSH1 0x0 PUSH2 0x2ABE DUP4 DUP4 PUSH2 0x2A83 JUMP JUMPDEST PUSH1 0x80 DUP4 ADD SWAP1 POP SWAP3 SWAP2 POP POP JUMP JUMPDEST PUSH1 0x0 PUSH1 0x20 DUP3 ADD SWAP1 POP SWAP2 SWAP1 POP JUMP JUMPDEST PUSH1 0x0 PUSH2 0x2AE2 DUP3 PUSH2 0x29EA JUMP JUMPDEST PUSH2 0x2AEC DUP2 DUP6 PUSH2 0x29F5 JUMP JUMPDEST SWAP4 POP PUSH2 0x2AF7 DUP4 PUSH2 0x2A06 JUMP JUMPDEST DUP1 PUSH1 0x0 JUMPDEST DUP4 DUP2 LT ISZERO PUSH2 0x2B28 JUMPI DUP2 MLOAD PUSH2 0x2B0F DUP9 DUP3 PUSH2 0x2AB2 JUMP JUMPDEST SWAP8 POP PUSH2 0x2B1A DUP4 PUSH2 0x2ACA JUMP JUMPDEST SWAP3 POP POP PUSH1 0x1 DUP2 ADD SWAP1 POP PUSH2 0x2AFB JUMP JUMPDEST POP DUP6 SWAP4 POP POP POP POP SWAP3 SWAP2 POP POP JUMP JUMPDEST PUSH1 0x0 PUSH1 0x20 DUP3 ADD SWAP1 POP DUP2 DUP2 SUB PUSH1 0x0 DUP4 ADD MSTORE PUSH2 0x2B4F DUP2 DUP5 PUSH2 0x2AD7 JUMP JUMPDEST SWAP1 POP SWAP3 SWAP2 POP POP JUMP JUMPDEST PUSH1 0x0 PUSH1 0x20 DUP3 DUP5 SUB SLT ISZERO PUSH2 0x2B6D JUMPI PUSH2 0x2B6C PUSH2 0x2657 JUMP JUMPDEST JUMPDEST PUSH1 0x0 PUSH2 0x2B7B DUP5 DUP3 DUP6 ADD PUSH2 0x296E JUMP JUMPDEST SWAP2 POP POP SWAP3 SWAP2 POP POP JUMP JUMPDEST PUSH1 0x0 DUP3 DUP3 MSTORE PUSH1 0x20 DUP3 ADD SWAP1 POP SWAP3 SWAP2 POP POP JUMP JUMPDEST PUSH1 0x0 PUSH2 0x2BA0 DUP3 PUSH2 0x2505 JUMP JUMPDEST PUSH2 0x2BAA DUP2 DUP6 PUSH2 0x2B84 JUMP JUMPDEST SWAP4 POP PUSH2 0x2BBA DUP2 DUP6 PUSH1 0x20 DUP7 ADD PUSH2 0x2521 JUMP JUMPDEST PUSH2 0x2BC3 DUP2 PUSH2 0x254B JUMP JUMPDEST DUP5 ADD SWAP2 POP POP SWAP3 SWAP2 POP POP JUMP JUMPDEST PUSH1 0x0 PUSH1 0x20 DUP3 ADD SWAP1 POP DUP2 DUP2 SUB PUSH1 0x0 DUP4 ADD MSTORE PUSH2 0x2BE8 DUP2 DUP5 PUSH2 0x2B95 JUMP JUMPDEST SWAP1 POP SWAP3 SWAP2 POP POP JUMP JUMPDEST PUSH1 0x0 PUSH8 0xFFFFFFFFFFFFFFFF DUP3 GT ISZERO PUSH2 0x2C0B JUMPI PUSH2 0x2C0A PUSH2 0x2666 JUMP JUMPDEST JUMPDEST PUSH1 0x20 DUP3 MUL SWAP1 POP PUSH1 0x20 DUP2 ADD SWAP1 POP SWAP2 SWAP1 POP JUMP JUMPDEST PUSH1 0x0 DUP1 REVERT JUMPDEST PUSH1 0x0 PUSH1 0x40 DUP3 DUP5 SUB SLT ISZERO PUSH2 0x2C37 JUMPI PUSH2 0x2C36 PUSH2 0x2C1C JUMP JUMPDEST JUMPDEST PUSH2 0x2C41 PUSH1 0x40 PUSH2 0x26C6 JUMP JUMPDEST SWAP1 POP PUSH1 0x0 PUSH2 0x2C51 DUP5 DUP3 DUP6 ADD PUSH2 0x296E JUMP JUMPDEST PUSH1 0x0 DUP4 ADD MSTORE POP PUSH1 0x20 PUSH2 0x2C65 DUP5 DUP3 DUP6 ADD PUSH2 0x296E JUMP JUMPDEST PUSH1 0x20 DUP4 ADD MSTORE POP SWAP3 SWAP2 POP POP JUMP JUMPDEST PUSH1 0x0 PUSH2 0x2C84 PUSH2 0x2C7F DUP5 PUSH2 0x2BF0 JUMP JUMPDEST PUSH2 0x26C6 JUMP JUMPDEST SWAP1 POP DUP1 DUP4 DUP3 MSTORE PUSH1 0x20 DUP3 ADD SWAP1 POP PUSH1 0x40 DUP5 MUL DUP4 ADD DUP6 DUP2 GT ISZERO PUSH2 0x2CA7 JUMPI PUSH2 0x2CA6 PUSH2 0x270D JUMP JUMPDEST JUMPDEST DUP4 JUMPDEST DUP2 DUP2 LT ISZERO PUSH2 0x2CD0 JUMPI DUP1 PUSH2 0x2CBC DUP9 DUP3 PUSH2 0x2C21 JUMP JUMPDEST DUP5 MSTORE PUSH1 0x20 DUP5 ADD SWAP4 POP POP PUSH1 0x40 DUP2 ADD SWAP1 POP PUSH2 0x2CA9 JUMP JUMPDEST POP POP POP SWAP4 SWAP3 POP POP POP JUMP JUMPDEST PUSH1 0x0 DUP3 PUSH1 0x1F DUP4 ADD SLT PUSH2 0x2CEF JUMPI PUSH2 0x2CEE PUSH2 0x2661 JUMP JUMPDEST JUMPDEST DUP2 CALLDATALOAD PUSH2 0x2CFF DUP5 DUP3 PUSH1 0x20 DUP7 ADD PUSH2 0x2C71 JUMP JUMPDEST SWAP2 POP POP SWAP3 SWAP2 POP POP JUMP JUMPDEST PUSH1 0x0 PUSH1 0x20 DUP3 DUP5 SUB SLT ISZERO PUSH2 0x2D1E JUMPI PUSH2 0x2D1D PUSH2 0x2657 JUMP JUMPDEST JUMPDEST PUSH1 0x0 DUP3 ADD CALLDATALOAD PUSH8 0xFFFFFFFFFFFFFFFF DUP2 GT ISZERO PUSH2 0x2D3C JUMPI PUSH2 0x2D3B PUSH2 0x265C JUMP JUMPDEST JUMPDEST PUSH2 0x2D48 DUP5 DUP3 DUP6 ADD PUSH2 0x2CDA JUMP JUMPDEST SWAP2 POP POP SWAP3 SWAP2 POP POP JUMP JUMPDEST PUSH1 0x40 DUP3 ADD PUSH1 0x0 DUP3 ADD MLOAD PUSH2 0x2D67 PUSH1 0x0 DUP6 ADD DUP3 PUSH2 0x2A16 JUMP JUMPDEST POP PUSH1 0x20 DUP3 ADD MLOAD PUSH2 0x2D7A PUSH1 0x20 DUP6 ADD DUP3 PUSH2 0x2A16 JUMP JUMPDEST POP POP POP POP JUMP JUMPDEST PUSH1 0x40 DUP3 ADD PUSH1 0x0 DUP3 ADD MLOAD PUSH2 0x2D96 PUSH1 0x0 DUP6 ADD DUP3 PUSH2 0x2A16 JUMP JUMPDEST POP PUSH1 0x20 DUP3 ADD MLOAD PUSH2 0x2DA9 PUSH1 0x20 DUP6 ADD DUP3 PUSH2 0x2A16 JUMP JUMPDEST POP POP POP POP JUMP JUMPDEST PUSH1 0x0 PUSH1 0x80 DUP3 ADD SWAP1 POP PUSH2 0x2DC4 PUSH1 0x0 DUP4 ADD DUP6 PUSH2 0x2D51 JUMP JUMPDEST PUSH2 0x2DD1 PUSH1 0x40 DUP4 ADD DUP5 PUSH2 0x2D80 JUMP JUMPDEST SWAP4 SWAP3 POP POP POP JUMP JUMPDEST PUSH1 0xC0 DUP3 ADD PUSH1 0x0 DUP3 ADD MLOAD PUSH2 0x2DEE PUSH1 0x0 DUP6 ADD DUP3 PUSH2 0x2A16 JUMP JUMPDEST POP PUSH1 0x20 DUP3 ADD MLOAD PUSH2 0x2E01 PUSH1 0x20 DUP6 ADD DUP3 PUSH2 0x2A16 JUMP JUMPDEST POP PUSH1 0x40 DUP3 ADD MLOAD PUSH2 0x2E14 PUSH1 0x40 DUP6 ADD DUP3 PUSH2 0x2A16 JUMP JUMPDEST POP PUSH1 0x60 DUP3 ADD MLOAD PUSH2 0x2E27 PUSH1 0x60 DUP6 ADD DUP3 PUSH2 0x2A16 JUMP JUMPDEST POP PUSH1 0x80 DUP3 ADD MLOAD PUSH2 0x2E3A PUSH1 0x80 DUP6 ADD DUP3 PUSH2 0x2A16 JUMP JUMPDEST POP PUSH1 0xA0 DUP3 ADD MLOAD PUSH2 0x2E4D PUSH1 0xA0 DUP6 ADD DUP3 PUSH2 0x2A16 JUMP JUMPDEST POP POP POP POP JUMP JUMPDEST PUSH1 0x0 PUSH1 0xC0 DUP3 ADD SWAP1 POP PUSH2 0x2E68 PUSH1 0x0 DUP4 ADD DUP5 PUSH2 0x2DD8 JUMP JUMPDEST SWAP3 SWAP2 POP POP JUMP JUMPDEST PUSH1 0x0 DUP1 PUSH1 0x40 DUP4 DUP6 SUB SLT ISZERO PUSH2 0x2E85 JUMPI PUSH2 0x2E84 PUSH2 0x2657 JUMP JUMPDEST JUMPDEST PUSH1 0x0 PUSH2 0x2E93 DUP6 DUP3 DUP7 ADD PUSH2 0x296E JUMP JUMPDEST SWAP3 POP POP PUSH1 0x20 PUSH2 0x2EA4 DUP6 DUP3 DUP7 ADD PUSH2 0x296E JUMP JUMPDEST SWAP2 POP POP SWAP3 POP SWAP3 SWAP1 POP JUMP JUMPDEST PUSH1 0x0 PUSH1 0x40 DUP3 ADD SWAP1 POP PUSH2 0x2EC3 PUSH1 0x0 DUP4 ADD DUP5 PUSH2 0x2D51 JUMP JUMPDEST SWAP3 SWAP2 POP POP JUMP JUMPDEST PUSH32 0x4E487B7100000000000000000000000000000000000000000000000000000000 PUSH1 0x0 MSTORE PUSH1 0x22 PUSH1 0x4 MSTORE PUSH1 0x24 PUSH1 0x0 REVERT JUMPDEST PUSH1 0x0 PUSH1 0x2 DUP3 DIV SWAP1 POP PUSH1 0x1 DUP3 AND DUP1 PUSH2 0x2F10 JUMPI PUSH1 0x7F DUP3 AND SWAP2 POP JUMPDEST PUSH1 0x20 DUP3 LT DUP2 SUB PUSH2 0x2F23 JUMPI PUSH2 0x2F22 PUSH2 0x2EC9 JUMP JUMPDEST JUMPDEST POP SWAP2 SWAP1 POP JUMP JUMPDEST PUSH32 0x456C656374696F6E206973206E6F7420696E2073657475702070686173650000 PUSH1 0x0 DUP3 ADD MSTORE POP JUMP JUMPDEST PUSH1 0x0 PUSH2 0x2F5F PUSH1 0x1E DUP4 PUSH2 0x2B84 JUMP JUMPDEST SWAP2 POP PUSH2 0x2F6A DUP3 PUSH2 0x2F29 JUMP JUMPDEST PUSH1 0x20 DUP3 ADD SWAP1 POP SWAP2 SWAP1 POP JUMP JUMPDEST PUSH1 0x0 PUSH1 0x20 DUP3 ADD SWAP1 POP DUP2 DUP2 SUB PUSH1 0x0 DUP4 ADD MSTORE PUSH2 0x2F8E DUP2 PUSH2 0x2F52 JUMP JUMPDEST SWAP1 POP SWAP2 SWAP1 POP JUMP JUMPDEST PUSH32 0x4174206C656173742074776F2063616E64696461746573206172652072657175 PUSH1 0x0 DUP3 ADD MSTORE PUSH32 0x6972656400000000000000000000000000000000000000000000000000000000 PUSH1 0x20 DUP3 ADD MSTORE POP JUMP JUMPDEST PUSH1 0x0 PUSH2 0x2FF1 PUSH1 0x24 DUP4 PUSH2 0x2B84 JUMP JUMPDEST SWAP2 POP PUSH2 0x2FFC DUP3 PUSH2 0x2F95 JUMP JUMPDEST PUSH1 0x40 DUP3 ADD SWAP1 POP SWAP2 SWAP1 POP JUMP JUMPDEST PUSH1 0x0 PUSH1 0x20 DUP3 ADD SWAP1 POP DUP2 DUP2 SUB PUSH1 0x0 DUP4 ADD MSTORE PUSH2 0x3020 DUP2 PUSH2 0x2FE4 JUMP JUMPDEST SWAP1 POP SWAP2 SWAP1 POP JUMP JUMPDEST PUSH32 0x496E76616C6964206B65792070726F6F66000000000000000000000000000000 PUSH1 0x0 DUP3 ADD MSTORE POP JUMP JUMPDEST PUSH1 0x0 PUSH2 0x305D PUSH1 0x11 DUP4 PUSH2 0x2B84 JUMP JUMPDEST SWAP2 POP PUSH2 0x3068 DUP3 PUSH2 0x3027 JUMP JUMPDEST PUSH1 0x20 DUP3 ADD SWAP1 POP SWAP2 SWAP1 POP JUMP JUMPDEST PUSH1 0x0 PUSH1 0x20 DUP3 ADD SWAP1 POP DUP2 DUP2 SUB PUSH1 0x0 DUP4 ADD MSTORE PUSH2 0x308C DUP2 PUSH2 0x3050 JUMP JUMPDEST SWAP1 POP SWAP2 SWAP1 POP JUMP JUMPDEST PUSH32 0x4E487B7100000000000000000000000000000000000000000000000000000000 PUSH1 0x0 MSTORE PUSH1 0x32 PUSH1 0x4 MSTORE PUSH1 0x24 PUSH1 0x0 REVERT JUMPDEST PUSH32 0x417574686F7269747920616C7265616479207265676973746572656400000000 PUSH1 0x0 DUP3 ADD MSTORE POP JUMP JUMPDEST PUSH1 0x0 PUSH2 0x30F8 PUSH1 0x1C DUP4 PUSH2 0x2B84 JUMP JUMPDEST SWAP2 POP PUSH2 0x3103 DUP3 PUSH2 0x30C2 JUMP JUMPDEST PUSH1 0x20 DUP3 ADD SWAP1 POP SWAP2 SWAP1 POP JUMP JUMPDEST PUSH1 0x0 PUSH1 0x20 DUP3 ADD SWAP1 POP DUP2 DUP2 SUB PUSH1 0x0 DUP4 ADD MSTORE PUSH2 0x3127 DUP2 PUSH2 0x30EB JUMP JUMPDEST SWAP1 POP SWAP2 SWAP1 POP JUMP JUMPDEST PUSH32 0x50726F6F6620616C726561647920726567697374657265640000000000000000 PUSH1 0x0 DUP3 ADD MSTORE POP JUMP JUMPDEST PUSH1 0x0 PUSH2 0x3164 PUSH1 0x18 DUP4 PUSH2 0x2B84 JUMP JUMPDEST SWAP2 POP PUSH2 0x316F DUP3 PUSH2 0x312E JUMP JUMPDEST PUSH1 0x20 DUP3 ADD SWAP1 POP SWAP2 SWAP1 POP JUMP JUMPDEST PUSH1 0x0 PUSH1 0x20 DUP3 ADD SWAP1 POP DUP2 DUP2 SUB PUSH1 0x0 DUP4 ADD MSTORE PUSH2 0x3193 DUP2 PUSH2 0x3157 JUMP JUMPDEST SWAP1 POP SWAP2 SWAP1 POP JUMP JUMPDEST PUSH1 0x0 PUSH1 0x80 DUP3 ADD SWAP1 POP PUSH2 0x31AF PUSH1 0x0 DUP4 ADD DUP8 PUSH2 0x24AF JUMP JUMPDEST PUSH2 0x31BC PUSH1 0x20 DUP4 ADD DUP7 PUSH2 0x24AF JUMP JUMPDEST PUSH2 0x31C9 PUSH1 0x40 DUP4 ADD DUP6 PUSH2 0x24AF JUMP JUMPDEST PUSH2 0x31D6 PUSH1 0x60 DUP4 ADD DUP5 PUSH2 0x24AF JUMP JUMPDEST SWAP6 SWAP5 POP POP POP POP POP JUMP JUMPDEST PUSH32 0x4E6F20706F696E74732070726F76696465640000000000000000000000000000 PUSH1 0x0 DUP3 ADD MSTORE POP JUMP JUMPDEST PUSH1 0x0 PUSH2 0x3215 PUSH1 0x12 DUP4 PUSH2 0x2B84 JUMP JUMPDEST SWAP2 POP PUSH2 0x3220 DUP3 PUSH2 0x31DF JUMP JUMPDEST PUSH1 0x20 DUP3 ADD SWAP1 POP SWAP2 SWAP1 POP JUMP JUMPDEST PUSH1 0x0 PUSH1 0x20 DUP3 ADD SWAP1 POP DUP2 DUP2 SUB PUSH1 0x0 DUP4 ADD MSTORE PUSH2 0x3244 DUP2 PUSH2 0x3208 JUMP JUMPDEST SWAP1 POP SWAP2 SWAP1 POP JUMP JUMPDEST PUSH1 0x0 DUP2 SWAP1 POP SWAP2 SWAP1 POP JUMP JUMPDEST PUSH2 0x3266 PUSH2 0x3261 DUP3 PUSH2 0x24A5 JUMP JUMPDEST PUSH2 0x324B JUMP JUMPDEST DUP3 MSTORE POP POP JUMP JUMPDEST PUSH1 0x0 DUP2 SWAP1 POP SWAP3 SWAP2 POP POP JUMP JUMPDEST PUSH32 0x2C00000000000000000000000000000000000000000000000000000000000000 PUSH1 0x0 DUP3 ADD MSTORE POP JUMP JUMPDEST PUSH1 0x0 PUSH2 0x32AD PUSH1 0x1 DUP4 PUSH2 0x326C JUMP JUMPDEST SWAP2 POP PUSH2 0x32B8 DUP3 PUSH2 0x3277 JUMP JUMPDEST PUSH1 0x1 DUP3 ADD SWAP1 POP SWAP2 SWAP1 POP JUMP JUMPDEST PUSH1 0x0 PUSH2 0x32CF DUP3 DUP6 PUSH2 0x3255 JUMP JUMPDEST PUSH1 0x20 DUP3 ADD SWAP2 POP PUSH2 0x32DE DUP3 PUSH2 0x32A0 JUMP JUMPDEST SWAP2 POP PUSH2 0x32EA DUP3 DUP5 PUSH2 0x3255 JUMP JUMPDEST PUSH1 0x20 DUP3 ADD SWAP2 POP DUP2 SWAP1 POP SWAP4 SWAP3 POP POP POP JUMP JUMPDEST PUSH1 0x0 DUP2 MLOAD SWAP1 POP SWAP2 SWAP1 POP JUMP JUMPDEST PUSH1 0x0 DUP2 SWAP1 POP SWAP3 SWAP2 POP POP JUMP JUMPDEST PUSH1 0x0 PUSH2 0x331B DUP3 PUSH2 0x32FA JUMP JUMPDEST PUSH2 0x3325 DUP2 DUP6 PUSH2 0x3305 JUMP JUMPDEST SWAP4 POP PUSH2 0x3335 DUP2 DUP6 PUSH1 0x20 DUP7 ADD PUSH2 0x2521 JUMP JUMPDEST DUP1 DUP5 ADD SWAP2 POP POP SWAP3 SWAP2 POP POP JUMP JUMPDEST PUSH1 0x0 PUSH2 0x334D DUP3 DUP5 PUSH2 0x3310 JUMP JUMPDEST SWAP2 POP DUP2 SWAP1 POP SWAP3 SWAP2 POP POP JUMP JUMPDEST PUSH1 0x0 DUP2 SWAP1 POP SWAP2 SWAP1 POP JUMP JUMPDEST PUSH2 0x336B DUP2 PUSH2 0x3358 JUMP JUMPDEST DUP2 EQ PUSH2 0x3376 JUMPI PUSH1 0x0 DUP1 REVERT JUMPDEST POP JUMP JUMPDEST PUSH1 0x0 DUP2 MLOAD SWAP1 POP PUSH2 0x3388 DUP2 PUSH2 0x3362 JUMP JUMPDEST SWAP3 SWAP2 POP POP JUMP JUMPDEST PUSH1 0x0 PUSH1 0x20 DUP3 DUP5 SUB SLT ISZERO PUSH2 0x33A4 JUMPI PUSH2 0x33A3 PUSH2 0x2657 JUMP JUMPDEST JUMPDEST PUSH1 0x0 PUSH2 0x33B2 DUP5 DUP3 DUP6 ADD PUSH2 0x3379 JUMP JUMPDEST SWAP2 POP POP SWAP3 SWAP2 POP POP JUMP JUMPDEST PUSH32 0x4E487B7100000000000000000000000000000000000000000000000000000000 PUSH1 0x0 MSTORE PUSH1 0x12 PUSH1 0x4 MSTORE PUSH1 0x24 PUSH1 0x0 REVERT JUMPDEST PUSH1 0x0 PUSH1 0x60 DUP3 ADD SWAP1 POP DUP2 DUP2 SUB PUSH1 0x0 DUP4 ADD MSTORE PUSH2 0x3404 DUP2 DUP7 PUSH2 0x2B95 JUMP JUMPDEST SWAP1 POP PUSH2 0x3413 PUSH1 0x20 DUP4 ADD DUP6 PUSH2 0x24AF JUMP JUMPDEST PUSH2 0x3420 PUSH1 0x40 DUP4 ADD DUP5 PUSH2 0x24AF JUMP JUMPDEST SWAP5 SWAP4 POP POP POP POP JUMP JUMPDEST PUSH32 0x4E487B7100000000000000000000000000000000000000000000000000000000 PUSH1 0x0 MSTORE PUSH1 0x11 PUSH1 0x4 MSTORE PUSH1 0x24 PUSH1 0x0 REVERT JUMPDEST PUSH1 0x0 PUSH2 0x3462 DUP3 PUSH2 0x24A5 JUMP JUMPDEST SWAP2 POP PUSH2 0x346D DUP4 PUSH2 0x24A5 JUMP JUMPDEST SWAP3 POP DUP3 DUP3 SUB SWAP1 POP DUP2 DUP2 GT ISZERO PUSH2 0x3485 JUMPI PUSH2 0x3484 PUSH2 0x3428 JUMP JUMPDEST JUMPDEST SWAP3 SWAP2 POP POP JUMP JUMPDEST PUSH32 0x557365206A6163446F75626C652066756E6374696F6E20696E73746561640000 PUSH1 0x0 DUP3 ADD MSTORE POP JUMP JUMPDEST PUSH1 0x0 PUSH2 0x34C1 PUSH1 0x1E DUP4 PUSH2 0x2B84 JUMP JUMPDEST SWAP2 POP PUSH2 0x34CC DUP3 PUSH2 0x348B JUMP JUMPDEST PUSH1 0x20 DUP3 ADD SWAP1 POP SWAP2 SWAP1 POP JUMP JUMPDEST PUSH1 0x0 PUSH1 0x20 DUP3 ADD SWAP1 POP DUP2 DUP2 SUB PUSH1 0x0 DUP4 ADD MSTORE PUSH2 0x34F0 DUP2 PUSH2 0x34B4 JUMP JUMPDEST SWAP1 POP SWAP2 SWAP1 POP JUMP JUMPDEST PUSH1 0x0 PUSH2 0x3502 DUP3 PUSH2 0x24A5 JUMP JUMPDEST SWAP2 POP PUSH2 0x350D DUP4 PUSH2 0x24A5 JUMP JUMPDEST SWAP3 POP DUP3 PUSH2 0x351D JUMPI PUSH2 0x351C PUSH2 0x33BB JUMP JUMPDEST JUMPDEST DUP3 DUP3 DIV SWAP1 POP SWAP3 SWAP2 POP POP JUMP JUMPDEST PUSH1 0x0 PUSH2 0x3533 DUP3 PUSH2 0x24A5 JUMP JUMPDEST SWAP2 POP PUSH2 0x353E DUP4 PUSH2 0x24A5 JUMP JUMPDEST SWAP3 POP DUP3 PUSH2 0x354E JUMPI PUSH2 0x354D PUSH2 0x33BB JUMP JUMPDEST JUMPDEST DUP3 DUP3 MOD SWAP1 POP SWAP3 SWAP2 POP POP JUMP JUMPDEST PUSH32 0x496E76616C6964206E756D626572000000000000000000000000000000000000 PUSH1 0x0 DUP3 ADD MSTORE POP JUMP JUMPDEST PUSH1 0x0 PUSH2 0x358F PUSH1 0xE DUP4 PUSH2 0x2B84 JUMP JUMPDEST SWAP2 POP PUSH2 0x359A DUP3 PUSH2 0x3559 JUMP JUMPDEST PUSH1 0x20 DUP3 ADD SWAP1 POP SWAP2 SWAP1 POP JUMP JUMPDEST PUSH1 0x0 PUSH1 0x20 DUP3 ADD SWAP1 POP DUP2 DUP2 SUB PUSH1 0x0 DUP4 ADD MSTORE PUSH2 0x35BE DUP2 PUSH2 0x3582 JUMP JUMPDEST SWAP1 POP SWAP2 SWAP1 POP JUMP JUMPDEST PUSH1 0x0 PUSH2 0x35D0 DUP3 PUSH2 0x24A5 JUMP JUMPDEST SWAP2 POP PUSH2 0x35DB DUP4 PUSH2 0x24A5 JUMP JUMPDEST SWAP3 POP DUP3 DUP3 MUL PUSH2 0x35E9 DUP2 PUSH2 0x24A5 JUMP JUMPDEST SWAP2 POP DUP3 DUP3 DIV DUP5 EQ DUP4 ISZERO OR PUSH2 0x3600 JUMPI PUSH2 0x35FF PUSH2 0x3428 JUMP JUMPDEST JUMPDEST POP SWAP3 SWAP2 POP POP JUMP JUMPDEST PUSH1 0x0 DUP2 SWAP1 POP DUP2 PUSH1 0x0 MSTORE PUSH1 0x20 PUSH1 0x0 KECCAK256 SWAP1 POP SWAP2 SWAP1 POP JUMP JUMPDEST PUSH1 0x0 PUSH1 0x20 PUSH1 0x1F DUP4 ADD DIV SWAP1 POP SWAP2 SWAP1 POP JUMP JUMPDEST PUSH1 0x0 DUP3 DUP3 SHL SWAP1 POP SWAP3 SWAP2 POP POP JUMP JUMPDEST PUSH1 0x0 PUSH1 0x8 DUP4 MUL PUSH2 0x3669 PUSH32 0xFFFFFFFFFFFFFFFFFFFFFFFFFFFFFFFFFFFFFFFFFFFFFFFFFFFFFFFFFFFFFFFF DUP3 PUSH2 0x362C JUMP JUMPDEST PUSH2 0x3673 DUP7 DUP4 PUSH2 0x362C JUMP JUMPDEST SWAP6 POP DUP1 NOT DUP5 AND SWAP4 POP DUP1 DUP7 AND DUP5 OR SWAP3 POP POP POP SWAP4 SWAP3 POP POP POP JUMP JUMPDEST PUSH1 0x0 DUP2 SWAP1 POP SWAP2 SWAP1 POP JUMP JUMPDEST PUSH1 0x0 PUSH2 0x36B0 PUSH2 0x36AB PUSH2 0x36A6 DUP5 PUSH2 0x24A5 JUMP JUMPDEST PUSH2 0x368B JUMP JUMPDEST PUSH2 0x24A5 JUMP JUMPDEST SWAP1 POP SWAP2 SWAP1 POP JUMP JUMPDEST PUSH1 0x0 DUP2 SWAP1 POP SWAP2 SWAP1 POP JUMP JUMPDEST PUSH2 0x36CA DUP4 PUSH2 0x3695 JUMP JUMPDEST PUSH2 0x36DE PUSH2 0x36D6 DUP3 PUSH2 0x36B7 JUMP JUMPDEST DUP5 DUP5 SLOAD PUSH2 0x3639 JUMP JUMPDEST DUP3 SSTORE POP POP POP POP JUMP JUMPDEST PUSH1 0x0 SWAP1 JUMP JUMPDEST PUSH2 0x36F3 PUSH2 0x36E6 JUMP JUMPDEST PUSH2 0x36FE DUP2 DUP5 DUP5 PUSH2 0x36C1 JUMP JUMPDEST POP POP POP JUMP JUMPDEST JUMPDEST DUP2 DUP2 LT ISZERO PUSH2 0x3722 JUMPI PUSH2 0x3717 PUSH1 0x0 DUP3 PUSH2 0x36EB JUMP JUMPDEST PUSH1 0x1 DUP2 ADD SWAP1 POP PUSH2 0x3704 JUMP JUMPDEST POP POP JUMP JUMPDEST PUSH1 0x1F DUP3 GT ISZERO PUSH2 0x3767 JUMPI PUSH2 0x3738 DUP2 PUSH2 0x3607 JUMP JUMPDEST PUSH2 0x3741 DUP5 PUSH2 0x361C JUMP JUMPDEST DUP2 ADD PUSH1 0x20 DUP6 LT ISZERO PUSH2 0x3750 JUMPI DUP2 SWAP1 POP JUMPDEST PUSH2 0x3764 PUSH2 0x375C DUP6 PUSH2 0x361C JUMP JUMPDEST DUP4 ADD DUP3 PUSH2 0x3703 JUMP JUMPDEST POP POP JUMPDEST POP POP POP JUMP JUMPDEST PUSH1 0x0 DUP3 DUP3 SHR SWAP1 POP SWAP3 SWAP2 POP POP JUMP JUMPDEST PUSH1 0x0 PUSH2 0x378A PUSH1 0x0 NOT DUP5 PUSH1 0x8 MUL PUSH2 0x376C JUMP JUMPDEST NOT DUP1 DUP4 AND SWAP2 POP POP SWAP3 SWAP2 POP POP JUMP JUMPDEST PUSH1 0x0 PUSH2 0x37A3 DUP4 DUP4 PUSH2 0x3779 JUMP JUMPDEST SWAP2 POP DUP3 PUSH1 0x2 MUL DUP3 OR SWAP1 POP SWAP3 SWAP2 POP POP JUMP JUMPDEST PUSH2 0x37BC DUP3 PUSH2 0x2505 JUMP JUMPDEST PUSH8 0xFFFFFFFFFFFFFFFF DUP2 GT ISZERO PUSH2 0x37D5 JUMPI PUSH2 0x37D4 PUSH2 0x2666 JUMP JUMPDEST JUMPDEST PUSH2 0x37DF DUP3 SLOAD PUSH2 0x2EF8 JUMP JUMPDEST PUSH2 0x37EA DUP3 DUP3 DUP6 PUSH2 0x3726 JUMP JUMPDEST PUSH1 0x0 PUSH1 0x20 SWAP1 POP PUSH1 0x1F DUP4 GT PUSH1 0x1 DUP2 EQ PUSH2 0x381D JUMPI PUSH1 0x0 DUP5 ISZERO PUSH2 0x380B JUMPI DUP3 DUP8 ADD MLOAD SWAP1 POP JUMPDEST PUSH2 0x3815 DUP6 DUP3 PUSH2 0x3797 JUMP JUMPDEST DUP7 SSTORE POP PUSH2 0x387D JUMP JUMPDEST PUSH1 0x1F NOT DUP5 AND PUSH2 0x382B DUP7 PUSH2 0x3607 JUMP JUMPDEST PUSH1 0x0 JUMPDEST DUP3 DUP2 LT ISZERO PUSH2 0x3853 JUMPI DUP5 DUP10 ADD MLOAD DUP3 SSTORE PUSH1 0x1 DUP3 ADD SWAP2 POP PUSH1 0x20 DUP6 ADD SWAP5 POP PUSH1 0x20 DUP2 ADD SWAP1 POP PUSH2 0x382E JUMP JUMPDEST DUP7 DUP4 LT ISZERO PUSH2 0x3870 JUMPI DUP5 DUP10 ADD MLOAD PUSH2 0x386C PUSH1 0x1F DUP10 AND DUP3 PUSH2 0x3779 JUMP JUMPDEST DUP4 SSTORE POP JUMPDEST PUSH1 0x1 PUSH1 0x2 DUP9 MUL ADD DUP9 SSTORE POP POP POP JUMPDEST POP POP POP POP POP POP JUMP JUMPDEST PUSH32 0x4E487B7100000000000000000000000000000000000000000000000000000000 PUSH1 0x0 MSTORE PUSH1 0x51 PUSH1 0x4 MSTORE PUSH1 0x24 PUSH1 0x0 REVERT INVALID LOG2 PUSH5 0x6970667358 0x22 SLT KECCAK256 0xDC 0xDB RETURNDATASIZE DUP5 0xAA SWAP12 0xBE 0xE6 PUSH5 0xAA29CBAA7C PUSH22 0xD32FFA4B4E432107B17F184CF2B1C689CB64736F6C63 NUMBER STOP ADDMOD SHR STOP CALLER "},"methodIdentifiers":{"A()":"f446c1d0","B()":"32e7c5bf","GX()":"03a507be","GY()":"7a308a4c","N()":"c9e525df","P()":"8b8fbd92","authorities(uint256)":"494503d4","candidates(uint256)":"3477ee2e","electionPublicKey()":"0dd3849c","getAuthorityList()":"27b383b1","getCandidates()":"06a49fce","getECCParams()":"6b7a524f","hashMultiplePointsToScalar((uint256,uint256)[])":"477decc0","newEcPoint(uint256,uint256)":"b3bf5495","registerAuthority(uint256,uint256,uint256,uint256)":"24128a30","setCandidates(string[])":"14e745d9","status()":"200d2ed2"}}}}}