{
  "_format": "hh-sol-artifact-1",
  "contractName": "Ecc",
  "sourceName": "contracts/Ecc.sol",
  "abi": [
    {
      "inputs": [],
      "name": "A",
      "outputs": [
        {
          "internalType": "uint256",
          "name": "",
          "type": "uint256"
        }
      ],
      "stateMutability": "view",
      "type": "function"
    },
    {
      "inputs": [],
      "name": "B",
      "outputs": [
        {
          "internalType": "uint256",
          "name": "",
          "type": "uint256"
        }
      ],
      "stateMutability": "view",
      "type": "function"
    },
    {
      "inputs": [],
      "name": "G",
      "outputs": [
        {
          "internalType": "uint256",
          "name": "x",
          "type": "uint256"
        },
        {
          "internalType": "uint256",
          "name": "y",
          "type": "uint256"
        }
      ],
      "stateMutability": "view",
      "type": "function"
    },
    {
      "inputs": [],
      "name": "GX",
      "outputs": [
        {
          "internalType": "uint256",
          "name": "",
          "type": "uint256"
        }
      ],
      "stateMutability": "view",
      "type": "function"
    },
    {
      "inputs": [],
      "name": "GY",
      "outputs": [
        {
          "internalType": "uint256",
          "name": "",
          "type": "uint256"
        }
      ],
      "stateMutability": "view",
      "type": "function"
    },
    {
      "inputs": [],
      "name": "N",
      "outputs": [
        {
          "internalType": "uint256",
          "name": "",
          "type": "uint256"
        }
      ],
      "stateMutability": "view",
      "type": "function"
    },
    {
      "inputs": [],
      "name": "P",
      "outputs": [
        {
          "internalType": "uint256",
          "name": "",
          "type": "uint256"
        }
      ],
      "stateMutability": "view",
      "type": "function"
    },
    {
      "inputs": [
        {
          "internalType": "uint256",
          "name": "v",
          "type": "uint256"
        }
      ],
      "name": "encodeVote",
      "outputs": [
        {
          "components": [
            {
              "internalType": "uint256",
              "name": "x",
              "type": "uint256"
            },
            {
              "internalType": "uint256",
              "name": "y",
              "type": "uint256"
            }
          ],
          "internalType": "struct Ecc.EcPoint",
          "name": "",
          "type": "tuple"
        }
      ],
      "stateMutability": "view",
      "type": "function"
    },
    {
      "inputs": [],
      "name": "getECCParams",
      "outputs": [
        {
          "components": [
            {
              "internalType": "uint256",
              "name": "gx",
              "type": "uint256"
            },
            {
              "internalType": "uint256",
              "name": "gy",
              "type": "uint256"
            },
            {
              "internalType": "uint256",
              "name": "a",
              "type": "uint256"
            },
            {
              "internalType": "uint256",
              "name": "b",
              "type": "uint256"
            },
            {
              "internalType": "uint256",
              "name": "p",
              "type": "uint256"
            },
            {
              "internalType": "uint256",
              "name": "n",
              "type": "uint256"
            }
          ],
          "internalType": "struct Ecc.EccParams",
          "name": "",
          "type": "tuple"
        }
      ],
      "stateMutability": "pure",
      "type": "function"
    },
    {
      "inputs": [
        {
          "components": [
            {
              "internalType": "uint256",
              "name": "x",
              "type": "uint256"
            },
            {
              "internalType": "uint256",
              "name": "y",
              "type": "uint256"
            }
          ],
          "internalType": "struct Ecc.EcPoint[]",
          "name": "points",
          "type": "tuple[]"
        }
      ],
      "name": "hashMultiplePointsToScalar",
      "outputs": [
        {
          "internalType": "uint256",
          "name": "",
          "type": "uint256"
        }
      ],
      "stateMutability": "pure",
      "type": "function"
    },
    {
      "inputs": [
        {
          "internalType": "uint256",
          "name": "x",
          "type": "uint256"
        },
        {
          "internalType": "uint256",
          "name": "y",
          "type": "uint256"
        }
      ],
      "name": "newEcPoint",
      "outputs": [
        {
          "components": [
            {
              "internalType": "uint256",
              "name": "x",
              "type": "uint256"
            },
            {
              "internalType": "uint256",
              "name": "y",
              "type": "uint256"
            }
          ],
          "internalType": "struct Ecc.EcPoint",
          "name": "",
          "type": "tuple"
        }
      ],
      "stateMutability": "pure",
      "type": "function"
    }
  ],
  "bytecode": "0x608060405234610027576100116101f4565b61001961002c565b6125fc61023282396125fc90f35b610032565b60405190565b600080fd5b90565b90565b90565b61005461004f61005992610037565b61003d565b61003a565b90565b6100857f79be667ef9dcbbac55a06295ce870b07029bfcdb2dce28d959f2815b16f81798610040565b90565b90565b61009f61009a6100a492610088565b61003d565b61003a565b90565b6100d07f483ada7726a3c4655da4fbfc0e1108a8fd17b448a68554199c47d08ffb10d4b861008b565b90565b601f801991011690565b634e487b7160e01b600052604160045260246000fd5b906100fd906100d3565b810190811060018060401b0382111761011557604052565b6100dd565b9061012d61012661002c565b92836100f3565b565b610139604061011a565b90565b906101469061003a565b9052565b610154905161003a565b90565b60001b90565b9061016a60001991610157565b9181191691161790565b61018861018361018d9261003a565b61003d565b61003a565b90565b90565b906101a86101a36101af92610174565b610190565b825461015d565b9055565b906101e0602060016101e6946101d8600082016101d26000880161014a565b90610193565b01920161014a565b90610193565b565b906101f2916101b3565b565b61022f6101ff61005c565b61022861020a6100a7565b61021f61021561012f565b936000850161013c565b6020830161013c565b60006101e8565b56fe60806040526004361015610013575b61082f565b61001e6000356100cd565b806303a507be146100c857806332e7c5bf146100c3578063477decc0146100be5780636b7a524f146100b95780636fecb623146100b45780637a308a4c146100af5780638b8fbd92146100aa578063b3bf5495146100a5578063c3926505146100a0578063c9e525df1461009b5763f446c1d00361000e576107fa565b61078e565b610711565b6106bc565b61061d565b6105ac565b610520565b61047f565b6103b9565b6101de565b610172565b60e01c90565b60405190565b600080fd5b600080fd5b60009103126100ee57565b6100de565b90565b90565b90565b61011061010b610115926100f3565b6100f9565b6100f6565b90565b6101417f79be667ef9dcbbac55a06295ce870b07029bfcdb2dce28d959f2815b16f817986100fc565b90565b61014c610118565b90565b610158906100f6565b9052565b91906101709060006020850194019061014f565b565b346101a2576101823660046100e3565b61019e61018d610144565b6101956100d3565b9182918261015c565b0390f35b6100d9565b90565b6101be6101b96101c3926101a7565b6100f9565b6100f6565b90565b6101d060076101aa565b90565b6101db6101c6565b90565b3461020e576101ee3660046100e3565b61020a6101f96101d3565b6102016100d3565b9182918261015c565b0390f35b6100d9565b600080fd5b600080fd5b601f801991011690565b634e487b7160e01b600052604160045260246000fd5b906102479061021d565b810190811067ffffffffffffffff82111761026157604052565b610227565b906102796102726100d3565b928361023d565b565b67ffffffffffffffff81116102935760208091020190565b610227565b600080fd5b600080fd5b6102ab816100f6565b036102b257565b600080fd5b905035906102c4826102a2565b565b9190604083820312610302576102fb906102e06040610266565b936102ee82600083016102b7565b60008601526020016102b7565b6020830152565b61029d565b9092919261031c6103178261027b565b610266565b93818552604060208601920283019281841161035b57915b8383106103415750505050565b602060409161035084866102c6565b815201920191610334565b610298565b9080601f8301121561037e5781602061037b93359101610307565b90565b610218565b906020828203126103b457600082013567ffffffffffffffff81116103af576103ac9201610360565b90565b610213565b6100de565b346103e9576103e56103d46103cf366004610383565b610a77565b6103dc6100d3565b9182918261015c565b0390f35b6100d9565b6103f7906100f6565b9052565b9060a08061046793610415600082015160008601906103ee565b610427602082015160208601906103ee565b610439604082015160408601906103ee565b61044b606082015160608601906103ee565b61045d608082015160808601906103ee565b01519101906103ee565b565b919061047d90600060c085019401906103fb565b565b346104af5761048f3660046100e3565b6104ab61049a610c2d565b6104a26100d3565b91829182610469565b0390f35b6100d9565b60001c90565b90565b6104c96104ce916104b4565b6104ba565b90565b6104db90546104bd565b90565b6000906104f960016104f2600085016104d1565b93016104d1565b90565b91602061051e9294936105176040820196600083019061014f565b019061014f565b565b34610551576105303660046100e3565b6105386104de565b9061054d6105446100d3565b928392836104fc565b0390f35b6100d9565b90565b61056d61056861057292610556565b6100f9565b6100f6565b90565b61059e7f483ada7726a3c4655da4fbfc0e1108a8fd17b448a68554199c47d08ffb10d4b8610559565b90565b6105a9610575565b90565b346105dc576105bc3660046100e3565b6105d86105c76105a1565b6105cf6100d3565b9182918261015c565b0390f35b6100d9565b90565b6105f86105f36105fd926105e1565b6100f9565b6100f6565b90565b61060f6401000003d0196105e4565b90565b61061a610600565b90565b3461064d5761062d3660046100e3565b610649610638610612565b6106406100d3565b9182918261015c565b0390f35b6100d9565b919060408382031261067b578061066f61067892600086016102b7565b936020016102b7565b90565b6100de565b906020806106a49361069a600082015160008601906103ee565b01519101906103ee565b565b91906106ba90600060408501940190610680565b565b346106ed576106e96106d86106d2366004610652565b90610d07565b6106e06100d3565b918291826106a6565b0390f35b6100d9565b9060208282031261070c57610709916000016102b7565b90565b6100de565b346107415761073d61072c6107273660046106f2565b610ea1565b6107346100d3565b918291826106a6565b0390f35b6100d9565b90565b61075d61075861076292610746565b6100f9565b6100f6565b90565b61078070014551231950b75fc4402da1732fc9bebe19610749565b90565b61078b610765565b90565b346107be5761079e3660046100e3565b6107ba6107a9610783565b6107b16100d3565b9182918261015c565b0390f35b6100d9565b90565b6107da6107d56107df926107c3565b6100f9565b6100f6565b90565b6107ec60006107c6565b90565b6107f76107e2565b90565b3461082a5761080a3660046100e3565b6108266108156107ef565b61081d6100d3565b9182918261015c565b0390f35b6100d9565b600080fd5b600090565b5190565b60209181520190565b60007f4e6f20706f696e74732070726f76696465640000000000000000000000000000910152565b61087b601260209261083d565b61088481610846565b0190565b61089e906020810190600081830391015261086e565b90565b156108a857565b6108b06100d3565b62461bcd60e51b8152806108c660048201610888565b0390fd5b634e487b7160e01b600052603260045260246000fd5b906108ea82610839565b8110156108fb576020809102010190565b6108ca565b90565b61091761091261091c92610900565b6100f9565b6100f6565b90565b600161092b91016100f6565b90565b61093890516100f6565b90565b5190565b905090565b60005b838110610958575050906000910152565b806020918301518185015201610947565b61098e6109859260209261097c8161093b565b9485809361093f565b93849101610944565b0190565b60007f2c00000000000000000000000000000000000000000000000000000000000000910152565b6109c66001809261093f565b6109cf81610992565b0190565b6109e46109e9916109ef9493610969565b6109ba565b90610969565b90565b60001b90565b5190565b905090565b610a26610a1d92602092610a14816109f8565b948580936109fc565b93849101610944565b0190565b610a3391610a01565b90565b610a3e6100d3565b3d6000823e3d90fd5b610a5b610a56610a60926100f6565b6100f9565b6100f6565b90565b610a6f610a74916104b4565b610a47565b90565b90610a80610834565b50610aa6610a8d83610839565b610aa0610a9a60006107c6565b916100f6565b116108a1565b610aba82610ab460006107c6565b906108e0565b51610ac56001610903565b905b81610ae2610adc610ad787610839565b6100f6565b916100f6565b1015610b0d57610b01610b0791610afa8685906108e0565b5190610f8e565b9161091f565b90610ac7565b602092935060009150610b7990610b68610b43610b3e86610b37610b3288870161092e565b6111cd565b940161092e565b6111cd565b91610b5a610b4f6100d3565b9384928884016109d3565b86820181038252038261023d565b610b706100d3565b91829182610a2a565b039060025afa15610b9a57610b97610b926000516109f2565b610a63565b90565b610a36565b610ba960c0610266565b90565b600090565b610bb9610b9f565b906020808080808087610bca610bac565b815201610bd5610bac565b815201610be0610bac565b815201610beb610bac565b815201610bf6610bac565b815201610c01610bac565b81525050565b610c0f610bb1565b90565b610c1c60c0610266565b90565b90610c29906100f6565b9052565b610c35610c07565b50610c3e610118565b610cb9610c49610575565b610cb0610c546107e2565b610ca7610c5f6101c6565b610c9e610c6a610600565b93610c95610c76610765565b97610c8c610c82610c12565b9b60008d01610c1f565b60208b01610c1f565b60408901610c1f565b60608701610c1f565b60808501610c1f565b60a08301610c1f565b90565b610cc66040610266565b90565b610cd1610cbc565b9060208083610cde610bac565b815201610ce9610bac565b81525050565b610cf7610cc9565b90565b610d046040610266565b90565b610d3390610d13610cef565b5091610d2a610d20610cfa565b9360008501610c1f565b60208301610c1f565b90565b60207f2031000000000000000000000000000000000000000000000000000000000000917f496e76616c696420766f74652c2063616e206f6e6c7920636173742030206f7260008201520152565b610d91602260409261083d565b610d9a81610d36565b0190565b610db49060208101906000818303910152610d84565b90565b15610dbe57565b610dc66100d3565b62461bcd60e51b815280610ddc60048201610d9e565b0390fd5b60007f496e76616c696420766f74650000000000000000000000000000000000000000910152565b610e15600c60209261083d565b610e1e81610de0565b0190565b610e389060208101906000818303910152610e08565b90565b90565b610e52610e4d610e5792610e3b565b6100f9565b6100f6565b90565b90610e93610e8a6001610e6b610cbc565b94610e84610e7b600083016104d1565b60008801610c1f565b016104d1565b60208401610c1f565b565b610e9e90610e5a565b90565b610ea9610cef565b5080610ebe610eb860006107c6565b916100f6565b148015610f58575b610ecf90610db7565b80610ee3610edd60006107c6565b916100f6565b14600014610ef95750610ef66000610e95565b90565b610f0c610f066001610903565b916100f6565b14600014610f3657610f336002610f2d610f27600092610e3e565b91610e95565b90611277565b90565b610f3e6100d3565b62461bcd60e51b815280610f5460048201610e22565b0390fd5b50610ecf81610f70610f6a6001610903565b916100f6565b149050610ec6565b634e487b7160e01b600052601260045260246000fd5b90610f97610cef565b50610fa260006107c6565b50610fad60006107c6565b50610fb860006107c6565b50610fc56000830161092e565b610fe2610fdc610fd76000850161092e565b6100f6565b916100f6565b146000146110a7576110016020610ffa81850161092e565b920161092e565b611009610600565b9182156110a2570861102461101e60006107c6565b916100f6565b1460001461106557506000611062611059600061105461104b611045610cfa565b956107c6565b60008601610c1f565b6107c6565b60208301610c1f565b90565b61109481611084602061107d600061109f960161092e565b920161092e565b61108e6001610903565b91611c3c565b90915b919091611e9b565b90565b610f78565b816110fd916110c760206110c0600061109f970161092e565b930161092e565b9060016110e260206110db6000850161092e565b930161092e565b926110f76110f1600193610903565b92610903565b94611422565b9091611097565b606090565b9061111491016100f6565b90565b67ffffffffffffffff81116111355761113160209161021d565b0190565b610227565b9061114c61114783611117565b610266565b918252565b369037565b9061117b6111638361113a565b926020806111718693611117565b9201910390611151565b565b600161118991036100f6565b90565b90565b6111a361119e6111a89261118c565b6100f9565b6100f6565b90565b6111b76111bd916100f6565b916100f6565b9081156111c8570490565b610f78565b6111d5611104565b506111f26111e282612047565b6111ec6001610903565b90611109565b906111fc82611156565b91611205610834565b5060200182015b6001156112705761121f61124b9161117d565b916f181899199a1a9b1b9c1cb0b131b232b360811b600a82061a8353611245600a61118f565b906111ab565b8061125f61125960006107c6565b916100f6565b1461126a579061120c565b50505b90565b505061126d565b6112be916112b291611287610cef565b50906112a1602061129a6000840161092e565b920161092e565b906112ac6001610903565b926122cb565b91909190919091611e9b565b90565b67ffffffffffffffff81116112d65760200290565b610227565b6112e76112ec916112c1565b610266565b90565b369037565b90611312611301836112db565b9261130c84916112c1565b906112ef565b565b61131e60046112f4565b90565b50600490565b9061133182611321565b81101561133f576020020190565b6108ca565b90565b61135b61135661136092611344565b6100f9565b6100f6565b90565b60007f557365206a6163446f75626c652066756e6374696f6e20696e73746561640000910152565b611398601e60209261083d565b6113a181611363565b0190565b6113bb906020810190600081830391015261138b565b90565b156113c557565b6113cd6100d3565b62461bcd60e51b8152806113e3600482016113a5565b0390fd5b634e487b7160e01b600052601160045260246000fd5b61140c611412919392936100f6565b926100f6565b820391821161141d57565b6113e7565b929593909195611430610834565b50611439610834565b50611442610834565b508361145761145160006107c6565b916100f6565b1480611be3575b611bd5578061147661147060006107c6565b916100f6565b1480611bba575b611bae57611489611314565b928788611494610600565b908115611ba9576114b992096114b4866114ae60006107c6565b90611327565b610c1f565b876114d66114d1866114cb60006107c6565b90611327565b61092e565b6114de610600565b908115611ba45761150392096114fe866114f86001610903565b90611327565b610c1f565b868761150d610600565b908115611b9f57611532920961152d866115276002610e3e565b90611327565b610c1f565b8661154f61154a866115446002610e3e565b90611327565b61092e565b611557610600565b908115611b9a5761157c9209611577866115716003611347565b90611327565b610c1f565b61158660046112db565b946115a361159e866115986002610e3e565b90611327565b61092e565b6115ab610600565b908115611b95576115c0920960008701610c1f565b6115dc6115d7856115d16003611347565b90611327565b61092e565b6115e4610600565b908115611b90576115f9920960208601610c1f565b906116166116118461160b60006107c6565b90611327565b61092e565b9061161f610600565b928315611b8b576116529361164d9361163c920960408701610c1f565b926116476001610903565b90611327565b61092e565b61165a610600565b908115611b865761166f920960608301610c1f565b9261168c6116878561168160006107c6565b90611327565b61092e565b6116b96116b36116ae6116a9886116a36002610e3e565b90611327565b61092e565b6100f6565b916100f6565b14158015611b30575b6116cb906113be565b6116d3611314565b926116f06116eb866116e56002610e3e565b90611327565b61092e565b61171d6116fb610600565b6117176117128961170c60006107c6565b90611327565b61092e565b906113fd565b611725610600565b908115611b2b5761174a92086117458661173f60006107c6565b90611327565b610c1f565b6117666117618661175b6003611347565b90611327565b61092e565b611793611771610600565b61178d611788896117826001610903565b90611327565b61092e565b906113fd565b61179b610600565b908115611b26576117c092086117bb866117b56001610903565b90611327565b610c1f565b6117dc6117d7856117d160006107c6565b90611327565b61092e565b6117f86117f3866117ed60006107c6565b90611327565b61092e565b611800610600565b908115611b215761182592096118208661181a6002610e3e565b90611327565b610c1f565b61184161183c856118366002610e3e565b90611327565b61092e565b61185d6118588661185260006107c6565b90611327565b61092e565b611865610600565b908115611b1c5761188a92096118858661187f6003611347565b90611327565b610c1f565b6118a66118a18561189b6001610903565b90611327565b61092e565b6118c26118bd866118b76001610903565b90611327565b61092e565b6118ca610600565b918215611b1757096118ff6118dd610600565b6118f96118f4886118ee6003611347565b90611327565b61092e565b906113fd565b611907610600565b918215611b125708611917610600565b6002906119366119318961192b60006107c6565b90611327565b61092e565b61195261194d896119476002610e3e565b90611327565b61092e565b61195a610600565b918215611b0d570961196a610600565b908115611b085761197d61198494610e3e565b09906113fd565b61198c610600565b918215611b035708946119b16119ac866119a66001610903565b90611327565b61092e565b6119cd6119c8836119c260006107c6565b90611327565b61092e565b6119e96119e4886119de6002610e3e565b90611327565b61092e565b6119f1610600565b918215611afe5709611a0b611a04610600565b89906113fd565b611a13610600565b918215611af95708611a23610600565b918215611af4570990611a50611a4b611a3a610600565b92611a456001610903565b90611327565b61092e565b90611a6d611a6888611a626003611347565b90611327565b61092e565b611a75610600565b908115611aef57611a879309906113fd565b90611a90610600565b8015611aea57611ab592611ab0920895611aaa60006107c6565b90611327565b61092e565b9190611abf610600565b918215611ae55709611acf610600565b918215611ae0570992919291929190565b610f78565b610f78565b610f78565b610f78565b610f78565b610f78565b610f78565b610f78565b610f78565b610f78565b610f78565b610f78565b610f78565b610f78565b610f78565b610f78565b506116cb611b50611b4b86611b456001610903565b90611327565b61092e565b611b7d611b77611b72611b6d89611b676003611347565b90611327565b61092e565b6100f6565b916100f6565b141590506116c2565b610f78565b610f78565b610f78565b610f78565b610f78565b610f78565b610f78565b610f78565b50509250919291929190565b5081611bcf611bc960006107c6565b916100f6565b1461147d565b925093945050919291929190565b5082611bf8611bf260006107c6565b916100f6565b1461145e565b90565b611c15611c10611c1a92611bfe565b6100f9565b6100f6565b90565b90565b611c34611c2f611c3992611c1d565b6100f9565b6100f6565b90565b9290611c46610834565b50611c4f610834565b50611c58610834565b5082611c6d611c6760006107c6565b916100f6565b14611e91578384611c7c610600565b918215611e8c5709938182611c8f610600565b918215611e875709908485611ca2610600565b918215611e8257099060049083611cb7610600565b918215611e7d5709611cc7610600565b918215611e7857611cd790611c01565b0995600390611ce4610600565b918215611e7357611cf490611347565b0990611cfe6107e2565b9080611d08610600565b918215611e6e5709611d18610600565b918215611e695709611d28610600565b918215611e645708948586611d3b610600565b918215611e5f5709611d4b610600565b829083611d56610600565b908115611e5a57611d689308906113fd565b611d70610600565b918215611e5557089590611d8c611d85610600565b88906113fd565b611d94610600565b918215611e505708611da4610600565b918215611e4b570990611db5610600565b60089180611dc1610600565b918215611e465709611dd1610600565b908115611e4157611de4611deb94611c20565b09906113fd565b611df3610600565b918215611e3c57089260029190611e08610600565b918215611e375709611e18610600565b918215611e3257611e2890610e3e565b0992919291929190565b610f78565b610f78565b610f78565b610f78565b610f78565b610f78565b610f78565b610f78565b610f78565b610f78565b610f78565b610f78565b610f78565b610f78565b610f78565b610f78565b610f78565b610f78565b610f78565b9192919291929190565b9091611eaf90611ea9610cef565b50612495565b908182611eba610600565b918215611f2b57099081611ecc610600565b918215611f265709929190611edf610600565b918215611f215709611eef610600565b908115611f1c57611f199209611f10611f06610cfa565b9360008501610c1f565b60208301610c1f565b90565b610f78565b610f78565b610f78565b610f78565b90565b611f47611f42611f4c92611f30565b6100f9565b6100f6565b90565b90565b611f66611f61611f6b92611f4f565b6100f9565b6100f6565b90565b90565b611f85611f80611f8a92611f6e565b6100f9565b6100f6565b90565b90565b611fa4611f9f611fa992611f8d565b6100f9565b6100f6565b90565b90565b611fc3611fbe611fc892611fac565b6100f9565b6100f6565b90565b90565b611fe2611fdd611fe792611fcb565b6100f9565b6100f6565b90565b90565b612001611ffc61200692611fea565b6100f9565b6100f6565b90565b90565b61202061201b61202592612009565b6100f9565b6100f6565b90565b90565b61203f61203a61204492612028565b6100f9565b6100f6565b90565b61204f610834565b5061205a60006107c6565b90806120896120837a184f03e93ff9f4daa797ed6e38ed64bf6a1f010000000000000000611f33565b916100f6565b1015612261575b806120b16120ab6d04ee2d6d415b85acef8100000000611f71565b916100f6565b1015612226575b806120d26120cc662386f26fc10000611faf565b916100f6565b10156121f2575b806120f06120ea6305f5e100611fed565b916100f6565b10156121c1575b8061210c61210661271061200c565b916100f6565b1015612192575b80612127612121606461202b565b916100f6565b1015612164575b61214161213b600a61118f565b916100f6565b101561214b575b90565b61215f906121596001610903565b90611109565b612148565b61217b61218c91612175606461202b565b906111ab565b916121866002610e3e565b90611109565b9061212e565b6121aa6121bb916121a461271061200c565b906111ab565b916121b56004611c01565b90611109565b90612113565b6121db6121ec916121d56305f5e100611fed565b906111ab565b916121e66008611c20565b90611109565b906120f7565b61220f61222091612209662386f26fc10000611faf565b906111ab565b9161221a6010611fce565b90611109565b906120d9565b61224a61225b916122446d04ee2d6d415b85acef8100000000611f71565b906111ab565b916122556020611f90565b90611109565b906120b8565b6122926122a39161228c7a184f03e93ff9f4daa797ed6e38ed64bf6a1f010000000000000000611f33565b906111ab565b9161229d6040611f52565b90611109565b90612090565b6122b56122bb916100f6565b916100f6565b9081156122c6570490565b610f78565b9291926122d6610834565b506122df610834565b506122e8610834565b50806122fd6122f760006107c6565b916100f6565b146123d057939061230e60006107c6565b9361231960006107c6565b936123246001610903565b965b8061233a61233460006107c6565b916100f6565b146123c4578061234a6001610903565b1661235e61235860006107c6565b916100f6565b03612398575b9061237d61238693926123776002610e3e565b906122a9565b93919091611c3c565b95919594909592959195949094612326565b9561237d956123869392986123b4929190869085928c94611422565b9891969096979192935050612364565b50505050909291929190565b50929092919291929190565b60007f496e76616c6964206e756d626572000000000000000000000000000000000000910152565b612411600e60209261083d565b61241a816123dc565b0190565b6124349060208101906000818303910152612404565b90565b1561243e57565b6124466100d3565b62461bcd60e51b81528061245c6004820161241e565b0390fd5b61246f612475919392936100f6565b926100f6565b916124818382026100f6565b92818404149015171561249057565b6113e7565b61249d610834565b50806124b26124ac60006107c6565b916100f6565b1415806125a4575b8061257c575b6124c990612437565b6124d360006107c6565b6124dd6001610903565b906124e6610600565b916124ef610834565b505b836125056124ff60006107c6565b916100f6565b14612575576125158385906122a9565b819291612520610600565b829161252a610600565b9081156125705761253c9309906113fd565b91612545610600565b801561256b576125649361255e92089395809592612460565b906113fd565b92906124f1565b610f78565b610f78565b5091505090565b506124c9612588610600565b61259b61259560006107c6565b916100f6565b141590506124c0565b50806125bf6125b96125b4610600565b6100f6565b916100f6565b14156124ba56fea26469706673582212204ae67bd0229a4977696b59c857aa2d7968860286b317554d0b70d3519636237864736f6c634300081c0033",
  "linkReferences": {},
  "deployedLinkReferences": {}
}